{"abi":[{"inputs":[{"internalType":"address","name":"bbProfiles","type":"address"},{"internalType":"address","name":"bbTiers","type":"address"},{"internalType":"address","name":"bbTreasury","type":"address"}],"stateMutability":"nonpayable","type":"constructor","name":"constructor"},{"anonymous":false,"inputs":[{"indexed":false,"internalType":"address","name":"currency","type":"address"},{"indexed":false,"internalType":"address","name":"deployedAddress","type":"address"}],"name":"DeployedSubscription","type":"event"},{"anonymous":false,"inputs":[{"indexed":false,"internalType":"uint256","name":"profileId","type":"uint256"},{"indexed":false,"internalType":"uint256","name":"contribution","type":"uint256"}],"name":"EditContribution","type":"event"},{"anonymous":false,"inputs":[{"indexed":false,"internalType":"uint256","name":"profileId","type":"uint256"},{"indexed":false,"internalType":"uint256","name":"tierSet","type":"uint256"},{"indexed":false,"internalType":"uint256","name":"contribution","type":"uint256"}],"name":"NewSubscriptionProfile","type":"event"},{"anonymous":false,"inputs":[{"indexed":true,"internalType":"address","name":"previousOwner","type":"address"},{"indexed":true,"internalType":"address","name":"newOwner","type":"address"}],"name":"OwnershipTransferred","type":"event"},{"inputs":[{"internalType":"uint256","name":"profileId","type":"uint256"},{"internalType":"uint256","name":"tierSet","type":"uint256"},{"internalType":"uint256","name":"contribution","type":"uint256"}],"name":"createSubscriptionProfile","outputs":[],"stateMutability":"nonpayable","type":"function"},{"inputs":[{"internalType":"address","name":"currency","type":"address"}],"name":"deploySubscriptions","outputs":[],"stateMutability":"nonpayable","type":"function"},{"inputs":[],"name":"getBackedByTreasury","outputs":[{"internalType":"address","name":"","type":"address"}],"stateMutability":"view","type":"function"},{"inputs":[],"name":"getContributionBounds","outputs":[{"internalType":"uint256","name":"","type":"uint256"},{"internalType":"uint256","name":"","type":"uint256"}],"stateMutability":"pure","type":"function"},{"inputs":[{"internalType":"address","name":"currency","type":"address"}],"name":"getDeployedSubscriptions","outputs":[{"internalType":"address","name":"","type":"address"}],"stateMutability":"view","type":"function"},{"inputs":[],"name":"getGracePeriod","outputs":[{"internalType":"uint256","name":"","type":"uint256"}],"stateMutability":"pure","type":"function"},{"inputs":[{"internalType":"uint256","name":"profileId","type":"uint256"},{"internalType":"uint256","name":"tierId","type":"uint256"},{"internalType":"address","name":"account","type":"address"}],"name":"getSubscriptionCurrency","outputs":[{"internalType":"address","name":"","type":"address"}],"stateMutability":"view","type":"function"},{"inputs":[],"name":"getSubscriptionGasRequirement","outputs":[{"internalType":"uint256","name":"","type":"uint256"}],"stateMutability":"view","type":"function"},{"inputs":[{"internalType":"uint256","name":"profileId","type":"uint256"}],"name":"getSubscriptionProfile","outputs":[{"internalType":"uint256","name":"","type":"uint256"},{"internalType":"uint256","name":"","type":"uint256"}],"stateMutability":"view","type":"function"},{"inputs":[{"internalType":"uint256","name":"profileId","type":"uint256"},{"internalType":"uint256","name":"tierId","type":"uint256"},{"internalType":"address","name":"account","type":"address"}],"name":"isSubscriptionActive","outputs":[{"internalType":"bool","name":"","type":"bool"}],"stateMutability":"view","type":"function"},{"inputs":[{"internalType":"uint256","name":"profileId","type":"uint256"}],"name":"isSubscriptionProfileCreated","outputs":[{"internalType":"bool","name":"","type":"bool"}],"stateMutability":"view","type":"function"},{"inputs":[],"name":"owner","outputs":[{"internalType":"address","name":"","type":"address"}],"stateMutability":"view","type":"function"},{"inputs":[],"name":"renounceOwnership","outputs":[],"stateMutability":"nonpayable","type":"function"},{"inputs":[{"internalType":"uint256","name":"profileId","type":"uint256"},{"internalType":"uint256","name":"contribution","type":"uint256"}],"name":"setContribution","outputs":[],"stateMutability":"nonpayable","type":"function"},{"inputs":[{"internalType":"uint256","name":"profileId","type":"uint256"},{"internalType":"uint256","name":"tierId","type":"uint256"},{"internalType":"address","name":"account","type":"address"},{"internalType":"address","name":"currency","type":"address"}],"name":"setSubscriptionCurrency","outputs":[],"stateMutability":"nonpayable","type":"function"},{"inputs":[{"internalType":"uint256","name":"requirement","type":"uint256"}],"name":"setSubscriptionGasRequirement","outputs":[],"stateMutability":"nonpayable","type":"function"},{"inputs":[{"internalType":"address","name":"account","type":"address"}],"name":"setTreasury","outputs":[],"stateMutability":"nonpayable","type":"function"},{"inputs":[{"internalType":"address","name":"newOwner","type":"address"}],"name":"transferOwnership","outputs":[],"stateMutability":"nonpayable","type":"function"}],"bytecode":"60c06040526305f5e1006001553480156200001957600080fd5b5060405162003204380380620032048339810160408190526200003c91620000e3565b620000473362000076565b6001600160a01b0392831660805290821660a052600680546001600160a01b031916919092161790556200012d565b600080546001600160a01b038381166001600160a01b0319831681178455604051919092169283917f8be0079c531659141344cd1fd0a4f28419497f9722a3daafe3b4186f6b6457e09190a35050565b80516001600160a01b0381168114620000de57600080fd5b919050565b600080600060608486031215620000f957600080fd5b6200010484620000c6565b92506200011460208501620000c6565b91506200012460408501620000c6565b90509250925092565b60805160a0516130796200018b6000396000818161031b01526106340152600081816102fa01528181610400015281816104c101528181610582015281816107710152818161082801528181610b070152610bc801526130796000f3fe608060405234801561001057600080fd5b50600436106101165760003560e01c8063715018a6116100a2578063cc0de21811610071578063cc0de21814610263578063dbd183881461028f578063ed74a20214610298578063f0f44260146102ab578063f2fde38b146102be57600080fd5b8063715018a6146102265780638da5cb5b1461022e578063a29a314d1461023f578063ca8c3e771461025057600080fd5b8063358d818c116100e9578063358d818c146101c857806338e342ac146101db57806346a8a015146101ee57806351ea27ae146102005780635e7074831461021357600080fd5b80630c500e561461011b578063175ff2a214610176578063268b30141461018b57806332d7d7be146101a5575b600080fd5b610159610129366004610f18565b60009283526005602090815260408085209385529281528284206001600160a01b03928316855290529120541690565b6040516001600160a01b0390911681526020015b60405180910390f35b610189610184366004610f51565b6102d1565b005b600160645b6040805192835260208301919091520161016d565b6101b86101b3366004610f75565b6103fb565b604051901515815260200161016d565b6101896101d6366004610f8e565b6104be565b6101896101e9366004610f75565b610729565b6001545b60405190815260200161016d565b6101b861020e366004610f18565b61076c565b610189610221366004610fba565b610a66565b610189610ace565b6000546001600160a01b0316610159565b6006546001600160a01b0316610159565b61018961025e366004611004565b610b04565b610159610271366004610f51565b6001600160a01b039081166000908152600460205260409020541690565b6202a3006101f2565b6101906102a6366004610f75565b610cae565b6101896102b9366004610f51565b610cdf565b6101896102cc366004610f51565b610d54565b6001600160a01b0381811660009081526004602052604090205416156102f657600080fd5b60007f00000000000000000000000000000000000000000000000000000000000000007f0000000000000000000000000000000000000000000000000000000000000000308460405161034890610ef6565b6001600160a01b039485168152928416602084015290831660408301529091166060820152608001604051809103906000f08015801561038c573d6000803e3d6000fd5b506001600160a01b0383811660008181526004602090815260409182902080546001600160a01b031916948616948517905581519283528201929092529192507fcbb74cbe3a0fd52f508100336e0d2e8a7e184bd44940fc6f24a176009a469a5f910160405180910390a15050565b6000817f00000000000000000000000000000000000000000000000000000000000000006001600160a01b031663d2adbe796040518163ffffffff1660e01b8152600401602060405180830381865afa15801561045c573d6000803e3d6000fd5b505050506040513d601f19601f820116820180604052508101906104809190611026565b81106104a75760405162461bcd60e51b815260040161049e9061103f565b60405180910390fd5b505060009081526003602052604090205460ff1690565b827f00000000000000000000000000000000000000000000000000000000000000006001600160a01b031663d2adbe796040518163ffffffff1660e01b8152600401602060405180830381865afa15801561051d573d6000803e3d6000fd5b505050506040513d601f19601f820116820180604052508101906105419190611026565b811061055f5760405162461bcd60e51b815260040161049e9061103f565b604051633c23d3d960e21b81526004810185905284906000906001600160a01b037f0000000000000000000000000000000000000000000000000000000000000000169063f08f4f6490602401600060405180830381865afa1580156105c9573d6000803e3d6000fd5b505050506040513d6000823e601f3d908101601f191682016040526105f19190810190611085565b50909150506001600160a01b038116331461061e5760405162461bcd60e51b815260040161049e9061117f565b60405163ed340ddf60e01b8152600481018790527f00000000000000000000000000000000000000000000000000000000000000006001600160a01b03169063ed340ddf90602401602060405180830381865afa158015610683573d6000803e3d6000fd5b505050506040513d601f19601f820116820180604052508101906106a79190611026565b85106106b257600080fd5b6106bc8685610def565b60008681526002602090815260408083208890556003825291829020805460ff1916600117905581518881529081018790529081018590527f712496816c24246b3c0bf6e37e05b0f7fb8e402c5ae7a311cde9e9ec54665c449060600160405180910390a1505050505050565b6000546001600160a01b031633146107535760405162461bcd60e51b815260040161049e906111c4565b66038d7ea4c6800081111561076757600080fd5b600155565b6000837f00000000000000000000000000000000000000000000000000000000000000006001600160a01b031663d2adbe796040518163ffffffff1660e01b8152600401602060405180830381865afa1580156107cd573d6000803e3d6000fd5b505050506040513d601f19601f820116820180604052508101906107f19190611026565b811061080f5760405162461bcd60e51b815260040161049e9061103f565b604051633c23d3d960e21b8152600481018690526000907f00000000000000000000000000000000000000000000000000000000000000006001600160a01b03169063f08f4f6490602401600060405180830381865afa158015610877573d6000803e3d6000fd5b505050506040513d6000823e601f3d908101601f1916820160405261089f9190810190611085565b50509050836001600160a01b0316816001600160a01b0316036108c6576001925050610a5e565b6001600160a01b0381163b1561094e57604051631f81da0360e11b81526001600160a01b038581166004830152821690633f03b40690602401602060405180830381865afa925050508015610938575060408051601f3d908101601f191682019092526109359181019061120e565b60015b1561094e57801561094c579250610a5e9050565b505b600086815260056020908152604080832088845282528083206001600160a01b03888116855292529091205416610989576000925050610a5e565b600086815260056020908152604080832088845282528083206001600160a01b038881168086529184528285205481168552600493849052828520549251636a9eaf2160e11b81529384018b9052602484018a905260448401919091521691908190839063d53d5e4290606401606060405180830381865afa158015610a13573d6000803e3d6000fd5b505050506040513d601f19601f82011682018060405250810190610a379190611229565b92509250506202a30082610a4b919061125e565b42108015610a57575080155b9550505050505b509392505050565b6001600160a01b03818116600090815260046020526040902054163314610a8c57600080fd5b60009384526005602090815260408086209486529381528385206001600160a01b03938416865290529190922080546001600160a01b03191691909216179055565b6000546001600160a01b03163314610af85760405162461bcd60e51b815260040161049e906111c4565b610b026000610ea6565b565b817f00000000000000000000000000000000000000000000000000000000000000006001600160a01b031663d2adbe796040518163ffffffff1660e01b8152600401602060405180830381865afa158015610b63573d6000803e3d6000fd5b505050506040513d601f19601f82011682018060405250810190610b879190611026565b8110610ba55760405162461bcd60e51b815260040161049e9061103f565b604051633c23d3d960e21b81526004810184905283906000906001600160a01b037f0000000000000000000000000000000000000000000000000000000000000000169063f08f4f6490602401600060405180830381865afa158015610c0f573d6000803e3d6000fd5b505050506040513d6000823e601f3d908101601f19168201604052610c379190810190611085565b50909150506001600160a01b0381163314610c645760405162461bcd60e51b815260040161049e9061117f565b610c6e8585610def565b60408051868152602081018690527fd4ea22d2ab0fef3d73a9c65cec244ae56b85825c9ded190f80b5c626c0bcabc4910160405180910390a15050505050565b600080610cba836103fb565b610cc357600080fd5b5050600090815260026020526040902080546001909101549091565b6000546001600160a01b03163314610d095760405162461bcd60e51b815260040161049e906111c4565b6000546001600160a01b03166001600160a01b0316816001600160a01b031603610d3257600080fd5b600680546001600160a01b0319166001600160a01b0392909216919091179055565b6000546001600160a01b03163314610d7e5760405162461bcd60e51b815260040161049e906111c4565b6001600160a01b038116610de35760405162461bcd60e51b815260206004820152602660248201527f4f776e61626c653a206e6577206f776e657220697320746865207a65726f206160448201526564647265737360d01b606482015260840161049e565b610dec81610ea6565b50565b6001811015610e405760405162461bcd60e51b815260206004820152601760248201527f436f6e747269627574696f6e20697320746f6f206c6f77000000000000000000604482015260640161049e565b6064811115610e915760405162461bcd60e51b815260206004820152601860248201527f436f6e747269627574696f6e20697320746f6f20686967680000000000000000604482015260640161049e565b60009182526002602052604090912060010155565b600080546001600160a01b038381166001600160a01b0319831681178455604051919092169283917f8be0079c531659141344cd1fd0a4f28419497f9722a3daafe3b4186f6b6457e09190a35050565b611dbf8061128583390190565b6001600160a01b0381168114610dec57600080fd5b600080600060608486031215610f2d57600080fd5b83359250602084013591506040840135610f4681610f03565b809150509250925092565b600060208284031215610f6357600080fd5b8135610f6e81610f03565b9392505050565b600060208284031215610f8757600080fd5b5035919050565b600080600060608486031215610fa357600080fd5b505081359360208301359350604090920135919050565b60008060008060808587031215610fd057600080fd5b84359350602085013592506040850135610fe981610f03565b91506060850135610ff981610f03565b939692955090935050565b6000806040838503121561101757600080fd5b50508035926020909101359150565b60006020828403121561103857600080fd5b5051919050565b602080825260169082015275141c9bd99a5b1948191bd95cc81b9bdd08195e1a5cdd60521b604082015260600190565b634e487b7160e01b600052604160045260246000fd5b60008060006060848603121561109a57600080fd5b83516110a581610f03565b809350506020808501516110b881610f03565b604086015190935067ffffffffffffffff808211156110d657600080fd5b818701915087601f8301126110ea57600080fd5b8151818111156110fc576110fc61106f565b604051601f8201601f19908116603f011681019083821181831017156111245761112461106f565b816040528281528a8684870101111561113c57600080fd5b600093505b8284101561115e5784840186015181850187015292850192611141565b8284111561116f5760008684830101525b8096505050505050509250925092565b60208082526025908201527f596f7520617265206e6f7420746865206f776e6572206f6620746869732070726040820152646f66696c6560d81b606082015260800190565b6020808252818101527f4f776e61626c653a2063616c6c6572206973206e6f7420746865206f776e6572604082015260600190565b8051801515811461120957600080fd5b919050565b60006020828403121561122057600080fd5b610f6e826111f9565b60008060006060848603121561123e57600080fd5b8351925060208401519150611255604085016111f9565b90509250925092565b6000821982111561127f57634e487b7160e01b600052601160045260246000fd5b50019056fe6101006040523480156200001257600080fd5b5060405162001dbf38038062001dbf833981016040819052620000359162000075565b6001600160a01b0393841660805291831660a052821660c0521660e052620000d2565b80516001600160a01b03811681146200007057600080fd5b919050565b600080600080608085870312156200008c57600080fd5b620000978562000058565b9350620000a76020860162000058565b9250620000b76040860162000058565b9150620000c76060860162000058565b905092959194509250565b60805160a05160c05160e051611c356200018a60003960008181610a5201528181610b1601528181610e6c01528181610fa801528181611069015281816114e10152818161157601528181611617015261168f01526000818161027a0152818161070801528181610a8101528181610bfd01528181610dc401528181610e9401528181610f08015261133901526000818161033a0152610fd601526000818161043701528181610cd301526112a20152611c356000f3fe6080604052600436106100555760003560e01c806309e02c171461005a5780634585e33b1461007c5780636e04ff0d1461009c5780637e80c186146100d357806384370813146100e8578063d53d5e42146100fb575b600080fd5b34801561006657600080fd5b5061007a610075366004611759565b610138565b005b34801561008857600080fd5b5061007a61009736600461177b565b6101d7565b3480156100a857600080fd5b506100bc6100b736600461177b565b61083d565b6040516100ca92919061181d565b60405180910390f35b3480156100df57600080fd5b5061007a610a50565b61007a6100f6366004611759565b610bfb565b34801561010757600080fd5b5061011b61011636600461186e565b611403565b6040805193845260208401929092521515908201526060016100ca565b6000610145838333611444565b6000818152602081905260409020600201549091506001600160a01b0316331461016e57600080fd5b60008181526020818152604080832060048101939093556005909201805460ff191660011790558151858152908101849052338183015290517fbdcd5f8b5e00da56711125e00a6f462fe30c2c17edb4cecec2e7bbeac057377d916060908290030190a1505050565b60005a90506000806101eb848601866118fe565b9150915060005b82518110156106ff5742600080858481518110610211576102116119b6565b60200260200101518152602001908152602001600020600401541061023557600080fd5b60008084838151811061024a5761024a6119b6565b60209081029190910181015182528101919091526040016000206005015460ff161561027557600080fd5b6000807f00000000000000000000000000000000000000000000000000000000000000006001600160a01b031663ed74a2026000808887815181106102bc576102bc6119b6565b60200260200101518152602001908152602001600020600001546040518263ffffffff1660e01b81526004016102f491815260200190565b6040805180830381865afa158015610310573d6000803e3d6000fd5b505050506040513d601f19601f8201168201806040525081019061033491906119cc565b915091507f00000000000000000000000000000000000000000000000000000000000000006001600160a01b031663819ca22260008088878151811061037c5761037c6119b6565b6020026020010151815260200190815260200160002060000154846040518363ffffffff1660e01b81526004016103bd929190918252602082015260400190565b602060405180830381865afa1580156103da573d6000803e3d6000fd5b505050506040513d601f19601f820116820180604052508101906103fe91906119f0565b600080878681518110610413576104136119b6565b602002602001015181526020019081526020016000206001015410156105ca5760007f00000000000000000000000000000000000000000000000000000000000000006001600160a01b031663f08f4f64600080898881518110610479576104796119b6565b60200260200101518152602001908152602001600020600001546040518263ffffffff1660e01b81526004016104b191815260200190565b600060405180830381865afa1580156104ce573d6000803e3d6000fd5b505050506040513d6000823e601f3d908101601f191682016040526104f69190810190611a09565b509150506000610577600080898881518110610514576105146119b6565b6020026020010151815260200190815260200160002060020160009054906101000a90046001600160a01b0316836000808b8a81518110610557576105576119b6565b6020026020010151815260200190815260200160002060030154866114b7565b905080156105c75761058c4262278d00611adc565b6000808988815181106105a1576105a16119b6565b6020026020010151815260200190815260200160002060040181905550505050506106ed565b50505b60008060008786815181106105e1576105e16119b6565b6020026020010151815260200190815260200160002060050160006101000a81548160ff0219169083151502179055507fbdcd5f8b5e00da56711125e00a6f462fe30c2c17edb4cecec2e7bbeac057377d600080878681518110610647576106476119b6565b6020026020010151815260200190815260200160002060000154600080888781518110610676576106766119b6565b60200260200101518152602001908152602001600020600101546000808988815181106106a5576106a56119b6565b6020908102919091018101518252818101929092526040908101600020600201548151948552918401929092526001600160a01b03169082015260600160405180910390a150505b806106f781611af4565b9150506101f2565b5060008251603c7f00000000000000000000000000000000000000000000000000000000000000006001600160a01b03166346a8a0156040518163ffffffff1660e01b8152600401602060405180830381865afa158015610764573d6000803e3d6000fd5b505050506040513d601f19601f8201168201806040525081019061078891906119f0565b6107929190611b0d565b61079c9190611b2f565b905060005a6107ab9086611b4e565b6107b7906171d7611adc565b905060006107c53a83611b2f565b9050828111156107d25750815b6000846001600160a01b03168260405160006040518083038185875af1925050503d806000811461081f576040519150601f19603f3d011682016040523d82523d6000602084013e610824565b606091505b505090508061083257600080fd5b505050505050505050565b600060608180806108508688018861186e565b9250925092508183111561086357600080fd5b600154831061087157600080fd5b600080600154841061088e576001805461088b9190611b4e565b93505b600061089a8686611b4e565b6108a5906001611adc565b905060005b818110156109335760006108be8289611adc565b600081815260208190526040902060040154909150421180156108f3575060008181526020819052604090206005015460ff16155b1561092057610903826001611adc565b93508461090f81611af4565b955050846019036109205750610933565b508061092b81611af4565b9150506108aa565b508260000361095d5760006040518060200160405280600081525097509750505050505050610a49565b60008367ffffffffffffffff811115610978576109786118a7565b6040519080825280602002602001820160405280156109a1578160200160208202803683370190505b5090506000805b84811015610a175760006109bc828b611adc565b600081815260208190526040902060040154909150421115610a0457808484815181106109eb576109eb6119b6565b602090810291909101015282610a0081611af4565b9350505b5080610a0f81611af4565b9150506109a8565b5060018287604051602001610a2d929190611b65565b6040516020818303038152906040529950995050505050505050505b9250929050565b7f00000000000000000000000000000000000000000000000000000000000000006001600160a01b031663a9059cbb7f00000000000000000000000000000000000000000000000000000000000000006001600160a01b031663a29a314d6040518163ffffffff1660e01b8152600401602060405180830381865afa158015610add573d6000803e3d6000fd5b505050506040513d601f19601f82011682018060405250810190610b019190611bb9565b6040516370a0823160e01b81523060048201527f00000000000000000000000000000000000000000000000000000000000000006001600160a01b0316906370a0823190602401602060405180830381865afa158015610b65573d6000803e3d6000fd5b505050506040513d601f19601f82011682018060405250810190610b8991906119f0565b6040516001600160e01b031960e085901b1681526001600160a01b03909216600483015260248201526044016020604051808303816000875af1158015610bd4573d6000803e3d6000fd5b505050506040513d601f19601f82011682018060405250810190610bf89190611bdd565b50565b7f00000000000000000000000000000000000000000000000000000000000000006001600160a01b03166346a8a0156040518163ffffffff1660e01b8152600401602060405180830381865afa158015610c59573d6000803e3d6000fd5b505050506040513d601f19601f82011682018060405250810190610c7d91906119f0565b341015610cd15760405162461bcd60e51b815260206004820152601f60248201527f4d7573742073656e64203520796561727320776f727468206f6620676173210060448201526064015b60405180910390fd5b7f00000000000000000000000000000000000000000000000000000000000000006001600160a01b031663d2adbe796040518163ffffffff1660e01b8152600401602060405180830381865afa158015610d2f573d6000803e3d6000fd5b505050506040513d601f19601f82011682018060405250810190610d5391906119f0565b8210610da15760405162461bcd60e51b815260206004820152601c60248201527f546869732070726f66696c6520646f6573206e6f7420657869737421000000006044820152606401610cc8565b6040516328f513d760e11b815260048101839052602481018290523360448201527f00000000000000000000000000000000000000000000000000000000000000006001600160a01b0316906351ea27ae90606401602060405180830381865afa158015610e13573d6000803e3d6000fd5b505050506040513d601f19601f82011682018060405250810190610e379190611bdd565b15610e4157600080fd5b604051635e70748360e01b815260048101839052602481018290523360448201526001600160a01b037f0000000000000000000000000000000000000000000000000000000000000000811660648301527f00000000000000000000000000000000000000000000000000000000000000001690635e70748390608401600060405180830381600087803b158015610ed857600080fd5b505af1158015610eec573d6000803e3d6000fd5b50506040516376ba510160e11b815260048101859052600092507f00000000000000000000000000000000000000000000000000000000000000006001600160a01b0316915063ed74a202906024016040805180830381865afa158015610f57573d6000803e3d6000fd5b505050506040513d601f19601f82011682018060405250810190610f7b91906119cc565b506040516347b5c68160e11b81526004810185905260248101829052604481018490526001600160a01b037f0000000000000000000000000000000000000000000000000000000000000000811660648301529192506000917f00000000000000000000000000000000000000000000000000000000000000001690638f6b8d0290608401602060405180830381865afa15801561101d573d6000803e3d6000fd5b505050506040513d601f19601f8201168201806040525081019061104191906119f0565b905061104e81603c611b2f565b604051636eb1769f60e11b81523360048201523060248201527f00000000000000000000000000000000000000000000000000000000000000006001600160a01b03169063dd62ed3e90604401602060405180830381865afa1580156110b8573d6000803e3d6000fd5b505050506040513d601f19601f820116820180604052508101906110dc91906119f0565b10156111345760405162461bcd60e51b815260206004820152602160248201527f4d75737420617070726f76652035207965617273206f66207370656e64696e676044820152602160f81b6064820152608401610cc8565b6001546000858152600260209081526040808320878452825280832033845290915281205490036111a9576001805461116c91611adc565b60008681526002602090815260408083208884528252808320338452909152812091909155600180549161119f83611af4565b91905055506111da565b600085815260026020908152604080832087845282528083203384529091529020546111d790600190611b4e565b90505b6040518060c00160405280868152602001858152602001336001600160a01b031681526020018381526020014262278d006112159190611adc565b815260006020918201819052838152808252604080822084518155928401516001840155838101516002840180546001600160a01b0319166001600160a01b0392831617905560608501516003850155608085015160048086019190915560a0909501516005909401805460ff19169415159490941790935551633c23d3d960e21b8152928301889052917f00000000000000000000000000000000000000000000000000000000000000009091169063f08f4f6490602401600060405180830381865afa1580156112eb573d6000803e3d6000fd5b505050506040513d6000823e601f3d908101601f191682016040526113139190810190611a09565b506040516376ba510160e11b815260048101899052909250600091506001600160a01b037f0000000000000000000000000000000000000000000000000000000000000000169063ed74a202906024016040805180830381865afa15801561137f573d6000803e3d6000fd5b505050506040513d601f19601f820116820180604052508101906113a391906119cc565b9150506113b2338386846114b7565b506113bb610a50565b6040805188815260208101889052338183015290517f719d57359948c2c6f2a923516c19aba22b490e924879b674c1d6371bb6541f179181900360600190a150505050505050565b600080600080611414878787611444565b600090815260208190526040902060038101546004820154600590920154909991985060ff169650945050505050565b600083815260026020908152604080832085845282528083206001600160a01b038516845290915281205461147857600080fd5b600084815260026020908152604080832086845282528083206001600160a01b03861684529091529020546114af90600190611b4e565b949350505050565b604051636eb1769f60e11b81526001600160a01b03858116600483015230602483015260009184917f0000000000000000000000000000000000000000000000000000000000000000169063dd62ed3e90604401602060405180830381865afa158015611528573d6000803e3d6000fd5b505050506040513d601f19601f8201168201806040525081019061154c91906119f0565b101580156115e657506040516370a0823160e01b81526001600160a01b03868116600483015284917f0000000000000000000000000000000000000000000000000000000000000000909116906370a0823190602401602060405180830381865afa1580156115bf573d6000803e3d6000fd5b505050506040513d601f19601f820116820180604052508101906115e391906119f0565b10155b1561174e576040516323b872dd60e01b81526001600160a01b038681166004830152306024830152604482018590527f000000000000000000000000000000000000000000000000000000000000000016906323b872dd906064016020604051808303816000875af1158015611660573d6000803e3d6000fd5b505050506040513d601f19601f820116820180604052508101906116849190611bdd565b506001600160a01b037f00000000000000000000000000000000000000000000000000000000000000001663a9059cbb8560646116c18682611b4e565b6116cb9088611b2f565b6116d59190611b0d565b6040516001600160e01b031960e085901b1681526001600160a01b03909216600483015260248201526044016020604051808303816000875af1158015611720573d6000803e3d6000fd5b505050506040513d601f19601f820116820180604052508101906117449190611bdd565b50600190506114af565b506000949350505050565b6000806040838503121561176c57600080fd5b50508035926020909101359150565b6000806020838503121561178e57600080fd5b823567ffffffffffffffff808211156117a657600080fd5b818501915085601f8301126117ba57600080fd5b8135818111156117c957600080fd5b8660208285010111156117db57600080fd5b60209290920196919550909350505050565b60005b838110156118085781810151838201526020016117f0565b83811115611817576000848401525b50505050565b821515815260406020820152600082518060408401526118448160608501602087016117ed565b601f01601f1916919091016060019392505050565b6001600160a01b0381168114610bf857600080fd5b60008060006060848603121561188357600080fd5b8335925060208401359150604084013561189c81611859565b809150509250925092565b634e487b7160e01b600052604160045260246000fd5b604051601f8201601f1916810167ffffffffffffffff811182821017156118e6576118e66118a7565b604052919050565b80356118f981611859565b919050565b6000806040838503121561191157600080fd5b823567ffffffffffffffff8082111561192957600080fd5b818501915085601f83011261193d57600080fd5b8135602082821115611951576119516118a7565b8160051b92506119628184016118bd565b828152928401810192818101908985111561197c57600080fd5b948201945b8486101561199a57853582529482019490820190611981565b96506119a990508782016118ee565b9450505050509250929050565b634e487b7160e01b600052603260045260246000fd5b600080604083850312156119df57600080fd5b505080516020909101519092909150565b600060208284031215611a0257600080fd5b5051919050565b600080600060608486031215611a1e57600080fd5b8351611a2981611859565b6020850151909350611a3a81611859565b604085015190925067ffffffffffffffff80821115611a5857600080fd5b818601915086601f830112611a6c57600080fd5b815181811115611a7e57611a7e6118a7565b611a91601f8201601f19166020016118bd565b9150808252876020828501011115611aa857600080fd5b611ab98160208401602086016117ed565b5080925050509250925092565b634e487b7160e01b600052601160045260246000fd5b60008219821115611aef57611aef611ac6565b500190565b600060018201611b0657611b06611ac6565b5060010190565b600082611b2a57634e487b7160e01b600052601260045260246000fd5b500490565b6000816000190483118215151615611b4957611b49611ac6565b500290565b600082821015611b6057611b60611ac6565b500390565b604080825283519082018190526000906020906060840190828701845b82811015611b9e57815184529284019290840190600101611b82565b5050506001600160a01b039490941692019190915250919050565b600060208284031215611bcb57600080fd5b8151611bd681611859565b9392505050565b600060208284031215611bef57600080fd5b81518015158114611bd657600080fdfea264697066735822122073fef9dd5589738495dd71836b1431303975e60a2f0e641a3aeb66ffaf7c608064736f6c634300080f0033a264697066735822122051fdd76d6382f6fd050985a9aad3821798fa2fb790d514d50c98890fdcf6aa2564736f6c634300080f0033","bytecodeSha1":"3533f51d91fc640cbc66ad2bf830d7dc760cdfe7","compiler":{"evm_version":"istanbul","optimizer":{"enabled":true,"runs":200},"version":"0.8.15+commit.e14f2714"},"contractName":"BBSubscriptionsFactory","language":"Solidity","natspec":{"kind":"dev","methods":{"owner()":{"details":"Returns the address of the current owner."},"renounceOwnership()":{"details":"Leaves the contract without owner. It will not be possible to call `onlyOwner` functions anymore. Can only be called by the current owner. NOTE: Renouncing ownership will leave the contract without an owner, thereby removing any functionality that is only available to the owner."},"transferOwnership(address)":{"details":"Transfers ownership of the contract to a new account (`newOwner`). Can only be called by the current owner."}},"version":1},"opcodes":"PUSH1 0x80 PUSH1 0x40 MSTORE CALLVALUE DUP1 ISZERO PUSH2 0x10 JUMPI PUSH1 0x0 DUP1 REVERT JUMPDEST POP PUSH1 0x4 CALLDATASIZE LT PUSH2 0x116 JUMPI PUSH1 0x0 CALLDATALOAD PUSH1 0xE0 SHR DUP1 PUSH4 0x715018A6 GT PUSH2 0xA2 JUMPI DUP1 PUSH4 0xCC0DE218 GT PUSH2 0x71 JUMPI DUP1 PUSH4 0xCC0DE218 EQ PUSH2 0x263 JUMPI DUP1 PUSH4 0xDBD18388 EQ PUSH2 0x28F JUMPI DUP1 PUSH4 0xED74A202 EQ PUSH2 0x298 JUMPI DUP1 PUSH4 0xF0F44260 EQ PUSH2 0x2AB JUMPI DUP1 PUSH4 0xF2FDE38B EQ PUSH2 0x2BE JUMPI PUSH1 0x0 DUP1 REVERT JUMPDEST DUP1 PUSH4 0x715018A6 EQ PUSH2 0x226 JUMPI DUP1 PUSH4 0x8DA5CB5B EQ PUSH2 0x22E JUMPI DUP1 PUSH4 0xA29A314D EQ PUSH2 0x23F JUMPI DUP1 PUSH4 0xCA8C3E77 EQ PUSH2 0x250 JUMPI PUSH1 0x0 DUP1 REVERT JUMPDEST DUP1 PUSH4 0x358D818C GT PUSH2 0xE9 JUMPI DUP1 PUSH4 0x358D818C EQ PUSH2 0x1C8 JUMPI DUP1 PUSH4 0x38E342AC EQ PUSH2 0x1DB JUMPI DUP1 PUSH4 0x46A8A015 EQ PUSH2 0x1EE JUMPI DUP1 PUSH4 0x51EA27AE EQ PUSH2 0x200 JUMPI DUP1 PUSH4 0x5E707483 EQ PUSH2 0x213 JUMPI PUSH1 0x0 DUP1 REVERT JUMPDEST DUP1 PUSH4 0xC500E56 EQ PUSH2 0x11B JUMPI DUP1 PUSH4 0x175FF2A2 EQ PUSH2 0x176 JUMPI DUP1 PUSH4 0x268B3014 EQ PUSH2 0x18B JUMPI DUP1 PUSH4 0x32D7D7BE EQ PUSH2 0x1A5 JUMPI JUMPDEST PUSH1 0x0 DUP1 REVERT JUMPDEST PUSH2 0x159 PUSH2 0x129 CALLDATASIZE PUSH1 0x4 PUSH2 0xF18 JUMP JUMPDEST PUSH1 0x0 SWAP3 DUP4 MSTORE PUSH1 0x5 PUSH1 0x20 SWAP1 DUP2 MSTORE PUSH1 0x40 DUP1 DUP6 KECCAK256 SWAP4 DUP6 MSTORE SWAP3 DUP2 MSTORE DUP3 DUP5 KECCAK256 PUSH1 0x1 PUSH1 0x1 PUSH1 0xA0 SHL SUB SWAP3 DUP4 AND DUP6 MSTORE SWAP1 MSTORE SWAP2 KECCAK256 SLOAD AND SWAP1 JUMP JUMPDEST PUSH1 0x40 MLOAD PUSH1 0x1 PUSH1 0x1 PUSH1 0xA0 SHL SUB SWAP1 SWAP2 AND DUP2 MSTORE PUSH1 0x20 ADD JUMPDEST PUSH1 0x40 MLOAD DUP1 SWAP2 SUB SWAP1 RETURN JUMPDEST PUSH2 0x189 PUSH2 0x184 CALLDATASIZE PUSH1 0x4 PUSH2 0xF51 JUMP JUMPDEST PUSH2 0x2D1 JUMP JUMPDEST STOP JUMPDEST PUSH1 0x1 PUSH1 0x64 JUMPDEST PUSH1 0x40 DUP1 MLOAD SWAP3 DUP4 MSTORE PUSH1 0x20 DUP4 ADD SWAP2 SWAP1 SWAP2 MSTORE ADD PUSH2 0x16D JUMP JUMPDEST PUSH2 0x1B8 PUSH2 0x1B3 CALLDATASIZE PUSH1 0x4 PUSH2 0xF75 JUMP JUMPDEST PUSH2 0x3FB JUMP JUMPDEST PUSH1 0x40 MLOAD SWAP1 ISZERO ISZERO DUP2 MSTORE PUSH1 0x20 ADD PUSH2 0x16D JUMP JUMPDEST PUSH2 0x189 PUSH2 0x1D6 CALLDATASIZE PUSH1 0x4 PUSH2 0xF8E JUMP JUMPDEST PUSH2 0x4BE JUMP JUMPDEST PUSH2 0x189 PUSH2 0x1E9 CALLDATASIZE PUSH1 0x4 PUSH2 0xF75 JUMP JUMPDEST PUSH2 0x729 JUMP JUMPDEST PUSH1 0x1 SLOAD JUMPDEST PUSH1 0x40 MLOAD SWAP1 DUP2 MSTORE PUSH1 0x20 ADD PUSH2 0x16D JUMP JUMPDEST PUSH2 0x1B8 PUSH2 0x20E CALLDATASIZE PUSH1 0x4 PUSH2 0xF18 JUMP JUMPDEST PUSH2 0x76C JUMP JUMPDEST PUSH2 0x189 PUSH2 0x221 CALLDATASIZE PUSH1 0x4 PUSH2 0xFBA JUMP JUMPDEST PUSH2 0xA66 JUMP JUMPDEST PUSH2 0x189 PUSH2 0xACE JUMP JUMPDEST PUSH1 0x0 SLOAD PUSH1 0x1 PUSH1 0x1 PUSH1 0xA0 SHL SUB AND PUSH2 0x159 JUMP JUMPDEST PUSH1 0x6 SLOAD PUSH1 0x1 PUSH1 0x1 PUSH1 0xA0 SHL SUB AND PUSH2 0x159 JUMP JUMPDEST PUSH2 0x189 PUSH2 0x25E CALLDATASIZE PUSH1 0x4 PUSH2 0x1004 JUMP JUMPDEST PUSH2 0xB04 JUMP JUMPDEST PUSH2 0x159 PUSH2 0x271 CALLDATASIZE PUSH1 0x4 PUSH2 0xF51 JUMP JUMPDEST PUSH1 0x1 PUSH1 0x1 PUSH1 0xA0 SHL SUB SWAP1 DUP2 AND PUSH1 0x0 SWAP1 DUP2 MSTORE PUSH1 0x4 PUSH1 0x20 MSTORE PUSH1 0x40 SWAP1 KECCAK256 SLOAD AND SWAP1 JUMP JUMPDEST PUSH3 0x2A300 PUSH2 0x1F2 JUMP JUMPDEST PUSH2 0x190 PUSH2 0x2A6 CALLDATASIZE PUSH1 0x4 PUSH2 0xF75 JUMP JUMPDEST PUSH2 0xCAE JUMP JUMPDEST PUSH2 0x189 PUSH2 0x2B9 CALLDATASIZE PUSH1 0x4 PUSH2 0xF51 JUMP JUMPDEST PUSH2 0xCDF JUMP JUMPDEST PUSH2 0x189 PUSH2 0x2CC CALLDATASIZE PUSH1 0x4 PUSH2 0xF51 JUMP JUMPDEST PUSH2 0xD54 JUMP JUMPDEST PUSH1 0x1 PUSH1 0x1 PUSH1 0xA0 SHL SUB DUP2 DUP2 AND PUSH1 0x0 SWAP1 DUP2 MSTORE PUSH1 0x4 PUSH1 0x20 MSTORE PUSH1 0x40 SWAP1 KECCAK256 SLOAD AND ISZERO PUSH2 0x2F6 JUMPI PUSH1 0x0 DUP1 REVERT JUMPDEST PUSH1 0x0 PUSH32 0x0 PUSH32 0x0 ADDRESS DUP5 PUSH1 0x40 MLOAD PUSH2 0x348 SWAP1 PUSH2 0xEF6 JUMP JUMPDEST PUSH1 0x1 PUSH1 0x1 PUSH1 0xA0 SHL SUB SWAP5 DUP6 AND DUP2 MSTORE SWAP3 DUP5 AND PUSH1 0x20 DUP5 ADD MSTORE SWAP1 DUP4 AND PUSH1 0x40 DUP4 ADD MSTORE SWAP1 SWAP2 AND PUSH1 0x60 DUP3 ADD MSTORE PUSH1 0x80 ADD PUSH1 0x40 MLOAD DUP1 SWAP2 SUB SWAP1 PUSH1 0x0 CREATE DUP1 ISZERO DUP1 ISZERO PUSH2 0x38C JUMPI RETURNDATASIZE PUSH1 0x0 DUP1 RETURNDATACOPY RETURNDATASIZE PUSH1 0x0 REVERT JUMPDEST POP PUSH1 0x1 PUSH1 0x1 PUSH1 0xA0 SHL SUB DUP4 DUP2 AND PUSH1 0x0 DUP2 DUP2 MSTORE PUSH1 0x4 PUSH1 0x20 SWAP1 DUP2 MSTORE PUSH1 0x40 SWAP2 DUP3 SWAP1 KECCAK256 DUP1 SLOAD PUSH1 0x1 PUSH1 0x1 PUSH1 0xA0 SHL SUB NOT AND SWAP5 DUP7 AND SWAP5 DUP6 OR SWAP1 SSTORE DUP2 MLOAD SWAP3 DUP4 MSTORE DUP3 ADD SWAP3 SWAP1 SWAP3 MSTORE SWAP2 SWAP3 POP PUSH32 0xCBB74CBE3A0FD52F508100336E0D2E8A7E184BD44940FC6F24A176009A469A5F SWAP2 ADD PUSH1 0x40 MLOAD DUP1 SWAP2 SUB SWAP1 LOG1 POP POP JUMP JUMPDEST PUSH1 0x0 DUP2 PUSH32 0x0 PUSH1 0x1 PUSH1 0x1 PUSH1 0xA0 SHL SUB AND PUSH4 0xD2ADBE79 PUSH1 0x40 MLOAD DUP2 PUSH4 0xFFFFFFFF AND PUSH1 0xE0 SHL DUP2 MSTORE PUSH1 0x4 ADD PUSH1 0x20 PUSH1 0x40 MLOAD DUP1 DUP4 SUB DUP2 DUP7 GAS STATICCALL ISZERO DUP1 ISZERO PUSH2 0x45C JUMPI RETURNDATASIZE PUSH1 0x0 DUP1 RETURNDATACOPY RETURNDATASIZE PUSH1 0x0 REVERT JUMPDEST POP POP POP POP PUSH1 0x40 MLOAD RETURNDATASIZE PUSH1 0x1F NOT PUSH1 0x1F DUP3 ADD AND DUP3 ADD DUP1 PUSH1 0x40 MSTORE POP DUP2 ADD SWAP1 PUSH2 0x480 SWAP2 SWAP1 PUSH2 0x1026 JUMP JUMPDEST DUP2 LT PUSH2 0x4A7 JUMPI PUSH1 0x40 MLOAD PUSH3 0x461BCD PUSH1 0xE5 SHL DUP2 MSTORE PUSH1 0x4 ADD PUSH2 0x49E SWAP1 PUSH2 0x103F JUMP JUMPDEST PUSH1 0x40 MLOAD DUP1 SWAP2 SUB SWAP1 REVERT JUMPDEST POP POP PUSH1 0x0 SWAP1 DUP2 MSTORE PUSH1 0x3 PUSH1 0x20 MSTORE PUSH1 0x40 SWAP1 KECCAK256 SLOAD PUSH1 0xFF AND SWAP1 JUMP JUMPDEST DUP3 PUSH32 0x0 PUSH1 0x1 PUSH1 0x1 PUSH1 0xA0 SHL SUB AND PUSH4 0xD2ADBE79 PUSH1 0x40 MLOAD DUP2 PUSH4 0xFFFFFFFF AND PUSH1 0xE0 SHL DUP2 MSTORE PUSH1 0x4 ADD PUSH1 0x20 PUSH1 0x40 MLOAD DUP1 DUP4 SUB DUP2 DUP7 GAS STATICCALL ISZERO DUP1 ISZERO PUSH2 0x51D JUMPI RETURNDATASIZE PUSH1 0x0 DUP1 RETURNDATACOPY RETURNDATASIZE PUSH1 0x0 REVERT JUMPDEST POP POP POP POP PUSH1 0x40 MLOAD RETURNDATASIZE PUSH1 0x1F NOT PUSH1 0x1F DUP3 ADD AND DUP3 ADD DUP1 PUSH1 0x40 MSTORE POP DUP2 ADD SWAP1 PUSH2 0x541 SWAP2 SWAP1 PUSH2 0x1026 JUMP JUMPDEST DUP2 LT PUSH2 0x55F JUMPI PUSH1 0x40 MLOAD PUSH3 0x461BCD PUSH1 0xE5 SHL DUP2 MSTORE PUSH1 0x4 ADD PUSH2 0x49E SWAP1 PUSH2 0x103F JUMP JUMPDEST PUSH1 0x40 MLOAD PUSH4 0x3C23D3D9 PUSH1 0xE2 SHL DUP2 MSTORE PUSH1 0x4 DUP2 ADD DUP6 SWAP1 MSTORE DUP5 SWAP1 PUSH1 0x0 SWAP1 PUSH1 0x1 PUSH1 0x1 PUSH1 0xA0 SHL SUB PUSH32 0x0 AND SWAP1 PUSH4 0xF08F4F64 SWAP1 PUSH1 0x24 ADD PUSH1 0x0 PUSH1 0x40 MLOAD DUP1 DUP4 SUB DUP2 DUP7 GAS STATICCALL ISZERO DUP1 ISZERO PUSH2 0x5C9 JUMPI RETURNDATASIZE PUSH1 0x0 DUP1 RETURNDATACOPY RETURNDATASIZE PUSH1 0x0 REVERT JUMPDEST POP POP POP POP PUSH1 0x40 MLOAD RETURNDATASIZE PUSH1 0x0 DUP3 RETURNDATACOPY PUSH1 0x1F RETURNDATASIZE SWAP1 DUP2 ADD PUSH1 0x1F NOT AND DUP3 ADD PUSH1 0x40 MSTORE PUSH2 0x5F1 SWAP2 SWAP1 DUP2 ADD SWAP1 PUSH2 0x1085 JUMP JUMPDEST POP SWAP1 SWAP2 POP POP PUSH1 0x1 PUSH1 0x1 PUSH1 0xA0 SHL SUB DUP2 AND CALLER EQ PUSH2 0x61E JUMPI PUSH1 0x40 MLOAD PUSH3 0x461BCD PUSH1 0xE5 SHL DUP2 MSTORE PUSH1 0x4 ADD PUSH2 0x49E SWAP1 PUSH2 0x117F JUMP JUMPDEST PUSH1 0x40 MLOAD PUSH4 0xED340DDF PUSH1 0xE0 SHL DUP2 MSTORE PUSH1 0x4 DUP2 ADD DUP8 SWAP1 MSTORE PUSH32 0x0 PUSH1 0x1 PUSH1 0x1 PUSH1 0xA0 SHL SUB AND SWAP1 PUSH4 0xED340DDF SWAP1 PUSH1 0x24 ADD PUSH1 0x20 PUSH1 0x40 MLOAD DUP1 DUP4 SUB DUP2 DUP7 GAS STATICCALL ISZERO DUP1 ISZERO PUSH2 0x683 JUMPI RETURNDATASIZE PUSH1 0x0 DUP1 RETURNDATACOPY RETURNDATASIZE PUSH1 0x0 REVERT JUMPDEST POP POP POP POP PUSH1 0x40 MLOAD RETURNDATASIZE PUSH1 0x1F NOT PUSH1 0x1F DUP3 ADD AND DUP3 ADD DUP1 PUSH1 0x40 MSTORE POP DUP2 ADD SWAP1 PUSH2 0x6A7 SWAP2 SWAP1 PUSH2 0x1026 JUMP JUMPDEST DUP6 LT PUSH2 0x6B2 JUMPI PUSH1 0x0 DUP1 REVERT JUMPDEST PUSH2 0x6BC DUP7 DUP6 PUSH2 0xDEF JUMP JUMPDEST PUSH1 0x0 DUP7 DUP2 MSTORE PUSH1 0x2 PUSH1 0x20 SWAP1 DUP2 MSTORE PUSH1 0x40 DUP1 DUP4 KECCAK256 DUP9 SWAP1 SSTORE PUSH1 0x3 DUP3 MSTORE SWAP2 DUP3 SWAP1 KECCAK256 DUP1 SLOAD PUSH1 0xFF NOT AND PUSH1 0x1 OR SWAP1 SSTORE DUP2 MLOAD DUP9 DUP2 MSTORE SWAP1 DUP2 ADD DUP8 SWAP1 MSTORE SWAP1 DUP2 ADD DUP6 SWAP1 MSTORE PUSH32 0x712496816C24246B3C0BF6E37E05B0F7FB8E402C5AE7A311CDE9E9EC54665C44 SWAP1 PUSH1 0x60 ADD PUSH1 0x40 MLOAD DUP1 SWAP2 SUB SWAP1 LOG1 POP POP POP POP POP POP JUMP JUMPDEST PUSH1 0x0 SLOAD PUSH1 0x1 PUSH1 0x1 PUSH1 0xA0 SHL SUB AND CALLER EQ PUSH2 0x753 JUMPI PUSH1 0x40 MLOAD PUSH3 0x461BCD PUSH1 0xE5 SHL DUP2 MSTORE PUSH1 0x4 ADD PUSH2 0x49E SWAP1 PUSH2 0x11C4 JUMP JUMPDEST PUSH7 0x38D7EA4C68000 DUP2 GT ISZERO PUSH2 0x767 JUMPI PUSH1 0x0 DUP1 REVERT JUMPDEST PUSH1 0x1 SSTORE JUMP JUMPDEST PUSH1 0x0 DUP4 PUSH32 0x0 PUSH1 0x1 PUSH1 0x1 PUSH1 0xA0 SHL SUB AND PUSH4 0xD2ADBE79 PUSH1 0x40 MLOAD DUP2 PUSH4 0xFFFFFFFF AND PUSH1 0xE0 SHL DUP2 MSTORE PUSH1 0x4 ADD PUSH1 0x20 PUSH1 0x40 MLOAD DUP1 DUP4 SUB DUP2 DUP7 GAS STATICCALL ISZERO DUP1 ISZERO PUSH2 0x7CD JUMPI RETURNDATASIZE PUSH1 0x0 DUP1 RETURNDATACOPY RETURNDATASIZE PUSH1 0x0 REVERT JUMPDEST POP POP POP POP PUSH1 0x40 MLOAD RETURNDATASIZE PUSH1 0x1F NOT PUSH1 0x1F DUP3 ADD AND DUP3 ADD DUP1 PUSH1 0x40 MSTORE POP DUP2 ADD SWAP1 PUSH2 0x7F1 SWAP2 SWAP1 PUSH2 0x1026 JUMP JUMPDEST DUP2 LT PUSH2 0x80F JUMPI PUSH1 0x40 MLOAD PUSH3 0x461BCD PUSH1 0xE5 SHL DUP2 MSTORE PUSH1 0x4 ADD PUSH2 0x49E SWAP1 PUSH2 0x103F JUMP JUMPDEST PUSH1 0x40 MLOAD PUSH4 0x3C23D3D9 PUSH1 0xE2 SHL DUP2 MSTORE PUSH1 0x4 DUP2 ADD DUP7 SWAP1 MSTORE PUSH1 0x0 SWAP1 PUSH32 0x0 PUSH1 0x1 PUSH1 0x1 PUSH1 0xA0 SHL SUB AND SWAP1 PUSH4 0xF08F4F64 SWAP1 PUSH1 0x24 ADD PUSH1 0x0 PUSH1 0x40 MLOAD DUP1 DUP4 SUB DUP2 DUP7 GAS STATICCALL ISZERO DUP1 ISZERO PUSH2 0x877 JUMPI RETURNDATASIZE PUSH1 0x0 DUP1 RETURNDATACOPY RETURNDATASIZE PUSH1 0x0 REVERT JUMPDEST POP POP POP POP PUSH1 0x40 MLOAD RETURNDATASIZE PUSH1 0x0 DUP3 RETURNDATACOPY PUSH1 0x1F RETURNDATASIZE SWAP1 DUP2 ADD PUSH1 0x1F NOT AND DUP3 ADD PUSH1 0x40 MSTORE PUSH2 0x89F SWAP2 SWAP1 DUP2 ADD SWAP1 PUSH2 0x1085 JUMP JUMPDEST POP POP SWAP1 POP DUP4 PUSH1 0x1 PUSH1 0x1 PUSH1 0xA0 SHL SUB AND DUP2 PUSH1 0x1 PUSH1 0x1 PUSH1 0xA0 SHL SUB AND SUB PUSH2 0x8C6 JUMPI PUSH1 0x1 SWAP3 POP POP PUSH2 0xA5E JUMP JUMPDEST PUSH1 0x1 PUSH1 0x1 PUSH1 0xA0 SHL SUB DUP2 AND EXTCODESIZE ISZERO PUSH2 0x94E JUMPI PUSH1 0x40 MLOAD PUSH4 0x1F81DA03 PUSH1 0xE1 SHL DUP2 MSTORE PUSH1 0x1 PUSH1 0x1 PUSH1 0xA0 SHL SUB DUP6 DUP2 AND PUSH1 0x4 DUP4 ADD MSTORE DUP3 AND SWAP1 PUSH4 0x3F03B406 SWAP1 PUSH1 0x24 ADD PUSH1 0x20 PUSH1 0x40 MLOAD DUP1 DUP4 SUB DUP2 DUP7 GAS STATICCALL SWAP3 POP POP POP DUP1 ISZERO PUSH2 0x938 JUMPI POP PUSH1 0x40 DUP1 MLOAD PUSH1 0x1F RETURNDATASIZE SWAP1 DUP2 ADD PUSH1 0x1F NOT AND DUP3 ADD SWAP1 SWAP3 MSTORE PUSH2 0x935 SWAP2 DUP2 ADD SWAP1 PUSH2 0x120E JUMP JUMPDEST PUSH1 0x1 JUMPDEST ISZERO PUSH2 0x94E JUMPI DUP1 ISZERO PUSH2 0x94C JUMPI SWAP3 POP PUSH2 0xA5E SWAP1 POP JUMP JUMPDEST POP JUMPDEST PUSH1 0x0 DUP7 DUP2 MSTORE PUSH1 0x5 PUSH1 0x20 SWAP1 DUP2 MSTORE PUSH1 0x40 DUP1 DUP4 KECCAK256 DUP9 DUP5 MSTORE DUP3 MSTORE DUP1 DUP4 KECCAK256 PUSH1 0x1 PUSH1 0x1 PUSH1 0xA0 SHL SUB DUP9 DUP2 AND DUP6 MSTORE SWAP3 MSTORE SWAP1 SWAP2 KECCAK256 SLOAD AND PUSH2 0x989 JUMPI PUSH1 0x0 SWAP3 POP POP PUSH2 0xA5E JUMP JUMPDEST PUSH1 0x0 DUP7 DUP2 MSTORE PUSH1 0x5 PUSH1 0x20 SWAP1 DUP2 MSTORE PUSH1 0x40 DUP1 DUP4 KECCAK256 DUP9 DUP5 MSTORE DUP3 MSTORE DUP1 DUP4 KECCAK256 PUSH1 0x1 PUSH1 0x1 PUSH1 0xA0 SHL SUB DUP9 DUP2 AND DUP1 DUP7 MSTORE SWAP2 DUP5 MSTORE DUP3 DUP6 KECCAK256 SLOAD DUP2 AND DUP6 MSTORE PUSH1 0x4 SWAP4 DUP5 SWAP1 MSTORE DUP3 DUP6 KECCAK256 SLOAD SWAP3 MLOAD PUSH4 0x6A9EAF21 PUSH1 0xE1 SHL DUP2 MSTORE SWAP4 DUP5 ADD DUP12 SWAP1 MSTORE PUSH1 0x24 DUP5 ADD DUP11 SWAP1 MSTORE PUSH1 0x44 DUP5 ADD SWAP2 SWAP1 SWAP2 MSTORE AND SWAP2 SWAP1 DUP2 SWAP1 DUP4 SWAP1 PUSH4 0xD53D5E42 SWAP1 PUSH1 0x64 ADD PUSH1 0x60 PUSH1 0x40 MLOAD DUP1 DUP4 SUB DUP2 DUP7 GAS STATICCALL ISZERO DUP1 ISZERO PUSH2 0xA13 JUMPI RETURNDATASIZE PUSH1 0x0 DUP1 RETURNDATACOPY RETURNDATASIZE PUSH1 0x0 REVERT JUMPDEST POP POP POP POP PUSH1 0x40 MLOAD RETURNDATASIZE PUSH1 0x1F NOT PUSH1 0x1F DUP3 ADD AND DUP3 ADD DUP1 PUSH1 0x40 MSTORE POP DUP2 ADD SWAP1 PUSH2 0xA37 SWAP2 SWAP1 PUSH2 0x1229 JUMP JUMPDEST SWAP3 POP SWAP3 POP POP PUSH3 0x2A300 DUP3 PUSH2 0xA4B SWAP2 SWAP1 PUSH2 0x125E JUMP JUMPDEST TIMESTAMP LT DUP1 ISZERO PUSH2 0xA57 JUMPI POP DUP1 ISZERO JUMPDEST SWAP6 POP POP POP POP POP JUMPDEST POP SWAP4 SWAP3 POP POP POP JUMP JUMPDEST PUSH1 0x1 PUSH1 0x1 PUSH1 0xA0 SHL SUB DUP2 DUP2 AND PUSH1 0x0 SWAP1 DUP2 MSTORE PUSH1 0x4 PUSH1 0x20 MSTORE PUSH1 0x40 SWAP1 KECCAK256 SLOAD AND CALLER EQ PUSH2 0xA8C JUMPI PUSH1 0x0 DUP1 REVERT JUMPDEST PUSH1 0x0 SWAP4 DUP5 MSTORE PUSH1 0x5 PUSH1 0x20 SWAP1 DUP2 MSTORE PUSH1 0x40 DUP1 DUP7 KECCAK256 SWAP5 DUP7 MSTORE SWAP4 DUP2 MSTORE DUP4 DUP6 KECCAK256 PUSH1 0x1 PUSH1 0x1 PUSH1 0xA0 SHL SUB SWAP4 DUP5 AND DUP7 MSTORE SWAP1 MSTORE SWAP2 SWAP1 SWAP3 KECCAK256 DUP1 SLOAD PUSH1 0x1 PUSH1 0x1 PUSH1 0xA0 SHL SUB NOT AND SWAP2 SWAP1 SWAP3 AND OR SWAP1 SSTORE JUMP JUMPDEST PUSH1 0x0 SLOAD PUSH1 0x1 PUSH1 0x1 PUSH1 0xA0 SHL SUB AND CALLER EQ PUSH2 0xAF8 JUMPI PUSH1 0x40 MLOAD PUSH3 0x461BCD PUSH1 0xE5 SHL DUP2 MSTORE PUSH1 0x4 ADD PUSH2 0x49E SWAP1 PUSH2 0x11C4 JUMP JUMPDEST PUSH2 0xB02 PUSH1 0x0 PUSH2 0xEA6 JUMP JUMPDEST JUMP JUMPDEST DUP2 PUSH32 0x0 PUSH1 0x1 PUSH1 0x1 PUSH1 0xA0 SHL SUB AND PUSH4 0xD2ADBE79 PUSH1 0x40 MLOAD DUP2 PUSH4 0xFFFFFFFF AND PUSH1 0xE0 SHL DUP2 MSTORE PUSH1 0x4 ADD PUSH1 0x20 PUSH1 0x40 MLOAD DUP1 DUP4 SUB DUP2 DUP7 GAS STATICCALL ISZERO DUP1 ISZERO PUSH2 0xB63 JUMPI RETURNDATASIZE PUSH1 0x0 DUP1 RETURNDATACOPY RETURNDATASIZE PUSH1 0x0 REVERT JUMPDEST POP POP POP POP PUSH1 0x40 MLOAD RETURNDATASIZE PUSH1 0x1F NOT PUSH1 0x1F DUP3 ADD AND DUP3 ADD DUP1 PUSH1 0x40 MSTORE POP DUP2 ADD SWAP1 PUSH2 0xB87 SWAP2 SWAP1 PUSH2 0x1026 JUMP JUMPDEST DUP2 LT PUSH2 0xBA5 JUMPI PUSH1 0x40 MLOAD PUSH3 0x461BCD PUSH1 0xE5 SHL DUP2 MSTORE PUSH1 0x4 ADD PUSH2 0x49E SWAP1 PUSH2 0x103F JUMP JUMPDEST PUSH1 0x40 MLOAD PUSH4 0x3C23D3D9 PUSH1 0xE2 SHL DUP2 MSTORE PUSH1 0x4 DUP2 ADD DUP5 SWAP1 MSTORE DUP4 SWAP1 PUSH1 0x0 SWAP1 PUSH1 0x1 PUSH1 0x1 PUSH1 0xA0 SHL SUB PUSH32 0x0 AND SWAP1 PUSH4 0xF08F4F64 SWAP1 PUSH1 0x24 ADD PUSH1 0x0 PUSH1 0x40 MLOAD DUP1 DUP4 SUB DUP2 DUP7 GAS STATICCALL ISZERO DUP1 ISZERO PUSH2 0xC0F JUMPI RETURNDATASIZE PUSH1 0x0 DUP1 RETURNDATACOPY RETURNDATASIZE PUSH1 0x0 REVERT JUMPDEST POP POP POP POP PUSH1 0x40 MLOAD RETURNDATASIZE PUSH1 0x0 DUP3 RETURNDATACOPY PUSH1 0x1F RETURNDATASIZE SWAP1 DUP2 ADD PUSH1 0x1F NOT AND DUP3 ADD PUSH1 0x40 MSTORE PUSH2 0xC37 SWAP2 SWAP1 DUP2 ADD SWAP1 PUSH2 0x1085 JUMP JUMPDEST POP SWAP1 SWAP2 POP POP PUSH1 0x1 PUSH1 0x1 PUSH1 0xA0 SHL SUB DUP2 AND CALLER EQ PUSH2 0xC64 JUMPI PUSH1 0x40 MLOAD PUSH3 0x461BCD PUSH1 0xE5 SHL DUP2 MSTORE PUSH1 0x4 ADD PUSH2 0x49E SWAP1 PUSH2 0x117F JUMP JUMPDEST PUSH2 0xC6E DUP6 DUP6 PUSH2 0xDEF JUMP JUMPDEST PUSH1 0x40 DUP1 MLOAD DUP7 DUP2 MSTORE PUSH1 0x20 DUP2 ADD DUP7 SWAP1 MSTORE PUSH32 0xD4EA22D2AB0FEF3D73A9C65CEC244AE56B85825C9DED190F80B5C626C0BCABC4 SWAP2 ADD PUSH1 0x40 MLOAD DUP1 SWAP2 SUB SWAP1 LOG1 POP POP POP POP POP JUMP JUMPDEST PUSH1 0x0 DUP1 PUSH2 0xCBA DUP4 PUSH2 0x3FB JUMP JUMPDEST PUSH2 0xCC3 JUMPI PUSH1 0x0 DUP1 REVERT JUMPDEST POP POP PUSH1 0x0 SWAP1 DUP2 MSTORE PUSH1 0x2 PUSH1 0x20 MSTORE PUSH1 0x40 SWAP1 KECCAK256 DUP1 SLOAD PUSH1 0x1 SWAP1 SWAP2 ADD SLOAD SWAP1 SWAP2 JUMP JUMPDEST PUSH1 0x0 SLOAD PUSH1 0x1 PUSH1 0x1 PUSH1 0xA0 SHL SUB AND CALLER EQ PUSH2 0xD09 JUMPI PUSH1 0x40 MLOAD PUSH3 0x461BCD PUSH1 0xE5 SHL DUP2 MSTORE PUSH1 0x4 ADD PUSH2 0x49E SWAP1 PUSH2 0x11C4 JUMP JUMPDEST PUSH1 0x0 SLOAD PUSH1 0x1 PUSH1 0x1 PUSH1 0xA0 SHL SUB AND PUSH1 0x1 PUSH1 0x1 PUSH1 0xA0 SHL SUB AND DUP2 PUSH1 0x1 PUSH1 0x1 PUSH1 0xA0 SHL SUB AND SUB PUSH2 0xD32 JUMPI PUSH1 0x0 DUP1 REVERT JUMPDEST PUSH1 0x6 DUP1 SLOAD PUSH1 0x1 PUSH1 0x1 PUSH1 0xA0 SHL SUB NOT AND PUSH1 0x1 PUSH1 0x1 PUSH1 0xA0 SHL SUB SWAP3 SWAP1 SWAP3 AND SWAP2 SWAP1 SWAP2 OR SWAP1 SSTORE JUMP JUMPDEST PUSH1 0x0 SLOAD PUSH1 0x1 PUSH1 0x1 PUSH1 0xA0 SHL SUB AND CALLER EQ PUSH2 0xD7E JUMPI PUSH1 0x40 MLOAD PUSH3 0x461BCD PUSH1 0xE5 SHL DUP2 MSTORE PUSH1 0x4 ADD PUSH2 0x49E SWAP1 PUSH2 0x11C4 JUMP JUMPDEST PUSH1 0x1 PUSH1 0x1 PUSH1 0xA0 SHL SUB DUP2 AND PUSH2 0xDE3 JUMPI PUSH1 0x40 MLOAD PUSH3 0x461BCD PUSH1 0xE5 SHL DUP2 MSTORE PUSH1 0x20 PUSH1 0x4 DUP3 ADD MSTORE PUSH1 0x26 PUSH1 0x24 DUP3 ADD MSTORE PUSH32 0x4F776E61626C653A206E6577206F776E657220697320746865207A65726F2061 PUSH1 0x44 DUP3 ADD MSTORE PUSH6 0x646472657373 PUSH1 0xD0 SHL PUSH1 0x64 DUP3 ADD MSTORE PUSH1 0x84 ADD PUSH2 0x49E JUMP JUMPDEST PUSH2 0xDEC DUP2 PUSH2 0xEA6 JUMP JUMPDEST POP JUMP JUMPDEST PUSH1 0x1 DUP2 LT ISZERO PUSH2 0xE40 JUMPI PUSH1 0x40 MLOAD PUSH3 0x461BCD PUSH1 0xE5 SHL DUP2 MSTORE PUSH1 0x20 PUSH1 0x4 DUP3 ADD MSTORE PUSH1 0x17 PUSH1 0x24 DUP3 ADD MSTORE PUSH32 0x436F6E747269627574696F6E20697320746F6F206C6F77000000000000000000 PUSH1 0x44 DUP3 ADD MSTORE PUSH1 0x64 ADD PUSH2 0x49E JUMP JUMPDEST PUSH1 0x64 DUP2 GT ISZERO PUSH2 0xE91 JUMPI PUSH1 0x40 MLOAD PUSH3 0x461BCD PUSH1 0xE5 SHL DUP2 MSTORE PUSH1 0x20 PUSH1 0x4 DUP3 ADD MSTORE PUSH1 0x18 PUSH1 0x24 DUP3 ADD MSTORE PUSH32 0x436F6E747269627574696F6E20697320746F6F20686967680000000000000000 PUSH1 0x44 DUP3 ADD MSTORE PUSH1 0x64 ADD PUSH2 0x49E JUMP JUMPDEST PUSH1 0x0 SWAP2 DUP3 MSTORE PUSH1 0x2 PUSH1 0x20 MSTORE PUSH1 0x40 SWAP1 SWAP2 KECCAK256 PUSH1 0x1 ADD SSTORE JUMP JUMPDEST PUSH1 0x0 DUP1 SLOAD PUSH1 0x1 PUSH1 0x1 PUSH1 0xA0 SHL SUB DUP4 DUP2 AND PUSH1 0x1 PUSH1 0x1 PUSH1 0xA0 SHL SUB NOT DUP4 AND DUP2 OR DUP5 SSTORE PUSH1 0x40 MLOAD SWAP2 SWAP1 SWAP3 AND SWAP3 DUP4 SWAP2 PUSH32 0x8BE0079C531659141344CD1FD0A4F28419497F9722A3DAAFE3B4186F6B6457E0 SWAP2 SWAP1 LOG3 POP POP JUMP JUMPDEST PUSH2 0x1DBF DUP1 PUSH2 0x1285 DUP4 CODECOPY ADD SWAP1 JUMP JUMPDEST PUSH1 0x1 PUSH1 0x1 PUSH1 0xA0 SHL SUB DUP2 AND DUP2 EQ PUSH2 0xDEC JUMPI PUSH1 0x0 DUP1 REVERT JUMPDEST PUSH1 0x0 DUP1 PUSH1 0x0 PUSH1 0x60 DUP5 DUP7 SUB SLT ISZERO PUSH2 0xF2D JUMPI PUSH1 0x0 DUP1 REVERT JUMPDEST DUP4 CALLDATALOAD SWAP3 POP PUSH1 0x20 DUP5 ADD CALLDATALOAD SWAP2 POP PUSH1 0x40 DUP5 ADD CALLDATALOAD PUSH2 0xF46 DUP2 PUSH2 0xF03 JUMP JUMPDEST DUP1 SWAP2 POP POP SWAP3 POP SWAP3 POP SWAP3 JUMP JUMPDEST PUSH1 0x0 PUSH1 0x20 DUP3 DUP5 SUB SLT ISZERO PUSH2 0xF63 JUMPI PUSH1 0x0 DUP1 REVERT JUMPDEST DUP2 CALLDATALOAD PUSH2 0xF6E DUP2 PUSH2 0xF03 JUMP JUMPDEST SWAP4 SWAP3 POP POP POP JUMP JUMPDEST PUSH1 0x0 PUSH1 0x20 DUP3 DUP5 SUB SLT ISZERO PUSH2 0xF87 JUMPI PUSH1 0x0 DUP1 REVERT JUMPDEST POP CALLDATALOAD SWAP2 SWAP1 POP JUMP JUMPDEST PUSH1 0x0 DUP1 PUSH1 0x0 PUSH1 0x60 DUP5 DUP7 SUB SLT ISZERO PUSH2 0xFA3 JUMPI PUSH1 0x0 DUP1 REVERT JUMPDEST POP POP DUP2 CALLDATALOAD SWAP4 PUSH1 0x20 DUP4 ADD CALLDATALOAD SWAP4 POP PUSH1 0x40 SWAP1 SWAP3 ADD CALLDATALOAD SWAP2 SWAP1 POP JUMP JUMPDEST PUSH1 0x0 DUP1 PUSH1 0x0 DUP1 PUSH1 0x80 DUP6 DUP8 SUB SLT ISZERO PUSH2 0xFD0 JUMPI PUSH1 0x0 DUP1 REVERT JUMPDEST DUP5 CALLDATALOAD SWAP4 POP PUSH1 0x20 DUP6 ADD CALLDATALOAD SWAP3 POP PUSH1 0x40 DUP6 ADD CALLDATALOAD PUSH2 0xFE9 DUP2 PUSH2 0xF03 JUMP JUMPDEST SWAP2 POP PUSH1 0x60 DUP6 ADD CALLDATALOAD PUSH2 0xFF9 DUP2 PUSH2 0xF03 JUMP JUMPDEST SWAP4 SWAP7 SWAP3 SWAP6 POP SWAP1 SWAP4 POP POP JUMP JUMPDEST PUSH1 0x0 DUP1 PUSH1 0x40 DUP4 DUP6 SUB SLT ISZERO PUSH2 0x1017 JUMPI PUSH1 0x0 DUP1 REVERT JUMPDEST POP POP DUP1 CALLDATALOAD SWAP3 PUSH1 0x20 SWAP1 SWAP2 ADD CALLDATALOAD SWAP2 POP JUMP JUMPDEST PUSH1 0x0 PUSH1 0x20 DUP3 DUP5 SUB SLT ISZERO PUSH2 0x1038 JUMPI PUSH1 0x0 DUP1 REVERT JUMPDEST POP MLOAD SWAP2 SWAP1 POP JUMP JUMPDEST PUSH1 0x20 DUP1 DUP3 MSTORE PUSH1 0x16 SWAP1 DUP3 ADD MSTORE PUSH22 0x141C9BD99A5B1948191BD95CC81B9BDD08195E1A5CDD PUSH1 0x52 SHL PUSH1 0x40 DUP3 ADD MSTORE PUSH1 0x60 ADD SWAP1 JUMP JUMPDEST PUSH4 0x4E487B71 PUSH1 0xE0 SHL PUSH1 0x0 MSTORE PUSH1 0x41 PUSH1 0x4 MSTORE PUSH1 0x24 PUSH1 0x0 REVERT JUMPDEST PUSH1 0x0 DUP1 PUSH1 0x0 PUSH1 0x60 DUP5 DUP7 SUB SLT ISZERO PUSH2 0x109A JUMPI PUSH1 0x0 DUP1 REVERT JUMPDEST DUP4 MLOAD PUSH2 0x10A5 DUP2 PUSH2 0xF03 JUMP JUMPDEST DUP1 SWAP4 POP POP PUSH1 0x20 DUP1 DUP6 ADD MLOAD PUSH2 0x10B8 DUP2 PUSH2 0xF03 JUMP JUMPDEST PUSH1 0x40 DUP7 ADD MLOAD SWAP1 SWAP4 POP PUSH8 0xFFFFFFFFFFFFFFFF DUP1 DUP3 GT ISZERO PUSH2 0x10D6 JUMPI PUSH1 0x0 DUP1 REVERT JUMPDEST DUP2 DUP8 ADD SWAP2 POP DUP8 PUSH1 0x1F DUP4 ADD SLT PUSH2 0x10EA JUMPI PUSH1 0x0 DUP1 REVERT JUMPDEST DUP2 MLOAD DUP2 DUP2 GT ISZERO PUSH2 0x10FC JUMPI PUSH2 0x10FC PUSH2 0x106F JUMP JUMPDEST PUSH1 0x40 MLOAD PUSH1 0x1F DUP3 ADD PUSH1 0x1F NOT SWAP1 DUP2 AND PUSH1 0x3F ADD AND DUP2 ADD SWAP1 DUP4 DUP3 GT DUP2 DUP4 LT OR ISZERO PUSH2 0x1124 JUMPI PUSH2 0x1124 PUSH2 0x106F JUMP JUMPDEST DUP2 PUSH1 0x40 MSTORE DUP3 DUP2 MSTORE DUP11 DUP7 DUP5 DUP8 ADD ADD GT ISZERO PUSH2 0x113C JUMPI PUSH1 0x0 DUP1 REVERT JUMPDEST PUSH1 0x0 SWAP4 POP JUMPDEST DUP3 DUP5 LT ISZERO PUSH2 0x115E JUMPI DUP5 DUP5 ADD DUP7 ADD MLOAD DUP2 DUP6 ADD DUP8 ADD MSTORE SWAP3 DUP6 ADD SWAP3 PUSH2 0x1141 JUMP JUMPDEST DUP3 DUP5 GT ISZERO PUSH2 0x116F JUMPI PUSH1 0x0 DUP7 DUP5 DUP4 ADD ADD MSTORE JUMPDEST DUP1 SWAP7 POP POP POP POP POP POP POP SWAP3 POP SWAP3 POP SWAP3 JUMP JUMPDEST PUSH1 0x20 DUP1 DUP3 MSTORE PUSH1 0x25 SWAP1 DUP3 ADD MSTORE PUSH32 0x596F7520617265206E6F7420746865206F776E6572206F662074686973207072 PUSH1 0x40 DUP3 ADD MSTORE PUSH5 0x6F66696C65 PUSH1 0xD8 SHL PUSH1 0x60 DUP3 ADD MSTORE PUSH1 0x80 ADD SWAP1 JUMP JUMPDEST PUSH1 0x20 DUP1 DUP3 MSTORE DUP2 DUP2 ADD MSTORE PUSH32 0x4F776E61626C653A2063616C6C6572206973206E6F7420746865206F776E6572 PUSH1 0x40 DUP3 ADD MSTORE PUSH1 0x60 ADD SWAP1 JUMP JUMPDEST DUP1 MLOAD DUP1 ISZERO ISZERO DUP2 EQ PUSH2 0x1209 JUMPI PUSH1 0x0 DUP1 REVERT JUMPDEST SWAP2 SWAP1 POP JUMP JUMPDEST PUSH1 0x0 PUSH1 0x20 DUP3 DUP5 SUB SLT ISZERO PUSH2 0x1220 JUMPI PUSH1 0x0 DUP1 REVERT JUMPDEST PUSH2 0xF6E DUP3 PUSH2 0x11F9 JUMP JUMPDEST PUSH1 0x0 DUP1 PUSH1 0x0 PUSH1 0x60 DUP5 DUP7 SUB SLT ISZERO PUSH2 0x123E JUMPI PUSH1 0x0 DUP1 REVERT JUMPDEST DUP4 MLOAD SWAP3 POP PUSH1 0x20 DUP5 ADD MLOAD SWAP2 POP PUSH2 0x1255 PUSH1 0x40 DUP6 ADD PUSH2 0x11F9 JUMP JUMPDEST SWAP1 POP SWAP3 POP SWAP3 POP SWAP3 JUMP JUMPDEST PUSH1 0x0 DUP3 NOT DUP3 GT ISZERO PUSH2 0x127F JUMPI PUSH4 0x4E487B71 PUSH1 0xE0 SHL PUSH1 0x0 MSTORE PUSH1 0x11 PUSH1 0x4 MSTORE PUSH1 0x24 PUSH1 0x0 REVERT JUMPDEST POP ADD SWAP1 JUMP INVALID PUSH2 0x100 PUSH1 0x40 MSTORE CALLVALUE DUP1 ISZERO PUSH3 0x12 JUMPI PUSH1 0x0 DUP1 REVERT JUMPDEST POP PUSH1 0x40 MLOAD PUSH3 0x1DBF CODESIZE SUB DUP1 PUSH3 0x1DBF DUP4 CODECOPY DUP2 ADD PUSH1 0x40 DUP2 SWAP1 MSTORE PUSH3 0x35 SWAP2 PUSH3 0x75 JUMP JUMPDEST PUSH1 0x1 PUSH1 0x1 PUSH1 0xA0 SHL SUB SWAP4 DUP5 AND PUSH1 0x80 MSTORE SWAP2 DUP4 AND PUSH1 0xA0 MSTORE DUP3 AND PUSH1 0xC0 MSTORE AND PUSH1 0xE0 MSTORE PUSH3 0xD2 JUMP JUMPDEST DUP1 MLOAD PUSH1 0x1 PUSH1 0x1 PUSH1 0xA0 SHL SUB DUP2 AND DUP2 EQ PUSH3 0x70 JUMPI PUSH1 0x0 DUP1 REVERT JUMPDEST SWAP2 SWAP1 POP JUMP JUMPDEST PUSH1 0x0 DUP1 PUSH1 0x0 DUP1 PUSH1 0x80 DUP6 DUP8 SUB SLT ISZERO PUSH3 0x8C JUMPI PUSH1 0x0 DUP1 REVERT JUMPDEST PUSH3 0x97 DUP6 PUSH3 0x58 JUMP JUMPDEST SWAP4 POP PUSH3 0xA7 PUSH1 0x20 DUP7 ADD PUSH3 0x58 JUMP JUMPDEST SWAP3 POP PUSH3 0xB7 PUSH1 0x40 DUP7 ADD PUSH3 0x58 JUMP JUMPDEST SWAP2 POP PUSH3 0xC7 PUSH1 0x60 DUP7 ADD PUSH3 0x58 JUMP JUMPDEST SWAP1 POP SWAP3 SWAP6 SWAP2 SWAP5 POP SWAP3 POP JUMP JUMPDEST PUSH1 0x80 MLOAD PUSH1 0xA0 MLOAD PUSH1 0xC0 MLOAD PUSH1 0xE0 MLOAD PUSH2 0x1C35 PUSH3 0x18A PUSH1 0x0 CODECOPY PUSH1 0x0 DUP2 DUP2 PUSH2 0xA52 ADD MSTORE DUP2 DUP2 PUSH2 0xB16 ADD MSTORE DUP2 DUP2 PUSH2 0xE6C ADD MSTORE DUP2 DUP2 PUSH2 0xFA8 ADD MSTORE DUP2 DUP2 PUSH2 0x1069 ADD MSTORE DUP2 DUP2 PUSH2 0x14E1 ADD MSTORE DUP2 DUP2 PUSH2 0x1576 ADD MSTORE DUP2 DUP2 PUSH2 0x1617 ADD MSTORE PUSH2 0x168F ADD MSTORE PUSH1 0x0 DUP2 DUP2 PUSH2 0x27A ADD MSTORE DUP2 DUP2 PUSH2 0x708 ADD MSTORE DUP2 DUP2 PUSH2 0xA81 ADD MSTORE DUP2 DUP2 PUSH2 0xBFD ADD MSTORE DUP2 DUP2 PUSH2 0xDC4 ADD MSTORE DUP2 DUP2 PUSH2 0xE94 ADD MSTORE DUP2 DUP2 PUSH2 0xF08 ADD MSTORE PUSH2 0x1339 ADD MSTORE PUSH1 0x0 DUP2 DUP2 PUSH2 0x33A ADD MSTORE PUSH2 0xFD6 ADD MSTORE PUSH1 0x0 DUP2 DUP2 PUSH2 0x437 ADD MSTORE DUP2 DUP2 PUSH2 0xCD3 ADD MSTORE PUSH2 0x12A2 ADD MSTORE PUSH2 0x1C35 PUSH1 0x0 RETURN INVALID PUSH1 0x80 PUSH1 0x40 MSTORE PUSH1 0x4 CALLDATASIZE LT PUSH2 0x55 JUMPI PUSH1 0x0 CALLDATALOAD PUSH1 0xE0 SHR DUP1 PUSH4 0x9E02C17 EQ PUSH2 0x5A JUMPI DUP1 PUSH4 0x4585E33B EQ PUSH2 0x7C JUMPI DUP1 PUSH4 0x6E04FF0D EQ PUSH2 0x9C JUMPI DUP1 PUSH4 0x7E80C186 EQ PUSH2 0xD3 JUMPI DUP1 PUSH4 0x84370813 EQ PUSH2 0xE8 JUMPI DUP1 PUSH4 0xD53D5E42 EQ PUSH2 0xFB JUMPI JUMPDEST PUSH1 0x0 DUP1 REVERT JUMPDEST CALLVALUE DUP1 ISZERO PUSH2 0x66 JUMPI PUSH1 0x0 DUP1 REVERT JUMPDEST POP PUSH2 0x7A PUSH2 0x75 CALLDATASIZE PUSH1 0x4 PUSH2 0x1759 JUMP JUMPDEST PUSH2 0x138 JUMP JUMPDEST STOP JUMPDEST CALLVALUE DUP1 ISZERO PUSH2 0x88 JUMPI PUSH1 0x0 DUP1 REVERT JUMPDEST POP PUSH2 0x7A PUSH2 0x97 CALLDATASIZE PUSH1 0x4 PUSH2 0x177B JUMP JUMPDEST PUSH2 0x1D7 JUMP JUMPDEST CALLVALUE DUP1 ISZERO PUSH2 0xA8 JUMPI PUSH1 0x0 DUP1 REVERT JUMPDEST POP PUSH2 0xBC PUSH2 0xB7 CALLDATASIZE PUSH1 0x4 PUSH2 0x177B JUMP JUMPDEST PUSH2 0x83D JUMP JUMPDEST PUSH1 0x40 MLOAD PUSH2 0xCA SWAP3 SWAP2 SWAP1 PUSH2 0x181D JUMP JUMPDEST PUSH1 0x40 MLOAD DUP1 SWAP2 SUB SWAP1 RETURN JUMPDEST CALLVALUE DUP1 ISZERO PUSH2 0xDF JUMPI PUSH1 0x0 DUP1 REVERT JUMPDEST POP PUSH2 0x7A PUSH2 0xA50 JUMP JUMPDEST PUSH2 0x7A PUSH2 0xF6 CALLDATASIZE PUSH1 0x4 PUSH2 0x1759 JUMP JUMPDEST PUSH2 0xBFB JUMP JUMPDEST CALLVALUE DUP1 ISZERO PUSH2 0x107 JUMPI PUSH1 0x0 DUP1 REVERT JUMPDEST POP PUSH2 0x11B PUSH2 0x116 CALLDATASIZE PUSH1 0x4 PUSH2 0x186E JUMP JUMPDEST PUSH2 0x1403 JUMP JUMPDEST PUSH1 0x40 DUP1 MLOAD SWAP4 DUP5 MSTORE PUSH1 0x20 DUP5 ADD SWAP3 SWAP1 SWAP3 MSTORE ISZERO ISZERO SWAP1 DUP3 ADD MSTORE PUSH1 0x60 ADD PUSH2 0xCA JUMP JUMPDEST PUSH1 0x0 PUSH2 0x145 DUP4 DUP4 CALLER PUSH2 0x1444 JUMP JUMPDEST PUSH1 0x0 DUP2 DUP2 MSTORE PUSH1 0x20 DUP2 SWAP1 MSTORE PUSH1 0x40 SWAP1 KECCAK256 PUSH1 0x2 ADD SLOAD SWAP1 SWAP2 POP PUSH1 0x1 PUSH1 0x1 PUSH1 0xA0 SHL SUB AND CALLER EQ PUSH2 0x16E JUMPI PUSH1 0x0 DUP1 REVERT JUMPDEST PUSH1 0x0 DUP2 DUP2 MSTORE PUSH1 0x20 DUP2 DUP2 MSTORE PUSH1 0x40 DUP1 DUP4 KECCAK256 PUSH1 0x4 DUP2 ADD SWAP4 SWAP1 SWAP4 SSTORE PUSH1 0x5 SWAP1 SWAP3 ADD DUP1 SLOAD PUSH1 0xFF NOT AND PUSH1 0x1 OR SWAP1 SSTORE DUP2 MLOAD DUP6 DUP2 MSTORE SWAP1 DUP2 ADD DUP5 SWAP1 MSTORE CALLER DUP2 DUP4 ADD MSTORE SWAP1 MLOAD PUSH32 0xBDCD5F8B5E00DA56711125E00A6F462FE30C2C17EDB4CECEC2E7BBEAC057377D SWAP2 PUSH1 0x60 SWAP1 DUP3 SWAP1 SUB ADD SWAP1 LOG1 POP POP POP JUMP JUMPDEST PUSH1 0x0 GAS SWAP1 POP PUSH1 0x0 DUP1 PUSH2 0x1EB DUP5 DUP7 ADD DUP7 PUSH2 0x18FE JUMP JUMPDEST SWAP2 POP SWAP2 POP PUSH1 0x0 JUMPDEST DUP3 MLOAD DUP2 LT ISZERO PUSH2 0x6FF JUMPI TIMESTAMP PUSH1 0x0 DUP1 DUP6 DUP5 DUP2 MLOAD DUP2 LT PUSH2 0x211 JUMPI PUSH2 0x211 PUSH2 0x19B6 JUMP JUMPDEST PUSH1 0x20 MUL PUSH1 0x20 ADD ADD MLOAD DUP2 MSTORE PUSH1 0x20 ADD SWAP1 DUP2 MSTORE PUSH1 0x20 ADD PUSH1 0x0 KECCAK256 PUSH1 0x4 ADD SLOAD LT PUSH2 0x235 JUMPI PUSH1 0x0 DUP1 REVERT JUMPDEST PUSH1 0x0 DUP1 DUP5 DUP4 DUP2 MLOAD DUP2 LT PUSH2 0x24A JUMPI PUSH2 0x24A PUSH2 0x19B6 JUMP JUMPDEST PUSH1 0x20 SWAP1 DUP2 MUL SWAP2 SWAP1 SWAP2 ADD DUP2 ADD MLOAD DUP3 MSTORE DUP2 ADD SWAP2 SWAP1 SWAP2 MSTORE PUSH1 0x40 ADD PUSH1 0x0 KECCAK256 PUSH1 0x5 ADD SLOAD PUSH1 0xFF AND ISZERO PUSH2 0x275 JUMPI PUSH1 0x0 DUP1 REVERT JUMPDEST PUSH1 0x0 DUP1 PUSH32 0x0 PUSH1 0x1 PUSH1 0x1 PUSH1 0xA0 SHL SUB AND PUSH4 0xED74A202 PUSH1 0x0 DUP1 DUP9 DUP8 DUP2 MLOAD DUP2 LT PUSH2 0x2BC JUMPI PUSH2 0x2BC PUSH2 0x19B6 JUMP JUMPDEST PUSH1 0x20 MUL PUSH1 0x20 ADD ADD MLOAD DUP2 MSTORE PUSH1 0x20 ADD SWAP1 DUP2 MSTORE PUSH1 0x20 ADD PUSH1 0x0 KECCAK256 PUSH1 0x0 ADD SLOAD PUSH1 0x40 MLOAD DUP3 PUSH4 0xFFFFFFFF AND PUSH1 0xE0 SHL DUP2 MSTORE PUSH1 0x4 ADD PUSH2 0x2F4 SWAP2 DUP2 MSTORE PUSH1 0x20 ADD SWAP1 JUMP JUMPDEST PUSH1 0x40 DUP1 MLOAD DUP1 DUP4 SUB DUP2 DUP7 GAS STATICCALL ISZERO DUP1 ISZERO PUSH2 0x310 JUMPI RETURNDATASIZE PUSH1 0x0 DUP1 RETURNDATACOPY RETURNDATASIZE PUSH1 0x0 REVERT JUMPDEST POP POP POP POP PUSH1 0x40 MLOAD RETURNDATASIZE PUSH1 0x1F NOT PUSH1 0x1F DUP3 ADD AND DUP3 ADD DUP1 PUSH1 0x40 MSTORE POP DUP2 ADD SWAP1 PUSH2 0x334 SWAP2 SWAP1 PUSH2 0x19CC JUMP JUMPDEST SWAP2 POP SWAP2 POP PUSH32 0x0 PUSH1 0x1 PUSH1 0x1 PUSH1 0xA0 SHL SUB AND PUSH4 0x819CA222 PUSH1 0x0 DUP1 DUP9 DUP8 DUP2 MLOAD DUP2 LT PUSH2 0x37C JUMPI PUSH2 0x37C PUSH2 0x19B6 JUMP JUMPDEST PUSH1 0x20 MUL PUSH1 0x20 ADD ADD MLOAD DUP2 MSTORE PUSH1 0x20 ADD SWAP1 DUP2 MSTORE PUSH1 0x20 ADD PUSH1 0x0 KECCAK256 PUSH1 0x0 ADD SLOAD DUP5 PUSH1 0x40 MLOAD DUP4 PUSH4 0xFFFFFFFF AND PUSH1 0xE0 SHL DUP2 MSTORE PUSH1 0x4 ADD PUSH2 0x3BD SWAP3 SWAP2 SWAP1 SWAP2 DUP3 MSTORE PUSH1 0x20 DUP3 ADD MSTORE PUSH1 0x40 ADD SWAP1 JUMP JUMPDEST PUSH1 0x20 PUSH1 0x40 MLOAD DUP1 DUP4 SUB DUP2 DUP7 GAS STATICCALL ISZERO DUP1 ISZERO PUSH2 0x3DA JUMPI RETURNDATASIZE PUSH1 0x0 DUP1 RETURNDATACOPY RETURNDATASIZE PUSH1 0x0 REVERT JUMPDEST POP POP POP POP PUSH1 0x40 MLOAD RETURNDATASIZE PUSH1 0x1F NOT PUSH1 0x1F DUP3 ADD AND DUP3 ADD DUP1 PUSH1 0x40 MSTORE POP DUP2 ADD SWAP1 PUSH2 0x3FE SWAP2 SWAP1 PUSH2 0x19F0 JUMP JUMPDEST PUSH1 0x0 DUP1 DUP8 DUP7 DUP2 MLOAD DUP2 LT PUSH2 0x413 JUMPI PUSH2 0x413 PUSH2 0x19B6 JUMP JUMPDEST PUSH1 0x20 MUL PUSH1 0x20 ADD ADD MLOAD DUP2 MSTORE PUSH1 0x20 ADD SWAP1 DUP2 MSTORE PUSH1 0x20 ADD PUSH1 0x0 KECCAK256 PUSH1 0x1 ADD SLOAD LT ISZERO PUSH2 0x5CA JUMPI PUSH1 0x0 PUSH32 0x0 PUSH1 0x1 PUSH1 0x1 PUSH1 0xA0 SHL SUB AND PUSH4 0xF08F4F64 PUSH1 0x0 DUP1 DUP10 DUP9 DUP2 MLOAD DUP2 LT PUSH2 0x479 JUMPI PUSH2 0x479 PUSH2 0x19B6 JUMP JUMPDEST PUSH1 0x20 MUL PUSH1 0x20 ADD ADD MLOAD DUP2 MSTORE PUSH1 0x20 ADD SWAP1 DUP2 MSTORE PUSH1 0x20 ADD PUSH1 0x0 KECCAK256 PUSH1 0x0 ADD SLOAD PUSH1 0x40 MLOAD DUP3 PUSH4 0xFFFFFFFF AND PUSH1 0xE0 SHL DUP2 MSTORE PUSH1 0x4 ADD PUSH2 0x4B1 SWAP2 DUP2 MSTORE PUSH1 0x20 ADD SWAP1 JUMP JUMPDEST PUSH1 0x0 PUSH1 0x40 MLOAD DUP1 DUP4 SUB DUP2 DUP7 GAS STATICCALL ISZERO DUP1 ISZERO PUSH2 0x4CE JUMPI RETURNDATASIZE PUSH1 0x0 DUP1 RETURNDATACOPY RETURNDATASIZE PUSH1 0x0 REVERT JUMPDEST POP POP POP POP PUSH1 0x40 MLOAD RETURNDATASIZE PUSH1 0x0 DUP3 RETURNDATACOPY PUSH1 0x1F RETURNDATASIZE SWAP1 DUP2 ADD PUSH1 0x1F NOT AND DUP3 ADD PUSH1 0x40 MSTORE PUSH2 0x4F6 SWAP2 SWAP1 DUP2 ADD SWAP1 PUSH2 0x1A09 JUMP JUMPDEST POP SWAP2 POP POP PUSH1 0x0 PUSH2 0x577 PUSH1 0x0 DUP1 DUP10 DUP9 DUP2 MLOAD DUP2 LT PUSH2 0x514 JUMPI PUSH2 0x514 PUSH2 0x19B6 JUMP JUMPDEST PUSH1 0x20 MUL PUSH1 0x20 ADD ADD MLOAD DUP2 MSTORE PUSH1 0x20 ADD SWAP1 DUP2 MSTORE PUSH1 0x20 ADD PUSH1 0x0 KECCAK256 PUSH1 0x2 ADD PUSH1 0x0 SWAP1 SLOAD SWAP1 PUSH2 0x100 EXP SWAP1 DIV PUSH1 0x1 PUSH1 0x1 PUSH1 0xA0 SHL SUB AND DUP4 PUSH1 0x0 DUP1 DUP12 DUP11 DUP2 MLOAD DUP2 LT PUSH2 0x557 JUMPI PUSH2 0x557 PUSH2 0x19B6 JUMP JUMPDEST PUSH1 0x20 MUL PUSH1 0x20 ADD ADD MLOAD DUP2 MSTORE PUSH1 0x20 ADD SWAP1 DUP2 MSTORE PUSH1 0x20 ADD PUSH1 0x0 KECCAK256 PUSH1 0x3 ADD SLOAD DUP7 PUSH2 0x14B7 JUMP JUMPDEST SWAP1 POP DUP1 ISZERO PUSH2 0x5C7 JUMPI PUSH2 0x58C TIMESTAMP PUSH3 0x278D00 PUSH2 0x1ADC JUMP JUMPDEST PUSH1 0x0 DUP1 DUP10 DUP9 DUP2 MLOAD DUP2 LT PUSH2 0x5A1 JUMPI PUSH2 0x5A1 PUSH2 0x19B6 JUMP JUMPDEST PUSH1 0x20 MUL PUSH1 0x20 ADD ADD MLOAD DUP2 MSTORE PUSH1 0x20 ADD SWAP1 DUP2 MSTORE PUSH1 0x20 ADD PUSH1 0x0 KECCAK256 PUSH1 0x4 ADD DUP2 SWAP1 SSTORE POP POP POP POP POP PUSH2 0x6ED JUMP JUMPDEST POP POP JUMPDEST PUSH1 0x0 DUP1 PUSH1 0x0 DUP8 DUP7 DUP2 MLOAD DUP2 LT PUSH2 0x5E1 JUMPI PUSH2 0x5E1 PUSH2 0x19B6 JUMP JUMPDEST PUSH1 0x20 MUL PUSH1 0x20 ADD ADD MLOAD DUP2 MSTORE PUSH1 0x20 ADD SWAP1 DUP2 MSTORE PUSH1 0x20 ADD PUSH1 0x0 KECCAK256 PUSH1 0x5 ADD PUSH1 0x0 PUSH2 0x100 EXP DUP2 SLOAD DUP2 PUSH1 0xFF MUL NOT AND SWAP1 DUP4 ISZERO ISZERO MUL OR SWAP1 SSTORE POP PUSH32 0xBDCD5F8B5E00DA56711125E00A6F462FE30C2C17EDB4CECEC2E7BBEAC057377D PUSH1 0x0 DUP1 DUP8 DUP7 DUP2 MLOAD DUP2 LT PUSH2 0x647 JUMPI PUSH2 0x647 PUSH2 0x19B6 JUMP JUMPDEST PUSH1 0x20 MUL PUSH1 0x20 ADD ADD MLOAD DUP2 MSTORE PUSH1 0x20 ADD SWAP1 DUP2 MSTORE PUSH1 0x20 ADD PUSH1 0x0 KECCAK256 PUSH1 0x0 ADD SLOAD PUSH1 0x0 DUP1 DUP9 DUP8 DUP2 MLOAD DUP2 LT PUSH2 0x676 JUMPI PUSH2 0x676 PUSH2 0x19B6 JUMP JUMPDEST PUSH1 0x20 MUL PUSH1 0x20 ADD ADD MLOAD DUP2 MSTORE PUSH1 0x20 ADD SWAP1 DUP2 MSTORE PUSH1 0x20 ADD PUSH1 0x0 KECCAK256 PUSH1 0x1 ADD SLOAD PUSH1 0x0 DUP1 DUP10 DUP9 DUP2 MLOAD DUP2 LT PUSH2 0x6A5 JUMPI PUSH2 0x6A5 PUSH2 0x19B6 JUMP JUMPDEST PUSH1 0x20 SWAP1 DUP2 MUL SWAP2 SWAP1 SWAP2 ADD DUP2 ADD MLOAD DUP3 MSTORE DUP2 DUP2 ADD SWAP3 SWAP1 SWAP3 MSTORE PUSH1 0x40 SWAP1 DUP2 ADD PUSH1 0x0 KECCAK256 PUSH1 0x2 ADD SLOAD DUP2 MLOAD SWAP5 DUP6 MSTORE SWAP2 DUP5 ADD SWAP3 SWAP1 SWAP3 MSTORE PUSH1 0x1 PUSH1 0x1 PUSH1 0xA0 SHL SUB AND SWAP1 DUP3 ADD MSTORE PUSH1 0x60 ADD PUSH1 0x40 MLOAD DUP1 SWAP2 SUB SWAP1 LOG1 POP POP JUMPDEST DUP1 PUSH2 0x6F7 DUP2 PUSH2 0x1AF4 JUMP JUMPDEST SWAP2 POP POP PUSH2 0x1F2 JUMP JUMPDEST POP PUSH1 0x0 DUP3 MLOAD PUSH1 0x3C PUSH32 0x0 PUSH1 0x1 PUSH1 0x1 PUSH1 0xA0 SHL SUB AND PUSH4 0x46A8A015 PUSH1 0x40 MLOAD DUP2 PUSH4 0xFFFFFFFF AND PUSH1 0xE0 SHL DUP2 MSTORE PUSH1 0x4 ADD PUSH1 0x20 PUSH1 0x40 MLOAD DUP1 DUP4 SUB DUP2 DUP7 GAS STATICCALL ISZERO DUP1 ISZERO PUSH2 0x764 JUMPI RETURNDATASIZE PUSH1 0x0 DUP1 RETURNDATACOPY RETURNDATASIZE PUSH1 0x0 REVERT JUMPDEST POP POP POP POP PUSH1 0x40 MLOAD RETURNDATASIZE PUSH1 0x1F NOT PUSH1 0x1F DUP3 ADD AND DUP3 ADD DUP1 PUSH1 0x40 MSTORE POP DUP2 ADD SWAP1 PUSH2 0x788 SWAP2 SWAP1 PUSH2 0x19F0 JUMP JUMPDEST PUSH2 0x792 SWAP2 SWAP1 PUSH2 0x1B0D JUMP JUMPDEST PUSH2 0x79C SWAP2 SWAP1 PUSH2 0x1B2F JUMP JUMPDEST SWAP1 POP PUSH1 0x0 GAS PUSH2 0x7AB SWAP1 DUP7 PUSH2 0x1B4E JUMP JUMPDEST PUSH2 0x7B7 SWAP1 PUSH2 0x71D7 PUSH2 0x1ADC JUMP JUMPDEST SWAP1 POP PUSH1 0x0 PUSH2 0x7C5 GASPRICE DUP4 PUSH2 0x1B2F JUMP JUMPDEST SWAP1 POP DUP3 DUP2 GT ISZERO PUSH2 0x7D2 JUMPI POP DUP2 JUMPDEST PUSH1 0x0 DUP5 PUSH1 0x1 PUSH1 0x1 PUSH1 0xA0 SHL SUB AND DUP3 PUSH1 0x40 MLOAD PUSH1 0x0 PUSH1 0x40 MLOAD DUP1 DUP4 SUB DUP2 DUP6 DUP8 GAS CALL SWAP3 POP POP POP RETURNDATASIZE DUP1 PUSH1 0x0 DUP2 EQ PUSH2 0x81F JUMPI PUSH1 0x40 MLOAD SWAP2 POP PUSH1 0x1F NOT PUSH1 0x3F RETURNDATASIZE ADD AND DUP3 ADD PUSH1 0x40 MSTORE RETURNDATASIZE DUP3 MSTORE RETURNDATASIZE PUSH1 0x0 PUSH1 0x20 DUP5 ADD RETURNDATACOPY PUSH2 0x824 JUMP JUMPDEST PUSH1 0x60 SWAP2 POP JUMPDEST POP POP SWAP1 POP DUP1 PUSH2 0x832 JUMPI PUSH1 0x0 DUP1 REVERT JUMPDEST POP POP POP POP POP POP POP POP POP JUMP JUMPDEST PUSH1 0x0 PUSH1 0x60 DUP2 DUP1 DUP1 PUSH2 0x850 DUP7 DUP9 ADD DUP9 PUSH2 0x186E JUMP JUMPDEST SWAP3 POP SWAP3 POP SWAP3 POP DUP2 DUP4 GT ISZERO PUSH2 0x863 JUMPI PUSH1 0x0 DUP1 REVERT JUMPDEST PUSH1 0x1 SLOAD DUP4 LT PUSH2 0x871 JUMPI PUSH1 0x0 DUP1 REVERT JUMPDEST PUSH1 0x0 DUP1 PUSH1 0x1 SLOAD DUP5 LT PUSH2 0x88E JUMPI PUSH1 0x1 DUP1 SLOAD PUSH2 0x88B SWAP2 SWAP1 PUSH2 0x1B4E JUMP JUMPDEST SWAP4 POP JUMPDEST PUSH1 0x0 PUSH2 0x89A DUP7 DUP7 PUSH2 0x1B4E JUMP JUMPDEST PUSH2 0x8A5 SWAP1 PUSH1 0x1 PUSH2 0x1ADC JUMP JUMPDEST SWAP1 POP PUSH1 0x0 JUMPDEST DUP2 DUP2 LT ISZERO PUSH2 0x933 JUMPI PUSH1 0x0 PUSH2 0x8BE DUP3 DUP10 PUSH2 0x1ADC JUMP JUMPDEST PUSH1 0x0 DUP2 DUP2 MSTORE PUSH1 0x20 DUP2 SWAP1 MSTORE PUSH1 0x40 SWAP1 KECCAK256 PUSH1 0x4 ADD SLOAD SWAP1 SWAP2 POP TIMESTAMP GT DUP1 ISZERO PUSH2 0x8F3 JUMPI POP PUSH1 0x0 DUP2 DUP2 MSTORE PUSH1 0x20 DUP2 SWAP1 MSTORE PUSH1 0x40 SWAP1 KECCAK256 PUSH1 0x5 ADD SLOAD PUSH1 0xFF AND ISZERO JUMPDEST ISZERO PUSH2 0x920 JUMPI PUSH2 0x903 DUP3 PUSH1 0x1 PUSH2 0x1ADC JUMP JUMPDEST SWAP4 POP DUP5 PUSH2 0x90F DUP2 PUSH2 0x1AF4 JUMP JUMPDEST SWAP6 POP POP DUP5 PUSH1 0x19 SUB PUSH2 0x920 JUMPI POP PUSH2 0x933 JUMP JUMPDEST POP DUP1 PUSH2 0x92B DUP2 PUSH2 0x1AF4 JUMP JUMPDEST SWAP2 POP POP PUSH2 0x8AA JUMP JUMPDEST POP DUP3 PUSH1 0x0 SUB PUSH2 0x95D JUMPI PUSH1 0x0 PUSH1 0x40 MLOAD DUP1 PUSH1 0x20 ADD PUSH1 0x40 MSTORE DUP1 PUSH1 0x0 DUP2 MSTORE POP SWAP8 POP SWAP8 POP POP POP POP POP POP POP PUSH2 0xA49 JUMP JUMPDEST PUSH1 0x0 DUP4 PUSH8 0xFFFFFFFFFFFFFFFF DUP2 GT ISZERO PUSH2 0x978 JUMPI PUSH2 0x978 PUSH2 0x18A7 JUMP JUMPDEST PUSH1 0x40 MLOAD SWAP1 DUP1 DUP3 MSTORE DUP1 PUSH1 0x20 MUL PUSH1 0x20 ADD DUP3 ADD PUSH1 0x40 MSTORE DUP1 ISZERO PUSH2 0x9A1 JUMPI DUP2 PUSH1 0x20 ADD PUSH1 0x20 DUP3 MUL DUP1 CALLDATASIZE DUP4 CALLDATACOPY ADD SWAP1 POP JUMPDEST POP SWAP1 POP PUSH1 0x0 DUP1 JUMPDEST DUP5 DUP2 LT ISZERO PUSH2 0xA17 JUMPI PUSH1 0x0 PUSH2 0x9BC DUP3 DUP12 PUSH2 0x1ADC JUMP JUMPDEST PUSH1 0x0 DUP2 DUP2 MSTORE PUSH1 0x20 DUP2 SWAP1 MSTORE PUSH1 0x40 SWAP1 KECCAK256 PUSH1 0x4 ADD SLOAD SWAP1 SWAP2 POP TIMESTAMP GT ISZERO PUSH2 0xA04 JUMPI DUP1 DUP5 DUP5 DUP2 MLOAD DUP2 LT PUSH2 0x9EB JUMPI PUSH2 0x9EB PUSH2 0x19B6 JUMP JUMPDEST PUSH1 0x20 SWAP1 DUP2 MUL SWAP2 SWAP1 SWAP2 ADD ADD MSTORE DUP3 PUSH2 0xA00 DUP2 PUSH2 0x1AF4 JUMP JUMPDEST SWAP4 POP POP JUMPDEST POP DUP1 PUSH2 0xA0F DUP2 PUSH2 0x1AF4 JUMP JUMPDEST SWAP2 POP POP PUSH2 0x9A8 JUMP JUMPDEST POP PUSH1 0x1 DUP3 DUP8 PUSH1 0x40 MLOAD PUSH1 0x20 ADD PUSH2 0xA2D SWAP3 SWAP2 SWAP1 PUSH2 0x1B65 JUMP JUMPDEST PUSH1 0x40 MLOAD PUSH1 0x20 DUP2 DUP4 SUB SUB DUP2 MSTORE SWAP1 PUSH1 0x40 MSTORE SWAP10 POP SWAP10 POP POP POP POP POP POP POP POP POP JUMPDEST SWAP3 POP SWAP3 SWAP1 POP JUMP JUMPDEST PUSH32 0x0 PUSH1 0x1 PUSH1 0x1 PUSH1 0xA0 SHL SUB AND PUSH4 0xA9059CBB PUSH32 0x0 PUSH1 0x1 PUSH1 0x1 PUSH1 0xA0 SHL SUB AND PUSH4 0xA29A314D PUSH1 0x40 MLOAD DUP2 PUSH4 0xFFFFFFFF AND PUSH1 0xE0 SHL DUP2 MSTORE PUSH1 0x4 ADD PUSH1 0x20 PUSH1 0x40 MLOAD DUP1 DUP4 SUB DUP2 DUP7 GAS STATICCALL ISZERO DUP1 ISZERO PUSH2 0xADD JUMPI RETURNDATASIZE PUSH1 0x0 DUP1 RETURNDATACOPY RETURNDATASIZE PUSH1 0x0 REVERT JUMPDEST POP POP POP POP PUSH1 0x40 MLOAD RETURNDATASIZE PUSH1 0x1F NOT PUSH1 0x1F DUP3 ADD AND DUP3 ADD DUP1 PUSH1 0x40 MSTORE POP DUP2 ADD SWAP1 PUSH2 0xB01 SWAP2 SWAP1 PUSH2 0x1BB9 JUMP JUMPDEST PUSH1 0x40 MLOAD PUSH4 0x70A08231 PUSH1 0xE0 SHL DUP2 MSTORE ADDRESS PUSH1 0x4 DUP3 ADD MSTORE PUSH32 0x0 PUSH1 0x1 PUSH1 0x1 PUSH1 0xA0 SHL SUB AND SWAP1 PUSH4 0x70A08231 SWAP1 PUSH1 0x24 ADD PUSH1 0x20 PUSH1 0x40 MLOAD DUP1 DUP4 SUB DUP2 DUP7 GAS STATICCALL ISZERO DUP1 ISZERO PUSH2 0xB65 JUMPI RETURNDATASIZE PUSH1 0x0 DUP1 RETURNDATACOPY RETURNDATASIZE PUSH1 0x0 REVERT JUMPDEST POP POP POP POP PUSH1 0x40 MLOAD RETURNDATASIZE PUSH1 0x1F NOT PUSH1 0x1F DUP3 ADD AND DUP3 ADD DUP1 PUSH1 0x40 MSTORE POP DUP2 ADD SWAP1 PUSH2 0xB89 SWAP2 SWAP1 PUSH2 0x19F0 JUMP JUMPDEST PUSH1 0x40 MLOAD PUSH1 0x1 PUSH1 0x1 PUSH1 0xE0 SHL SUB NOT PUSH1 0xE0 DUP6 SWAP1 SHL AND DUP2 MSTORE PUSH1 0x1 PUSH1 0x1 PUSH1 0xA0 SHL SUB SWAP1 SWAP3 AND PUSH1 0x4 DUP4 ADD MSTORE PUSH1 0x24 DUP3 ADD MSTORE PUSH1 0x44 ADD PUSH1 0x20 PUSH1 0x40 MLOAD DUP1 DUP4 SUB DUP2 PUSH1 0x0 DUP8 GAS CALL ISZERO DUP1 ISZERO PUSH2 0xBD4 JUMPI RETURNDATASIZE PUSH1 0x0 DUP1 RETURNDATACOPY RETURNDATASIZE PUSH1 0x0 REVERT JUMPDEST POP POP POP POP PUSH1 0x40 MLOAD RETURNDATASIZE PUSH1 0x1F NOT PUSH1 0x1F DUP3 ADD AND DUP3 ADD DUP1 PUSH1 0x40 MSTORE POP DUP2 ADD SWAP1 PUSH2 0xBF8 SWAP2 SWAP1 PUSH2 0x1BDD JUMP JUMPDEST POP JUMP JUMPDEST PUSH32 0x0 PUSH1 0x1 PUSH1 0x1 PUSH1 0xA0 SHL SUB AND PUSH4 0x46A8A015 PUSH1 0x40 MLOAD DUP2 PUSH4 0xFFFFFFFF AND PUSH1 0xE0 SHL DUP2 MSTORE PUSH1 0x4 ADD PUSH1 0x20 PUSH1 0x40 MLOAD DUP1 DUP4 SUB DUP2 DUP7 GAS STATICCALL ISZERO DUP1 ISZERO PUSH2 0xC59 JUMPI RETURNDATASIZE PUSH1 0x0 DUP1 RETURNDATACOPY RETURNDATASIZE PUSH1 0x0 REVERT JUMPDEST POP POP POP POP PUSH1 0x40 MLOAD RETURNDATASIZE PUSH1 0x1F NOT PUSH1 0x1F DUP3 ADD AND DUP3 ADD DUP1 PUSH1 0x40 MSTORE POP DUP2 ADD SWAP1 PUSH2 0xC7D SWAP2 SWAP1 PUSH2 0x19F0 JUMP JUMPDEST CALLVALUE LT ISZERO PUSH2 0xCD1 JUMPI PUSH1 0x40 MLOAD PUSH3 0x461BCD PUSH1 0xE5 SHL DUP2 MSTORE PUSH1 0x20 PUSH1 0x4 DUP3 ADD MSTORE PUSH1 0x1F PUSH1 0x24 DUP3 ADD MSTORE PUSH32 0x4D7573742073656E64203520796561727320776F727468206F66206761732100 PUSH1 0x44 DUP3 ADD MSTORE PUSH1 0x64 ADD JUMPDEST PUSH1 0x40 MLOAD DUP1 SWAP2 SUB SWAP1 REVERT JUMPDEST PUSH32 0x0 PUSH1 0x1 PUSH1 0x1 PUSH1 0xA0 SHL SUB AND PUSH4 0xD2ADBE79 PUSH1 0x40 MLOAD DUP2 PUSH4 0xFFFFFFFF AND PUSH1 0xE0 SHL DUP2 MSTORE PUSH1 0x4 ADD PUSH1 0x20 PUSH1 0x40 MLOAD DUP1 DUP4 SUB DUP2 DUP7 GAS STATICCALL ISZERO DUP1 ISZERO PUSH2 0xD2F JUMPI RETURNDATASIZE PUSH1 0x0 DUP1 RETURNDATACOPY RETURNDATASIZE PUSH1 0x0 REVERT JUMPDEST POP POP POP POP PUSH1 0x40 MLOAD RETURNDATASIZE PUSH1 0x1F NOT PUSH1 0x1F DUP3 ADD AND DUP3 ADD DUP1 PUSH1 0x40 MSTORE POP DUP2 ADD SWAP1 PUSH2 0xD53 SWAP2 SWAP1 PUSH2 0x19F0 JUMP JUMPDEST DUP3 LT PUSH2 0xDA1 JUMPI PUSH1 0x40 MLOAD PUSH3 0x461BCD PUSH1 0xE5 SHL DUP2 MSTORE PUSH1 0x20 PUSH1 0x4 DUP3 ADD MSTORE PUSH1 0x1C PUSH1 0x24 DUP3 ADD MSTORE PUSH32 0x546869732070726F66696C6520646F6573206E6F742065786973742100000000 PUSH1 0x44 DUP3 ADD MSTORE PUSH1 0x64 ADD PUSH2 0xCC8 JUMP JUMPDEST PUSH1 0x40 MLOAD PUSH4 0x28F513D7 PUSH1 0xE1 SHL DUP2 MSTORE PUSH1 0x4 DUP2 ADD DUP4 SWAP1 MSTORE PUSH1 0x24 DUP2 ADD DUP3 SWAP1 MSTORE CALLER PUSH1 0x44 DUP3 ADD MSTORE PUSH32 0x0 PUSH1 0x1 PUSH1 0x1 PUSH1 0xA0 SHL SUB AND SWAP1 PUSH4 0x51EA27AE SWAP1 PUSH1 0x64 ADD PUSH1 0x20 PUSH1 0x40 MLOAD DUP1 DUP4 SUB DUP2 DUP7 GAS STATICCALL ISZERO DUP1 ISZERO PUSH2 0xE13 JUMPI RETURNDATASIZE PUSH1 0x0 DUP1 RETURNDATACOPY RETURNDATASIZE PUSH1 0x0 REVERT JUMPDEST POP POP POP POP PUSH1 0x40 MLOAD RETURNDATASIZE PUSH1 0x1F NOT PUSH1 0x1F DUP3 ADD AND DUP3 ADD DUP1 PUSH1 0x40 MSTORE POP DUP2 ADD SWAP1 PUSH2 0xE37 SWAP2 SWAP1 PUSH2 0x1BDD JUMP JUMPDEST ISZERO PUSH2 0xE41 JUMPI PUSH1 0x0 DUP1 REVERT JUMPDEST PUSH1 0x40 MLOAD PUSH4 0x5E707483 PUSH1 0xE0 SHL DUP2 MSTORE PUSH1 0x4 DUP2 ADD DUP4 SWAP1 MSTORE PUSH1 0x24 DUP2 ADD DUP3 SWAP1 MSTORE CALLER PUSH1 0x44 DUP3 ADD MSTORE PUSH1 0x1 PUSH1 0x1 PUSH1 0xA0 SHL SUB PUSH32 0x0 DUP2 AND PUSH1 0x64 DUP4 ADD MSTORE PUSH32 0x0 AND SWAP1 PUSH4 0x5E707483 SWAP1 PUSH1 0x84 ADD PUSH1 0x0 PUSH1 0x40 MLOAD DUP1 DUP4 SUB DUP2 PUSH1 0x0 DUP8 DUP1 EXTCODESIZE ISZERO DUP1 ISZERO PUSH2 0xED8 JUMPI PUSH1 0x0 DUP1 REVERT JUMPDEST POP GAS CALL ISZERO DUP1 ISZERO PUSH2 0xEEC JUMPI RETURNDATASIZE PUSH1 0x0 DUP1 RETURNDATACOPY RETURNDATASIZE PUSH1 0x0 REVERT JUMPDEST POP POP PUSH1 0x40 MLOAD PUSH4 0x76BA5101 PUSH1 0xE1 SHL DUP2 MSTORE PUSH1 0x4 DUP2 ADD DUP6 SWAP1 MSTORE PUSH1 0x0 SWAP3 POP PUSH32 0x0 PUSH1 0x1 PUSH1 0x1 PUSH1 0xA0 SHL SUB AND SWAP2 POP PUSH4 0xED74A202 SWAP1 PUSH1 0x24 ADD PUSH1 0x40 DUP1 MLOAD DUP1 DUP4 SUB DUP2 DUP7 GAS STATICCALL ISZERO DUP1 ISZERO PUSH2 0xF57 JUMPI RETURNDATASIZE PUSH1 0x0 DUP1 RETURNDATACOPY RETURNDATASIZE PUSH1 0x0 REVERT JUMPDEST POP POP POP POP PUSH1 0x40 MLOAD RETURNDATASIZE PUSH1 0x1F NOT PUSH1 0x1F DUP3 ADD AND DUP3 ADD DUP1 PUSH1 0x40 MSTORE POP DUP2 ADD SWAP1 PUSH2 0xF7B SWAP2 SWAP1 PUSH2 0x19CC JUMP JUMPDEST POP PUSH1 0x40 MLOAD PUSH4 0x47B5C681 PUSH1 0xE1 SHL DUP2 MSTORE PUSH1 0x4 DUP2 ADD DUP6 SWAP1 MSTORE PUSH1 0x24 DUP2 ADD DUP3 SWAP1 MSTORE PUSH1 0x44 DUP2 ADD DUP5 SWAP1 MSTORE PUSH1 0x1 PUSH1 0x1 PUSH1 0xA0 SHL SUB PUSH32 0x0 DUP2 AND PUSH1 0x64 DUP4 ADD MSTORE SWAP2 SWAP3 POP PUSH1 0x0 SWAP2 PUSH32 0x0 AND SWAP1 PUSH4 0x8F6B8D02 SWAP1 PUSH1 0x84 ADD PUSH1 0x20 PUSH1 0x40 MLOAD DUP1 DUP4 SUB DUP2 DUP7 GAS STATICCALL ISZERO DUP1 ISZERO PUSH2 0x101D JUMPI RETURNDATASIZE PUSH1 0x0 DUP1 RETURNDATACOPY RETURNDATASIZE PUSH1 0x0 REVERT JUMPDEST POP POP POP POP PUSH1 0x40 MLOAD RETURNDATASIZE PUSH1 0x1F NOT PUSH1 0x1F DUP3 ADD AND DUP3 ADD DUP1 PUSH1 0x40 MSTORE POP DUP2 ADD SWAP1 PUSH2 0x1041 SWAP2 SWAP1 PUSH2 0x19F0 JUMP JUMPDEST SWAP1 POP PUSH2 0x104E DUP2 PUSH1 0x3C PUSH2 0x1B2F JUMP JUMPDEST PUSH1 0x40 MLOAD PUSH4 0x6EB1769F PUSH1 0xE1 SHL DUP2 MSTORE CALLER PUSH1 0x4 DUP3 ADD MSTORE ADDRESS PUSH1 0x24 DUP3 ADD MSTORE PUSH32 0x0 PUSH1 0x1 PUSH1 0x1 PUSH1 0xA0 SHL SUB AND SWAP1 PUSH4 0xDD62ED3E SWAP1 PUSH1 0x44 ADD PUSH1 0x20 PUSH1 0x40 MLOAD DUP1 DUP4 SUB DUP2 DUP7 GAS STATICCALL ISZERO DUP1 ISZERO PUSH2 0x10B8 JUMPI RETURNDATASIZE PUSH1 0x0 DUP1 RETURNDATACOPY RETURNDATASIZE PUSH1 0x0 REVERT JUMPDEST POP POP POP POP PUSH1 0x40 MLOAD RETURNDATASIZE PUSH1 0x1F NOT PUSH1 0x1F DUP3 ADD AND DUP3 ADD DUP1 PUSH1 0x40 MSTORE POP DUP2 ADD SWAP1 PUSH2 0x10DC SWAP2 SWAP1 PUSH2 0x19F0 JUMP JUMPDEST LT ISZERO PUSH2 0x1134 JUMPI PUSH1 0x40 MLOAD PUSH3 0x461BCD PUSH1 0xE5 SHL DUP2 MSTORE PUSH1 0x20 PUSH1 0x4 DUP3 ADD MSTORE PUSH1 0x21 PUSH1 0x24 DUP3 ADD MSTORE PUSH32 0x4D75737420617070726F76652035207965617273206F66207370656E64696E67 PUSH1 0x44 DUP3 ADD MSTORE PUSH1 0x21 PUSH1 0xF8 SHL PUSH1 0x64 DUP3 ADD MSTORE PUSH1 0x84 ADD PUSH2 0xCC8 JUMP JUMPDEST PUSH1 0x1 SLOAD PUSH1 0x0 DUP6 DUP2 MSTORE PUSH1 0x2 PUSH1 0x20 SWAP1 DUP2 MSTORE PUSH1 0x40 DUP1 DUP4 KECCAK256 DUP8 DUP5 MSTORE DUP3 MSTORE DUP1 DUP4 KECCAK256 CALLER DUP5 MSTORE SWAP1 SWAP2 MSTORE DUP2 KECCAK256 SLOAD SWAP1 SUB PUSH2 0x11A9 JUMPI PUSH1 0x1 DUP1 SLOAD PUSH2 0x116C SWAP2 PUSH2 0x1ADC JUMP JUMPDEST PUSH1 0x0 DUP7 DUP2 MSTORE PUSH1 0x2 PUSH1 0x20 SWAP1 DUP2 MSTORE PUSH1 0x40 DUP1 DUP4 KECCAK256 DUP9 DUP5 MSTORE DUP3 MSTORE DUP1 DUP4 KECCAK256 CALLER DUP5 MSTORE SWAP1 SWAP2 MSTORE DUP2 KECCAK256 SWAP2 SWAP1 SWAP2 SSTORE PUSH1 0x1 DUP1 SLOAD SWAP2 PUSH2 0x119F DUP4 PUSH2 0x1AF4 JUMP JUMPDEST SWAP2 SWAP1 POP SSTORE POP PUSH2 0x11DA JUMP JUMPDEST PUSH1 0x0 DUP6 DUP2 MSTORE PUSH1 0x2 PUSH1 0x20 SWAP1 DUP2 MSTORE PUSH1 0x40 DUP1 DUP4 KECCAK256 DUP8 DUP5 MSTORE DUP3 MSTORE DUP1 DUP4 KECCAK256 CALLER DUP5 MSTORE SWAP1 SWAP2 MSTORE SWAP1 KECCAK256 SLOAD PUSH2 0x11D7 SWAP1 PUSH1 0x1 SWAP1 PUSH2 0x1B4E JUMP JUMPDEST SWAP1 POP JUMPDEST PUSH1 0x40 MLOAD DUP1 PUSH1 0xC0 ADD PUSH1 0x40 MSTORE DUP1 DUP7 DUP2 MSTORE PUSH1 0x20 ADD DUP6 DUP2 MSTORE PUSH1 0x20 ADD CALLER PUSH1 0x1 PUSH1 0x1 PUSH1 0xA0 SHL SUB AND DUP2 MSTORE PUSH1 0x20 ADD DUP4 DUP2 MSTORE PUSH1 0x20 ADD TIMESTAMP PUSH3 0x278D00 PUSH2 0x1215 SWAP2 SWAP1 PUSH2 0x1ADC JUMP JUMPDEST DUP2 MSTORE PUSH1 0x0 PUSH1 0x20 SWAP2 DUP3 ADD DUP2 SWAP1 MSTORE DUP4 DUP2 MSTORE DUP1 DUP3 MSTORE PUSH1 0x40 DUP1 DUP3 KECCAK256 DUP5 MLOAD DUP2 SSTORE SWAP3 DUP5 ADD MLOAD PUSH1 0x1 DUP5 ADD SSTORE DUP4 DUP2 ADD MLOAD PUSH1 0x2 DUP5 ADD DUP1 SLOAD PUSH1 0x1 PUSH1 0x1 PUSH1 0xA0 SHL SUB NOT AND PUSH1 0x1 PUSH1 0x1 PUSH1 0xA0 SHL SUB SWAP3 DUP4 AND OR SWAP1 SSTORE PUSH1 0x60 DUP6 ADD MLOAD PUSH1 0x3 DUP6 ADD SSTORE PUSH1 0x80 DUP6 ADD MLOAD PUSH1 0x4 DUP1 DUP7 ADD SWAP2 SWAP1 SWAP2 SSTORE PUSH1 0xA0 SWAP1 SWAP6 ADD MLOAD PUSH1 0x5 SWAP1 SWAP5 ADD DUP1 SLOAD PUSH1 0xFF NOT AND SWAP5 ISZERO ISZERO SWAP5 SWAP1 SWAP5 OR SWAP1 SWAP4 SSTORE MLOAD PUSH4 0x3C23D3D9 PUSH1 0xE2 SHL DUP2 MSTORE SWAP3 DUP4 ADD DUP9 SWAP1 MSTORE SWAP2 PUSH32 0x0 SWAP1 SWAP2 AND SWAP1 PUSH4 0xF08F4F64 SWAP1 PUSH1 0x24 ADD PUSH1 0x0 PUSH1 0x40 MLOAD DUP1 DUP4 SUB DUP2 DUP7 GAS STATICCALL ISZERO DUP1 ISZERO PUSH2 0x12EB JUMPI RETURNDATASIZE PUSH1 0x0 DUP1 RETURNDATACOPY RETURNDATASIZE PUSH1 0x0 REVERT JUMPDEST POP POP POP POP PUSH1 0x40 MLOAD RETURNDATASIZE PUSH1 0x0 DUP3 RETURNDATACOPY PUSH1 0x1F RETURNDATASIZE SWAP1 DUP2 ADD PUSH1 0x1F NOT AND DUP3 ADD PUSH1 0x40 MSTORE PUSH2 0x1313 SWAP2 SWAP1 DUP2 ADD SWAP1 PUSH2 0x1A09 JUMP JUMPDEST POP PUSH1 0x40 MLOAD PUSH4 0x76BA5101 PUSH1 0xE1 SHL DUP2 MSTORE PUSH1 0x4 DUP2 ADD DUP10 SWAP1 MSTORE SWAP1 SWAP3 POP PUSH1 0x0 SWAP2 POP PUSH1 0x1 PUSH1 0x1 PUSH1 0xA0 SHL SUB PUSH32 0x0 AND SWAP1 PUSH4 0xED74A202 SWAP1 PUSH1 0x24 ADD PUSH1 0x40 DUP1 MLOAD DUP1 DUP4 SUB DUP2 DUP7 GAS STATICCALL ISZERO DUP1 ISZERO PUSH2 0x137F JUMPI RETURNDATASIZE PUSH1 0x0 DUP1 RETURNDATACOPY RETURNDATASIZE PUSH1 0x0 REVERT JUMPDEST POP POP POP POP PUSH1 0x40 MLOAD RETURNDATASIZE PUSH1 0x1F NOT PUSH1 0x1F DUP3 ADD AND DUP3 ADD DUP1 PUSH1 0x40 MSTORE POP DUP2 ADD SWAP1 PUSH2 0x13A3 SWAP2 SWAP1 PUSH2 0x19CC JUMP JUMPDEST SWAP2 POP POP PUSH2 0x13B2 CALLER DUP4 DUP7 DUP5 PUSH2 0x14B7 JUMP JUMPDEST POP PUSH2 0x13BB PUSH2 0xA50 JUMP JUMPDEST PUSH1 0x40 DUP1 MLOAD DUP9 DUP2 MSTORE PUSH1 0x20 DUP2 ADD DUP9 SWAP1 MSTORE CALLER DUP2 DUP4 ADD MSTORE SWAP1 MLOAD PUSH32 0x719D57359948C2C6F2A923516C19ABA22B490E924879B674C1D6371BB6541F17 SWAP2 DUP2 SWAP1 SUB PUSH1 0x60 ADD SWAP1 LOG1 POP POP POP POP POP POP POP JUMP JUMPDEST PUSH1 0x0 DUP1 PUSH1 0x0 DUP1 PUSH2 0x1414 DUP8 DUP8 DUP8 PUSH2 0x1444 JUMP JUMPDEST PUSH1 0x0 SWAP1 DUP2 MSTORE PUSH1 0x20 DUP2 SWAP1 MSTORE PUSH1 0x40 SWAP1 KECCAK256 PUSH1 0x3 DUP2 ADD SLOAD PUSH1 0x4 DUP3 ADD SLOAD PUSH1 0x5 SWAP1 SWAP3 ADD SLOAD SWAP1 SWAP10 SWAP2 SWAP9 POP PUSH1 0xFF AND SWAP7 POP SWAP5 POP POP POP POP POP JUMP JUMPDEST PUSH1 0x0 DUP4 DUP2 MSTORE PUSH1 0x2 PUSH1 0x20 SWAP1 DUP2 MSTORE PUSH1 0x40 DUP1 DUP4 KECCAK256 DUP6 DUP5 MSTORE DUP3 MSTORE DUP1 DUP4 KECCAK256 PUSH1 0x1 PUSH1 0x1 PUSH1 0xA0 SHL SUB DUP6 AND DUP5 MSTORE SWAP1 SWAP2 MSTORE DUP2 KECCAK256 SLOAD PUSH2 0x1478 JUMPI PUSH1 0x0 DUP1 REVERT JUMPDEST PUSH1 0x0 DUP5 DUP2 MSTORE PUSH1 0x2 PUSH1 0x20 SWAP1 DUP2 MSTORE PUSH1 0x40 DUP1 DUP4 KECCAK256 DUP7 DUP5 MSTORE DUP3 MSTORE DUP1 DUP4 KECCAK256 PUSH1 0x1 PUSH1 0x1 PUSH1 0xA0 SHL SUB DUP7 AND DUP5 MSTORE SWAP1 SWAP2 MSTORE SWAP1 KECCAK256 SLOAD PUSH2 0x14AF SWAP1 PUSH1 0x1 SWAP1 PUSH2 0x1B4E JUMP JUMPDEST SWAP5 SWAP4 POP POP POP POP JUMP JUMPDEST PUSH1 0x40 MLOAD PUSH4 0x6EB1769F PUSH1 0xE1 SHL DUP2 MSTORE PUSH1 0x1 PUSH1 0x1 PUSH1 0xA0 SHL SUB DUP6 DUP2 AND PUSH1 0x4 DUP4 ADD MSTORE ADDRESS PUSH1 0x24 DUP4 ADD MSTORE PUSH1 0x0 SWAP2 DUP5 SWAP2 PUSH32 0x0 AND SWAP1 PUSH4 0xDD62ED3E SWAP1 PUSH1 0x44 ADD PUSH1 0x20 PUSH1 0x40 MLOAD DUP1 DUP4 SUB DUP2 DUP7 GAS STATICCALL ISZERO DUP1 ISZERO PUSH2 0x1528 JUMPI RETURNDATASIZE PUSH1 0x0 DUP1 RETURNDATACOPY RETURNDATASIZE PUSH1 0x0 REVERT JUMPDEST POP POP POP POP PUSH1 0x40 MLOAD RETURNDATASIZE PUSH1 0x1F NOT PUSH1 0x1F DUP3 ADD AND DUP3 ADD DUP1 PUSH1 0x40 MSTORE POP DUP2 ADD SWAP1 PUSH2 0x154C SWAP2 SWAP1 PUSH2 0x19F0 JUMP JUMPDEST LT ISZERO DUP1 ISZERO PUSH2 0x15E6 JUMPI POP PUSH1 0x40 MLOAD PUSH4 0x70A08231 PUSH1 0xE0 SHL DUP2 MSTORE PUSH1 0x1 PUSH1 0x1 PUSH1 0xA0 SHL SUB DUP7 DUP2 AND PUSH1 0x4 DUP4 ADD MSTORE DUP5 SWAP2 PUSH32 0x0 SWAP1 SWAP2 AND SWAP1 PUSH4 0x70A08231 SWAP1 PUSH1 0x24 ADD PUSH1 0x20 PUSH1 0x40 MLOAD DUP1 DUP4 SUB DUP2 DUP7 GAS STATICCALL ISZERO DUP1 ISZERO PUSH2 0x15BF JUMPI RETURNDATASIZE PUSH1 0x0 DUP1 RETURNDATACOPY RETURNDATASIZE PUSH1 0x0 REVERT JUMPDEST POP POP POP POP PUSH1 0x40 MLOAD RETURNDATASIZE PUSH1 0x1F NOT PUSH1 0x1F DUP3 ADD AND DUP3 ADD DUP1 PUSH1 0x40 MSTORE POP DUP2 ADD SWAP1 PUSH2 0x15E3 SWAP2 SWAP1 PUSH2 0x19F0 JUMP JUMPDEST LT ISZERO JUMPDEST ISZERO PUSH2 0x174E JUMPI PUSH1 0x40 MLOAD PUSH4 0x23B872DD PUSH1 0xE0 SHL DUP2 MSTORE PUSH1 0x1 PUSH1 0x1 PUSH1 0xA0 SHL SUB DUP7 DUP2 AND PUSH1 0x4 DUP4 ADD MSTORE ADDRESS PUSH1 0x24 DUP4 ADD MSTORE PUSH1 0x44 DUP3 ADD DUP6 SWAP1 MSTORE PUSH32 0x0 AND SWAP1 PUSH4 0x23B872DD SWAP1 PUSH1 0x64 ADD PUSH1 0x20 PUSH1 0x40 MLOAD DUP1 DUP4 SUB DUP2 PUSH1 0x0 DUP8 GAS CALL ISZERO DUP1 ISZERO PUSH2 0x1660 JUMPI RETURNDATASIZE PUSH1 0x0 DUP1 RETURNDATACOPY RETURNDATASIZE PUSH1 0x0 REVERT JUMPDEST POP POP POP POP PUSH1 0x40 MLOAD RETURNDATASIZE PUSH1 0x1F NOT PUSH1 0x1F DUP3 ADD AND DUP3 ADD DUP1 PUSH1 0x40 MSTORE POP DUP2 ADD SWAP1 PUSH2 0x1684 SWAP2 SWAP1 PUSH2 0x1BDD JUMP JUMPDEST POP PUSH1 0x1 PUSH1 0x1 PUSH1 0xA0 SHL SUB PUSH32 0x0 AND PUSH4 0xA9059CBB DUP6 PUSH1 0x64 PUSH2 0x16C1 DUP7 DUP3 PUSH2 0x1B4E JUMP JUMPDEST PUSH2 0x16CB SWAP1 DUP9 PUSH2 0x1B2F JUMP JUMPDEST PUSH2 0x16D5 SWAP2 SWAP1 PUSH2 0x1B0D JUMP JUMPDEST PUSH1 0x40 MLOAD PUSH1 0x1 PUSH1 0x1 PUSH1 0xE0 SHL SUB NOT PUSH1 0xE0 DUP6 SWAP1 SHL AND DUP2 MSTORE PUSH1 0x1 PUSH1 0x1 PUSH1 0xA0 SHL SUB SWAP1 SWAP3 AND PUSH1 0x4 DUP4 ADD MSTORE PUSH1 0x24 DUP3 ADD MSTORE PUSH1 0x44 ADD PUSH1 0x20 PUSH1 0x40 MLOAD DUP1 DUP4 SUB DUP2 PUSH1 0x0 DUP8 GAS CALL ISZERO DUP1 ISZERO PUSH2 0x1720 JUMPI RETURNDATASIZE PUSH1 0x0 DUP1 RETURNDATACOPY RETURNDATASIZE PUSH1 0x0 REVERT JUMPDEST POP POP POP POP PUSH1 0x40 MLOAD RETURNDATASIZE PUSH1 0x1F NOT PUSH1 0x1F DUP3 ADD AND DUP3 ADD DUP1 PUSH1 0x40 MSTORE POP DUP2 ADD SWAP1 PUSH2 0x1744 SWAP2 SWAP1 PUSH2 0x1BDD JUMP JUMPDEST POP PUSH1 0x1 SWAP1 POP PUSH2 0x14AF JUMP JUMPDEST POP PUSH1 0x0 SWAP5 SWAP4 POP POP POP POP JUMP JUMPDEST PUSH1 0x0 DUP1 PUSH1 0x40 DUP4 DUP6 SUB SLT ISZERO PUSH2 0x176C JUMPI PUSH1 0x0 DUP1 REVERT JUMPDEST POP POP DUP1 CALLDATALOAD SWAP3 PUSH1 0x20 SWAP1 SWAP2 ADD CALLDATALOAD SWAP2 POP JUMP JUMPDEST PUSH1 0x0 DUP1 PUSH1 0x20 DUP4 DUP6 SUB SLT ISZERO PUSH2 0x178E JUMPI PUSH1 0x0 DUP1 REVERT JUMPDEST DUP3 CALLDATALOAD PUSH8 0xFFFFFFFFFFFFFFFF DUP1 DUP3 GT ISZERO PUSH2 0x17A6 JUMPI PUSH1 0x0 DUP1 REVERT JUMPDEST DUP2 DUP6 ADD SWAP2 POP DUP6 PUSH1 0x1F DUP4 ADD SLT PUSH2 0x17BA JUMPI PUSH1 0x0 DUP1 REVERT JUMPDEST DUP2 CALLDATALOAD DUP2 DUP2 GT ISZERO PUSH2 0x17C9 JUMPI PUSH1 0x0 DUP1 REVERT JUMPDEST DUP7 PUSH1 0x20 DUP3 DUP6 ADD ADD GT ISZERO PUSH2 0x17DB JUMPI PUSH1 0x0 DUP1 REVERT JUMPDEST PUSH1 0x20 SWAP3 SWAP1 SWAP3 ADD SWAP7 SWAP2 SWAP6 POP SWAP1 SWAP4 POP POP POP POP JUMP JUMPDEST PUSH1 0x0 JUMPDEST DUP4 DUP2 LT ISZERO PUSH2 0x1808 JUMPI DUP2 DUP2 ADD MLOAD DUP4 DUP3 ADD MSTORE PUSH1 0x20 ADD PUSH2 0x17F0 JUMP JUMPDEST DUP4 DUP2 GT ISZERO PUSH2 0x1817 JUMPI PUSH1 0x0 DUP5 DUP5 ADD MSTORE JUMPDEST POP POP POP POP JUMP JUMPDEST DUP3 ISZERO ISZERO DUP2 MSTORE PUSH1 0x40 PUSH1 0x20 DUP3 ADD MSTORE PUSH1 0x0 DUP3 MLOAD DUP1 PUSH1 0x40 DUP5 ADD MSTORE PUSH2 0x1844 DUP2 PUSH1 0x60 DUP6 ADD PUSH1 0x20 DUP8 ADD PUSH2 0x17ED JUMP JUMPDEST PUSH1 0x1F ADD PUSH1 0x1F NOT AND SWAP2 SWAP1 SWAP2 ADD PUSH1 0x60 ADD SWAP4 SWAP3 POP POP POP JUMP JUMPDEST PUSH1 0x1 PUSH1 0x1 PUSH1 0xA0 SHL SUB DUP2 AND DUP2 EQ PUSH2 0xBF8 JUMPI PUSH1 0x0 DUP1 REVERT JUMPDEST PUSH1 0x0 DUP1 PUSH1 0x0 PUSH1 0x60 DUP5 DUP7 SUB SLT ISZERO PUSH2 0x1883 JUMPI PUSH1 0x0 DUP1 REVERT JUMPDEST DUP4 CALLDATALOAD SWAP3 POP PUSH1 0x20 DUP5 ADD CALLDATALOAD SWAP2 POP PUSH1 0x40 DUP5 ADD CALLDATALOAD PUSH2 0x189C DUP2 PUSH2 0x1859 JUMP JUMPDEST DUP1 SWAP2 POP POP SWAP3 POP SWAP3 POP SWAP3 JUMP JUMPDEST PUSH4 0x4E487B71 PUSH1 0xE0 SHL PUSH1 0x0 MSTORE PUSH1 0x41 PUSH1 0x4 MSTORE PUSH1 0x24 PUSH1 0x0 REVERT JUMPDEST PUSH1 0x40 MLOAD PUSH1 0x1F DUP3 ADD PUSH1 0x1F NOT AND DUP2 ADD PUSH8 0xFFFFFFFFFFFFFFFF DUP2 GT DUP3 DUP3 LT OR ISZERO PUSH2 0x18E6 JUMPI PUSH2 0x18E6 PUSH2 0x18A7 JUMP JUMPDEST PUSH1 0x40 MSTORE SWAP2 SWAP1 POP JUMP JUMPDEST DUP1 CALLDATALOAD PUSH2 0x18F9 DUP2 PUSH2 0x1859 JUMP JUMPDEST SWAP2 SWAP1 POP JUMP JUMPDEST PUSH1 0x0 DUP1 PUSH1 0x40 DUP4 DUP6 SUB SLT ISZERO PUSH2 0x1911 JUMPI PUSH1 0x0 DUP1 REVERT JUMPDEST DUP3 CALLDATALOAD PUSH8 0xFFFFFFFFFFFFFFFF DUP1 DUP3 GT ISZERO PUSH2 0x1929 JUMPI PUSH1 0x0 DUP1 REVERT JUMPDEST DUP2 DUP6 ADD SWAP2 POP DUP6 PUSH1 0x1F DUP4 ADD SLT PUSH2 0x193D JUMPI PUSH1 0x0 DUP1 REVERT JUMPDEST DUP2 CALLDATALOAD PUSH1 0x20 DUP3 DUP3 GT ISZERO PUSH2 0x1951 JUMPI PUSH2 0x1951 PUSH2 0x18A7 JUMP JUMPDEST DUP2 PUSH1 0x5 SHL SWAP3 POP PUSH2 0x1962 DUP2 DUP5 ADD PUSH2 0x18BD JUMP JUMPDEST DUP3 DUP2 MSTORE SWAP3 DUP5 ADD DUP2 ADD SWAP3 DUP2 DUP2 ADD SWAP1 DUP10 DUP6 GT ISZERO PUSH2 0x197C JUMPI PUSH1 0x0 DUP1 REVERT JUMPDEST SWAP5 DUP3 ADD SWAP5 JUMPDEST DUP5 DUP7 LT ISZERO PUSH2 0x199A JUMPI DUP6 CALLDATALOAD DUP3 MSTORE SWAP5 DUP3 ADD SWAP5 SWAP1 DUP3 ADD SWAP1 PUSH2 0x1981 JUMP JUMPDEST SWAP7 POP PUSH2 0x19A9 SWAP1 POP DUP8 DUP3 ADD PUSH2 0x18EE JUMP JUMPDEST SWAP5 POP POP POP POP POP SWAP3 POP SWAP3 SWAP1 POP JUMP JUMPDEST PUSH4 0x4E487B71 PUSH1 0xE0 SHL PUSH1 0x0 MSTORE PUSH1 0x32 PUSH1 0x4 MSTORE PUSH1 0x24 PUSH1 0x0 REVERT JUMPDEST PUSH1 0x0 DUP1 PUSH1 0x40 DUP4 DUP6 SUB SLT ISZERO PUSH2 0x19DF JUMPI PUSH1 0x0 DUP1 REVERT JUMPDEST POP POP DUP1 MLOAD PUSH1 0x20 SWAP1 SWAP2 ADD MLOAD SWAP1 SWAP3 SWAP1 SWAP2 POP JUMP JUMPDEST PUSH1 0x0 PUSH1 0x20 DUP3 DUP5 SUB SLT ISZERO PUSH2 0x1A02 JUMPI PUSH1 0x0 DUP1 REVERT JUMPDEST POP MLOAD SWAP2 SWAP1 POP JUMP JUMPDEST PUSH1 0x0 DUP1 PUSH1 0x0 PUSH1 0x60 DUP5 DUP7 SUB SLT ISZERO PUSH2 0x1A1E JUMPI PUSH1 0x0 DUP1 REVERT JUMPDEST DUP4 MLOAD PUSH2 0x1A29 DUP2 PUSH2 0x1859 JUMP JUMPDEST PUSH1 0x20 DUP6 ADD MLOAD SWAP1 SWAP4 POP PUSH2 0x1A3A DUP2 PUSH2 0x1859 JUMP JUMPDEST PUSH1 0x40 DUP6 ADD MLOAD SWAP1 SWAP3 POP PUSH8 0xFFFFFFFFFFFFFFFF DUP1 DUP3 GT ISZERO PUSH2 0x1A58 JUMPI PUSH1 0x0 DUP1 REVERT JUMPDEST DUP2 DUP7 ADD SWAP2 POP DUP7 PUSH1 0x1F DUP4 ADD SLT PUSH2 0x1A6C JUMPI PUSH1 0x0 DUP1 REVERT JUMPDEST DUP2 MLOAD DUP2 DUP2 GT ISZERO PUSH2 0x1A7E JUMPI PUSH2 0x1A7E PUSH2 0x18A7 JUMP JUMPDEST PUSH2 0x1A91 PUSH1 0x1F DUP3 ADD PUSH1 0x1F NOT AND PUSH1 0x20 ADD PUSH2 0x18BD JUMP JUMPDEST SWAP2 POP DUP1 DUP3 MSTORE DUP8 PUSH1 0x20 DUP3 DUP6 ADD ADD GT ISZERO PUSH2 0x1AA8 JUMPI PUSH1 0x0 DUP1 REVERT JUMPDEST PUSH2 0x1AB9 DUP2 PUSH1 0x20 DUP5 ADD PUSH1 0x20 DUP7 ADD PUSH2 0x17ED JUMP JUMPDEST POP DUP1 SWAP3 POP POP POP SWAP3 POP SWAP3 POP SWAP3 JUMP JUMPDEST PUSH4 0x4E487B71 PUSH1 0xE0 SHL PUSH1 0x0 MSTORE PUSH1 0x11 PUSH1 0x4 MSTORE PUSH1 0x24 PUSH1 0x0 REVERT JUMPDEST PUSH1 0x0 DUP3 NOT DUP3 GT ISZERO PUSH2 0x1AEF JUMPI PUSH2 0x1AEF PUSH2 0x1AC6 JUMP JUMPDEST POP ADD SWAP1 JUMP JUMPDEST PUSH1 0x0 PUSH1 0x1 DUP3 ADD PUSH2 0x1B06 JUMPI PUSH2 0x1B06 PUSH2 0x1AC6 JUMP JUMPDEST POP PUSH1 0x1 ADD SWAP1 JUMP JUMPDEST PUSH1 0x0 DUP3 PUSH2 0x1B2A JUMPI PUSH4 0x4E487B71 PUSH1 0xE0 SHL PUSH1 0x0 MSTORE PUSH1 0x12 PUSH1 0x4 MSTORE PUSH1 0x24 PUSH1 0x0 REVERT JUMPDEST POP DIV SWAP1 JUMP JUMPDEST PUSH1 0x0 DUP2 PUSH1 0x0 NOT DIV DUP4 GT DUP3 ISZERO ISZERO AND ISZERO PUSH2 0x1B49 JUMPI PUSH2 0x1B49 PUSH2 0x1AC6 JUMP JUMPDEST POP MUL SWAP1 JUMP JUMPDEST PUSH1 0x0 DUP3 DUP3 LT ISZERO PUSH2 0x1B60 JUMPI PUSH2 0x1B60 PUSH2 0x1AC6 JUMP JUMPDEST POP SUB SWAP1 JUMP JUMPDEST PUSH1 0x40 DUP1 DUP3 MSTORE DUP4 MLOAD SWAP1 DUP3 ADD DUP2 SWAP1 MSTORE PUSH1 0x0 SWAP1 PUSH1 0x20 SWAP1 PUSH1 0x60 DUP5 ADD SWAP1 DUP3 DUP8 ADD DUP5 JUMPDEST DUP3 DUP2 LT ISZERO PUSH2 0x1B9E JUMPI DUP2 MLOAD DUP5 MSTORE SWAP3 DUP5 ADD SWAP3 SWAP1 DUP5 ADD SWAP1 PUSH1 0x1 ADD PUSH2 0x1B82 JUMP JUMPDEST POP POP POP PUSH1 0x1 PUSH1 0x1 PUSH1 0xA0 SHL SUB SWAP5 SWAP1 SWAP5 AND SWAP3 ADD SWAP2 SWAP1 SWAP2 MSTORE POP SWAP2 SWAP1 POP JUMP JUMPDEST PUSH1 0x0 PUSH1 0x20 DUP3 DUP5 SUB SLT ISZERO PUSH2 0x1BCB JUMPI PUSH1 0x0 DUP1 REVERT JUMPDEST DUP2 MLOAD PUSH2 0x1BD6 DUP2 PUSH2 0x1859 JUMP JUMPDEST SWAP4 SWAP3 POP POP POP JUMP JUMPDEST PUSH1 0x0 PUSH1 0x20 DUP3 DUP5 SUB SLT ISZERO PUSH2 0x1BEF JUMPI PUSH1 0x0 DUP1 REVERT JUMPDEST DUP2 MLOAD DUP1 ISZERO ISZERO DUP2 EQ PUSH2 0x1BD6 JUMPI PUSH1 0x0 DUP1 REVERT INVALID LOG2 PUSH5 0x6970667358 0x22 SLT KECCAK256 PUSH20 0xFEF9DD5589738495DD71836B1431303975E60A2F 0xE PUSH5 0x1A3AEB66FF 0xAF PUSH29 0x608064736F6C634300080F0033A264697066735822122051FDD76D6382 0xF6 REVERT SDIV MULMOD DUP6 0xA9 0xAA 0xD3 DUP3 OR SWAP9 STATICCALL 0x2F 0xB7 SWAP1 0xD5 EQ 0xD5 0xC SWAP9 DUP10 0xF 0xDC 0xF6 0xAA 0x25 PUSH5 0x736F6C6343 STOP ADDMOD 0xF STOP CALLER ","sha1":"1f05d0d0a989b9653198c3658bf02935c3b27c6d","source":"// SPDX-License-Identifier: MIT\npragma solidity ^0.8.11;\n\nimport \"@openzeppelin/contracts/access/Ownable.sol\";\n\nimport \"./interfaces/IBBProfiles.sol\";\nimport \"./interfaces/IBBTiers.sol\";\nimport \"./interfaces/IBBSubscriptionsFactory.sol\";\nimport \"./interfaces/IBBSubscriptions.sol\";\nimport \"./interfaces/IBBPermissions.sol\";\nimport \"./BBSubscriptions.sol\";\n\ncontract BBSubscriptionsFactory is Ownable, IBBSubscriptionsFactory {\n    event DeployedSubscription(\n        address currency,\n        address deployedAddress\n    );\n\n    event NewSubscriptionProfile(\n        uint256 profileId,\n        uint256 tierSet,\n        uint256 contribution\n    );\n\n    event EditContribution(\n        uint256 profileId,\n        uint256 contribution\n    );\n\n    struct SubscriptionProfile {\n        uint256 tierSet;\n        uint256 contribution;\n    }\n\n    uint256 internal constant _contributionLower = 1;\n    uint256 internal constant _contributionUpper = 100;\n\n    uint256 internal constant _gracePeriod = 2 days;\n\n    uint256 internal _subscriptionGasRequirement = 100000000;\n\n    mapping(uint256 => SubscriptionProfile) internal _subscriptionProfiles;\n    mapping(uint256 => bool) internal _subscriptionProfilesCreated;\n    \n    mapping(address => address) internal _deployedSubscriptions;\n\n    mapping(uint256 => mapping(uint256 => mapping (address => address))) internal _subscriptionCurrency;\n\n    address internal _bbTreasury;\n\n    IBBProfiles internal immutable _bbProfiles;\n    IBBTiers internal immutable _bbTiers;\n\n    constructor(address bbProfiles, address bbTiers, address bbTreasury) {\n        _bbProfiles = IBBProfiles(bbProfiles);\n        _bbTiers = IBBTiers(bbTiers);\n\n        _bbTreasury = bbTreasury;\n    }\n\n    modifier profileExists(uint256 profileId) {\n        require(profileId < _bbProfiles.totalProfiles(), \"Profile does not exist\");\n        _;\n    }\n\n    modifier profileOwnerPermissions(uint256 profileId) {\n        (address profileOwner,,) = _bbProfiles.getProfile(profileId);\n        require(profileOwner == msg.sender, \"You are not the owner of this profile\");\n        _;\n    }\n\n    function deploySubscriptions(address currency) external override {\n        require(_deployedSubscriptions[currency] == address(0));\n\n        IBBSubscriptions subscriptions = new BBSubscriptions(address(_bbProfiles), address(_bbTiers), address(this), currency);\n\n        _deployedSubscriptions[currency] = address(subscriptions);\n\n        emit DeployedSubscription(currency, address(subscriptions));\n    }\n\n    function getDeployedSubscriptions(address currency) external view override returns (address) {\n        return _deployedSubscriptions[currency];\n    }\n\n    function setTreasury(address account) external override onlyOwner {\n        require(account != owner());\n        _bbTreasury = account;\n    }\n\n    function setSubscriptionGasRequirement(uint256 requirement) external override onlyOwner {\n        // Limit gas requirement to avoid exploit : 0.001 MATIC\n        require(requirement <= 10 ** 15);\n        _subscriptionGasRequirement = requirement;\n    }\n\n    function getBackedByTreasury() external view override returns (address) {\n        return _bbTreasury;\n    }\n\n    function getGracePeriod() external pure override returns (uint256) {\n        return _gracePeriod;\n    }\n    \n    function getContributionBounds() external pure override returns (uint256, uint256) {\n        return (_contributionLower, _contributionUpper);\n    }\n\n    function getSubscriptionGasRequirement() external view override returns (uint256) {\n        return _subscriptionGasRequirement;\n    }\n\n    function setSubscriptionCurrency(uint256 profileId, uint256 tierId, address account, address currency) external override {\n        require(msg.sender == _deployedSubscriptions[currency]);\n        _subscriptionCurrency[profileId][tierId][account] = currency;\n    }\n\n    function getSubscriptionCurrency(uint256 profileId, uint256 tierId, address account) external view override returns (address) {\n        return _subscriptionCurrency[profileId][tierId][account];\n    }\n\n    function createSubscriptionProfile(uint256 profileId, uint256 tierSet, uint256 contribution) external override profileExists(profileId) profileOwnerPermissions(profileId) {\n        require(tierSet < _bbTiers.totalTierSets(profileId));\n\n        _setContribution(profileId, contribution);\n        _subscriptionProfiles[profileId].tierSet = tierSet;\n\n        _subscriptionProfilesCreated[profileId] = true;\n\n        emit NewSubscriptionProfile(profileId, tierSet, contribution);\n    }\n\n    function getSubscriptionProfile(uint256 profileId) external view override returns (uint256, uint256) {\n        require(isSubscriptionProfileCreated(profileId));\n        return (_subscriptionProfiles[profileId].tierSet, _subscriptionProfiles[profileId].contribution);\n    }\n\n    function isSubscriptionProfileCreated(uint256 profileId) public view override profileExists(profileId) returns (bool) {\n        return _subscriptionProfilesCreated[profileId];\n    }\n\n    function setContribution(uint256 profileId, uint256 contribution) external override profileExists(profileId) profileOwnerPermissions(profileId){\n        _setContribution(profileId, contribution);\n        emit EditContribution(profileId, contribution);\n    }\n    \n    function _setContribution(uint256 profileId, uint256 contribution) internal {\n        require(contribution >= _contributionLower, \"Contribution is too low\");\n        require(contribution <= _contributionUpper, \"Contribution is too high\");\n\n        _subscriptionProfiles[profileId].contribution = contribution;\n    }\n\n    function isSubscriptionActive(uint256 profileId, uint256 tierId, address account) public view override profileExists(profileId) returns (bool) {\n        (address profileOwner,,) = _bbProfiles.getProfile(profileId);\n\n        if(profileOwner == account) {\n            return true;\n        }\n\n        if(profileOwner.code.length > 0) {\n            try IBBPermissions(profileOwner).canViewSubscription(account) returns (bool success) {\n                if(success)\n                    return success;\n            } catch { }\n        }\n\n        if(_subscriptionCurrency[profileId][tierId][account] == address(0)) {\n            return false;\n        }\n\n        IBBSubscriptions subscriptions = IBBSubscriptions(_deployedSubscriptions[_subscriptionCurrency[profileId][tierId][account]]);\n        (,uint256 expiration, bool cancelled) = subscriptions.getSubscription(profileId, tierId, account);\n\n        return block.timestamp < expiration + _gracePeriod && cancelled == false;\n    }\n}","sourcePath":"contracts/BBSubscriptionsFactory.sol","type":"contract","deployment":{"address":"0x53BFB8Da853A016fF3d0Bc124Ff8c64602c97317","chainid":"80001","blockHeight":27690531}}