{"abi":[{"anonymous":false,"inputs":[{"indexed":false,"internalType":"uint256","name":"profileId","type":"uint256"},{"indexed":false,"internalType":"address","name":"owner","type":"address"},{"indexed":false,"internalType":"address","name":"receiver","type":"address"},{"indexed":false,"internalType":"string","name":"cid","type":"string"}],"name":"EditProfile","type":"event"},{"anonymous":false,"inputs":[{"indexed":false,"internalType":"uint256","name":"profileId","type":"uint256"},{"indexed":false,"internalType":"address","name":"owner","type":"address"},{"indexed":false,"internalType":"address","name":"receiver","type":"address"},{"indexed":false,"internalType":"string","name":"cid","type":"string"}],"name":"NewProfile","type":"event"},{"inputs":[{"internalType":"address","name":"owner","type":"address"},{"internalType":"address","name":"receiver","type":"address"},{"internalType":"string","name":"cid","type":"string"}],"name":"createProfile","outputs":[],"stateMutability":"nonpayable","type":"function"},{"inputs":[{"internalType":"uint256","name":"profileId","type":"uint256"},{"internalType":"address","name":"owner","type":"address"},{"internalType":"address","name":"receiver","type":"address"},{"internalType":"string","name":"cid","type":"string"}],"name":"editProfile","outputs":[],"stateMutability":"nonpayable","type":"function"},{"inputs":[{"internalType":"address","name":"owner","type":"address"}],"name":"getOwnersProfiles","outputs":[{"internalType":"uint256[]","name":"","type":"uint256[]"}],"stateMutability":"view","type":"function"},{"inputs":[{"internalType":"uint256","name":"profileId","type":"uint256"}],"name":"getProfile","outputs":[{"internalType":"address","name":"","type":"address"},{"internalType":"address","name":"","type":"address"},{"internalType":"string","name":"","type":"string"}],"stateMutability":"view","type":"function"},{"inputs":[{"internalType":"uint256","name":"profileId","type":"uint256"},{"internalType":"address","name":"account","type":"address"}],"name":"isProfileOwner","outputs":[{"internalType":"bool","name":"","type":"bool"}],"stateMutability":"view","type":"function"},{"inputs":[{"internalType":"address","name":"owner","type":"address"}],"name":"ownersTotalProfiles","outputs":[{"internalType":"uint256","name":"","type":"uint256"}],"stateMutability":"view","type":"function"},{"inputs":[],"name":"totalProfiles","outputs":[{"internalType":"uint256","name":"","type":"uint256"}],"stateMutability":"view","type":"function"}],"bytecode":"608060405234801561001057600080fd5b50610cd9806100206000396000f3fe608060405234801561001057600080fd5b506004361061007d5760003560e01c80634cdacbd71161005b5780634cdacbd7146101015780638b3658b114610116578063d2adbe7914610129578063f08f4f641461013157600080fd5b80632b726b6a146100825780632df8184a146100aa5780633414a7af146100e1575b600080fd5b6100956100903660046107e5565b610153565b60405190151581526020015b60405180910390f35b6100d36100b8366004610811565b6001600160a01b031660009081526004602052604090205490565b6040519081526020016100a1565b6100f46100ef366004610811565b6101fb565b6040516100a19190610833565b61011461010f36600461091a565b6102db565b005b610114610124366004610982565b610546565b6001546100d3565b61014461013f3660046109e0565b6106dd565b6040516100a193929190610a46565b60008260015481106101805760405162461bcd60e51b815260040161017790610a7b565b60405180910390fd5b6001600160a01b03831660009081526003602090815260408083206002835281842088855280845282852054808652918452918420549388905291521480156101f357506001600160a01b0383166000908152600460209081526040808320546002835281842088855290925290912054105b949350505050565b6001600160a01b0381166000908152600460205260408120546060919067ffffffffffffffff81111561023057610230610877565b604051908082528060200260200182016040528015610259578160200160208202803683370190505b50905060005b6001600160a01b0384166000908152600460205260409020548110156102d4576001600160a01b038416600090815260026020908152604080832084845290915290205482518390839081106102b7576102b7610aab565b6020908102919091010152806102cc81610ad7565b91505061025f565b5092915050565b8360015481106102fd5760405162461bcd60e51b815260040161017790610a7b565b6000858152602081905260409020546001600160a01b031633146103715760405162461bcd60e51b815260206004820152602560248201527f596f7520617265206e6f7420746865206f776e6572206f6620746869732070726044820152646f66696c6560d81b6064820152608401610177565b336001600160a01b0385161461046e57336000818152600260209081526040808320600383528184208a855283528184205484528083528184205494845260049092528220549091906103c690600190610af0565b815260208082019290925260409081016000908120939093553380845260038352818420898552835281842084905583526004909152812080549161040a83610b07565b90915550506001600160a01b03841660008181526002602090815260408083206004808452828520805486529184528285208b90558585528154600385528386208c8752855292852083905594845293909152919061046883610ad7565b91905055505b604080516060810182526001600160a01b038087168252858116602080840191825283850187815260008b815291829052949020835181549084166001600160a01b0319918216178255915160018201805491909416921691909117909155915190919060028201906104e19082610ba7565b505050600085815260208190526040908190206001015490517f8ffd76d2c9bc923528f89f3a25419d388bb5d409e19d1b8a5ec8fda434ae68179161053791889188916001600160a01b03909116908790610c67565b60405180910390a15050505050565b6001600160a01b03831661059c5760405162461bcd60e51b815260206004820181905260248201527f4f776e65722063616e6e6f7420626520746865207a65726f20616464726573736044820152606401610177565b604080516060810182526001600160a01b03808616825284811660208084019182528385018681526001805460009081529283905295909120845181549085166001600160a01b031991821617825592519581018054969094169590921694909417909155915190919060028201906106159082610ba7565b50506001546001600160a01b038516600081815260026020908152604080832060048084528285208054865291845282852087905585855281546003855283862097865296845291842086905593835290529192509061067483610ad7565b90915550506001805490600061068983610ad7565b91905055507fe07a82fb082da6842de4d2ff9ec61981818d793022be8e22ae77cdff6aa1f1e6600180546106bd9190610af0565b8484846040516106d09493929190610c67565b60405180910390a1505050565b60008060608360015481106107045760405162461bcd60e51b815260040161017790610a7b565b600085815260208190526040902080546001820154600290920180546001600160a01b039283169390921691819061073b90610b1e565b80601f016020809104026020016040519081016040528092919081815260200182805461076790610b1e565b80156107b45780601f10610789576101008083540402835291602001916107b4565b820191906000526020600020905b81548152906001019060200180831161079757829003601f168201915b50505050509050935093509350509193909250565b80356001600160a01b03811681146107e057600080fd5b919050565b600080604083850312156107f857600080fd5b82359150610808602084016107c9565b90509250929050565b60006020828403121561082357600080fd5b61082c826107c9565b9392505050565b6020808252825182820181905260009190848201906040850190845b8181101561086b5783518352928401929184019160010161084f565b50909695505050505050565b634e487b7160e01b600052604160045260246000fd5b600082601f83011261089e57600080fd5b813567ffffffffffffffff808211156108b9576108b9610877565b604051601f8301601f19908116603f011681019082821181831017156108e1576108e1610877565b816040528381528660208588010111156108fa57600080fd5b836020870160208301376000602085830101528094505050505092915050565b6000806000806080858703121561093057600080fd5b84359350610940602086016107c9565b925061094e604086016107c9565b9150606085013567ffffffffffffffff81111561096a57600080fd5b6109768782880161088d565b91505092959194509250565b60008060006060848603121561099757600080fd5b6109a0846107c9565b92506109ae602085016107c9565b9150604084013567ffffffffffffffff8111156109ca57600080fd5b6109d68682870161088d565b9150509250925092565b6000602082840312156109f257600080fd5b5035919050565b6000815180845260005b81811015610a1f57602081850181015186830182015201610a03565b81811115610a31576000602083870101525b50601f01601f19169290920160200192915050565b6001600160a01b03848116825283166020820152606060408201819052600090610a72908301846109f9565b95945050505050565b602080825260169082015275141c9bd99a5b1948191bd95cc81b9bdd08195e1a5cdd60521b604082015260600190565b634e487b7160e01b600052603260045260246000fd5b634e487b7160e01b600052601160045260246000fd5b600060018201610ae957610ae9610ac1565b5060010190565b600082821015610b0257610b02610ac1565b500390565b600081610b1657610b16610ac1565b506000190190565b600181811c90821680610b3257607f821691505b602082108103610b5257634e487b7160e01b600052602260045260246000fd5b50919050565b601f821115610ba257600081815260208120601f850160051c81016020861015610b7f5750805b601f850160051c820191505b81811015610b9e57828155600101610b8b565b5050505b505050565b815167ffffffffffffffff811115610bc157610bc1610877565b610bd581610bcf8454610b1e565b84610b58565b602080601f831160018114610c0a5760008415610bf25750858301515b600019600386901b1c1916600185901b178555610b9e565b600085815260208120601f198616915b82811015610c3957888601518255948401946001909101908401610c1a565b5085821015610c575787850151600019600388901b60f8161c191681555b5050505050600190811b01905550565b8481526001600160a01b03848116602083015283166040820152608060608201819052600090610c99908301846109f9565b969550505050505056fea2646970667358221220603386dff8860381875f5876be052672ecc02197905e6a8b04bbe5a85769e30b64736f6c634300080f0033","bytecodeSha1":"8bebc9be07feb7c807a8b4fc5ed9ef8b49121481","compiler":{"evm_version":"istanbul","optimizer":{"enabled":true,"runs":200},"version":"0.8.15+commit.e14f2714"},"contractName":"BBProfiles","language":"Solidity","natspec":{"kind":"dev","methods":{},"version":1},"opcodes":"PUSH1 0x80 PUSH1 0x40 MSTORE CALLVALUE DUP1 ISZERO PUSH2 0x10 JUMPI PUSH1 0x0 DUP1 REVERT JUMPDEST POP PUSH1 0x4 CALLDATASIZE LT PUSH2 0x7D JUMPI PUSH1 0x0 CALLDATALOAD PUSH1 0xE0 SHR DUP1 PUSH4 0x4CDACBD7 GT PUSH2 0x5B JUMPI DUP1 PUSH4 0x4CDACBD7 EQ PUSH2 0x101 JUMPI DUP1 PUSH4 0x8B3658B1 EQ PUSH2 0x116 JUMPI DUP1 PUSH4 0xD2ADBE79 EQ PUSH2 0x129 JUMPI DUP1 PUSH4 0xF08F4F64 EQ PUSH2 0x131 JUMPI PUSH1 0x0 DUP1 REVERT JUMPDEST DUP1 PUSH4 0x2B726B6A EQ PUSH2 0x82 JUMPI DUP1 PUSH4 0x2DF8184A EQ PUSH2 0xAA JUMPI DUP1 PUSH4 0x3414A7AF EQ PUSH2 0xE1 JUMPI JUMPDEST PUSH1 0x0 DUP1 REVERT JUMPDEST PUSH2 0x95 PUSH2 0x90 CALLDATASIZE PUSH1 0x4 PUSH2 0x7E5 JUMP JUMPDEST PUSH2 0x153 JUMP JUMPDEST PUSH1 0x40 MLOAD SWAP1 ISZERO ISZERO DUP2 MSTORE PUSH1 0x20 ADD JUMPDEST PUSH1 0x40 MLOAD DUP1 SWAP2 SUB SWAP1 RETURN JUMPDEST PUSH2 0xD3 PUSH2 0xB8 CALLDATASIZE PUSH1 0x4 PUSH2 0x811 JUMP JUMPDEST PUSH1 0x1 PUSH1 0x1 PUSH1 0xA0 SHL SUB AND PUSH1 0x0 SWAP1 DUP2 MSTORE PUSH1 0x4 PUSH1 0x20 MSTORE PUSH1 0x40 SWAP1 KECCAK256 SLOAD SWAP1 JUMP JUMPDEST PUSH1 0x40 MLOAD SWAP1 DUP2 MSTORE PUSH1 0x20 ADD PUSH2 0xA1 JUMP JUMPDEST PUSH2 0xF4 PUSH2 0xEF CALLDATASIZE PUSH1 0x4 PUSH2 0x811 JUMP JUMPDEST PUSH2 0x1FB JUMP JUMPDEST PUSH1 0x40 MLOAD PUSH2 0xA1 SWAP2 SWAP1 PUSH2 0x833 JUMP JUMPDEST PUSH2 0x114 PUSH2 0x10F CALLDATASIZE PUSH1 0x4 PUSH2 0x91A JUMP JUMPDEST PUSH2 0x2DB JUMP JUMPDEST STOP JUMPDEST PUSH2 0x114 PUSH2 0x124 CALLDATASIZE PUSH1 0x4 PUSH2 0x982 JUMP JUMPDEST PUSH2 0x546 JUMP JUMPDEST PUSH1 0x1 SLOAD PUSH2 0xD3 JUMP JUMPDEST PUSH2 0x144 PUSH2 0x13F CALLDATASIZE PUSH1 0x4 PUSH2 0x9E0 JUMP JUMPDEST PUSH2 0x6DD JUMP JUMPDEST PUSH1 0x40 MLOAD PUSH2 0xA1 SWAP4 SWAP3 SWAP2 SWAP1 PUSH2 0xA46 JUMP JUMPDEST PUSH1 0x0 DUP3 PUSH1 0x1 SLOAD DUP2 LT PUSH2 0x180 JUMPI PUSH1 0x40 MLOAD PUSH3 0x461BCD PUSH1 0xE5 SHL DUP2 MSTORE PUSH1 0x4 ADD PUSH2 0x177 SWAP1 PUSH2 0xA7B JUMP JUMPDEST PUSH1 0x40 MLOAD DUP1 SWAP2 SUB SWAP1 REVERT JUMPDEST PUSH1 0x1 PUSH1 0x1 PUSH1 0xA0 SHL SUB DUP4 AND PUSH1 0x0 SWAP1 DUP2 MSTORE PUSH1 0x3 PUSH1 0x20 SWAP1 DUP2 MSTORE PUSH1 0x40 DUP1 DUP4 KECCAK256 PUSH1 0x2 DUP4 MSTORE DUP2 DUP5 KECCAK256 DUP9 DUP6 MSTORE DUP1 DUP5 MSTORE DUP3 DUP6 KECCAK256 SLOAD DUP1 DUP7 MSTORE SWAP2 DUP5 MSTORE SWAP2 DUP5 KECCAK256 SLOAD SWAP4 DUP9 SWAP1 MSTORE SWAP2 MSTORE EQ DUP1 ISZERO PUSH2 0x1F3 JUMPI POP PUSH1 0x1 PUSH1 0x1 PUSH1 0xA0 SHL SUB DUP4 AND PUSH1 0x0 SWAP1 DUP2 MSTORE PUSH1 0x4 PUSH1 0x20 SWAP1 DUP2 MSTORE PUSH1 0x40 DUP1 DUP4 KECCAK256 SLOAD PUSH1 0x2 DUP4 MSTORE DUP2 DUP5 KECCAK256 DUP9 DUP6 MSTORE SWAP1 SWAP3 MSTORE SWAP1 SWAP2 KECCAK256 SLOAD LT JUMPDEST SWAP5 SWAP4 POP POP POP POP JUMP JUMPDEST PUSH1 0x1 PUSH1 0x1 PUSH1 0xA0 SHL SUB DUP2 AND PUSH1 0x0 SWAP1 DUP2 MSTORE PUSH1 0x4 PUSH1 0x20 MSTORE PUSH1 0x40 DUP2 KECCAK256 SLOAD PUSH1 0x60 SWAP2 SWAP1 PUSH8 0xFFFFFFFFFFFFFFFF DUP2 GT ISZERO PUSH2 0x230 JUMPI PUSH2 0x230 PUSH2 0x877 JUMP JUMPDEST PUSH1 0x40 MLOAD SWAP1 DUP1 DUP3 MSTORE DUP1 PUSH1 0x20 MUL PUSH1 0x20 ADD DUP3 ADD PUSH1 0x40 MSTORE DUP1 ISZERO PUSH2 0x259 JUMPI DUP2 PUSH1 0x20 ADD PUSH1 0x20 DUP3 MUL DUP1 CALLDATASIZE DUP4 CALLDATACOPY ADD SWAP1 POP JUMPDEST POP SWAP1 POP PUSH1 0x0 JUMPDEST PUSH1 0x1 PUSH1 0x1 PUSH1 0xA0 SHL SUB DUP5 AND PUSH1 0x0 SWAP1 DUP2 MSTORE PUSH1 0x4 PUSH1 0x20 MSTORE PUSH1 0x40 SWAP1 KECCAK256 SLOAD DUP2 LT ISZERO PUSH2 0x2D4 JUMPI PUSH1 0x1 PUSH1 0x1 PUSH1 0xA0 SHL SUB DUP5 AND PUSH1 0x0 SWAP1 DUP2 MSTORE PUSH1 0x2 PUSH1 0x20 SWAP1 DUP2 MSTORE PUSH1 0x40 DUP1 DUP4 KECCAK256 DUP5 DUP5 MSTORE SWAP1 SWAP2 MSTORE SWAP1 KECCAK256 SLOAD DUP3 MLOAD DUP4 SWAP1 DUP4 SWAP1 DUP2 LT PUSH2 0x2B7 JUMPI PUSH2 0x2B7 PUSH2 0xAAB JUMP JUMPDEST PUSH1 0x20 SWAP1 DUP2 MUL SWAP2 SWAP1 SWAP2 ADD ADD MSTORE DUP1 PUSH2 0x2CC DUP2 PUSH2 0xAD7 JUMP JUMPDEST SWAP2 POP POP PUSH2 0x25F JUMP JUMPDEST POP SWAP3 SWAP2 POP POP JUMP JUMPDEST DUP4 PUSH1 0x1 SLOAD DUP2 LT PUSH2 0x2FD JUMPI PUSH1 0x40 MLOAD PUSH3 0x461BCD PUSH1 0xE5 SHL DUP2 MSTORE PUSH1 0x4 ADD PUSH2 0x177 SWAP1 PUSH2 0xA7B JUMP JUMPDEST PUSH1 0x0 DUP6 DUP2 MSTORE PUSH1 0x20 DUP2 SWAP1 MSTORE PUSH1 0x40 SWAP1 KECCAK256 SLOAD PUSH1 0x1 PUSH1 0x1 PUSH1 0xA0 SHL SUB AND CALLER EQ PUSH2 0x371 JUMPI PUSH1 0x40 MLOAD PUSH3 0x461BCD PUSH1 0xE5 SHL DUP2 MSTORE PUSH1 0x20 PUSH1 0x4 DUP3 ADD MSTORE PUSH1 0x25 PUSH1 0x24 DUP3 ADD MSTORE PUSH32 0x596F7520617265206E6F7420746865206F776E6572206F662074686973207072 PUSH1 0x44 DUP3 ADD MSTORE PUSH5 0x6F66696C65 PUSH1 0xD8 SHL PUSH1 0x64 DUP3 ADD MSTORE PUSH1 0x84 ADD PUSH2 0x177 JUMP JUMPDEST CALLER PUSH1 0x1 PUSH1 0x1 PUSH1 0xA0 SHL SUB DUP6 AND EQ PUSH2 0x46E JUMPI CALLER PUSH1 0x0 DUP2 DUP2 MSTORE PUSH1 0x2 PUSH1 0x20 SWAP1 DUP2 MSTORE PUSH1 0x40 DUP1 DUP4 KECCAK256 PUSH1 0x3 DUP4 MSTORE DUP2 DUP5 KECCAK256 DUP11 DUP6 MSTORE DUP4 MSTORE DUP2 DUP5 KECCAK256 SLOAD DUP5 MSTORE DUP1 DUP4 MSTORE DUP2 DUP5 KECCAK256 SLOAD SWAP5 DUP5 MSTORE PUSH1 0x4 SWAP1 SWAP3 MSTORE DUP3 KECCAK256 SLOAD SWAP1 SWAP2 SWAP1 PUSH2 0x3C6 SWAP1 PUSH1 0x1 SWAP1 PUSH2 0xAF0 JUMP JUMPDEST DUP2 MSTORE PUSH1 0x20 DUP1 DUP3 ADD SWAP3 SWAP1 SWAP3 MSTORE PUSH1 0x40 SWAP1 DUP2 ADD PUSH1 0x0 SWAP1 DUP2 KECCAK256 SWAP4 SWAP1 SWAP4 SSTORE CALLER DUP1 DUP5 MSTORE PUSH1 0x3 DUP4 MSTORE DUP2 DUP5 KECCAK256 DUP10 DUP6 MSTORE DUP4 MSTORE DUP2 DUP5 KECCAK256 DUP5 SWAP1 SSTORE DUP4 MSTORE PUSH1 0x4 SWAP1 SWAP2 MSTORE DUP2 KECCAK256 DUP1 SLOAD SWAP2 PUSH2 0x40A DUP4 PUSH2 0xB07 JUMP JUMPDEST SWAP1 SWAP2 SSTORE POP POP PUSH1 0x1 PUSH1 0x1 PUSH1 0xA0 SHL SUB DUP5 AND PUSH1 0x0 DUP2 DUP2 MSTORE PUSH1 0x2 PUSH1 0x20 SWAP1 DUP2 MSTORE PUSH1 0x40 DUP1 DUP4 KECCAK256 PUSH1 0x4 DUP1 DUP5 MSTORE DUP3 DUP6 KECCAK256 DUP1 SLOAD DUP7 MSTORE SWAP2 DUP5 MSTORE DUP3 DUP6 KECCAK256 DUP12 SWAP1 SSTORE DUP6 DUP6 MSTORE DUP2 SLOAD PUSH1 0x3 DUP6 MSTORE DUP4 DUP7 KECCAK256 DUP13 DUP8 MSTORE DUP6 MSTORE SWAP3 DUP6 KECCAK256 DUP4 SWAP1 SSTORE SWAP5 DUP5 MSTORE SWAP4 SWAP1 SWAP2 MSTORE SWAP2 SWAP1 PUSH2 0x468 DUP4 PUSH2 0xAD7 JUMP JUMPDEST SWAP2 SWAP1 POP SSTORE POP JUMPDEST PUSH1 0x40 DUP1 MLOAD PUSH1 0x60 DUP2 ADD DUP3 MSTORE PUSH1 0x1 PUSH1 0x1 PUSH1 0xA0 SHL SUB DUP1 DUP8 AND DUP3 MSTORE DUP6 DUP2 AND PUSH1 0x20 DUP1 DUP5 ADD SWAP2 DUP3 MSTORE DUP4 DUP6 ADD DUP8 DUP2 MSTORE PUSH1 0x0 DUP12 DUP2 MSTORE SWAP2 DUP3 SWAP1 MSTORE SWAP5 SWAP1 KECCAK256 DUP4 MLOAD DUP2 SLOAD SWAP1 DUP5 AND PUSH1 0x1 PUSH1 0x1 PUSH1 0xA0 SHL SUB NOT SWAP2 DUP3 AND OR DUP3 SSTORE SWAP2 MLOAD PUSH1 0x1 DUP3 ADD DUP1 SLOAD SWAP2 SWAP1 SWAP5 AND SWAP3 AND SWAP2 SWAP1 SWAP2 OR SWAP1 SWAP2 SSTORE SWAP2 MLOAD SWAP1 SWAP2 SWAP1 PUSH1 0x2 DUP3 ADD SWAP1 PUSH2 0x4E1 SWAP1 DUP3 PUSH2 0xBA7 JUMP JUMPDEST POP POP POP PUSH1 0x0 DUP6 DUP2 MSTORE PUSH1 0x20 DUP2 SWAP1 MSTORE PUSH1 0x40 SWAP1 DUP2 SWAP1 KECCAK256 PUSH1 0x1 ADD SLOAD SWAP1 MLOAD PUSH32 0x8FFD76D2C9BC923528F89F3A25419D388BB5D409E19D1B8A5EC8FDA434AE6817 SWAP2 PUSH2 0x537 SWAP2 DUP9 SWAP2 DUP9 SWAP2 PUSH1 0x1 PUSH1 0x1 PUSH1 0xA0 SHL SUB SWAP1 SWAP2 AND SWAP1 DUP8 SWAP1 PUSH2 0xC67 JUMP JUMPDEST PUSH1 0x40 MLOAD DUP1 SWAP2 SUB SWAP1 LOG1 POP POP POP POP POP JUMP JUMPDEST PUSH1 0x1 PUSH1 0x1 PUSH1 0xA0 SHL SUB DUP4 AND PUSH2 0x59C JUMPI PUSH1 0x40 MLOAD PUSH3 0x461BCD PUSH1 0xE5 SHL DUP2 MSTORE PUSH1 0x20 PUSH1 0x4 DUP3 ADD DUP2 SWAP1 MSTORE PUSH1 0x24 DUP3 ADD MSTORE PUSH32 0x4F776E65722063616E6E6F7420626520746865207A65726F2061646472657373 PUSH1 0x44 DUP3 ADD MSTORE PUSH1 0x64 ADD PUSH2 0x177 JUMP JUMPDEST PUSH1 0x40 DUP1 MLOAD PUSH1 0x60 DUP2 ADD DUP3 MSTORE PUSH1 0x1 PUSH1 0x1 PUSH1 0xA0 SHL SUB DUP1 DUP7 AND DUP3 MSTORE DUP5 DUP2 AND PUSH1 0x20 DUP1 DUP5 ADD SWAP2 DUP3 MSTORE DUP4 DUP6 ADD DUP7 DUP2 MSTORE PUSH1 0x1 DUP1 SLOAD PUSH1 0x0 SWAP1 DUP2 MSTORE SWAP3 DUP4 SWAP1 MSTORE SWAP6 SWAP1 SWAP2 KECCAK256 DUP5 MLOAD DUP2 SLOAD SWAP1 DUP6 AND PUSH1 0x1 PUSH1 0x1 PUSH1 0xA0 SHL SUB NOT SWAP2 DUP3 AND OR DUP3 SSTORE SWAP3 MLOAD SWAP6 DUP2 ADD DUP1 SLOAD SWAP7 SWAP1 SWAP5 AND SWAP6 SWAP1 SWAP3 AND SWAP5 SWAP1 SWAP5 OR SWAP1 SWAP2 SSTORE SWAP2 MLOAD SWAP1 SWAP2 SWAP1 PUSH1 0x2 DUP3 ADD SWAP1 PUSH2 0x615 SWAP1 DUP3 PUSH2 0xBA7 JUMP JUMPDEST POP POP PUSH1 0x1 SLOAD PUSH1 0x1 PUSH1 0x1 PUSH1 0xA0 SHL SUB DUP6 AND PUSH1 0x0 DUP2 DUP2 MSTORE PUSH1 0x2 PUSH1 0x20 SWAP1 DUP2 MSTORE PUSH1 0x40 DUP1 DUP4 KECCAK256 PUSH1 0x4 DUP1 DUP5 MSTORE DUP3 DUP6 KECCAK256 DUP1 SLOAD DUP7 MSTORE SWAP2 DUP5 MSTORE DUP3 DUP6 KECCAK256 DUP8 SWAP1 SSTORE DUP6 DUP6 MSTORE DUP2 SLOAD PUSH1 0x3 DUP6 MSTORE DUP4 DUP7 KECCAK256 SWAP8 DUP7 MSTORE SWAP7 DUP5 MSTORE SWAP2 DUP5 KECCAK256 DUP7 SWAP1 SSTORE SWAP4 DUP4 MSTORE SWAP1 MSTORE SWAP2 SWAP3 POP SWAP1 PUSH2 0x674 DUP4 PUSH2 0xAD7 JUMP JUMPDEST SWAP1 SWAP2 SSTORE POP POP PUSH1 0x1 DUP1 SLOAD SWAP1 PUSH1 0x0 PUSH2 0x689 DUP4 PUSH2 0xAD7 JUMP JUMPDEST SWAP2 SWAP1 POP SSTORE POP PUSH32 0xE07A82FB082DA6842DE4D2FF9EC61981818D793022BE8E22AE77CDFF6AA1F1E6 PUSH1 0x1 DUP1 SLOAD PUSH2 0x6BD SWAP2 SWAP1 PUSH2 0xAF0 JUMP JUMPDEST DUP5 DUP5 DUP5 PUSH1 0x40 MLOAD PUSH2 0x6D0 SWAP5 SWAP4 SWAP3 SWAP2 SWAP1 PUSH2 0xC67 JUMP JUMPDEST PUSH1 0x40 MLOAD DUP1 SWAP2 SUB SWAP1 LOG1 POP POP POP JUMP JUMPDEST PUSH1 0x0 DUP1 PUSH1 0x60 DUP4 PUSH1 0x1 SLOAD DUP2 LT PUSH2 0x704 JUMPI PUSH1 0x40 MLOAD PUSH3 0x461BCD PUSH1 0xE5 SHL DUP2 MSTORE PUSH1 0x4 ADD PUSH2 0x177 SWAP1 PUSH2 0xA7B JUMP JUMPDEST PUSH1 0x0 DUP6 DUP2 MSTORE PUSH1 0x20 DUP2 SWAP1 MSTORE PUSH1 0x40 SWAP1 KECCAK256 DUP1 SLOAD PUSH1 0x1 DUP3 ADD SLOAD PUSH1 0x2 SWAP1 SWAP3 ADD DUP1 SLOAD PUSH1 0x1 PUSH1 0x1 PUSH1 0xA0 SHL SUB SWAP3 DUP4 AND SWAP4 SWAP1 SWAP3 AND SWAP2 DUP2 SWAP1 PUSH2 0x73B SWAP1 PUSH2 0xB1E JUMP JUMPDEST DUP1 PUSH1 0x1F ADD PUSH1 0x20 DUP1 SWAP2 DIV MUL PUSH1 0x20 ADD PUSH1 0x40 MLOAD SWAP1 DUP2 ADD PUSH1 0x40 MSTORE DUP1 SWAP3 SWAP2 SWAP1 DUP2 DUP2 MSTORE PUSH1 0x20 ADD DUP3 DUP1 SLOAD PUSH2 0x767 SWAP1 PUSH2 0xB1E JUMP JUMPDEST DUP1 ISZERO PUSH2 0x7B4 JUMPI DUP1 PUSH1 0x1F LT PUSH2 0x789 JUMPI PUSH2 0x100 DUP1 DUP4 SLOAD DIV MUL DUP4 MSTORE SWAP2 PUSH1 0x20 ADD SWAP2 PUSH2 0x7B4 JUMP JUMPDEST DUP3 ADD SWAP2 SWAP1 PUSH1 0x0 MSTORE PUSH1 0x20 PUSH1 0x0 KECCAK256 SWAP1 JUMPDEST DUP2 SLOAD DUP2 MSTORE SWAP1 PUSH1 0x1 ADD SWAP1 PUSH1 0x20 ADD DUP1 DUP4 GT PUSH2 0x797 JUMPI DUP3 SWAP1 SUB PUSH1 0x1F AND DUP3 ADD SWAP2 JUMPDEST POP POP POP POP POP SWAP1 POP SWAP4 POP SWAP4 POP SWAP4 POP POP SWAP2 SWAP4 SWAP1 SWAP3 POP JUMP JUMPDEST DUP1 CALLDATALOAD PUSH1 0x1 PUSH1 0x1 PUSH1 0xA0 SHL SUB DUP2 AND DUP2 EQ PUSH2 0x7E0 JUMPI PUSH1 0x0 DUP1 REVERT JUMPDEST SWAP2 SWAP1 POP JUMP JUMPDEST PUSH1 0x0 DUP1 PUSH1 0x40 DUP4 DUP6 SUB SLT ISZERO PUSH2 0x7F8 JUMPI PUSH1 0x0 DUP1 REVERT JUMPDEST DUP3 CALLDATALOAD SWAP2 POP PUSH2 0x808 PUSH1 0x20 DUP5 ADD PUSH2 0x7C9 JUMP JUMPDEST SWAP1 POP SWAP3 POP SWAP3 SWAP1 POP JUMP JUMPDEST PUSH1 0x0 PUSH1 0x20 DUP3 DUP5 SUB SLT ISZERO PUSH2 0x823 JUMPI PUSH1 0x0 DUP1 REVERT JUMPDEST PUSH2 0x82C DUP3 PUSH2 0x7C9 JUMP JUMPDEST SWAP4 SWAP3 POP POP POP JUMP JUMPDEST PUSH1 0x20 DUP1 DUP3 MSTORE DUP3 MLOAD DUP3 DUP3 ADD DUP2 SWAP1 MSTORE PUSH1 0x0 SWAP2 SWAP1 DUP5 DUP3 ADD SWAP1 PUSH1 0x40 DUP6 ADD SWAP1 DUP5 JUMPDEST DUP2 DUP2 LT ISZERO PUSH2 0x86B JUMPI DUP4 MLOAD DUP4 MSTORE SWAP3 DUP5 ADD SWAP3 SWAP2 DUP5 ADD SWAP2 PUSH1 0x1 ADD PUSH2 0x84F JUMP JUMPDEST POP SWAP1 SWAP7 SWAP6 POP POP POP POP POP POP JUMP JUMPDEST PUSH4 0x4E487B71 PUSH1 0xE0 SHL PUSH1 0x0 MSTORE PUSH1 0x41 PUSH1 0x4 MSTORE PUSH1 0x24 PUSH1 0x0 REVERT JUMPDEST PUSH1 0x0 DUP3 PUSH1 0x1F DUP4 ADD SLT PUSH2 0x89E JUMPI PUSH1 0x0 DUP1 REVERT JUMPDEST DUP2 CALLDATALOAD PUSH8 0xFFFFFFFFFFFFFFFF DUP1 DUP3 GT ISZERO PUSH2 0x8B9 JUMPI PUSH2 0x8B9 PUSH2 0x877 JUMP JUMPDEST PUSH1 0x40 MLOAD PUSH1 0x1F DUP4 ADD PUSH1 0x1F NOT SWAP1 DUP2 AND PUSH1 0x3F ADD AND DUP2 ADD SWAP1 DUP3 DUP3 GT DUP2 DUP4 LT OR ISZERO PUSH2 0x8E1 JUMPI PUSH2 0x8E1 PUSH2 0x877 JUMP JUMPDEST DUP2 PUSH1 0x40 MSTORE DUP4 DUP2 MSTORE DUP7 PUSH1 0x20 DUP6 DUP9 ADD ADD GT ISZERO PUSH2 0x8FA JUMPI PUSH1 0x0 DUP1 REVERT JUMPDEST DUP4 PUSH1 0x20 DUP8 ADD PUSH1 0x20 DUP4 ADD CALLDATACOPY PUSH1 0x0 PUSH1 0x20 DUP6 DUP4 ADD ADD MSTORE DUP1 SWAP5 POP POP POP POP POP SWAP3 SWAP2 POP POP JUMP JUMPDEST PUSH1 0x0 DUP1 PUSH1 0x0 DUP1 PUSH1 0x80 DUP6 DUP8 SUB SLT ISZERO PUSH2 0x930 JUMPI PUSH1 0x0 DUP1 REVERT JUMPDEST DUP5 CALLDATALOAD SWAP4 POP PUSH2 0x940 PUSH1 0x20 DUP7 ADD PUSH2 0x7C9 JUMP JUMPDEST SWAP3 POP PUSH2 0x94E PUSH1 0x40 DUP7 ADD PUSH2 0x7C9 JUMP JUMPDEST SWAP2 POP PUSH1 0x60 DUP6 ADD CALLDATALOAD PUSH8 0xFFFFFFFFFFFFFFFF DUP2 GT ISZERO PUSH2 0x96A JUMPI PUSH1 0x0 DUP1 REVERT JUMPDEST PUSH2 0x976 DUP8 DUP3 DUP9 ADD PUSH2 0x88D JUMP JUMPDEST SWAP2 POP POP SWAP3 SWAP6 SWAP2 SWAP5 POP SWAP3 POP JUMP JUMPDEST PUSH1 0x0 DUP1 PUSH1 0x0 PUSH1 0x60 DUP5 DUP7 SUB SLT ISZERO PUSH2 0x997 JUMPI PUSH1 0x0 DUP1 REVERT JUMPDEST PUSH2 0x9A0 DUP5 PUSH2 0x7C9 JUMP JUMPDEST SWAP3 POP PUSH2 0x9AE PUSH1 0x20 DUP6 ADD PUSH2 0x7C9 JUMP JUMPDEST SWAP2 POP PUSH1 0x40 DUP5 ADD CALLDATALOAD PUSH8 0xFFFFFFFFFFFFFFFF DUP2 GT ISZERO PUSH2 0x9CA JUMPI PUSH1 0x0 DUP1 REVERT JUMPDEST PUSH2 0x9D6 DUP7 DUP3 DUP8 ADD PUSH2 0x88D JUMP JUMPDEST SWAP2 POP POP SWAP3 POP SWAP3 POP SWAP3 JUMP JUMPDEST PUSH1 0x0 PUSH1 0x20 DUP3 DUP5 SUB SLT ISZERO PUSH2 0x9F2 JUMPI PUSH1 0x0 DUP1 REVERT JUMPDEST POP CALLDATALOAD SWAP2 SWAP1 POP JUMP JUMPDEST PUSH1 0x0 DUP2 MLOAD DUP1 DUP5 MSTORE PUSH1 0x0 JUMPDEST DUP2 DUP2 LT ISZERO PUSH2 0xA1F JUMPI PUSH1 0x20 DUP2 DUP6 ADD DUP2 ADD MLOAD DUP7 DUP4 ADD DUP3 ADD MSTORE ADD PUSH2 0xA03 JUMP JUMPDEST DUP2 DUP2 GT ISZERO PUSH2 0xA31 JUMPI PUSH1 0x0 PUSH1 0x20 DUP4 DUP8 ADD ADD MSTORE JUMPDEST POP PUSH1 0x1F ADD PUSH1 0x1F NOT AND SWAP3 SWAP1 SWAP3 ADD PUSH1 0x20 ADD SWAP3 SWAP2 POP POP JUMP JUMPDEST PUSH1 0x1 PUSH1 0x1 PUSH1 0xA0 SHL SUB DUP5 DUP2 AND DUP3 MSTORE DUP4 AND PUSH1 0x20 DUP3 ADD MSTORE PUSH1 0x60 PUSH1 0x40 DUP3 ADD DUP2 SWAP1 MSTORE PUSH1 0x0 SWAP1 PUSH2 0xA72 SWAP1 DUP4 ADD DUP5 PUSH2 0x9F9 JUMP JUMPDEST SWAP6 SWAP5 POP POP POP POP POP JUMP JUMPDEST PUSH1 0x20 DUP1 DUP3 MSTORE PUSH1 0x16 SWAP1 DUP3 ADD MSTORE PUSH22 0x141C9BD99A5B1948191BD95CC81B9BDD08195E1A5CDD PUSH1 0x52 SHL PUSH1 0x40 DUP3 ADD MSTORE PUSH1 0x60 ADD SWAP1 JUMP JUMPDEST PUSH4 0x4E487B71 PUSH1 0xE0 SHL PUSH1 0x0 MSTORE PUSH1 0x32 PUSH1 0x4 MSTORE PUSH1 0x24 PUSH1 0x0 REVERT JUMPDEST PUSH4 0x4E487B71 PUSH1 0xE0 SHL PUSH1 0x0 MSTORE PUSH1 0x11 PUSH1 0x4 MSTORE PUSH1 0x24 PUSH1 0x0 REVERT JUMPDEST PUSH1 0x0 PUSH1 0x1 DUP3 ADD PUSH2 0xAE9 JUMPI PUSH2 0xAE9 PUSH2 0xAC1 JUMP JUMPDEST POP PUSH1 0x1 ADD SWAP1 JUMP JUMPDEST PUSH1 0x0 DUP3 DUP3 LT ISZERO PUSH2 0xB02 JUMPI PUSH2 0xB02 PUSH2 0xAC1 JUMP JUMPDEST POP SUB SWAP1 JUMP JUMPDEST PUSH1 0x0 DUP2 PUSH2 0xB16 JUMPI PUSH2 0xB16 PUSH2 0xAC1 JUMP JUMPDEST POP PUSH1 0x0 NOT ADD SWAP1 JUMP JUMPDEST PUSH1 0x1 DUP2 DUP2 SHR SWAP1 DUP3 AND DUP1 PUSH2 0xB32 JUMPI PUSH1 0x7F DUP3 AND SWAP2 POP JUMPDEST PUSH1 0x20 DUP3 LT DUP2 SUB PUSH2 0xB52 JUMPI PUSH4 0x4E487B71 PUSH1 0xE0 SHL PUSH1 0x0 MSTORE PUSH1 0x22 PUSH1 0x4 MSTORE PUSH1 0x24 PUSH1 0x0 REVERT JUMPDEST POP SWAP2 SWAP1 POP JUMP JUMPDEST PUSH1 0x1F DUP3 GT ISZERO PUSH2 0xBA2 JUMPI PUSH1 0x0 DUP2 DUP2 MSTORE PUSH1 0x20 DUP2 KECCAK256 PUSH1 0x1F DUP6 ADD PUSH1 0x5 SHR DUP2 ADD PUSH1 0x20 DUP7 LT ISZERO PUSH2 0xB7F JUMPI POP DUP1 JUMPDEST PUSH1 0x1F DUP6 ADD PUSH1 0x5 SHR DUP3 ADD SWAP2 POP JUMPDEST DUP2 DUP2 LT ISZERO PUSH2 0xB9E JUMPI DUP3 DUP2 SSTORE PUSH1 0x1 ADD PUSH2 0xB8B JUMP JUMPDEST POP POP POP JUMPDEST POP POP POP JUMP JUMPDEST DUP2 MLOAD PUSH8 0xFFFFFFFFFFFFFFFF DUP2 GT ISZERO PUSH2 0xBC1 JUMPI PUSH2 0xBC1 PUSH2 0x877 JUMP JUMPDEST PUSH2 0xBD5 DUP2 PUSH2 0xBCF DUP5 SLOAD PUSH2 0xB1E JUMP JUMPDEST DUP5 PUSH2 0xB58 JUMP JUMPDEST PUSH1 0x20 DUP1 PUSH1 0x1F DUP4 GT PUSH1 0x1 DUP2 EQ PUSH2 0xC0A JUMPI PUSH1 0x0 DUP5 ISZERO PUSH2 0xBF2 JUMPI POP DUP6 DUP4 ADD MLOAD JUMPDEST PUSH1 0x0 NOT PUSH1 0x3 DUP7 SWAP1 SHL SHR NOT AND PUSH1 0x1 DUP6 SWAP1 SHL OR DUP6 SSTORE PUSH2 0xB9E JUMP JUMPDEST PUSH1 0x0 DUP6 DUP2 MSTORE PUSH1 0x20 DUP2 KECCAK256 PUSH1 0x1F NOT DUP7 AND SWAP2 JUMPDEST DUP3 DUP2 LT ISZERO PUSH2 0xC39 JUMPI DUP9 DUP7 ADD MLOAD DUP3 SSTORE SWAP5 DUP5 ADD SWAP5 PUSH1 0x1 SWAP1 SWAP2 ADD SWAP1 DUP5 ADD PUSH2 0xC1A JUMP JUMPDEST POP DUP6 DUP3 LT ISZERO PUSH2 0xC57 JUMPI DUP8 DUP6 ADD MLOAD PUSH1 0x0 NOT PUSH1 0x3 DUP9 SWAP1 SHL PUSH1 0xF8 AND SHR NOT AND DUP2 SSTORE JUMPDEST POP POP POP POP POP PUSH1 0x1 SWAP1 DUP2 SHL ADD SWAP1 SSTORE POP JUMP JUMPDEST DUP5 DUP2 MSTORE PUSH1 0x1 PUSH1 0x1 PUSH1 0xA0 SHL SUB DUP5 DUP2 AND PUSH1 0x20 DUP4 ADD MSTORE DUP4 AND PUSH1 0x40 DUP3 ADD MSTORE PUSH1 0x80 PUSH1 0x60 DUP3 ADD DUP2 SWAP1 MSTORE PUSH1 0x0 SWAP1 PUSH2 0xC99 SWAP1 DUP4 ADD DUP5 PUSH2 0x9F9 JUMP JUMPDEST SWAP7 SWAP6 POP POP POP POP POP POP JUMP INVALID LOG2 PUSH5 0x6970667358 0x22 SLT KECCAK256 PUSH1 0x33 DUP7 0xDF 0xF8 DUP7 SUB DUP2 DUP8 0x5F PC PUSH23 0xBE052672ECC02197905E6A8B04BBE5A85769E30B64736F PUSH13 0x634300080F0033000000000000 ","sha1":"cf982df4884198fa5174449c7933d29bb96e3e61","source":"// SPDX-License-Identifier: MIT\npragma solidity ^0.8.11;\n\nimport \"./interfaces/IBBProfiles.sol\";\n\ncontract BBProfiles is IBBProfiles {\n    event NewProfile(\n        uint256 profileId,\n        address owner,\n        address receiver,\n        string cid\n    );\n\n    event EditProfile(\n        uint256 profileId,\n        address owner,\n        address receiver,\n        string cid\n    );\n\n    struct Profile {\n        address owner;\n        address receiver;\n        string cid;\n    }\n\n    mapping(uint256 => Profile) internal _profiles;\n\n    uint256 internal _totalProfiles;\n\n    // Owner => Total index => Profile ID\n    mapping(address => mapping(uint256 => uint256)) private _ownedProfiles;\n    // Owner => Profile ID => Total index\n    mapping(address => mapping(uint256 => uint256)) private _ownedProfilesIndexes;\n    // Owner => Total profiles owned\n    mapping(address => uint256) private _ownersTotalProfiles;\n\n    modifier profileExists(uint256 profileId) {\n      require(profileId < _totalProfiles, \"Profile does not exist\");\n      _;\n    }\n\n    /*\n        @notice Creates a new profile\n\n        @param Profile owner\n        @param Profiles revenue receiver\n        @param Profile CID\n    */\n    function createProfile(address owner, address receiver, string memory cid) external override {\n        require(owner != address(0), \"Owner cannot be the zero address\");\n        _profiles[_totalProfiles] = Profile(owner, receiver, cid);\n\n        _ownedProfiles[owner][_ownersTotalProfiles[owner]] = _totalProfiles;\n        _ownedProfilesIndexes[owner][_totalProfiles] = _ownersTotalProfiles[owner];\n        _ownersTotalProfiles[owner]++;\n\n        _totalProfiles++;\n\n        emit NewProfile(_totalProfiles - 1, owner, receiver, cid);\n    }\n\n    /*\n        @notice Set a profiles variables\n\n        @param Profile ID\n        @param New profile owner\n        @param New profile receiver\n        @param New profile CID\n    */\n    function editProfile(uint256 profileId, address owner, address receiver, string memory cid) external override profileExists(profileId){\n        require(_profiles[profileId].owner == msg.sender, \"You are not the owner of this profile\");\n        \n        if (msg.sender != owner) {\n\n            _ownedProfiles[msg.sender][_ownersTotalProfiles[msg.sender] - 1] = _ownedProfiles[msg.sender][_ownedProfilesIndexes[msg.sender][profileId]];\n            _ownedProfilesIndexes[msg.sender][profileId] = 0;\n            _ownersTotalProfiles[msg.sender]--;\n\n            _ownedProfiles[owner][_ownersTotalProfiles[owner]] = profileId;\n            _ownedProfilesIndexes[owner][profileId] = _ownersTotalProfiles[owner];\n            _ownersTotalProfiles[owner]++;\n        }\n        \n        _profiles[profileId] = Profile(owner, receiver, cid);\n\n        emit EditProfile(profileId, owner, _profiles[profileId].receiver, cid);\n    } \n\n    /*\n        @notice Returns the total number of created profiles\n\n        @return Total number of profiles\n    */\n    function totalProfiles() view external override returns (uint256) {\n        return _totalProfiles;\n    }\n\n    /*\n        @notice Returns a profiles values\n\n        @param Profile ID\n\n        @return Profile owner\n        @return Profile revenue receiver\n        @return Profile CID\n    */\n    function getProfile(uint256 profileId) view external override profileExists(profileId) returns (address, address, string memory) {\n        return (_profiles[profileId].owner, _profiles[profileId].receiver, _profiles[profileId].cid);\n    }\n\n    function getOwnersProfiles(address owner) external view override returns (uint256[] memory) {\n        uint256[] memory profileIds = new uint256[](_ownersTotalProfiles[owner]);\n\n        for(uint256 i = 0; i < _ownersTotalProfiles[owner]; i++) {\n            profileIds[i] = _ownedProfiles[owner][i];\n        }\n\n        return profileIds;\n    }\n\n    /*\n        @notice Returns the number of profiles an address owns\n\n        @param Owner address\n\n        @return Profile count\n    */\n    function ownersTotalProfiles(address owner) view external returns (uint256) {\n        return _ownersTotalProfiles[owner];\n    }\n\n    function isProfileOwner(uint256 profileId, address account) external view profileExists(profileId) returns(bool) {\n        return _ownedProfiles[account][profileId] == _ownedProfilesIndexes[account][_ownedProfiles[account][profileId]] && \n                _ownedProfiles[account][profileId] < _ownersTotalProfiles[account];\n    }\n}\n","sourcePath":"contracts/BBProfiles.sol","type":"contract","deployment":{"address":"0xD44032a09010d84c6F249B1ee2245D0Cdb0B6ad3","chainid":"80001","blockHeight":27747445}}