{
  "abi": [
    {
      "inputs": [],
      "name": "INSUFFICIENT_ALLOWANCE",
      "outputs": [
        {
          "internalType": "string",
          "name": "",
          "type": "string"
        }
      ],
      "stateMutability": "view",
      "type": "function"
    },
    {
      "inputs": [],
      "name": "INSUFFICIENT_BALANCE",
      "outputs": [
        {
          "internalType": "string",
          "name": "",
          "type": "string"
        }
      ],
      "stateMutability": "view",
      "type": "function"
    },
    {
      "inputs": [],
      "name": "INSUFFICIENT_PREPAID_GAS",
      "outputs": [
        {
          "internalType": "string",
          "name": "",
          "type": "string"
        }
      ],
      "stateMutability": "view",
      "type": "function"
    },
    {
      "inputs": [],
      "name": "INVALID_LENGTH",
      "outputs": [
        {
          "internalType": "string",
          "name": "",
          "type": "string"
        }
      ],
      "stateMutability": "view",
      "type": "function"
    },
    {
      "inputs": [],
      "name": "NOT_OWNER",
      "outputs": [
        {
          "internalType": "string",
          "name": "",
          "type": "string"
        }
      ],
      "stateMutability": "view",
      "type": "function"
    },
    {
      "inputs": [],
      "name": "NOT_SUBSCRIPTION_OWNER",
      "outputs": [
        {
          "internalType": "string",
          "name": "",
          "type": "string"
        }
      ],
      "stateMutability": "view",
      "type": "function"
    },
    {
      "inputs": [],
      "name": "OUT_OF_BOUNDS",
      "outputs": [
        {
          "internalType": "string",
          "name": "",
          "type": "string"
        }
      ],
      "stateMutability": "view",
      "type": "function"
    },
    {
      "inputs": [],
      "name": "POST_NOT_EXIST",
      "outputs": [
        {
          "internalType": "string",
          "name": "",
          "type": "string"
        }
      ],
      "stateMutability": "view",
      "type": "function"
    },
    {
      "inputs": [],
      "name": "PROFILE_NOT_EXIST",
      "outputs": [
        {
          "internalType": "string",
          "name": "",
          "type": "string"
        }
      ],
      "stateMutability": "view",
      "type": "function"
    },
    {
      "inputs": [],
      "name": "SUBSCRIPTION_ACTIVE",
      "outputs": [
        {
          "internalType": "string",
          "name": "",
          "type": "string"
        }
      ],
      "stateMutability": "view",
      "type": "function"
    },
    {
      "inputs": [],
      "name": "SUBSCRIPTION_CANCELLED",
      "outputs": [
        {
          "internalType": "string",
          "name": "",
          "type": "string"
        }
      ],
      "stateMutability": "view",
      "type": "function"
    },
    {
      "inputs": [],
      "name": "SUBSCRIPTION_NOT_EXIST",
      "outputs": [
        {
          "internalType": "string",
          "name": "",
          "type": "string"
        }
      ],
      "stateMutability": "view",
      "type": "function"
    },
    {
      "inputs": [],
      "name": "SUBSCRIPTION_NOT_EXPIRED",
      "outputs": [
        {
          "internalType": "string",
          "name": "",
          "type": "string"
        }
      ],
      "stateMutability": "view",
      "type": "function"
    },
    {
      "inputs": [],
      "name": "SUBSCRIPTION_PROFILE_ALREADY_EXISTS",
      "outputs": [
        {
          "internalType": "string",
          "name": "",
          "type": "string"
        }
      ],
      "stateMutability": "view",
      "type": "function"
    },
    {
      "inputs": [],
      "name": "TIER_NOT_EXIST",
      "outputs": [
        {
          "internalType": "string",
          "name": "",
          "type": "string"
        }
      ],
      "stateMutability": "view",
      "type": "function"
    },
    {
      "inputs": [],
      "name": "TIER_SET_NOT_EXIST",
      "outputs": [
        {
          "internalType": "string",
          "name": "",
          "type": "string"
        }
      ],
      "stateMutability": "view",
      "type": "function"
    },
    {
      "inputs": [],
      "name": "UNSUPPORTED_CURRENCY",
      "outputs": [
        {
          "internalType": "string",
          "name": "",
          "type": "string"
        }
      ],
      "stateMutability": "view",
      "type": "function"
    },
    {
      "inputs": [],
      "name": "UPKEEP_FAIL",
      "outputs": [
        {
          "internalType": "string",
          "name": "",
          "type": "string"
        }
      ],
      "stateMutability": "view",
      "type": "function"
    },
    {
      "inputs": [],
      "name": "ZERO_ADDRESS",
      "outputs": [
        {
          "internalType": "string",
          "name": "",
          "type": "string"
        }
      ],
      "stateMutability": "view",
      "type": "function"
    }
  ],
  "bytecode": "61043461003a600b82828239805160001a60731461002d57634e487b7160e01b600052600060045260246000fd5b30600052607381538281f3fe730000000000000000000000000000000000000000301460806040526004361061012b5760003560e01c806371d78b12116100b7578063b2b7c7921161007b578063b2b7c7921461030d578063bcce99761461032d578063c5456fa71461034e578063e88ac40d1461036f578063ed676a4a1461038f57600080fd5b806371d78b121461026b57806371f6e4cf1461028b57806380d5dafe146102ab5780638a3cbbb3146102cc578063a5b792ac146102ed57600080fd5b806328ccc78a116100fe57806328ccc78a146101ca57806344bf5c58146101ea5780634ac685481461020a57806350b1f3561461022a578063538ba4f91461024b57600080fd5b80630b99a4e7146101305780630fd3919314610167578063277be0881461018857806328a7a162146101a9575b600080fd5b61015160405180604001604052806002815260200161031360f41b81525081565b60405161015e91906103b0565b60405180910390f35b610151604051806040016040528060028152602001610c4d60f21b81525081565b61015160405180604001604052806002815260200161062760f31b81525081565b61015160405180604001604052806002815260200161313160f01b81525081565b610151604051806040016040528060018152602001603560f81b81525081565b610151604051806040016040528060018152602001601960f91b81525081565b610151604051806040016040528060018152602001601b60f91b81525081565b61015160405180604001604052806002815260200161313560f01b81525081565b610151604051806040016040528060018152602001603960f81b81525081565b610151604051806040016040528060018152602001603160f81b81525081565b610151604051806040016040528060018152602001603760f81b81525081565b61015160405180604001604052806002815260200161313360f01b81525081565b61015160405180604001604052806002815260200161189b60f11b81525081565b610151604051806040016040528060018152602001600d60fa1b81525081565b610151604051806040016040528060018152602001603360f81b81525081565b61015160405180604001604052806002815260200161313960f01b81525081565b61015160405180604001604052806002815260200161189960f11b81525081565b610151604051806040016040528060018152602001600760fb1b81525081565b61015160405180604001604052806002815260200161313760f01b81525081565b600060208083528351808285015260005b818110156103dd578581018301518582016040015282016103c1565b506000604082860101526040601f19601f830116850101925050509291505056fea264697066735822122078d0af69f06552c4b316ad62e55929508ff90c1e2b766e531a71f5e8e66c4fed64736f6c63430008100033",
  "bytecodeSha1": "c0795153985fd2e955b3210f8e13105154287e4d",
  "compiler": {
    "evm_version": "istanbul",
    "optimizer": {
      "enabled": true,
      "runs": 200
    },
    "version": "0.8.16+commit.07a7930e"
  },
  "contractName": "BBErrorCodesV01",
  "language": "Solidity",
  "natspec": {
    "kind": "dev",
    "methods": {},
    "version": 1
  },
  "opcodes": "PUSH20 0x0 ADDRESS EQ PUSH1 0x80 PUSH1 0x40 MSTORE PUSH1 0x4 CALLDATASIZE LT PUSH2 0x12B JUMPI PUSH1 0x0 CALLDATALOAD PUSH1 0xE0 SHR DUP1 PUSH4 0x71D78B12 GT PUSH2 0xB7 JUMPI DUP1 PUSH4 0xB2B7C792 GT PUSH2 0x7B JUMPI DUP1 PUSH4 0xB2B7C792 EQ PUSH2 0x30D JUMPI DUP1 PUSH4 0xBCCE9976 EQ PUSH2 0x32D JUMPI DUP1 PUSH4 0xC5456FA7 EQ PUSH2 0x34E JUMPI DUP1 PUSH4 0xE88AC40D EQ PUSH2 0x36F JUMPI DUP1 PUSH4 0xED676A4A EQ PUSH2 0x38F JUMPI PUSH1 0x0 DUP1 REVERT JUMPDEST DUP1 PUSH4 0x71D78B12 EQ PUSH2 0x26B JUMPI DUP1 PUSH4 0x71F6E4CF EQ PUSH2 0x28B JUMPI DUP1 PUSH4 0x80D5DAFE EQ PUSH2 0x2AB JUMPI DUP1 PUSH4 0x8A3CBBB3 EQ PUSH2 0x2CC JUMPI DUP1 PUSH4 0xA5B792AC EQ PUSH2 0x2ED JUMPI PUSH1 0x0 DUP1 REVERT JUMPDEST DUP1 PUSH4 0x28CCC78A GT PUSH2 0xFE JUMPI DUP1 PUSH4 0x28CCC78A EQ PUSH2 0x1CA JUMPI DUP1 PUSH4 0x44BF5C58 EQ PUSH2 0x1EA JUMPI DUP1 PUSH4 0x4AC68548 EQ PUSH2 0x20A JUMPI DUP1 PUSH4 0x50B1F356 EQ PUSH2 0x22A JUMPI DUP1 PUSH4 0x538BA4F9 EQ PUSH2 0x24B JUMPI PUSH1 0x0 DUP1 REVERT JUMPDEST DUP1 PUSH4 0xB99A4E7 EQ PUSH2 0x130 JUMPI DUP1 PUSH4 0xFD39193 EQ PUSH2 0x167 JUMPI DUP1 PUSH4 0x277BE088 EQ PUSH2 0x188 JUMPI DUP1 PUSH4 0x28A7A162 EQ PUSH2 0x1A9 JUMPI JUMPDEST PUSH1 0x0 DUP1 REVERT JUMPDEST PUSH2 0x151 PUSH1 0x40 MLOAD DUP1 PUSH1 0x40 ADD PUSH1 0x40 MSTORE DUP1 PUSH1 0x2 DUP2 MSTORE PUSH1 0x20 ADD PUSH2 0x313 PUSH1 0xF4 SHL DUP2 MSTORE POP DUP2 JUMP JUMPDEST PUSH1 0x40 MLOAD PUSH2 0x15E SWAP2 SWAP1 PUSH2 0x3B0 JUMP JUMPDEST PUSH1 0x40 MLOAD DUP1 SWAP2 SUB SWAP1 RETURN JUMPDEST PUSH2 0x151 PUSH1 0x40 MLOAD DUP1 PUSH1 0x40 ADD PUSH1 0x40 MSTORE DUP1 PUSH1 0x2 DUP2 MSTORE PUSH1 0x20 ADD PUSH2 0xC4D PUSH1 0xF2 SHL DUP2 MSTORE POP DUP2 JUMP JUMPDEST PUSH2 0x151 PUSH1 0x40 MLOAD DUP1 PUSH1 0x40 ADD PUSH1 0x40 MSTORE DUP1 PUSH1 0x2 DUP2 MSTORE PUSH1 0x20 ADD PUSH2 0x627 PUSH1 0xF3 SHL DUP2 MSTORE POP DUP2 JUMP JUMPDEST PUSH2 0x151 PUSH1 0x40 MLOAD DUP1 PUSH1 0x40 ADD PUSH1 0x40 MSTORE DUP1 PUSH1 0x2 DUP2 MSTORE PUSH1 0x20 ADD PUSH2 0x3131 PUSH1 0xF0 SHL DUP2 MSTORE POP DUP2 JUMP JUMPDEST PUSH2 0x151 PUSH1 0x40 MLOAD DUP1 PUSH1 0x40 ADD PUSH1 0x40 MSTORE DUP1 PUSH1 0x1 DUP2 MSTORE PUSH1 0x20 ADD PUSH1 0x35 PUSH1 0xF8 SHL DUP2 MSTORE POP DUP2 JUMP JUMPDEST PUSH2 0x151 PUSH1 0x40 MLOAD DUP1 PUSH1 0x40 ADD PUSH1 0x40 MSTORE DUP1 PUSH1 0x1 DUP2 MSTORE PUSH1 0x20 ADD PUSH1 0x19 PUSH1 0xF9 SHL DUP2 MSTORE POP DUP2 JUMP JUMPDEST PUSH2 0x151 PUSH1 0x40 MLOAD DUP1 PUSH1 0x40 ADD PUSH1 0x40 MSTORE DUP1 PUSH1 0x1 DUP2 MSTORE PUSH1 0x20 ADD PUSH1 0x1B PUSH1 0xF9 SHL DUP2 MSTORE POP DUP2 JUMP JUMPDEST PUSH2 0x151 PUSH1 0x40 MLOAD DUP1 PUSH1 0x40 ADD PUSH1 0x40 MSTORE DUP1 PUSH1 0x2 DUP2 MSTORE PUSH1 0x20 ADD PUSH2 0x3135 PUSH1 0xF0 SHL DUP2 MSTORE POP DUP2 JUMP JUMPDEST PUSH2 0x151 PUSH1 0x40 MLOAD DUP1 PUSH1 0x40 ADD PUSH1 0x40 MSTORE DUP1 PUSH1 0x1 DUP2 MSTORE PUSH1 0x20 ADD PUSH1 0x39 PUSH1 0xF8 SHL DUP2 MSTORE POP DUP2 JUMP JUMPDEST PUSH2 0x151 PUSH1 0x40 MLOAD DUP1 PUSH1 0x40 ADD PUSH1 0x40 MSTORE DUP1 PUSH1 0x1 DUP2 MSTORE PUSH1 0x20 ADD PUSH1 0x31 PUSH1 0xF8 SHL DUP2 MSTORE POP DUP2 JUMP JUMPDEST PUSH2 0x151 PUSH1 0x40 MLOAD DUP1 PUSH1 0x40 ADD PUSH1 0x40 MSTORE DUP1 PUSH1 0x1 DUP2 MSTORE PUSH1 0x20 ADD PUSH1 0x37 PUSH1 0xF8 SHL DUP2 MSTORE POP DUP2 JUMP JUMPDEST PUSH2 0x151 PUSH1 0x40 MLOAD DUP1 PUSH1 0x40 ADD PUSH1 0x40 MSTORE DUP1 PUSH1 0x2 DUP2 MSTORE PUSH1 0x20 ADD PUSH2 0x3133 PUSH1 0xF0 SHL DUP2 MSTORE POP DUP2 JUMP JUMPDEST PUSH2 0x151 PUSH1 0x40 MLOAD DUP1 PUSH1 0x40 ADD PUSH1 0x40 MSTORE DUP1 PUSH1 0x2 DUP2 MSTORE PUSH1 0x20 ADD PUSH2 0x189B PUSH1 0xF1 SHL DUP2 MSTORE POP DUP2 JUMP JUMPDEST PUSH2 0x151 PUSH1 0x40 MLOAD DUP1 PUSH1 0x40 ADD PUSH1 0x40 MSTORE DUP1 PUSH1 0x1 DUP2 MSTORE PUSH1 0x20 ADD PUSH1 0xD PUSH1 0xFA SHL DUP2 MSTORE POP DUP2 JUMP JUMPDEST PUSH2 0x151 PUSH1 0x40 MLOAD DUP1 PUSH1 0x40 ADD PUSH1 0x40 MSTORE DUP1 PUSH1 0x1 DUP2 MSTORE PUSH1 0x20 ADD PUSH1 0x33 PUSH1 0xF8 SHL DUP2 MSTORE POP DUP2 JUMP JUMPDEST PUSH2 0x151 PUSH1 0x40 MLOAD DUP1 PUSH1 0x40 ADD PUSH1 0x40 MSTORE DUP1 PUSH1 0x2 DUP2 MSTORE PUSH1 0x20 ADD PUSH2 0x3139 PUSH1 0xF0 SHL DUP2 MSTORE POP DUP2 JUMP JUMPDEST PUSH2 0x151 PUSH1 0x40 MLOAD DUP1 PUSH1 0x40 ADD PUSH1 0x40 MSTORE DUP1 PUSH1 0x2 DUP2 MSTORE PUSH1 0x20 ADD PUSH2 0x1899 PUSH1 0xF1 SHL DUP2 MSTORE POP DUP2 JUMP JUMPDEST PUSH2 0x151 PUSH1 0x40 MLOAD DUP1 PUSH1 0x40 ADD PUSH1 0x40 MSTORE DUP1 PUSH1 0x1 DUP2 MSTORE PUSH1 0x20 ADD PUSH1 0x7 PUSH1 0xFB SHL DUP2 MSTORE POP DUP2 JUMP JUMPDEST PUSH2 0x151 PUSH1 0x40 MLOAD DUP1 PUSH1 0x40 ADD PUSH1 0x40 MSTORE DUP1 PUSH1 0x2 DUP2 MSTORE PUSH1 0x20 ADD PUSH2 0x3137 PUSH1 0xF0 SHL DUP2 MSTORE POP DUP2 JUMP JUMPDEST PUSH1 0x0 PUSH1 0x20 DUP1 DUP4 MSTORE DUP4 MLOAD DUP1 DUP3 DUP6 ADD MSTORE PUSH1 0x0 JUMPDEST DUP2 DUP2 LT ISZERO PUSH2 0x3DD JUMPI DUP6 DUP2 ADD DUP4 ADD MLOAD DUP6 DUP3 ADD PUSH1 0x40 ADD MSTORE DUP3 ADD PUSH2 0x3C1 JUMP JUMPDEST POP PUSH1 0x0 PUSH1 0x40 DUP3 DUP7 ADD ADD MSTORE PUSH1 0x40 PUSH1 0x1F NOT PUSH1 0x1F DUP4 ADD AND DUP6 ADD ADD SWAP3 POP POP POP SWAP3 SWAP2 POP POP JUMP INVALID LOG2 PUSH5 0x6970667358 0x22 SLT KECCAK256 PUSH25 0xD0AF69F06552C4B316AD62E55929508FF90C1E2B766E531A71 CREATE2 0xE8 0xE6 PUSH13 0x4FED64736F6C63430008100033 ",
  "sha1": "dd2e8aa735725d3b026ab3d63f4153585312991f",
  "source": "// SPDX-License-Identifier: MIT\npragma solidity ^0.8.11;\n\nlibrary BBErrorCodesV01 {\n    string public constant NOT_OWNER = \"1\";\n    string public constant OUT_OF_BOUNDS = \"2\";\n    string public constant NOT_SUBSCRIPTION_OWNER = \"3\";\n    string public constant POST_NOT_EXIST = \"4\";\n    string public constant PROFILE_NOT_EXIST = \"5\";\n    string public constant TIER_SET_NOT_EXIST = \"6\";\n    string public constant TIER_NOT_EXIST = \"7\";\n    string public constant SUBSCRIPTION_NOT_EXIST = \"8\";\n    string public constant ZERO_ADDRESS = \"9\";\n    string public constant SUBSCRIPTION_NOT_EXPIRED = \"10\";\n    string public constant SUBSCRIPTION_CANCELLED = \"11\";\n    string public constant UPKEEP_FAIL = \"12\";\n    string public constant INSUFFICIENT_PREPAID_GAS = \"13\";\n    string public constant INSUFFICIENT_ALLOWANCE = \"14\";\n    string public constant INSUFFICIENT_BALANCE = \"15\";\n    string public constant SUBSCRIPTION_ACTIVE = \"16\";\n    string public constant INVALID_LENGTH = \"17\";\n    string public constant UNSUPPORTED_CURRENCY = \"18\";\n    string public constant SUBSCRIPTION_PROFILE_ALREADY_EXISTS = \"19\";\n}",
  "sourcePath": "contracts/BBErrorsV01.sol",
  "type": "library"
}