{
  "abi": [
    {
      "inputs": [],
      "stateMutability": "nonpayable",
      "type": "constructor"
    },
    {
      "anonymous": false,
      "inputs": [
        {
          "indexed": false,
          "internalType": "uint256",
          "name": "profileId",
          "type": "uint256"
        },
        {
          "indexed": false,
          "internalType": "address",
          "name": "owner",
          "type": "address"
        },
        {
          "indexed": false,
          "internalType": "address",
          "name": "receiver",
          "type": "address"
        },
        {
          "indexed": false,
          "internalType": "string",
          "name": "cid",
          "type": "string"
        }
      ],
      "name": "EditProfile",
      "type": "event"
    },
    {
      "anonymous": false,
      "inputs": [
        {
          "indexed": false,
          "internalType": "uint256",
          "name": "profileId",
          "type": "uint256"
        },
        {
          "indexed": false,
          "internalType": "address",
          "name": "owner",
          "type": "address"
        },
        {
          "indexed": false,
          "internalType": "address",
          "name": "receiver",
          "type": "address"
        },
        {
          "indexed": false,
          "internalType": "string",
          "name": "cid",
          "type": "string"
        }
      ],
      "name": "NewProfile",
      "type": "event"
    },
    {
      "inputs": [
        {
          "internalType": "address",
          "name": "owner",
          "type": "address"
        },
        {
          "internalType": "address",
          "name": "receiver",
          "type": "address"
        },
        {
          "internalType": "string",
          "name": "cid",
          "type": "string"
        }
      ],
      "name": "createProfile",
      "outputs": [
        {
          "internalType": "uint256",
          "name": "profileId",
          "type": "uint256"
        }
      ],
      "stateMutability": "nonpayable",
      "type": "function"
    },
    {
      "inputs": [
        {
          "internalType": "uint256",
          "name": "profileId",
          "type": "uint256"
        },
        {
          "internalType": "address",
          "name": "owner",
          "type": "address"
        },
        {
          "internalType": "address",
          "name": "receiver",
          "type": "address"
        },
        {
          "internalType": "string",
          "name": "cid",
          "type": "string"
        }
      ],
      "name": "editProfile",
      "outputs": [],
      "stateMutability": "nonpayable",
      "type": "function"
    },
    {
      "inputs": [
        {
          "internalType": "address",
          "name": "owner",
          "type": "address"
        }
      ],
      "name": "getOwnersProfiles",
      "outputs": [
        {
          "internalType": "uint256[]",
          "name": "",
          "type": "uint256[]"
        }
      ],
      "stateMutability": "view",
      "type": "function"
    },
    {
      "inputs": [
        {
          "internalType": "uint256",
          "name": "profileId",
          "type": "uint256"
        }
      ],
      "name": "getProfile",
      "outputs": [
        {
          "internalType": "address",
          "name": "",
          "type": "address"
        },
        {
          "internalType": "address",
          "name": "",
          "type": "address"
        },
        {
          "internalType": "string",
          "name": "",
          "type": "string"
        }
      ],
      "stateMutability": "view",
      "type": "function"
    },
    {
      "inputs": [
        {
          "internalType": "uint256",
          "name": "profileId",
          "type": "uint256"
        },
        {
          "internalType": "address",
          "name": "account",
          "type": "address"
        }
      ],
      "name": "isProfileOwner",
      "outputs": [
        {
          "internalType": "bool",
          "name": "",
          "type": "bool"
        }
      ],
      "stateMutability": "view",
      "type": "function"
    },
    {
      "inputs": [
        {
          "internalType": "address",
          "name": "owner",
          "type": "address"
        }
      ],
      "name": "ownersTotalProfiles",
      "outputs": [
        {
          "internalType": "uint256",
          "name": "",
          "type": "uint256"
        }
      ],
      "stateMutability": "view",
      "type": "function"
    },
    {
      "inputs": [],
      "name": "totalProfiles",
      "outputs": [
        {
          "internalType": "uint256",
          "name": "",
          "type": "uint256"
        }
      ],
      "stateMutability": "view",
      "type": "function"
    }
  ],
  "bytecode": "608060405234801561001057600080fd5b50610d4b806100206000396000f3fe608060405234801561001057600080fd5b506004361061007d5760003560e01c80634cdacbd71161005b5780634cdacbd7146101015780638b3658b114610116578063d2adbe7914610129578063f08f4f641461013157600080fd5b80632b726b6a146100825780632df8184a146100aa5780633414a7af146100e1575b600080fd5b61009561009036600461089c565b610153565b60405190151581526020015b60405180910390f35b6100d36100b83660046108c8565b6001600160a01b031660009081526004602052604090205490565b6040519081526020016100a1565b6100f46100ef3660046108c8565b610218565b6040516100a191906108ea565b61011461010f366004610977565b6102f8565b005b6100d36101243660046109e6565b6105a8565b6001546100d3565b61014461013f366004610a47565b610777565b6040516100a193929190610aa6565b6000826001548110604051806040016040528060018152602001603560f81b8152509061019c5760405162461bcd60e51b81526004016101939190610adb565b60405180910390fd5b506001600160a01b038316600090815260036020908152604080832060028352818420888552808452828520548086529184529184205493889052915214801561021057506001600160a01b0383166000908152600460209081526040808320546002835281842088855290925290912054105b949350505050565b6001600160a01b0381166000908152600460205260408120546060919067ffffffffffffffff81111561024d5761024d610aee565b604051908082528060200260200182016040528015610276578160200160208202803683370190505b50905060005b6001600160a01b0384166000908152600460205260409020548110156102f1576001600160a01b038416600090815260026020908152604080832084845290915290205482518390839081106102d4576102d4610b04565b6020908102919091010152806102e981610b30565b91505061027c565b5092915050565b846001548110604051806040016040528060018152602001603560f81b815250906103365760405162461bcd60e51b81526004016101939190610adb565b506000868152602081815260409182902054825180840190935260018352603160f81b918301919091528791906001600160a01b0316331461038b5760405162461bcd60e51b81526004016101939190610adb565b50336001600160a01b0387161461048957336000818152600260209081526040808320600383528184208c855283528184205484528083528184205494845260049092528220549091906103e190600190610b49565b8152602080820192909252604090810160009081209390935533808452600383528184208b8552835281842084905583526004909152812080549161042583610b62565b90915550506001600160a01b03861660008181526002602090815260408083206004808452828520805486529184528285208d90558585528154600385528386208e8752855292852083905594845293909152919061048383610b30565b91905055505b6040518060600160405280876001600160a01b03168152602001866001600160a01b0316815260200185858080601f01602080910402602001604051908101604052809392919081815260200183838082843760009201829052509390945250508981526020818152604091829020845181546001600160a01b03199081166001600160a01b039283161783559286015160018301805490941691161790915590830151909150600282019061053f9082610c02565b505050600087815260208190526040908190206001015490517f8ffd76d2c9bc923528f89f3a25419d388bb5d409e19d1b8a5ec8fda434ae681791610597918a918a916001600160a01b039091169089908990610cc2565b60405180910390a150505050505050565b6040805180820190915260018152603960f81b60208201526000906001600160a01b0386166105ea5760405162461bcd60e51b81526004016101939190610adb565b5060015490506040518060600160405280866001600160a01b03168152602001856001600160a01b0316815260200184848080601f01602080910402602001604051908101604052809392919081815260200183838082843760009201829052509390945250506001805482526020828152604092839020855181546001600160a01b03199081166001600160a01b0392831617835592870151938201805490931693169290921790559083015190915060028201906106aa9082610c02565b50506001546001600160a01b038716600081815260026020908152604080832060048084528285208054865291845282852087905585855281546003855283862097865296845291842086905593835290529192509061070983610b30565b90915550506001805490600061071e83610b30565b91905055507fe07a82fb082da6842de4d2ff9ec61981818d793022be8e22ae77cdff6aa1f1e6600180546107529190610b49565b86868686604051610767959493929190610cc2565b60405180910390a1949350505050565b6000806060836001548110604051806040016040528060018152602001603560f81b815250906107ba5760405162461bcd60e51b81526004016101939190610adb565b50600085815260208190526040902080546001820154600290920180546001600160a01b03928316939092169181906107f290610b79565b80601f016020809104026020016040519081016040528092919081815260200182805461081e90610b79565b801561086b5780601f106108405761010080835404028352916020019161086b565b820191906000526020600020905b81548152906001019060200180831161084e57829003601f168201915b50505050509050935093509350509193909250565b80356001600160a01b038116811461089757600080fd5b919050565b600080604083850312156108af57600080fd5b823591506108bf60208401610880565b90509250929050565b6000602082840312156108da57600080fd5b6108e382610880565b9392505050565b6020808252825182820181905260009190848201906040850190845b8181101561092257835183529284019291840191600101610906565b50909695505050505050565b60008083601f84011261094057600080fd5b50813567ffffffffffffffff81111561095857600080fd5b60208301915083602082850101111561097057600080fd5b9250929050565b60008060008060006080868803121561098f57600080fd5b8535945061099f60208701610880565b93506109ad60408701610880565b9250606086013567ffffffffffffffff8111156109c957600080fd5b6109d58882890161092e565b969995985093965092949392505050565b600080600080606085870312156109fc57600080fd5b610a0585610880565b9350610a1360208601610880565b9250604085013567ffffffffffffffff811115610a2f57600080fd5b610a3b8782880161092e565b95989497509550505050565b600060208284031215610a5957600080fd5b5035919050565b6000815180845260005b81811015610a8657602081850181015186830182015201610a6a565b506000602082860101526020601f19601f83011685010191505092915050565b6001600160a01b03848116825283166020820152606060408201819052600090610ad290830184610a60565b95945050505050565b6020815260006108e36020830184610a60565b634e487b7160e01b600052604160045260246000fd5b634e487b7160e01b600052603260045260246000fd5b634e487b7160e01b600052601160045260246000fd5b600060018201610b4257610b42610b1a565b5060010190565b81810381811115610b5c57610b5c610b1a565b92915050565b600081610b7157610b71610b1a565b506000190190565b600181811c90821680610b8d57607f821691505b602082108103610bad57634e487b7160e01b600052602260045260246000fd5b50919050565b601f821115610bfd57600081815260208120601f850160051c81016020861015610bda5750805b601f850160051c820191505b81811015610bf957828155600101610be6565b5050505b505050565b815167ffffffffffffffff811115610c1c57610c1c610aee565b610c3081610c2a8454610b79565b84610bb3565b602080601f831160018114610c655760008415610c4d5750858301515b600019600386901b1c1916600185901b178555610bf9565b600085815260208120601f198616915b82811015610c9457888601518255948401946001909101908401610c75565b5085821015610cb25787850151600019600388901b60f8161c191681555b5050505050600190811b01905550565b8581526001600160a01b0385811660208301528416604082015260806060820181905281018290526000828460a0840137600060a0848401015260a0601f19601f8501168301019050969550505050505056fea2646970667358221220952e3409bf4e9180a04a41d2b972025c2b85c1466c69acc6e36a05b988ba825164736f6c63430008100033",
  "bytecodeSha1": "72206d509abedc9e9093377054a44061cfaa5a00",
  "compiler": {
    "evm_version": "istanbul",
    "optimizer": {
      "enabled": true,
      "runs": 200
    },
    "version": "0.8.16+commit.07a7930e"
  },
  "contractName": "BBProfiles",
  "language": "Solidity",
  "natspec": {
    "kind": "dev",
    "methods": {},
    "version": 1
  },
  "opcodes": "PUSH1 0x80 PUSH1 0x40 MSTORE CALLVALUE DUP1 ISZERO PUSH2 0x10 JUMPI PUSH1 0x0 DUP1 REVERT JUMPDEST POP PUSH1 0x4 CALLDATASIZE LT PUSH2 0x7D JUMPI PUSH1 0x0 CALLDATALOAD PUSH1 0xE0 SHR DUP1 PUSH4 0x4CDACBD7 GT PUSH2 0x5B JUMPI DUP1 PUSH4 0x4CDACBD7 EQ PUSH2 0x101 JUMPI DUP1 PUSH4 0x8B3658B1 EQ PUSH2 0x116 JUMPI DUP1 PUSH4 0xD2ADBE79 EQ PUSH2 0x129 JUMPI DUP1 PUSH4 0xF08F4F64 EQ PUSH2 0x131 JUMPI PUSH1 0x0 DUP1 REVERT JUMPDEST DUP1 PUSH4 0x2B726B6A EQ PUSH2 0x82 JUMPI DUP1 PUSH4 0x2DF8184A EQ PUSH2 0xAA JUMPI DUP1 PUSH4 0x3414A7AF EQ PUSH2 0xE1 JUMPI JUMPDEST PUSH1 0x0 DUP1 REVERT JUMPDEST PUSH2 0x95 PUSH2 0x90 CALLDATASIZE PUSH1 0x4 PUSH2 0x89C JUMP JUMPDEST PUSH2 0x153 JUMP JUMPDEST PUSH1 0x40 MLOAD SWAP1 ISZERO ISZERO DUP2 MSTORE PUSH1 0x20 ADD JUMPDEST PUSH1 0x40 MLOAD DUP1 SWAP2 SUB SWAP1 RETURN JUMPDEST PUSH2 0xD3 PUSH2 0xB8 CALLDATASIZE PUSH1 0x4 PUSH2 0x8C8 JUMP JUMPDEST PUSH1 0x1 PUSH1 0x1 PUSH1 0xA0 SHL SUB AND PUSH1 0x0 SWAP1 DUP2 MSTORE PUSH1 0x4 PUSH1 0x20 MSTORE PUSH1 0x40 SWAP1 KECCAK256 SLOAD SWAP1 JUMP JUMPDEST PUSH1 0x40 MLOAD SWAP1 DUP2 MSTORE PUSH1 0x20 ADD PUSH2 0xA1 JUMP JUMPDEST PUSH2 0xF4 PUSH2 0xEF CALLDATASIZE PUSH1 0x4 PUSH2 0x8C8 JUMP JUMPDEST PUSH2 0x218 JUMP JUMPDEST PUSH1 0x40 MLOAD PUSH2 0xA1 SWAP2 SWAP1 PUSH2 0x8EA JUMP JUMPDEST PUSH2 0x114 PUSH2 0x10F CALLDATASIZE PUSH1 0x4 PUSH2 0x977 JUMP JUMPDEST PUSH2 0x2F8 JUMP JUMPDEST STOP JUMPDEST PUSH2 0xD3 PUSH2 0x124 CALLDATASIZE PUSH1 0x4 PUSH2 0x9E6 JUMP JUMPDEST PUSH2 0x5A8 JUMP JUMPDEST PUSH1 0x1 SLOAD PUSH2 0xD3 JUMP JUMPDEST PUSH2 0x144 PUSH2 0x13F CALLDATASIZE PUSH1 0x4 PUSH2 0xA47 JUMP JUMPDEST PUSH2 0x777 JUMP JUMPDEST PUSH1 0x40 MLOAD PUSH2 0xA1 SWAP4 SWAP3 SWAP2 SWAP1 PUSH2 0xAA6 JUMP JUMPDEST PUSH1 0x0 DUP3 PUSH1 0x1 SLOAD DUP2 LT PUSH1 0x40 MLOAD DUP1 PUSH1 0x40 ADD PUSH1 0x40 MSTORE DUP1 PUSH1 0x1 DUP2 MSTORE PUSH1 0x20 ADD PUSH1 0x35 PUSH1 0xF8 SHL DUP2 MSTORE POP SWAP1 PUSH2 0x19C JUMPI PUSH1 0x40 MLOAD PUSH3 0x461BCD PUSH1 0xE5 SHL DUP2 MSTORE PUSH1 0x4 ADD PUSH2 0x193 SWAP2 SWAP1 PUSH2 0xADB JUMP JUMPDEST PUSH1 0x40 MLOAD DUP1 SWAP2 SUB SWAP1 REVERT JUMPDEST POP PUSH1 0x1 PUSH1 0x1 PUSH1 0xA0 SHL SUB DUP4 AND PUSH1 0x0 SWAP1 DUP2 MSTORE PUSH1 0x3 PUSH1 0x20 SWAP1 DUP2 MSTORE PUSH1 0x40 DUP1 DUP4 KECCAK256 PUSH1 0x2 DUP4 MSTORE DUP2 DUP5 KECCAK256 DUP9 DUP6 MSTORE DUP1 DUP5 MSTORE DUP3 DUP6 KECCAK256 SLOAD DUP1 DUP7 MSTORE SWAP2 DUP5 MSTORE SWAP2 DUP5 KECCAK256 SLOAD SWAP4 DUP9 SWAP1 MSTORE SWAP2 MSTORE EQ DUP1 ISZERO PUSH2 0x210 JUMPI POP PUSH1 0x1 PUSH1 0x1 PUSH1 0xA0 SHL SUB DUP4 AND PUSH1 0x0 SWAP1 DUP2 MSTORE PUSH1 0x4 PUSH1 0x20 SWAP1 DUP2 MSTORE PUSH1 0x40 DUP1 DUP4 KECCAK256 SLOAD PUSH1 0x2 DUP4 MSTORE DUP2 DUP5 KECCAK256 DUP9 DUP6 MSTORE SWAP1 SWAP3 MSTORE SWAP1 SWAP2 KECCAK256 SLOAD LT JUMPDEST SWAP5 SWAP4 POP POP POP POP JUMP JUMPDEST PUSH1 0x1 PUSH1 0x1 PUSH1 0xA0 SHL SUB DUP2 AND PUSH1 0x0 SWAP1 DUP2 MSTORE PUSH1 0x4 PUSH1 0x20 MSTORE PUSH1 0x40 DUP2 KECCAK256 SLOAD PUSH1 0x60 SWAP2 SWAP1 PUSH8 0xFFFFFFFFFFFFFFFF DUP2 GT ISZERO PUSH2 0x24D JUMPI PUSH2 0x24D PUSH2 0xAEE JUMP JUMPDEST PUSH1 0x40 MLOAD SWAP1 DUP1 DUP3 MSTORE DUP1 PUSH1 0x20 MUL PUSH1 0x20 ADD DUP3 ADD PUSH1 0x40 MSTORE DUP1 ISZERO PUSH2 0x276 JUMPI DUP2 PUSH1 0x20 ADD PUSH1 0x20 DUP3 MUL DUP1 CALLDATASIZE DUP4 CALLDATACOPY ADD SWAP1 POP JUMPDEST POP SWAP1 POP PUSH1 0x0 JUMPDEST PUSH1 0x1 PUSH1 0x1 PUSH1 0xA0 SHL SUB DUP5 AND PUSH1 0x0 SWAP1 DUP2 MSTORE PUSH1 0x4 PUSH1 0x20 MSTORE PUSH1 0x40 SWAP1 KECCAK256 SLOAD DUP2 LT ISZERO PUSH2 0x2F1 JUMPI PUSH1 0x1 PUSH1 0x1 PUSH1 0xA0 SHL SUB DUP5 AND PUSH1 0x0 SWAP1 DUP2 MSTORE PUSH1 0x2 PUSH1 0x20 SWAP1 DUP2 MSTORE PUSH1 0x40 DUP1 DUP4 KECCAK256 DUP5 DUP5 MSTORE SWAP1 SWAP2 MSTORE SWAP1 KECCAK256 SLOAD DUP3 MLOAD DUP4 SWAP1 DUP4 SWAP1 DUP2 LT PUSH2 0x2D4 JUMPI PUSH2 0x2D4 PUSH2 0xB04 JUMP JUMPDEST PUSH1 0x20 SWAP1 DUP2 MUL SWAP2 SWAP1 SWAP2 ADD ADD MSTORE DUP1 PUSH2 0x2E9 DUP2 PUSH2 0xB30 JUMP JUMPDEST SWAP2 POP POP PUSH2 0x27C JUMP JUMPDEST POP SWAP3 SWAP2 POP POP JUMP JUMPDEST DUP5 PUSH1 0x1 SLOAD DUP2 LT PUSH1 0x40 MLOAD DUP1 PUSH1 0x40 ADD PUSH1 0x40 MSTORE DUP1 PUSH1 0x1 DUP2 MSTORE PUSH1 0x20 ADD PUSH1 0x35 PUSH1 0xF8 SHL DUP2 MSTORE POP SWAP1 PUSH2 0x336 JUMPI PUSH1 0x40 MLOAD PUSH3 0x461BCD PUSH1 0xE5 SHL DUP2 MSTORE PUSH1 0x4 ADD PUSH2 0x193 SWAP2 SWAP1 PUSH2 0xADB JUMP JUMPDEST POP PUSH1 0x0 DUP7 DUP2 MSTORE PUSH1 0x20 DUP2 DUP2 MSTORE PUSH1 0x40 SWAP2 DUP3 SWAP1 KECCAK256 SLOAD DUP3 MLOAD DUP1 DUP5 ADD SWAP1 SWAP4 MSTORE PUSH1 0x1 DUP4 MSTORE PUSH1 0x31 PUSH1 0xF8 SHL SWAP2 DUP4 ADD SWAP2 SWAP1 SWAP2 MSTORE DUP8 SWAP2 SWAP1 PUSH1 0x1 PUSH1 0x1 PUSH1 0xA0 SHL SUB AND CALLER EQ PUSH2 0x38B JUMPI PUSH1 0x40 MLOAD PUSH3 0x461BCD PUSH1 0xE5 SHL DUP2 MSTORE PUSH1 0x4 ADD PUSH2 0x193 SWAP2 SWAP1 PUSH2 0xADB JUMP JUMPDEST POP CALLER PUSH1 0x1 PUSH1 0x1 PUSH1 0xA0 SHL SUB DUP8 AND EQ PUSH2 0x489 JUMPI CALLER PUSH1 0x0 DUP2 DUP2 MSTORE PUSH1 0x2 PUSH1 0x20 SWAP1 DUP2 MSTORE PUSH1 0x40 DUP1 DUP4 KECCAK256 PUSH1 0x3 DUP4 MSTORE DUP2 DUP5 KECCAK256 DUP13 DUP6 MSTORE DUP4 MSTORE DUP2 DUP5 KECCAK256 SLOAD DUP5 MSTORE DUP1 DUP4 MSTORE DUP2 DUP5 KECCAK256 SLOAD SWAP5 DUP5 MSTORE PUSH1 0x4 SWAP1 SWAP3 MSTORE DUP3 KECCAK256 SLOAD SWAP1 SWAP2 SWAP1 PUSH2 0x3E1 SWAP1 PUSH1 0x1 SWAP1 PUSH2 0xB49 JUMP JUMPDEST DUP2 MSTORE PUSH1 0x20 DUP1 DUP3 ADD SWAP3 SWAP1 SWAP3 MSTORE PUSH1 0x40 SWAP1 DUP2 ADD PUSH1 0x0 SWAP1 DUP2 KECCAK256 SWAP4 SWAP1 SWAP4 SSTORE CALLER DUP1 DUP5 MSTORE PUSH1 0x3 DUP4 MSTORE DUP2 DUP5 KECCAK256 DUP12 DUP6 MSTORE DUP4 MSTORE DUP2 DUP5 KECCAK256 DUP5 SWAP1 SSTORE DUP4 MSTORE PUSH1 0x4 SWAP1 SWAP2 MSTORE DUP2 KECCAK256 DUP1 SLOAD SWAP2 PUSH2 0x425 DUP4 PUSH2 0xB62 JUMP JUMPDEST SWAP1 SWAP2 SSTORE POP POP PUSH1 0x1 PUSH1 0x1 PUSH1 0xA0 SHL SUB DUP7 AND PUSH1 0x0 DUP2 DUP2 MSTORE PUSH1 0x2 PUSH1 0x20 SWAP1 DUP2 MSTORE PUSH1 0x40 DUP1 DUP4 KECCAK256 PUSH1 0x4 DUP1 DUP5 MSTORE DUP3 DUP6 KECCAK256 DUP1 SLOAD DUP7 MSTORE SWAP2 DUP5 MSTORE DUP3 DUP6 KECCAK256 DUP14 SWAP1 SSTORE DUP6 DUP6 MSTORE DUP2 SLOAD PUSH1 0x3 DUP6 MSTORE DUP4 DUP7 KECCAK256 DUP15 DUP8 MSTORE DUP6 MSTORE SWAP3 DUP6 KECCAK256 DUP4 SWAP1 SSTORE SWAP5 DUP5 MSTORE SWAP4 SWAP1 SWAP2 MSTORE SWAP2 SWAP1 PUSH2 0x483 DUP4 PUSH2 0xB30 JUMP JUMPDEST SWAP2 SWAP1 POP SSTORE POP JUMPDEST PUSH1 0x40 MLOAD DUP1 PUSH1 0x60 ADD PUSH1 0x40 MSTORE DUP1 DUP8 PUSH1 0x1 PUSH1 0x1 PUSH1 0xA0 SHL SUB AND DUP2 MSTORE PUSH1 0x20 ADD DUP7 PUSH1 0x1 PUSH1 0x1 PUSH1 0xA0 SHL SUB AND DUP2 MSTORE PUSH1 0x20 ADD DUP6 DUP6 DUP1 DUP1 PUSH1 0x1F ADD PUSH1 0x20 DUP1 SWAP2 DIV MUL PUSH1 0x20 ADD PUSH1 0x40 MLOAD SWAP1 DUP2 ADD PUSH1 0x40 MSTORE DUP1 SWAP4 SWAP3 SWAP2 SWAP1 DUP2 DUP2 MSTORE PUSH1 0x20 ADD DUP4 DUP4 DUP1 DUP3 DUP5 CALLDATACOPY PUSH1 0x0 SWAP3 ADD DUP3 SWAP1 MSTORE POP SWAP4 SWAP1 SWAP5 MSTORE POP POP DUP10 DUP2 MSTORE PUSH1 0x20 DUP2 DUP2 MSTORE PUSH1 0x40 SWAP2 DUP3 SWAP1 KECCAK256 DUP5 MLOAD DUP2 SLOAD PUSH1 0x1 PUSH1 0x1 PUSH1 0xA0 SHL SUB NOT SWAP1 DUP2 AND PUSH1 0x1 PUSH1 0x1 PUSH1 0xA0 SHL SUB SWAP3 DUP4 AND OR DUP4 SSTORE SWAP3 DUP7 ADD MLOAD PUSH1 0x1 DUP4 ADD DUP1 SLOAD SWAP1 SWAP5 AND SWAP2 AND OR SWAP1 SWAP2 SSTORE SWAP1 DUP4 ADD MLOAD SWAP1 SWAP2 POP PUSH1 0x2 DUP3 ADD SWAP1 PUSH2 0x53F SWAP1 DUP3 PUSH2 0xC02 JUMP JUMPDEST POP POP POP PUSH1 0x0 DUP8 DUP2 MSTORE PUSH1 0x20 DUP2 SWAP1 MSTORE PUSH1 0x40 SWAP1 DUP2 SWAP1 KECCAK256 PUSH1 0x1 ADD SLOAD SWAP1 MLOAD PUSH32 0x8FFD76D2C9BC923528F89F3A25419D388BB5D409E19D1B8A5EC8FDA434AE6817 SWAP2 PUSH2 0x597 SWAP2 DUP11 SWAP2 DUP11 SWAP2 PUSH1 0x1 PUSH1 0x1 PUSH1 0xA0 SHL SUB SWAP1 SWAP2 AND SWAP1 DUP10 SWAP1 DUP10 SWAP1 PUSH2 0xCC2 JUMP JUMPDEST PUSH1 0x40 MLOAD DUP1 SWAP2 SUB SWAP1 LOG1 POP POP POP POP POP POP POP JUMP JUMPDEST PUSH1 0x40 DUP1 MLOAD DUP1 DUP3 ADD SWAP1 SWAP2 MSTORE PUSH1 0x1 DUP2 MSTORE PUSH1 0x39 PUSH1 0xF8 SHL PUSH1 0x20 DUP3 ADD MSTORE PUSH1 0x0 SWAP1 PUSH1 0x1 PUSH1 0x1 PUSH1 0xA0 SHL SUB DUP7 AND PUSH2 0x5EA JUMPI PUSH1 0x40 MLOAD PUSH3 0x461BCD PUSH1 0xE5 SHL DUP2 MSTORE PUSH1 0x4 ADD PUSH2 0x193 SWAP2 SWAP1 PUSH2 0xADB JUMP JUMPDEST POP PUSH1 0x1 SLOAD SWAP1 POP PUSH1 0x40 MLOAD DUP1 PUSH1 0x60 ADD PUSH1 0x40 MSTORE DUP1 DUP7 PUSH1 0x1 PUSH1 0x1 PUSH1 0xA0 SHL SUB AND DUP2 MSTORE PUSH1 0x20 ADD DUP6 PUSH1 0x1 PUSH1 0x1 PUSH1 0xA0 SHL SUB AND DUP2 MSTORE PUSH1 0x20 ADD DUP5 DUP5 DUP1 DUP1 PUSH1 0x1F ADD PUSH1 0x20 DUP1 SWAP2 DIV MUL PUSH1 0x20 ADD PUSH1 0x40 MLOAD SWAP1 DUP2 ADD PUSH1 0x40 MSTORE DUP1 SWAP4 SWAP3 SWAP2 SWAP1 DUP2 DUP2 MSTORE PUSH1 0x20 ADD DUP4 DUP4 DUP1 DUP3 DUP5 CALLDATACOPY PUSH1 0x0 SWAP3 ADD DUP3 SWAP1 MSTORE POP SWAP4 SWAP1 SWAP5 MSTORE POP POP PUSH1 0x1 DUP1 SLOAD DUP3 MSTORE PUSH1 0x20 DUP3 DUP2 MSTORE PUSH1 0x40 SWAP3 DUP4 SWAP1 KECCAK256 DUP6 MLOAD DUP2 SLOAD PUSH1 0x1 PUSH1 0x1 PUSH1 0xA0 SHL SUB NOT SWAP1 DUP2 AND PUSH1 0x1 PUSH1 0x1 PUSH1 0xA0 SHL SUB SWAP3 DUP4 AND OR DUP4 SSTORE SWAP3 DUP8 ADD MLOAD SWAP4 DUP3 ADD DUP1 SLOAD SWAP1 SWAP4 AND SWAP4 AND SWAP3 SWAP1 SWAP3 OR SWAP1 SSTORE SWAP1 DUP4 ADD MLOAD SWAP1 SWAP2 POP PUSH1 0x2 DUP3 ADD SWAP1 PUSH2 0x6AA SWAP1 DUP3 PUSH2 0xC02 JUMP JUMPDEST POP POP PUSH1 0x1 SLOAD PUSH1 0x1 PUSH1 0x1 PUSH1 0xA0 SHL SUB DUP8 AND PUSH1 0x0 DUP2 DUP2 MSTORE PUSH1 0x2 PUSH1 0x20 SWAP1 DUP2 MSTORE PUSH1 0x40 DUP1 DUP4 KECCAK256 PUSH1 0x4 DUP1 DUP5 MSTORE DUP3 DUP6 KECCAK256 DUP1 SLOAD DUP7 MSTORE SWAP2 DUP5 MSTORE DUP3 DUP6 KECCAK256 DUP8 SWAP1 SSTORE DUP6 DUP6 MSTORE DUP2 SLOAD PUSH1 0x3 DUP6 MSTORE DUP4 DUP7 KECCAK256 SWAP8 DUP7 MSTORE SWAP7 DUP5 MSTORE SWAP2 DUP5 KECCAK256 DUP7 SWAP1 SSTORE SWAP4 DUP4 MSTORE SWAP1 MSTORE SWAP2 SWAP3 POP SWAP1 PUSH2 0x709 DUP4 PUSH2 0xB30 JUMP JUMPDEST SWAP1 SWAP2 SSTORE POP POP PUSH1 0x1 DUP1 SLOAD SWAP1 PUSH1 0x0 PUSH2 0x71E DUP4 PUSH2 0xB30 JUMP JUMPDEST SWAP2 SWAP1 POP SSTORE POP PUSH32 0xE07A82FB082DA6842DE4D2FF9EC61981818D793022BE8E22AE77CDFF6AA1F1E6 PUSH1 0x1 DUP1 SLOAD PUSH2 0x752 SWAP2 SWAP1 PUSH2 0xB49 JUMP JUMPDEST DUP7 DUP7 DUP7 DUP7 PUSH1 0x40 MLOAD PUSH2 0x767 SWAP6 SWAP5 SWAP4 SWAP3 SWAP2 SWAP1 PUSH2 0xCC2 JUMP JUMPDEST PUSH1 0x40 MLOAD DUP1 SWAP2 SUB SWAP1 LOG1 SWAP5 SWAP4 POP POP POP POP JUMP JUMPDEST PUSH1 0x0 DUP1 PUSH1 0x60 DUP4 PUSH1 0x1 SLOAD DUP2 LT PUSH1 0x40 MLOAD DUP1 PUSH1 0x40 ADD PUSH1 0x40 MSTORE DUP1 PUSH1 0x1 DUP2 MSTORE PUSH1 0x20 ADD PUSH1 0x35 PUSH1 0xF8 SHL DUP2 MSTORE POP SWAP1 PUSH2 0x7BA JUMPI PUSH1 0x40 MLOAD PUSH3 0x461BCD PUSH1 0xE5 SHL DUP2 MSTORE PUSH1 0x4 ADD PUSH2 0x193 SWAP2 SWAP1 PUSH2 0xADB JUMP JUMPDEST POP PUSH1 0x0 DUP6 DUP2 MSTORE PUSH1 0x20 DUP2 SWAP1 MSTORE PUSH1 0x40 SWAP1 KECCAK256 DUP1 SLOAD PUSH1 0x1 DUP3 ADD SLOAD PUSH1 0x2 SWAP1 SWAP3 ADD DUP1 SLOAD PUSH1 0x1 PUSH1 0x1 PUSH1 0xA0 SHL SUB SWAP3 DUP4 AND SWAP4 SWAP1 SWAP3 AND SWAP2 DUP2 SWAP1 PUSH2 0x7F2 SWAP1 PUSH2 0xB79 JUMP JUMPDEST DUP1 PUSH1 0x1F ADD PUSH1 0x20 DUP1 SWAP2 DIV MUL PUSH1 0x20 ADD PUSH1 0x40 MLOAD SWAP1 DUP2 ADD PUSH1 0x40 MSTORE DUP1 SWAP3 SWAP2 SWAP1 DUP2 DUP2 MSTORE PUSH1 0x20 ADD DUP3 DUP1 SLOAD PUSH2 0x81E SWAP1 PUSH2 0xB79 JUMP JUMPDEST DUP1 ISZERO PUSH2 0x86B JUMPI DUP1 PUSH1 0x1F LT PUSH2 0x840 JUMPI PUSH2 0x100 DUP1 DUP4 SLOAD DIV MUL DUP4 MSTORE SWAP2 PUSH1 0x20 ADD SWAP2 PUSH2 0x86B JUMP JUMPDEST DUP3 ADD SWAP2 SWAP1 PUSH1 0x0 MSTORE PUSH1 0x20 PUSH1 0x0 KECCAK256 SWAP1 JUMPDEST DUP2 SLOAD DUP2 MSTORE SWAP1 PUSH1 0x1 ADD SWAP1 PUSH1 0x20 ADD DUP1 DUP4 GT PUSH2 0x84E JUMPI DUP3 SWAP1 SUB PUSH1 0x1F AND DUP3 ADD SWAP2 JUMPDEST POP POP POP POP POP SWAP1 POP SWAP4 POP SWAP4 POP SWAP4 POP POP SWAP2 SWAP4 SWAP1 SWAP3 POP JUMP JUMPDEST DUP1 CALLDATALOAD PUSH1 0x1 PUSH1 0x1 PUSH1 0xA0 SHL SUB DUP2 AND DUP2 EQ PUSH2 0x897 JUMPI PUSH1 0x0 DUP1 REVERT JUMPDEST SWAP2 SWAP1 POP JUMP JUMPDEST PUSH1 0x0 DUP1 PUSH1 0x40 DUP4 DUP6 SUB SLT ISZERO PUSH2 0x8AF JUMPI PUSH1 0x0 DUP1 REVERT JUMPDEST DUP3 CALLDATALOAD SWAP2 POP PUSH2 0x8BF PUSH1 0x20 DUP5 ADD PUSH2 0x880 JUMP JUMPDEST SWAP1 POP SWAP3 POP SWAP3 SWAP1 POP JUMP JUMPDEST PUSH1 0x0 PUSH1 0x20 DUP3 DUP5 SUB SLT ISZERO PUSH2 0x8DA JUMPI PUSH1 0x0 DUP1 REVERT JUMPDEST PUSH2 0x8E3 DUP3 PUSH2 0x880 JUMP JUMPDEST SWAP4 SWAP3 POP POP POP JUMP JUMPDEST PUSH1 0x20 DUP1 DUP3 MSTORE DUP3 MLOAD DUP3 DUP3 ADD DUP2 SWAP1 MSTORE PUSH1 0x0 SWAP2 SWAP1 DUP5 DUP3 ADD SWAP1 PUSH1 0x40 DUP6 ADD SWAP1 DUP5 JUMPDEST DUP2 DUP2 LT ISZERO PUSH2 0x922 JUMPI DUP4 MLOAD DUP4 MSTORE SWAP3 DUP5 ADD SWAP3 SWAP2 DUP5 ADD SWAP2 PUSH1 0x1 ADD PUSH2 0x906 JUMP JUMPDEST POP SWAP1 SWAP7 SWAP6 POP POP POP POP POP POP JUMP JUMPDEST PUSH1 0x0 DUP1 DUP4 PUSH1 0x1F DUP5 ADD SLT PUSH2 0x940 JUMPI PUSH1 0x0 DUP1 REVERT JUMPDEST POP DUP2 CALLDATALOAD PUSH8 0xFFFFFFFFFFFFFFFF DUP2 GT ISZERO PUSH2 0x958 JUMPI PUSH1 0x0 DUP1 REVERT JUMPDEST PUSH1 0x20 DUP4 ADD SWAP2 POP DUP4 PUSH1 0x20 DUP3 DUP6 ADD ADD GT ISZERO PUSH2 0x970 JUMPI PUSH1 0x0 DUP1 REVERT JUMPDEST SWAP3 POP SWAP3 SWAP1 POP JUMP JUMPDEST PUSH1 0x0 DUP1 PUSH1 0x0 DUP1 PUSH1 0x0 PUSH1 0x80 DUP7 DUP9 SUB SLT ISZERO PUSH2 0x98F JUMPI PUSH1 0x0 DUP1 REVERT JUMPDEST DUP6 CALLDATALOAD SWAP5 POP PUSH2 0x99F PUSH1 0x20 DUP8 ADD PUSH2 0x880 JUMP JUMPDEST SWAP4 POP PUSH2 0x9AD PUSH1 0x40 DUP8 ADD PUSH2 0x880 JUMP JUMPDEST SWAP3 POP PUSH1 0x60 DUP7 ADD CALLDATALOAD PUSH8 0xFFFFFFFFFFFFFFFF DUP2 GT ISZERO PUSH2 0x9C9 JUMPI PUSH1 0x0 DUP1 REVERT JUMPDEST PUSH2 0x9D5 DUP9 DUP3 DUP10 ADD PUSH2 0x92E JUMP JUMPDEST SWAP7 SWAP10 SWAP6 SWAP9 POP SWAP4 SWAP7 POP SWAP3 SWAP5 SWAP4 SWAP3 POP POP POP JUMP JUMPDEST PUSH1 0x0 DUP1 PUSH1 0x0 DUP1 PUSH1 0x60 DUP6 DUP8 SUB SLT ISZERO PUSH2 0x9FC JUMPI PUSH1 0x0 DUP1 REVERT JUMPDEST PUSH2 0xA05 DUP6 PUSH2 0x880 JUMP JUMPDEST SWAP4 POP PUSH2 0xA13 PUSH1 0x20 DUP7 ADD PUSH2 0x880 JUMP JUMPDEST SWAP3 POP PUSH1 0x40 DUP6 ADD CALLDATALOAD PUSH8 0xFFFFFFFFFFFFFFFF DUP2 GT ISZERO PUSH2 0xA2F JUMPI PUSH1 0x0 DUP1 REVERT JUMPDEST PUSH2 0xA3B DUP8 DUP3 DUP9 ADD PUSH2 0x92E JUMP JUMPDEST SWAP6 SWAP9 SWAP5 SWAP8 POP SWAP6 POP POP POP POP JUMP JUMPDEST PUSH1 0x0 PUSH1 0x20 DUP3 DUP5 SUB SLT ISZERO PUSH2 0xA59 JUMPI PUSH1 0x0 DUP1 REVERT JUMPDEST POP CALLDATALOAD SWAP2 SWAP1 POP JUMP JUMPDEST PUSH1 0x0 DUP2 MLOAD DUP1 DUP5 MSTORE PUSH1 0x0 JUMPDEST DUP2 DUP2 LT ISZERO PUSH2 0xA86 JUMPI PUSH1 0x20 DUP2 DUP6 ADD DUP2 ADD MLOAD DUP7 DUP4 ADD DUP3 ADD MSTORE ADD PUSH2 0xA6A JUMP JUMPDEST POP PUSH1 0x0 PUSH1 0x20 DUP3 DUP7 ADD ADD MSTORE PUSH1 0x20 PUSH1 0x1F NOT PUSH1 0x1F DUP4 ADD AND DUP6 ADD ADD SWAP2 POP POP SWAP3 SWAP2 POP POP JUMP JUMPDEST PUSH1 0x1 PUSH1 0x1 PUSH1 0xA0 SHL SUB DUP5 DUP2 AND DUP3 MSTORE DUP4 AND PUSH1 0x20 DUP3 ADD MSTORE PUSH1 0x60 PUSH1 0x40 DUP3 ADD DUP2 SWAP1 MSTORE PUSH1 0x0 SWAP1 PUSH2 0xAD2 SWAP1 DUP4 ADD DUP5 PUSH2 0xA60 JUMP JUMPDEST SWAP6 SWAP5 POP POP POP POP POP JUMP JUMPDEST PUSH1 0x20 DUP2 MSTORE PUSH1 0x0 PUSH2 0x8E3 PUSH1 0x20 DUP4 ADD DUP5 PUSH2 0xA60 JUMP JUMPDEST PUSH4 0x4E487B71 PUSH1 0xE0 SHL PUSH1 0x0 MSTORE PUSH1 0x41 PUSH1 0x4 MSTORE PUSH1 0x24 PUSH1 0x0 REVERT JUMPDEST PUSH4 0x4E487B71 PUSH1 0xE0 SHL PUSH1 0x0 MSTORE PUSH1 0x32 PUSH1 0x4 MSTORE PUSH1 0x24 PUSH1 0x0 REVERT JUMPDEST PUSH4 0x4E487B71 PUSH1 0xE0 SHL PUSH1 0x0 MSTORE PUSH1 0x11 PUSH1 0x4 MSTORE PUSH1 0x24 PUSH1 0x0 REVERT JUMPDEST PUSH1 0x0 PUSH1 0x1 DUP3 ADD PUSH2 0xB42 JUMPI PUSH2 0xB42 PUSH2 0xB1A JUMP JUMPDEST POP PUSH1 0x1 ADD SWAP1 JUMP JUMPDEST DUP2 DUP2 SUB DUP2 DUP2 GT ISZERO PUSH2 0xB5C JUMPI PUSH2 0xB5C PUSH2 0xB1A JUMP JUMPDEST SWAP3 SWAP2 POP POP JUMP JUMPDEST PUSH1 0x0 DUP2 PUSH2 0xB71 JUMPI PUSH2 0xB71 PUSH2 0xB1A JUMP JUMPDEST POP PUSH1 0x0 NOT ADD SWAP1 JUMP JUMPDEST PUSH1 0x1 DUP2 DUP2 SHR SWAP1 DUP3 AND DUP1 PUSH2 0xB8D JUMPI PUSH1 0x7F DUP3 AND SWAP2 POP JUMPDEST PUSH1 0x20 DUP3 LT DUP2 SUB PUSH2 0xBAD JUMPI PUSH4 0x4E487B71 PUSH1 0xE0 SHL PUSH1 0x0 MSTORE PUSH1 0x22 PUSH1 0x4 MSTORE PUSH1 0x24 PUSH1 0x0 REVERT JUMPDEST POP SWAP2 SWAP1 POP JUMP JUMPDEST PUSH1 0x1F DUP3 GT ISZERO PUSH2 0xBFD JUMPI PUSH1 0x0 DUP2 DUP2 MSTORE PUSH1 0x20 DUP2 KECCAK256 PUSH1 0x1F DUP6 ADD PUSH1 0x5 SHR DUP2 ADD PUSH1 0x20 DUP7 LT ISZERO PUSH2 0xBDA JUMPI POP DUP1 JUMPDEST PUSH1 0x1F DUP6 ADD PUSH1 0x5 SHR DUP3 ADD SWAP2 POP JUMPDEST DUP2 DUP2 LT ISZERO PUSH2 0xBF9 JUMPI DUP3 DUP2 SSTORE PUSH1 0x1 ADD PUSH2 0xBE6 JUMP JUMPDEST POP POP POP JUMPDEST POP POP POP JUMP JUMPDEST DUP2 MLOAD PUSH8 0xFFFFFFFFFFFFFFFF DUP2 GT ISZERO PUSH2 0xC1C JUMPI PUSH2 0xC1C PUSH2 0xAEE JUMP JUMPDEST PUSH2 0xC30 DUP2 PUSH2 0xC2A DUP5 SLOAD PUSH2 0xB79 JUMP JUMPDEST DUP5 PUSH2 0xBB3 JUMP JUMPDEST PUSH1 0x20 DUP1 PUSH1 0x1F DUP4 GT PUSH1 0x1 DUP2 EQ PUSH2 0xC65 JUMPI PUSH1 0x0 DUP5 ISZERO PUSH2 0xC4D JUMPI POP DUP6 DUP4 ADD MLOAD JUMPDEST PUSH1 0x0 NOT PUSH1 0x3 DUP7 SWAP1 SHL SHR NOT AND PUSH1 0x1 DUP6 SWAP1 SHL OR DUP6 SSTORE PUSH2 0xBF9 JUMP JUMPDEST PUSH1 0x0 DUP6 DUP2 MSTORE PUSH1 0x20 DUP2 KECCAK256 PUSH1 0x1F NOT DUP7 AND SWAP2 JUMPDEST DUP3 DUP2 LT ISZERO PUSH2 0xC94 JUMPI DUP9 DUP7 ADD MLOAD DUP3 SSTORE SWAP5 DUP5 ADD SWAP5 PUSH1 0x1 SWAP1 SWAP2 ADD SWAP1 DUP5 ADD PUSH2 0xC75 JUMP JUMPDEST POP DUP6 DUP3 LT ISZERO PUSH2 0xCB2 JUMPI DUP8 DUP6 ADD MLOAD PUSH1 0x0 NOT PUSH1 0x3 DUP9 SWAP1 SHL PUSH1 0xF8 AND SHR NOT AND DUP2 SSTORE JUMPDEST POP POP POP POP POP PUSH1 0x1 SWAP1 DUP2 SHL ADD SWAP1 SSTORE POP JUMP JUMPDEST DUP6 DUP2 MSTORE PUSH1 0x1 PUSH1 0x1 PUSH1 0xA0 SHL SUB DUP6 DUP2 AND PUSH1 0x20 DUP4 ADD MSTORE DUP5 AND PUSH1 0x40 DUP3 ADD MSTORE PUSH1 0x80 PUSH1 0x60 DUP3 ADD DUP2 SWAP1 MSTORE DUP2 ADD DUP3 SWAP1 MSTORE PUSH1 0x0 DUP3 DUP5 PUSH1 0xA0 DUP5 ADD CALLDATACOPY PUSH1 0x0 PUSH1 0xA0 DUP5 DUP5 ADD ADD MSTORE PUSH1 0xA0 PUSH1 0x1F NOT PUSH1 0x1F DUP6 ADD AND DUP4 ADD ADD SWAP1 POP SWAP7 SWAP6 POP POP POP POP POP POP JUMP INVALID LOG2 PUSH5 0x6970667358 0x22 SLT KECCAK256 SWAP6 0x2E CALLVALUE MULMOD 0xBF 0x4E SWAP2 DUP1 LOG0 0x4A COINBASE 0xD2 0xB9 PUSH19 0x25C2B85C1466C69ACC6E36A05B988BA825164 PUSH20 0x6F6C634300081000330000000000000000000000 ",
  "sha1": "bd666ef82ed2e0ff5d978798117bd22ebb9aa2d6",
  "source": "// SPDX-License-Identifier: MIT\npragma solidity ^0.8.11;\n\nimport \"./BBErrorsV01.sol\";\nimport \"./interfaces/IBBProfiles.sol\";\n\ncontract BBProfiles is IBBProfiles {\n    event NewProfile(\n        uint256 profileId,\n        address owner,\n        address receiver,\n        string cid\n    );\n\n    event EditProfile(\n        uint256 profileId,\n        address owner,\n        address receiver,\n        string cid\n    );\n\n    struct Profile {\n        address owner;\n        address receiver;\n        string cid;\n    }\n\n    mapping(uint256 => Profile) internal _profiles;\n\n    uint256 internal _totalProfiles;\n\n    // Owner => Total index => Profile ID\n    mapping(address => mapping(uint256 => uint256)) private _ownedProfiles;\n    // Owner => Profile ID => Total index\n    mapping(address => mapping(uint256 => uint256)) private _ownedProfilesIndexes;\n    // Owner => Total profiles owned\n    mapping(address => uint256) private _ownersTotalProfiles;\n\n    constructor() {\n\n    }\n\n    modifier onlyProfileOwner(uint256 profileId) {\n        require(_profiles[profileId].owner == msg.sender, BBErrorCodesV01.NOT_OWNER);\n        _;\n    }\n\n    modifier profileExists(uint256 profileId) {\n      require(profileId < _totalProfiles, BBErrorCodesV01.PROFILE_NOT_EXIST);\n      _;\n    }\n\n    /*\n        @notice Creates a new profile\n\n        @param Profile owner\n        @param Profiles revenue receiver\n        @param Profile CID\n    */\n    function createProfile(address owner, address receiver, string calldata cid) external override returns(uint256 profileId) {\n        require(owner != address(0), BBErrorCodesV01.ZERO_ADDRESS);\n        profileId = _totalProfiles;\n        _profiles[_totalProfiles] = Profile(owner, receiver, cid);\n\n        _ownedProfiles[owner][_ownersTotalProfiles[owner]] = _totalProfiles;\n        _ownedProfilesIndexes[owner][_totalProfiles] = _ownersTotalProfiles[owner];\n        _ownersTotalProfiles[owner]++;\n\n        _totalProfiles++;\n\n        emit NewProfile(_totalProfiles - 1, owner, receiver, cid);\n    }\n\n    /*\n        @notice Set a profiles variables\n\n        @param Profile ID\n        @param New profile owner\n        @param New profile receiver\n        @param New profile CID\n    */\n    function editProfile(uint256 profileId, address owner, address receiver, string calldata cid) external override profileExists(profileId) onlyProfileOwner(profileId) {       \n        if (msg.sender != owner) {\n            _ownedProfiles[msg.sender][_ownersTotalProfiles[msg.sender] - 1] = _ownedProfiles[msg.sender][_ownedProfilesIndexes[msg.sender][profileId]];\n            _ownedProfilesIndexes[msg.sender][profileId] = 0;\n            _ownersTotalProfiles[msg.sender]--;\n\n            _ownedProfiles[owner][_ownersTotalProfiles[owner]] = profileId;\n            _ownedProfilesIndexes[owner][profileId] = _ownersTotalProfiles[owner];\n            _ownersTotalProfiles[owner]++;\n        }\n        \n        _profiles[profileId] = Profile(owner, receiver, cid);\n\n        emit EditProfile(profileId, owner, _profiles[profileId].receiver, cid);\n    } \n\n    /*\n        @notice Returns the total number of created profiles\n\n        @return Total number of profiles\n    */\n    function totalProfiles() view external override returns (uint256) {\n        return _totalProfiles;\n    }\n\n    /*\n        @notice Returns a profiles values\n\n        @param Profile ID\n\n        @return Profile owner\n        @return Profile revenue receiver\n        @return Profile CID\n    */\n    function getProfile(uint256 profileId) view external override profileExists(profileId) returns (address, address, string memory) {\n        return (_profiles[profileId].owner, _profiles[profileId].receiver, _profiles[profileId].cid);\n    }\n\n    function getOwnersProfiles(address owner) external view override returns (uint256[] memory) {\n        uint256[] memory profileIds = new uint256[](_ownersTotalProfiles[owner]);\n\n        for(uint256 i; i < _ownersTotalProfiles[owner]; i++) {\n            profileIds[i] = _ownedProfiles[owner][i];\n        }\n\n        return profileIds;\n    }\n\n    /*\n        @notice Returns the number of profiles an address owns\n\n        @param Owner address\n\n        @return Profile count\n    */\n    function ownersTotalProfiles(address owner) view external returns (uint256) {\n        return _ownersTotalProfiles[owner];\n    }\n\n    function isProfileOwner(uint256 profileId, address account) external view profileExists(profileId) returns(bool) {\n        return _ownedProfiles[account][profileId] == _ownedProfilesIndexes[account][_ownedProfiles[account][profileId]] && \n                _ownedProfiles[account][profileId] < _ownersTotalProfiles[account];\n    }\n}\n",
  "sourcePath": "contracts/BBProfiles.sol",
  "type": "contract"
}