{
  "abi": [
    {
      "inputs": [],
      "stateMutability": "nonpayable",
      "type": "constructor"
    },
    {
      "anonymous": false,
      "inputs": [
        {
          "indexed": false,
          "internalType": "uint256",
          "name": "profileId",
          "type": "uint256"
        },
        {
          "indexed": false,
          "internalType": "address",
          "name": "owner",
          "type": "address"
        },
        {
          "indexed": false,
          "internalType": "address",
          "name": "receiver",
          "type": "address"
        },
        {
          "indexed": false,
          "internalType": "string",
          "name": "cid",
          "type": "string"
        }
      ],
      "name": "EditProfile",
      "type": "event"
    },
    {
      "anonymous": false,
      "inputs": [
        {
          "indexed": false,
          "internalType": "uint256",
          "name": "profileId",
          "type": "uint256"
        },
        {
          "indexed": false,
          "internalType": "address",
          "name": "owner",
          "type": "address"
        },
        {
          "indexed": false,
          "internalType": "address",
          "name": "receiver",
          "type": "address"
        },
        {
          "indexed": false,
          "internalType": "string",
          "name": "cid",
          "type": "string"
        }
      ],
      "name": "NewProfile",
      "type": "event"
    },
    {
      "inputs": [
        {
          "internalType": "address",
          "name": "owner",
          "type": "address"
        },
        {
          "internalType": "address",
          "name": "receiver",
          "type": "address"
        },
        {
          "internalType": "string",
          "name": "cid",
          "type": "string"
        }
      ],
      "name": "createProfile",
      "outputs": [
        {
          "internalType": "uint256",
          "name": "profileId",
          "type": "uint256"
        }
      ],
      "stateMutability": "nonpayable",
      "type": "function"
    },
    {
      "inputs": [
        {
          "internalType": "uint256",
          "name": "profileId",
          "type": "uint256"
        },
        {
          "internalType": "address",
          "name": "owner",
          "type": "address"
        },
        {
          "internalType": "address",
          "name": "receiver",
          "type": "address"
        },
        {
          "internalType": "string",
          "name": "cid",
          "type": "string"
        }
      ],
      "name": "editProfile",
      "outputs": [],
      "stateMutability": "nonpayable",
      "type": "function"
    },
    {
      "inputs": [
        {
          "internalType": "address",
          "name": "owner",
          "type": "address"
        }
      ],
      "name": "getOwnersProfiles",
      "outputs": [
        {
          "internalType": "uint256[]",
          "name": "",
          "type": "uint256[]"
        }
      ],
      "stateMutability": "view",
      "type": "function"
    },
    {
      "inputs": [
        {
          "internalType": "uint256",
          "name": "profileId",
          "type": "uint256"
        }
      ],
      "name": "getProfile",
      "outputs": [
        {
          "internalType": "address",
          "name": "",
          "type": "address"
        },
        {
          "internalType": "address",
          "name": "",
          "type": "address"
        },
        {
          "internalType": "string",
          "name": "",
          "type": "string"
        }
      ],
      "stateMutability": "view",
      "type": "function"
    },
    {
      "inputs": [
        {
          "internalType": "address",
          "name": "owner",
          "type": "address"
        }
      ],
      "name": "ownersTotalProfiles",
      "outputs": [
        {
          "internalType": "uint256",
          "name": "",
          "type": "uint256"
        }
      ],
      "stateMutability": "view",
      "type": "function"
    },
    {
      "inputs": [],
      "name": "totalProfiles",
      "outputs": [
        {
          "internalType": "uint256",
          "name": "",
          "type": "uint256"
        }
      ],
      "stateMutability": "view",
      "type": "function"
    }
  ],
  "bytecode": "608060405234801561001057600080fd5b50610bd0806100206000396000f3fe608060405234801561001057600080fd5b50600436106100625760003560e01c80632df8184a146100675780633414a7af146100a35780634cdacbd7146100c35780638b3658b1146100d8578063d2adbe79146100eb578063f08f4f64146100f3575b600080fd5b61009061007536600461074d565b6001600160a01b031660009081526004602052604090205490565b6040519081526020015b60405180910390f35b6100b66100b136600461074d565b610115565b60405161009a919061076f565b6100d66100d13660046107fc565b6101f5565b005b6100906100e636600461086b565b6104ae565b600154610090565b6101066101013660046108cc565b610628565b60405161009a9392919061092b565b6001600160a01b0381166000908152600460205260408120546060919067ffffffffffffffff81111561014a5761014a610960565b604051908082528060200260200182016040528015610173578160200160208202803683370190505b50905060005b6001600160a01b0384166000908152600460205260409020548110156101ee576001600160a01b038416600090815260026020908152604080832084845290915290205482518390839081106101d1576101d1610976565b6020908102919091010152806101e6816109a2565b915050610179565b5092915050565b846001548110604051806040016040528060018152602001603560f81b8152509061023c5760405162461bcd60e51b815260040161023391906109bb565b60405180910390fd5b506000868152602081815260409182902054825180840190935260018352603160f81b918301919091528791906001600160a01b031633146102915760405162461bcd60e51b815260040161023391906109bb565b50336001600160a01b0387161461038f57336000818152600260209081526040808320600383528184208c855283528184205484528083528184205494845260049092528220549091906102e7906001906109ce565b8152602080820192909252604090810160009081209390935533808452600383528184208b8552835281842084905583526004909152812080549161032b836109e7565b90915550506001600160a01b03861660008181526002602090815260408083206004808452828520805486529184528285208d90558585528154600385528386208e87528552928520839055948452939091529190610389836109a2565b91905055505b6040518060600160405280876001600160a01b03168152602001866001600160a01b0316815260200185858080601f01602080910402602001604051908101604052809392919081815260200183838082843760009201829052509390945250508981526020818152604091829020845181546001600160a01b03199081166001600160a01b03928316178355928601516001830180549094169116179091559083015190915060028201906104459082610a87565b505050600087815260208190526040908190206001015490517f8ffd76d2c9bc923528f89f3a25419d388bb5d409e19d1b8a5ec8fda434ae68179161049d918a918a916001600160a01b039091169089908990610b47565b60405180910390a150505050505050565b600060015490506040518060600160405280866001600160a01b03168152602001856001600160a01b0316815260200184848080601f01602080910402602001604051908101604052809392919081815260200183838082843760009201829052509390945250508381526020818152604091829020845181546001600160a01b03199081166001600160a01b039283161783559286015160018301805490941691161790915590830151909150600282019061056b9082610a87565b5050506001600160a01b038516600081815260026020908152604080832060048084528285208054865291845282852087905585855281546003855283862088875285529285208390559484529390915291906105c7836109a2565b9091555050600180549060006105dc836109a2565b91905055507fe07a82fb082da6842de4d2ff9ec61981818d793022be8e22ae77cdff6aa1f1e68186868686604051610618959493929190610b47565b60405180910390a1949350505050565b6000806060836001548110604051806040016040528060018152602001603560f81b8152509061066b5760405162461bcd60e51b815260040161023391906109bb565b50600085815260208190526040902080546001820154600290920180546001600160a01b03928316939092169181906106a3906109fe565b80601f01602080910402602001604051908101604052809291908181526020018280546106cf906109fe565b801561071c5780601f106106f15761010080835404028352916020019161071c565b820191906000526020600020905b8154815290600101906020018083116106ff57829003601f168201915b50505050509050935093509350509193909250565b80356001600160a01b038116811461074857600080fd5b919050565b60006020828403121561075f57600080fd5b61076882610731565b9392505050565b6020808252825182820181905260009190848201906040850190845b818110156107a75783518352928401929184019160010161078b565b50909695505050505050565b60008083601f8401126107c557600080fd5b50813567ffffffffffffffff8111156107dd57600080fd5b6020830191508360208285010111156107f557600080fd5b9250929050565b60008060008060006080868803121561081457600080fd5b8535945061082460208701610731565b935061083260408701610731565b9250606086013567ffffffffffffffff81111561084e57600080fd5b61085a888289016107b3565b969995985093965092949392505050565b6000806000806060858703121561088157600080fd5b61088a85610731565b935061089860208601610731565b9250604085013567ffffffffffffffff8111156108b457600080fd5b6108c0878288016107b3565b95989497509550505050565b6000602082840312156108de57600080fd5b5035919050565b6000815180845260005b8181101561090b576020818501810151868301820152016108ef565b506000602082860101526020601f19601f83011685010191505092915050565b6001600160a01b03848116825283166020820152606060408201819052600090610957908301846108e5565b95945050505050565b634e487b7160e01b600052604160045260246000fd5b634e487b7160e01b600052603260045260246000fd5b634e487b7160e01b600052601160045260246000fd5b6000600182016109b4576109b461098c565b5060010190565b60208152600061076860208301846108e5565b818103818111156109e1576109e161098c565b92915050565b6000816109f6576109f661098c565b506000190190565b600181811c90821680610a1257607f821691505b602082108103610a3257634e487b7160e01b600052602260045260246000fd5b50919050565b601f821115610a8257600081815260208120601f850160051c81016020861015610a5f5750805b601f850160051c820191505b81811015610a7e57828155600101610a6b565b5050505b505050565b815167ffffffffffffffff811115610aa157610aa1610960565b610ab581610aaf84546109fe565b84610a38565b602080601f831160018114610aea5760008415610ad25750858301515b600019600386901b1c1916600185901b178555610a7e565b600085815260208120601f198616915b82811015610b1957888601518255948401946001909101908401610afa565b5085821015610b375787850151600019600388901b60f8161c191681555b5050505050600190811b01905550565b8581526001600160a01b0385811660208301528416604082015260806060820181905281018290526000828460a0840137600060a0848401015260a0601f19601f8501168301019050969550505050505056fea26469706673582212203625a2ad6bc31b95563b8c416946ed2186157c397109143381dde1145f6571ee64736f6c63430008110033",
  "bytecodeSha1": "4705e5f86af4855f6a1e937626260d6b60c6e26d",
  "compiler": {
    "evm_version": "istanbul",
    "optimizer": {
      "enabled": true,
      "runs": 200
    },
    "version": "0.8.17+commit.8df45f5f"
  },
  "contractName": "BBProfiles",
  "language": "Solidity",
  "natspec": {
    "kind": "dev",
    "methods": {},
    "version": 1
  },
  "opcodes": "PUSH1 0x80 PUSH1 0x40 MSTORE CALLVALUE DUP1 ISZERO PUSH2 0x10 JUMPI PUSH1 0x0 DUP1 REVERT JUMPDEST POP PUSH1 0x4 CALLDATASIZE LT PUSH2 0x62 JUMPI PUSH1 0x0 CALLDATALOAD PUSH1 0xE0 SHR DUP1 PUSH4 0x2DF8184A EQ PUSH2 0x67 JUMPI DUP1 PUSH4 0x3414A7AF EQ PUSH2 0xA3 JUMPI DUP1 PUSH4 0x4CDACBD7 EQ PUSH2 0xC3 JUMPI DUP1 PUSH4 0x8B3658B1 EQ PUSH2 0xD8 JUMPI DUP1 PUSH4 0xD2ADBE79 EQ PUSH2 0xEB JUMPI DUP1 PUSH4 0xF08F4F64 EQ PUSH2 0xF3 JUMPI JUMPDEST PUSH1 0x0 DUP1 REVERT JUMPDEST PUSH2 0x90 PUSH2 0x75 CALLDATASIZE PUSH1 0x4 PUSH2 0x74D JUMP JUMPDEST PUSH1 0x1 PUSH1 0x1 PUSH1 0xA0 SHL SUB AND PUSH1 0x0 SWAP1 DUP2 MSTORE PUSH1 0x4 PUSH1 0x20 MSTORE PUSH1 0x40 SWAP1 KECCAK256 SLOAD SWAP1 JUMP JUMPDEST PUSH1 0x40 MLOAD SWAP1 DUP2 MSTORE PUSH1 0x20 ADD JUMPDEST PUSH1 0x40 MLOAD DUP1 SWAP2 SUB SWAP1 RETURN JUMPDEST PUSH2 0xB6 PUSH2 0xB1 CALLDATASIZE PUSH1 0x4 PUSH2 0x74D JUMP JUMPDEST PUSH2 0x115 JUMP JUMPDEST PUSH1 0x40 MLOAD PUSH2 0x9A SWAP2 SWAP1 PUSH2 0x76F JUMP JUMPDEST PUSH2 0xD6 PUSH2 0xD1 CALLDATASIZE PUSH1 0x4 PUSH2 0x7FC JUMP JUMPDEST PUSH2 0x1F5 JUMP JUMPDEST STOP JUMPDEST PUSH2 0x90 PUSH2 0xE6 CALLDATASIZE PUSH1 0x4 PUSH2 0x86B JUMP JUMPDEST PUSH2 0x4AE JUMP JUMPDEST PUSH1 0x1 SLOAD PUSH2 0x90 JUMP JUMPDEST PUSH2 0x106 PUSH2 0x101 CALLDATASIZE PUSH1 0x4 PUSH2 0x8CC JUMP JUMPDEST PUSH2 0x628 JUMP JUMPDEST PUSH1 0x40 MLOAD PUSH2 0x9A SWAP4 SWAP3 SWAP2 SWAP1 PUSH2 0x92B JUMP JUMPDEST PUSH1 0x1 PUSH1 0x1 PUSH1 0xA0 SHL SUB DUP2 AND PUSH1 0x0 SWAP1 DUP2 MSTORE PUSH1 0x4 PUSH1 0x20 MSTORE PUSH1 0x40 DUP2 KECCAK256 SLOAD PUSH1 0x60 SWAP2 SWAP1 PUSH8 0xFFFFFFFFFFFFFFFF DUP2 GT ISZERO PUSH2 0x14A JUMPI PUSH2 0x14A PUSH2 0x960 JUMP JUMPDEST PUSH1 0x40 MLOAD SWAP1 DUP1 DUP3 MSTORE DUP1 PUSH1 0x20 MUL PUSH1 0x20 ADD DUP3 ADD PUSH1 0x40 MSTORE DUP1 ISZERO PUSH2 0x173 JUMPI DUP2 PUSH1 0x20 ADD PUSH1 0x20 DUP3 MUL DUP1 CALLDATASIZE DUP4 CALLDATACOPY ADD SWAP1 POP JUMPDEST POP SWAP1 POP PUSH1 0x0 JUMPDEST PUSH1 0x1 PUSH1 0x1 PUSH1 0xA0 SHL SUB DUP5 AND PUSH1 0x0 SWAP1 DUP2 MSTORE PUSH1 0x4 PUSH1 0x20 MSTORE PUSH1 0x40 SWAP1 KECCAK256 SLOAD DUP2 LT ISZERO PUSH2 0x1EE JUMPI PUSH1 0x1 PUSH1 0x1 PUSH1 0xA0 SHL SUB DUP5 AND PUSH1 0x0 SWAP1 DUP2 MSTORE PUSH1 0x2 PUSH1 0x20 SWAP1 DUP2 MSTORE PUSH1 0x40 DUP1 DUP4 KECCAK256 DUP5 DUP5 MSTORE SWAP1 SWAP2 MSTORE SWAP1 KECCAK256 SLOAD DUP3 MLOAD DUP4 SWAP1 DUP4 SWAP1 DUP2 LT PUSH2 0x1D1 JUMPI PUSH2 0x1D1 PUSH2 0x976 JUMP JUMPDEST PUSH1 0x20 SWAP1 DUP2 MUL SWAP2 SWAP1 SWAP2 ADD ADD MSTORE DUP1 PUSH2 0x1E6 DUP2 PUSH2 0x9A2 JUMP JUMPDEST SWAP2 POP POP PUSH2 0x179 JUMP JUMPDEST POP SWAP3 SWAP2 POP POP JUMP JUMPDEST DUP5 PUSH1 0x1 SLOAD DUP2 LT PUSH1 0x40 MLOAD DUP1 PUSH1 0x40 ADD PUSH1 0x40 MSTORE DUP1 PUSH1 0x1 DUP2 MSTORE PUSH1 0x20 ADD PUSH1 0x35 PUSH1 0xF8 SHL DUP2 MSTORE POP SWAP1 PUSH2 0x23C JUMPI PUSH1 0x40 MLOAD PUSH3 0x461BCD PUSH1 0xE5 SHL DUP2 MSTORE PUSH1 0x4 ADD PUSH2 0x233 SWAP2 SWAP1 PUSH2 0x9BB JUMP JUMPDEST PUSH1 0x40 MLOAD DUP1 SWAP2 SUB SWAP1 REVERT JUMPDEST POP PUSH1 0x0 DUP7 DUP2 MSTORE PUSH1 0x20 DUP2 DUP2 MSTORE PUSH1 0x40 SWAP2 DUP3 SWAP1 KECCAK256 SLOAD DUP3 MLOAD DUP1 DUP5 ADD SWAP1 SWAP4 MSTORE PUSH1 0x1 DUP4 MSTORE PUSH1 0x31 PUSH1 0xF8 SHL SWAP2 DUP4 ADD SWAP2 SWAP1 SWAP2 MSTORE DUP8 SWAP2 SWAP1 PUSH1 0x1 PUSH1 0x1 PUSH1 0xA0 SHL SUB AND CALLER EQ PUSH2 0x291 JUMPI PUSH1 0x40 MLOAD PUSH3 0x461BCD PUSH1 0xE5 SHL DUP2 MSTORE PUSH1 0x4 ADD PUSH2 0x233 SWAP2 SWAP1 PUSH2 0x9BB JUMP JUMPDEST POP CALLER PUSH1 0x1 PUSH1 0x1 PUSH1 0xA0 SHL SUB DUP8 AND EQ PUSH2 0x38F JUMPI CALLER PUSH1 0x0 DUP2 DUP2 MSTORE PUSH1 0x2 PUSH1 0x20 SWAP1 DUP2 MSTORE PUSH1 0x40 DUP1 DUP4 KECCAK256 PUSH1 0x3 DUP4 MSTORE DUP2 DUP5 KECCAK256 DUP13 DUP6 MSTORE DUP4 MSTORE DUP2 DUP5 KECCAK256 SLOAD DUP5 MSTORE DUP1 DUP4 MSTORE DUP2 DUP5 KECCAK256 SLOAD SWAP5 DUP5 MSTORE PUSH1 0x4 SWAP1 SWAP3 MSTORE DUP3 KECCAK256 SLOAD SWAP1 SWAP2 SWAP1 PUSH2 0x2E7 SWAP1 PUSH1 0x1 SWAP1 PUSH2 0x9CE JUMP JUMPDEST DUP2 MSTORE PUSH1 0x20 DUP1 DUP3 ADD SWAP3 SWAP1 SWAP3 MSTORE PUSH1 0x40 SWAP1 DUP2 ADD PUSH1 0x0 SWAP1 DUP2 KECCAK256 SWAP4 SWAP1 SWAP4 SSTORE CALLER DUP1 DUP5 MSTORE PUSH1 0x3 DUP4 MSTORE DUP2 DUP5 KECCAK256 DUP12 DUP6 MSTORE DUP4 MSTORE DUP2 DUP5 KECCAK256 DUP5 SWAP1 SSTORE DUP4 MSTORE PUSH1 0x4 SWAP1 SWAP2 MSTORE DUP2 KECCAK256 DUP1 SLOAD SWAP2 PUSH2 0x32B DUP4 PUSH2 0x9E7 JUMP JUMPDEST SWAP1 SWAP2 SSTORE POP POP PUSH1 0x1 PUSH1 0x1 PUSH1 0xA0 SHL SUB DUP7 AND PUSH1 0x0 DUP2 DUP2 MSTORE PUSH1 0x2 PUSH1 0x20 SWAP1 DUP2 MSTORE PUSH1 0x40 DUP1 DUP4 KECCAK256 PUSH1 0x4 DUP1 DUP5 MSTORE DUP3 DUP6 KECCAK256 DUP1 SLOAD DUP7 MSTORE SWAP2 DUP5 MSTORE DUP3 DUP6 KECCAK256 DUP14 SWAP1 SSTORE DUP6 DUP6 MSTORE DUP2 SLOAD PUSH1 0x3 DUP6 MSTORE DUP4 DUP7 KECCAK256 DUP15 DUP8 MSTORE DUP6 MSTORE SWAP3 DUP6 KECCAK256 DUP4 SWAP1 SSTORE SWAP5 DUP5 MSTORE SWAP4 SWAP1 SWAP2 MSTORE SWAP2 SWAP1 PUSH2 0x389 DUP4 PUSH2 0x9A2 JUMP JUMPDEST SWAP2 SWAP1 POP SSTORE POP JUMPDEST PUSH1 0x40 MLOAD DUP1 PUSH1 0x60 ADD PUSH1 0x40 MSTORE DUP1 DUP8 PUSH1 0x1 PUSH1 0x1 PUSH1 0xA0 SHL SUB AND DUP2 MSTORE PUSH1 0x20 ADD DUP7 PUSH1 0x1 PUSH1 0x1 PUSH1 0xA0 SHL SUB AND DUP2 MSTORE PUSH1 0x20 ADD DUP6 DUP6 DUP1 DUP1 PUSH1 0x1F ADD PUSH1 0x20 DUP1 SWAP2 DIV MUL PUSH1 0x20 ADD PUSH1 0x40 MLOAD SWAP1 DUP2 ADD PUSH1 0x40 MSTORE DUP1 SWAP4 SWAP3 SWAP2 SWAP1 DUP2 DUP2 MSTORE PUSH1 0x20 ADD DUP4 DUP4 DUP1 DUP3 DUP5 CALLDATACOPY PUSH1 0x0 SWAP3 ADD DUP3 SWAP1 MSTORE POP SWAP4 SWAP1 SWAP5 MSTORE POP POP DUP10 DUP2 MSTORE PUSH1 0x20 DUP2 DUP2 MSTORE PUSH1 0x40 SWAP2 DUP3 SWAP1 KECCAK256 DUP5 MLOAD DUP2 SLOAD PUSH1 0x1 PUSH1 0x1 PUSH1 0xA0 SHL SUB NOT SWAP1 DUP2 AND PUSH1 0x1 PUSH1 0x1 PUSH1 0xA0 SHL SUB SWAP3 DUP4 AND OR DUP4 SSTORE SWAP3 DUP7 ADD MLOAD PUSH1 0x1 DUP4 ADD DUP1 SLOAD SWAP1 SWAP5 AND SWAP2 AND OR SWAP1 SWAP2 SSTORE SWAP1 DUP4 ADD MLOAD SWAP1 SWAP2 POP PUSH1 0x2 DUP3 ADD SWAP1 PUSH2 0x445 SWAP1 DUP3 PUSH2 0xA87 JUMP JUMPDEST POP POP POP PUSH1 0x0 DUP8 DUP2 MSTORE PUSH1 0x20 DUP2 SWAP1 MSTORE PUSH1 0x40 SWAP1 DUP2 SWAP1 KECCAK256 PUSH1 0x1 ADD SLOAD SWAP1 MLOAD PUSH32 0x8FFD76D2C9BC923528F89F3A25419D388BB5D409E19D1B8A5EC8FDA434AE6817 SWAP2 PUSH2 0x49D SWAP2 DUP11 SWAP2 DUP11 SWAP2 PUSH1 0x1 PUSH1 0x1 PUSH1 0xA0 SHL SUB SWAP1 SWAP2 AND SWAP1 DUP10 SWAP1 DUP10 SWAP1 PUSH2 0xB47 JUMP JUMPDEST PUSH1 0x40 MLOAD DUP1 SWAP2 SUB SWAP1 LOG1 POP POP POP POP POP POP POP JUMP JUMPDEST PUSH1 0x0 PUSH1 0x1 SLOAD SWAP1 POP PUSH1 0x40 MLOAD DUP1 PUSH1 0x60 ADD PUSH1 0x40 MSTORE DUP1 DUP7 PUSH1 0x1 PUSH1 0x1 PUSH1 0xA0 SHL SUB AND DUP2 MSTORE PUSH1 0x20 ADD DUP6 PUSH1 0x1 PUSH1 0x1 PUSH1 0xA0 SHL SUB AND DUP2 MSTORE PUSH1 0x20 ADD DUP5 DUP5 DUP1 DUP1 PUSH1 0x1F ADD PUSH1 0x20 DUP1 SWAP2 DIV MUL PUSH1 0x20 ADD PUSH1 0x40 MLOAD SWAP1 DUP2 ADD PUSH1 0x40 MSTORE DUP1 SWAP4 SWAP3 SWAP2 SWAP1 DUP2 DUP2 MSTORE PUSH1 0x20 ADD DUP4 DUP4 DUP1 DUP3 DUP5 CALLDATACOPY PUSH1 0x0 SWAP3 ADD DUP3 SWAP1 MSTORE POP SWAP4 SWAP1 SWAP5 MSTORE POP POP DUP4 DUP2 MSTORE PUSH1 0x20 DUP2 DUP2 MSTORE PUSH1 0x40 SWAP2 DUP3 SWAP1 KECCAK256 DUP5 MLOAD DUP2 SLOAD PUSH1 0x1 PUSH1 0x1 PUSH1 0xA0 SHL SUB NOT SWAP1 DUP2 AND PUSH1 0x1 PUSH1 0x1 PUSH1 0xA0 SHL SUB SWAP3 DUP4 AND OR DUP4 SSTORE SWAP3 DUP7 ADD MLOAD PUSH1 0x1 DUP4 ADD DUP1 SLOAD SWAP1 SWAP5 AND SWAP2 AND OR SWAP1 SWAP2 SSTORE SWAP1 DUP4 ADD MLOAD SWAP1 SWAP2 POP PUSH1 0x2 DUP3 ADD SWAP1 PUSH2 0x56B SWAP1 DUP3 PUSH2 0xA87 JUMP JUMPDEST POP POP POP PUSH1 0x1 PUSH1 0x1 PUSH1 0xA0 SHL SUB DUP6 AND PUSH1 0x0 DUP2 DUP2 MSTORE PUSH1 0x2 PUSH1 0x20 SWAP1 DUP2 MSTORE PUSH1 0x40 DUP1 DUP4 KECCAK256 PUSH1 0x4 DUP1 DUP5 MSTORE DUP3 DUP6 KECCAK256 DUP1 SLOAD DUP7 MSTORE SWAP2 DUP5 MSTORE DUP3 DUP6 KECCAK256 DUP8 SWAP1 SSTORE DUP6 DUP6 MSTORE DUP2 SLOAD PUSH1 0x3 DUP6 MSTORE DUP4 DUP7 KECCAK256 DUP9 DUP8 MSTORE DUP6 MSTORE SWAP3 DUP6 KECCAK256 DUP4 SWAP1 SSTORE SWAP5 DUP5 MSTORE SWAP4 SWAP1 SWAP2 MSTORE SWAP2 SWAP1 PUSH2 0x5C7 DUP4 PUSH2 0x9A2 JUMP JUMPDEST SWAP1 SWAP2 SSTORE POP POP PUSH1 0x1 DUP1 SLOAD SWAP1 PUSH1 0x0 PUSH2 0x5DC DUP4 PUSH2 0x9A2 JUMP JUMPDEST SWAP2 SWAP1 POP SSTORE POP PUSH32 0xE07A82FB082DA6842DE4D2FF9EC61981818D793022BE8E22AE77CDFF6AA1F1E6 DUP2 DUP7 DUP7 DUP7 DUP7 PUSH1 0x40 MLOAD PUSH2 0x618 SWAP6 SWAP5 SWAP4 SWAP3 SWAP2 SWAP1 PUSH2 0xB47 JUMP JUMPDEST PUSH1 0x40 MLOAD DUP1 SWAP2 SUB SWAP1 LOG1 SWAP5 SWAP4 POP POP POP POP JUMP JUMPDEST PUSH1 0x0 DUP1 PUSH1 0x60 DUP4 PUSH1 0x1 SLOAD DUP2 LT PUSH1 0x40 MLOAD DUP1 PUSH1 0x40 ADD PUSH1 0x40 MSTORE DUP1 PUSH1 0x1 DUP2 MSTORE PUSH1 0x20 ADD PUSH1 0x35 PUSH1 0xF8 SHL DUP2 MSTORE POP SWAP1 PUSH2 0x66B JUMPI PUSH1 0x40 MLOAD PUSH3 0x461BCD PUSH1 0xE5 SHL DUP2 MSTORE PUSH1 0x4 ADD PUSH2 0x233 SWAP2 SWAP1 PUSH2 0x9BB JUMP JUMPDEST POP PUSH1 0x0 DUP6 DUP2 MSTORE PUSH1 0x20 DUP2 SWAP1 MSTORE PUSH1 0x40 SWAP1 KECCAK256 DUP1 SLOAD PUSH1 0x1 DUP3 ADD SLOAD PUSH1 0x2 SWAP1 SWAP3 ADD DUP1 SLOAD PUSH1 0x1 PUSH1 0x1 PUSH1 0xA0 SHL SUB SWAP3 DUP4 AND SWAP4 SWAP1 SWAP3 AND SWAP2 DUP2 SWAP1 PUSH2 0x6A3 SWAP1 PUSH2 0x9FE JUMP JUMPDEST DUP1 PUSH1 0x1F ADD PUSH1 0x20 DUP1 SWAP2 DIV MUL PUSH1 0x20 ADD PUSH1 0x40 MLOAD SWAP1 DUP2 ADD PUSH1 0x40 MSTORE DUP1 SWAP3 SWAP2 SWAP1 DUP2 DUP2 MSTORE PUSH1 0x20 ADD DUP3 DUP1 SLOAD PUSH2 0x6CF SWAP1 PUSH2 0x9FE JUMP JUMPDEST DUP1 ISZERO PUSH2 0x71C JUMPI DUP1 PUSH1 0x1F LT PUSH2 0x6F1 JUMPI PUSH2 0x100 DUP1 DUP4 SLOAD DIV MUL DUP4 MSTORE SWAP2 PUSH1 0x20 ADD SWAP2 PUSH2 0x71C JUMP JUMPDEST DUP3 ADD SWAP2 SWAP1 PUSH1 0x0 MSTORE PUSH1 0x20 PUSH1 0x0 KECCAK256 SWAP1 JUMPDEST DUP2 SLOAD DUP2 MSTORE SWAP1 PUSH1 0x1 ADD SWAP1 PUSH1 0x20 ADD DUP1 DUP4 GT PUSH2 0x6FF JUMPI DUP3 SWAP1 SUB PUSH1 0x1F AND DUP3 ADD SWAP2 JUMPDEST POP POP POP POP POP SWAP1 POP SWAP4 POP SWAP4 POP SWAP4 POP POP SWAP2 SWAP4 SWAP1 SWAP3 POP JUMP JUMPDEST DUP1 CALLDATALOAD PUSH1 0x1 PUSH1 0x1 PUSH1 0xA0 SHL SUB DUP2 AND DUP2 EQ PUSH2 0x748 JUMPI PUSH1 0x0 DUP1 REVERT JUMPDEST SWAP2 SWAP1 POP JUMP JUMPDEST PUSH1 0x0 PUSH1 0x20 DUP3 DUP5 SUB SLT ISZERO PUSH2 0x75F JUMPI PUSH1 0x0 DUP1 REVERT JUMPDEST PUSH2 0x768 DUP3 PUSH2 0x731 JUMP JUMPDEST SWAP4 SWAP3 POP POP POP JUMP JUMPDEST PUSH1 0x20 DUP1 DUP3 MSTORE DUP3 MLOAD DUP3 DUP3 ADD DUP2 SWAP1 MSTORE PUSH1 0x0 SWAP2 SWAP1 DUP5 DUP3 ADD SWAP1 PUSH1 0x40 DUP6 ADD SWAP1 DUP5 JUMPDEST DUP2 DUP2 LT ISZERO PUSH2 0x7A7 JUMPI DUP4 MLOAD DUP4 MSTORE SWAP3 DUP5 ADD SWAP3 SWAP2 DUP5 ADD SWAP2 PUSH1 0x1 ADD PUSH2 0x78B JUMP JUMPDEST POP SWAP1 SWAP7 SWAP6 POP POP POP POP POP POP JUMP JUMPDEST PUSH1 0x0 DUP1 DUP4 PUSH1 0x1F DUP5 ADD SLT PUSH2 0x7C5 JUMPI PUSH1 0x0 DUP1 REVERT JUMPDEST POP DUP2 CALLDATALOAD PUSH8 0xFFFFFFFFFFFFFFFF DUP2 GT ISZERO PUSH2 0x7DD JUMPI PUSH1 0x0 DUP1 REVERT JUMPDEST PUSH1 0x20 DUP4 ADD SWAP2 POP DUP4 PUSH1 0x20 DUP3 DUP6 ADD ADD GT ISZERO PUSH2 0x7F5 JUMPI PUSH1 0x0 DUP1 REVERT JUMPDEST SWAP3 POP SWAP3 SWAP1 POP JUMP JUMPDEST PUSH1 0x0 DUP1 PUSH1 0x0 DUP1 PUSH1 0x0 PUSH1 0x80 DUP7 DUP9 SUB SLT ISZERO PUSH2 0x814 JUMPI PUSH1 0x0 DUP1 REVERT JUMPDEST DUP6 CALLDATALOAD SWAP5 POP PUSH2 0x824 PUSH1 0x20 DUP8 ADD PUSH2 0x731 JUMP JUMPDEST SWAP4 POP PUSH2 0x832 PUSH1 0x40 DUP8 ADD PUSH2 0x731 JUMP JUMPDEST SWAP3 POP PUSH1 0x60 DUP7 ADD CALLDATALOAD PUSH8 0xFFFFFFFFFFFFFFFF DUP2 GT ISZERO PUSH2 0x84E JUMPI PUSH1 0x0 DUP1 REVERT JUMPDEST PUSH2 0x85A DUP9 DUP3 DUP10 ADD PUSH2 0x7B3 JUMP JUMPDEST SWAP7 SWAP10 SWAP6 SWAP9 POP SWAP4 SWAP7 POP SWAP3 SWAP5 SWAP4 SWAP3 POP POP POP JUMP JUMPDEST PUSH1 0x0 DUP1 PUSH1 0x0 DUP1 PUSH1 0x60 DUP6 DUP8 SUB SLT ISZERO PUSH2 0x881 JUMPI PUSH1 0x0 DUP1 REVERT JUMPDEST PUSH2 0x88A DUP6 PUSH2 0x731 JUMP JUMPDEST SWAP4 POP PUSH2 0x898 PUSH1 0x20 DUP7 ADD PUSH2 0x731 JUMP JUMPDEST SWAP3 POP PUSH1 0x40 DUP6 ADD CALLDATALOAD PUSH8 0xFFFFFFFFFFFFFFFF DUP2 GT ISZERO PUSH2 0x8B4 JUMPI PUSH1 0x0 DUP1 REVERT JUMPDEST PUSH2 0x8C0 DUP8 DUP3 DUP9 ADD PUSH2 0x7B3 JUMP JUMPDEST SWAP6 SWAP9 SWAP5 SWAP8 POP SWAP6 POP POP POP POP JUMP JUMPDEST PUSH1 0x0 PUSH1 0x20 DUP3 DUP5 SUB SLT ISZERO PUSH2 0x8DE JUMPI PUSH1 0x0 DUP1 REVERT JUMPDEST POP CALLDATALOAD SWAP2 SWAP1 POP JUMP JUMPDEST PUSH1 0x0 DUP2 MLOAD DUP1 DUP5 MSTORE PUSH1 0x0 JUMPDEST DUP2 DUP2 LT ISZERO PUSH2 0x90B JUMPI PUSH1 0x20 DUP2 DUP6 ADD DUP2 ADD MLOAD DUP7 DUP4 ADD DUP3 ADD MSTORE ADD PUSH2 0x8EF JUMP JUMPDEST POP PUSH1 0x0 PUSH1 0x20 DUP3 DUP7 ADD ADD MSTORE PUSH1 0x20 PUSH1 0x1F NOT PUSH1 0x1F DUP4 ADD AND DUP6 ADD ADD SWAP2 POP POP SWAP3 SWAP2 POP POP JUMP JUMPDEST PUSH1 0x1 PUSH1 0x1 PUSH1 0xA0 SHL SUB DUP5 DUP2 AND DUP3 MSTORE DUP4 AND PUSH1 0x20 DUP3 ADD MSTORE PUSH1 0x60 PUSH1 0x40 DUP3 ADD DUP2 SWAP1 MSTORE PUSH1 0x0 SWAP1 PUSH2 0x957 SWAP1 DUP4 ADD DUP5 PUSH2 0x8E5 JUMP JUMPDEST SWAP6 SWAP5 POP POP POP POP POP JUMP JUMPDEST PUSH4 0x4E487B71 PUSH1 0xE0 SHL PUSH1 0x0 MSTORE PUSH1 0x41 PUSH1 0x4 MSTORE PUSH1 0x24 PUSH1 0x0 REVERT JUMPDEST PUSH4 0x4E487B71 PUSH1 0xE0 SHL PUSH1 0x0 MSTORE PUSH1 0x32 PUSH1 0x4 MSTORE PUSH1 0x24 PUSH1 0x0 REVERT JUMPDEST PUSH4 0x4E487B71 PUSH1 0xE0 SHL PUSH1 0x0 MSTORE PUSH1 0x11 PUSH1 0x4 MSTORE PUSH1 0x24 PUSH1 0x0 REVERT JUMPDEST PUSH1 0x0 PUSH1 0x1 DUP3 ADD PUSH2 0x9B4 JUMPI PUSH2 0x9B4 PUSH2 0x98C JUMP JUMPDEST POP PUSH1 0x1 ADD SWAP1 JUMP JUMPDEST PUSH1 0x20 DUP2 MSTORE PUSH1 0x0 PUSH2 0x768 PUSH1 0x20 DUP4 ADD DUP5 PUSH2 0x8E5 JUMP JUMPDEST DUP2 DUP2 SUB DUP2 DUP2 GT ISZERO PUSH2 0x9E1 JUMPI PUSH2 0x9E1 PUSH2 0x98C JUMP JUMPDEST SWAP3 SWAP2 POP POP JUMP JUMPDEST PUSH1 0x0 DUP2 PUSH2 0x9F6 JUMPI PUSH2 0x9F6 PUSH2 0x98C JUMP JUMPDEST POP PUSH1 0x0 NOT ADD SWAP1 JUMP JUMPDEST PUSH1 0x1 DUP2 DUP2 SHR SWAP1 DUP3 AND DUP1 PUSH2 0xA12 JUMPI PUSH1 0x7F DUP3 AND SWAP2 POP JUMPDEST PUSH1 0x20 DUP3 LT DUP2 SUB PUSH2 0xA32 JUMPI PUSH4 0x4E487B71 PUSH1 0xE0 SHL PUSH1 0x0 MSTORE PUSH1 0x22 PUSH1 0x4 MSTORE PUSH1 0x24 PUSH1 0x0 REVERT JUMPDEST POP SWAP2 SWAP1 POP JUMP JUMPDEST PUSH1 0x1F DUP3 GT ISZERO PUSH2 0xA82 JUMPI PUSH1 0x0 DUP2 DUP2 MSTORE PUSH1 0x20 DUP2 KECCAK256 PUSH1 0x1F DUP6 ADD PUSH1 0x5 SHR DUP2 ADD PUSH1 0x20 DUP7 LT ISZERO PUSH2 0xA5F JUMPI POP DUP1 JUMPDEST PUSH1 0x1F DUP6 ADD PUSH1 0x5 SHR DUP3 ADD SWAP2 POP JUMPDEST DUP2 DUP2 LT ISZERO PUSH2 0xA7E JUMPI DUP3 DUP2 SSTORE PUSH1 0x1 ADD PUSH2 0xA6B JUMP JUMPDEST POP POP POP JUMPDEST POP POP POP JUMP JUMPDEST DUP2 MLOAD PUSH8 0xFFFFFFFFFFFFFFFF DUP2 GT ISZERO PUSH2 0xAA1 JUMPI PUSH2 0xAA1 PUSH2 0x960 JUMP JUMPDEST PUSH2 0xAB5 DUP2 PUSH2 0xAAF DUP5 SLOAD PUSH2 0x9FE JUMP JUMPDEST DUP5 PUSH2 0xA38 JUMP JUMPDEST PUSH1 0x20 DUP1 PUSH1 0x1F DUP4 GT PUSH1 0x1 DUP2 EQ PUSH2 0xAEA JUMPI PUSH1 0x0 DUP5 ISZERO PUSH2 0xAD2 JUMPI POP DUP6 DUP4 ADD MLOAD JUMPDEST PUSH1 0x0 NOT PUSH1 0x3 DUP7 SWAP1 SHL SHR NOT AND PUSH1 0x1 DUP6 SWAP1 SHL OR DUP6 SSTORE PUSH2 0xA7E JUMP JUMPDEST PUSH1 0x0 DUP6 DUP2 MSTORE PUSH1 0x20 DUP2 KECCAK256 PUSH1 0x1F NOT DUP7 AND SWAP2 JUMPDEST DUP3 DUP2 LT ISZERO PUSH2 0xB19 JUMPI DUP9 DUP7 ADD MLOAD DUP3 SSTORE SWAP5 DUP5 ADD SWAP5 PUSH1 0x1 SWAP1 SWAP2 ADD SWAP1 DUP5 ADD PUSH2 0xAFA JUMP JUMPDEST POP DUP6 DUP3 LT ISZERO PUSH2 0xB37 JUMPI DUP8 DUP6 ADD MLOAD PUSH1 0x0 NOT PUSH1 0x3 DUP9 SWAP1 SHL PUSH1 0xF8 AND SHR NOT AND DUP2 SSTORE JUMPDEST POP POP POP POP POP PUSH1 0x1 SWAP1 DUP2 SHL ADD SWAP1 SSTORE POP JUMP JUMPDEST DUP6 DUP2 MSTORE PUSH1 0x1 PUSH1 0x1 PUSH1 0xA0 SHL SUB DUP6 DUP2 AND PUSH1 0x20 DUP4 ADD MSTORE DUP5 AND PUSH1 0x40 DUP3 ADD MSTORE PUSH1 0x80 PUSH1 0x60 DUP3 ADD DUP2 SWAP1 MSTORE DUP2 ADD DUP3 SWAP1 MSTORE PUSH1 0x0 DUP3 DUP5 PUSH1 0xA0 DUP5 ADD CALLDATACOPY PUSH1 0x0 PUSH1 0xA0 DUP5 DUP5 ADD ADD MSTORE PUSH1 0xA0 PUSH1 0x1F NOT PUSH1 0x1F DUP6 ADD AND DUP4 ADD ADD SWAP1 POP SWAP7 SWAP6 POP POP POP POP POP POP JUMP INVALID LOG2 PUSH5 0x6970667358 0x22 SLT KECCAK256 CALLDATASIZE 0x25 LOG2 0xAD PUSH12 0xC31B95563B8C416946ED2186 ISZERO PUSH29 0x397109143381DDE1145F6571EE64736F6C634300081100330000000000 ",
  "sha1": "c4c04634fc42f504aa928133cb024346636ad817",
  "source": "// SPDX-License-Identifier: MIT\npragma solidity ^0.8.17;\n\nimport \"./BBErrorsV01.sol\";\nimport \"./interfaces/IBBProfiles.sol\";\n\ncontract BBProfiles is IBBProfiles {\n    event NewProfile(\n        uint256 profileId,\n        address owner,\n        address receiver,\n        string cid\n    );\n\n    event EditProfile(\n        uint256 profileId,\n        address owner,\n        address receiver,\n        string cid\n    );\n\n    struct Profile {\n        address owner;\n        address receiver;\n        string cid;\n    }\n\n    // Profile ID => Profile\n    mapping(uint256 => Profile) internal _profiles;\n\n    uint256 internal _totalProfiles;\n\n    // Owner => Index => Profile ID\n    mapping(address => mapping(uint256 => uint256)) private _ownedProfiles;\n    // Owner => Profile ID => Index\n    mapping(address => mapping(uint256 => uint256)) private _ownedProfilesIndexes;\n    // Owner => Total profiles owned\n    mapping(address => uint256) private _ownersTotalProfiles;\n\n    constructor() {\n\n    }\n\n    /*\n        @dev Reverts if msg.sender is not profile IDs owner\n    */\n    modifier onlyProfileOwner(uint256 profileId) {\n        require(_profiles[profileId].owner == msg.sender, BBErrorCodesV01.NOT_OWNER);\n        _;\n    }\n\n    /*\n        @dev Reverts if profile ID does not exist\n    */\n    modifier profileExists(uint256 profileId) {\n      require(profileId < _totalProfiles, BBErrorCodesV01.PROFILE_NOT_EXIST);\n      _;\n    }\n\n    /*\n        @notice Creates a new profile\n\n        @param Profile owner\n        @param Profiles revenue receiver\n        @param Profile CID\n\n        @return Instantiated profiles ID\n    */\n    function createProfile(address owner, address receiver, string calldata cid) external override returns(uint256 profileId) {\n        profileId = _totalProfiles;\n        \n        // Instantiate profile\n        _profiles[profileId] = Profile(owner, receiver, cid);\n\n        // Add profile ID to owners list of owned profiles\n        _ownedProfiles[owner][_ownersTotalProfiles[owner]] = profileId;\n        _ownedProfilesIndexes[owner][profileId] = _ownersTotalProfiles[owner];\n        _ownersTotalProfiles[owner]++;\n\n        // Increment total profiles\n        _totalProfiles++;\n\n        emit NewProfile(profileId, owner, receiver, cid);\n    }\n\n    /*\n        @notice Set an existing profiles variables\n\n        @param Profile ID\n        @param Profile owner\n        @param Profile revenue receiver\n        @param Profile CID\n    */\n    function editProfile(uint256 profileId, address owner, address receiver, string calldata cid) external override profileExists(profileId) onlyProfileOwner(profileId) {       \n        if (msg.sender != owner) {\n            // Remove ID from previous owners list of owned profiles\n            _ownedProfiles[msg.sender][_ownersTotalProfiles[msg.sender] - 1] = _ownedProfiles[msg.sender][_ownedProfilesIndexes[msg.sender][profileId]];\n            _ownedProfilesIndexes[msg.sender][profileId] = 0;\n            _ownersTotalProfiles[msg.sender]--;\n\n            // Add ID to new owners list of owned profiles\n            _ownedProfiles[owner][_ownersTotalProfiles[owner]] = profileId;\n            _ownedProfilesIndexes[owner][profileId] = _ownersTotalProfiles[owner];\n            _ownersTotalProfiles[owner]++;\n        }\n        \n        // Set profile variables\n        _profiles[profileId] = Profile(owner, receiver, cid);\n\n        emit EditProfile(profileId, owner, _profiles[profileId].receiver, cid);\n    } \n\n    /*\n        @notice Returns the total number of created profiles\n\n        @return Total number of profiles\n    */\n    function totalProfiles() view external override returns (uint256) {\n        return _totalProfiles;\n    }\n\n    /*\n        @notice Returns a profiles variables\n\n        @param Profile ID\n\n        @return Profile owner\n        @return Profile revenue receiver\n        @return Profile CID\n    */\n    function getProfile(uint256 profileId) view external override profileExists(profileId) returns (address, address, string memory) {\n        return (_profiles[profileId].owner, _profiles[profileId].receiver, _profiles[profileId].cid);\n    }\n\n    /*\n        @notice Get a list of all profile IDs owned by an address\n\n        @param Profile owner\n\n        @return Array of profile IDs owned by an address\n    */\n    function getOwnersProfiles(address owner) external view override returns (uint256[] memory) {\n        uint256[] memory profileIds = new uint256[](_ownersTotalProfiles[owner]);\n\n        for(uint256 i; i < _ownersTotalProfiles[owner]; i++) {\n            profileIds[i] = _ownedProfiles[owner][i];\n        }\n\n        return profileIds;\n    }\n\n    /*\n        @notice Returns the total number of profiles an address owns\n\n        @param Profile owner\n\n        @return Profile count\n    */\n    function ownersTotalProfiles(address owner) view external returns (uint256) {\n        return _ownersTotalProfiles[owner];\n    }\n}\n",
  "sourcePath": "contracts/BBProfiles.sol",
  "type": "contract"
}