{
  "abi": [
    {
      "inputs": [
        {
          "internalType": "address",
          "name": "bbProfiles",
          "type": "address"
        },
        {
          "internalType": "address",
          "name": "bbTiers",
          "type": "address"
        },
        {
          "internalType": "address",
          "name": "treasury",
          "type": "address"
        }
      ],
      "stateMutability": "nonpayable",
      "type": "constructor"
    },
    {
      "anonymous": false,
      "inputs": [
        {
          "indexed": false,
          "internalType": "address",
          "name": "currency",
          "type": "address"
        },
        {
          "indexed": false,
          "internalType": "address",
          "name": "deployedAddress",
          "type": "address"
        }
      ],
      "name": "DeployedSubscription",
      "type": "event"
    },
    {
      "anonymous": false,
      "inputs": [
        {
          "indexed": false,
          "internalType": "uint256",
          "name": "profileId",
          "type": "uint256"
        },
        {
          "indexed": false,
          "internalType": "uint256",
          "name": "contribution",
          "type": "uint256"
        }
      ],
      "name": "EditContribution",
      "type": "event"
    },
    {
      "anonymous": false,
      "inputs": [
        {
          "indexed": false,
          "internalType": "uint256",
          "name": "profileId",
          "type": "uint256"
        },
        {
          "indexed": false,
          "internalType": "uint256",
          "name": "tierSetId",
          "type": "uint256"
        },
        {
          "indexed": false,
          "internalType": "uint256",
          "name": "contribution",
          "type": "uint256"
        }
      ],
      "name": "NewSubscriptionProfile",
      "type": "event"
    },
    {
      "inputs": [
        {
          "internalType": "uint256",
          "name": "profileId",
          "type": "uint256"
        },
        {
          "internalType": "uint256",
          "name": "tierSetId",
          "type": "uint256"
        },
        {
          "internalType": "uint256",
          "name": "contribution",
          "type": "uint256"
        }
      ],
      "name": "createSubscriptionProfile",
      "outputs": [],
      "stateMutability": "nonpayable",
      "type": "function"
    },
    {
      "inputs": [
        {
          "internalType": "address",
          "name": "currency",
          "type": "address"
        }
      ],
      "name": "deploySubscriptions",
      "outputs": [
        {
          "internalType": "address",
          "name": "",
          "type": "address"
        }
      ],
      "stateMutability": "nonpayable",
      "type": "function"
    },
    {
      "inputs": [],
      "name": "getContributionBounds",
      "outputs": [
        {
          "internalType": "uint256",
          "name": "",
          "type": "uint256"
        },
        {
          "internalType": "uint256",
          "name": "",
          "type": "uint256"
        }
      ],
      "stateMutability": "pure",
      "type": "function"
    },
    {
      "inputs": [
        {
          "internalType": "address",
          "name": "currency",
          "type": "address"
        }
      ],
      "name": "getDeployedSubscriptions",
      "outputs": [
        {
          "internalType": "address",
          "name": "",
          "type": "address"
        }
      ],
      "stateMutability": "view",
      "type": "function"
    },
    {
      "inputs": [],
      "name": "getGasPrice",
      "outputs": [
        {
          "internalType": "uint256",
          "name": "gasPrice",
          "type": "uint256"
        }
      ],
      "stateMutability": "view",
      "type": "function"
    },
    {
      "inputs": [],
      "name": "getGasPriceOwner",
      "outputs": [
        {
          "internalType": "address",
          "name": "",
          "type": "address"
        }
      ],
      "stateMutability": "view",
      "type": "function"
    },
    {
      "inputs": [],
      "name": "getGracePeriod",
      "outputs": [
        {
          "internalType": "uint256",
          "name": "",
          "type": "uint256"
        }
      ],
      "stateMutability": "pure",
      "type": "function"
    },
    {
      "inputs": [
        {
          "internalType": "uint256",
          "name": "profileId",
          "type": "uint256"
        },
        {
          "internalType": "uint256",
          "name": "tierId",
          "type": "uint256"
        },
        {
          "internalType": "address",
          "name": "account",
          "type": "address"
        }
      ],
      "name": "getSubscriptionCurrency",
      "outputs": [
        {
          "internalType": "address",
          "name": "",
          "type": "address"
        }
      ],
      "stateMutability": "view",
      "type": "function"
    },
    {
      "inputs": [
        {
          "internalType": "uint256",
          "name": "profileId",
          "type": "uint256"
        }
      ],
      "name": "getSubscriptionProfile",
      "outputs": [
        {
          "internalType": "uint256",
          "name": "",
          "type": "uint256"
        },
        {
          "internalType": "uint256",
          "name": "",
          "type": "uint256"
        }
      ],
      "stateMutability": "view",
      "type": "function"
    },
    {
      "inputs": [],
      "name": "getTreasury",
      "outputs": [
        {
          "internalType": "address",
          "name": "treasury",
          "type": "address"
        }
      ],
      "stateMutability": "view",
      "type": "function"
    },
    {
      "inputs": [],
      "name": "getTreasuryOwner",
      "outputs": [
        {
          "internalType": "address",
          "name": "",
          "type": "address"
        }
      ],
      "stateMutability": "view",
      "type": "function"
    },
    {
      "inputs": [],
      "name": "getUpkeepGasRequirementOwner",
      "outputs": [
        {
          "internalType": "address",
          "name": "",
          "type": "address"
        }
      ],
      "stateMutability": "view",
      "type": "function"
    },
    {
      "inputs": [
        {
          "internalType": "uint256",
          "name": "profileId",
          "type": "uint256"
        },
        {
          "internalType": "uint256",
          "name": "tierId",
          "type": "uint256"
        },
        {
          "internalType": "address",
          "name": "account",
          "type": "address"
        }
      ],
      "name": "isSubscriptionActive",
      "outputs": [
        {
          "internalType": "bool",
          "name": "",
          "type": "bool"
        }
      ],
      "stateMutability": "view",
      "type": "function"
    },
    {
      "inputs": [
        {
          "internalType": "uint256",
          "name": "profileId",
          "type": "uint256"
        }
      ],
      "name": "isSubscriptionProfileCreated",
      "outputs": [
        {
          "internalType": "bool",
          "name": "",
          "type": "bool"
        }
      ],
      "stateMutability": "view",
      "type": "function"
    },
    {
      "inputs": [
        {
          "internalType": "address",
          "name": "currency",
          "type": "address"
        }
      ],
      "name": "isSubscriptionsDeployed",
      "outputs": [
        {
          "internalType": "bool",
          "name": "",
          "type": "bool"
        }
      ],
      "stateMutability": "view",
      "type": "function"
    },
    {
      "inputs": [
        {
          "internalType": "uint256",
          "name": "profileId",
          "type": "uint256"
        },
        {
          "internalType": "uint256",
          "name": "contribution",
          "type": "uint256"
        }
      ],
      "name": "setContribution",
      "outputs": [],
      "stateMutability": "nonpayable",
      "type": "function"
    },
    {
      "inputs": [
        {
          "internalType": "uint256",
          "name": "gasPrice",
          "type": "uint256"
        }
      ],
      "name": "setGasPrice",
      "outputs": [],
      "stateMutability": "nonpayable",
      "type": "function"
    },
    {
      "inputs": [
        {
          "internalType": "address",
          "name": "account",
          "type": "address"
        }
      ],
      "name": "setGasPriceOwner",
      "outputs": [],
      "stateMutability": "nonpayable",
      "type": "function"
    },
    {
      "inputs": [
        {
          "internalType": "uint256",
          "name": "profileId",
          "type": "uint256"
        },
        {
          "internalType": "uint256",
          "name": "tierId",
          "type": "uint256"
        },
        {
          "internalType": "address",
          "name": "account",
          "type": "address"
        },
        {
          "internalType": "address",
          "name": "currency",
          "type": "address"
        }
      ],
      "name": "setSubscriptionCurrency",
      "outputs": [],
      "stateMutability": "nonpayable",
      "type": "function"
    },
    {
      "inputs": [
        {
          "internalType": "address",
          "name": "account",
          "type": "address"
        }
      ],
      "name": "setTreasury",
      "outputs": [],
      "stateMutability": "nonpayable",
      "type": "function"
    },
    {
      "inputs": [
        {
          "internalType": "address",
          "name": "account",
          "type": "address"
        }
      ],
      "name": "setTreasuryOwner",
      "outputs": [],
      "stateMutability": "nonpayable",
      "type": "function"
    },
    {
      "inputs": [
        {
          "internalType": "address",
          "name": "currency",
          "type": "address"
        },
        {
          "internalType": "uint256",
          "name": "amount",
          "type": "uint256"
        }
      ],
      "name": "setUpkeepGasRequirement",
      "outputs": [],
      "stateMutability": "nonpayable",
      "type": "function"
    },
    {
      "inputs": [
        {
          "internalType": "address",
          "name": "account",
          "type": "address"
        }
      ],
      "name": "setUpkeepGasRequirementOwner",
      "outputs": [],
      "stateMutability": "nonpayable",
      "type": "function"
    }
  ],
  "bytecode": "60c06040526406fc23ac006003553480156200001a57600080fd5b5060405162004172380380620041728339810160408190526200003d91620000ad565b6001600160a01b0392831660805290821660a05260048054919092166001600160a01b031991821617909155600580548216339081179091556006805483168217905560078054909216179055620000f7565b80516001600160a01b0381168114620000a857600080fd5b919050565b600080600060608486031215620000c357600080fd5b620000ce8462000090565b9250620000de6020850162000090565b9150620000ee6040850162000090565b90509250925092565b60805160a0516140086200016a6000396000818161055f01526107fb0152600081816103a80152818161053e0152818161064901528181610724015281816108d201528181610a5201528181610b2c01528181610d70015281816111870152818161126b015261142901526140086000f3fe60806040523480156200001157600080fd5b5060043610620001695760003560e01c8063a1a8787c11620000d3578063cc0de2181162000086578063cc0de218146200030c578063d3c672d11462000323578063dbd18388146200033a578063e8b618bd1462000344578063ed74a2021462000375578063f0f44260146200038c57600080fd5b8063a1a8787c146200028c578063a3db943c146200029e578063ba9fda9c14620002b5578063bf1fe42014620002c7578063c6c2267614620002de578063ca8c3e7714620002f557600080fd5b8063358d818c116200012c578063358d818c14620002095780633b19e84a1462000222578063455259cb146200023457806351ea27ae14620002475780635e707483146200025e578063634d5233146200027557600080fd5b8063084a604c146200016e5780630c500e561462000198578063175ff2a214620001af578063268b301414620001c657806332d7d7be14620001e1575b600080fd5b6006546001600160a01b03165b6040516001600160a01b0390911681526020015b60405180910390f35b6200017b620001a936600462001643565b620003a3565b6200017b620001c03660046200167f565b620004e1565b600160645b604080519283526020830191909152016200018f565b620001f8620001f2366004620016a6565b62000644565b60405190151581526020016200018f565b620002206200021a366004620016c0565b62000720565b005b6004546001600160a01b03166200017b565b6003545b6040519081526020016200018f565b620001f86200025836600462001643565b62000a4d565b620002206200026f366004620016ed565b62000d6d565b62000220620002863660046200173c565b62000ecc565b6005546001600160a01b03166200017b565b62000220620002af3660046200167f565b62001021565b6007546001600160a01b03166200017b565b62000220620002d8366004620016a6565b6200108b565b62000220620002ef3660046200167f565b6200111a565b62000220620003063660046200176b565b62001184565b6200017b6200031d3660046200167f565b62001373565b62000220620003343660046200167f565b620013b9565b6202a30062000238565b620001f8620003553660046200167f565b6001600160a01b0390811660009081526001602052604090205416151590565b620001cb62000386366004620016a6565b62001423565b620002206200039d3660046200167f565b62001522565b6000837f00000000000000000000000000000000000000000000000000000000000000006001600160a01b031663d2adbe796040518163ffffffff1660e01b8152600401602060405180830381865afa15801562000405573d6000803e3d6000fd5b505050506040513d601f19601f820116820180604052508101906200042b91906200178e565b8110604051806040016040528060018152602001603560f81b81525090620004715760405162461bcd60e51b8152600401620004689190620017ce565b60405180910390fd5b50600085815260026020908152604080832087845282528083206001600160a01b03878116855292529091205416620004a957600080fd5b600085815260026020908152604080832087845282528083206001600160a01b0380881685529252909120541691505b509392505050565b6001600160a01b038181166000908152600160208181526040808420548151808301909252928152603960f81b9181019190915291921615620005395760405162461bcd60e51b8152600401620004689190620017ce565b5060007f00000000000000000000000000000000000000000000000000000000000000007f000000000000000000000000000000000000000000000000000000000000000030856040516200058e906200161c565b6001600160a01b039485168152928416602084015290831660408301529091166060820152608001604051809103906000f080158015620005d3573d6000803e3d6000fd5b506001600160a01b0384811660008181526001602090815260409182902080546001600160a01b031916948616948517905581519283528201929092529192507fcbb74cbe3a0fd52f508100336e0d2e8a7e184bd44940fc6f24a176009a469a5f910160405180910390a192915050565b6000817f00000000000000000000000000000000000000000000000000000000000000006001600160a01b031663d2adbe796040518163ffffffff1660e01b8152600401602060405180830381865afa158015620006a6573d6000803e3d6000fd5b505050506040513d601f19601f82011682018060405250810190620006cc91906200178e565b8110604051806040016040528060018152602001603560f81b81525090620007095760405162461bcd60e51b8152600401620004689190620017ce565b505050600090815260208190526040902054151590565b82827f00000000000000000000000000000000000000000000000000000000000000006001600160a01b031663d2adbe796040518163ffffffff1660e01b8152600401602060405180830381865afa15801562000781573d6000803e3d6000fd5b505050506040513d601f19601f82011682018060405250810190620007a791906200178e565b8210604051806040016040528060018152602001603560f81b81525090620007e45760405162461bcd60e51b8152600401620004689190620017ce565b5060405163ed340ddf60e01b8152600481018390527f00000000000000000000000000000000000000000000000000000000000000006001600160a01b03169063ed340ddf90602401602060405180830381865afa1580156200084b573d6000803e3d6000fd5b505050506040513d601f19601f820116820180604052508101906200087191906200178e565b8110604051806040016040528060018152602001601b60f91b81525090620008ae5760405162461bcd60e51b8152600401620004689190620017ce565b50604051633c23d3d960e21b81526004810186905285906000906001600160a01b037f0000000000000000000000000000000000000000000000000000000000000000169063f08f4f6490602401600060405180830381865afa1580156200091a573d6000803e3d6000fd5b505050506040513d6000823e601f3d908101601f1916820160405262000944919081019062001819565b50506040805180820190915260018152603160f81b60208201529091506001600160a01b03821633146200098d5760405162461bcd60e51b8152600401620004689190620017ce565b50600087815260208181526040918290205482518084019093526002835261313960f01b9183019190915215620009d95760405162461bcd60e51b8152600401620004689190620017ce565b50620009e687866200158c565b620009f386600162001915565b6000888152602081815260409182902092909255805189815291820188905281018690527f712496816c24246b3c0bf6e37e05b0f7fb8e402c5ae7a311cde9e9ec54665c449060600160405180910390a150505050505050565b6000837f00000000000000000000000000000000000000000000000000000000000000006001600160a01b031663d2adbe796040518163ffffffff1660e01b8152600401602060405180830381865afa15801562000aaf573d6000803e3d6000fd5b505050506040513d601f19601f8201168201806040525081019062000ad591906200178e565b8110604051806040016040528060018152602001603560f81b8152509062000b125760405162461bcd60e51b8152600401620004689190620017ce565b50604051633c23d3d960e21b8152600481018690526000907f00000000000000000000000000000000000000000000000000000000000000006001600160a01b03169063f08f4f6490602401600060405180830381865afa15801562000b7c573d6000803e3d6000fd5b505050506040513d6000823e601f3d908101601f1916820160405262000ba6919081019062001819565b50509050836001600160a01b0316816001600160a01b03160362000bcf576001925050620004d9565b6001600160a01b0381163b1562000c5e57604051631f81da0360e11b81526001600160a01b038581166004830152821690633f03b40690602401602060405180830381865afa92505050801562000c45575060408051601f3d908101601f1916820190925262000c429181019062001947565b60015b1562000c5e57801562000c5c579250620004d99050565b505b600086815260026020908152604080832088845282528083206001600160a01b0388811685529252909120541662000c9b576000925050620004d9565b600086815260026020908152604080832088845282528083206001600160a01b0388811680865291845282852054811685526001909352818420549151636a9eaf2160e11b8152600481018b9052602481018a9052604481019190915291169190829063d53d5e4290606401606060405180830381865afa15801562000d25573d6000803e3d6000fd5b505050506040513d601f19601f8201168201806040525081019062000d4b919062001965565b50915062000d5f90506202a3008262001915565b421098975050505050505050565b837f00000000000000000000000000000000000000000000000000000000000000006001600160a01b031663d2adbe796040518163ffffffff1660e01b8152600401602060405180830381865afa15801562000dcd573d6000803e3d6000fd5b505050506040513d601f19601f8201168201806040525081019062000df391906200178e565b8110604051806040016040528060018152602001603560f81b8152509062000e305760405162461bcd60e51b8152600401620004689190620017ce565b506001600160a01b03828116600090815260016020818152604092839020548351808501909452918352603160f81b90830152909116331462000e885760405162461bcd60e51b8152600401620004689190620017ce565b505060009384526002602090815260408086209486529381528385206001600160a01b03938416865290529190922080546001600160a01b03191691909216179055565b6007546040805180820190915260018152603160f81b6020820152906001600160a01b0316331462000f135760405162461bcd60e51b8152600401620004689190620017ce565b506040805180820190915260018152601960f91b6020820152622625a082111562000f535760405162461bcd60e51b8152600401620004689190620017ce565b506001600160a01b038281166000908152600160209081526040918290205482518084019093526002835261062760f31b9183019190915290911662000fae5760405162461bcd60e51b8152600401620004689190620017ce565b506001600160a01b038281166000908152600160205260409081902054905162c6341160e11b81526004810184905291169063018c682290602401600060405180830381600087803b1580156200100457600080fd5b505af115801562001019573d6000803e3d6000fd5b505050505050565b6007546040805180820190915260018152603160f81b6020820152906001600160a01b03163314620010685760405162461bcd60e51b8152600401620004689190620017ce565b50600780546001600160a01b0319166001600160a01b0392909216919091179055565b6006546040805180820190915260018152603160f81b6020820152906001600160a01b03163314620010d25760405162461bcd60e51b8152600401620004689190620017ce565b506040805180820190915260018152601960f91b602082015264e8d4a51000821115620011145760405162461bcd60e51b8152600401620004689190620017ce565b50600355565b6006546040805180820190915260018152603160f81b6020820152906001600160a01b03163314620011615760405162461bcd60e51b8152600401620004689190620017ce565b50600680546001600160a01b0319166001600160a01b0392909216919091179055565b817f00000000000000000000000000000000000000000000000000000000000000006001600160a01b031663d2adbe796040518163ffffffff1660e01b8152600401602060405180830381865afa158015620011e4573d6000803e3d6000fd5b505050506040513d601f19601f820116820180604052508101906200120a91906200178e565b8110604051806040016040528060018152602001603560f81b81525090620012475760405162461bcd60e51b8152600401620004689190620017ce565b50604051633c23d3d960e21b81526004810184905283906000906001600160a01b037f0000000000000000000000000000000000000000000000000000000000000000169063f08f4f6490602401600060405180830381865afa158015620012b3573d6000803e3d6000fd5b505050506040513d6000823e601f3d908101601f19168201604052620012dd919081019062001819565b50506040805180820190915260018152603160f81b60208201529091506001600160a01b0382163314620013265760405162461bcd60e51b8152600401620004689190620017ce565b506200133385856200158c565b60408051868152602081018690527fd4ea22d2ab0fef3d73a9c65cec244ae56b85825c9ded190f80b5c626c0bcabc4910160405180910390a15050505050565b6001600160a01b038181166000908152600160205260408120549091166200139a57600080fd5b506001600160a01b039081166000908152600160205260409020541690565b6005546040805180820190915260018152603160f81b6020820152906001600160a01b03163314620014005760405162461bcd60e51b8152600401620004689190620017ce565b50600580546001600160a01b0319166001600160a01b0392909216919091179055565b600080827f00000000000000000000000000000000000000000000000000000000000000006001600160a01b031663d2adbe796040518163ffffffff1660e01b8152600401602060405180830381865afa15801562001486573d6000803e3d6000fd5b505050506040513d601f19601f82011682018060405250810190620014ac91906200178e565b8110604051806040016040528060018152602001603560f81b81525090620014e95760405162461bcd60e51b8152600401620004689190620017ce565b5060008481526020819052604090205462001507906001906200199d565b60009485526020859052604090942060010154939492505050565b6005546040805180820190915260018152603160f81b6020820152906001600160a01b03163314620015695760405162461bcd60e51b8152600401620004689190620017ce565b50600480546001600160a01b0319166001600160a01b0392909216919091179055565b604080518082019091526001808252601960f91b6020830152821015620015c85760405162461bcd60e51b8152600401620004689190620017ce565b506040805180820190915260018152601960f91b60208201526064821115620016065760405162461bcd60e51b8152600401620004689190620017ce565b5060009182526020829052604090912060010155565b61261f80620019b483390190565b6001600160a01b03811681146200164057600080fd5b50565b6000806000606084860312156200165957600080fd5b8335925060208401359150604084013562001674816200162a565b809150509250925092565b6000602082840312156200169257600080fd5b81356200169f816200162a565b9392505050565b600060208284031215620016b957600080fd5b5035919050565b600080600060608486031215620016d657600080fd5b505081359360208301359350604090920135919050565b600080600080608085870312156200170457600080fd5b843593506020850135925060408501356200171f816200162a565b9150606085013562001731816200162a565b939692955090935050565b600080604083850312156200175057600080fd5b82356200175d816200162a565b946020939093013593505050565b600080604083850312156200177f57600080fd5b50508035926020909101359150565b600060208284031215620017a157600080fd5b5051919050565b60005b83811015620017c5578181015183820152602001620017ab565b50506000910152565b6020815260008251806020840152620017ef816040850160208701620017a8565b601f01601f19169190910160400192915050565b634e487b7160e01b600052604160045260246000fd5b6000806000606084860312156200182f57600080fd5b83516200183c816200162a565b60208501519093506200184f816200162a565b604085015190925067ffffffffffffffff808211156200186e57600080fd5b818601915086601f8301126200188357600080fd5b81518181111562001898576200189862001803565b604051601f8201601f19908116603f01168101908382118183101715620018c357620018c362001803565b81604052828152896020848701011115620018dd57600080fd5b620018f0836020830160208801620017a8565b80955050505050509250925092565b634e487b7160e01b600052601160045260246000fd5b808201808211156200192b576200192b620018ff565b92915050565b805180151581146200194257600080fd5b919050565b6000602082840312156200195a57600080fd5b6200169f8262001931565b6000806000606084860312156200197b57600080fd5b8351925060208401519150620019946040850162001931565b90509250925092565b818103818111156200192b576200192b620018ff56fe61010060405262036ee86003553480156200001957600080fd5b506040516200261f3803806200261f8339810160408190526200003c916200007c565b6001600160a01b0393841660805291831660a052821660c0521660e052620000d9565b80516001600160a01b03811681146200007757600080fd5b919050565b600080600080608085870312156200009357600080fd5b6200009e856200005f565b9350620000ae602086016200005f565b9250620000be604086016200005f565b9150620000ce606086016200005f565b905092959194509250565b60805160a05160c05160e0516124806200019f60003960008181610e1201528181610ed60152818161130d015281816113ce015281816117620152818161193f015281816119d401528181611a750152611aed0152600081816101e0015281816103de015281816108ce0152818161096b01528181610abd01528181610e4101528181611019015281816110b60152818161126e01528181611684015261178a01526000818161049e015261133b01526000818161059b01526115ed01526124806000f3fe6080604052600436106100865760003560e01c80634b236e95116100595780634b236e95146101155780636e04ff0d1461012a5780637e80c18614610158578063843708131461016d578063d53d5e421461018057600080fd5b8063018c68221461008b57806309e02c17146100ad5780634585e33b146100cd57806346a8a015146100ed575b600080fd5b34801561009757600080fd5b506100ab6100a6366004611e17565b6101bd565b005b3480156100b957600080fd5b506100ab6100c8366004611e30565b61022d565b3480156100d957600080fd5b506100ab6100e8366004611e52565b61033f565b3480156100f957600080fd5b50610102610ab9565b6040519081526020015b60405180910390f35b34801561012157600080fd5b50600354610102565b34801561013657600080fd5b5061014a610145366004611e52565b610b5a565b60405161010c929190611f14565b34801561016457600080fd5b506100ab610e10565b61010261017b366004611e30565b610fbb565b34801561018c57600080fd5b506101a061019b366004611f44565b611833565b60408051938452602084019290925215159082015260600161010c565b6040805180820190915260018152603160f81b6020820152336001600160a01b037f000000000000000000000000000000000000000000000000000000000000000016146102275760405162461bcd60e51b815260040161021e9190611f7d565b60405180910390fd5b50600355565b600061023a838333611874565b6000818152602081815260409182902060020154825180840190935260018352603360f81b91830191909152919250906001600160a01b031633146102925760405162461bcd60e51b815260040161021e9190611f7d565b50600081815260208181526040918290206005015482518084019093526002835261313160f01b9183019190915260ff16156102e15760405162461bcd60e51b815260040161021e9190611f7d565b5060008181526020819052604090819020600501805460ff19166001179055517fbdcd5f8b5e00da56711125e00a6f462fe30c2c17edb4cecec2e7bbeac057377d9061033290859085903390611f97565b60405180910390a1505050565b60008061034e8385018561200d565b9150915060005a90506000805b8451811015610890574260008087848151811061037a5761037a6120c5565b60200260200101518152602001908152602001600020600401541080156103d457506000808683815181106103b1576103b16120c5565b60209081029190910181015182528101919091526040016000206005015460ff16155b1561087e576000807f00000000000000000000000000000000000000000000000000000000000000006001600160a01b031663ed74a2026000808a8781518110610420576104206120c5565b60200260200101518152602001908152602001600020600001546040518263ffffffff1660e01b815260040161045891815260200190565b6040805180830381865afa158015610474573d6000803e3d6000fd5b505050506040513d601f19601f8201168201806040525081019061049891906120db565b915091507f00000000000000000000000000000000000000000000000000000000000000006001600160a01b031663819ca2226000808a87815181106104e0576104e06120c5565b6020026020010151815260200190815260200160002060000154846040518363ffffffff1660e01b8152600401610521929190918252602082015260400190565b602060405180830381865afa15801561053e573d6000803e3d6000fd5b505050506040513d601f19601f8201168201806040525081019061056291906120ff565b600080898681518110610577576105776120c5565b6020026020010151815260200190815260200160002060010154101561074f5760007f00000000000000000000000000000000000000000000000000000000000000006001600160a01b031663f08f4f646000808b88815181106105dd576105dd6120c5565b60200260200101518152602001908152602001600020600001546040518263ffffffff1660e01b815260040161061591815260200190565b600060405180830381865afa158015610632573d6000803e3d6000fd5b505050506040513d6000823e601f3d908101601f1916820160405261065a9190810190612118565b5091505060006106db6000808b8881518110610678576106786120c5565b6020026020010151815260200190815260200160002060020160009054906101000a90046001600160a01b0316836000808d8a815181106106bb576106bb6120c5565b602002602001015181526020019081526020016000206003015486611915565b9050801561074c576106ec42611bb7565b6106f990620151806121eb565b6107039042612202565b6000808b8881518110610718576107186120c5565b6020026020010151815260200190815260200160002060040181905550858061074090612215565b9650505050505061087e565b50505b6001600080898681518110610766576107666120c5565b6020026020010151815260200190815260200160002060050160006101000a81548160ff0219169083151502179055507fbdcd5f8b5e00da56711125e00a6f462fe30c2c17edb4cecec2e7bbeac057377d6000808986815181106107cc576107cc6120c5565b60200260200101518152602001908152602001600020600001546000808a87815181106107fb576107fb6120c5565b60200260200101518152602001908152602001600020600101546000808b888151811061082a5761082a6120c5565b6020026020010151815260200190815260200160002060020160009054906101000a90046001600160a01b031660405161086693929190611f97565b60405180910390a18361087881612215565b94505050505b8061088881612215565b91505061035b565b50604080518082019091526002815261189960f11b6020820152816108c85760405162461bcd60e51b815260040161021e9190611f7d565b506000817f00000000000000000000000000000000000000000000000000000000000000006001600160a01b031663455259cb6040518163ffffffff1660e01b8152600401602060405180830381865afa15801561092a573d6000803e3d6000fd5b505050506040513d601f19601f8201168201806040525081019061094e91906120ff565b60035461095b91906121eb565b61096591906121eb565b905060007f00000000000000000000000000000000000000000000000000000000000000006001600160a01b031663455259cb6040518163ffffffff1660e01b8152600401602060405180830381865afa1580156109c7573d6000803e3d6000fd5b505050506040513d601f19601f820116820180604052508101906109eb91906120ff565b6109f7846101a76121eb565b610a039061dcde612202565b5a610a0e908761222e565b610a189190612202565b610a2291906121eb565b9050828651610a31919061222e565b8651610a3d9083612257565b610a4791906121eb565b610a51908261222e565b905081811115610a5e5750805b6040516001600160a01b038616908290600081818185875af1925050503d8060008114610aa7576040519150601f19603f3d011682016040523d82523d6000602084013e610aac565b606091505b5050505050505050505050565b60007f00000000000000000000000000000000000000000000000000000000000000006001600160a01b031663455259cb6040518163ffffffff1660e01b8152600401602060405180830381865afa158015610b19573d6000803e3d6000fd5b505050506040513d601f19601f82011682018060405250810190610b3d91906120ff565b600354610b4a91906121eb565b610b5590603c6121eb565b905090565b600060608180808080610b6f888a018a61226b565b945094509450945094506001548410610b935760018054610b90919061222e565b93505b6040805180820190915260018152601960f91b602082015284861115610bcc5760405162461bcd60e51b815260040161021e9190611f7d565b50600080610bda878761222e565b610be5906001612202565b905060008467ffffffffffffffff811115610c0257610c02611fb6565b604051908082528060200260200182016040528015610c2b578160200160208202803683370190505b50905060005b82811015610cca576000610c45828b612202565b60008181526020819052604090206004015490915042118015610c7a575060008181526020819052604090206005015460ff16155b15610cb75780838681518110610c9257610c926120c5565b602090810291909101015284610ca781612215565b955050868510610cb75750610cca565b5080610cc281612215565b915050610c31565b50821580610cd757508583105b15610cff57600060405180602001604052806000815250995099505050505050505050610e09565b848303610d3b5760018185604051602001610d1b9291906122b8565b604051602081830303815290604052995099505050505050505050610e09565b60008367ffffffffffffffff811115610d5657610d56611fb6565b604051908082528060200260200182016040528015610d7f578160200160208202803683370190505b50905060005b84811015610dd657828181518110610d9f57610d9f6120c5565b6020026020010151828281518110610db957610db96120c5565b602090810291909101015280610dce81612215565b915050610d85565b5060018186604051602001610dec9291906122b8565b6040516020818303038152906040529a509a505050505050505050505b9250929050565b7f00000000000000000000000000000000000000000000000000000000000000006001600160a01b031663a9059cbb7f00000000000000000000000000000000000000000000000000000000000000006001600160a01b0316633b19e84a6040518163ffffffff1660e01b8152600401602060405180830381865afa158015610e9d573d6000803e3d6000fd5b505050506040513d601f19601f82011682018060405250810190610ec1919061230c565b6040516370a0823160e01b81523060048201527f00000000000000000000000000000000000000000000000000000000000000006001600160a01b0316906370a0823190602401602060405180830381865afa158015610f25573d6000803e3d6000fd5b505050506040513d601f19601f82011682018060405250810190610f4991906120ff565b6040516001600160e01b031960e085901b1681526001600160a01b03909216600483015260248201526044016020604051808303816000875af1158015610f94573d6000803e3d6000fd5b505050506040513d601f19601f82011682018060405250810190610fb89190612339565b50565b6000610fc5610ab9565b34101560405180604001604052806002815260200161313360f01b815250906110015760405162461bcd60e51b815260040161021e9190611f7d565b506040516328f513d760e11b81526001600160a01b037f000000000000000000000000000000000000000000000000000000000000000016906351ea27ae9061105290869086903390600401611f97565b602060405180830381865afa15801561106f573d6000803e3d6000fd5b505050506040513d601f19601f820116820180604052508101906110939190612339565b151560010361125557604051630628072b60e11b81526000906001600160a01b037f0000000000000000000000000000000000000000000000000000000000000000169063cc0de218908290630c500e56906110f790899089903390600401611f97565b602060405180830381865afa158015611114573d6000803e3d6000fd5b505050506040513d601f19601f82011682018060405250810190611138919061230c565b6040516001600160e01b031960e084901b1681526001600160a01b039091166004820152602401602060405180830381865afa15801561117c573d6000803e3d6000fd5b505050506040513d601f19601f820116820180604052508101906111a0919061230c565b6001600160a01b031663d53d5e428585336040518463ffffffff1660e01b81526004016111cf93929190611f97565b606060405180830381865afa1580156111ec573d6000803e3d6000fd5b505050506040513d601f19601f820116820180604052508101906112109190612354565b604080518082019091526002815261189b60f11b60208201529093509150506001821515146112525760405162461bcd60e51b815260040161021e9190611f7d565b50505b6040516376ba510160e11b8152600481018490526000907f00000000000000000000000000000000000000000000000000000000000000006001600160a01b03169063ed74a202906024016040805180830381865afa1580156112bc573d6000803e3d6000fd5b505050506040513d601f19601f820116820180604052508101906112e091906120db565b506040516347b5c68160e11b81526004810186905260248101829052604481018590526001600160a01b037f0000000000000000000000000000000000000000000000000000000000000000811660648301529192506000917f00000000000000000000000000000000000000000000000000000000000000001690638f6b8d0290608401602060405180830381865afa158015611382573d6000803e3d6000fd5b505050506040513d601f19601f820116820180604052508101906113a691906120ff565b90506113b381603c6121eb565b604051636eb1769f60e11b81523360048201523060248201527f00000000000000000000000000000000000000000000000000000000000000006001600160a01b03169063dd62ed3e90604401602060405180830381865afa15801561141d573d6000803e3d6000fd5b505050506040513d601f19601f8201168201806040525081019061144191906120ff565b1015604051806040016040528060028152602001610c4d60f21b8152509061147c5760405162461bcd60e51b815260040161021e9190611f7d565b5060015460008681526002602090815260408083208884528252808320338452909152812054919450036114f457600180546114b791612202565b6000868152600260209081526040808320888452825280832033845290915281209190915560018054916114ea83612215565b9190505550611525565b600085815260026020908152604080832087845282528083203384529091529020546115229060019061222e565b92505b6040518060c00160405280868152602001858152602001336001600160a01b031681526020018281526020014262278d006115609190612202565b815260006020918201819052858152808252604080822084518155928401516001840155838101516002840180546001600160a01b0319166001600160a01b0392831617905560608501516003850155608085015160048086019190915560a0909501516005909401805460ff19169415159490941790935551633c23d3d960e21b8152928301889052917f00000000000000000000000000000000000000000000000000000000000000009091169063f08f4f6490602401600060405180830381865afa158015611636573d6000803e3d6000fd5b505050506040513d6000823e601f3d908101601f1916820160405261165e9190810190612118565b506040516376ba510160e11b815260048101899052909250600091506001600160a01b037f0000000000000000000000000000000000000000000000000000000000000000169063ed74a202906024016040805180830381865afa1580156116ca573d6000803e3d6000fd5b505050506040513d601f19601f820116820180604052508101906116ee91906120db565b9150506116fd33838584611915565b60405180604001604052806002815260200161313560f01b815250906117365760405162461bcd60e51b815260040161021e9190611f7d565b50604051635e70748360e01b815260048101889052602481018790523360448201526001600160a01b037f0000000000000000000000000000000000000000000000000000000000000000811660648301527f00000000000000000000000000000000000000000000000000000000000000001690635e70748390608401600060405180830381600087803b1580156117ce57600080fd5b505af11580156117e2573d6000803e3d6000fd5b505050506117ee610e10565b7f719d57359948c2c6f2a923516c19aba22b490e924879b674c1d6371bb6541f1787873360405161182193929190611f97565b60405180910390a15050505092915050565b600080600080611844878787611874565b600090815260208190526040902060038101546004820154600590920154909991985060ff169650945050505050565b600083815260026020908152604080832085845282528083206001600160a01b0385168452825280832054815180830190925260018252600760fb1b92820192909252906118d55760405162461bcd60e51b815260040161021e9190611f7d565b50600084815260026020908152604080832086845282528083206001600160a01b038616845290915290205461190d9060019061222e565b949350505050565b604051636eb1769f60e11b81526001600160a01b03858116600483015230602483015260009184917f0000000000000000000000000000000000000000000000000000000000000000169063dd62ed3e90604401602060405180830381865afa158015611986573d6000803e3d6000fd5b505050506040513d601f19601f820116820180604052508101906119aa91906120ff565b10158015611a4457506040516370a0823160e01b81526001600160a01b03868116600483015284917f0000000000000000000000000000000000000000000000000000000000000000909116906370a0823190602401602060405180830381865afa158015611a1d573d6000803e3d6000fd5b505050506040513d601f19601f82011682018060405250810190611a4191906120ff565b10155b15611bac576040516323b872dd60e01b81526001600160a01b038681166004830152306024830152604482018590527f000000000000000000000000000000000000000000000000000000000000000016906323b872dd906064016020604051808303816000875af1158015611abe573d6000803e3d6000fd5b505050506040513d601f19601f82011682018060405250810190611ae29190612339565b506001600160a01b037f00000000000000000000000000000000000000000000000000000000000000001663a9059cbb856064611b1f868261222e565b611b2990886121eb565b611b339190612257565b6040516001600160e01b031960e085901b1681526001600160a01b03909216600483015260248201526044016020604051808303816000875af1158015611b7e573d6000803e3d6000fd5b505050506040513d601f19601f82011682018060405250810190611ba29190612339565b506001905061190d565b506000949350505050565b60008080611bd0611bcb6201518086612257565b611bdf565b509150915061190d8282611d53565b60008080838162253d8c611bf68362010bd9612389565b611c009190612389565b9050600062023ab1611c138360046123b1565b611c1d91906123e1565b90506004611c2e8262023ab16123b1565b611c39906003612389565b611c4391906123e1565b611c4d908361240f565b9150600062164b09611c60846001612389565b611c6c90610fa06123b1565b611c7691906123e1565b90506004611c86826105b56123b1565b611c9091906123e1565b611c9a908461240f565b611ca590601f612389565b9250600061098f611cb78560506123b1565b611cc191906123e1565b905060006050611cd38361098f6123b1565b611cdd91906123e1565b611ce7908661240f565b9050611cf4600b836123e1565b9450611d0185600c6123b1565b611d0c836002612389565b611d16919061240f565b91508483611d2560318761240f565b611d309060646123b1565b611d3a9190612389565b611d449190612389565b9a919950975095505050505050565b60008160011480611d645750816003145b80611d6f5750816005145b80611d7a5750816007145b80611d855750816008145b80611d90575081600a145b80611d9b575081600c145b15611da85750601f611dd5565b81600214611db85750601e611dd5565b611dc183611ddb565b611dcc57601c611dcf565b601d5b60ff1690505b92915050565b6000611de8600483612436565b158015611dfe5750611dfb606483612436565b15155b80611dd55750611e1061019083612436565b1592915050565b600060208284031215611e2957600080fd5b5035919050565b60008060408385031215611e4357600080fd5b50508035926020909101359150565b60008060208385031215611e6557600080fd5b823567ffffffffffffffff80821115611e7d57600080fd5b818501915085601f830112611e9157600080fd5b813581811115611ea057600080fd5b866020828501011115611eb257600080fd5b60209290920196919550909350505050565b60005b83811015611edf578181015183820152602001611ec7565b50506000910152565b60008151808452611f00816020860160208601611ec4565b601f01601f19169290920160200192915050565b821515815260406020820152600061190d6040830184611ee8565b6001600160a01b0381168114610fb857600080fd5b600080600060608486031215611f5957600080fd5b83359250602084013591506040840135611f7281611f2f565b809150509250925092565b602081526000611f906020830184611ee8565b9392505050565b92835260208301919091526001600160a01b0316604082015260600190565b634e487b7160e01b600052604160045260246000fd5b604051601f8201601f1916810167ffffffffffffffff81118282101715611ff557611ff5611fb6565b604052919050565b803561200881611f2f565b919050565b6000806040838503121561202057600080fd5b823567ffffffffffffffff8082111561203857600080fd5b818501915085601f83011261204c57600080fd5b813560208282111561206057612060611fb6565b8160051b9250612071818401611fcc565b828152928401810192818101908985111561208b57600080fd5b948201945b848610156120a957853582529482019490820190612090565b96506120b89050878201611ffd565b9450505050509250929050565b634e487b7160e01b600052603260045260246000fd5b600080604083850312156120ee57600080fd5b505080516020909101519092909150565b60006020828403121561211157600080fd5b5051919050565b60008060006060848603121561212d57600080fd5b835161213881611f2f565b602085015190935061214981611f2f565b604085015190925067ffffffffffffffff8082111561216757600080fd5b818601915086601f83011261217b57600080fd5b81518181111561218d5761218d611fb6565b6121a0601f8201601f1916602001611fcc565b91508082528760208285010111156121b757600080fd5b6121c8816020840160208601611ec4565b5080925050509250925092565b634e487b7160e01b600052601160045260246000fd5b8082028115828204841417611dd557611dd56121d5565b80820180821115611dd557611dd56121d5565b600060018201612227576122276121d5565b5060010190565b81810381811115611dd557611dd56121d5565b634e487b7160e01b600052601260045260246000fd5b60008261226657612266612241565b500490565b600080600080600060a0868803121561228357600080fd5b8535945060208601359350604086013592506060860135915060808601356122aa81611f2f565b809150509295509295909350565b604080825283519082018190526000906020906060840190828701845b828110156122f1578151845292840192908401906001016122d5565b5050506001600160a01b039490941692019190915250919050565b60006020828403121561231e57600080fd5b8151611f9081611f2f565b8051801515811461200857600080fd5b60006020828403121561234b57600080fd5b611f9082612329565b60008060006060848603121561236957600080fd5b835192506020840151915061238060408501612329565b90509250925092565b80820182811260008312801582168215821617156123a9576123a96121d5565b505092915050565b80820260008212600160ff1b841416156123cd576123cd6121d5565b8181058314821517611dd557611dd56121d5565b6000826123f0576123f0612241565b600160ff1b82146000198414161561240a5761240a6121d5565b500590565b818103600083128015838313168383128216171561242f5761242f6121d5565b5092915050565b60008261244557612445612241565b50069056fea2646970667358221220db67adeb4b66ebb9061bfc1a7791af444f8b20a46d2eb25912817aadcc51c45164736f6c63430008110033a264697066735822122006dd94257e975fbdf0e75dddffe2307c77f44a3ce7f6113b3d1870ae29cd1fe364736f6c63430008110033",
  "bytecodeSha1": "8c6a4b15edc94ec0cab099f8094aa313bf5badeb",
  "compiler": {
    "evm_version": "istanbul",
    "optimizer": {
      "enabled": true,
      "runs": 200
    },
    "version": "0.8.17+commit.8df45f5f"
  },
  "contractName": "BBSubscriptionsFactory",
  "language": "Solidity",
  "natspec": {
    "kind": "dev",
    "methods": {},
    "version": 1
  },
  "opcodes": "PUSH1 0x80 PUSH1 0x40 MSTORE CALLVALUE DUP1 ISZERO PUSH3 0x11 JUMPI PUSH1 0x0 DUP1 REVERT JUMPDEST POP PUSH1 0x4 CALLDATASIZE LT PUSH3 0x169 JUMPI PUSH1 0x0 CALLDATALOAD PUSH1 0xE0 SHR DUP1 PUSH4 0xA1A8787C GT PUSH3 0xD3 JUMPI DUP1 PUSH4 0xCC0DE218 GT PUSH3 0x86 JUMPI DUP1 PUSH4 0xCC0DE218 EQ PUSH3 0x30C JUMPI DUP1 PUSH4 0xD3C672D1 EQ PUSH3 0x323 JUMPI DUP1 PUSH4 0xDBD18388 EQ PUSH3 0x33A JUMPI DUP1 PUSH4 0xE8B618BD EQ PUSH3 0x344 JUMPI DUP1 PUSH4 0xED74A202 EQ PUSH3 0x375 JUMPI DUP1 PUSH4 0xF0F44260 EQ PUSH3 0x38C JUMPI PUSH1 0x0 DUP1 REVERT JUMPDEST DUP1 PUSH4 0xA1A8787C EQ PUSH3 0x28C JUMPI DUP1 PUSH4 0xA3DB943C EQ PUSH3 0x29E JUMPI DUP1 PUSH4 0xBA9FDA9C EQ PUSH3 0x2B5 JUMPI DUP1 PUSH4 0xBF1FE420 EQ PUSH3 0x2C7 JUMPI DUP1 PUSH4 0xC6C22676 EQ PUSH3 0x2DE JUMPI DUP1 PUSH4 0xCA8C3E77 EQ PUSH3 0x2F5 JUMPI PUSH1 0x0 DUP1 REVERT JUMPDEST DUP1 PUSH4 0x358D818C GT PUSH3 0x12C JUMPI DUP1 PUSH4 0x358D818C EQ PUSH3 0x209 JUMPI DUP1 PUSH4 0x3B19E84A EQ PUSH3 0x222 JUMPI DUP1 PUSH4 0x455259CB EQ PUSH3 0x234 JUMPI DUP1 PUSH4 0x51EA27AE EQ PUSH3 0x247 JUMPI DUP1 PUSH4 0x5E707483 EQ PUSH3 0x25E JUMPI DUP1 PUSH4 0x634D5233 EQ PUSH3 0x275 JUMPI PUSH1 0x0 DUP1 REVERT JUMPDEST DUP1 PUSH4 0x84A604C EQ PUSH3 0x16E JUMPI DUP1 PUSH4 0xC500E56 EQ PUSH3 0x198 JUMPI DUP1 PUSH4 0x175FF2A2 EQ PUSH3 0x1AF JUMPI DUP1 PUSH4 0x268B3014 EQ PUSH3 0x1C6 JUMPI DUP1 PUSH4 0x32D7D7BE EQ PUSH3 0x1E1 JUMPI JUMPDEST PUSH1 0x0 DUP1 REVERT JUMPDEST PUSH1 0x6 SLOAD PUSH1 0x1 PUSH1 0x1 PUSH1 0xA0 SHL SUB AND JUMPDEST PUSH1 0x40 MLOAD PUSH1 0x1 PUSH1 0x1 PUSH1 0xA0 SHL SUB SWAP1 SWAP2 AND DUP2 MSTORE PUSH1 0x20 ADD JUMPDEST PUSH1 0x40 MLOAD DUP1 SWAP2 SUB SWAP1 RETURN JUMPDEST PUSH3 0x17B PUSH3 0x1A9 CALLDATASIZE PUSH1 0x4 PUSH3 0x1643 JUMP JUMPDEST PUSH3 0x3A3 JUMP JUMPDEST PUSH3 0x17B PUSH3 0x1C0 CALLDATASIZE PUSH1 0x4 PUSH3 0x167F JUMP JUMPDEST PUSH3 0x4E1 JUMP JUMPDEST PUSH1 0x1 PUSH1 0x64 JUMPDEST PUSH1 0x40 DUP1 MLOAD SWAP3 DUP4 MSTORE PUSH1 0x20 DUP4 ADD SWAP2 SWAP1 SWAP2 MSTORE ADD PUSH3 0x18F JUMP JUMPDEST PUSH3 0x1F8 PUSH3 0x1F2 CALLDATASIZE PUSH1 0x4 PUSH3 0x16A6 JUMP JUMPDEST PUSH3 0x644 JUMP JUMPDEST PUSH1 0x40 MLOAD SWAP1 ISZERO ISZERO DUP2 MSTORE PUSH1 0x20 ADD PUSH3 0x18F JUMP JUMPDEST PUSH3 0x220 PUSH3 0x21A CALLDATASIZE PUSH1 0x4 PUSH3 0x16C0 JUMP JUMPDEST PUSH3 0x720 JUMP JUMPDEST STOP JUMPDEST PUSH1 0x4 SLOAD PUSH1 0x1 PUSH1 0x1 PUSH1 0xA0 SHL SUB AND PUSH3 0x17B JUMP JUMPDEST PUSH1 0x3 SLOAD JUMPDEST PUSH1 0x40 MLOAD SWAP1 DUP2 MSTORE PUSH1 0x20 ADD PUSH3 0x18F JUMP JUMPDEST PUSH3 0x1F8 PUSH3 0x258 CALLDATASIZE PUSH1 0x4 PUSH3 0x1643 JUMP JUMPDEST PUSH3 0xA4D JUMP JUMPDEST PUSH3 0x220 PUSH3 0x26F CALLDATASIZE PUSH1 0x4 PUSH3 0x16ED JUMP JUMPDEST PUSH3 0xD6D JUMP JUMPDEST PUSH3 0x220 PUSH3 0x286 CALLDATASIZE PUSH1 0x4 PUSH3 0x173C JUMP JUMPDEST PUSH3 0xECC JUMP JUMPDEST PUSH1 0x5 SLOAD PUSH1 0x1 PUSH1 0x1 PUSH1 0xA0 SHL SUB AND PUSH3 0x17B JUMP JUMPDEST PUSH3 0x220 PUSH3 0x2AF CALLDATASIZE PUSH1 0x4 PUSH3 0x167F JUMP JUMPDEST PUSH3 0x1021 JUMP JUMPDEST PUSH1 0x7 SLOAD PUSH1 0x1 PUSH1 0x1 PUSH1 0xA0 SHL SUB AND PUSH3 0x17B JUMP JUMPDEST PUSH3 0x220 PUSH3 0x2D8 CALLDATASIZE PUSH1 0x4 PUSH3 0x16A6 JUMP JUMPDEST PUSH3 0x108B JUMP JUMPDEST PUSH3 0x220 PUSH3 0x2EF CALLDATASIZE PUSH1 0x4 PUSH3 0x167F JUMP JUMPDEST PUSH3 0x111A JUMP JUMPDEST PUSH3 0x220 PUSH3 0x306 CALLDATASIZE PUSH1 0x4 PUSH3 0x176B JUMP JUMPDEST PUSH3 0x1184 JUMP JUMPDEST PUSH3 0x17B PUSH3 0x31D CALLDATASIZE PUSH1 0x4 PUSH3 0x167F JUMP JUMPDEST PUSH3 0x1373 JUMP JUMPDEST PUSH3 0x220 PUSH3 0x334 CALLDATASIZE PUSH1 0x4 PUSH3 0x167F JUMP JUMPDEST PUSH3 0x13B9 JUMP JUMPDEST PUSH3 0x2A300 PUSH3 0x238 JUMP JUMPDEST PUSH3 0x1F8 PUSH3 0x355 CALLDATASIZE PUSH1 0x4 PUSH3 0x167F JUMP JUMPDEST PUSH1 0x1 PUSH1 0x1 PUSH1 0xA0 SHL SUB SWAP1 DUP2 AND PUSH1 0x0 SWAP1 DUP2 MSTORE PUSH1 0x1 PUSH1 0x20 MSTORE PUSH1 0x40 SWAP1 KECCAK256 SLOAD AND ISZERO ISZERO SWAP1 JUMP JUMPDEST PUSH3 0x1CB PUSH3 0x386 CALLDATASIZE PUSH1 0x4 PUSH3 0x16A6 JUMP JUMPDEST PUSH3 0x1423 JUMP JUMPDEST PUSH3 0x220 PUSH3 0x39D CALLDATASIZE PUSH1 0x4 PUSH3 0x167F JUMP JUMPDEST PUSH3 0x1522 JUMP JUMPDEST PUSH1 0x0 DUP4 PUSH32 0x0 PUSH1 0x1 PUSH1 0x1 PUSH1 0xA0 SHL SUB AND PUSH4 0xD2ADBE79 PUSH1 0x40 MLOAD DUP2 PUSH4 0xFFFFFFFF AND PUSH1 0xE0 SHL DUP2 MSTORE PUSH1 0x4 ADD PUSH1 0x20 PUSH1 0x40 MLOAD DUP1 DUP4 SUB DUP2 DUP7 GAS STATICCALL ISZERO DUP1 ISZERO PUSH3 0x405 JUMPI RETURNDATASIZE PUSH1 0x0 DUP1 RETURNDATACOPY RETURNDATASIZE PUSH1 0x0 REVERT JUMPDEST POP POP POP POP PUSH1 0x40 MLOAD RETURNDATASIZE PUSH1 0x1F NOT PUSH1 0x1F DUP3 ADD AND DUP3 ADD DUP1 PUSH1 0x40 MSTORE POP DUP2 ADD SWAP1 PUSH3 0x42B SWAP2 SWAP1 PUSH3 0x178E JUMP JUMPDEST DUP2 LT PUSH1 0x40 MLOAD DUP1 PUSH1 0x40 ADD PUSH1 0x40 MSTORE DUP1 PUSH1 0x1 DUP2 MSTORE PUSH1 0x20 ADD PUSH1 0x35 PUSH1 0xF8 SHL DUP2 MSTORE POP SWAP1 PUSH3 0x471 JUMPI PUSH1 0x40 MLOAD PUSH3 0x461BCD PUSH1 0xE5 SHL DUP2 MSTORE PUSH1 0x4 ADD PUSH3 0x468 SWAP2 SWAP1 PUSH3 0x17CE JUMP JUMPDEST PUSH1 0x40 MLOAD DUP1 SWAP2 SUB SWAP1 REVERT JUMPDEST POP PUSH1 0x0 DUP6 DUP2 MSTORE PUSH1 0x2 PUSH1 0x20 SWAP1 DUP2 MSTORE PUSH1 0x40 DUP1 DUP4 KECCAK256 DUP8 DUP5 MSTORE DUP3 MSTORE DUP1 DUP4 KECCAK256 PUSH1 0x1 PUSH1 0x1 PUSH1 0xA0 SHL SUB DUP8 DUP2 AND DUP6 MSTORE SWAP3 MSTORE SWAP1 SWAP2 KECCAK256 SLOAD AND PUSH3 0x4A9 JUMPI PUSH1 0x0 DUP1 REVERT JUMPDEST PUSH1 0x0 DUP6 DUP2 MSTORE PUSH1 0x2 PUSH1 0x20 SWAP1 DUP2 MSTORE PUSH1 0x40 DUP1 DUP4 KECCAK256 DUP8 DUP5 MSTORE DUP3 MSTORE DUP1 DUP4 KECCAK256 PUSH1 0x1 PUSH1 0x1 PUSH1 0xA0 SHL SUB DUP1 DUP9 AND DUP6 MSTORE SWAP3 MSTORE SWAP1 SWAP2 KECCAK256 SLOAD AND SWAP2 POP JUMPDEST POP SWAP4 SWAP3 POP POP POP JUMP JUMPDEST PUSH1 0x1 PUSH1 0x1 PUSH1 0xA0 SHL SUB DUP2 DUP2 AND PUSH1 0x0 SWAP1 DUP2 MSTORE PUSH1 0x1 PUSH1 0x20 DUP2 DUP2 MSTORE PUSH1 0x40 DUP1 DUP5 KECCAK256 SLOAD DUP2 MLOAD DUP1 DUP4 ADD SWAP1 SWAP3 MSTORE SWAP3 DUP2 MSTORE PUSH1 0x39 PUSH1 0xF8 SHL SWAP2 DUP2 ADD SWAP2 SWAP1 SWAP2 MSTORE SWAP2 SWAP3 AND ISZERO PUSH3 0x539 JUMPI PUSH1 0x40 MLOAD PUSH3 0x461BCD PUSH1 0xE5 SHL DUP2 MSTORE PUSH1 0x4 ADD PUSH3 0x468 SWAP2 SWAP1 PUSH3 0x17CE JUMP JUMPDEST POP PUSH1 0x0 PUSH32 0x0 PUSH32 0x0 ADDRESS DUP6 PUSH1 0x40 MLOAD PUSH3 0x58E SWAP1 PUSH3 0x161C JUMP JUMPDEST PUSH1 0x1 PUSH1 0x1 PUSH1 0xA0 SHL SUB SWAP5 DUP6 AND DUP2 MSTORE SWAP3 DUP5 AND PUSH1 0x20 DUP5 ADD MSTORE SWAP1 DUP4 AND PUSH1 0x40 DUP4 ADD MSTORE SWAP1 SWAP2 AND PUSH1 0x60 DUP3 ADD MSTORE PUSH1 0x80 ADD PUSH1 0x40 MLOAD DUP1 SWAP2 SUB SWAP1 PUSH1 0x0 CREATE DUP1 ISZERO DUP1 ISZERO PUSH3 0x5D3 JUMPI RETURNDATASIZE PUSH1 0x0 DUP1 RETURNDATACOPY RETURNDATASIZE PUSH1 0x0 REVERT JUMPDEST POP PUSH1 0x1 PUSH1 0x1 PUSH1 0xA0 SHL SUB DUP5 DUP2 AND PUSH1 0x0 DUP2 DUP2 MSTORE PUSH1 0x1 PUSH1 0x20 SWAP1 DUP2 MSTORE PUSH1 0x40 SWAP2 DUP3 SWAP1 KECCAK256 DUP1 SLOAD PUSH1 0x1 PUSH1 0x1 PUSH1 0xA0 SHL SUB NOT AND SWAP5 DUP7 AND SWAP5 DUP6 OR SWAP1 SSTORE DUP2 MLOAD SWAP3 DUP4 MSTORE DUP3 ADD SWAP3 SWAP1 SWAP3 MSTORE SWAP2 SWAP3 POP PUSH32 0xCBB74CBE3A0FD52F508100336E0D2E8A7E184BD44940FC6F24A176009A469A5F SWAP2 ADD PUSH1 0x40 MLOAD DUP1 SWAP2 SUB SWAP1 LOG1 SWAP3 SWAP2 POP POP JUMP JUMPDEST PUSH1 0x0 DUP2 PUSH32 0x0 PUSH1 0x1 PUSH1 0x1 PUSH1 0xA0 SHL SUB AND PUSH4 0xD2ADBE79 PUSH1 0x40 MLOAD DUP2 PUSH4 0xFFFFFFFF AND PUSH1 0xE0 SHL DUP2 MSTORE PUSH1 0x4 ADD PUSH1 0x20 PUSH1 0x40 MLOAD DUP1 DUP4 SUB DUP2 DUP7 GAS STATICCALL ISZERO DUP1 ISZERO PUSH3 0x6A6 JUMPI RETURNDATASIZE PUSH1 0x0 DUP1 RETURNDATACOPY RETURNDATASIZE PUSH1 0x0 REVERT JUMPDEST POP POP POP POP PUSH1 0x40 MLOAD RETURNDATASIZE PUSH1 0x1F NOT PUSH1 0x1F DUP3 ADD AND DUP3 ADD DUP1 PUSH1 0x40 MSTORE POP DUP2 ADD SWAP1 PUSH3 0x6CC SWAP2 SWAP1 PUSH3 0x178E JUMP JUMPDEST DUP2 LT PUSH1 0x40 MLOAD DUP1 PUSH1 0x40 ADD PUSH1 0x40 MSTORE DUP1 PUSH1 0x1 DUP2 MSTORE PUSH1 0x20 ADD PUSH1 0x35 PUSH1 0xF8 SHL DUP2 MSTORE POP SWAP1 PUSH3 0x709 JUMPI PUSH1 0x40 MLOAD PUSH3 0x461BCD PUSH1 0xE5 SHL DUP2 MSTORE PUSH1 0x4 ADD PUSH3 0x468 SWAP2 SWAP1 PUSH3 0x17CE JUMP JUMPDEST POP POP POP PUSH1 0x0 SWAP1 DUP2 MSTORE PUSH1 0x20 DUP2 SWAP1 MSTORE PUSH1 0x40 SWAP1 KECCAK256 SLOAD ISZERO ISZERO SWAP1 JUMP JUMPDEST DUP3 DUP3 PUSH32 0x0 PUSH1 0x1 PUSH1 0x1 PUSH1 0xA0 SHL SUB AND PUSH4 0xD2ADBE79 PUSH1 0x40 MLOAD DUP2 PUSH4 0xFFFFFFFF AND PUSH1 0xE0 SHL DUP2 MSTORE PUSH1 0x4 ADD PUSH1 0x20 PUSH1 0x40 MLOAD DUP1 DUP4 SUB DUP2 DUP7 GAS STATICCALL ISZERO DUP1 ISZERO PUSH3 0x781 JUMPI RETURNDATASIZE PUSH1 0x0 DUP1 RETURNDATACOPY RETURNDATASIZE PUSH1 0x0 REVERT JUMPDEST POP POP POP POP PUSH1 0x40 MLOAD RETURNDATASIZE PUSH1 0x1F NOT PUSH1 0x1F DUP3 ADD AND DUP3 ADD DUP1 PUSH1 0x40 MSTORE POP DUP2 ADD SWAP1 PUSH3 0x7A7 SWAP2 SWAP1 PUSH3 0x178E JUMP JUMPDEST DUP3 LT PUSH1 0x40 MLOAD DUP1 PUSH1 0x40 ADD PUSH1 0x40 MSTORE DUP1 PUSH1 0x1 DUP2 MSTORE PUSH1 0x20 ADD PUSH1 0x35 PUSH1 0xF8 SHL DUP2 MSTORE POP SWAP1 PUSH3 0x7E4 JUMPI PUSH1 0x40 MLOAD PUSH3 0x461BCD PUSH1 0xE5 SHL DUP2 MSTORE PUSH1 0x4 ADD PUSH3 0x468 SWAP2 SWAP1 PUSH3 0x17CE JUMP JUMPDEST POP PUSH1 0x40 MLOAD PUSH4 0xED340DDF PUSH1 0xE0 SHL DUP2 MSTORE PUSH1 0x4 DUP2 ADD DUP4 SWAP1 MSTORE PUSH32 0x0 PUSH1 0x1 PUSH1 0x1 PUSH1 0xA0 SHL SUB AND SWAP1 PUSH4 0xED340DDF SWAP1 PUSH1 0x24 ADD PUSH1 0x20 PUSH1 0x40 MLOAD DUP1 DUP4 SUB DUP2 DUP7 GAS STATICCALL ISZERO DUP1 ISZERO PUSH3 0x84B JUMPI RETURNDATASIZE PUSH1 0x0 DUP1 RETURNDATACOPY RETURNDATASIZE PUSH1 0x0 REVERT JUMPDEST POP POP POP POP PUSH1 0x40 MLOAD RETURNDATASIZE PUSH1 0x1F NOT PUSH1 0x1F DUP3 ADD AND DUP3 ADD DUP1 PUSH1 0x40 MSTORE POP DUP2 ADD SWAP1 PUSH3 0x871 SWAP2 SWAP1 PUSH3 0x178E JUMP JUMPDEST DUP2 LT PUSH1 0x40 MLOAD DUP1 PUSH1 0x40 ADD PUSH1 0x40 MSTORE DUP1 PUSH1 0x1 DUP2 MSTORE PUSH1 0x20 ADD PUSH1 0x1B PUSH1 0xF9 SHL DUP2 MSTORE POP SWAP1 PUSH3 0x8AE JUMPI PUSH1 0x40 MLOAD PUSH3 0x461BCD PUSH1 0xE5 SHL DUP2 MSTORE PUSH1 0x4 ADD PUSH3 0x468 SWAP2 SWAP1 PUSH3 0x17CE JUMP JUMPDEST POP PUSH1 0x40 MLOAD PUSH4 0x3C23D3D9 PUSH1 0xE2 SHL DUP2 MSTORE PUSH1 0x4 DUP2 ADD DUP7 SWAP1 MSTORE DUP6 SWAP1 PUSH1 0x0 SWAP1 PUSH1 0x1 PUSH1 0x1 PUSH1 0xA0 SHL SUB PUSH32 0x0 AND SWAP1 PUSH4 0xF08F4F64 SWAP1 PUSH1 0x24 ADD PUSH1 0x0 PUSH1 0x40 MLOAD DUP1 DUP4 SUB DUP2 DUP7 GAS STATICCALL ISZERO DUP1 ISZERO PUSH3 0x91A JUMPI RETURNDATASIZE PUSH1 0x0 DUP1 RETURNDATACOPY RETURNDATASIZE PUSH1 0x0 REVERT JUMPDEST POP POP POP POP PUSH1 0x40 MLOAD RETURNDATASIZE PUSH1 0x0 DUP3 RETURNDATACOPY PUSH1 0x1F RETURNDATASIZE SWAP1 DUP2 ADD PUSH1 0x1F NOT AND DUP3 ADD PUSH1 0x40 MSTORE PUSH3 0x944 SWAP2 SWAP1 DUP2 ADD SWAP1 PUSH3 0x1819 JUMP JUMPDEST POP POP PUSH1 0x40 DUP1 MLOAD DUP1 DUP3 ADD SWAP1 SWAP2 MSTORE PUSH1 0x1 DUP2 MSTORE PUSH1 0x31 PUSH1 0xF8 SHL PUSH1 0x20 DUP3 ADD MSTORE SWAP1 SWAP2 POP PUSH1 0x1 PUSH1 0x1 PUSH1 0xA0 SHL SUB DUP3 AND CALLER EQ PUSH3 0x98D JUMPI PUSH1 0x40 MLOAD PUSH3 0x461BCD PUSH1 0xE5 SHL DUP2 MSTORE PUSH1 0x4 ADD PUSH3 0x468 SWAP2 SWAP1 PUSH3 0x17CE JUMP JUMPDEST POP PUSH1 0x0 DUP8 DUP2 MSTORE PUSH1 0x20 DUP2 DUP2 MSTORE PUSH1 0x40 SWAP2 DUP3 SWAP1 KECCAK256 SLOAD DUP3 MLOAD DUP1 DUP5 ADD SWAP1 SWAP4 MSTORE PUSH1 0x2 DUP4 MSTORE PUSH2 0x3139 PUSH1 0xF0 SHL SWAP2 DUP4 ADD SWAP2 SWAP1 SWAP2 MSTORE ISZERO PUSH3 0x9D9 JUMPI PUSH1 0x40 MLOAD PUSH3 0x461BCD PUSH1 0xE5 SHL DUP2 MSTORE PUSH1 0x4 ADD PUSH3 0x468 SWAP2 SWAP1 PUSH3 0x17CE JUMP JUMPDEST POP PUSH3 0x9E6 DUP8 DUP7 PUSH3 0x158C JUMP JUMPDEST PUSH3 0x9F3 DUP7 PUSH1 0x1 PUSH3 0x1915 JUMP JUMPDEST PUSH1 0x0 DUP9 DUP2 MSTORE PUSH1 0x20 DUP2 DUP2 MSTORE PUSH1 0x40 SWAP2 DUP3 SWAP1 KECCAK256 SWAP3 SWAP1 SWAP3 SSTORE DUP1 MLOAD DUP10 DUP2 MSTORE SWAP2 DUP3 ADD DUP9 SWAP1 MSTORE DUP2 ADD DUP7 SWAP1 MSTORE PUSH32 0x712496816C24246B3C0BF6E37E05B0F7FB8E402C5AE7A311CDE9E9EC54665C44 SWAP1 PUSH1 0x60 ADD PUSH1 0x40 MLOAD DUP1 SWAP2 SUB SWAP1 LOG1 POP POP POP POP POP POP POP JUMP JUMPDEST PUSH1 0x0 DUP4 PUSH32 0x0 PUSH1 0x1 PUSH1 0x1 PUSH1 0xA0 SHL SUB AND PUSH4 0xD2ADBE79 PUSH1 0x40 MLOAD DUP2 PUSH4 0xFFFFFFFF AND PUSH1 0xE0 SHL DUP2 MSTORE PUSH1 0x4 ADD PUSH1 0x20 PUSH1 0x40 MLOAD DUP1 DUP4 SUB DUP2 DUP7 GAS STATICCALL ISZERO DUP1 ISZERO PUSH3 0xAAF JUMPI RETURNDATASIZE PUSH1 0x0 DUP1 RETURNDATACOPY RETURNDATASIZE PUSH1 0x0 REVERT JUMPDEST POP POP POP POP PUSH1 0x40 MLOAD RETURNDATASIZE PUSH1 0x1F NOT PUSH1 0x1F DUP3 ADD AND DUP3 ADD DUP1 PUSH1 0x40 MSTORE POP DUP2 ADD SWAP1 PUSH3 0xAD5 SWAP2 SWAP1 PUSH3 0x178E JUMP JUMPDEST DUP2 LT PUSH1 0x40 MLOAD DUP1 PUSH1 0x40 ADD PUSH1 0x40 MSTORE DUP1 PUSH1 0x1 DUP2 MSTORE PUSH1 0x20 ADD PUSH1 0x35 PUSH1 0xF8 SHL DUP2 MSTORE POP SWAP1 PUSH3 0xB12 JUMPI PUSH1 0x40 MLOAD PUSH3 0x461BCD PUSH1 0xE5 SHL DUP2 MSTORE PUSH1 0x4 ADD PUSH3 0x468 SWAP2 SWAP1 PUSH3 0x17CE JUMP JUMPDEST POP PUSH1 0x40 MLOAD PUSH4 0x3C23D3D9 PUSH1 0xE2 SHL DUP2 MSTORE PUSH1 0x4 DUP2 ADD DUP7 SWAP1 MSTORE PUSH1 0x0 SWAP1 PUSH32 0x0 PUSH1 0x1 PUSH1 0x1 PUSH1 0xA0 SHL SUB AND SWAP1 PUSH4 0xF08F4F64 SWAP1 PUSH1 0x24 ADD PUSH1 0x0 PUSH1 0x40 MLOAD DUP1 DUP4 SUB DUP2 DUP7 GAS STATICCALL ISZERO DUP1 ISZERO PUSH3 0xB7C JUMPI RETURNDATASIZE PUSH1 0x0 DUP1 RETURNDATACOPY RETURNDATASIZE PUSH1 0x0 REVERT JUMPDEST POP POP POP POP PUSH1 0x40 MLOAD RETURNDATASIZE PUSH1 0x0 DUP3 RETURNDATACOPY PUSH1 0x1F RETURNDATASIZE SWAP1 DUP2 ADD PUSH1 0x1F NOT AND DUP3 ADD PUSH1 0x40 MSTORE PUSH3 0xBA6 SWAP2 SWAP1 DUP2 ADD SWAP1 PUSH3 0x1819 JUMP JUMPDEST POP POP SWAP1 POP DUP4 PUSH1 0x1 PUSH1 0x1 PUSH1 0xA0 SHL SUB AND DUP2 PUSH1 0x1 PUSH1 0x1 PUSH1 0xA0 SHL SUB AND SUB PUSH3 0xBCF JUMPI PUSH1 0x1 SWAP3 POP POP PUSH3 0x4D9 JUMP JUMPDEST PUSH1 0x1 PUSH1 0x1 PUSH1 0xA0 SHL SUB DUP2 AND EXTCODESIZE ISZERO PUSH3 0xC5E JUMPI PUSH1 0x40 MLOAD PUSH4 0x1F81DA03 PUSH1 0xE1 SHL DUP2 MSTORE PUSH1 0x1 PUSH1 0x1 PUSH1 0xA0 SHL SUB DUP6 DUP2 AND PUSH1 0x4 DUP4 ADD MSTORE DUP3 AND SWAP1 PUSH4 0x3F03B406 SWAP1 PUSH1 0x24 ADD PUSH1 0x20 PUSH1 0x40 MLOAD DUP1 DUP4 SUB DUP2 DUP7 GAS STATICCALL SWAP3 POP POP POP DUP1 ISZERO PUSH3 0xC45 JUMPI POP PUSH1 0x40 DUP1 MLOAD PUSH1 0x1F RETURNDATASIZE SWAP1 DUP2 ADD PUSH1 0x1F NOT AND DUP3 ADD SWAP1 SWAP3 MSTORE PUSH3 0xC42 SWAP2 DUP2 ADD SWAP1 PUSH3 0x1947 JUMP JUMPDEST PUSH1 0x1 JUMPDEST ISZERO PUSH3 0xC5E JUMPI DUP1 ISZERO PUSH3 0xC5C JUMPI SWAP3 POP PUSH3 0x4D9 SWAP1 POP JUMP JUMPDEST POP JUMPDEST PUSH1 0x0 DUP7 DUP2 MSTORE PUSH1 0x2 PUSH1 0x20 SWAP1 DUP2 MSTORE PUSH1 0x40 DUP1 DUP4 KECCAK256 DUP9 DUP5 MSTORE DUP3 MSTORE DUP1 DUP4 KECCAK256 PUSH1 0x1 PUSH1 0x1 PUSH1 0xA0 SHL SUB DUP9 DUP2 AND DUP6 MSTORE SWAP3 MSTORE SWAP1 SWAP2 KECCAK256 SLOAD AND PUSH3 0xC9B JUMPI PUSH1 0x0 SWAP3 POP POP PUSH3 0x4D9 JUMP JUMPDEST PUSH1 0x0 DUP7 DUP2 MSTORE PUSH1 0x2 PUSH1 0x20 SWAP1 DUP2 MSTORE PUSH1 0x40 DUP1 DUP4 KECCAK256 DUP9 DUP5 MSTORE DUP3 MSTORE DUP1 DUP4 KECCAK256 PUSH1 0x1 PUSH1 0x1 PUSH1 0xA0 SHL SUB DUP9 DUP2 AND DUP1 DUP7 MSTORE SWAP2 DUP5 MSTORE DUP3 DUP6 KECCAK256 SLOAD DUP2 AND DUP6 MSTORE PUSH1 0x1 SWAP1 SWAP4 MSTORE DUP2 DUP5 KECCAK256 SLOAD SWAP2 MLOAD PUSH4 0x6A9EAF21 PUSH1 0xE1 SHL DUP2 MSTORE PUSH1 0x4 DUP2 ADD DUP12 SWAP1 MSTORE PUSH1 0x24 DUP2 ADD DUP11 SWAP1 MSTORE PUSH1 0x44 DUP2 ADD SWAP2 SWAP1 SWAP2 MSTORE SWAP2 AND SWAP2 SWAP1 DUP3 SWAP1 PUSH4 0xD53D5E42 SWAP1 PUSH1 0x64 ADD PUSH1 0x60 PUSH1 0x40 MLOAD DUP1 DUP4 SUB DUP2 DUP7 GAS STATICCALL ISZERO DUP1 ISZERO PUSH3 0xD25 JUMPI RETURNDATASIZE PUSH1 0x0 DUP1 RETURNDATACOPY RETURNDATASIZE PUSH1 0x0 REVERT JUMPDEST POP POP POP POP PUSH1 0x40 MLOAD RETURNDATASIZE PUSH1 0x1F NOT PUSH1 0x1F DUP3 ADD AND DUP3 ADD DUP1 PUSH1 0x40 MSTORE POP DUP2 ADD SWAP1 PUSH3 0xD4B SWAP2 SWAP1 PUSH3 0x1965 JUMP JUMPDEST POP SWAP2 POP PUSH3 0xD5F SWAP1 POP PUSH3 0x2A300 DUP3 PUSH3 0x1915 JUMP JUMPDEST TIMESTAMP LT SWAP9 SWAP8 POP POP POP POP POP POP POP POP JUMP JUMPDEST DUP4 PUSH32 0x0 PUSH1 0x1 PUSH1 0x1 PUSH1 0xA0 SHL SUB AND PUSH4 0xD2ADBE79 PUSH1 0x40 MLOAD DUP2 PUSH4 0xFFFFFFFF AND PUSH1 0xE0 SHL DUP2 MSTORE PUSH1 0x4 ADD PUSH1 0x20 PUSH1 0x40 MLOAD DUP1 DUP4 SUB DUP2 DUP7 GAS STATICCALL ISZERO DUP1 ISZERO PUSH3 0xDCD JUMPI RETURNDATASIZE PUSH1 0x0 DUP1 RETURNDATACOPY RETURNDATASIZE PUSH1 0x0 REVERT JUMPDEST POP POP POP POP PUSH1 0x40 MLOAD RETURNDATASIZE PUSH1 0x1F NOT PUSH1 0x1F DUP3 ADD AND DUP3 ADD DUP1 PUSH1 0x40 MSTORE POP DUP2 ADD SWAP1 PUSH3 0xDF3 SWAP2 SWAP1 PUSH3 0x178E JUMP JUMPDEST DUP2 LT PUSH1 0x40 MLOAD DUP1 PUSH1 0x40 ADD PUSH1 0x40 MSTORE DUP1 PUSH1 0x1 DUP2 MSTORE PUSH1 0x20 ADD PUSH1 0x35 PUSH1 0xF8 SHL DUP2 MSTORE POP SWAP1 PUSH3 0xE30 JUMPI PUSH1 0x40 MLOAD PUSH3 0x461BCD PUSH1 0xE5 SHL DUP2 MSTORE PUSH1 0x4 ADD PUSH3 0x468 SWAP2 SWAP1 PUSH3 0x17CE JUMP JUMPDEST POP PUSH1 0x1 PUSH1 0x1 PUSH1 0xA0 SHL SUB DUP3 DUP2 AND PUSH1 0x0 SWAP1 DUP2 MSTORE PUSH1 0x1 PUSH1 0x20 DUP2 DUP2 MSTORE PUSH1 0x40 SWAP3 DUP4 SWAP1 KECCAK256 SLOAD DUP4 MLOAD DUP1 DUP6 ADD SWAP1 SWAP5 MSTORE SWAP2 DUP4 MSTORE PUSH1 0x31 PUSH1 0xF8 SHL SWAP1 DUP4 ADD MSTORE SWAP1 SWAP2 AND CALLER EQ PUSH3 0xE88 JUMPI PUSH1 0x40 MLOAD PUSH3 0x461BCD PUSH1 0xE5 SHL DUP2 MSTORE PUSH1 0x4 ADD PUSH3 0x468 SWAP2 SWAP1 PUSH3 0x17CE JUMP JUMPDEST POP POP PUSH1 0x0 SWAP4 DUP5 MSTORE PUSH1 0x2 PUSH1 0x20 SWAP1 DUP2 MSTORE PUSH1 0x40 DUP1 DUP7 KECCAK256 SWAP5 DUP7 MSTORE SWAP4 DUP2 MSTORE DUP4 DUP6 KECCAK256 PUSH1 0x1 PUSH1 0x1 PUSH1 0xA0 SHL SUB SWAP4 DUP5 AND DUP7 MSTORE SWAP1 MSTORE SWAP2 SWAP1 SWAP3 KECCAK256 DUP1 SLOAD PUSH1 0x1 PUSH1 0x1 PUSH1 0xA0 SHL SUB NOT AND SWAP2 SWAP1 SWAP3 AND OR SWAP1 SSTORE JUMP JUMPDEST PUSH1 0x7 SLOAD PUSH1 0x40 DUP1 MLOAD DUP1 DUP3 ADD SWAP1 SWAP2 MSTORE PUSH1 0x1 DUP2 MSTORE PUSH1 0x31 PUSH1 0xF8 SHL PUSH1 0x20 DUP3 ADD MSTORE SWAP1 PUSH1 0x1 PUSH1 0x1 PUSH1 0xA0 SHL SUB AND CALLER EQ PUSH3 0xF13 JUMPI PUSH1 0x40 MLOAD PUSH3 0x461BCD PUSH1 0xE5 SHL DUP2 MSTORE PUSH1 0x4 ADD PUSH3 0x468 SWAP2 SWAP1 PUSH3 0x17CE JUMP JUMPDEST POP PUSH1 0x40 DUP1 MLOAD DUP1 DUP3 ADD SWAP1 SWAP2 MSTORE PUSH1 0x1 DUP2 MSTORE PUSH1 0x19 PUSH1 0xF9 SHL PUSH1 0x20 DUP3 ADD MSTORE PUSH3 0x2625A0 DUP3 GT ISZERO PUSH3 0xF53 JUMPI PUSH1 0x40 MLOAD PUSH3 0x461BCD PUSH1 0xE5 SHL DUP2 MSTORE PUSH1 0x4 ADD PUSH3 0x468 SWAP2 SWAP1 PUSH3 0x17CE JUMP JUMPDEST POP PUSH1 0x1 PUSH1 0x1 PUSH1 0xA0 SHL SUB DUP3 DUP2 AND PUSH1 0x0 SWAP1 DUP2 MSTORE PUSH1 0x1 PUSH1 0x20 SWAP1 DUP2 MSTORE PUSH1 0x40 SWAP2 DUP3 SWAP1 KECCAK256 SLOAD DUP3 MLOAD DUP1 DUP5 ADD SWAP1 SWAP4 MSTORE PUSH1 0x2 DUP4 MSTORE PUSH2 0x627 PUSH1 0xF3 SHL SWAP2 DUP4 ADD SWAP2 SWAP1 SWAP2 MSTORE SWAP1 SWAP2 AND PUSH3 0xFAE JUMPI PUSH1 0x40 MLOAD PUSH3 0x461BCD PUSH1 0xE5 SHL DUP2 MSTORE PUSH1 0x4 ADD PUSH3 0x468 SWAP2 SWAP1 PUSH3 0x17CE JUMP JUMPDEST POP PUSH1 0x1 PUSH1 0x1 PUSH1 0xA0 SHL SUB DUP3 DUP2 AND PUSH1 0x0 SWAP1 DUP2 MSTORE PUSH1 0x1 PUSH1 0x20 MSTORE PUSH1 0x40 SWAP1 DUP2 SWAP1 KECCAK256 SLOAD SWAP1 MLOAD PUSH3 0xC63411 PUSH1 0xE1 SHL DUP2 MSTORE PUSH1 0x4 DUP2 ADD DUP5 SWAP1 MSTORE SWAP2 AND SWAP1 PUSH4 0x18C6822 SWAP1 PUSH1 0x24 ADD PUSH1 0x0 PUSH1 0x40 MLOAD DUP1 DUP4 SUB DUP2 PUSH1 0x0 DUP8 DUP1 EXTCODESIZE ISZERO DUP1 ISZERO PUSH3 0x1004 JUMPI PUSH1 0x0 DUP1 REVERT JUMPDEST POP GAS CALL ISZERO DUP1 ISZERO PUSH3 0x1019 JUMPI RETURNDATASIZE PUSH1 0x0 DUP1 RETURNDATACOPY RETURNDATASIZE PUSH1 0x0 REVERT JUMPDEST POP POP POP POP POP POP JUMP JUMPDEST PUSH1 0x7 SLOAD PUSH1 0x40 DUP1 MLOAD DUP1 DUP3 ADD SWAP1 SWAP2 MSTORE PUSH1 0x1 DUP2 MSTORE PUSH1 0x31 PUSH1 0xF8 SHL PUSH1 0x20 DUP3 ADD MSTORE SWAP1 PUSH1 0x1 PUSH1 0x1 PUSH1 0xA0 SHL SUB AND CALLER EQ PUSH3 0x1068 JUMPI PUSH1 0x40 MLOAD PUSH3 0x461BCD PUSH1 0xE5 SHL DUP2 MSTORE PUSH1 0x4 ADD PUSH3 0x468 SWAP2 SWAP1 PUSH3 0x17CE JUMP JUMPDEST POP PUSH1 0x7 DUP1 SLOAD PUSH1 0x1 PUSH1 0x1 PUSH1 0xA0 SHL SUB NOT AND PUSH1 0x1 PUSH1 0x1 PUSH1 0xA0 SHL SUB SWAP3 SWAP1 SWAP3 AND SWAP2 SWAP1 SWAP2 OR SWAP1 SSTORE JUMP JUMPDEST PUSH1 0x6 SLOAD PUSH1 0x40 DUP1 MLOAD DUP1 DUP3 ADD SWAP1 SWAP2 MSTORE PUSH1 0x1 DUP2 MSTORE PUSH1 0x31 PUSH1 0xF8 SHL PUSH1 0x20 DUP3 ADD MSTORE SWAP1 PUSH1 0x1 PUSH1 0x1 PUSH1 0xA0 SHL SUB AND CALLER EQ PUSH3 0x10D2 JUMPI PUSH1 0x40 MLOAD PUSH3 0x461BCD PUSH1 0xE5 SHL DUP2 MSTORE PUSH1 0x4 ADD PUSH3 0x468 SWAP2 SWAP1 PUSH3 0x17CE JUMP JUMPDEST POP PUSH1 0x40 DUP1 MLOAD DUP1 DUP3 ADD SWAP1 SWAP2 MSTORE PUSH1 0x1 DUP2 MSTORE PUSH1 0x19 PUSH1 0xF9 SHL PUSH1 0x20 DUP3 ADD MSTORE PUSH5 0xE8D4A51000 DUP3 GT ISZERO PUSH3 0x1114 JUMPI PUSH1 0x40 MLOAD PUSH3 0x461BCD PUSH1 0xE5 SHL DUP2 MSTORE PUSH1 0x4 ADD PUSH3 0x468 SWAP2 SWAP1 PUSH3 0x17CE JUMP JUMPDEST POP PUSH1 0x3 SSTORE JUMP JUMPDEST PUSH1 0x6 SLOAD PUSH1 0x40 DUP1 MLOAD DUP1 DUP3 ADD SWAP1 SWAP2 MSTORE PUSH1 0x1 DUP2 MSTORE PUSH1 0x31 PUSH1 0xF8 SHL PUSH1 0x20 DUP3 ADD MSTORE SWAP1 PUSH1 0x1 PUSH1 0x1 PUSH1 0xA0 SHL SUB AND CALLER EQ PUSH3 0x1161 JUMPI PUSH1 0x40 MLOAD PUSH3 0x461BCD PUSH1 0xE5 SHL DUP2 MSTORE PUSH1 0x4 ADD PUSH3 0x468 SWAP2 SWAP1 PUSH3 0x17CE JUMP JUMPDEST POP PUSH1 0x6 DUP1 SLOAD PUSH1 0x1 PUSH1 0x1 PUSH1 0xA0 SHL SUB NOT AND PUSH1 0x1 PUSH1 0x1 PUSH1 0xA0 SHL SUB SWAP3 SWAP1 SWAP3 AND SWAP2 SWAP1 SWAP2 OR SWAP1 SSTORE JUMP JUMPDEST DUP2 PUSH32 0x0 PUSH1 0x1 PUSH1 0x1 PUSH1 0xA0 SHL SUB AND PUSH4 0xD2ADBE79 PUSH1 0x40 MLOAD DUP2 PUSH4 0xFFFFFFFF AND PUSH1 0xE0 SHL DUP2 MSTORE PUSH1 0x4 ADD PUSH1 0x20 PUSH1 0x40 MLOAD DUP1 DUP4 SUB DUP2 DUP7 GAS STATICCALL ISZERO DUP1 ISZERO PUSH3 0x11E4 JUMPI RETURNDATASIZE PUSH1 0x0 DUP1 RETURNDATACOPY RETURNDATASIZE PUSH1 0x0 REVERT JUMPDEST POP POP POP POP PUSH1 0x40 MLOAD RETURNDATASIZE PUSH1 0x1F NOT PUSH1 0x1F DUP3 ADD AND DUP3 ADD DUP1 PUSH1 0x40 MSTORE POP DUP2 ADD SWAP1 PUSH3 0x120A SWAP2 SWAP1 PUSH3 0x178E JUMP JUMPDEST DUP2 LT PUSH1 0x40 MLOAD DUP1 PUSH1 0x40 ADD PUSH1 0x40 MSTORE DUP1 PUSH1 0x1 DUP2 MSTORE PUSH1 0x20 ADD PUSH1 0x35 PUSH1 0xF8 SHL DUP2 MSTORE POP SWAP1 PUSH3 0x1247 JUMPI PUSH1 0x40 MLOAD PUSH3 0x461BCD PUSH1 0xE5 SHL DUP2 MSTORE PUSH1 0x4 ADD PUSH3 0x468 SWAP2 SWAP1 PUSH3 0x17CE JUMP JUMPDEST POP PUSH1 0x40 MLOAD PUSH4 0x3C23D3D9 PUSH1 0xE2 SHL DUP2 MSTORE PUSH1 0x4 DUP2 ADD DUP5 SWAP1 MSTORE DUP4 SWAP1 PUSH1 0x0 SWAP1 PUSH1 0x1 PUSH1 0x1 PUSH1 0xA0 SHL SUB PUSH32 0x0 AND SWAP1 PUSH4 0xF08F4F64 SWAP1 PUSH1 0x24 ADD PUSH1 0x0 PUSH1 0x40 MLOAD DUP1 DUP4 SUB DUP2 DUP7 GAS STATICCALL ISZERO DUP1 ISZERO PUSH3 0x12B3 JUMPI RETURNDATASIZE PUSH1 0x0 DUP1 RETURNDATACOPY RETURNDATASIZE PUSH1 0x0 REVERT JUMPDEST POP POP POP POP PUSH1 0x40 MLOAD RETURNDATASIZE PUSH1 0x0 DUP3 RETURNDATACOPY PUSH1 0x1F RETURNDATASIZE SWAP1 DUP2 ADD PUSH1 0x1F NOT AND DUP3 ADD PUSH1 0x40 MSTORE PUSH3 0x12DD SWAP2 SWAP1 DUP2 ADD SWAP1 PUSH3 0x1819 JUMP JUMPDEST POP POP PUSH1 0x40 DUP1 MLOAD DUP1 DUP3 ADD SWAP1 SWAP2 MSTORE PUSH1 0x1 DUP2 MSTORE PUSH1 0x31 PUSH1 0xF8 SHL PUSH1 0x20 DUP3 ADD MSTORE SWAP1 SWAP2 POP PUSH1 0x1 PUSH1 0x1 PUSH1 0xA0 SHL SUB DUP3 AND CALLER EQ PUSH3 0x1326 JUMPI PUSH1 0x40 MLOAD PUSH3 0x461BCD PUSH1 0xE5 SHL DUP2 MSTORE PUSH1 0x4 ADD PUSH3 0x468 SWAP2 SWAP1 PUSH3 0x17CE JUMP JUMPDEST POP PUSH3 0x1333 DUP6 DUP6 PUSH3 0x158C JUMP JUMPDEST PUSH1 0x40 DUP1 MLOAD DUP7 DUP2 MSTORE PUSH1 0x20 DUP2 ADD DUP7 SWAP1 MSTORE PUSH32 0xD4EA22D2AB0FEF3D73A9C65CEC244AE56B85825C9DED190F80B5C626C0BCABC4 SWAP2 ADD PUSH1 0x40 MLOAD DUP1 SWAP2 SUB SWAP1 LOG1 POP POP POP POP POP JUMP JUMPDEST PUSH1 0x1 PUSH1 0x1 PUSH1 0xA0 SHL SUB DUP2 DUP2 AND PUSH1 0x0 SWAP1 DUP2 MSTORE PUSH1 0x1 PUSH1 0x20 MSTORE PUSH1 0x40 DUP2 KECCAK256 SLOAD SWAP1 SWAP2 AND PUSH3 0x139A JUMPI PUSH1 0x0 DUP1 REVERT JUMPDEST POP PUSH1 0x1 PUSH1 0x1 PUSH1 0xA0 SHL SUB SWAP1 DUP2 AND PUSH1 0x0 SWAP1 DUP2 MSTORE PUSH1 0x1 PUSH1 0x20 MSTORE PUSH1 0x40 SWAP1 KECCAK256 SLOAD AND SWAP1 JUMP JUMPDEST PUSH1 0x5 SLOAD PUSH1 0x40 DUP1 MLOAD DUP1 DUP3 ADD SWAP1 SWAP2 MSTORE PUSH1 0x1 DUP2 MSTORE PUSH1 0x31 PUSH1 0xF8 SHL PUSH1 0x20 DUP3 ADD MSTORE SWAP1 PUSH1 0x1 PUSH1 0x1 PUSH1 0xA0 SHL SUB AND CALLER EQ PUSH3 0x1400 JUMPI PUSH1 0x40 MLOAD PUSH3 0x461BCD PUSH1 0xE5 SHL DUP2 MSTORE PUSH1 0x4 ADD PUSH3 0x468 SWAP2 SWAP1 PUSH3 0x17CE JUMP JUMPDEST POP PUSH1 0x5 DUP1 SLOAD PUSH1 0x1 PUSH1 0x1 PUSH1 0xA0 SHL SUB NOT AND PUSH1 0x1 PUSH1 0x1 PUSH1 0xA0 SHL SUB SWAP3 SWAP1 SWAP3 AND SWAP2 SWAP1 SWAP2 OR SWAP1 SSTORE JUMP JUMPDEST PUSH1 0x0 DUP1 DUP3 PUSH32 0x0 PUSH1 0x1 PUSH1 0x1 PUSH1 0xA0 SHL SUB AND PUSH4 0xD2ADBE79 PUSH1 0x40 MLOAD DUP2 PUSH4 0xFFFFFFFF AND PUSH1 0xE0 SHL DUP2 MSTORE PUSH1 0x4 ADD PUSH1 0x20 PUSH1 0x40 MLOAD DUP1 DUP4 SUB DUP2 DUP7 GAS STATICCALL ISZERO DUP1 ISZERO PUSH3 0x1486 JUMPI RETURNDATASIZE PUSH1 0x0 DUP1 RETURNDATACOPY RETURNDATASIZE PUSH1 0x0 REVERT JUMPDEST POP POP POP POP PUSH1 0x40 MLOAD RETURNDATASIZE PUSH1 0x1F NOT PUSH1 0x1F DUP3 ADD AND DUP3 ADD DUP1 PUSH1 0x40 MSTORE POP DUP2 ADD SWAP1 PUSH3 0x14AC SWAP2 SWAP1 PUSH3 0x178E JUMP JUMPDEST DUP2 LT PUSH1 0x40 MLOAD DUP1 PUSH1 0x40 ADD PUSH1 0x40 MSTORE DUP1 PUSH1 0x1 DUP2 MSTORE PUSH1 0x20 ADD PUSH1 0x35 PUSH1 0xF8 SHL DUP2 MSTORE POP SWAP1 PUSH3 0x14E9 JUMPI PUSH1 0x40 MLOAD PUSH3 0x461BCD PUSH1 0xE5 SHL DUP2 MSTORE PUSH1 0x4 ADD PUSH3 0x468 SWAP2 SWAP1 PUSH3 0x17CE JUMP JUMPDEST POP PUSH1 0x0 DUP5 DUP2 MSTORE PUSH1 0x20 DUP2 SWAP1 MSTORE PUSH1 0x40 SWAP1 KECCAK256 SLOAD PUSH3 0x1507 SWAP1 PUSH1 0x1 SWAP1 PUSH3 0x199D JUMP JUMPDEST PUSH1 0x0 SWAP5 DUP6 MSTORE PUSH1 0x20 DUP6 SWAP1 MSTORE PUSH1 0x40 SWAP1 SWAP5 KECCAK256 PUSH1 0x1 ADD SLOAD SWAP4 SWAP5 SWAP3 POP POP POP JUMP JUMPDEST PUSH1 0x5 SLOAD PUSH1 0x40 DUP1 MLOAD DUP1 DUP3 ADD SWAP1 SWAP2 MSTORE PUSH1 0x1 DUP2 MSTORE PUSH1 0x31 PUSH1 0xF8 SHL PUSH1 0x20 DUP3 ADD MSTORE SWAP1 PUSH1 0x1 PUSH1 0x1 PUSH1 0xA0 SHL SUB AND CALLER EQ PUSH3 0x1569 JUMPI PUSH1 0x40 MLOAD PUSH3 0x461BCD PUSH1 0xE5 SHL DUP2 MSTORE PUSH1 0x4 ADD PUSH3 0x468 SWAP2 SWAP1 PUSH3 0x17CE JUMP JUMPDEST POP PUSH1 0x4 DUP1 SLOAD PUSH1 0x1 PUSH1 0x1 PUSH1 0xA0 SHL SUB NOT AND PUSH1 0x1 PUSH1 0x1 PUSH1 0xA0 SHL SUB SWAP3 SWAP1 SWAP3 AND SWAP2 SWAP1 SWAP2 OR SWAP1 SSTORE JUMP JUMPDEST PUSH1 0x40 DUP1 MLOAD DUP1 DUP3 ADD SWAP1 SWAP2 MSTORE PUSH1 0x1 DUP1 DUP3 MSTORE PUSH1 0x19 PUSH1 0xF9 SHL PUSH1 0x20 DUP4 ADD MSTORE DUP3 LT ISZERO PUSH3 0x15C8 JUMPI PUSH1 0x40 MLOAD PUSH3 0x461BCD PUSH1 0xE5 SHL DUP2 MSTORE PUSH1 0x4 ADD PUSH3 0x468 SWAP2 SWAP1 PUSH3 0x17CE JUMP JUMPDEST POP PUSH1 0x40 DUP1 MLOAD DUP1 DUP3 ADD SWAP1 SWAP2 MSTORE PUSH1 0x1 DUP2 MSTORE PUSH1 0x19 PUSH1 0xF9 SHL PUSH1 0x20 DUP3 ADD MSTORE PUSH1 0x64 DUP3 GT ISZERO PUSH3 0x1606 JUMPI PUSH1 0x40 MLOAD PUSH3 0x461BCD PUSH1 0xE5 SHL DUP2 MSTORE PUSH1 0x4 ADD PUSH3 0x468 SWAP2 SWAP1 PUSH3 0x17CE JUMP JUMPDEST POP PUSH1 0x0 SWAP2 DUP3 MSTORE PUSH1 0x20 DUP3 SWAP1 MSTORE PUSH1 0x40 SWAP1 SWAP2 KECCAK256 PUSH1 0x1 ADD SSTORE JUMP JUMPDEST PUSH2 0x261F DUP1 PUSH3 0x19B4 DUP4 CODECOPY ADD SWAP1 JUMP JUMPDEST PUSH1 0x1 PUSH1 0x1 PUSH1 0xA0 SHL SUB DUP2 AND DUP2 EQ PUSH3 0x1640 JUMPI PUSH1 0x0 DUP1 REVERT JUMPDEST POP JUMP JUMPDEST PUSH1 0x0 DUP1 PUSH1 0x0 PUSH1 0x60 DUP5 DUP7 SUB SLT ISZERO PUSH3 0x1659 JUMPI PUSH1 0x0 DUP1 REVERT JUMPDEST DUP4 CALLDATALOAD SWAP3 POP PUSH1 0x20 DUP5 ADD CALLDATALOAD SWAP2 POP PUSH1 0x40 DUP5 ADD CALLDATALOAD PUSH3 0x1674 DUP2 PUSH3 0x162A JUMP JUMPDEST DUP1 SWAP2 POP POP SWAP3 POP SWAP3 POP SWAP3 JUMP JUMPDEST PUSH1 0x0 PUSH1 0x20 DUP3 DUP5 SUB SLT ISZERO PUSH3 0x1692 JUMPI PUSH1 0x0 DUP1 REVERT JUMPDEST DUP2 CALLDATALOAD PUSH3 0x169F DUP2 PUSH3 0x162A JUMP JUMPDEST SWAP4 SWAP3 POP POP POP JUMP JUMPDEST PUSH1 0x0 PUSH1 0x20 DUP3 DUP5 SUB SLT ISZERO PUSH3 0x16B9 JUMPI PUSH1 0x0 DUP1 REVERT JUMPDEST POP CALLDATALOAD SWAP2 SWAP1 POP JUMP JUMPDEST PUSH1 0x0 DUP1 PUSH1 0x0 PUSH1 0x60 DUP5 DUP7 SUB SLT ISZERO PUSH3 0x16D6 JUMPI PUSH1 0x0 DUP1 REVERT JUMPDEST POP POP DUP2 CALLDATALOAD SWAP4 PUSH1 0x20 DUP4 ADD CALLDATALOAD SWAP4 POP PUSH1 0x40 SWAP1 SWAP3 ADD CALLDATALOAD SWAP2 SWAP1 POP JUMP JUMPDEST PUSH1 0x0 DUP1 PUSH1 0x0 DUP1 PUSH1 0x80 DUP6 DUP8 SUB SLT ISZERO PUSH3 0x1704 JUMPI PUSH1 0x0 DUP1 REVERT JUMPDEST DUP5 CALLDATALOAD SWAP4 POP PUSH1 0x20 DUP6 ADD CALLDATALOAD SWAP3 POP PUSH1 0x40 DUP6 ADD CALLDATALOAD PUSH3 0x171F DUP2 PUSH3 0x162A JUMP JUMPDEST SWAP2 POP PUSH1 0x60 DUP6 ADD CALLDATALOAD PUSH3 0x1731 DUP2 PUSH3 0x162A JUMP JUMPDEST SWAP4 SWAP7 SWAP3 SWAP6 POP SWAP1 SWAP4 POP POP JUMP JUMPDEST PUSH1 0x0 DUP1 PUSH1 0x40 DUP4 DUP6 SUB SLT ISZERO PUSH3 0x1750 JUMPI PUSH1 0x0 DUP1 REVERT JUMPDEST DUP3 CALLDATALOAD PUSH3 0x175D DUP2 PUSH3 0x162A JUMP JUMPDEST SWAP5 PUSH1 0x20 SWAP4 SWAP1 SWAP4 ADD CALLDATALOAD SWAP4 POP POP POP JUMP JUMPDEST PUSH1 0x0 DUP1 PUSH1 0x40 DUP4 DUP6 SUB SLT ISZERO PUSH3 0x177F JUMPI PUSH1 0x0 DUP1 REVERT JUMPDEST POP POP DUP1 CALLDATALOAD SWAP3 PUSH1 0x20 SWAP1 SWAP2 ADD CALLDATALOAD SWAP2 POP JUMP JUMPDEST PUSH1 0x0 PUSH1 0x20 DUP3 DUP5 SUB SLT ISZERO PUSH3 0x17A1 JUMPI PUSH1 0x0 DUP1 REVERT JUMPDEST POP MLOAD SWAP2 SWAP1 POP JUMP JUMPDEST PUSH1 0x0 JUMPDEST DUP4 DUP2 LT ISZERO PUSH3 0x17C5 JUMPI DUP2 DUP2 ADD MLOAD DUP4 DUP3 ADD MSTORE PUSH1 0x20 ADD PUSH3 0x17AB JUMP JUMPDEST POP POP PUSH1 0x0 SWAP2 ADD MSTORE JUMP JUMPDEST PUSH1 0x20 DUP2 MSTORE PUSH1 0x0 DUP3 MLOAD DUP1 PUSH1 0x20 DUP5 ADD MSTORE PUSH3 0x17EF DUP2 PUSH1 0x40 DUP6 ADD PUSH1 0x20 DUP8 ADD PUSH3 0x17A8 JUMP JUMPDEST PUSH1 0x1F ADD PUSH1 0x1F NOT AND SWAP2 SWAP1 SWAP2 ADD PUSH1 0x40 ADD SWAP3 SWAP2 POP POP JUMP JUMPDEST PUSH4 0x4E487B71 PUSH1 0xE0 SHL PUSH1 0x0 MSTORE PUSH1 0x41 PUSH1 0x4 MSTORE PUSH1 0x24 PUSH1 0x0 REVERT JUMPDEST PUSH1 0x0 DUP1 PUSH1 0x0 PUSH1 0x60 DUP5 DUP7 SUB SLT ISZERO PUSH3 0x182F JUMPI PUSH1 0x0 DUP1 REVERT JUMPDEST DUP4 MLOAD PUSH3 0x183C DUP2 PUSH3 0x162A JUMP JUMPDEST PUSH1 0x20 DUP6 ADD MLOAD SWAP1 SWAP4 POP PUSH3 0x184F DUP2 PUSH3 0x162A JUMP JUMPDEST PUSH1 0x40 DUP6 ADD MLOAD SWAP1 SWAP3 POP PUSH8 0xFFFFFFFFFFFFFFFF DUP1 DUP3 GT ISZERO PUSH3 0x186E JUMPI PUSH1 0x0 DUP1 REVERT JUMPDEST DUP2 DUP7 ADD SWAP2 POP DUP7 PUSH1 0x1F DUP4 ADD SLT PUSH3 0x1883 JUMPI PUSH1 0x0 DUP1 REVERT JUMPDEST DUP2 MLOAD DUP2 DUP2 GT ISZERO PUSH3 0x1898 JUMPI PUSH3 0x1898 PUSH3 0x1803 JUMP JUMPDEST PUSH1 0x40 MLOAD PUSH1 0x1F DUP3 ADD PUSH1 0x1F NOT SWAP1 DUP2 AND PUSH1 0x3F ADD AND DUP2 ADD SWAP1 DUP4 DUP3 GT DUP2 DUP4 LT OR ISZERO PUSH3 0x18C3 JUMPI PUSH3 0x18C3 PUSH3 0x1803 JUMP JUMPDEST DUP2 PUSH1 0x40 MSTORE DUP3 DUP2 MSTORE DUP10 PUSH1 0x20 DUP5 DUP8 ADD ADD GT ISZERO PUSH3 0x18DD JUMPI PUSH1 0x0 DUP1 REVERT JUMPDEST PUSH3 0x18F0 DUP4 PUSH1 0x20 DUP4 ADD PUSH1 0x20 DUP9 ADD PUSH3 0x17A8 JUMP JUMPDEST DUP1 SWAP6 POP POP POP POP POP POP SWAP3 POP SWAP3 POP SWAP3 JUMP JUMPDEST PUSH4 0x4E487B71 PUSH1 0xE0 SHL PUSH1 0x0 MSTORE PUSH1 0x11 PUSH1 0x4 MSTORE PUSH1 0x24 PUSH1 0x0 REVERT JUMPDEST DUP1 DUP3 ADD DUP1 DUP3 GT ISZERO PUSH3 0x192B JUMPI PUSH3 0x192B PUSH3 0x18FF JUMP JUMPDEST SWAP3 SWAP2 POP POP JUMP JUMPDEST DUP1 MLOAD DUP1 ISZERO ISZERO DUP2 EQ PUSH3 0x1942 JUMPI PUSH1 0x0 DUP1 REVERT JUMPDEST SWAP2 SWAP1 POP JUMP JUMPDEST PUSH1 0x0 PUSH1 0x20 DUP3 DUP5 SUB SLT ISZERO PUSH3 0x195A JUMPI PUSH1 0x0 DUP1 REVERT JUMPDEST PUSH3 0x169F DUP3 PUSH3 0x1931 JUMP JUMPDEST PUSH1 0x0 DUP1 PUSH1 0x0 PUSH1 0x60 DUP5 DUP7 SUB SLT ISZERO PUSH3 0x197B JUMPI PUSH1 0x0 DUP1 REVERT JUMPDEST DUP4 MLOAD SWAP3 POP PUSH1 0x20 DUP5 ADD MLOAD SWAP2 POP PUSH3 0x1994 PUSH1 0x40 DUP6 ADD PUSH3 0x1931 JUMP JUMPDEST SWAP1 POP SWAP3 POP SWAP3 POP SWAP3 JUMP JUMPDEST DUP2 DUP2 SUB DUP2 DUP2 GT ISZERO PUSH3 0x192B JUMPI PUSH3 0x192B PUSH3 0x18FF JUMP INVALID PUSH2 0x100 PUSH1 0x40 MSTORE PUSH3 0x36EE8 PUSH1 0x3 SSTORE CALLVALUE DUP1 ISZERO PUSH3 0x19 JUMPI PUSH1 0x0 DUP1 REVERT JUMPDEST POP PUSH1 0x40 MLOAD PUSH3 0x261F CODESIZE SUB DUP1 PUSH3 0x261F DUP4 CODECOPY DUP2 ADD PUSH1 0x40 DUP2 SWAP1 MSTORE PUSH3 0x3C SWAP2 PUSH3 0x7C JUMP JUMPDEST PUSH1 0x1 PUSH1 0x1 PUSH1 0xA0 SHL SUB SWAP4 DUP5 AND PUSH1 0x80 MSTORE SWAP2 DUP4 AND PUSH1 0xA0 MSTORE DUP3 AND PUSH1 0xC0 MSTORE AND PUSH1 0xE0 MSTORE PUSH3 0xD9 JUMP JUMPDEST DUP1 MLOAD PUSH1 0x1 PUSH1 0x1 PUSH1 0xA0 SHL SUB DUP2 AND DUP2 EQ PUSH3 0x77 JUMPI PUSH1 0x0 DUP1 REVERT JUMPDEST SWAP2 SWAP1 POP JUMP JUMPDEST PUSH1 0x0 DUP1 PUSH1 0x0 DUP1 PUSH1 0x80 DUP6 DUP8 SUB SLT ISZERO PUSH3 0x93 JUMPI PUSH1 0x0 DUP1 REVERT JUMPDEST PUSH3 0x9E DUP6 PUSH3 0x5F JUMP JUMPDEST SWAP4 POP PUSH3 0xAE PUSH1 0x20 DUP7 ADD PUSH3 0x5F JUMP JUMPDEST SWAP3 POP PUSH3 0xBE PUSH1 0x40 DUP7 ADD PUSH3 0x5F JUMP JUMPDEST SWAP2 POP PUSH3 0xCE PUSH1 0x60 DUP7 ADD PUSH3 0x5F JUMP JUMPDEST SWAP1 POP SWAP3 SWAP6 SWAP2 SWAP5 POP SWAP3 POP JUMP JUMPDEST PUSH1 0x80 MLOAD PUSH1 0xA0 MLOAD PUSH1 0xC0 MLOAD PUSH1 0xE0 MLOAD PUSH2 0x2480 PUSH3 0x19F PUSH1 0x0 CODECOPY PUSH1 0x0 DUP2 DUP2 PUSH2 0xE12 ADD MSTORE DUP2 DUP2 PUSH2 0xED6 ADD MSTORE DUP2 DUP2 PUSH2 0x130D ADD MSTORE DUP2 DUP2 PUSH2 0x13CE ADD MSTORE DUP2 DUP2 PUSH2 0x1762 ADD MSTORE DUP2 DUP2 PUSH2 0x193F ADD MSTORE DUP2 DUP2 PUSH2 0x19D4 ADD MSTORE DUP2 DUP2 PUSH2 0x1A75 ADD MSTORE PUSH2 0x1AED ADD MSTORE PUSH1 0x0 DUP2 DUP2 PUSH2 0x1E0 ADD MSTORE DUP2 DUP2 PUSH2 0x3DE ADD MSTORE DUP2 DUP2 PUSH2 0x8CE ADD MSTORE DUP2 DUP2 PUSH2 0x96B ADD MSTORE DUP2 DUP2 PUSH2 0xABD ADD MSTORE DUP2 DUP2 PUSH2 0xE41 ADD MSTORE DUP2 DUP2 PUSH2 0x1019 ADD MSTORE DUP2 DUP2 PUSH2 0x10B6 ADD MSTORE DUP2 DUP2 PUSH2 0x126E ADD MSTORE DUP2 DUP2 PUSH2 0x1684 ADD MSTORE PUSH2 0x178A ADD MSTORE PUSH1 0x0 DUP2 DUP2 PUSH2 0x49E ADD MSTORE PUSH2 0x133B ADD MSTORE PUSH1 0x0 DUP2 DUP2 PUSH2 0x59B ADD MSTORE PUSH2 0x15ED ADD MSTORE PUSH2 0x2480 PUSH1 0x0 RETURN INVALID PUSH1 0x80 PUSH1 0x40 MSTORE PUSH1 0x4 CALLDATASIZE LT PUSH2 0x86 JUMPI PUSH1 0x0 CALLDATALOAD PUSH1 0xE0 SHR DUP1 PUSH4 0x4B236E95 GT PUSH2 0x59 JUMPI DUP1 PUSH4 0x4B236E95 EQ PUSH2 0x115 JUMPI DUP1 PUSH4 0x6E04FF0D EQ PUSH2 0x12A JUMPI DUP1 PUSH4 0x7E80C186 EQ PUSH2 0x158 JUMPI DUP1 PUSH4 0x84370813 EQ PUSH2 0x16D JUMPI DUP1 PUSH4 0xD53D5E42 EQ PUSH2 0x180 JUMPI PUSH1 0x0 DUP1 REVERT JUMPDEST DUP1 PUSH4 0x18C6822 EQ PUSH2 0x8B JUMPI DUP1 PUSH4 0x9E02C17 EQ PUSH2 0xAD JUMPI DUP1 PUSH4 0x4585E33B EQ PUSH2 0xCD JUMPI DUP1 PUSH4 0x46A8A015 EQ PUSH2 0xED JUMPI JUMPDEST PUSH1 0x0 DUP1 REVERT JUMPDEST CALLVALUE DUP1 ISZERO PUSH2 0x97 JUMPI PUSH1 0x0 DUP1 REVERT JUMPDEST POP PUSH2 0xAB PUSH2 0xA6 CALLDATASIZE PUSH1 0x4 PUSH2 0x1E17 JUMP JUMPDEST PUSH2 0x1BD JUMP JUMPDEST STOP JUMPDEST CALLVALUE DUP1 ISZERO PUSH2 0xB9 JUMPI PUSH1 0x0 DUP1 REVERT JUMPDEST POP PUSH2 0xAB PUSH2 0xC8 CALLDATASIZE PUSH1 0x4 PUSH2 0x1E30 JUMP JUMPDEST PUSH2 0x22D JUMP JUMPDEST CALLVALUE DUP1 ISZERO PUSH2 0xD9 JUMPI PUSH1 0x0 DUP1 REVERT JUMPDEST POP PUSH2 0xAB PUSH2 0xE8 CALLDATASIZE PUSH1 0x4 PUSH2 0x1E52 JUMP JUMPDEST PUSH2 0x33F JUMP JUMPDEST CALLVALUE DUP1 ISZERO PUSH2 0xF9 JUMPI PUSH1 0x0 DUP1 REVERT JUMPDEST POP PUSH2 0x102 PUSH2 0xAB9 JUMP JUMPDEST PUSH1 0x40 MLOAD SWAP1 DUP2 MSTORE PUSH1 0x20 ADD JUMPDEST PUSH1 0x40 MLOAD DUP1 SWAP2 SUB SWAP1 RETURN JUMPDEST CALLVALUE DUP1 ISZERO PUSH2 0x121 JUMPI PUSH1 0x0 DUP1 REVERT JUMPDEST POP PUSH1 0x3 SLOAD PUSH2 0x102 JUMP JUMPDEST CALLVALUE DUP1 ISZERO PUSH2 0x136 JUMPI PUSH1 0x0 DUP1 REVERT JUMPDEST POP PUSH2 0x14A PUSH2 0x145 CALLDATASIZE PUSH1 0x4 PUSH2 0x1E52 JUMP JUMPDEST PUSH2 0xB5A JUMP JUMPDEST PUSH1 0x40 MLOAD PUSH2 0x10C SWAP3 SWAP2 SWAP1 PUSH2 0x1F14 JUMP JUMPDEST CALLVALUE DUP1 ISZERO PUSH2 0x164 JUMPI PUSH1 0x0 DUP1 REVERT JUMPDEST POP PUSH2 0xAB PUSH2 0xE10 JUMP JUMPDEST PUSH2 0x102 PUSH2 0x17B CALLDATASIZE PUSH1 0x4 PUSH2 0x1E30 JUMP JUMPDEST PUSH2 0xFBB JUMP JUMPDEST CALLVALUE DUP1 ISZERO PUSH2 0x18C JUMPI PUSH1 0x0 DUP1 REVERT JUMPDEST POP PUSH2 0x1A0 PUSH2 0x19B CALLDATASIZE PUSH1 0x4 PUSH2 0x1F44 JUMP JUMPDEST PUSH2 0x1833 JUMP JUMPDEST PUSH1 0x40 DUP1 MLOAD SWAP4 DUP5 MSTORE PUSH1 0x20 DUP5 ADD SWAP3 SWAP1 SWAP3 MSTORE ISZERO ISZERO SWAP1 DUP3 ADD MSTORE PUSH1 0x60 ADD PUSH2 0x10C JUMP JUMPDEST PUSH1 0x40 DUP1 MLOAD DUP1 DUP3 ADD SWAP1 SWAP2 MSTORE PUSH1 0x1 DUP2 MSTORE PUSH1 0x31 PUSH1 0xF8 SHL PUSH1 0x20 DUP3 ADD MSTORE CALLER PUSH1 0x1 PUSH1 0x1 PUSH1 0xA0 SHL SUB PUSH32 0x0 AND EQ PUSH2 0x227 JUMPI PUSH1 0x40 MLOAD PUSH3 0x461BCD PUSH1 0xE5 SHL DUP2 MSTORE PUSH1 0x4 ADD PUSH2 0x21E SWAP2 SWAP1 PUSH2 0x1F7D JUMP JUMPDEST PUSH1 0x40 MLOAD DUP1 SWAP2 SUB SWAP1 REVERT JUMPDEST POP PUSH1 0x3 SSTORE JUMP JUMPDEST PUSH1 0x0 PUSH2 0x23A DUP4 DUP4 CALLER PUSH2 0x1874 JUMP JUMPDEST PUSH1 0x0 DUP2 DUP2 MSTORE PUSH1 0x20 DUP2 DUP2 MSTORE PUSH1 0x40 SWAP2 DUP3 SWAP1 KECCAK256 PUSH1 0x2 ADD SLOAD DUP3 MLOAD DUP1 DUP5 ADD SWAP1 SWAP4 MSTORE PUSH1 0x1 DUP4 MSTORE PUSH1 0x33 PUSH1 0xF8 SHL SWAP2 DUP4 ADD SWAP2 SWAP1 SWAP2 MSTORE SWAP2 SWAP3 POP SWAP1 PUSH1 0x1 PUSH1 0x1 PUSH1 0xA0 SHL SUB AND CALLER EQ PUSH2 0x292 JUMPI PUSH1 0x40 MLOAD PUSH3 0x461BCD PUSH1 0xE5 SHL DUP2 MSTORE PUSH1 0x4 ADD PUSH2 0x21E SWAP2 SWAP1 PUSH2 0x1F7D JUMP JUMPDEST POP PUSH1 0x0 DUP2 DUP2 MSTORE PUSH1 0x20 DUP2 DUP2 MSTORE PUSH1 0x40 SWAP2 DUP3 SWAP1 KECCAK256 PUSH1 0x5 ADD SLOAD DUP3 MLOAD DUP1 DUP5 ADD SWAP1 SWAP4 MSTORE PUSH1 0x2 DUP4 MSTORE PUSH2 0x3131 PUSH1 0xF0 SHL SWAP2 DUP4 ADD SWAP2 SWAP1 SWAP2 MSTORE PUSH1 0xFF AND ISZERO PUSH2 0x2E1 JUMPI PUSH1 0x40 MLOAD PUSH3 0x461BCD PUSH1 0xE5 SHL DUP2 MSTORE PUSH1 0x4 ADD PUSH2 0x21E SWAP2 SWAP1 PUSH2 0x1F7D JUMP JUMPDEST POP PUSH1 0x0 DUP2 DUP2 MSTORE PUSH1 0x20 DUP2 SWAP1 MSTORE PUSH1 0x40 SWAP1 DUP2 SWAP1 KECCAK256 PUSH1 0x5 ADD DUP1 SLOAD PUSH1 0xFF NOT AND PUSH1 0x1 OR SWAP1 SSTORE MLOAD PUSH32 0xBDCD5F8B5E00DA56711125E00A6F462FE30C2C17EDB4CECEC2E7BBEAC057377D SWAP1 PUSH2 0x332 SWAP1 DUP6 SWAP1 DUP6 SWAP1 CALLER SWAP1 PUSH2 0x1F97 JUMP JUMPDEST PUSH1 0x40 MLOAD DUP1 SWAP2 SUB SWAP1 LOG1 POP POP POP JUMP JUMPDEST PUSH1 0x0 DUP1 PUSH2 0x34E DUP4 DUP6 ADD DUP6 PUSH2 0x200D JUMP JUMPDEST SWAP2 POP SWAP2 POP PUSH1 0x0 GAS SWAP1 POP PUSH1 0x0 DUP1 JUMPDEST DUP5 MLOAD DUP2 LT ISZERO PUSH2 0x890 JUMPI TIMESTAMP PUSH1 0x0 DUP1 DUP8 DUP5 DUP2 MLOAD DUP2 LT PUSH2 0x37A JUMPI PUSH2 0x37A PUSH2 0x20C5 JUMP JUMPDEST PUSH1 0x20 MUL PUSH1 0x20 ADD ADD MLOAD DUP2 MSTORE PUSH1 0x20 ADD SWAP1 DUP2 MSTORE PUSH1 0x20 ADD PUSH1 0x0 KECCAK256 PUSH1 0x4 ADD SLOAD LT DUP1 ISZERO PUSH2 0x3D4 JUMPI POP PUSH1 0x0 DUP1 DUP7 DUP4 DUP2 MLOAD DUP2 LT PUSH2 0x3B1 JUMPI PUSH2 0x3B1 PUSH2 0x20C5 JUMP JUMPDEST PUSH1 0x20 SWAP1 DUP2 MUL SWAP2 SWAP1 SWAP2 ADD DUP2 ADD MLOAD DUP3 MSTORE DUP2 ADD SWAP2 SWAP1 SWAP2 MSTORE PUSH1 0x40 ADD PUSH1 0x0 KECCAK256 PUSH1 0x5 ADD SLOAD PUSH1 0xFF AND ISZERO JUMPDEST ISZERO PUSH2 0x87E JUMPI PUSH1 0x0 DUP1 PUSH32 0x0 PUSH1 0x1 PUSH1 0x1 PUSH1 0xA0 SHL SUB AND PUSH4 0xED74A202 PUSH1 0x0 DUP1 DUP11 DUP8 DUP2 MLOAD DUP2 LT PUSH2 0x420 JUMPI PUSH2 0x420 PUSH2 0x20C5 JUMP JUMPDEST PUSH1 0x20 MUL PUSH1 0x20 ADD ADD MLOAD DUP2 MSTORE PUSH1 0x20 ADD SWAP1 DUP2 MSTORE PUSH1 0x20 ADD PUSH1 0x0 KECCAK256 PUSH1 0x0 ADD SLOAD PUSH1 0x40 MLOAD DUP3 PUSH4 0xFFFFFFFF AND PUSH1 0xE0 SHL DUP2 MSTORE PUSH1 0x4 ADD PUSH2 0x458 SWAP2 DUP2 MSTORE PUSH1 0x20 ADD SWAP1 JUMP JUMPDEST PUSH1 0x40 DUP1 MLOAD DUP1 DUP4 SUB DUP2 DUP7 GAS STATICCALL ISZERO DUP1 ISZERO PUSH2 0x474 JUMPI RETURNDATASIZE PUSH1 0x0 DUP1 RETURNDATACOPY RETURNDATASIZE PUSH1 0x0 REVERT JUMPDEST POP POP POP POP PUSH1 0x40 MLOAD RETURNDATASIZE PUSH1 0x1F NOT PUSH1 0x1F DUP3 ADD AND DUP3 ADD DUP1 PUSH1 0x40 MSTORE POP DUP2 ADD SWAP1 PUSH2 0x498 SWAP2 SWAP1 PUSH2 0x20DB JUMP JUMPDEST SWAP2 POP SWAP2 POP PUSH32 0x0 PUSH1 0x1 PUSH1 0x1 PUSH1 0xA0 SHL SUB AND PUSH4 0x819CA222 PUSH1 0x0 DUP1 DUP11 DUP8 DUP2 MLOAD DUP2 LT PUSH2 0x4E0 JUMPI PUSH2 0x4E0 PUSH2 0x20C5 JUMP JUMPDEST PUSH1 0x20 MUL PUSH1 0x20 ADD ADD MLOAD DUP2 MSTORE PUSH1 0x20 ADD SWAP1 DUP2 MSTORE PUSH1 0x20 ADD PUSH1 0x0 KECCAK256 PUSH1 0x0 ADD SLOAD DUP5 PUSH1 0x40 MLOAD DUP4 PUSH4 0xFFFFFFFF AND PUSH1 0xE0 SHL DUP2 MSTORE PUSH1 0x4 ADD PUSH2 0x521 SWAP3 SWAP2 SWAP1 SWAP2 DUP3 MSTORE PUSH1 0x20 DUP3 ADD MSTORE PUSH1 0x40 ADD SWAP1 JUMP JUMPDEST PUSH1 0x20 PUSH1 0x40 MLOAD DUP1 DUP4 SUB DUP2 DUP7 GAS STATICCALL ISZERO DUP1 ISZERO PUSH2 0x53E JUMPI RETURNDATASIZE PUSH1 0x0 DUP1 RETURNDATACOPY RETURNDATASIZE PUSH1 0x0 REVERT JUMPDEST POP POP POP POP PUSH1 0x40 MLOAD RETURNDATASIZE PUSH1 0x1F NOT PUSH1 0x1F DUP3 ADD AND DUP3 ADD DUP1 PUSH1 0x40 MSTORE POP DUP2 ADD SWAP1 PUSH2 0x562 SWAP2 SWAP1 PUSH2 0x20FF JUMP JUMPDEST PUSH1 0x0 DUP1 DUP10 DUP7 DUP2 MLOAD DUP2 LT PUSH2 0x577 JUMPI PUSH2 0x577 PUSH2 0x20C5 JUMP JUMPDEST PUSH1 0x20 MUL PUSH1 0x20 ADD ADD MLOAD DUP2 MSTORE PUSH1 0x20 ADD SWAP1 DUP2 MSTORE PUSH1 0x20 ADD PUSH1 0x0 KECCAK256 PUSH1 0x1 ADD SLOAD LT ISZERO PUSH2 0x74F JUMPI PUSH1 0x0 PUSH32 0x0 PUSH1 0x1 PUSH1 0x1 PUSH1 0xA0 SHL SUB AND PUSH4 0xF08F4F64 PUSH1 0x0 DUP1 DUP12 DUP9 DUP2 MLOAD DUP2 LT PUSH2 0x5DD JUMPI PUSH2 0x5DD PUSH2 0x20C5 JUMP JUMPDEST PUSH1 0x20 MUL PUSH1 0x20 ADD ADD MLOAD DUP2 MSTORE PUSH1 0x20 ADD SWAP1 DUP2 MSTORE PUSH1 0x20 ADD PUSH1 0x0 KECCAK256 PUSH1 0x0 ADD SLOAD PUSH1 0x40 MLOAD DUP3 PUSH4 0xFFFFFFFF AND PUSH1 0xE0 SHL DUP2 MSTORE PUSH1 0x4 ADD PUSH2 0x615 SWAP2 DUP2 MSTORE PUSH1 0x20 ADD SWAP1 JUMP JUMPDEST PUSH1 0x0 PUSH1 0x40 MLOAD DUP1 DUP4 SUB DUP2 DUP7 GAS STATICCALL ISZERO DUP1 ISZERO PUSH2 0x632 JUMPI RETURNDATASIZE PUSH1 0x0 DUP1 RETURNDATACOPY RETURNDATASIZE PUSH1 0x0 REVERT JUMPDEST POP POP POP POP PUSH1 0x40 MLOAD RETURNDATASIZE PUSH1 0x0 DUP3 RETURNDATACOPY PUSH1 0x1F RETURNDATASIZE SWAP1 DUP2 ADD PUSH1 0x1F NOT AND DUP3 ADD PUSH1 0x40 MSTORE PUSH2 0x65A SWAP2 SWAP1 DUP2 ADD SWAP1 PUSH2 0x2118 JUMP JUMPDEST POP SWAP2 POP POP PUSH1 0x0 PUSH2 0x6DB PUSH1 0x0 DUP1 DUP12 DUP9 DUP2 MLOAD DUP2 LT PUSH2 0x678 JUMPI PUSH2 0x678 PUSH2 0x20C5 JUMP JUMPDEST PUSH1 0x20 MUL PUSH1 0x20 ADD ADD MLOAD DUP2 MSTORE PUSH1 0x20 ADD SWAP1 DUP2 MSTORE PUSH1 0x20 ADD PUSH1 0x0 KECCAK256 PUSH1 0x2 ADD PUSH1 0x0 SWAP1 SLOAD SWAP1 PUSH2 0x100 EXP SWAP1 DIV PUSH1 0x1 PUSH1 0x1 PUSH1 0xA0 SHL SUB AND DUP4 PUSH1 0x0 DUP1 DUP14 DUP11 DUP2 MLOAD DUP2 LT PUSH2 0x6BB JUMPI PUSH2 0x6BB PUSH2 0x20C5 JUMP JUMPDEST PUSH1 0x20 MUL PUSH1 0x20 ADD ADD MLOAD DUP2 MSTORE PUSH1 0x20 ADD SWAP1 DUP2 MSTORE PUSH1 0x20 ADD PUSH1 0x0 KECCAK256 PUSH1 0x3 ADD SLOAD DUP7 PUSH2 0x1915 JUMP JUMPDEST SWAP1 POP DUP1 ISZERO PUSH2 0x74C JUMPI PUSH2 0x6EC TIMESTAMP PUSH2 0x1BB7 JUMP JUMPDEST PUSH2 0x6F9 SWAP1 PUSH3 0x15180 PUSH2 0x21EB JUMP JUMPDEST PUSH2 0x703 SWAP1 TIMESTAMP PUSH2 0x2202 JUMP JUMPDEST PUSH1 0x0 DUP1 DUP12 DUP9 DUP2 MLOAD DUP2 LT PUSH2 0x718 JUMPI PUSH2 0x718 PUSH2 0x20C5 JUMP JUMPDEST PUSH1 0x20 MUL PUSH1 0x20 ADD ADD MLOAD DUP2 MSTORE PUSH1 0x20 ADD SWAP1 DUP2 MSTORE PUSH1 0x20 ADD PUSH1 0x0 KECCAK256 PUSH1 0x4 ADD DUP2 SWAP1 SSTORE POP DUP6 DUP1 PUSH2 0x740 SWAP1 PUSH2 0x2215 JUMP JUMPDEST SWAP7 POP POP POP POP POP POP PUSH2 0x87E JUMP JUMPDEST POP POP JUMPDEST PUSH1 0x1 PUSH1 0x0 DUP1 DUP10 DUP7 DUP2 MLOAD DUP2 LT PUSH2 0x766 JUMPI PUSH2 0x766 PUSH2 0x20C5 JUMP JUMPDEST PUSH1 0x20 MUL PUSH1 0x20 ADD ADD MLOAD DUP2 MSTORE PUSH1 0x20 ADD SWAP1 DUP2 MSTORE PUSH1 0x20 ADD PUSH1 0x0 KECCAK256 PUSH1 0x5 ADD PUSH1 0x0 PUSH2 0x100 EXP DUP2 SLOAD DUP2 PUSH1 0xFF MUL NOT AND SWAP1 DUP4 ISZERO ISZERO MUL OR SWAP1 SSTORE POP PUSH32 0xBDCD5F8B5E00DA56711125E00A6F462FE30C2C17EDB4CECEC2E7BBEAC057377D PUSH1 0x0 DUP1 DUP10 DUP7 DUP2 MLOAD DUP2 LT PUSH2 0x7CC JUMPI PUSH2 0x7CC PUSH2 0x20C5 JUMP JUMPDEST PUSH1 0x20 MUL PUSH1 0x20 ADD ADD MLOAD DUP2 MSTORE PUSH1 0x20 ADD SWAP1 DUP2 MSTORE PUSH1 0x20 ADD PUSH1 0x0 KECCAK256 PUSH1 0x0 ADD SLOAD PUSH1 0x0 DUP1 DUP11 DUP8 DUP2 MLOAD DUP2 LT PUSH2 0x7FB JUMPI PUSH2 0x7FB PUSH2 0x20C5 JUMP JUMPDEST PUSH1 0x20 MUL PUSH1 0x20 ADD ADD MLOAD DUP2 MSTORE PUSH1 0x20 ADD SWAP1 DUP2 MSTORE PUSH1 0x20 ADD PUSH1 0x0 KECCAK256 PUSH1 0x1 ADD SLOAD PUSH1 0x0 DUP1 DUP12 DUP9 DUP2 MLOAD DUP2 LT PUSH2 0x82A JUMPI PUSH2 0x82A PUSH2 0x20C5 JUMP JUMPDEST PUSH1 0x20 MUL PUSH1 0x20 ADD ADD MLOAD DUP2 MSTORE PUSH1 0x20 ADD SWAP1 DUP2 MSTORE PUSH1 0x20 ADD PUSH1 0x0 KECCAK256 PUSH1 0x2 ADD PUSH1 0x0 SWAP1 SLOAD SWAP1 PUSH2 0x100 EXP SWAP1 DIV PUSH1 0x1 PUSH1 0x1 PUSH1 0xA0 SHL SUB AND PUSH1 0x40 MLOAD PUSH2 0x866 SWAP4 SWAP3 SWAP2 SWAP1 PUSH2 0x1F97 JUMP JUMPDEST PUSH1 0x40 MLOAD DUP1 SWAP2 SUB SWAP1 LOG1 DUP4 PUSH2 0x878 DUP2 PUSH2 0x2215 JUMP JUMPDEST SWAP5 POP POP POP POP JUMPDEST DUP1 PUSH2 0x888 DUP2 PUSH2 0x2215 JUMP JUMPDEST SWAP2 POP POP PUSH2 0x35B JUMP JUMPDEST POP PUSH1 0x40 DUP1 MLOAD DUP1 DUP3 ADD SWAP1 SWAP2 MSTORE PUSH1 0x2 DUP2 MSTORE PUSH2 0x1899 PUSH1 0xF1 SHL PUSH1 0x20 DUP3 ADD MSTORE DUP2 PUSH2 0x8C8 JUMPI PUSH1 0x40 MLOAD PUSH3 0x461BCD PUSH1 0xE5 SHL DUP2 MSTORE PUSH1 0x4 ADD PUSH2 0x21E SWAP2 SWAP1 PUSH2 0x1F7D JUMP JUMPDEST POP PUSH1 0x0 DUP2 PUSH32 0x0 PUSH1 0x1 PUSH1 0x1 PUSH1 0xA0 SHL SUB AND PUSH4 0x455259CB PUSH1 0x40 MLOAD DUP2 PUSH4 0xFFFFFFFF AND PUSH1 0xE0 SHL DUP2 MSTORE PUSH1 0x4 ADD PUSH1 0x20 PUSH1 0x40 MLOAD DUP1 DUP4 SUB DUP2 DUP7 GAS STATICCALL ISZERO DUP1 ISZERO PUSH2 0x92A JUMPI RETURNDATASIZE PUSH1 0x0 DUP1 RETURNDATACOPY RETURNDATASIZE PUSH1 0x0 REVERT JUMPDEST POP POP POP POP PUSH1 0x40 MLOAD RETURNDATASIZE PUSH1 0x1F NOT PUSH1 0x1F DUP3 ADD AND DUP3 ADD DUP1 PUSH1 0x40 MSTORE POP DUP2 ADD SWAP1 PUSH2 0x94E SWAP2 SWAP1 PUSH2 0x20FF JUMP JUMPDEST PUSH1 0x3 SLOAD PUSH2 0x95B SWAP2 SWAP1 PUSH2 0x21EB JUMP JUMPDEST PUSH2 0x965 SWAP2 SWAP1 PUSH2 0x21EB JUMP JUMPDEST SWAP1 POP PUSH1 0x0 PUSH32 0x0 PUSH1 0x1 PUSH1 0x1 PUSH1 0xA0 SHL SUB AND PUSH4 0x455259CB PUSH1 0x40 MLOAD DUP2 PUSH4 0xFFFFFFFF AND PUSH1 0xE0 SHL DUP2 MSTORE PUSH1 0x4 ADD PUSH1 0x20 PUSH1 0x40 MLOAD DUP1 DUP4 SUB DUP2 DUP7 GAS STATICCALL ISZERO DUP1 ISZERO PUSH2 0x9C7 JUMPI RETURNDATASIZE PUSH1 0x0 DUP1 RETURNDATACOPY RETURNDATASIZE PUSH1 0x0 REVERT JUMPDEST POP POP POP POP PUSH1 0x40 MLOAD RETURNDATASIZE PUSH1 0x1F NOT PUSH1 0x1F DUP3 ADD AND DUP3 ADD DUP1 PUSH1 0x40 MSTORE POP DUP2 ADD SWAP1 PUSH2 0x9EB SWAP2 SWAP1 PUSH2 0x20FF JUMP JUMPDEST PUSH2 0x9F7 DUP5 PUSH2 0x1A7 PUSH2 0x21EB JUMP JUMPDEST PUSH2 0xA03 SWAP1 PUSH2 0xDCDE PUSH2 0x2202 JUMP JUMPDEST GAS PUSH2 0xA0E SWAP1 DUP8 PUSH2 0x222E JUMP JUMPDEST PUSH2 0xA18 SWAP2 SWAP1 PUSH2 0x2202 JUMP JUMPDEST PUSH2 0xA22 SWAP2 SWAP1 PUSH2 0x21EB JUMP JUMPDEST SWAP1 POP DUP3 DUP7 MLOAD PUSH2 0xA31 SWAP2 SWAP1 PUSH2 0x222E JUMP JUMPDEST DUP7 MLOAD PUSH2 0xA3D SWAP1 DUP4 PUSH2 0x2257 JUMP JUMPDEST PUSH2 0xA47 SWAP2 SWAP1 PUSH2 0x21EB JUMP JUMPDEST PUSH2 0xA51 SWAP1 DUP3 PUSH2 0x222E JUMP JUMPDEST SWAP1 POP DUP2 DUP2 GT ISZERO PUSH2 0xA5E JUMPI POP DUP1 JUMPDEST PUSH1 0x40 MLOAD PUSH1 0x1 PUSH1 0x1 PUSH1 0xA0 SHL SUB DUP7 AND SWAP1 DUP3 SWAP1 PUSH1 0x0 DUP2 DUP2 DUP2 DUP6 DUP8 GAS CALL SWAP3 POP POP POP RETURNDATASIZE DUP1 PUSH1 0x0 DUP2 EQ PUSH2 0xAA7 JUMPI PUSH1 0x40 MLOAD SWAP2 POP PUSH1 0x1F NOT PUSH1 0x3F RETURNDATASIZE ADD AND DUP3 ADD PUSH1 0x40 MSTORE RETURNDATASIZE DUP3 MSTORE RETURNDATASIZE PUSH1 0x0 PUSH1 0x20 DUP5 ADD RETURNDATACOPY PUSH2 0xAAC JUMP JUMPDEST PUSH1 0x60 SWAP2 POP JUMPDEST POP POP POP POP POP POP POP POP POP POP POP JUMP JUMPDEST PUSH1 0x0 PUSH32 0x0 PUSH1 0x1 PUSH1 0x1 PUSH1 0xA0 SHL SUB AND PUSH4 0x455259CB PUSH1 0x40 MLOAD DUP2 PUSH4 0xFFFFFFFF AND PUSH1 0xE0 SHL DUP2 MSTORE PUSH1 0x4 ADD PUSH1 0x20 PUSH1 0x40 MLOAD DUP1 DUP4 SUB DUP2 DUP7 GAS STATICCALL ISZERO DUP1 ISZERO PUSH2 0xB19 JUMPI RETURNDATASIZE PUSH1 0x0 DUP1 RETURNDATACOPY RETURNDATASIZE PUSH1 0x0 REVERT JUMPDEST POP POP POP POP PUSH1 0x40 MLOAD RETURNDATASIZE PUSH1 0x1F NOT PUSH1 0x1F DUP3 ADD AND DUP3 ADD DUP1 PUSH1 0x40 MSTORE POP DUP2 ADD SWAP1 PUSH2 0xB3D SWAP2 SWAP1 PUSH2 0x20FF JUMP JUMPDEST PUSH1 0x3 SLOAD PUSH2 0xB4A SWAP2 SWAP1 PUSH2 0x21EB JUMP JUMPDEST PUSH2 0xB55 SWAP1 PUSH1 0x3C PUSH2 0x21EB JUMP JUMPDEST SWAP1 POP SWAP1 JUMP JUMPDEST PUSH1 0x0 PUSH1 0x60 DUP2 DUP1 DUP1 DUP1 DUP1 PUSH2 0xB6F DUP9 DUP11 ADD DUP11 PUSH2 0x226B JUMP JUMPDEST SWAP5 POP SWAP5 POP SWAP5 POP SWAP5 POP SWAP5 POP PUSH1 0x1 SLOAD DUP5 LT PUSH2 0xB93 JUMPI PUSH1 0x1 DUP1 SLOAD PUSH2 0xB90 SWAP2 SWAP1 PUSH2 0x222E JUMP JUMPDEST SWAP4 POP JUMPDEST PUSH1 0x40 DUP1 MLOAD DUP1 DUP3 ADD SWAP1 SWAP2 MSTORE PUSH1 0x1 DUP2 MSTORE PUSH1 0x19 PUSH1 0xF9 SHL PUSH1 0x20 DUP3 ADD MSTORE DUP5 DUP7 GT ISZERO PUSH2 0xBCC JUMPI PUSH1 0x40 MLOAD PUSH3 0x461BCD PUSH1 0xE5 SHL DUP2 MSTORE PUSH1 0x4 ADD PUSH2 0x21E SWAP2 SWAP1 PUSH2 0x1F7D JUMP JUMPDEST POP PUSH1 0x0 DUP1 PUSH2 0xBDA DUP8 DUP8 PUSH2 0x222E JUMP JUMPDEST PUSH2 0xBE5 SWAP1 PUSH1 0x1 PUSH2 0x2202 JUMP JUMPDEST SWAP1 POP PUSH1 0x0 DUP5 PUSH8 0xFFFFFFFFFFFFFFFF DUP2 GT ISZERO PUSH2 0xC02 JUMPI PUSH2 0xC02 PUSH2 0x1FB6 JUMP JUMPDEST PUSH1 0x40 MLOAD SWAP1 DUP1 DUP3 MSTORE DUP1 PUSH1 0x20 MUL PUSH1 0x20 ADD DUP3 ADD PUSH1 0x40 MSTORE DUP1 ISZERO PUSH2 0xC2B JUMPI DUP2 PUSH1 0x20 ADD PUSH1 0x20 DUP3 MUL DUP1 CALLDATASIZE DUP4 CALLDATACOPY ADD SWAP1 POP JUMPDEST POP SWAP1 POP PUSH1 0x0 JUMPDEST DUP3 DUP2 LT ISZERO PUSH2 0xCCA JUMPI PUSH1 0x0 PUSH2 0xC45 DUP3 DUP12 PUSH2 0x2202 JUMP JUMPDEST PUSH1 0x0 DUP2 DUP2 MSTORE PUSH1 0x20 DUP2 SWAP1 MSTORE PUSH1 0x40 SWAP1 KECCAK256 PUSH1 0x4 ADD SLOAD SWAP1 SWAP2 POP TIMESTAMP GT DUP1 ISZERO PUSH2 0xC7A JUMPI POP PUSH1 0x0 DUP2 DUP2 MSTORE PUSH1 0x20 DUP2 SWAP1 MSTORE PUSH1 0x40 SWAP1 KECCAK256 PUSH1 0x5 ADD SLOAD PUSH1 0xFF AND ISZERO JUMPDEST ISZERO PUSH2 0xCB7 JUMPI DUP1 DUP4 DUP7 DUP2 MLOAD DUP2 LT PUSH2 0xC92 JUMPI PUSH2 0xC92 PUSH2 0x20C5 JUMP JUMPDEST PUSH1 0x20 SWAP1 DUP2 MUL SWAP2 SWAP1 SWAP2 ADD ADD MSTORE DUP5 PUSH2 0xCA7 DUP2 PUSH2 0x2215 JUMP JUMPDEST SWAP6 POP POP DUP7 DUP6 LT PUSH2 0xCB7 JUMPI POP PUSH2 0xCCA JUMP JUMPDEST POP DUP1 PUSH2 0xCC2 DUP2 PUSH2 0x2215 JUMP JUMPDEST SWAP2 POP POP PUSH2 0xC31 JUMP JUMPDEST POP DUP3 ISZERO DUP1 PUSH2 0xCD7 JUMPI POP DUP6 DUP4 LT JUMPDEST ISZERO PUSH2 0xCFF JUMPI PUSH1 0x0 PUSH1 0x40 MLOAD DUP1 PUSH1 0x20 ADD PUSH1 0x40 MSTORE DUP1 PUSH1 0x0 DUP2 MSTORE POP SWAP10 POP SWAP10 POP POP POP POP POP POP POP POP POP PUSH2 0xE09 JUMP JUMPDEST DUP5 DUP4 SUB PUSH2 0xD3B JUMPI PUSH1 0x1 DUP2 DUP6 PUSH1 0x40 MLOAD PUSH1 0x20 ADD PUSH2 0xD1B SWAP3 SWAP2 SWAP1 PUSH2 0x22B8 JUMP JUMPDEST PUSH1 0x40 MLOAD PUSH1 0x20 DUP2 DUP4 SUB SUB DUP2 MSTORE SWAP1 PUSH1 0x40 MSTORE SWAP10 POP SWAP10 POP POP POP POP POP POP POP POP POP PUSH2 0xE09 JUMP JUMPDEST PUSH1 0x0 DUP4 PUSH8 0xFFFFFFFFFFFFFFFF DUP2 GT ISZERO PUSH2 0xD56 JUMPI PUSH2 0xD56 PUSH2 0x1FB6 JUMP JUMPDEST PUSH1 0x40 MLOAD SWAP1 DUP1 DUP3 MSTORE DUP1 PUSH1 0x20 MUL PUSH1 0x20 ADD DUP3 ADD PUSH1 0x40 MSTORE DUP1 ISZERO PUSH2 0xD7F JUMPI DUP2 PUSH1 0x20 ADD PUSH1 0x20 DUP3 MUL DUP1 CALLDATASIZE DUP4 CALLDATACOPY ADD SWAP1 POP JUMPDEST POP SWAP1 POP PUSH1 0x0 JUMPDEST DUP5 DUP2 LT ISZERO PUSH2 0xDD6 JUMPI DUP3 DUP2 DUP2 MLOAD DUP2 LT PUSH2 0xD9F JUMPI PUSH2 0xD9F PUSH2 0x20C5 JUMP JUMPDEST PUSH1 0x20 MUL PUSH1 0x20 ADD ADD MLOAD DUP3 DUP3 DUP2 MLOAD DUP2 LT PUSH2 0xDB9 JUMPI PUSH2 0xDB9 PUSH2 0x20C5 JUMP JUMPDEST PUSH1 0x20 SWAP1 DUP2 MUL SWAP2 SWAP1 SWAP2 ADD ADD MSTORE DUP1 PUSH2 0xDCE DUP2 PUSH2 0x2215 JUMP JUMPDEST SWAP2 POP POP PUSH2 0xD85 JUMP JUMPDEST POP PUSH1 0x1 DUP2 DUP7 PUSH1 0x40 MLOAD PUSH1 0x20 ADD PUSH2 0xDEC SWAP3 SWAP2 SWAP1 PUSH2 0x22B8 JUMP JUMPDEST PUSH1 0x40 MLOAD PUSH1 0x20 DUP2 DUP4 SUB SUB DUP2 MSTORE SWAP1 PUSH1 0x40 MSTORE SWAP11 POP SWAP11 POP POP POP POP POP POP POP POP POP POP JUMPDEST SWAP3 POP SWAP3 SWAP1 POP JUMP JUMPDEST PUSH32 0x0 PUSH1 0x1 PUSH1 0x1 PUSH1 0xA0 SHL SUB AND PUSH4 0xA9059CBB PUSH32 0x0 PUSH1 0x1 PUSH1 0x1 PUSH1 0xA0 SHL SUB AND PUSH4 0x3B19E84A PUSH1 0x40 MLOAD DUP2 PUSH4 0xFFFFFFFF AND PUSH1 0xE0 SHL DUP2 MSTORE PUSH1 0x4 ADD PUSH1 0x20 PUSH1 0x40 MLOAD DUP1 DUP4 SUB DUP2 DUP7 GAS STATICCALL ISZERO DUP1 ISZERO PUSH2 0xE9D JUMPI RETURNDATASIZE PUSH1 0x0 DUP1 RETURNDATACOPY RETURNDATASIZE PUSH1 0x0 REVERT JUMPDEST POP POP POP POP PUSH1 0x40 MLOAD RETURNDATASIZE PUSH1 0x1F NOT PUSH1 0x1F DUP3 ADD AND DUP3 ADD DUP1 PUSH1 0x40 MSTORE POP DUP2 ADD SWAP1 PUSH2 0xEC1 SWAP2 SWAP1 PUSH2 0x230C JUMP JUMPDEST PUSH1 0x40 MLOAD PUSH4 0x70A08231 PUSH1 0xE0 SHL DUP2 MSTORE ADDRESS PUSH1 0x4 DUP3 ADD MSTORE PUSH32 0x0 PUSH1 0x1 PUSH1 0x1 PUSH1 0xA0 SHL SUB AND SWAP1 PUSH4 0x70A08231 SWAP1 PUSH1 0x24 ADD PUSH1 0x20 PUSH1 0x40 MLOAD DUP1 DUP4 SUB DUP2 DUP7 GAS STATICCALL ISZERO DUP1 ISZERO PUSH2 0xF25 JUMPI RETURNDATASIZE PUSH1 0x0 DUP1 RETURNDATACOPY RETURNDATASIZE PUSH1 0x0 REVERT JUMPDEST POP POP POP POP PUSH1 0x40 MLOAD RETURNDATASIZE PUSH1 0x1F NOT PUSH1 0x1F DUP3 ADD AND DUP3 ADD DUP1 PUSH1 0x40 MSTORE POP DUP2 ADD SWAP1 PUSH2 0xF49 SWAP2 SWAP1 PUSH2 0x20FF JUMP JUMPDEST PUSH1 0x40 MLOAD PUSH1 0x1 PUSH1 0x1 PUSH1 0xE0 SHL SUB NOT PUSH1 0xE0 DUP6 SWAP1 SHL AND DUP2 MSTORE PUSH1 0x1 PUSH1 0x1 PUSH1 0xA0 SHL SUB SWAP1 SWAP3 AND PUSH1 0x4 DUP4 ADD MSTORE PUSH1 0x24 DUP3 ADD MSTORE PUSH1 0x44 ADD PUSH1 0x20 PUSH1 0x40 MLOAD DUP1 DUP4 SUB DUP2 PUSH1 0x0 DUP8 GAS CALL ISZERO DUP1 ISZERO PUSH2 0xF94 JUMPI RETURNDATASIZE PUSH1 0x0 DUP1 RETURNDATACOPY RETURNDATASIZE PUSH1 0x0 REVERT JUMPDEST POP POP POP POP PUSH1 0x40 MLOAD RETURNDATASIZE PUSH1 0x1F NOT PUSH1 0x1F DUP3 ADD AND DUP3 ADD DUP1 PUSH1 0x40 MSTORE POP DUP2 ADD SWAP1 PUSH2 0xFB8 SWAP2 SWAP1 PUSH2 0x2339 JUMP JUMPDEST POP JUMP JUMPDEST PUSH1 0x0 PUSH2 0xFC5 PUSH2 0xAB9 JUMP JUMPDEST CALLVALUE LT ISZERO PUSH1 0x40 MLOAD DUP1 PUSH1 0x40 ADD PUSH1 0x40 MSTORE DUP1 PUSH1 0x2 DUP2 MSTORE PUSH1 0x20 ADD PUSH2 0x3133 PUSH1 0xF0 SHL DUP2 MSTORE POP SWAP1 PUSH2 0x1001 JUMPI PUSH1 0x40 MLOAD PUSH3 0x461BCD PUSH1 0xE5 SHL DUP2 MSTORE PUSH1 0x4 ADD PUSH2 0x21E SWAP2 SWAP1 PUSH2 0x1F7D JUMP JUMPDEST POP PUSH1 0x40 MLOAD PUSH4 0x28F513D7 PUSH1 0xE1 SHL DUP2 MSTORE PUSH1 0x1 PUSH1 0x1 PUSH1 0xA0 SHL SUB PUSH32 0x0 AND SWAP1 PUSH4 0x51EA27AE SWAP1 PUSH2 0x1052 SWAP1 DUP7 SWAP1 DUP7 SWAP1 CALLER SWAP1 PUSH1 0x4 ADD PUSH2 0x1F97 JUMP JUMPDEST PUSH1 0x20 PUSH1 0x40 MLOAD DUP1 DUP4 SUB DUP2 DUP7 GAS STATICCALL ISZERO DUP1 ISZERO PUSH2 0x106F JUMPI RETURNDATASIZE PUSH1 0x0 DUP1 RETURNDATACOPY RETURNDATASIZE PUSH1 0x0 REVERT JUMPDEST POP POP POP POP PUSH1 0x40 MLOAD RETURNDATASIZE PUSH1 0x1F NOT PUSH1 0x1F DUP3 ADD AND DUP3 ADD DUP1 PUSH1 0x40 MSTORE POP DUP2 ADD SWAP1 PUSH2 0x1093 SWAP2 SWAP1 PUSH2 0x2339 JUMP JUMPDEST ISZERO ISZERO PUSH1 0x1 SUB PUSH2 0x1255 JUMPI PUSH1 0x40 MLOAD PUSH4 0x628072B PUSH1 0xE1 SHL DUP2 MSTORE PUSH1 0x0 SWAP1 PUSH1 0x1 PUSH1 0x1 PUSH1 0xA0 SHL SUB PUSH32 0x0 AND SWAP1 PUSH4 0xCC0DE218 SWAP1 DUP3 SWAP1 PUSH4 0xC500E56 SWAP1 PUSH2 0x10F7 SWAP1 DUP10 SWAP1 DUP10 SWAP1 CALLER SWAP1 PUSH1 0x4 ADD PUSH2 0x1F97 JUMP JUMPDEST PUSH1 0x20 PUSH1 0x40 MLOAD DUP1 DUP4 SUB DUP2 DUP7 GAS STATICCALL ISZERO DUP1 ISZERO PUSH2 0x1114 JUMPI RETURNDATASIZE PUSH1 0x0 DUP1 RETURNDATACOPY RETURNDATASIZE PUSH1 0x0 REVERT JUMPDEST POP POP POP POP PUSH1 0x40 MLOAD RETURNDATASIZE PUSH1 0x1F NOT PUSH1 0x1F DUP3 ADD AND DUP3 ADD DUP1 PUSH1 0x40 MSTORE POP DUP2 ADD SWAP1 PUSH2 0x1138 SWAP2 SWAP1 PUSH2 0x230C JUMP JUMPDEST PUSH1 0x40 MLOAD PUSH1 0x1 PUSH1 0x1 PUSH1 0xE0 SHL SUB NOT PUSH1 0xE0 DUP5 SWAP1 SHL AND DUP2 MSTORE PUSH1 0x1 PUSH1 0x1 PUSH1 0xA0 SHL SUB SWAP1 SWAP2 AND PUSH1 0x4 DUP3 ADD MSTORE PUSH1 0x24 ADD PUSH1 0x20 PUSH1 0x40 MLOAD DUP1 DUP4 SUB DUP2 DUP7 GAS STATICCALL ISZERO DUP1 ISZERO PUSH2 0x117C JUMPI RETURNDATASIZE PUSH1 0x0 DUP1 RETURNDATACOPY RETURNDATASIZE PUSH1 0x0 REVERT JUMPDEST POP POP POP POP PUSH1 0x40 MLOAD RETURNDATASIZE PUSH1 0x1F NOT PUSH1 0x1F DUP3 ADD AND DUP3 ADD DUP1 PUSH1 0x40 MSTORE POP DUP2 ADD SWAP1 PUSH2 0x11A0 SWAP2 SWAP1 PUSH2 0x230C JUMP JUMPDEST PUSH1 0x1 PUSH1 0x1 PUSH1 0xA0 SHL SUB AND PUSH4 0xD53D5E42 DUP6 DUP6 CALLER PUSH1 0x40 MLOAD DUP5 PUSH4 0xFFFFFFFF AND PUSH1 0xE0 SHL DUP2 MSTORE PUSH1 0x4 ADD PUSH2 0x11CF SWAP4 SWAP3 SWAP2 SWAP1 PUSH2 0x1F97 JUMP JUMPDEST PUSH1 0x60 PUSH1 0x40 MLOAD DUP1 DUP4 SUB DUP2 DUP7 GAS STATICCALL ISZERO DUP1 ISZERO PUSH2 0x11EC JUMPI RETURNDATASIZE PUSH1 0x0 DUP1 RETURNDATACOPY RETURNDATASIZE PUSH1 0x0 REVERT JUMPDEST POP POP POP POP PUSH1 0x40 MLOAD RETURNDATASIZE PUSH1 0x1F NOT PUSH1 0x1F DUP3 ADD AND DUP3 ADD DUP1 PUSH1 0x40 MSTORE POP DUP2 ADD SWAP1 PUSH2 0x1210 SWAP2 SWAP1 PUSH2 0x2354 JUMP JUMPDEST PUSH1 0x40 DUP1 MLOAD DUP1 DUP3 ADD SWAP1 SWAP2 MSTORE PUSH1 0x2 DUP2 MSTORE PUSH2 0x189B PUSH1 0xF1 SHL PUSH1 0x20 DUP3 ADD MSTORE SWAP1 SWAP4 POP SWAP2 POP POP PUSH1 0x1 DUP3 ISZERO ISZERO EQ PUSH2 0x1252 JUMPI PUSH1 0x40 MLOAD PUSH3 0x461BCD PUSH1 0xE5 SHL DUP2 MSTORE PUSH1 0x4 ADD PUSH2 0x21E SWAP2 SWAP1 PUSH2 0x1F7D JUMP JUMPDEST POP POP JUMPDEST PUSH1 0x40 MLOAD PUSH4 0x76BA5101 PUSH1 0xE1 SHL DUP2 MSTORE PUSH1 0x4 DUP2 ADD DUP5 SWAP1 MSTORE PUSH1 0x0 SWAP1 PUSH32 0x0 PUSH1 0x1 PUSH1 0x1 PUSH1 0xA0 SHL SUB AND SWAP1 PUSH4 0xED74A202 SWAP1 PUSH1 0x24 ADD PUSH1 0x40 DUP1 MLOAD DUP1 DUP4 SUB DUP2 DUP7 GAS STATICCALL ISZERO DUP1 ISZERO PUSH2 0x12BC JUMPI RETURNDATASIZE PUSH1 0x0 DUP1 RETURNDATACOPY RETURNDATASIZE PUSH1 0x0 REVERT JUMPDEST POP POP POP POP PUSH1 0x40 MLOAD RETURNDATASIZE PUSH1 0x1F NOT PUSH1 0x1F DUP3 ADD AND DUP3 ADD DUP1 PUSH1 0x40 MSTORE POP DUP2 ADD SWAP1 PUSH2 0x12E0 SWAP2 SWAP1 PUSH2 0x20DB JUMP JUMPDEST POP PUSH1 0x40 MLOAD PUSH4 0x47B5C681 PUSH1 0xE1 SHL DUP2 MSTORE PUSH1 0x4 DUP2 ADD DUP7 SWAP1 MSTORE PUSH1 0x24 DUP2 ADD DUP3 SWAP1 MSTORE PUSH1 0x44 DUP2 ADD DUP6 SWAP1 MSTORE PUSH1 0x1 PUSH1 0x1 PUSH1 0xA0 SHL SUB PUSH32 0x0 DUP2 AND PUSH1 0x64 DUP4 ADD MSTORE SWAP2 SWAP3 POP PUSH1 0x0 SWAP2 PUSH32 0x0 AND SWAP1 PUSH4 0x8F6B8D02 SWAP1 PUSH1 0x84 ADD PUSH1 0x20 PUSH1 0x40 MLOAD DUP1 DUP4 SUB DUP2 DUP7 GAS STATICCALL ISZERO DUP1 ISZERO PUSH2 0x1382 JUMPI RETURNDATASIZE PUSH1 0x0 DUP1 RETURNDATACOPY RETURNDATASIZE PUSH1 0x0 REVERT JUMPDEST POP POP POP POP PUSH1 0x40 MLOAD RETURNDATASIZE PUSH1 0x1F NOT PUSH1 0x1F DUP3 ADD AND DUP3 ADD DUP1 PUSH1 0x40 MSTORE POP DUP2 ADD SWAP1 PUSH2 0x13A6 SWAP2 SWAP1 PUSH2 0x20FF JUMP JUMPDEST SWAP1 POP PUSH2 0x13B3 DUP2 PUSH1 0x3C PUSH2 0x21EB JUMP JUMPDEST PUSH1 0x40 MLOAD PUSH4 0x6EB1769F PUSH1 0xE1 SHL DUP2 MSTORE CALLER PUSH1 0x4 DUP3 ADD MSTORE ADDRESS PUSH1 0x24 DUP3 ADD MSTORE PUSH32 0x0 PUSH1 0x1 PUSH1 0x1 PUSH1 0xA0 SHL SUB AND SWAP1 PUSH4 0xDD62ED3E SWAP1 PUSH1 0x44 ADD PUSH1 0x20 PUSH1 0x40 MLOAD DUP1 DUP4 SUB DUP2 DUP7 GAS STATICCALL ISZERO DUP1 ISZERO PUSH2 0x141D JUMPI RETURNDATASIZE PUSH1 0x0 DUP1 RETURNDATACOPY RETURNDATASIZE PUSH1 0x0 REVERT JUMPDEST POP POP POP POP PUSH1 0x40 MLOAD RETURNDATASIZE PUSH1 0x1F NOT PUSH1 0x1F DUP3 ADD AND DUP3 ADD DUP1 PUSH1 0x40 MSTORE POP DUP2 ADD SWAP1 PUSH2 0x1441 SWAP2 SWAP1 PUSH2 0x20FF JUMP JUMPDEST LT ISZERO PUSH1 0x40 MLOAD DUP1 PUSH1 0x40 ADD PUSH1 0x40 MSTORE DUP1 PUSH1 0x2 DUP2 MSTORE PUSH1 0x20 ADD PUSH2 0xC4D PUSH1 0xF2 SHL DUP2 MSTORE POP SWAP1 PUSH2 0x147C JUMPI PUSH1 0x40 MLOAD PUSH3 0x461BCD PUSH1 0xE5 SHL DUP2 MSTORE PUSH1 0x4 ADD PUSH2 0x21E SWAP2 SWAP1 PUSH2 0x1F7D JUMP JUMPDEST POP PUSH1 0x1 SLOAD PUSH1 0x0 DUP7 DUP2 MSTORE PUSH1 0x2 PUSH1 0x20 SWAP1 DUP2 MSTORE PUSH1 0x40 DUP1 DUP4 KECCAK256 DUP9 DUP5 MSTORE DUP3 MSTORE DUP1 DUP4 KECCAK256 CALLER DUP5 MSTORE SWAP1 SWAP2 MSTORE DUP2 KECCAK256 SLOAD SWAP2 SWAP5 POP SUB PUSH2 0x14F4 JUMPI PUSH1 0x1 DUP1 SLOAD PUSH2 0x14B7 SWAP2 PUSH2 0x2202 JUMP JUMPDEST PUSH1 0x0 DUP7 DUP2 MSTORE PUSH1 0x2 PUSH1 0x20 SWAP1 DUP2 MSTORE PUSH1 0x40 DUP1 DUP4 KECCAK256 DUP9 DUP5 MSTORE DUP3 MSTORE DUP1 DUP4 KECCAK256 CALLER DUP5 MSTORE SWAP1 SWAP2 MSTORE DUP2 KECCAK256 SWAP2 SWAP1 SWAP2 SSTORE PUSH1 0x1 DUP1 SLOAD SWAP2 PUSH2 0x14EA DUP4 PUSH2 0x2215 JUMP JUMPDEST SWAP2 SWAP1 POP SSTORE POP PUSH2 0x1525 JUMP JUMPDEST PUSH1 0x0 DUP6 DUP2 MSTORE PUSH1 0x2 PUSH1 0x20 SWAP1 DUP2 MSTORE PUSH1 0x40 DUP1 DUP4 KECCAK256 DUP8 DUP5 MSTORE DUP3 MSTORE DUP1 DUP4 KECCAK256 CALLER DUP5 MSTORE SWAP1 SWAP2 MSTORE SWAP1 KECCAK256 SLOAD PUSH2 0x1522 SWAP1 PUSH1 0x1 SWAP1 PUSH2 0x222E JUMP JUMPDEST SWAP3 POP JUMPDEST PUSH1 0x40 MLOAD DUP1 PUSH1 0xC0 ADD PUSH1 0x40 MSTORE DUP1 DUP7 DUP2 MSTORE PUSH1 0x20 ADD DUP6 DUP2 MSTORE PUSH1 0x20 ADD CALLER PUSH1 0x1 PUSH1 0x1 PUSH1 0xA0 SHL SUB AND DUP2 MSTORE PUSH1 0x20 ADD DUP3 DUP2 MSTORE PUSH1 0x20 ADD TIMESTAMP PUSH3 0x278D00 PUSH2 0x1560 SWAP2 SWAP1 PUSH2 0x2202 JUMP JUMPDEST DUP2 MSTORE PUSH1 0x0 PUSH1 0x20 SWAP2 DUP3 ADD DUP2 SWAP1 MSTORE DUP6 DUP2 MSTORE DUP1 DUP3 MSTORE PUSH1 0x40 DUP1 DUP3 KECCAK256 DUP5 MLOAD DUP2 SSTORE SWAP3 DUP5 ADD MLOAD PUSH1 0x1 DUP5 ADD SSTORE DUP4 DUP2 ADD MLOAD PUSH1 0x2 DUP5 ADD DUP1 SLOAD PUSH1 0x1 PUSH1 0x1 PUSH1 0xA0 SHL SUB NOT AND PUSH1 0x1 PUSH1 0x1 PUSH1 0xA0 SHL SUB SWAP3 DUP4 AND OR SWAP1 SSTORE PUSH1 0x60 DUP6 ADD MLOAD PUSH1 0x3 DUP6 ADD SSTORE PUSH1 0x80 DUP6 ADD MLOAD PUSH1 0x4 DUP1 DUP7 ADD SWAP2 SWAP1 SWAP2 SSTORE PUSH1 0xA0 SWAP1 SWAP6 ADD MLOAD PUSH1 0x5 SWAP1 SWAP5 ADD DUP1 SLOAD PUSH1 0xFF NOT AND SWAP5 ISZERO ISZERO SWAP5 SWAP1 SWAP5 OR SWAP1 SWAP4 SSTORE MLOAD PUSH4 0x3C23D3D9 PUSH1 0xE2 SHL DUP2 MSTORE SWAP3 DUP4 ADD DUP9 SWAP1 MSTORE SWAP2 PUSH32 0x0 SWAP1 SWAP2 AND SWAP1 PUSH4 0xF08F4F64 SWAP1 PUSH1 0x24 ADD PUSH1 0x0 PUSH1 0x40 MLOAD DUP1 DUP4 SUB DUP2 DUP7 GAS STATICCALL ISZERO DUP1 ISZERO PUSH2 0x1636 JUMPI RETURNDATASIZE PUSH1 0x0 DUP1 RETURNDATACOPY RETURNDATASIZE PUSH1 0x0 REVERT JUMPDEST POP POP POP POP PUSH1 0x40 MLOAD RETURNDATASIZE PUSH1 0x0 DUP3 RETURNDATACOPY PUSH1 0x1F RETURNDATASIZE SWAP1 DUP2 ADD PUSH1 0x1F NOT AND DUP3 ADD PUSH1 0x40 MSTORE PUSH2 0x165E SWAP2 SWAP1 DUP2 ADD SWAP1 PUSH2 0x2118 JUMP JUMPDEST POP PUSH1 0x40 MLOAD PUSH4 0x76BA5101 PUSH1 0xE1 SHL DUP2 MSTORE PUSH1 0x4 DUP2 ADD DUP10 SWAP1 MSTORE SWAP1 SWAP3 POP PUSH1 0x0 SWAP2 POP PUSH1 0x1 PUSH1 0x1 PUSH1 0xA0 SHL SUB PUSH32 0x0 AND SWAP1 PUSH4 0xED74A202 SWAP1 PUSH1 0x24 ADD PUSH1 0x40 DUP1 MLOAD DUP1 DUP4 SUB DUP2 DUP7 GAS STATICCALL ISZERO DUP1 ISZERO PUSH2 0x16CA JUMPI RETURNDATASIZE PUSH1 0x0 DUP1 RETURNDATACOPY RETURNDATASIZE PUSH1 0x0 REVERT JUMPDEST POP POP POP POP PUSH1 0x40 MLOAD RETURNDATASIZE PUSH1 0x1F NOT PUSH1 0x1F DUP3 ADD AND DUP3 ADD DUP1 PUSH1 0x40 MSTORE POP DUP2 ADD SWAP1 PUSH2 0x16EE SWAP2 SWAP1 PUSH2 0x20DB JUMP JUMPDEST SWAP2 POP POP PUSH2 0x16FD CALLER DUP4 DUP6 DUP5 PUSH2 0x1915 JUMP JUMPDEST PUSH1 0x40 MLOAD DUP1 PUSH1 0x40 ADD PUSH1 0x40 MSTORE DUP1 PUSH1 0x2 DUP2 MSTORE PUSH1 0x20 ADD PUSH2 0x3135 PUSH1 0xF0 SHL DUP2 MSTORE POP SWAP1 PUSH2 0x1736 JUMPI PUSH1 0x40 MLOAD PUSH3 0x461BCD PUSH1 0xE5 SHL DUP2 MSTORE PUSH1 0x4 ADD PUSH2 0x21E SWAP2 SWAP1 PUSH2 0x1F7D JUMP JUMPDEST POP PUSH1 0x40 MLOAD PUSH4 0x5E707483 PUSH1 0xE0 SHL DUP2 MSTORE PUSH1 0x4 DUP2 ADD DUP9 SWAP1 MSTORE PUSH1 0x24 DUP2 ADD DUP8 SWAP1 MSTORE CALLER PUSH1 0x44 DUP3 ADD MSTORE PUSH1 0x1 PUSH1 0x1 PUSH1 0xA0 SHL SUB PUSH32 0x0 DUP2 AND PUSH1 0x64 DUP4 ADD MSTORE PUSH32 0x0 AND SWAP1 PUSH4 0x5E707483 SWAP1 PUSH1 0x84 ADD PUSH1 0x0 PUSH1 0x40 MLOAD DUP1 DUP4 SUB DUP2 PUSH1 0x0 DUP8 DUP1 EXTCODESIZE ISZERO DUP1 ISZERO PUSH2 0x17CE JUMPI PUSH1 0x0 DUP1 REVERT JUMPDEST POP GAS CALL ISZERO DUP1 ISZERO PUSH2 0x17E2 JUMPI RETURNDATASIZE PUSH1 0x0 DUP1 RETURNDATACOPY RETURNDATASIZE PUSH1 0x0 REVERT JUMPDEST POP POP POP POP PUSH2 0x17EE PUSH2 0xE10 JUMP JUMPDEST PUSH32 0x719D57359948C2C6F2A923516C19ABA22B490E924879B674C1D6371BB6541F17 DUP8 DUP8 CALLER PUSH1 0x40 MLOAD PUSH2 0x1821 SWAP4 SWAP3 SWAP2 SWAP1 PUSH2 0x1F97 JUMP JUMPDEST PUSH1 0x40 MLOAD DUP1 SWAP2 SUB SWAP1 LOG1 POP POP POP POP SWAP3 SWAP2 POP POP JUMP JUMPDEST PUSH1 0x0 DUP1 PUSH1 0x0 DUP1 PUSH2 0x1844 DUP8 DUP8 DUP8 PUSH2 0x1874 JUMP JUMPDEST PUSH1 0x0 SWAP1 DUP2 MSTORE PUSH1 0x20 DUP2 SWAP1 MSTORE PUSH1 0x40 SWAP1 KECCAK256 PUSH1 0x3 DUP2 ADD SLOAD PUSH1 0x4 DUP3 ADD SLOAD PUSH1 0x5 SWAP1 SWAP3 ADD SLOAD SWAP1 SWAP10 SWAP2 SWAP9 POP PUSH1 0xFF AND SWAP7 POP SWAP5 POP POP POP POP POP JUMP JUMPDEST PUSH1 0x0 DUP4 DUP2 MSTORE PUSH1 0x2 PUSH1 0x20 SWAP1 DUP2 MSTORE PUSH1 0x40 DUP1 DUP4 KECCAK256 DUP6 DUP5 MSTORE DUP3 MSTORE DUP1 DUP4 KECCAK256 PUSH1 0x1 PUSH1 0x1 PUSH1 0xA0 SHL SUB DUP6 AND DUP5 MSTORE DUP3 MSTORE DUP1 DUP4 KECCAK256 SLOAD DUP2 MLOAD DUP1 DUP4 ADD SWAP1 SWAP3 MSTORE PUSH1 0x1 DUP3 MSTORE PUSH1 0x7 PUSH1 0xFB SHL SWAP3 DUP3 ADD SWAP3 SWAP1 SWAP3 MSTORE SWAP1 PUSH2 0x18D5 JUMPI PUSH1 0x40 MLOAD PUSH3 0x461BCD PUSH1 0xE5 SHL DUP2 MSTORE PUSH1 0x4 ADD PUSH2 0x21E SWAP2 SWAP1 PUSH2 0x1F7D JUMP JUMPDEST POP PUSH1 0x0 DUP5 DUP2 MSTORE PUSH1 0x2 PUSH1 0x20 SWAP1 DUP2 MSTORE PUSH1 0x40 DUP1 DUP4 KECCAK256 DUP7 DUP5 MSTORE DUP3 MSTORE DUP1 DUP4 KECCAK256 PUSH1 0x1 PUSH1 0x1 PUSH1 0xA0 SHL SUB DUP7 AND DUP5 MSTORE SWAP1 SWAP2 MSTORE SWAP1 KECCAK256 SLOAD PUSH2 0x190D SWAP1 PUSH1 0x1 SWAP1 PUSH2 0x222E JUMP JUMPDEST SWAP5 SWAP4 POP POP POP POP JUMP JUMPDEST PUSH1 0x40 MLOAD PUSH4 0x6EB1769F PUSH1 0xE1 SHL DUP2 MSTORE PUSH1 0x1 PUSH1 0x1 PUSH1 0xA0 SHL SUB DUP6 DUP2 AND PUSH1 0x4 DUP4 ADD MSTORE ADDRESS PUSH1 0x24 DUP4 ADD MSTORE PUSH1 0x0 SWAP2 DUP5 SWAP2 PUSH32 0x0 AND SWAP1 PUSH4 0xDD62ED3E SWAP1 PUSH1 0x44 ADD PUSH1 0x20 PUSH1 0x40 MLOAD DUP1 DUP4 SUB DUP2 DUP7 GAS STATICCALL ISZERO DUP1 ISZERO PUSH2 0x1986 JUMPI RETURNDATASIZE PUSH1 0x0 DUP1 RETURNDATACOPY RETURNDATASIZE PUSH1 0x0 REVERT JUMPDEST POP POP POP POP PUSH1 0x40 MLOAD RETURNDATASIZE PUSH1 0x1F NOT PUSH1 0x1F DUP3 ADD AND DUP3 ADD DUP1 PUSH1 0x40 MSTORE POP DUP2 ADD SWAP1 PUSH2 0x19AA SWAP2 SWAP1 PUSH2 0x20FF JUMP JUMPDEST LT ISZERO DUP1 ISZERO PUSH2 0x1A44 JUMPI POP PUSH1 0x40 MLOAD PUSH4 0x70A08231 PUSH1 0xE0 SHL DUP2 MSTORE PUSH1 0x1 PUSH1 0x1 PUSH1 0xA0 SHL SUB DUP7 DUP2 AND PUSH1 0x4 DUP4 ADD MSTORE DUP5 SWAP2 PUSH32 0x0 SWAP1 SWAP2 AND SWAP1 PUSH4 0x70A08231 SWAP1 PUSH1 0x24 ADD PUSH1 0x20 PUSH1 0x40 MLOAD DUP1 DUP4 SUB DUP2 DUP7 GAS STATICCALL ISZERO DUP1 ISZERO PUSH2 0x1A1D JUMPI RETURNDATASIZE PUSH1 0x0 DUP1 RETURNDATACOPY RETURNDATASIZE PUSH1 0x0 REVERT JUMPDEST POP POP POP POP PUSH1 0x40 MLOAD RETURNDATASIZE PUSH1 0x1F NOT PUSH1 0x1F DUP3 ADD AND DUP3 ADD DUP1 PUSH1 0x40 MSTORE POP DUP2 ADD SWAP1 PUSH2 0x1A41 SWAP2 SWAP1 PUSH2 0x20FF JUMP JUMPDEST LT ISZERO JUMPDEST ISZERO PUSH2 0x1BAC JUMPI PUSH1 0x40 MLOAD PUSH4 0x23B872DD PUSH1 0xE0 SHL DUP2 MSTORE PUSH1 0x1 PUSH1 0x1 PUSH1 0xA0 SHL SUB DUP7 DUP2 AND PUSH1 0x4 DUP4 ADD MSTORE ADDRESS PUSH1 0x24 DUP4 ADD MSTORE PUSH1 0x44 DUP3 ADD DUP6 SWAP1 MSTORE PUSH32 0x0 AND SWAP1 PUSH4 0x23B872DD SWAP1 PUSH1 0x64 ADD PUSH1 0x20 PUSH1 0x40 MLOAD DUP1 DUP4 SUB DUP2 PUSH1 0x0 DUP8 GAS CALL ISZERO DUP1 ISZERO PUSH2 0x1ABE JUMPI RETURNDATASIZE PUSH1 0x0 DUP1 RETURNDATACOPY RETURNDATASIZE PUSH1 0x0 REVERT JUMPDEST POP POP POP POP PUSH1 0x40 MLOAD RETURNDATASIZE PUSH1 0x1F NOT PUSH1 0x1F DUP3 ADD AND DUP3 ADD DUP1 PUSH1 0x40 MSTORE POP DUP2 ADD SWAP1 PUSH2 0x1AE2 SWAP2 SWAP1 PUSH2 0x2339 JUMP JUMPDEST POP PUSH1 0x1 PUSH1 0x1 PUSH1 0xA0 SHL SUB PUSH32 0x0 AND PUSH4 0xA9059CBB DUP6 PUSH1 0x64 PUSH2 0x1B1F DUP7 DUP3 PUSH2 0x222E JUMP JUMPDEST PUSH2 0x1B29 SWAP1 DUP9 PUSH2 0x21EB JUMP JUMPDEST PUSH2 0x1B33 SWAP2 SWAP1 PUSH2 0x2257 JUMP JUMPDEST PUSH1 0x40 MLOAD PUSH1 0x1 PUSH1 0x1 PUSH1 0xE0 SHL SUB NOT PUSH1 0xE0 DUP6 SWAP1 SHL AND DUP2 MSTORE PUSH1 0x1 PUSH1 0x1 PUSH1 0xA0 SHL SUB SWAP1 SWAP3 AND PUSH1 0x4 DUP4 ADD MSTORE PUSH1 0x24 DUP3 ADD MSTORE PUSH1 0x44 ADD PUSH1 0x20 PUSH1 0x40 MLOAD DUP1 DUP4 SUB DUP2 PUSH1 0x0 DUP8 GAS CALL ISZERO DUP1 ISZERO PUSH2 0x1B7E JUMPI RETURNDATASIZE PUSH1 0x0 DUP1 RETURNDATACOPY RETURNDATASIZE PUSH1 0x0 REVERT JUMPDEST POP POP POP POP PUSH1 0x40 MLOAD RETURNDATASIZE PUSH1 0x1F NOT PUSH1 0x1F DUP3 ADD AND DUP3 ADD DUP1 PUSH1 0x40 MSTORE POP DUP2 ADD SWAP1 PUSH2 0x1BA2 SWAP2 SWAP1 PUSH2 0x2339 JUMP JUMPDEST POP PUSH1 0x1 SWAP1 POP PUSH2 0x190D JUMP JUMPDEST POP PUSH1 0x0 SWAP5 SWAP4 POP POP POP POP JUMP JUMPDEST PUSH1 0x0 DUP1 DUP1 PUSH2 0x1BD0 PUSH2 0x1BCB PUSH3 0x15180 DUP7 PUSH2 0x2257 JUMP JUMPDEST PUSH2 0x1BDF JUMP JUMPDEST POP SWAP2 POP SWAP2 POP PUSH2 0x190D DUP3 DUP3 PUSH2 0x1D53 JUMP JUMPDEST PUSH1 0x0 DUP1 DUP1 DUP4 DUP2 PUSH3 0x253D8C PUSH2 0x1BF6 DUP4 PUSH3 0x10BD9 PUSH2 0x2389 JUMP JUMPDEST PUSH2 0x1C00 SWAP2 SWAP1 PUSH2 0x2389 JUMP JUMPDEST SWAP1 POP PUSH1 0x0 PUSH3 0x23AB1 PUSH2 0x1C13 DUP4 PUSH1 0x4 PUSH2 0x23B1 JUMP JUMPDEST PUSH2 0x1C1D SWAP2 SWAP1 PUSH2 0x23E1 JUMP JUMPDEST SWAP1 POP PUSH1 0x4 PUSH2 0x1C2E DUP3 PUSH3 0x23AB1 PUSH2 0x23B1 JUMP JUMPDEST PUSH2 0x1C39 SWAP1 PUSH1 0x3 PUSH2 0x2389 JUMP JUMPDEST PUSH2 0x1C43 SWAP2 SWAP1 PUSH2 0x23E1 JUMP JUMPDEST PUSH2 0x1C4D SWAP1 DUP4 PUSH2 0x240F JUMP JUMPDEST SWAP2 POP PUSH1 0x0 PUSH3 0x164B09 PUSH2 0x1C60 DUP5 PUSH1 0x1 PUSH2 0x2389 JUMP JUMPDEST PUSH2 0x1C6C SWAP1 PUSH2 0xFA0 PUSH2 0x23B1 JUMP JUMPDEST PUSH2 0x1C76 SWAP2 SWAP1 PUSH2 0x23E1 JUMP JUMPDEST SWAP1 POP PUSH1 0x4 PUSH2 0x1C86 DUP3 PUSH2 0x5B5 PUSH2 0x23B1 JUMP JUMPDEST PUSH2 0x1C90 SWAP2 SWAP1 PUSH2 0x23E1 JUMP JUMPDEST PUSH2 0x1C9A SWAP1 DUP5 PUSH2 0x240F JUMP JUMPDEST PUSH2 0x1CA5 SWAP1 PUSH1 0x1F PUSH2 0x2389 JUMP JUMPDEST SWAP3 POP PUSH1 0x0 PUSH2 0x98F PUSH2 0x1CB7 DUP6 PUSH1 0x50 PUSH2 0x23B1 JUMP JUMPDEST PUSH2 0x1CC1 SWAP2 SWAP1 PUSH2 0x23E1 JUMP JUMPDEST SWAP1 POP PUSH1 0x0 PUSH1 0x50 PUSH2 0x1CD3 DUP4 PUSH2 0x98F PUSH2 0x23B1 JUMP JUMPDEST PUSH2 0x1CDD SWAP2 SWAP1 PUSH2 0x23E1 JUMP JUMPDEST PUSH2 0x1CE7 SWAP1 DUP7 PUSH2 0x240F JUMP JUMPDEST SWAP1 POP PUSH2 0x1CF4 PUSH1 0xB DUP4 PUSH2 0x23E1 JUMP JUMPDEST SWAP5 POP PUSH2 0x1D01 DUP6 PUSH1 0xC PUSH2 0x23B1 JUMP JUMPDEST PUSH2 0x1D0C DUP4 PUSH1 0x2 PUSH2 0x2389 JUMP JUMPDEST PUSH2 0x1D16 SWAP2 SWAP1 PUSH2 0x240F JUMP JUMPDEST SWAP2 POP DUP5 DUP4 PUSH2 0x1D25 PUSH1 0x31 DUP8 PUSH2 0x240F JUMP JUMPDEST PUSH2 0x1D30 SWAP1 PUSH1 0x64 PUSH2 0x23B1 JUMP JUMPDEST PUSH2 0x1D3A SWAP2 SWAP1 PUSH2 0x2389 JUMP JUMPDEST PUSH2 0x1D44 SWAP2 SWAP1 PUSH2 0x2389 JUMP JUMPDEST SWAP11 SWAP2 SWAP10 POP SWAP8 POP SWAP6 POP POP POP POP POP POP JUMP JUMPDEST PUSH1 0x0 DUP2 PUSH1 0x1 EQ DUP1 PUSH2 0x1D64 JUMPI POP DUP2 PUSH1 0x3 EQ JUMPDEST DUP1 PUSH2 0x1D6F JUMPI POP DUP2 PUSH1 0x5 EQ JUMPDEST DUP1 PUSH2 0x1D7A JUMPI POP DUP2 PUSH1 0x7 EQ JUMPDEST DUP1 PUSH2 0x1D85 JUMPI POP DUP2 PUSH1 0x8 EQ JUMPDEST DUP1 PUSH2 0x1D90 JUMPI POP DUP2 PUSH1 0xA EQ JUMPDEST DUP1 PUSH2 0x1D9B JUMPI POP DUP2 PUSH1 0xC EQ JUMPDEST ISZERO PUSH2 0x1DA8 JUMPI POP PUSH1 0x1F PUSH2 0x1DD5 JUMP JUMPDEST DUP2 PUSH1 0x2 EQ PUSH2 0x1DB8 JUMPI POP PUSH1 0x1E PUSH2 0x1DD5 JUMP JUMPDEST PUSH2 0x1DC1 DUP4 PUSH2 0x1DDB JUMP JUMPDEST PUSH2 0x1DCC JUMPI PUSH1 0x1C PUSH2 0x1DCF JUMP JUMPDEST PUSH1 0x1D JUMPDEST PUSH1 0xFF AND SWAP1 POP JUMPDEST SWAP3 SWAP2 POP POP JUMP JUMPDEST PUSH1 0x0 PUSH2 0x1DE8 PUSH1 0x4 DUP4 PUSH2 0x2436 JUMP JUMPDEST ISZERO DUP1 ISZERO PUSH2 0x1DFE JUMPI POP PUSH2 0x1DFB PUSH1 0x64 DUP4 PUSH2 0x2436 JUMP JUMPDEST ISZERO ISZERO JUMPDEST DUP1 PUSH2 0x1DD5 JUMPI POP PUSH2 0x1E10 PUSH2 0x190 DUP4 PUSH2 0x2436 JUMP JUMPDEST ISZERO SWAP3 SWAP2 POP POP JUMP JUMPDEST PUSH1 0x0 PUSH1 0x20 DUP3 DUP5 SUB SLT ISZERO PUSH2 0x1E29 JUMPI PUSH1 0x0 DUP1 REVERT JUMPDEST POP CALLDATALOAD SWAP2 SWAP1 POP JUMP JUMPDEST PUSH1 0x0 DUP1 PUSH1 0x40 DUP4 DUP6 SUB SLT ISZERO PUSH2 0x1E43 JUMPI PUSH1 0x0 DUP1 REVERT JUMPDEST POP POP DUP1 CALLDATALOAD SWAP3 PUSH1 0x20 SWAP1 SWAP2 ADD CALLDATALOAD SWAP2 POP JUMP JUMPDEST PUSH1 0x0 DUP1 PUSH1 0x20 DUP4 DUP6 SUB SLT ISZERO PUSH2 0x1E65 JUMPI PUSH1 0x0 DUP1 REVERT JUMPDEST DUP3 CALLDATALOAD PUSH8 0xFFFFFFFFFFFFFFFF DUP1 DUP3 GT ISZERO PUSH2 0x1E7D JUMPI PUSH1 0x0 DUP1 REVERT JUMPDEST DUP2 DUP6 ADD SWAP2 POP DUP6 PUSH1 0x1F DUP4 ADD SLT PUSH2 0x1E91 JUMPI PUSH1 0x0 DUP1 REVERT JUMPDEST DUP2 CALLDATALOAD DUP2 DUP2 GT ISZERO PUSH2 0x1EA0 JUMPI PUSH1 0x0 DUP1 REVERT JUMPDEST DUP7 PUSH1 0x20 DUP3 DUP6 ADD ADD GT ISZERO PUSH2 0x1EB2 JUMPI PUSH1 0x0 DUP1 REVERT JUMPDEST PUSH1 0x20 SWAP3 SWAP1 SWAP3 ADD SWAP7 SWAP2 SWAP6 POP SWAP1 SWAP4 POP POP POP POP JUMP JUMPDEST PUSH1 0x0 JUMPDEST DUP4 DUP2 LT ISZERO PUSH2 0x1EDF JUMPI DUP2 DUP2 ADD MLOAD DUP4 DUP3 ADD MSTORE PUSH1 0x20 ADD PUSH2 0x1EC7 JUMP JUMPDEST POP POP PUSH1 0x0 SWAP2 ADD MSTORE JUMP JUMPDEST PUSH1 0x0 DUP2 MLOAD DUP1 DUP5 MSTORE PUSH2 0x1F00 DUP2 PUSH1 0x20 DUP7 ADD PUSH1 0x20 DUP7 ADD PUSH2 0x1EC4 JUMP JUMPDEST PUSH1 0x1F ADD PUSH1 0x1F NOT AND SWAP3 SWAP1 SWAP3 ADD PUSH1 0x20 ADD SWAP3 SWAP2 POP POP JUMP JUMPDEST DUP3 ISZERO ISZERO DUP2 MSTORE PUSH1 0x40 PUSH1 0x20 DUP3 ADD MSTORE PUSH1 0x0 PUSH2 0x190D PUSH1 0x40 DUP4 ADD DUP5 PUSH2 0x1EE8 JUMP JUMPDEST PUSH1 0x1 PUSH1 0x1 PUSH1 0xA0 SHL SUB DUP2 AND DUP2 EQ PUSH2 0xFB8 JUMPI PUSH1 0x0 DUP1 REVERT JUMPDEST PUSH1 0x0 DUP1 PUSH1 0x0 PUSH1 0x60 DUP5 DUP7 SUB SLT ISZERO PUSH2 0x1F59 JUMPI PUSH1 0x0 DUP1 REVERT JUMPDEST DUP4 CALLDATALOAD SWAP3 POP PUSH1 0x20 DUP5 ADD CALLDATALOAD SWAP2 POP PUSH1 0x40 DUP5 ADD CALLDATALOAD PUSH2 0x1F72 DUP2 PUSH2 0x1F2F JUMP JUMPDEST DUP1 SWAP2 POP POP SWAP3 POP SWAP3 POP SWAP3 JUMP JUMPDEST PUSH1 0x20 DUP2 MSTORE PUSH1 0x0 PUSH2 0x1F90 PUSH1 0x20 DUP4 ADD DUP5 PUSH2 0x1EE8 JUMP JUMPDEST SWAP4 SWAP3 POP POP POP JUMP JUMPDEST SWAP3 DUP4 MSTORE PUSH1 0x20 DUP4 ADD SWAP2 SWAP1 SWAP2 MSTORE PUSH1 0x1 PUSH1 0x1 PUSH1 0xA0 SHL SUB AND PUSH1 0x40 DUP3 ADD MSTORE PUSH1 0x60 ADD SWAP1 JUMP JUMPDEST PUSH4 0x4E487B71 PUSH1 0xE0 SHL PUSH1 0x0 MSTORE PUSH1 0x41 PUSH1 0x4 MSTORE PUSH1 0x24 PUSH1 0x0 REVERT JUMPDEST PUSH1 0x40 MLOAD PUSH1 0x1F DUP3 ADD PUSH1 0x1F NOT AND DUP2 ADD PUSH8 0xFFFFFFFFFFFFFFFF DUP2 GT DUP3 DUP3 LT OR ISZERO PUSH2 0x1FF5 JUMPI PUSH2 0x1FF5 PUSH2 0x1FB6 JUMP JUMPDEST PUSH1 0x40 MSTORE SWAP2 SWAP1 POP JUMP JUMPDEST DUP1 CALLDATALOAD PUSH2 0x2008 DUP2 PUSH2 0x1F2F JUMP JUMPDEST SWAP2 SWAP1 POP JUMP JUMPDEST PUSH1 0x0 DUP1 PUSH1 0x40 DUP4 DUP6 SUB SLT ISZERO PUSH2 0x2020 JUMPI PUSH1 0x0 DUP1 REVERT JUMPDEST DUP3 CALLDATALOAD PUSH8 0xFFFFFFFFFFFFFFFF DUP1 DUP3 GT ISZERO PUSH2 0x2038 JUMPI PUSH1 0x0 DUP1 REVERT JUMPDEST DUP2 DUP6 ADD SWAP2 POP DUP6 PUSH1 0x1F DUP4 ADD SLT PUSH2 0x204C JUMPI PUSH1 0x0 DUP1 REVERT JUMPDEST DUP2 CALLDATALOAD PUSH1 0x20 DUP3 DUP3 GT ISZERO PUSH2 0x2060 JUMPI PUSH2 0x2060 PUSH2 0x1FB6 JUMP JUMPDEST DUP2 PUSH1 0x5 SHL SWAP3 POP PUSH2 0x2071 DUP2 DUP5 ADD PUSH2 0x1FCC JUMP JUMPDEST DUP3 DUP2 MSTORE SWAP3 DUP5 ADD DUP2 ADD SWAP3 DUP2 DUP2 ADD SWAP1 DUP10 DUP6 GT ISZERO PUSH2 0x208B JUMPI PUSH1 0x0 DUP1 REVERT JUMPDEST SWAP5 DUP3 ADD SWAP5 JUMPDEST DUP5 DUP7 LT ISZERO PUSH2 0x20A9 JUMPI DUP6 CALLDATALOAD DUP3 MSTORE SWAP5 DUP3 ADD SWAP5 SWAP1 DUP3 ADD SWAP1 PUSH2 0x2090 JUMP JUMPDEST SWAP7 POP PUSH2 0x20B8 SWAP1 POP DUP8 DUP3 ADD PUSH2 0x1FFD JUMP JUMPDEST SWAP5 POP POP POP POP POP SWAP3 POP SWAP3 SWAP1 POP JUMP JUMPDEST PUSH4 0x4E487B71 PUSH1 0xE0 SHL PUSH1 0x0 MSTORE PUSH1 0x32 PUSH1 0x4 MSTORE PUSH1 0x24 PUSH1 0x0 REVERT JUMPDEST PUSH1 0x0 DUP1 PUSH1 0x40 DUP4 DUP6 SUB SLT ISZERO PUSH2 0x20EE JUMPI PUSH1 0x0 DUP1 REVERT JUMPDEST POP POP DUP1 MLOAD PUSH1 0x20 SWAP1 SWAP2 ADD MLOAD SWAP1 SWAP3 SWAP1 SWAP2 POP JUMP JUMPDEST PUSH1 0x0 PUSH1 0x20 DUP3 DUP5 SUB SLT ISZERO PUSH2 0x2111 JUMPI PUSH1 0x0 DUP1 REVERT JUMPDEST POP MLOAD SWAP2 SWAP1 POP JUMP JUMPDEST PUSH1 0x0 DUP1 PUSH1 0x0 PUSH1 0x60 DUP5 DUP7 SUB SLT ISZERO PUSH2 0x212D JUMPI PUSH1 0x0 DUP1 REVERT JUMPDEST DUP4 MLOAD PUSH2 0x2138 DUP2 PUSH2 0x1F2F JUMP JUMPDEST PUSH1 0x20 DUP6 ADD MLOAD SWAP1 SWAP4 POP PUSH2 0x2149 DUP2 PUSH2 0x1F2F JUMP JUMPDEST PUSH1 0x40 DUP6 ADD MLOAD SWAP1 SWAP3 POP PUSH8 0xFFFFFFFFFFFFFFFF DUP1 DUP3 GT ISZERO PUSH2 0x2167 JUMPI PUSH1 0x0 DUP1 REVERT JUMPDEST DUP2 DUP7 ADD SWAP2 POP DUP7 PUSH1 0x1F DUP4 ADD SLT PUSH2 0x217B JUMPI PUSH1 0x0 DUP1 REVERT JUMPDEST DUP2 MLOAD DUP2 DUP2 GT ISZERO PUSH2 0x218D JUMPI PUSH2 0x218D PUSH2 0x1FB6 JUMP JUMPDEST PUSH2 0x21A0 PUSH1 0x1F DUP3 ADD PUSH1 0x1F NOT AND PUSH1 0x20 ADD PUSH2 0x1FCC JUMP JUMPDEST SWAP2 POP DUP1 DUP3 MSTORE DUP8 PUSH1 0x20 DUP3 DUP6 ADD ADD GT ISZERO PUSH2 0x21B7 JUMPI PUSH1 0x0 DUP1 REVERT JUMPDEST PUSH2 0x21C8 DUP2 PUSH1 0x20 DUP5 ADD PUSH1 0x20 DUP7 ADD PUSH2 0x1EC4 JUMP JUMPDEST POP DUP1 SWAP3 POP POP POP SWAP3 POP SWAP3 POP SWAP3 JUMP JUMPDEST PUSH4 0x4E487B71 PUSH1 0xE0 SHL PUSH1 0x0 MSTORE PUSH1 0x11 PUSH1 0x4 MSTORE PUSH1 0x24 PUSH1 0x0 REVERT JUMPDEST DUP1 DUP3 MUL DUP2 ISZERO DUP3 DUP3 DIV DUP5 EQ OR PUSH2 0x1DD5 JUMPI PUSH2 0x1DD5 PUSH2 0x21D5 JUMP JUMPDEST DUP1 DUP3 ADD DUP1 DUP3 GT ISZERO PUSH2 0x1DD5 JUMPI PUSH2 0x1DD5 PUSH2 0x21D5 JUMP JUMPDEST PUSH1 0x0 PUSH1 0x1 DUP3 ADD PUSH2 0x2227 JUMPI PUSH2 0x2227 PUSH2 0x21D5 JUMP JUMPDEST POP PUSH1 0x1 ADD SWAP1 JUMP JUMPDEST DUP2 DUP2 SUB DUP2 DUP2 GT ISZERO PUSH2 0x1DD5 JUMPI PUSH2 0x1DD5 PUSH2 0x21D5 JUMP JUMPDEST PUSH4 0x4E487B71 PUSH1 0xE0 SHL PUSH1 0x0 MSTORE PUSH1 0x12 PUSH1 0x4 MSTORE PUSH1 0x24 PUSH1 0x0 REVERT JUMPDEST PUSH1 0x0 DUP3 PUSH2 0x2266 JUMPI PUSH2 0x2266 PUSH2 0x2241 JUMP JUMPDEST POP DIV SWAP1 JUMP JUMPDEST PUSH1 0x0 DUP1 PUSH1 0x0 DUP1 PUSH1 0x0 PUSH1 0xA0 DUP7 DUP9 SUB SLT ISZERO PUSH2 0x2283 JUMPI PUSH1 0x0 DUP1 REVERT JUMPDEST DUP6 CALLDATALOAD SWAP5 POP PUSH1 0x20 DUP7 ADD CALLDATALOAD SWAP4 POP PUSH1 0x40 DUP7 ADD CALLDATALOAD SWAP3 POP PUSH1 0x60 DUP7 ADD CALLDATALOAD SWAP2 POP PUSH1 0x80 DUP7 ADD CALLDATALOAD PUSH2 0x22AA DUP2 PUSH2 0x1F2F JUMP JUMPDEST DUP1 SWAP2 POP POP SWAP3 SWAP6 POP SWAP3 SWAP6 SWAP1 SWAP4 POP JUMP JUMPDEST PUSH1 0x40 DUP1 DUP3 MSTORE DUP4 MLOAD SWAP1 DUP3 ADD DUP2 SWAP1 MSTORE PUSH1 0x0 SWAP1 PUSH1 0x20 SWAP1 PUSH1 0x60 DUP5 ADD SWAP1 DUP3 DUP8 ADD DUP5 JUMPDEST DUP3 DUP2 LT ISZERO PUSH2 0x22F1 JUMPI DUP2 MLOAD DUP5 MSTORE SWAP3 DUP5 ADD SWAP3 SWAP1 DUP5 ADD SWAP1 PUSH1 0x1 ADD PUSH2 0x22D5 JUMP JUMPDEST POP POP POP PUSH1 0x1 PUSH1 0x1 PUSH1 0xA0 SHL SUB SWAP5 SWAP1 SWAP5 AND SWAP3 ADD SWAP2 SWAP1 SWAP2 MSTORE POP SWAP2 SWAP1 POP JUMP JUMPDEST PUSH1 0x0 PUSH1 0x20 DUP3 DUP5 SUB SLT ISZERO PUSH2 0x231E JUMPI PUSH1 0x0 DUP1 REVERT JUMPDEST DUP2 MLOAD PUSH2 0x1F90 DUP2 PUSH2 0x1F2F JUMP JUMPDEST DUP1 MLOAD DUP1 ISZERO ISZERO DUP2 EQ PUSH2 0x2008 JUMPI PUSH1 0x0 DUP1 REVERT JUMPDEST PUSH1 0x0 PUSH1 0x20 DUP3 DUP5 SUB SLT ISZERO PUSH2 0x234B JUMPI PUSH1 0x0 DUP1 REVERT JUMPDEST PUSH2 0x1F90 DUP3 PUSH2 0x2329 JUMP JUMPDEST PUSH1 0x0 DUP1 PUSH1 0x0 PUSH1 0x60 DUP5 DUP7 SUB SLT ISZERO PUSH2 0x2369 JUMPI PUSH1 0x0 DUP1 REVERT JUMPDEST DUP4 MLOAD SWAP3 POP PUSH1 0x20 DUP5 ADD MLOAD SWAP2 POP PUSH2 0x2380 PUSH1 0x40 DUP6 ADD PUSH2 0x2329 JUMP JUMPDEST SWAP1 POP SWAP3 POP SWAP3 POP SWAP3 JUMP JUMPDEST DUP1 DUP3 ADD DUP3 DUP2 SLT PUSH1 0x0 DUP4 SLT DUP1 ISZERO DUP3 AND DUP3 ISZERO DUP3 AND OR ISZERO PUSH2 0x23A9 JUMPI PUSH2 0x23A9 PUSH2 0x21D5 JUMP JUMPDEST POP POP SWAP3 SWAP2 POP POP JUMP JUMPDEST DUP1 DUP3 MUL PUSH1 0x0 DUP3 SLT PUSH1 0x1 PUSH1 0xFF SHL DUP5 EQ AND ISZERO PUSH2 0x23CD JUMPI PUSH2 0x23CD PUSH2 0x21D5 JUMP JUMPDEST DUP2 DUP2 SDIV DUP4 EQ DUP3 ISZERO OR PUSH2 0x1DD5 JUMPI PUSH2 0x1DD5 PUSH2 0x21D5 JUMP JUMPDEST PUSH1 0x0 DUP3 PUSH2 0x23F0 JUMPI PUSH2 0x23F0 PUSH2 0x2241 JUMP JUMPDEST PUSH1 0x1 PUSH1 0xFF SHL DUP3 EQ PUSH1 0x0 NOT DUP5 EQ AND ISZERO PUSH2 0x240A JUMPI PUSH2 0x240A PUSH2 0x21D5 JUMP JUMPDEST POP SDIV SWAP1 JUMP JUMPDEST DUP2 DUP2 SUB PUSH1 0x0 DUP4 SLT DUP1 ISZERO DUP4 DUP4 SGT AND DUP4 DUP4 SLT DUP3 AND OR ISZERO PUSH2 0x242F JUMPI PUSH2 0x242F PUSH2 0x21D5 JUMP JUMPDEST POP SWAP3 SWAP2 POP POP JUMP JUMPDEST PUSH1 0x0 DUP3 PUSH2 0x2445 JUMPI PUSH2 0x2445 PUSH2 0x2241 JUMP JUMPDEST POP MOD SWAP1 JUMP INVALID LOG2 PUSH5 0x6970667358 0x22 SLT KECCAK256 0xDB PUSH8 0xADEB4B66EBB9061B 0xFC BYTE PUSH24 0x91AF444F8B20A46D2EB25912817AADCC51C45164736F6C63 NUMBER STOP ADDMOD GT STOP CALLER LOG2 PUSH5 0x6970667358 0x22 SLT KECCAK256 MOD 0xDD SWAP5 0x25 PUSH31 0x975FBDF0E75DDDFFE2307C77F44A3CE7F6113B3D1870AE29CD1FE364736F6C PUSH4 0x43000811 STOP CALLER ",
  "sha1": "07a0fb1134099ea812150898d20163c3e2a4e7a0",
  "source": "// SPDX-License-Identifier: MIT\npragma solidity ^0.8.17;\n\nimport \"./BBErrorsV01.sol\";\nimport \"./interfaces/IBBProfiles.sol\";\nimport \"./interfaces/IBBTiers.sol\";\nimport \"./interfaces/IBBSubscriptionsFactory.sol\";\nimport \"./interfaces/IBBSubscriptions.sol\";\nimport \"./interfaces/IBBPermissionsV01.sol\";\nimport \"./BBSubscriptions.sol\";\n\ncontract BBSubscriptionsFactory is IBBSubscriptionsFactory {\n    event DeployedSubscription(\n        address currency,\n        address deployedAddress\n    );\n\n    event NewSubscriptionProfile(\n        uint256 profileId,\n        uint256 tierSetId,\n        uint256 contribution\n    );\n\n    event EditContribution(\n        uint256 profileId,\n        uint256 contribution\n    );\n\n    struct SubscriptionProfile {\n        uint256 tierSetId;\n        uint256 contribution;\n    }\n\n    uint256 internal constant _contributionLower = 1;\n    uint256 internal constant _contributionUpper = 100;\n\n    uint256 internal constant _gracePeriod = 2 days;\n\n    // Subscription profile ID => Subscription profile\n    mapping(uint256 => SubscriptionProfile) internal _subscriptionProfiles;\n    \n    // ERC20 token => Deployed subscriptions contract\n    mapping(address => address) internal _deployedSubscriptions;\n\n    // Profile ID => Tier ID => Subscriber => ERC20 token\n    mapping(uint256 => mapping(uint256 => mapping (address => address))) internal _subscriptionCurrencies;\n\n    uint internal _gasPrice = 30 gwei;\n\n    address internal _treasury;\n\n    address internal _treasuryOwner;\n    address internal _gasPriceOwner;\n    address internal _upkeepGasRequirementOwner;\n\n    IBBProfiles internal immutable _bbProfiles;\n    IBBTiers internal immutable _bbTiers;\n\n    constructor(address bbProfiles, address bbTiers, address treasury) {\n        _bbProfiles = IBBProfiles(bbProfiles);\n        _bbTiers = IBBTiers(bbTiers);\n\n        _treasury = treasury;\n\n        _treasuryOwner = msg.sender;\n        _gasPriceOwner = msg.sender;\n        _upkeepGasRequirementOwner = msg.sender;\n    }\n\n    /*\n        @dev Reverts if profile ID does not exist\n    */\n    modifier profileExists(uint256 profileId) {\n        require(profileId < _bbProfiles.totalProfiles(), BBErrorCodesV01.PROFILE_NOT_EXIST);\n        _;\n    }\n\n    /*\n        @dev Reverts if tier set ID does not exist\n    */\n    modifier tierSetExists(uint256 profileId, uint256 tierSetId) {\n        require(profileId < _bbProfiles.totalProfiles(), BBErrorCodesV01.PROFILE_NOT_EXIST);\n        require(tierSetId < _bbTiers.totalTierSets(profileId), BBErrorCodesV01.TIER_SET_NOT_EXIST);\n        _;\n    }\n\n    /*\n        @dev Reverts if msg.sender is not profile IDs owner\n    */\n    modifier onlyProfileOwner(uint256 profileId) {\n        (address profileOwner,,) = _bbProfiles.getProfile(profileId);\n        require(profileOwner == msg.sender, BBErrorCodesV01.NOT_OWNER);\n        _;\n    }\n\n    /*\n        @dev Reverts if msg.sender is not treasuryOwner\n    */\n    modifier onlyTreasuryOwner {\n        require(msg.sender == _treasuryOwner, BBErrorCodesV01.NOT_OWNER);\n        _;\n    }\n\n    /*\n        @dev Reverts if msg.sender is not gasOwner\n    */\n    modifier onlyGasPriceOwner {\n        require(msg.sender == _gasPriceOwner, BBErrorCodesV01.NOT_OWNER);\n        _;\n    }\n\n    /*\n        @dev Reverts if msg.sender is not upkeepGasRequirementOwner\n    */\n    modifier onlyUpkeepGasRequirementOwner {\n        require(msg.sender == _upkeepGasRequirementOwner, BBErrorCodesV01.NOT_OWNER);\n        _;\n    }\n\n    /*\n        @notice Gets the subscriptions contract of a ERC20 token\n\n        @param ERC20 token\n\n        @return The ERC20 token subscriptions contract\n    */\n    function deploySubscriptions(address currency) external override returns(address) {\n        require(_deployedSubscriptions[currency] == address(0), BBErrorCodesV01.ZERO_ADDRESS);\n\n        IBBSubscriptions subscriptions = new BBSubscriptions(address(_bbProfiles), address(_bbTiers), address(this), currency);\n        \n        _deployedSubscriptions[currency] = address(subscriptions);\n\n        emit DeployedSubscription(currency, address(subscriptions));\n        return address(subscriptions);\n    }\n\n    /*\n        @notice Check if a ERC20 token has a deployed subscriptions contract\n\n        @param ERC20 token\n\n        @return True if ERC20 token has a deployed subscriptions contract, otherwise false\n    */\n    function isSubscriptionsDeployed(address currency) external view override returns (bool) {\n        return _deployedSubscriptions[currency] != address(0);\n    }\n\n    /*\n        @notice Get the address of a ERC20 tokens subscriptions contract\n\n        @param ERC20 token\n\n        @return ERC20 tokens subscriptions contract address\n    */\n    function getDeployedSubscriptions(address currency) external view override returns (address) {\n        // Reverts if the ERC20 tokens subscriptions contract is not deployed\n        require(_deployedSubscriptions[currency] != address(0));\n        return _deployedSubscriptions[currency];\n    }\n\n    /*\n        @notice Sets the treasury owner\n\n        @param Treasury owner address\n    */\n    function setTreasuryOwner(address account) external override onlyTreasuryOwner {\n        _treasuryOwner = account;\n    }\n\n    /*\n        @notice Set the gas price owner\n\n        @param Gas price owner address\n    */\n    function setGasPriceOwner(address account) external override onlyGasPriceOwner {\n        _gasPriceOwner = account;\n    }\n\n    /*\n        @notice Sets the upkeep gas requirement owner\n\n        @param Upkeep gas requirement owner\n    */\n    function setUpkeepGasRequirementOwner(address account) external override onlyUpkeepGasRequirementOwner {\n        _upkeepGasRequirementOwner = account;\n    }\n\n    /*\n        @notice Get the treasury\n\n        @return Treasury address\n    */\n    function getTreasuryOwner() external view returns (address) {\n        return _treasuryOwner;\n    }\n\n    /*\n        @notice Get the gas owner\n\n        @return Gas price owner address\n    */\n    function getGasPriceOwner() external view returns (address) {\n        return _gasPriceOwner;\n    }\n    \n    /*\n        @notice Get the upkeep gas requirement owner\n\n        @return Upkeep gas requirement owner address\n    */\n    function getUpkeepGasRequirementOwner() external view returns (address) {\n        return _upkeepGasRequirementOwner;\n    }\n\n    /*\n        @notice Set the treasury address\n\n        @param Treasury address\n    */\n    function setTreasury(address account) external override onlyTreasuryOwner {\n        _treasury = account;\n    }\n\n    /*\n        @notice Set the gas price\n\n        @param Currency to set the gas requirement for\n        @param Subscription gas requirement\n    */\n    function setGasPrice(uint256 gasPrice) external override onlyGasPriceOwner {\n        // Limit gas price to avoid exploit\n        require(gasPrice <= 1000 gwei, BBErrorCodesV01.OUT_OF_BOUNDS);\n        _gasPrice = gasPrice;\n    }\n\n    /*\n        @notice Set the subscription gas requirement\n\n        @param Currency to set the gas requirement for\n        @param Subscription gas requirement\n    */\n    function setUpkeepGasRequirement(address currency, uint256 amount) external override onlyUpkeepGasRequirementOwner {\n        // Limit gas requirement to avoid exploit\n        require(amount <= 2500000, BBErrorCodesV01.OUT_OF_BOUNDS);\n        require(_deployedSubscriptions[currency] != address(0), BBErrorCodesV01.UNSUPPORTED_CURRENCY);\n        IBBSubscriptions(_deployedSubscriptions[currency]).setUpkeepGasRequirement(amount);\n    }\n\n    /*\n        @notice Get the treasury\n\n        @return Treasury address\n    */\n    function getTreasury() external view override returns (address treasury) {\n        return _treasury;\n    }\n\n    /*\n        @notice Get the gas price\n\n        @return Gas price in wei\n    */\n    function getGasPrice() external view override returns (uint256 gasPrice) {\n        return _gasPrice;\n    }\n\n    /*\n        @notice Get the subscription expiration grace period\n\n        @return Grace period in seconds\n    */\n    function getGracePeriod() external pure override returns (uint256) {\n        return _gracePeriod;\n    }\n    \n    /*\n        @notice Get the treasury contribution bounds\n\n        @return Lower bound\n        @return Upper bound\n    */\n    function getContributionBounds() external pure override returns (uint256, uint256) {\n        return (_contributionLower, _contributionUpper);\n    }\n\n    /*\n        @dev Set a subscriptions ERC20 token\n\n        @param Profile ID\n        @param Tier ID\n        @param Subscriber\n        @param ERC20 token\n    */\n    function setSubscriptionCurrency(uint256 profileId, uint256 tierId, address account, address currency) profileExists(profileId) external override {\n        // Msg.sender must be the ERC20 tokens subscriptions contract\n        require(msg.sender == _deployedSubscriptions[currency], BBErrorCodesV01.NOT_OWNER);\n        _subscriptionCurrencies[profileId][tierId][account] = currency;\n    }\n\n    /*\n        @notice Get a subscriptions ERC20 token\n\n        @param Profile ID\n        @param Tier ID\n        @param Subscriber\n\n        @return ERC20 token\n    */\n    function getSubscriptionCurrency(uint256 profileId, uint256 tierId, address account) external view override profileExists(profileId) returns (address) {\n        // Subscription isn't active if subscriptions ERC20 token is the zero address, so revert\n        require(_subscriptionCurrencies[profileId][tierId][account] != address(0));\n        return _subscriptionCurrencies[profileId][tierId][account];\n    }\n\n    /*\n        @notice Create a new subscription profile\n\n        @param Profile ID\n        @param Tier set ID\n        @param Contribution\n    */\n    function createSubscriptionProfile(uint256 profileId, uint256 tierSetId, uint256 contribution) external override tierSetExists(profileId, tierSetId) onlyProfileOwner(profileId) {\n        // Subscription profile already initialized\n        require(_subscriptionProfiles[profileId].tierSetId == 0, BBErrorCodesV01.SUBSCRIPTION_PROFILE_ALREADY_EXISTS);\n\n        _setContribution(profileId, contribution);\n        // Add one to tier set ID so can also be used like a bool, zero means the value is uninitialized, greater than zero is the tier set ID minus one\n        _subscriptionProfiles[profileId].tierSetId = tierSetId + 1;\n\n        emit NewSubscriptionProfile(profileId, tierSetId, contribution);\n    }\n\n    /*\n        @notice Get a subscription profile\n\n        @param Profile ID\n\n        @return Tier set ID\n        @return Treasury contribution\n    */\n    function getSubscriptionProfile(uint256 profileId) external view override profileExists(profileId) returns (uint256, uint256) {\n        // If subscription profile isnt initialized, tier set ID is zero, and so this reverts\n        return (_subscriptionProfiles[profileId].tierSetId - 1, _subscriptionProfiles[profileId].contribution);\n    }\n\n    /*\n        @notice Check a subscription profile is created\n\n        @param Profile ID\n\n        @return True if subscription profile is created, otherwise false\n    */\n    function isSubscriptionProfileCreated(uint256 profileId) external view override profileExists(profileId) returns (bool) {\n        return _subscriptionProfiles[profileId].tierSetId > 0;\n    }\n\n    /*\n        @notice Set a subscription profiles treasury contribution\n\n        @param Profile ID\n        @param Treasury contribution\n    */\n    function setContribution(uint256 profileId, uint256 contribution) external override profileExists(profileId) onlyProfileOwner(profileId){\n        _setContribution(profileId, contribution);\n        emit EditContribution(profileId, contribution);\n    }\n\n    /*\n        @dev Set a subscription profiles treasury contribution\n\n        @param Profile ID\n        @param Treasury contribution\n    */\n    function _setContribution(uint256 profileId, uint256 contribution) internal {\n        require(contribution >= _contributionLower, BBErrorCodesV01.OUT_OF_BOUNDS);\n        require(contribution <= _contributionUpper, BBErrorCodesV01.OUT_OF_BOUNDS);\n\n        _subscriptionProfiles[profileId].contribution = contribution;\n    }\n\n    /*\n        @notice Check if an address has an active subscription at a specific tier\n\n        @param Profile ID\n        @param Tier ID\n        @param Subscriber\n\n        @return True if the subscription is active, otherwise false\n    */\n    function isSubscriptionActive(uint256 profileId, uint256 tierId, address account) external view override profileExists(profileId) returns (bool) {\n        (address profileOwner,,) = _bbProfiles.getProfile(profileId);\n\n        // Profile owner is always subscribed\n        if(profileOwner == account) {\n            return true;\n        }\n\n        // If profile owner is a contract, try checking for BackedBy permissions\n        if(profileOwner.code.length > 0) {\n            try IBBPermissionsV01(profileOwner).canViewSubscription(account) returns (bool success) {\n                if(success)\n                    return success;\n            } catch { }\n        }\n\n        // If the subscription has no ERC20 token set, its not active\n        if(_subscriptionCurrencies[profileId][tierId][account] == address(0)) {\n            return false;\n        }\n\n        // Get subscription values from deployed subscriptions contract\n        IBBSubscriptions subscriptions = IBBSubscriptions(_deployedSubscriptions[_subscriptionCurrencies[profileId][tierId][account]]);\n        (,uint256 expiration,) = subscriptions.getSubscription(profileId, tierId, account);\n\n        // If expiration plus grace period has elapsed, subscription is no longer active\n        return block.timestamp < expiration + _gracePeriod;\n    }\n}",
  "sourcePath": "contracts/BBSubscriptionsFactory.sol",
  "type": "contract"
}