{
  "abi": [
    {
      "inputs": [
        {
          "internalType": "address",
          "name": "bbProfiles",
          "type": "address"
        },
        {
          "internalType": "address",
          "name": "bbTiers",
          "type": "address"
        },
        {
          "internalType": "address",
          "name": "bbSubscriptionsFactory",
          "type": "address"
        },
        {
          "internalType": "address",
          "name": "currency",
          "type": "address"
        }
      ],
      "stateMutability": "nonpayable",
      "type": "constructor"
    },
    {
      "anonymous": false,
      "inputs": [
        {
          "indexed": false,
          "internalType": "uint256",
          "name": "profileId",
          "type": "uint256"
        },
        {
          "indexed": false,
          "internalType": "uint256",
          "name": "tierId",
          "type": "uint256"
        },
        {
          "indexed": false,
          "internalType": "address",
          "name": "subscriber",
          "type": "address"
        }
      ],
      "name": "Subscribed",
      "type": "event"
    },
    {
      "anonymous": false,
      "inputs": [
        {
          "indexed": false,
          "internalType": "uint256",
          "name": "profileId",
          "type": "uint256"
        },
        {
          "indexed": false,
          "internalType": "uint256",
          "name": "tierId",
          "type": "uint256"
        },
        {
          "indexed": false,
          "internalType": "address",
          "name": "subscriber",
          "type": "address"
        }
      ],
      "name": "Unsubscribed",
      "type": "event"
    },
    {
      "inputs": [
        {
          "internalType": "bytes",
          "name": "checkData",
          "type": "bytes"
        }
      ],
      "name": "checkUpkeep",
      "outputs": [
        {
          "internalType": "bool",
          "name": "",
          "type": "bool"
        },
        {
          "internalType": "bytes",
          "name": "",
          "type": "bytes"
        }
      ],
      "stateMutability": "view",
      "type": "function"
    },
    {
      "inputs": [
        {
          "internalType": "uint256",
          "name": "profileId",
          "type": "uint256"
        },
        {
          "internalType": "uint256",
          "name": "tierId",
          "type": "uint256"
        },
        {
          "internalType": "address",
          "name": "subscriber",
          "type": "address"
        }
      ],
      "name": "getSubscription",
      "outputs": [
        {
          "internalType": "uint256",
          "name": "",
          "type": "uint256"
        },
        {
          "internalType": "uint256",
          "name": "",
          "type": "uint256"
        },
        {
          "internalType": "bool",
          "name": "",
          "type": "bool"
        }
      ],
      "stateMutability": "view",
      "type": "function"
    },
    {
      "inputs": [],
      "name": "getSubscriptionGasRequirement",
      "outputs": [
        {
          "internalType": "uint256",
          "name": "",
          "type": "uint256"
        }
      ],
      "stateMutability": "view",
      "type": "function"
    },
    {
      "inputs": [],
      "name": "getUpkeepGasRequirement",
      "outputs": [
        {
          "internalType": "uint256",
          "name": "",
          "type": "uint256"
        }
      ],
      "stateMutability": "view",
      "type": "function"
    },
    {
      "inputs": [
        {
          "internalType": "bytes",
          "name": "renewalData",
          "type": "bytes"
        }
      ],
      "name": "performUpkeep",
      "outputs": [],
      "stateMutability": "nonpayable",
      "type": "function"
    },
    {
      "inputs": [
        {
          "internalType": "uint256",
          "name": "requirement",
          "type": "uint256"
        }
      ],
      "name": "setUpkeepGasRequirement",
      "outputs": [],
      "stateMutability": "nonpayable",
      "type": "function"
    },
    {
      "inputs": [
        {
          "internalType": "uint256",
          "name": "profileId",
          "type": "uint256"
        },
        {
          "internalType": "uint256",
          "name": "tierId",
          "type": "uint256"
        }
      ],
      "name": "subscribe",
      "outputs": [
        {
          "internalType": "uint256",
          "name": "subscriptionId",
          "type": "uint256"
        }
      ],
      "stateMutability": "payable",
      "type": "function"
    },
    {
      "inputs": [
        {
          "internalType": "uint256",
          "name": "profileId",
          "type": "uint256"
        },
        {
          "internalType": "uint256",
          "name": "tierId",
          "type": "uint256"
        }
      ],
      "name": "unsubscribe",
      "outputs": [],
      "stateMutability": "nonpayable",
      "type": "function"
    },
    {
      "inputs": [],
      "name": "withdrawToTreasury",
      "outputs": [],
      "stateMutability": "nonpayable",
      "type": "function"
    }
  ],
  "bytecode": "61010060405262036ee86003553480156200001957600080fd5b506040516200261f3803806200261f8339810160408190526200003c916200007c565b6001600160a01b0393841660805291831660a052821660c0521660e052620000d9565b80516001600160a01b03811681146200007757600080fd5b919050565b600080600080608085870312156200009357600080fd5b6200009e856200005f565b9350620000ae602086016200005f565b9250620000be604086016200005f565b9150620000ce606086016200005f565b905092959194509250565b60805160a05160c05160e0516124806200019f60003960008181610e1201528181610ed60152818161130d015281816113ce015281816117620152818161193f015281816119d401528181611a750152611aed0152600081816101e0015281816103de015281816108ce0152818161096b01528181610abd01528181610e4101528181611019015281816110b60152818161126e01528181611684015261178a01526000818161049e015261133b01526000818161059b01526115ed01526124806000f3fe6080604052600436106100865760003560e01c80634b236e95116100595780634b236e95146101155780636e04ff0d1461012a5780637e80c18614610158578063843708131461016d578063d53d5e421461018057600080fd5b8063018c68221461008b57806309e02c17146100ad5780634585e33b146100cd57806346a8a015146100ed575b600080fd5b34801561009757600080fd5b506100ab6100a6366004611e17565b6101bd565b005b3480156100b957600080fd5b506100ab6100c8366004611e30565b61022d565b3480156100d957600080fd5b506100ab6100e8366004611e52565b61033f565b3480156100f957600080fd5b50610102610ab9565b6040519081526020015b60405180910390f35b34801561012157600080fd5b50600354610102565b34801561013657600080fd5b5061014a610145366004611e52565b610b5a565b60405161010c929190611f14565b34801561016457600080fd5b506100ab610e10565b61010261017b366004611e30565b610fbb565b34801561018c57600080fd5b506101a061019b366004611f44565b611833565b60408051938452602084019290925215159082015260600161010c565b6040805180820190915260018152603160f81b6020820152336001600160a01b037f000000000000000000000000000000000000000000000000000000000000000016146102275760405162461bcd60e51b815260040161021e9190611f7d565b60405180910390fd5b50600355565b600061023a838333611874565b6000818152602081815260409182902060020154825180840190935260018352603360f81b91830191909152919250906001600160a01b031633146102925760405162461bcd60e51b815260040161021e9190611f7d565b50600081815260208181526040918290206005015482518084019093526002835261313160f01b9183019190915260ff16156102e15760405162461bcd60e51b815260040161021e9190611f7d565b5060008181526020819052604090819020600501805460ff19166001179055517fbdcd5f8b5e00da56711125e00a6f462fe30c2c17edb4cecec2e7bbeac057377d9061033290859085903390611f97565b60405180910390a1505050565b60008061034e8385018561200d565b9150915060005a90506000805b8451811015610890574260008087848151811061037a5761037a6120c5565b60200260200101518152602001908152602001600020600401541080156103d457506000808683815181106103b1576103b16120c5565b60209081029190910181015182528101919091526040016000206005015460ff16155b1561087e576000807f00000000000000000000000000000000000000000000000000000000000000006001600160a01b031663ed74a2026000808a8781518110610420576104206120c5565b60200260200101518152602001908152602001600020600001546040518263ffffffff1660e01b815260040161045891815260200190565b6040805180830381865afa158015610474573d6000803e3d6000fd5b505050506040513d601f19601f8201168201806040525081019061049891906120db565b915091507f00000000000000000000000000000000000000000000000000000000000000006001600160a01b031663819ca2226000808a87815181106104e0576104e06120c5565b6020026020010151815260200190815260200160002060000154846040518363ffffffff1660e01b8152600401610521929190918252602082015260400190565b602060405180830381865afa15801561053e573d6000803e3d6000fd5b505050506040513d601f19601f8201168201806040525081019061056291906120ff565b600080898681518110610577576105776120c5565b6020026020010151815260200190815260200160002060010154101561074f5760007f00000000000000000000000000000000000000000000000000000000000000006001600160a01b031663f08f4f646000808b88815181106105dd576105dd6120c5565b60200260200101518152602001908152602001600020600001546040518263ffffffff1660e01b815260040161061591815260200190565b600060405180830381865afa158015610632573d6000803e3d6000fd5b505050506040513d6000823e601f3d908101601f1916820160405261065a9190810190612118565b5091505060006106db6000808b8881518110610678576106786120c5565b6020026020010151815260200190815260200160002060020160009054906101000a90046001600160a01b0316836000808d8a815181106106bb576106bb6120c5565b602002602001015181526020019081526020016000206003015486611915565b9050801561074c576106ec42611bb7565b6106f990620151806121eb565b6107039042612202565b6000808b8881518110610718576107186120c5565b6020026020010151815260200190815260200160002060040181905550858061074090612215565b9650505050505061087e565b50505b6001600080898681518110610766576107666120c5565b6020026020010151815260200190815260200160002060050160006101000a81548160ff0219169083151502179055507fbdcd5f8b5e00da56711125e00a6f462fe30c2c17edb4cecec2e7bbeac057377d6000808986815181106107cc576107cc6120c5565b60200260200101518152602001908152602001600020600001546000808a87815181106107fb576107fb6120c5565b60200260200101518152602001908152602001600020600101546000808b888151811061082a5761082a6120c5565b6020026020010151815260200190815260200160002060020160009054906101000a90046001600160a01b031660405161086693929190611f97565b60405180910390a18361087881612215565b94505050505b8061088881612215565b91505061035b565b50604080518082019091526002815261189960f11b6020820152816108c85760405162461bcd60e51b815260040161021e9190611f7d565b506000817f00000000000000000000000000000000000000000000000000000000000000006001600160a01b031663455259cb6040518163ffffffff1660e01b8152600401602060405180830381865afa15801561092a573d6000803e3d6000fd5b505050506040513d601f19601f8201168201806040525081019061094e91906120ff565b60035461095b91906121eb565b61096591906121eb565b905060007f00000000000000000000000000000000000000000000000000000000000000006001600160a01b031663455259cb6040518163ffffffff1660e01b8152600401602060405180830381865afa1580156109c7573d6000803e3d6000fd5b505050506040513d601f19601f820116820180604052508101906109eb91906120ff565b6109f7846101a76121eb565b610a039061dcde612202565b5a610a0e908761222e565b610a189190612202565b610a2291906121eb565b9050828651610a31919061222e565b8651610a3d9083612257565b610a4791906121eb565b610a51908261222e565b905081811115610a5e5750805b6040516001600160a01b038616908290600081818185875af1925050503d8060008114610aa7576040519150601f19603f3d011682016040523d82523d6000602084013e610aac565b606091505b5050505050505050505050565b60007f00000000000000000000000000000000000000000000000000000000000000006001600160a01b031663455259cb6040518163ffffffff1660e01b8152600401602060405180830381865afa158015610b19573d6000803e3d6000fd5b505050506040513d601f19601f82011682018060405250810190610b3d91906120ff565b600354610b4a91906121eb565b610b5590603c6121eb565b905090565b600060608180808080610b6f888a018a61226b565b945094509450945094506001548410610b935760018054610b90919061222e565b93505b6040805180820190915260018152601960f91b602082015284861115610bcc5760405162461bcd60e51b815260040161021e9190611f7d565b50600080610bda878761222e565b610be5906001612202565b905060008467ffffffffffffffff811115610c0257610c02611fb6565b604051908082528060200260200182016040528015610c2b578160200160208202803683370190505b50905060005b82811015610cca576000610c45828b612202565b60008181526020819052604090206004015490915042118015610c7a575060008181526020819052604090206005015460ff16155b15610cb75780838681518110610c9257610c926120c5565b602090810291909101015284610ca781612215565b955050868510610cb75750610cca565b5080610cc281612215565b915050610c31565b50821580610cd757508583105b15610cff57600060405180602001604052806000815250995099505050505050505050610e09565b848303610d3b5760018185604051602001610d1b9291906122b8565b604051602081830303815290604052995099505050505050505050610e09565b60008367ffffffffffffffff811115610d5657610d56611fb6565b604051908082528060200260200182016040528015610d7f578160200160208202803683370190505b50905060005b84811015610dd657828181518110610d9f57610d9f6120c5565b6020026020010151828281518110610db957610db96120c5565b602090810291909101015280610dce81612215565b915050610d85565b5060018186604051602001610dec9291906122b8565b6040516020818303038152906040529a509a505050505050505050505b9250929050565b7f00000000000000000000000000000000000000000000000000000000000000006001600160a01b031663a9059cbb7f00000000000000000000000000000000000000000000000000000000000000006001600160a01b0316633b19e84a6040518163ffffffff1660e01b8152600401602060405180830381865afa158015610e9d573d6000803e3d6000fd5b505050506040513d601f19601f82011682018060405250810190610ec1919061230c565b6040516370a0823160e01b81523060048201527f00000000000000000000000000000000000000000000000000000000000000006001600160a01b0316906370a0823190602401602060405180830381865afa158015610f25573d6000803e3d6000fd5b505050506040513d601f19601f82011682018060405250810190610f4991906120ff565b6040516001600160e01b031960e085901b1681526001600160a01b03909216600483015260248201526044016020604051808303816000875af1158015610f94573d6000803e3d6000fd5b505050506040513d601f19601f82011682018060405250810190610fb89190612339565b50565b6000610fc5610ab9565b34101560405180604001604052806002815260200161313360f01b815250906110015760405162461bcd60e51b815260040161021e9190611f7d565b506040516328f513d760e11b81526001600160a01b037f000000000000000000000000000000000000000000000000000000000000000016906351ea27ae9061105290869086903390600401611f97565b602060405180830381865afa15801561106f573d6000803e3d6000fd5b505050506040513d601f19601f820116820180604052508101906110939190612339565b151560010361125557604051630628072b60e11b81526000906001600160a01b037f0000000000000000000000000000000000000000000000000000000000000000169063cc0de218908290630c500e56906110f790899089903390600401611f97565b602060405180830381865afa158015611114573d6000803e3d6000fd5b505050506040513d601f19601f82011682018060405250810190611138919061230c565b6040516001600160e01b031960e084901b1681526001600160a01b039091166004820152602401602060405180830381865afa15801561117c573d6000803e3d6000fd5b505050506040513d601f19601f820116820180604052508101906111a0919061230c565b6001600160a01b031663d53d5e428585336040518463ffffffff1660e01b81526004016111cf93929190611f97565b606060405180830381865afa1580156111ec573d6000803e3d6000fd5b505050506040513d601f19601f820116820180604052508101906112109190612354565b604080518082019091526002815261189b60f11b60208201529093509150506001821515146112525760405162461bcd60e51b815260040161021e9190611f7d565b50505b6040516376ba510160e11b8152600481018490526000907f00000000000000000000000000000000000000000000000000000000000000006001600160a01b03169063ed74a202906024016040805180830381865afa1580156112bc573d6000803e3d6000fd5b505050506040513d601f19601f820116820180604052508101906112e091906120db565b506040516347b5c68160e11b81526004810186905260248101829052604481018590526001600160a01b037f0000000000000000000000000000000000000000000000000000000000000000811660648301529192506000917f00000000000000000000000000000000000000000000000000000000000000001690638f6b8d0290608401602060405180830381865afa158015611382573d6000803e3d6000fd5b505050506040513d601f19601f820116820180604052508101906113a691906120ff565b90506113b381603c6121eb565b604051636eb1769f60e11b81523360048201523060248201527f00000000000000000000000000000000000000000000000000000000000000006001600160a01b03169063dd62ed3e90604401602060405180830381865afa15801561141d573d6000803e3d6000fd5b505050506040513d601f19601f8201168201806040525081019061144191906120ff565b1015604051806040016040528060028152602001610c4d60f21b8152509061147c5760405162461bcd60e51b815260040161021e9190611f7d565b5060015460008681526002602090815260408083208884528252808320338452909152812054919450036114f457600180546114b791612202565b6000868152600260209081526040808320888452825280832033845290915281209190915560018054916114ea83612215565b9190505550611525565b600085815260026020908152604080832087845282528083203384529091529020546115229060019061222e565b92505b6040518060c00160405280868152602001858152602001336001600160a01b031681526020018281526020014262278d006115609190612202565b815260006020918201819052858152808252604080822084518155928401516001840155838101516002840180546001600160a01b0319166001600160a01b0392831617905560608501516003850155608085015160048086019190915560a0909501516005909401805460ff19169415159490941790935551633c23d3d960e21b8152928301889052917f00000000000000000000000000000000000000000000000000000000000000009091169063f08f4f6490602401600060405180830381865afa158015611636573d6000803e3d6000fd5b505050506040513d6000823e601f3d908101601f1916820160405261165e9190810190612118565b506040516376ba510160e11b815260048101899052909250600091506001600160a01b037f0000000000000000000000000000000000000000000000000000000000000000169063ed74a202906024016040805180830381865afa1580156116ca573d6000803e3d6000fd5b505050506040513d601f19601f820116820180604052508101906116ee91906120db565b9150506116fd33838584611915565b60405180604001604052806002815260200161313560f01b815250906117365760405162461bcd60e51b815260040161021e9190611f7d565b50604051635e70748360e01b815260048101889052602481018790523360448201526001600160a01b037f0000000000000000000000000000000000000000000000000000000000000000811660648301527f00000000000000000000000000000000000000000000000000000000000000001690635e70748390608401600060405180830381600087803b1580156117ce57600080fd5b505af11580156117e2573d6000803e3d6000fd5b505050506117ee610e10565b7f719d57359948c2c6f2a923516c19aba22b490e924879b674c1d6371bb6541f1787873360405161182193929190611f97565b60405180910390a15050505092915050565b600080600080611844878787611874565b600090815260208190526040902060038101546004820154600590920154909991985060ff169650945050505050565b600083815260026020908152604080832085845282528083206001600160a01b0385168452825280832054815180830190925260018252600760fb1b92820192909252906118d55760405162461bcd60e51b815260040161021e9190611f7d565b50600084815260026020908152604080832086845282528083206001600160a01b038616845290915290205461190d9060019061222e565b949350505050565b604051636eb1769f60e11b81526001600160a01b03858116600483015230602483015260009184917f0000000000000000000000000000000000000000000000000000000000000000169063dd62ed3e90604401602060405180830381865afa158015611986573d6000803e3d6000fd5b505050506040513d601f19601f820116820180604052508101906119aa91906120ff565b10158015611a4457506040516370a0823160e01b81526001600160a01b03868116600483015284917f0000000000000000000000000000000000000000000000000000000000000000909116906370a0823190602401602060405180830381865afa158015611a1d573d6000803e3d6000fd5b505050506040513d601f19601f82011682018060405250810190611a4191906120ff565b10155b15611bac576040516323b872dd60e01b81526001600160a01b038681166004830152306024830152604482018590527f000000000000000000000000000000000000000000000000000000000000000016906323b872dd906064016020604051808303816000875af1158015611abe573d6000803e3d6000fd5b505050506040513d601f19601f82011682018060405250810190611ae29190612339565b506001600160a01b037f00000000000000000000000000000000000000000000000000000000000000001663a9059cbb856064611b1f868261222e565b611b2990886121eb565b611b339190612257565b6040516001600160e01b031960e085901b1681526001600160a01b03909216600483015260248201526044016020604051808303816000875af1158015611b7e573d6000803e3d6000fd5b505050506040513d601f19601f82011682018060405250810190611ba29190612339565b506001905061190d565b506000949350505050565b60008080611bd0611bcb6201518086612257565b611bdf565b509150915061190d8282611d53565b60008080838162253d8c611bf68362010bd9612389565b611c009190612389565b9050600062023ab1611c138360046123b1565b611c1d91906123e1565b90506004611c2e8262023ab16123b1565b611c39906003612389565b611c4391906123e1565b611c4d908361240f565b9150600062164b09611c60846001612389565b611c6c90610fa06123b1565b611c7691906123e1565b90506004611c86826105b56123b1565b611c9091906123e1565b611c9a908461240f565b611ca590601f612389565b9250600061098f611cb78560506123b1565b611cc191906123e1565b905060006050611cd38361098f6123b1565b611cdd91906123e1565b611ce7908661240f565b9050611cf4600b836123e1565b9450611d0185600c6123b1565b611d0c836002612389565b611d16919061240f565b91508483611d2560318761240f565b611d309060646123b1565b611d3a9190612389565b611d449190612389565b9a919950975095505050505050565b60008160011480611d645750816003145b80611d6f5750816005145b80611d7a5750816007145b80611d855750816008145b80611d90575081600a145b80611d9b575081600c145b15611da85750601f611dd5565b81600214611db85750601e611dd5565b611dc183611ddb565b611dcc57601c611dcf565b601d5b60ff1690505b92915050565b6000611de8600483612436565b158015611dfe5750611dfb606483612436565b15155b80611dd55750611e1061019083612436565b1592915050565b600060208284031215611e2957600080fd5b5035919050565b60008060408385031215611e4357600080fd5b50508035926020909101359150565b60008060208385031215611e6557600080fd5b823567ffffffffffffffff80821115611e7d57600080fd5b818501915085601f830112611e9157600080fd5b813581811115611ea057600080fd5b866020828501011115611eb257600080fd5b60209290920196919550909350505050565b60005b83811015611edf578181015183820152602001611ec7565b50506000910152565b60008151808452611f00816020860160208601611ec4565b601f01601f19169290920160200192915050565b821515815260406020820152600061190d6040830184611ee8565b6001600160a01b0381168114610fb857600080fd5b600080600060608486031215611f5957600080fd5b83359250602084013591506040840135611f7281611f2f565b809150509250925092565b602081526000611f906020830184611ee8565b9392505050565b92835260208301919091526001600160a01b0316604082015260600190565b634e487b7160e01b600052604160045260246000fd5b604051601f8201601f1916810167ffffffffffffffff81118282101715611ff557611ff5611fb6565b604052919050565b803561200881611f2f565b919050565b6000806040838503121561202057600080fd5b823567ffffffffffffffff8082111561203857600080fd5b818501915085601f83011261204c57600080fd5b813560208282111561206057612060611fb6565b8160051b9250612071818401611fcc565b828152928401810192818101908985111561208b57600080fd5b948201945b848610156120a957853582529482019490820190612090565b96506120b89050878201611ffd565b9450505050509250929050565b634e487b7160e01b600052603260045260246000fd5b600080604083850312156120ee57600080fd5b505080516020909101519092909150565b60006020828403121561211157600080fd5b5051919050565b60008060006060848603121561212d57600080fd5b835161213881611f2f565b602085015190935061214981611f2f565b604085015190925067ffffffffffffffff8082111561216757600080fd5b818601915086601f83011261217b57600080fd5b81518181111561218d5761218d611fb6565b6121a0601f8201601f1916602001611fcc565b91508082528760208285010111156121b757600080fd5b6121c8816020840160208601611ec4565b5080925050509250925092565b634e487b7160e01b600052601160045260246000fd5b8082028115828204841417611dd557611dd56121d5565b80820180821115611dd557611dd56121d5565b600060018201612227576122276121d5565b5060010190565b81810381811115611dd557611dd56121d5565b634e487b7160e01b600052601260045260246000fd5b60008261226657612266612241565b500490565b600080600080600060a0868803121561228357600080fd5b8535945060208601359350604086013592506060860135915060808601356122aa81611f2f565b809150509295509295909350565b604080825283519082018190526000906020906060840190828701845b828110156122f1578151845292840192908401906001016122d5565b5050506001600160a01b039490941692019190915250919050565b60006020828403121561231e57600080fd5b8151611f9081611f2f565b8051801515811461200857600080fd5b60006020828403121561234b57600080fd5b611f9082612329565b60008060006060848603121561236957600080fd5b835192506020840151915061238060408501612329565b90509250925092565b80820182811260008312801582168215821617156123a9576123a96121d5565b505092915050565b80820260008212600160ff1b841416156123cd576123cd6121d5565b8181058314821517611dd557611dd56121d5565b6000826123f0576123f0612241565b600160ff1b82146000198414161561240a5761240a6121d5565b500590565b818103600083128015838313168383128216171561242f5761242f6121d5565b5092915050565b60008261244557612445612241565b50069056fea2646970667358221220db67adeb4b66ebb9061bfc1a7791af444f8b20a46d2eb25912817aadcc51c45164736f6c63430008110033",
  "bytecodeSha1": "730b858a3b632310ddba96fc1378deb58c809f7e",
  "compiler": {
    "evm_version": "istanbul",
    "optimizer": {
      "enabled": true,
      "runs": 200
    },
    "version": "0.8.17+commit.8df45f5f"
  },
  "contractName": "BBSubscriptions",
  "language": "Solidity",
  "natspec": {
    "kind": "dev",
    "methods": {
      "checkUpkeep(bytes)": {
        "details": "To ensure that it is never called, you may want to add the cannotExecute modifier from KeeperBase to your implementation of this method.",
        "notice": "method that is simulated by the keepers to see if any work actually needs to be performed. This method does does not actually need to be executable, and since it is only ever simulated it can consume lots of gas.",
        "params": {
          "checkData": "specified in the upkeep registration so it is always the same for a registered upkeep. This can easily be broken down into specific arguments using `abi.decode`, so multiple upkeeps can be registered on the same contract and easily differentiated by the contract."
        },
        "returns": {
          "_0": "boolean to indicate whether the keeper should call performUpkeep or not.",
          "_1": "bytes that the keeper should call performUpkeep with, if upkeep is needed. If you would like to encode data to decode later, try `abi.encode`."
        }
      }
    },
    "version": 1
  },
  "opcodes": "PUSH1 0x80 PUSH1 0x40 MSTORE PUSH1 0x4 CALLDATASIZE LT PUSH2 0x86 JUMPI PUSH1 0x0 CALLDATALOAD PUSH1 0xE0 SHR DUP1 PUSH4 0x4B236E95 GT PUSH2 0x59 JUMPI DUP1 PUSH4 0x4B236E95 EQ PUSH2 0x115 JUMPI DUP1 PUSH4 0x6E04FF0D EQ PUSH2 0x12A JUMPI DUP1 PUSH4 0x7E80C186 EQ PUSH2 0x158 JUMPI DUP1 PUSH4 0x84370813 EQ PUSH2 0x16D JUMPI DUP1 PUSH4 0xD53D5E42 EQ PUSH2 0x180 JUMPI PUSH1 0x0 DUP1 REVERT JUMPDEST DUP1 PUSH4 0x18C6822 EQ PUSH2 0x8B JUMPI DUP1 PUSH4 0x9E02C17 EQ PUSH2 0xAD JUMPI DUP1 PUSH4 0x4585E33B EQ PUSH2 0xCD JUMPI DUP1 PUSH4 0x46A8A015 EQ PUSH2 0xED JUMPI JUMPDEST PUSH1 0x0 DUP1 REVERT JUMPDEST CALLVALUE DUP1 ISZERO PUSH2 0x97 JUMPI PUSH1 0x0 DUP1 REVERT JUMPDEST POP PUSH2 0xAB PUSH2 0xA6 CALLDATASIZE PUSH1 0x4 PUSH2 0x1E17 JUMP JUMPDEST PUSH2 0x1BD JUMP JUMPDEST STOP JUMPDEST CALLVALUE DUP1 ISZERO PUSH2 0xB9 JUMPI PUSH1 0x0 DUP1 REVERT JUMPDEST POP PUSH2 0xAB PUSH2 0xC8 CALLDATASIZE PUSH1 0x4 PUSH2 0x1E30 JUMP JUMPDEST PUSH2 0x22D JUMP JUMPDEST CALLVALUE DUP1 ISZERO PUSH2 0xD9 JUMPI PUSH1 0x0 DUP1 REVERT JUMPDEST POP PUSH2 0xAB PUSH2 0xE8 CALLDATASIZE PUSH1 0x4 PUSH2 0x1E52 JUMP JUMPDEST PUSH2 0x33F JUMP JUMPDEST CALLVALUE DUP1 ISZERO PUSH2 0xF9 JUMPI PUSH1 0x0 DUP1 REVERT JUMPDEST POP PUSH2 0x102 PUSH2 0xAB9 JUMP JUMPDEST PUSH1 0x40 MLOAD SWAP1 DUP2 MSTORE PUSH1 0x20 ADD JUMPDEST PUSH1 0x40 MLOAD DUP1 SWAP2 SUB SWAP1 RETURN JUMPDEST CALLVALUE DUP1 ISZERO PUSH2 0x121 JUMPI PUSH1 0x0 DUP1 REVERT JUMPDEST POP PUSH1 0x3 SLOAD PUSH2 0x102 JUMP JUMPDEST CALLVALUE DUP1 ISZERO PUSH2 0x136 JUMPI PUSH1 0x0 DUP1 REVERT JUMPDEST POP PUSH2 0x14A PUSH2 0x145 CALLDATASIZE PUSH1 0x4 PUSH2 0x1E52 JUMP JUMPDEST PUSH2 0xB5A JUMP JUMPDEST PUSH1 0x40 MLOAD PUSH2 0x10C SWAP3 SWAP2 SWAP1 PUSH2 0x1F14 JUMP JUMPDEST CALLVALUE DUP1 ISZERO PUSH2 0x164 JUMPI PUSH1 0x0 DUP1 REVERT JUMPDEST POP PUSH2 0xAB PUSH2 0xE10 JUMP JUMPDEST PUSH2 0x102 PUSH2 0x17B CALLDATASIZE PUSH1 0x4 PUSH2 0x1E30 JUMP JUMPDEST PUSH2 0xFBB JUMP JUMPDEST CALLVALUE DUP1 ISZERO PUSH2 0x18C JUMPI PUSH1 0x0 DUP1 REVERT JUMPDEST POP PUSH2 0x1A0 PUSH2 0x19B CALLDATASIZE PUSH1 0x4 PUSH2 0x1F44 JUMP JUMPDEST PUSH2 0x1833 JUMP JUMPDEST PUSH1 0x40 DUP1 MLOAD SWAP4 DUP5 MSTORE PUSH1 0x20 DUP5 ADD SWAP3 SWAP1 SWAP3 MSTORE ISZERO ISZERO SWAP1 DUP3 ADD MSTORE PUSH1 0x60 ADD PUSH2 0x10C JUMP JUMPDEST PUSH1 0x40 DUP1 MLOAD DUP1 DUP3 ADD SWAP1 SWAP2 MSTORE PUSH1 0x1 DUP2 MSTORE PUSH1 0x31 PUSH1 0xF8 SHL PUSH1 0x20 DUP3 ADD MSTORE CALLER PUSH1 0x1 PUSH1 0x1 PUSH1 0xA0 SHL SUB PUSH32 0x0 AND EQ PUSH2 0x227 JUMPI PUSH1 0x40 MLOAD PUSH3 0x461BCD PUSH1 0xE5 SHL DUP2 MSTORE PUSH1 0x4 ADD PUSH2 0x21E SWAP2 SWAP1 PUSH2 0x1F7D JUMP JUMPDEST PUSH1 0x40 MLOAD DUP1 SWAP2 SUB SWAP1 REVERT JUMPDEST POP PUSH1 0x3 SSTORE JUMP JUMPDEST PUSH1 0x0 PUSH2 0x23A DUP4 DUP4 CALLER PUSH2 0x1874 JUMP JUMPDEST PUSH1 0x0 DUP2 DUP2 MSTORE PUSH1 0x20 DUP2 DUP2 MSTORE PUSH1 0x40 SWAP2 DUP3 SWAP1 KECCAK256 PUSH1 0x2 ADD SLOAD DUP3 MLOAD DUP1 DUP5 ADD SWAP1 SWAP4 MSTORE PUSH1 0x1 DUP4 MSTORE PUSH1 0x33 PUSH1 0xF8 SHL SWAP2 DUP4 ADD SWAP2 SWAP1 SWAP2 MSTORE SWAP2 SWAP3 POP SWAP1 PUSH1 0x1 PUSH1 0x1 PUSH1 0xA0 SHL SUB AND CALLER EQ PUSH2 0x292 JUMPI PUSH1 0x40 MLOAD PUSH3 0x461BCD PUSH1 0xE5 SHL DUP2 MSTORE PUSH1 0x4 ADD PUSH2 0x21E SWAP2 SWAP1 PUSH2 0x1F7D JUMP JUMPDEST POP PUSH1 0x0 DUP2 DUP2 MSTORE PUSH1 0x20 DUP2 DUP2 MSTORE PUSH1 0x40 SWAP2 DUP3 SWAP1 KECCAK256 PUSH1 0x5 ADD SLOAD DUP3 MLOAD DUP1 DUP5 ADD SWAP1 SWAP4 MSTORE PUSH1 0x2 DUP4 MSTORE PUSH2 0x3131 PUSH1 0xF0 SHL SWAP2 DUP4 ADD SWAP2 SWAP1 SWAP2 MSTORE PUSH1 0xFF AND ISZERO PUSH2 0x2E1 JUMPI PUSH1 0x40 MLOAD PUSH3 0x461BCD PUSH1 0xE5 SHL DUP2 MSTORE PUSH1 0x4 ADD PUSH2 0x21E SWAP2 SWAP1 PUSH2 0x1F7D JUMP JUMPDEST POP PUSH1 0x0 DUP2 DUP2 MSTORE PUSH1 0x20 DUP2 SWAP1 MSTORE PUSH1 0x40 SWAP1 DUP2 SWAP1 KECCAK256 PUSH1 0x5 ADD DUP1 SLOAD PUSH1 0xFF NOT AND PUSH1 0x1 OR SWAP1 SSTORE MLOAD PUSH32 0xBDCD5F8B5E00DA56711125E00A6F462FE30C2C17EDB4CECEC2E7BBEAC057377D SWAP1 PUSH2 0x332 SWAP1 DUP6 SWAP1 DUP6 SWAP1 CALLER SWAP1 PUSH2 0x1F97 JUMP JUMPDEST PUSH1 0x40 MLOAD DUP1 SWAP2 SUB SWAP1 LOG1 POP POP POP JUMP JUMPDEST PUSH1 0x0 DUP1 PUSH2 0x34E DUP4 DUP6 ADD DUP6 PUSH2 0x200D JUMP JUMPDEST SWAP2 POP SWAP2 POP PUSH1 0x0 GAS SWAP1 POP PUSH1 0x0 DUP1 JUMPDEST DUP5 MLOAD DUP2 LT ISZERO PUSH2 0x890 JUMPI TIMESTAMP PUSH1 0x0 DUP1 DUP8 DUP5 DUP2 MLOAD DUP2 LT PUSH2 0x37A JUMPI PUSH2 0x37A PUSH2 0x20C5 JUMP JUMPDEST PUSH1 0x20 MUL PUSH1 0x20 ADD ADD MLOAD DUP2 MSTORE PUSH1 0x20 ADD SWAP1 DUP2 MSTORE PUSH1 0x20 ADD PUSH1 0x0 KECCAK256 PUSH1 0x4 ADD SLOAD LT DUP1 ISZERO PUSH2 0x3D4 JUMPI POP PUSH1 0x0 DUP1 DUP7 DUP4 DUP2 MLOAD DUP2 LT PUSH2 0x3B1 JUMPI PUSH2 0x3B1 PUSH2 0x20C5 JUMP JUMPDEST PUSH1 0x20 SWAP1 DUP2 MUL SWAP2 SWAP1 SWAP2 ADD DUP2 ADD MLOAD DUP3 MSTORE DUP2 ADD SWAP2 SWAP1 SWAP2 MSTORE PUSH1 0x40 ADD PUSH1 0x0 KECCAK256 PUSH1 0x5 ADD SLOAD PUSH1 0xFF AND ISZERO JUMPDEST ISZERO PUSH2 0x87E JUMPI PUSH1 0x0 DUP1 PUSH32 0x0 PUSH1 0x1 PUSH1 0x1 PUSH1 0xA0 SHL SUB AND PUSH4 0xED74A202 PUSH1 0x0 DUP1 DUP11 DUP8 DUP2 MLOAD DUP2 LT PUSH2 0x420 JUMPI PUSH2 0x420 PUSH2 0x20C5 JUMP JUMPDEST PUSH1 0x20 MUL PUSH1 0x20 ADD ADD MLOAD DUP2 MSTORE PUSH1 0x20 ADD SWAP1 DUP2 MSTORE PUSH1 0x20 ADD PUSH1 0x0 KECCAK256 PUSH1 0x0 ADD SLOAD PUSH1 0x40 MLOAD DUP3 PUSH4 0xFFFFFFFF AND PUSH1 0xE0 SHL DUP2 MSTORE PUSH1 0x4 ADD PUSH2 0x458 SWAP2 DUP2 MSTORE PUSH1 0x20 ADD SWAP1 JUMP JUMPDEST PUSH1 0x40 DUP1 MLOAD DUP1 DUP4 SUB DUP2 DUP7 GAS STATICCALL ISZERO DUP1 ISZERO PUSH2 0x474 JUMPI RETURNDATASIZE PUSH1 0x0 DUP1 RETURNDATACOPY RETURNDATASIZE PUSH1 0x0 REVERT JUMPDEST POP POP POP POP PUSH1 0x40 MLOAD RETURNDATASIZE PUSH1 0x1F NOT PUSH1 0x1F DUP3 ADD AND DUP3 ADD DUP1 PUSH1 0x40 MSTORE POP DUP2 ADD SWAP1 PUSH2 0x498 SWAP2 SWAP1 PUSH2 0x20DB JUMP JUMPDEST SWAP2 POP SWAP2 POP PUSH32 0x0 PUSH1 0x1 PUSH1 0x1 PUSH1 0xA0 SHL SUB AND PUSH4 0x819CA222 PUSH1 0x0 DUP1 DUP11 DUP8 DUP2 MLOAD DUP2 LT PUSH2 0x4E0 JUMPI PUSH2 0x4E0 PUSH2 0x20C5 JUMP JUMPDEST PUSH1 0x20 MUL PUSH1 0x20 ADD ADD MLOAD DUP2 MSTORE PUSH1 0x20 ADD SWAP1 DUP2 MSTORE PUSH1 0x20 ADD PUSH1 0x0 KECCAK256 PUSH1 0x0 ADD SLOAD DUP5 PUSH1 0x40 MLOAD DUP4 PUSH4 0xFFFFFFFF AND PUSH1 0xE0 SHL DUP2 MSTORE PUSH1 0x4 ADD PUSH2 0x521 SWAP3 SWAP2 SWAP1 SWAP2 DUP3 MSTORE PUSH1 0x20 DUP3 ADD MSTORE PUSH1 0x40 ADD SWAP1 JUMP JUMPDEST PUSH1 0x20 PUSH1 0x40 MLOAD DUP1 DUP4 SUB DUP2 DUP7 GAS STATICCALL ISZERO DUP1 ISZERO PUSH2 0x53E JUMPI RETURNDATASIZE PUSH1 0x0 DUP1 RETURNDATACOPY RETURNDATASIZE PUSH1 0x0 REVERT JUMPDEST POP POP POP POP PUSH1 0x40 MLOAD RETURNDATASIZE PUSH1 0x1F NOT PUSH1 0x1F DUP3 ADD AND DUP3 ADD DUP1 PUSH1 0x40 MSTORE POP DUP2 ADD SWAP1 PUSH2 0x562 SWAP2 SWAP1 PUSH2 0x20FF JUMP JUMPDEST PUSH1 0x0 DUP1 DUP10 DUP7 DUP2 MLOAD DUP2 LT PUSH2 0x577 JUMPI PUSH2 0x577 PUSH2 0x20C5 JUMP JUMPDEST PUSH1 0x20 MUL PUSH1 0x20 ADD ADD MLOAD DUP2 MSTORE PUSH1 0x20 ADD SWAP1 DUP2 MSTORE PUSH1 0x20 ADD PUSH1 0x0 KECCAK256 PUSH1 0x1 ADD SLOAD LT ISZERO PUSH2 0x74F JUMPI PUSH1 0x0 PUSH32 0x0 PUSH1 0x1 PUSH1 0x1 PUSH1 0xA0 SHL SUB AND PUSH4 0xF08F4F64 PUSH1 0x0 DUP1 DUP12 DUP9 DUP2 MLOAD DUP2 LT PUSH2 0x5DD JUMPI PUSH2 0x5DD PUSH2 0x20C5 JUMP JUMPDEST PUSH1 0x20 MUL PUSH1 0x20 ADD ADD MLOAD DUP2 MSTORE PUSH1 0x20 ADD SWAP1 DUP2 MSTORE PUSH1 0x20 ADD PUSH1 0x0 KECCAK256 PUSH1 0x0 ADD SLOAD PUSH1 0x40 MLOAD DUP3 PUSH4 0xFFFFFFFF AND PUSH1 0xE0 SHL DUP2 MSTORE PUSH1 0x4 ADD PUSH2 0x615 SWAP2 DUP2 MSTORE PUSH1 0x20 ADD SWAP1 JUMP JUMPDEST PUSH1 0x0 PUSH1 0x40 MLOAD DUP1 DUP4 SUB DUP2 DUP7 GAS STATICCALL ISZERO DUP1 ISZERO PUSH2 0x632 JUMPI RETURNDATASIZE PUSH1 0x0 DUP1 RETURNDATACOPY RETURNDATASIZE PUSH1 0x0 REVERT JUMPDEST POP POP POP POP PUSH1 0x40 MLOAD RETURNDATASIZE PUSH1 0x0 DUP3 RETURNDATACOPY PUSH1 0x1F RETURNDATASIZE SWAP1 DUP2 ADD PUSH1 0x1F NOT AND DUP3 ADD PUSH1 0x40 MSTORE PUSH2 0x65A SWAP2 SWAP1 DUP2 ADD SWAP1 PUSH2 0x2118 JUMP JUMPDEST POP SWAP2 POP POP PUSH1 0x0 PUSH2 0x6DB PUSH1 0x0 DUP1 DUP12 DUP9 DUP2 MLOAD DUP2 LT PUSH2 0x678 JUMPI PUSH2 0x678 PUSH2 0x20C5 JUMP JUMPDEST PUSH1 0x20 MUL PUSH1 0x20 ADD ADD MLOAD DUP2 MSTORE PUSH1 0x20 ADD SWAP1 DUP2 MSTORE PUSH1 0x20 ADD PUSH1 0x0 KECCAK256 PUSH1 0x2 ADD PUSH1 0x0 SWAP1 SLOAD SWAP1 PUSH2 0x100 EXP SWAP1 DIV PUSH1 0x1 PUSH1 0x1 PUSH1 0xA0 SHL SUB AND DUP4 PUSH1 0x0 DUP1 DUP14 DUP11 DUP2 MLOAD DUP2 LT PUSH2 0x6BB JUMPI PUSH2 0x6BB PUSH2 0x20C5 JUMP JUMPDEST PUSH1 0x20 MUL PUSH1 0x20 ADD ADD MLOAD DUP2 MSTORE PUSH1 0x20 ADD SWAP1 DUP2 MSTORE PUSH1 0x20 ADD PUSH1 0x0 KECCAK256 PUSH1 0x3 ADD SLOAD DUP7 PUSH2 0x1915 JUMP JUMPDEST SWAP1 POP DUP1 ISZERO PUSH2 0x74C JUMPI PUSH2 0x6EC TIMESTAMP PUSH2 0x1BB7 JUMP JUMPDEST PUSH2 0x6F9 SWAP1 PUSH3 0x15180 PUSH2 0x21EB JUMP JUMPDEST PUSH2 0x703 SWAP1 TIMESTAMP PUSH2 0x2202 JUMP JUMPDEST PUSH1 0x0 DUP1 DUP12 DUP9 DUP2 MLOAD DUP2 LT PUSH2 0x718 JUMPI PUSH2 0x718 PUSH2 0x20C5 JUMP JUMPDEST PUSH1 0x20 MUL PUSH1 0x20 ADD ADD MLOAD DUP2 MSTORE PUSH1 0x20 ADD SWAP1 DUP2 MSTORE PUSH1 0x20 ADD PUSH1 0x0 KECCAK256 PUSH1 0x4 ADD DUP2 SWAP1 SSTORE POP DUP6 DUP1 PUSH2 0x740 SWAP1 PUSH2 0x2215 JUMP JUMPDEST SWAP7 POP POP POP POP POP POP PUSH2 0x87E JUMP JUMPDEST POP POP JUMPDEST PUSH1 0x1 PUSH1 0x0 DUP1 DUP10 DUP7 DUP2 MLOAD DUP2 LT PUSH2 0x766 JUMPI PUSH2 0x766 PUSH2 0x20C5 JUMP JUMPDEST PUSH1 0x20 MUL PUSH1 0x20 ADD ADD MLOAD DUP2 MSTORE PUSH1 0x20 ADD SWAP1 DUP2 MSTORE PUSH1 0x20 ADD PUSH1 0x0 KECCAK256 PUSH1 0x5 ADD PUSH1 0x0 PUSH2 0x100 EXP DUP2 SLOAD DUP2 PUSH1 0xFF MUL NOT AND SWAP1 DUP4 ISZERO ISZERO MUL OR SWAP1 SSTORE POP PUSH32 0xBDCD5F8B5E00DA56711125E00A6F462FE30C2C17EDB4CECEC2E7BBEAC057377D PUSH1 0x0 DUP1 DUP10 DUP7 DUP2 MLOAD DUP2 LT PUSH2 0x7CC JUMPI PUSH2 0x7CC PUSH2 0x20C5 JUMP JUMPDEST PUSH1 0x20 MUL PUSH1 0x20 ADD ADD MLOAD DUP2 MSTORE PUSH1 0x20 ADD SWAP1 DUP2 MSTORE PUSH1 0x20 ADD PUSH1 0x0 KECCAK256 PUSH1 0x0 ADD SLOAD PUSH1 0x0 DUP1 DUP11 DUP8 DUP2 MLOAD DUP2 LT PUSH2 0x7FB JUMPI PUSH2 0x7FB PUSH2 0x20C5 JUMP JUMPDEST PUSH1 0x20 MUL PUSH1 0x20 ADD ADD MLOAD DUP2 MSTORE PUSH1 0x20 ADD SWAP1 DUP2 MSTORE PUSH1 0x20 ADD PUSH1 0x0 KECCAK256 PUSH1 0x1 ADD SLOAD PUSH1 0x0 DUP1 DUP12 DUP9 DUP2 MLOAD DUP2 LT PUSH2 0x82A JUMPI PUSH2 0x82A PUSH2 0x20C5 JUMP JUMPDEST PUSH1 0x20 MUL PUSH1 0x20 ADD ADD MLOAD DUP2 MSTORE PUSH1 0x20 ADD SWAP1 DUP2 MSTORE PUSH1 0x20 ADD PUSH1 0x0 KECCAK256 PUSH1 0x2 ADD PUSH1 0x0 SWAP1 SLOAD SWAP1 PUSH2 0x100 EXP SWAP1 DIV PUSH1 0x1 PUSH1 0x1 PUSH1 0xA0 SHL SUB AND PUSH1 0x40 MLOAD PUSH2 0x866 SWAP4 SWAP3 SWAP2 SWAP1 PUSH2 0x1F97 JUMP JUMPDEST PUSH1 0x40 MLOAD DUP1 SWAP2 SUB SWAP1 LOG1 DUP4 PUSH2 0x878 DUP2 PUSH2 0x2215 JUMP JUMPDEST SWAP5 POP POP POP POP JUMPDEST DUP1 PUSH2 0x888 DUP2 PUSH2 0x2215 JUMP JUMPDEST SWAP2 POP POP PUSH2 0x35B JUMP JUMPDEST POP PUSH1 0x40 DUP1 MLOAD DUP1 DUP3 ADD SWAP1 SWAP2 MSTORE PUSH1 0x2 DUP2 MSTORE PUSH2 0x1899 PUSH1 0xF1 SHL PUSH1 0x20 DUP3 ADD MSTORE DUP2 PUSH2 0x8C8 JUMPI PUSH1 0x40 MLOAD PUSH3 0x461BCD PUSH1 0xE5 SHL DUP2 MSTORE PUSH1 0x4 ADD PUSH2 0x21E SWAP2 SWAP1 PUSH2 0x1F7D JUMP JUMPDEST POP PUSH1 0x0 DUP2 PUSH32 0x0 PUSH1 0x1 PUSH1 0x1 PUSH1 0xA0 SHL SUB AND PUSH4 0x455259CB PUSH1 0x40 MLOAD DUP2 PUSH4 0xFFFFFFFF AND PUSH1 0xE0 SHL DUP2 MSTORE PUSH1 0x4 ADD PUSH1 0x20 PUSH1 0x40 MLOAD DUP1 DUP4 SUB DUP2 DUP7 GAS STATICCALL ISZERO DUP1 ISZERO PUSH2 0x92A JUMPI RETURNDATASIZE PUSH1 0x0 DUP1 RETURNDATACOPY RETURNDATASIZE PUSH1 0x0 REVERT JUMPDEST POP POP POP POP PUSH1 0x40 MLOAD RETURNDATASIZE PUSH1 0x1F NOT PUSH1 0x1F DUP3 ADD AND DUP3 ADD DUP1 PUSH1 0x40 MSTORE POP DUP2 ADD SWAP1 PUSH2 0x94E SWAP2 SWAP1 PUSH2 0x20FF JUMP JUMPDEST PUSH1 0x3 SLOAD PUSH2 0x95B SWAP2 SWAP1 PUSH2 0x21EB JUMP JUMPDEST PUSH2 0x965 SWAP2 SWAP1 PUSH2 0x21EB JUMP JUMPDEST SWAP1 POP PUSH1 0x0 PUSH32 0x0 PUSH1 0x1 PUSH1 0x1 PUSH1 0xA0 SHL SUB AND PUSH4 0x455259CB PUSH1 0x40 MLOAD DUP2 PUSH4 0xFFFFFFFF AND PUSH1 0xE0 SHL DUP2 MSTORE PUSH1 0x4 ADD PUSH1 0x20 PUSH1 0x40 MLOAD DUP1 DUP4 SUB DUP2 DUP7 GAS STATICCALL ISZERO DUP1 ISZERO PUSH2 0x9C7 JUMPI RETURNDATASIZE PUSH1 0x0 DUP1 RETURNDATACOPY RETURNDATASIZE PUSH1 0x0 REVERT JUMPDEST POP POP POP POP PUSH1 0x40 MLOAD RETURNDATASIZE PUSH1 0x1F NOT PUSH1 0x1F DUP3 ADD AND DUP3 ADD DUP1 PUSH1 0x40 MSTORE POP DUP2 ADD SWAP1 PUSH2 0x9EB SWAP2 SWAP1 PUSH2 0x20FF JUMP JUMPDEST PUSH2 0x9F7 DUP5 PUSH2 0x1A7 PUSH2 0x21EB JUMP JUMPDEST PUSH2 0xA03 SWAP1 PUSH2 0xDCDE PUSH2 0x2202 JUMP JUMPDEST GAS PUSH2 0xA0E SWAP1 DUP8 PUSH2 0x222E JUMP JUMPDEST PUSH2 0xA18 SWAP2 SWAP1 PUSH2 0x2202 JUMP JUMPDEST PUSH2 0xA22 SWAP2 SWAP1 PUSH2 0x21EB JUMP JUMPDEST SWAP1 POP DUP3 DUP7 MLOAD PUSH2 0xA31 SWAP2 SWAP1 PUSH2 0x222E JUMP JUMPDEST DUP7 MLOAD PUSH2 0xA3D SWAP1 DUP4 PUSH2 0x2257 JUMP JUMPDEST PUSH2 0xA47 SWAP2 SWAP1 PUSH2 0x21EB JUMP JUMPDEST PUSH2 0xA51 SWAP1 DUP3 PUSH2 0x222E JUMP JUMPDEST SWAP1 POP DUP2 DUP2 GT ISZERO PUSH2 0xA5E JUMPI POP DUP1 JUMPDEST PUSH1 0x40 MLOAD PUSH1 0x1 PUSH1 0x1 PUSH1 0xA0 SHL SUB DUP7 AND SWAP1 DUP3 SWAP1 PUSH1 0x0 DUP2 DUP2 DUP2 DUP6 DUP8 GAS CALL SWAP3 POP POP POP RETURNDATASIZE DUP1 PUSH1 0x0 DUP2 EQ PUSH2 0xAA7 JUMPI PUSH1 0x40 MLOAD SWAP2 POP PUSH1 0x1F NOT PUSH1 0x3F RETURNDATASIZE ADD AND DUP3 ADD PUSH1 0x40 MSTORE RETURNDATASIZE DUP3 MSTORE RETURNDATASIZE PUSH1 0x0 PUSH1 0x20 DUP5 ADD RETURNDATACOPY PUSH2 0xAAC JUMP JUMPDEST PUSH1 0x60 SWAP2 POP JUMPDEST POP POP POP POP POP POP POP POP POP POP POP JUMP JUMPDEST PUSH1 0x0 PUSH32 0x0 PUSH1 0x1 PUSH1 0x1 PUSH1 0xA0 SHL SUB AND PUSH4 0x455259CB PUSH1 0x40 MLOAD DUP2 PUSH4 0xFFFFFFFF AND PUSH1 0xE0 SHL DUP2 MSTORE PUSH1 0x4 ADD PUSH1 0x20 PUSH1 0x40 MLOAD DUP1 DUP4 SUB DUP2 DUP7 GAS STATICCALL ISZERO DUP1 ISZERO PUSH2 0xB19 JUMPI RETURNDATASIZE PUSH1 0x0 DUP1 RETURNDATACOPY RETURNDATASIZE PUSH1 0x0 REVERT JUMPDEST POP POP POP POP PUSH1 0x40 MLOAD RETURNDATASIZE PUSH1 0x1F NOT PUSH1 0x1F DUP3 ADD AND DUP3 ADD DUP1 PUSH1 0x40 MSTORE POP DUP2 ADD SWAP1 PUSH2 0xB3D SWAP2 SWAP1 PUSH2 0x20FF JUMP JUMPDEST PUSH1 0x3 SLOAD PUSH2 0xB4A SWAP2 SWAP1 PUSH2 0x21EB JUMP JUMPDEST PUSH2 0xB55 SWAP1 PUSH1 0x3C PUSH2 0x21EB JUMP JUMPDEST SWAP1 POP SWAP1 JUMP JUMPDEST PUSH1 0x0 PUSH1 0x60 DUP2 DUP1 DUP1 DUP1 DUP1 PUSH2 0xB6F DUP9 DUP11 ADD DUP11 PUSH2 0x226B JUMP JUMPDEST SWAP5 POP SWAP5 POP SWAP5 POP SWAP5 POP SWAP5 POP PUSH1 0x1 SLOAD DUP5 LT PUSH2 0xB93 JUMPI PUSH1 0x1 DUP1 SLOAD PUSH2 0xB90 SWAP2 SWAP1 PUSH2 0x222E JUMP JUMPDEST SWAP4 POP JUMPDEST PUSH1 0x40 DUP1 MLOAD DUP1 DUP3 ADD SWAP1 SWAP2 MSTORE PUSH1 0x1 DUP2 MSTORE PUSH1 0x19 PUSH1 0xF9 SHL PUSH1 0x20 DUP3 ADD MSTORE DUP5 DUP7 GT ISZERO PUSH2 0xBCC JUMPI PUSH1 0x40 MLOAD PUSH3 0x461BCD PUSH1 0xE5 SHL DUP2 MSTORE PUSH1 0x4 ADD PUSH2 0x21E SWAP2 SWAP1 PUSH2 0x1F7D JUMP JUMPDEST POP PUSH1 0x0 DUP1 PUSH2 0xBDA DUP8 DUP8 PUSH2 0x222E JUMP JUMPDEST PUSH2 0xBE5 SWAP1 PUSH1 0x1 PUSH2 0x2202 JUMP JUMPDEST SWAP1 POP PUSH1 0x0 DUP5 PUSH8 0xFFFFFFFFFFFFFFFF DUP2 GT ISZERO PUSH2 0xC02 JUMPI PUSH2 0xC02 PUSH2 0x1FB6 JUMP JUMPDEST PUSH1 0x40 MLOAD SWAP1 DUP1 DUP3 MSTORE DUP1 PUSH1 0x20 MUL PUSH1 0x20 ADD DUP3 ADD PUSH1 0x40 MSTORE DUP1 ISZERO PUSH2 0xC2B JUMPI DUP2 PUSH1 0x20 ADD PUSH1 0x20 DUP3 MUL DUP1 CALLDATASIZE DUP4 CALLDATACOPY ADD SWAP1 POP JUMPDEST POP SWAP1 POP PUSH1 0x0 JUMPDEST DUP3 DUP2 LT ISZERO PUSH2 0xCCA JUMPI PUSH1 0x0 PUSH2 0xC45 DUP3 DUP12 PUSH2 0x2202 JUMP JUMPDEST PUSH1 0x0 DUP2 DUP2 MSTORE PUSH1 0x20 DUP2 SWAP1 MSTORE PUSH1 0x40 SWAP1 KECCAK256 PUSH1 0x4 ADD SLOAD SWAP1 SWAP2 POP TIMESTAMP GT DUP1 ISZERO PUSH2 0xC7A JUMPI POP PUSH1 0x0 DUP2 DUP2 MSTORE PUSH1 0x20 DUP2 SWAP1 MSTORE PUSH1 0x40 SWAP1 KECCAK256 PUSH1 0x5 ADD SLOAD PUSH1 0xFF AND ISZERO JUMPDEST ISZERO PUSH2 0xCB7 JUMPI DUP1 DUP4 DUP7 DUP2 MLOAD DUP2 LT PUSH2 0xC92 JUMPI PUSH2 0xC92 PUSH2 0x20C5 JUMP JUMPDEST PUSH1 0x20 SWAP1 DUP2 MUL SWAP2 SWAP1 SWAP2 ADD ADD MSTORE DUP5 PUSH2 0xCA7 DUP2 PUSH2 0x2215 JUMP JUMPDEST SWAP6 POP POP DUP7 DUP6 LT PUSH2 0xCB7 JUMPI POP PUSH2 0xCCA JUMP JUMPDEST POP DUP1 PUSH2 0xCC2 DUP2 PUSH2 0x2215 JUMP JUMPDEST SWAP2 POP POP PUSH2 0xC31 JUMP JUMPDEST POP DUP3 ISZERO DUP1 PUSH2 0xCD7 JUMPI POP DUP6 DUP4 LT JUMPDEST ISZERO PUSH2 0xCFF JUMPI PUSH1 0x0 PUSH1 0x40 MLOAD DUP1 PUSH1 0x20 ADD PUSH1 0x40 MSTORE DUP1 PUSH1 0x0 DUP2 MSTORE POP SWAP10 POP SWAP10 POP POP POP POP POP POP POP POP POP PUSH2 0xE09 JUMP JUMPDEST DUP5 DUP4 SUB PUSH2 0xD3B JUMPI PUSH1 0x1 DUP2 DUP6 PUSH1 0x40 MLOAD PUSH1 0x20 ADD PUSH2 0xD1B SWAP3 SWAP2 SWAP1 PUSH2 0x22B8 JUMP JUMPDEST PUSH1 0x40 MLOAD PUSH1 0x20 DUP2 DUP4 SUB SUB DUP2 MSTORE SWAP1 PUSH1 0x40 MSTORE SWAP10 POP SWAP10 POP POP POP POP POP POP POP POP POP PUSH2 0xE09 JUMP JUMPDEST PUSH1 0x0 DUP4 PUSH8 0xFFFFFFFFFFFFFFFF DUP2 GT ISZERO PUSH2 0xD56 JUMPI PUSH2 0xD56 PUSH2 0x1FB6 JUMP JUMPDEST PUSH1 0x40 MLOAD SWAP1 DUP1 DUP3 MSTORE DUP1 PUSH1 0x20 MUL PUSH1 0x20 ADD DUP3 ADD PUSH1 0x40 MSTORE DUP1 ISZERO PUSH2 0xD7F JUMPI DUP2 PUSH1 0x20 ADD PUSH1 0x20 DUP3 MUL DUP1 CALLDATASIZE DUP4 CALLDATACOPY ADD SWAP1 POP JUMPDEST POP SWAP1 POP PUSH1 0x0 JUMPDEST DUP5 DUP2 LT ISZERO PUSH2 0xDD6 JUMPI DUP3 DUP2 DUP2 MLOAD DUP2 LT PUSH2 0xD9F JUMPI PUSH2 0xD9F PUSH2 0x20C5 JUMP JUMPDEST PUSH1 0x20 MUL PUSH1 0x20 ADD ADD MLOAD DUP3 DUP3 DUP2 MLOAD DUP2 LT PUSH2 0xDB9 JUMPI PUSH2 0xDB9 PUSH2 0x20C5 JUMP JUMPDEST PUSH1 0x20 SWAP1 DUP2 MUL SWAP2 SWAP1 SWAP2 ADD ADD MSTORE DUP1 PUSH2 0xDCE DUP2 PUSH2 0x2215 JUMP JUMPDEST SWAP2 POP POP PUSH2 0xD85 JUMP JUMPDEST POP PUSH1 0x1 DUP2 DUP7 PUSH1 0x40 MLOAD PUSH1 0x20 ADD PUSH2 0xDEC SWAP3 SWAP2 SWAP1 PUSH2 0x22B8 JUMP JUMPDEST PUSH1 0x40 MLOAD PUSH1 0x20 DUP2 DUP4 SUB SUB DUP2 MSTORE SWAP1 PUSH1 0x40 MSTORE SWAP11 POP SWAP11 POP POP POP POP POP POP POP POP POP POP JUMPDEST SWAP3 POP SWAP3 SWAP1 POP JUMP JUMPDEST PUSH32 0x0 PUSH1 0x1 PUSH1 0x1 PUSH1 0xA0 SHL SUB AND PUSH4 0xA9059CBB PUSH32 0x0 PUSH1 0x1 PUSH1 0x1 PUSH1 0xA0 SHL SUB AND PUSH4 0x3B19E84A PUSH1 0x40 MLOAD DUP2 PUSH4 0xFFFFFFFF AND PUSH1 0xE0 SHL DUP2 MSTORE PUSH1 0x4 ADD PUSH1 0x20 PUSH1 0x40 MLOAD DUP1 DUP4 SUB DUP2 DUP7 GAS STATICCALL ISZERO DUP1 ISZERO PUSH2 0xE9D JUMPI RETURNDATASIZE PUSH1 0x0 DUP1 RETURNDATACOPY RETURNDATASIZE PUSH1 0x0 REVERT JUMPDEST POP POP POP POP PUSH1 0x40 MLOAD RETURNDATASIZE PUSH1 0x1F NOT PUSH1 0x1F DUP3 ADD AND DUP3 ADD DUP1 PUSH1 0x40 MSTORE POP DUP2 ADD SWAP1 PUSH2 0xEC1 SWAP2 SWAP1 PUSH2 0x230C JUMP JUMPDEST PUSH1 0x40 MLOAD PUSH4 0x70A08231 PUSH1 0xE0 SHL DUP2 MSTORE ADDRESS PUSH1 0x4 DUP3 ADD MSTORE PUSH32 0x0 PUSH1 0x1 PUSH1 0x1 PUSH1 0xA0 SHL SUB AND SWAP1 PUSH4 0x70A08231 SWAP1 PUSH1 0x24 ADD PUSH1 0x20 PUSH1 0x40 MLOAD DUP1 DUP4 SUB DUP2 DUP7 GAS STATICCALL ISZERO DUP1 ISZERO PUSH2 0xF25 JUMPI RETURNDATASIZE PUSH1 0x0 DUP1 RETURNDATACOPY RETURNDATASIZE PUSH1 0x0 REVERT JUMPDEST POP POP POP POP PUSH1 0x40 MLOAD RETURNDATASIZE PUSH1 0x1F NOT PUSH1 0x1F DUP3 ADD AND DUP3 ADD DUP1 PUSH1 0x40 MSTORE POP DUP2 ADD SWAP1 PUSH2 0xF49 SWAP2 SWAP1 PUSH2 0x20FF JUMP JUMPDEST PUSH1 0x40 MLOAD PUSH1 0x1 PUSH1 0x1 PUSH1 0xE0 SHL SUB NOT PUSH1 0xE0 DUP6 SWAP1 SHL AND DUP2 MSTORE PUSH1 0x1 PUSH1 0x1 PUSH1 0xA0 SHL SUB SWAP1 SWAP3 AND PUSH1 0x4 DUP4 ADD MSTORE PUSH1 0x24 DUP3 ADD MSTORE PUSH1 0x44 ADD PUSH1 0x20 PUSH1 0x40 MLOAD DUP1 DUP4 SUB DUP2 PUSH1 0x0 DUP8 GAS CALL ISZERO DUP1 ISZERO PUSH2 0xF94 JUMPI RETURNDATASIZE PUSH1 0x0 DUP1 RETURNDATACOPY RETURNDATASIZE PUSH1 0x0 REVERT JUMPDEST POP POP POP POP PUSH1 0x40 MLOAD RETURNDATASIZE PUSH1 0x1F NOT PUSH1 0x1F DUP3 ADD AND DUP3 ADD DUP1 PUSH1 0x40 MSTORE POP DUP2 ADD SWAP1 PUSH2 0xFB8 SWAP2 SWAP1 PUSH2 0x2339 JUMP JUMPDEST POP JUMP JUMPDEST PUSH1 0x0 PUSH2 0xFC5 PUSH2 0xAB9 JUMP JUMPDEST CALLVALUE LT ISZERO PUSH1 0x40 MLOAD DUP1 PUSH1 0x40 ADD PUSH1 0x40 MSTORE DUP1 PUSH1 0x2 DUP2 MSTORE PUSH1 0x20 ADD PUSH2 0x3133 PUSH1 0xF0 SHL DUP2 MSTORE POP SWAP1 PUSH2 0x1001 JUMPI PUSH1 0x40 MLOAD PUSH3 0x461BCD PUSH1 0xE5 SHL DUP2 MSTORE PUSH1 0x4 ADD PUSH2 0x21E SWAP2 SWAP1 PUSH2 0x1F7D JUMP JUMPDEST POP PUSH1 0x40 MLOAD PUSH4 0x28F513D7 PUSH1 0xE1 SHL DUP2 MSTORE PUSH1 0x1 PUSH1 0x1 PUSH1 0xA0 SHL SUB PUSH32 0x0 AND SWAP1 PUSH4 0x51EA27AE SWAP1 PUSH2 0x1052 SWAP1 DUP7 SWAP1 DUP7 SWAP1 CALLER SWAP1 PUSH1 0x4 ADD PUSH2 0x1F97 JUMP JUMPDEST PUSH1 0x20 PUSH1 0x40 MLOAD DUP1 DUP4 SUB DUP2 DUP7 GAS STATICCALL ISZERO DUP1 ISZERO PUSH2 0x106F JUMPI RETURNDATASIZE PUSH1 0x0 DUP1 RETURNDATACOPY RETURNDATASIZE PUSH1 0x0 REVERT JUMPDEST POP POP POP POP PUSH1 0x40 MLOAD RETURNDATASIZE PUSH1 0x1F NOT PUSH1 0x1F DUP3 ADD AND DUP3 ADD DUP1 PUSH1 0x40 MSTORE POP DUP2 ADD SWAP1 PUSH2 0x1093 SWAP2 SWAP1 PUSH2 0x2339 JUMP JUMPDEST ISZERO ISZERO PUSH1 0x1 SUB PUSH2 0x1255 JUMPI PUSH1 0x40 MLOAD PUSH4 0x628072B PUSH1 0xE1 SHL DUP2 MSTORE PUSH1 0x0 SWAP1 PUSH1 0x1 PUSH1 0x1 PUSH1 0xA0 SHL SUB PUSH32 0x0 AND SWAP1 PUSH4 0xCC0DE218 SWAP1 DUP3 SWAP1 PUSH4 0xC500E56 SWAP1 PUSH2 0x10F7 SWAP1 DUP10 SWAP1 DUP10 SWAP1 CALLER SWAP1 PUSH1 0x4 ADD PUSH2 0x1F97 JUMP JUMPDEST PUSH1 0x20 PUSH1 0x40 MLOAD DUP1 DUP4 SUB DUP2 DUP7 GAS STATICCALL ISZERO DUP1 ISZERO PUSH2 0x1114 JUMPI RETURNDATASIZE PUSH1 0x0 DUP1 RETURNDATACOPY RETURNDATASIZE PUSH1 0x0 REVERT JUMPDEST POP POP POP POP PUSH1 0x40 MLOAD RETURNDATASIZE PUSH1 0x1F NOT PUSH1 0x1F DUP3 ADD AND DUP3 ADD DUP1 PUSH1 0x40 MSTORE POP DUP2 ADD SWAP1 PUSH2 0x1138 SWAP2 SWAP1 PUSH2 0x230C JUMP JUMPDEST PUSH1 0x40 MLOAD PUSH1 0x1 PUSH1 0x1 PUSH1 0xE0 SHL SUB NOT PUSH1 0xE0 DUP5 SWAP1 SHL AND DUP2 MSTORE PUSH1 0x1 PUSH1 0x1 PUSH1 0xA0 SHL SUB SWAP1 SWAP2 AND PUSH1 0x4 DUP3 ADD MSTORE PUSH1 0x24 ADD PUSH1 0x20 PUSH1 0x40 MLOAD DUP1 DUP4 SUB DUP2 DUP7 GAS STATICCALL ISZERO DUP1 ISZERO PUSH2 0x117C JUMPI RETURNDATASIZE PUSH1 0x0 DUP1 RETURNDATACOPY RETURNDATASIZE PUSH1 0x0 REVERT JUMPDEST POP POP POP POP PUSH1 0x40 MLOAD RETURNDATASIZE PUSH1 0x1F NOT PUSH1 0x1F DUP3 ADD AND DUP3 ADD DUP1 PUSH1 0x40 MSTORE POP DUP2 ADD SWAP1 PUSH2 0x11A0 SWAP2 SWAP1 PUSH2 0x230C JUMP JUMPDEST PUSH1 0x1 PUSH1 0x1 PUSH1 0xA0 SHL SUB AND PUSH4 0xD53D5E42 DUP6 DUP6 CALLER PUSH1 0x40 MLOAD DUP5 PUSH4 0xFFFFFFFF AND PUSH1 0xE0 SHL DUP2 MSTORE PUSH1 0x4 ADD PUSH2 0x11CF SWAP4 SWAP3 SWAP2 SWAP1 PUSH2 0x1F97 JUMP JUMPDEST PUSH1 0x60 PUSH1 0x40 MLOAD DUP1 DUP4 SUB DUP2 DUP7 GAS STATICCALL ISZERO DUP1 ISZERO PUSH2 0x11EC JUMPI RETURNDATASIZE PUSH1 0x0 DUP1 RETURNDATACOPY RETURNDATASIZE PUSH1 0x0 REVERT JUMPDEST POP POP POP POP PUSH1 0x40 MLOAD RETURNDATASIZE PUSH1 0x1F NOT PUSH1 0x1F DUP3 ADD AND DUP3 ADD DUP1 PUSH1 0x40 MSTORE POP DUP2 ADD SWAP1 PUSH2 0x1210 SWAP2 SWAP1 PUSH2 0x2354 JUMP JUMPDEST PUSH1 0x40 DUP1 MLOAD DUP1 DUP3 ADD SWAP1 SWAP2 MSTORE PUSH1 0x2 DUP2 MSTORE PUSH2 0x189B PUSH1 0xF1 SHL PUSH1 0x20 DUP3 ADD MSTORE SWAP1 SWAP4 POP SWAP2 POP POP PUSH1 0x1 DUP3 ISZERO ISZERO EQ PUSH2 0x1252 JUMPI PUSH1 0x40 MLOAD PUSH3 0x461BCD PUSH1 0xE5 SHL DUP2 MSTORE PUSH1 0x4 ADD PUSH2 0x21E SWAP2 SWAP1 PUSH2 0x1F7D JUMP JUMPDEST POP POP JUMPDEST PUSH1 0x40 MLOAD PUSH4 0x76BA5101 PUSH1 0xE1 SHL DUP2 MSTORE PUSH1 0x4 DUP2 ADD DUP5 SWAP1 MSTORE PUSH1 0x0 SWAP1 PUSH32 0x0 PUSH1 0x1 PUSH1 0x1 PUSH1 0xA0 SHL SUB AND SWAP1 PUSH4 0xED74A202 SWAP1 PUSH1 0x24 ADD PUSH1 0x40 DUP1 MLOAD DUP1 DUP4 SUB DUP2 DUP7 GAS STATICCALL ISZERO DUP1 ISZERO PUSH2 0x12BC JUMPI RETURNDATASIZE PUSH1 0x0 DUP1 RETURNDATACOPY RETURNDATASIZE PUSH1 0x0 REVERT JUMPDEST POP POP POP POP PUSH1 0x40 MLOAD RETURNDATASIZE PUSH1 0x1F NOT PUSH1 0x1F DUP3 ADD AND DUP3 ADD DUP1 PUSH1 0x40 MSTORE POP DUP2 ADD SWAP1 PUSH2 0x12E0 SWAP2 SWAP1 PUSH2 0x20DB JUMP JUMPDEST POP PUSH1 0x40 MLOAD PUSH4 0x47B5C681 PUSH1 0xE1 SHL DUP2 MSTORE PUSH1 0x4 DUP2 ADD DUP7 SWAP1 MSTORE PUSH1 0x24 DUP2 ADD DUP3 SWAP1 MSTORE PUSH1 0x44 DUP2 ADD DUP6 SWAP1 MSTORE PUSH1 0x1 PUSH1 0x1 PUSH1 0xA0 SHL SUB PUSH32 0x0 DUP2 AND PUSH1 0x64 DUP4 ADD MSTORE SWAP2 SWAP3 POP PUSH1 0x0 SWAP2 PUSH32 0x0 AND SWAP1 PUSH4 0x8F6B8D02 SWAP1 PUSH1 0x84 ADD PUSH1 0x20 PUSH1 0x40 MLOAD DUP1 DUP4 SUB DUP2 DUP7 GAS STATICCALL ISZERO DUP1 ISZERO PUSH2 0x1382 JUMPI RETURNDATASIZE PUSH1 0x0 DUP1 RETURNDATACOPY RETURNDATASIZE PUSH1 0x0 REVERT JUMPDEST POP POP POP POP PUSH1 0x40 MLOAD RETURNDATASIZE PUSH1 0x1F NOT PUSH1 0x1F DUP3 ADD AND DUP3 ADD DUP1 PUSH1 0x40 MSTORE POP DUP2 ADD SWAP1 PUSH2 0x13A6 SWAP2 SWAP1 PUSH2 0x20FF JUMP JUMPDEST SWAP1 POP PUSH2 0x13B3 DUP2 PUSH1 0x3C PUSH2 0x21EB JUMP JUMPDEST PUSH1 0x40 MLOAD PUSH4 0x6EB1769F PUSH1 0xE1 SHL DUP2 MSTORE CALLER PUSH1 0x4 DUP3 ADD MSTORE ADDRESS PUSH1 0x24 DUP3 ADD MSTORE PUSH32 0x0 PUSH1 0x1 PUSH1 0x1 PUSH1 0xA0 SHL SUB AND SWAP1 PUSH4 0xDD62ED3E SWAP1 PUSH1 0x44 ADD PUSH1 0x20 PUSH1 0x40 MLOAD DUP1 DUP4 SUB DUP2 DUP7 GAS STATICCALL ISZERO DUP1 ISZERO PUSH2 0x141D JUMPI RETURNDATASIZE PUSH1 0x0 DUP1 RETURNDATACOPY RETURNDATASIZE PUSH1 0x0 REVERT JUMPDEST POP POP POP POP PUSH1 0x40 MLOAD RETURNDATASIZE PUSH1 0x1F NOT PUSH1 0x1F DUP3 ADD AND DUP3 ADD DUP1 PUSH1 0x40 MSTORE POP DUP2 ADD SWAP1 PUSH2 0x1441 SWAP2 SWAP1 PUSH2 0x20FF JUMP JUMPDEST LT ISZERO PUSH1 0x40 MLOAD DUP1 PUSH1 0x40 ADD PUSH1 0x40 MSTORE DUP1 PUSH1 0x2 DUP2 MSTORE PUSH1 0x20 ADD PUSH2 0xC4D PUSH1 0xF2 SHL DUP2 MSTORE POP SWAP1 PUSH2 0x147C JUMPI PUSH1 0x40 MLOAD PUSH3 0x461BCD PUSH1 0xE5 SHL DUP2 MSTORE PUSH1 0x4 ADD PUSH2 0x21E SWAP2 SWAP1 PUSH2 0x1F7D JUMP JUMPDEST POP PUSH1 0x1 SLOAD PUSH1 0x0 DUP7 DUP2 MSTORE PUSH1 0x2 PUSH1 0x20 SWAP1 DUP2 MSTORE PUSH1 0x40 DUP1 DUP4 KECCAK256 DUP9 DUP5 MSTORE DUP3 MSTORE DUP1 DUP4 KECCAK256 CALLER DUP5 MSTORE SWAP1 SWAP2 MSTORE DUP2 KECCAK256 SLOAD SWAP2 SWAP5 POP SUB PUSH2 0x14F4 JUMPI PUSH1 0x1 DUP1 SLOAD PUSH2 0x14B7 SWAP2 PUSH2 0x2202 JUMP JUMPDEST PUSH1 0x0 DUP7 DUP2 MSTORE PUSH1 0x2 PUSH1 0x20 SWAP1 DUP2 MSTORE PUSH1 0x40 DUP1 DUP4 KECCAK256 DUP9 DUP5 MSTORE DUP3 MSTORE DUP1 DUP4 KECCAK256 CALLER DUP5 MSTORE SWAP1 SWAP2 MSTORE DUP2 KECCAK256 SWAP2 SWAP1 SWAP2 SSTORE PUSH1 0x1 DUP1 SLOAD SWAP2 PUSH2 0x14EA DUP4 PUSH2 0x2215 JUMP JUMPDEST SWAP2 SWAP1 POP SSTORE POP PUSH2 0x1525 JUMP JUMPDEST PUSH1 0x0 DUP6 DUP2 MSTORE PUSH1 0x2 PUSH1 0x20 SWAP1 DUP2 MSTORE PUSH1 0x40 DUP1 DUP4 KECCAK256 DUP8 DUP5 MSTORE DUP3 MSTORE DUP1 DUP4 KECCAK256 CALLER DUP5 MSTORE SWAP1 SWAP2 MSTORE SWAP1 KECCAK256 SLOAD PUSH2 0x1522 SWAP1 PUSH1 0x1 SWAP1 PUSH2 0x222E JUMP JUMPDEST SWAP3 POP JUMPDEST PUSH1 0x40 MLOAD DUP1 PUSH1 0xC0 ADD PUSH1 0x40 MSTORE DUP1 DUP7 DUP2 MSTORE PUSH1 0x20 ADD DUP6 DUP2 MSTORE PUSH1 0x20 ADD CALLER PUSH1 0x1 PUSH1 0x1 PUSH1 0xA0 SHL SUB AND DUP2 MSTORE PUSH1 0x20 ADD DUP3 DUP2 MSTORE PUSH1 0x20 ADD TIMESTAMP PUSH3 0x278D00 PUSH2 0x1560 SWAP2 SWAP1 PUSH2 0x2202 JUMP JUMPDEST DUP2 MSTORE PUSH1 0x0 PUSH1 0x20 SWAP2 DUP3 ADD DUP2 SWAP1 MSTORE DUP6 DUP2 MSTORE DUP1 DUP3 MSTORE PUSH1 0x40 DUP1 DUP3 KECCAK256 DUP5 MLOAD DUP2 SSTORE SWAP3 DUP5 ADD MLOAD PUSH1 0x1 DUP5 ADD SSTORE DUP4 DUP2 ADD MLOAD PUSH1 0x2 DUP5 ADD DUP1 SLOAD PUSH1 0x1 PUSH1 0x1 PUSH1 0xA0 SHL SUB NOT AND PUSH1 0x1 PUSH1 0x1 PUSH1 0xA0 SHL SUB SWAP3 DUP4 AND OR SWAP1 SSTORE PUSH1 0x60 DUP6 ADD MLOAD PUSH1 0x3 DUP6 ADD SSTORE PUSH1 0x80 DUP6 ADD MLOAD PUSH1 0x4 DUP1 DUP7 ADD SWAP2 SWAP1 SWAP2 SSTORE PUSH1 0xA0 SWAP1 SWAP6 ADD MLOAD PUSH1 0x5 SWAP1 SWAP5 ADD DUP1 SLOAD PUSH1 0xFF NOT AND SWAP5 ISZERO ISZERO SWAP5 SWAP1 SWAP5 OR SWAP1 SWAP4 SSTORE MLOAD PUSH4 0x3C23D3D9 PUSH1 0xE2 SHL DUP2 MSTORE SWAP3 DUP4 ADD DUP9 SWAP1 MSTORE SWAP2 PUSH32 0x0 SWAP1 SWAP2 AND SWAP1 PUSH4 0xF08F4F64 SWAP1 PUSH1 0x24 ADD PUSH1 0x0 PUSH1 0x40 MLOAD DUP1 DUP4 SUB DUP2 DUP7 GAS STATICCALL ISZERO DUP1 ISZERO PUSH2 0x1636 JUMPI RETURNDATASIZE PUSH1 0x0 DUP1 RETURNDATACOPY RETURNDATASIZE PUSH1 0x0 REVERT JUMPDEST POP POP POP POP PUSH1 0x40 MLOAD RETURNDATASIZE PUSH1 0x0 DUP3 RETURNDATACOPY PUSH1 0x1F RETURNDATASIZE SWAP1 DUP2 ADD PUSH1 0x1F NOT AND DUP3 ADD PUSH1 0x40 MSTORE PUSH2 0x165E SWAP2 SWAP1 DUP2 ADD SWAP1 PUSH2 0x2118 JUMP JUMPDEST POP PUSH1 0x40 MLOAD PUSH4 0x76BA5101 PUSH1 0xE1 SHL DUP2 MSTORE PUSH1 0x4 DUP2 ADD DUP10 SWAP1 MSTORE SWAP1 SWAP3 POP PUSH1 0x0 SWAP2 POP PUSH1 0x1 PUSH1 0x1 PUSH1 0xA0 SHL SUB PUSH32 0x0 AND SWAP1 PUSH4 0xED74A202 SWAP1 PUSH1 0x24 ADD PUSH1 0x40 DUP1 MLOAD DUP1 DUP4 SUB DUP2 DUP7 GAS STATICCALL ISZERO DUP1 ISZERO PUSH2 0x16CA JUMPI RETURNDATASIZE PUSH1 0x0 DUP1 RETURNDATACOPY RETURNDATASIZE PUSH1 0x0 REVERT JUMPDEST POP POP POP POP PUSH1 0x40 MLOAD RETURNDATASIZE PUSH1 0x1F NOT PUSH1 0x1F DUP3 ADD AND DUP3 ADD DUP1 PUSH1 0x40 MSTORE POP DUP2 ADD SWAP1 PUSH2 0x16EE SWAP2 SWAP1 PUSH2 0x20DB JUMP JUMPDEST SWAP2 POP POP PUSH2 0x16FD CALLER DUP4 DUP6 DUP5 PUSH2 0x1915 JUMP JUMPDEST PUSH1 0x40 MLOAD DUP1 PUSH1 0x40 ADD PUSH1 0x40 MSTORE DUP1 PUSH1 0x2 DUP2 MSTORE PUSH1 0x20 ADD PUSH2 0x3135 PUSH1 0xF0 SHL DUP2 MSTORE POP SWAP1 PUSH2 0x1736 JUMPI PUSH1 0x40 MLOAD PUSH3 0x461BCD PUSH1 0xE5 SHL DUP2 MSTORE PUSH1 0x4 ADD PUSH2 0x21E SWAP2 SWAP1 PUSH2 0x1F7D JUMP JUMPDEST POP PUSH1 0x40 MLOAD PUSH4 0x5E707483 PUSH1 0xE0 SHL DUP2 MSTORE PUSH1 0x4 DUP2 ADD DUP9 SWAP1 MSTORE PUSH1 0x24 DUP2 ADD DUP8 SWAP1 MSTORE CALLER PUSH1 0x44 DUP3 ADD MSTORE PUSH1 0x1 PUSH1 0x1 PUSH1 0xA0 SHL SUB PUSH32 0x0 DUP2 AND PUSH1 0x64 DUP4 ADD MSTORE PUSH32 0x0 AND SWAP1 PUSH4 0x5E707483 SWAP1 PUSH1 0x84 ADD PUSH1 0x0 PUSH1 0x40 MLOAD DUP1 DUP4 SUB DUP2 PUSH1 0x0 DUP8 DUP1 EXTCODESIZE ISZERO DUP1 ISZERO PUSH2 0x17CE JUMPI PUSH1 0x0 DUP1 REVERT JUMPDEST POP GAS CALL ISZERO DUP1 ISZERO PUSH2 0x17E2 JUMPI RETURNDATASIZE PUSH1 0x0 DUP1 RETURNDATACOPY RETURNDATASIZE PUSH1 0x0 REVERT JUMPDEST POP POP POP POP PUSH2 0x17EE PUSH2 0xE10 JUMP JUMPDEST PUSH32 0x719D57359948C2C6F2A923516C19ABA22B490E924879B674C1D6371BB6541F17 DUP8 DUP8 CALLER PUSH1 0x40 MLOAD PUSH2 0x1821 SWAP4 SWAP3 SWAP2 SWAP1 PUSH2 0x1F97 JUMP JUMPDEST PUSH1 0x40 MLOAD DUP1 SWAP2 SUB SWAP1 LOG1 POP POP POP POP SWAP3 SWAP2 POP POP JUMP JUMPDEST PUSH1 0x0 DUP1 PUSH1 0x0 DUP1 PUSH2 0x1844 DUP8 DUP8 DUP8 PUSH2 0x1874 JUMP JUMPDEST PUSH1 0x0 SWAP1 DUP2 MSTORE PUSH1 0x20 DUP2 SWAP1 MSTORE PUSH1 0x40 SWAP1 KECCAK256 PUSH1 0x3 DUP2 ADD SLOAD PUSH1 0x4 DUP3 ADD SLOAD PUSH1 0x5 SWAP1 SWAP3 ADD SLOAD SWAP1 SWAP10 SWAP2 SWAP9 POP PUSH1 0xFF AND SWAP7 POP SWAP5 POP POP POP POP POP JUMP JUMPDEST PUSH1 0x0 DUP4 DUP2 MSTORE PUSH1 0x2 PUSH1 0x20 SWAP1 DUP2 MSTORE PUSH1 0x40 DUP1 DUP4 KECCAK256 DUP6 DUP5 MSTORE DUP3 MSTORE DUP1 DUP4 KECCAK256 PUSH1 0x1 PUSH1 0x1 PUSH1 0xA0 SHL SUB DUP6 AND DUP5 MSTORE DUP3 MSTORE DUP1 DUP4 KECCAK256 SLOAD DUP2 MLOAD DUP1 DUP4 ADD SWAP1 SWAP3 MSTORE PUSH1 0x1 DUP3 MSTORE PUSH1 0x7 PUSH1 0xFB SHL SWAP3 DUP3 ADD SWAP3 SWAP1 SWAP3 MSTORE SWAP1 PUSH2 0x18D5 JUMPI PUSH1 0x40 MLOAD PUSH3 0x461BCD PUSH1 0xE5 SHL DUP2 MSTORE PUSH1 0x4 ADD PUSH2 0x21E SWAP2 SWAP1 PUSH2 0x1F7D JUMP JUMPDEST POP PUSH1 0x0 DUP5 DUP2 MSTORE PUSH1 0x2 PUSH1 0x20 SWAP1 DUP2 MSTORE PUSH1 0x40 DUP1 DUP4 KECCAK256 DUP7 DUP5 MSTORE DUP3 MSTORE DUP1 DUP4 KECCAK256 PUSH1 0x1 PUSH1 0x1 PUSH1 0xA0 SHL SUB DUP7 AND DUP5 MSTORE SWAP1 SWAP2 MSTORE SWAP1 KECCAK256 SLOAD PUSH2 0x190D SWAP1 PUSH1 0x1 SWAP1 PUSH2 0x222E JUMP JUMPDEST SWAP5 SWAP4 POP POP POP POP JUMP JUMPDEST PUSH1 0x40 MLOAD PUSH4 0x6EB1769F PUSH1 0xE1 SHL DUP2 MSTORE PUSH1 0x1 PUSH1 0x1 PUSH1 0xA0 SHL SUB DUP6 DUP2 AND PUSH1 0x4 DUP4 ADD MSTORE ADDRESS PUSH1 0x24 DUP4 ADD MSTORE PUSH1 0x0 SWAP2 DUP5 SWAP2 PUSH32 0x0 AND SWAP1 PUSH4 0xDD62ED3E SWAP1 PUSH1 0x44 ADD PUSH1 0x20 PUSH1 0x40 MLOAD DUP1 DUP4 SUB DUP2 DUP7 GAS STATICCALL ISZERO DUP1 ISZERO PUSH2 0x1986 JUMPI RETURNDATASIZE PUSH1 0x0 DUP1 RETURNDATACOPY RETURNDATASIZE PUSH1 0x0 REVERT JUMPDEST POP POP POP POP PUSH1 0x40 MLOAD RETURNDATASIZE PUSH1 0x1F NOT PUSH1 0x1F DUP3 ADD AND DUP3 ADD DUP1 PUSH1 0x40 MSTORE POP DUP2 ADD SWAP1 PUSH2 0x19AA SWAP2 SWAP1 PUSH2 0x20FF JUMP JUMPDEST LT ISZERO DUP1 ISZERO PUSH2 0x1A44 JUMPI POP PUSH1 0x40 MLOAD PUSH4 0x70A08231 PUSH1 0xE0 SHL DUP2 MSTORE PUSH1 0x1 PUSH1 0x1 PUSH1 0xA0 SHL SUB DUP7 DUP2 AND PUSH1 0x4 DUP4 ADD MSTORE DUP5 SWAP2 PUSH32 0x0 SWAP1 SWAP2 AND SWAP1 PUSH4 0x70A08231 SWAP1 PUSH1 0x24 ADD PUSH1 0x20 PUSH1 0x40 MLOAD DUP1 DUP4 SUB DUP2 DUP7 GAS STATICCALL ISZERO DUP1 ISZERO PUSH2 0x1A1D JUMPI RETURNDATASIZE PUSH1 0x0 DUP1 RETURNDATACOPY RETURNDATASIZE PUSH1 0x0 REVERT JUMPDEST POP POP POP POP PUSH1 0x40 MLOAD RETURNDATASIZE PUSH1 0x1F NOT PUSH1 0x1F DUP3 ADD AND DUP3 ADD DUP1 PUSH1 0x40 MSTORE POP DUP2 ADD SWAP1 PUSH2 0x1A41 SWAP2 SWAP1 PUSH2 0x20FF JUMP JUMPDEST LT ISZERO JUMPDEST ISZERO PUSH2 0x1BAC JUMPI PUSH1 0x40 MLOAD PUSH4 0x23B872DD PUSH1 0xE0 SHL DUP2 MSTORE PUSH1 0x1 PUSH1 0x1 PUSH1 0xA0 SHL SUB DUP7 DUP2 AND PUSH1 0x4 DUP4 ADD MSTORE ADDRESS PUSH1 0x24 DUP4 ADD MSTORE PUSH1 0x44 DUP3 ADD DUP6 SWAP1 MSTORE PUSH32 0x0 AND SWAP1 PUSH4 0x23B872DD SWAP1 PUSH1 0x64 ADD PUSH1 0x20 PUSH1 0x40 MLOAD DUP1 DUP4 SUB DUP2 PUSH1 0x0 DUP8 GAS CALL ISZERO DUP1 ISZERO PUSH2 0x1ABE JUMPI RETURNDATASIZE PUSH1 0x0 DUP1 RETURNDATACOPY RETURNDATASIZE PUSH1 0x0 REVERT JUMPDEST POP POP POP POP PUSH1 0x40 MLOAD RETURNDATASIZE PUSH1 0x1F NOT PUSH1 0x1F DUP3 ADD AND DUP3 ADD DUP1 PUSH1 0x40 MSTORE POP DUP2 ADD SWAP1 PUSH2 0x1AE2 SWAP2 SWAP1 PUSH2 0x2339 JUMP JUMPDEST POP PUSH1 0x1 PUSH1 0x1 PUSH1 0xA0 SHL SUB PUSH32 0x0 AND PUSH4 0xA9059CBB DUP6 PUSH1 0x64 PUSH2 0x1B1F DUP7 DUP3 PUSH2 0x222E JUMP JUMPDEST PUSH2 0x1B29 SWAP1 DUP9 PUSH2 0x21EB JUMP JUMPDEST PUSH2 0x1B33 SWAP2 SWAP1 PUSH2 0x2257 JUMP JUMPDEST PUSH1 0x40 MLOAD PUSH1 0x1 PUSH1 0x1 PUSH1 0xE0 SHL SUB NOT PUSH1 0xE0 DUP6 SWAP1 SHL AND DUP2 MSTORE PUSH1 0x1 PUSH1 0x1 PUSH1 0xA0 SHL SUB SWAP1 SWAP3 AND PUSH1 0x4 DUP4 ADD MSTORE PUSH1 0x24 DUP3 ADD MSTORE PUSH1 0x44 ADD PUSH1 0x20 PUSH1 0x40 MLOAD DUP1 DUP4 SUB DUP2 PUSH1 0x0 DUP8 GAS CALL ISZERO DUP1 ISZERO PUSH2 0x1B7E JUMPI RETURNDATASIZE PUSH1 0x0 DUP1 RETURNDATACOPY RETURNDATASIZE PUSH1 0x0 REVERT JUMPDEST POP POP POP POP PUSH1 0x40 MLOAD RETURNDATASIZE PUSH1 0x1F NOT PUSH1 0x1F DUP3 ADD AND DUP3 ADD DUP1 PUSH1 0x40 MSTORE POP DUP2 ADD SWAP1 PUSH2 0x1BA2 SWAP2 SWAP1 PUSH2 0x2339 JUMP JUMPDEST POP PUSH1 0x1 SWAP1 POP PUSH2 0x190D JUMP JUMPDEST POP PUSH1 0x0 SWAP5 SWAP4 POP POP POP POP JUMP JUMPDEST PUSH1 0x0 DUP1 DUP1 PUSH2 0x1BD0 PUSH2 0x1BCB PUSH3 0x15180 DUP7 PUSH2 0x2257 JUMP JUMPDEST PUSH2 0x1BDF JUMP JUMPDEST POP SWAP2 POP SWAP2 POP PUSH2 0x190D DUP3 DUP3 PUSH2 0x1D53 JUMP JUMPDEST PUSH1 0x0 DUP1 DUP1 DUP4 DUP2 PUSH3 0x253D8C PUSH2 0x1BF6 DUP4 PUSH3 0x10BD9 PUSH2 0x2389 JUMP JUMPDEST PUSH2 0x1C00 SWAP2 SWAP1 PUSH2 0x2389 JUMP JUMPDEST SWAP1 POP PUSH1 0x0 PUSH3 0x23AB1 PUSH2 0x1C13 DUP4 PUSH1 0x4 PUSH2 0x23B1 JUMP JUMPDEST PUSH2 0x1C1D SWAP2 SWAP1 PUSH2 0x23E1 JUMP JUMPDEST SWAP1 POP PUSH1 0x4 PUSH2 0x1C2E DUP3 PUSH3 0x23AB1 PUSH2 0x23B1 JUMP JUMPDEST PUSH2 0x1C39 SWAP1 PUSH1 0x3 PUSH2 0x2389 JUMP JUMPDEST PUSH2 0x1C43 SWAP2 SWAP1 PUSH2 0x23E1 JUMP JUMPDEST PUSH2 0x1C4D SWAP1 DUP4 PUSH2 0x240F JUMP JUMPDEST SWAP2 POP PUSH1 0x0 PUSH3 0x164B09 PUSH2 0x1C60 DUP5 PUSH1 0x1 PUSH2 0x2389 JUMP JUMPDEST PUSH2 0x1C6C SWAP1 PUSH2 0xFA0 PUSH2 0x23B1 JUMP JUMPDEST PUSH2 0x1C76 SWAP2 SWAP1 PUSH2 0x23E1 JUMP JUMPDEST SWAP1 POP PUSH1 0x4 PUSH2 0x1C86 DUP3 PUSH2 0x5B5 PUSH2 0x23B1 JUMP JUMPDEST PUSH2 0x1C90 SWAP2 SWAP1 PUSH2 0x23E1 JUMP JUMPDEST PUSH2 0x1C9A SWAP1 DUP5 PUSH2 0x240F JUMP JUMPDEST PUSH2 0x1CA5 SWAP1 PUSH1 0x1F PUSH2 0x2389 JUMP JUMPDEST SWAP3 POP PUSH1 0x0 PUSH2 0x98F PUSH2 0x1CB7 DUP6 PUSH1 0x50 PUSH2 0x23B1 JUMP JUMPDEST PUSH2 0x1CC1 SWAP2 SWAP1 PUSH2 0x23E1 JUMP JUMPDEST SWAP1 POP PUSH1 0x0 PUSH1 0x50 PUSH2 0x1CD3 DUP4 PUSH2 0x98F PUSH2 0x23B1 JUMP JUMPDEST PUSH2 0x1CDD SWAP2 SWAP1 PUSH2 0x23E1 JUMP JUMPDEST PUSH2 0x1CE7 SWAP1 DUP7 PUSH2 0x240F JUMP JUMPDEST SWAP1 POP PUSH2 0x1CF4 PUSH1 0xB DUP4 PUSH2 0x23E1 JUMP JUMPDEST SWAP5 POP PUSH2 0x1D01 DUP6 PUSH1 0xC PUSH2 0x23B1 JUMP JUMPDEST PUSH2 0x1D0C DUP4 PUSH1 0x2 PUSH2 0x2389 JUMP JUMPDEST PUSH2 0x1D16 SWAP2 SWAP1 PUSH2 0x240F JUMP JUMPDEST SWAP2 POP DUP5 DUP4 PUSH2 0x1D25 PUSH1 0x31 DUP8 PUSH2 0x240F JUMP JUMPDEST PUSH2 0x1D30 SWAP1 PUSH1 0x64 PUSH2 0x23B1 JUMP JUMPDEST PUSH2 0x1D3A SWAP2 SWAP1 PUSH2 0x2389 JUMP JUMPDEST PUSH2 0x1D44 SWAP2 SWAP1 PUSH2 0x2389 JUMP JUMPDEST SWAP11 SWAP2 SWAP10 POP SWAP8 POP SWAP6 POP POP POP POP POP POP JUMP JUMPDEST PUSH1 0x0 DUP2 PUSH1 0x1 EQ DUP1 PUSH2 0x1D64 JUMPI POP DUP2 PUSH1 0x3 EQ JUMPDEST DUP1 PUSH2 0x1D6F JUMPI POP DUP2 PUSH1 0x5 EQ JUMPDEST DUP1 PUSH2 0x1D7A JUMPI POP DUP2 PUSH1 0x7 EQ JUMPDEST DUP1 PUSH2 0x1D85 JUMPI POP DUP2 PUSH1 0x8 EQ JUMPDEST DUP1 PUSH2 0x1D90 JUMPI POP DUP2 PUSH1 0xA EQ JUMPDEST DUP1 PUSH2 0x1D9B JUMPI POP DUP2 PUSH1 0xC EQ JUMPDEST ISZERO PUSH2 0x1DA8 JUMPI POP PUSH1 0x1F PUSH2 0x1DD5 JUMP JUMPDEST DUP2 PUSH1 0x2 EQ PUSH2 0x1DB8 JUMPI POP PUSH1 0x1E PUSH2 0x1DD5 JUMP JUMPDEST PUSH2 0x1DC1 DUP4 PUSH2 0x1DDB JUMP JUMPDEST PUSH2 0x1DCC JUMPI PUSH1 0x1C PUSH2 0x1DCF JUMP JUMPDEST PUSH1 0x1D JUMPDEST PUSH1 0xFF AND SWAP1 POP JUMPDEST SWAP3 SWAP2 POP POP JUMP JUMPDEST PUSH1 0x0 PUSH2 0x1DE8 PUSH1 0x4 DUP4 PUSH2 0x2436 JUMP JUMPDEST ISZERO DUP1 ISZERO PUSH2 0x1DFE JUMPI POP PUSH2 0x1DFB PUSH1 0x64 DUP4 PUSH2 0x2436 JUMP JUMPDEST ISZERO ISZERO JUMPDEST DUP1 PUSH2 0x1DD5 JUMPI POP PUSH2 0x1E10 PUSH2 0x190 DUP4 PUSH2 0x2436 JUMP JUMPDEST ISZERO SWAP3 SWAP2 POP POP JUMP JUMPDEST PUSH1 0x0 PUSH1 0x20 DUP3 DUP5 SUB SLT ISZERO PUSH2 0x1E29 JUMPI PUSH1 0x0 DUP1 REVERT JUMPDEST POP CALLDATALOAD SWAP2 SWAP1 POP JUMP JUMPDEST PUSH1 0x0 DUP1 PUSH1 0x40 DUP4 DUP6 SUB SLT ISZERO PUSH2 0x1E43 JUMPI PUSH1 0x0 DUP1 REVERT JUMPDEST POP POP DUP1 CALLDATALOAD SWAP3 PUSH1 0x20 SWAP1 SWAP2 ADD CALLDATALOAD SWAP2 POP JUMP JUMPDEST PUSH1 0x0 DUP1 PUSH1 0x20 DUP4 DUP6 SUB SLT ISZERO PUSH2 0x1E65 JUMPI PUSH1 0x0 DUP1 REVERT JUMPDEST DUP3 CALLDATALOAD PUSH8 0xFFFFFFFFFFFFFFFF DUP1 DUP3 GT ISZERO PUSH2 0x1E7D JUMPI PUSH1 0x0 DUP1 REVERT JUMPDEST DUP2 DUP6 ADD SWAP2 POP DUP6 PUSH1 0x1F DUP4 ADD SLT PUSH2 0x1E91 JUMPI PUSH1 0x0 DUP1 REVERT JUMPDEST DUP2 CALLDATALOAD DUP2 DUP2 GT ISZERO PUSH2 0x1EA0 JUMPI PUSH1 0x0 DUP1 REVERT JUMPDEST DUP7 PUSH1 0x20 DUP3 DUP6 ADD ADD GT ISZERO PUSH2 0x1EB2 JUMPI PUSH1 0x0 DUP1 REVERT JUMPDEST PUSH1 0x20 SWAP3 SWAP1 SWAP3 ADD SWAP7 SWAP2 SWAP6 POP SWAP1 SWAP4 POP POP POP POP JUMP JUMPDEST PUSH1 0x0 JUMPDEST DUP4 DUP2 LT ISZERO PUSH2 0x1EDF JUMPI DUP2 DUP2 ADD MLOAD DUP4 DUP3 ADD MSTORE PUSH1 0x20 ADD PUSH2 0x1EC7 JUMP JUMPDEST POP POP PUSH1 0x0 SWAP2 ADD MSTORE JUMP JUMPDEST PUSH1 0x0 DUP2 MLOAD DUP1 DUP5 MSTORE PUSH2 0x1F00 DUP2 PUSH1 0x20 DUP7 ADD PUSH1 0x20 DUP7 ADD PUSH2 0x1EC4 JUMP JUMPDEST PUSH1 0x1F ADD PUSH1 0x1F NOT AND SWAP3 SWAP1 SWAP3 ADD PUSH1 0x20 ADD SWAP3 SWAP2 POP POP JUMP JUMPDEST DUP3 ISZERO ISZERO DUP2 MSTORE PUSH1 0x40 PUSH1 0x20 DUP3 ADD MSTORE PUSH1 0x0 PUSH2 0x190D PUSH1 0x40 DUP4 ADD DUP5 PUSH2 0x1EE8 JUMP JUMPDEST PUSH1 0x1 PUSH1 0x1 PUSH1 0xA0 SHL SUB DUP2 AND DUP2 EQ PUSH2 0xFB8 JUMPI PUSH1 0x0 DUP1 REVERT JUMPDEST PUSH1 0x0 DUP1 PUSH1 0x0 PUSH1 0x60 DUP5 DUP7 SUB SLT ISZERO PUSH2 0x1F59 JUMPI PUSH1 0x0 DUP1 REVERT JUMPDEST DUP4 CALLDATALOAD SWAP3 POP PUSH1 0x20 DUP5 ADD CALLDATALOAD SWAP2 POP PUSH1 0x40 DUP5 ADD CALLDATALOAD PUSH2 0x1F72 DUP2 PUSH2 0x1F2F JUMP JUMPDEST DUP1 SWAP2 POP POP SWAP3 POP SWAP3 POP SWAP3 JUMP JUMPDEST PUSH1 0x20 DUP2 MSTORE PUSH1 0x0 PUSH2 0x1F90 PUSH1 0x20 DUP4 ADD DUP5 PUSH2 0x1EE8 JUMP JUMPDEST SWAP4 SWAP3 POP POP POP JUMP JUMPDEST SWAP3 DUP4 MSTORE PUSH1 0x20 DUP4 ADD SWAP2 SWAP1 SWAP2 MSTORE PUSH1 0x1 PUSH1 0x1 PUSH1 0xA0 SHL SUB AND PUSH1 0x40 DUP3 ADD MSTORE PUSH1 0x60 ADD SWAP1 JUMP JUMPDEST PUSH4 0x4E487B71 PUSH1 0xE0 SHL PUSH1 0x0 MSTORE PUSH1 0x41 PUSH1 0x4 MSTORE PUSH1 0x24 PUSH1 0x0 REVERT JUMPDEST PUSH1 0x40 MLOAD PUSH1 0x1F DUP3 ADD PUSH1 0x1F NOT AND DUP2 ADD PUSH8 0xFFFFFFFFFFFFFFFF DUP2 GT DUP3 DUP3 LT OR ISZERO PUSH2 0x1FF5 JUMPI PUSH2 0x1FF5 PUSH2 0x1FB6 JUMP JUMPDEST PUSH1 0x40 MSTORE SWAP2 SWAP1 POP JUMP JUMPDEST DUP1 CALLDATALOAD PUSH2 0x2008 DUP2 PUSH2 0x1F2F JUMP JUMPDEST SWAP2 SWAP1 POP JUMP JUMPDEST PUSH1 0x0 DUP1 PUSH1 0x40 DUP4 DUP6 SUB SLT ISZERO PUSH2 0x2020 JUMPI PUSH1 0x0 DUP1 REVERT JUMPDEST DUP3 CALLDATALOAD PUSH8 0xFFFFFFFFFFFFFFFF DUP1 DUP3 GT ISZERO PUSH2 0x2038 JUMPI PUSH1 0x0 DUP1 REVERT JUMPDEST DUP2 DUP6 ADD SWAP2 POP DUP6 PUSH1 0x1F DUP4 ADD SLT PUSH2 0x204C JUMPI PUSH1 0x0 DUP1 REVERT JUMPDEST DUP2 CALLDATALOAD PUSH1 0x20 DUP3 DUP3 GT ISZERO PUSH2 0x2060 JUMPI PUSH2 0x2060 PUSH2 0x1FB6 JUMP JUMPDEST DUP2 PUSH1 0x5 SHL SWAP3 POP PUSH2 0x2071 DUP2 DUP5 ADD PUSH2 0x1FCC JUMP JUMPDEST DUP3 DUP2 MSTORE SWAP3 DUP5 ADD DUP2 ADD SWAP3 DUP2 DUP2 ADD SWAP1 DUP10 DUP6 GT ISZERO PUSH2 0x208B JUMPI PUSH1 0x0 DUP1 REVERT JUMPDEST SWAP5 DUP3 ADD SWAP5 JUMPDEST DUP5 DUP7 LT ISZERO PUSH2 0x20A9 JUMPI DUP6 CALLDATALOAD DUP3 MSTORE SWAP5 DUP3 ADD SWAP5 SWAP1 DUP3 ADD SWAP1 PUSH2 0x2090 JUMP JUMPDEST SWAP7 POP PUSH2 0x20B8 SWAP1 POP DUP8 DUP3 ADD PUSH2 0x1FFD JUMP JUMPDEST SWAP5 POP POP POP POP POP SWAP3 POP SWAP3 SWAP1 POP JUMP JUMPDEST PUSH4 0x4E487B71 PUSH1 0xE0 SHL PUSH1 0x0 MSTORE PUSH1 0x32 PUSH1 0x4 MSTORE PUSH1 0x24 PUSH1 0x0 REVERT JUMPDEST PUSH1 0x0 DUP1 PUSH1 0x40 DUP4 DUP6 SUB SLT ISZERO PUSH2 0x20EE JUMPI PUSH1 0x0 DUP1 REVERT JUMPDEST POP POP DUP1 MLOAD PUSH1 0x20 SWAP1 SWAP2 ADD MLOAD SWAP1 SWAP3 SWAP1 SWAP2 POP JUMP JUMPDEST PUSH1 0x0 PUSH1 0x20 DUP3 DUP5 SUB SLT ISZERO PUSH2 0x2111 JUMPI PUSH1 0x0 DUP1 REVERT JUMPDEST POP MLOAD SWAP2 SWAP1 POP JUMP JUMPDEST PUSH1 0x0 DUP1 PUSH1 0x0 PUSH1 0x60 DUP5 DUP7 SUB SLT ISZERO PUSH2 0x212D JUMPI PUSH1 0x0 DUP1 REVERT JUMPDEST DUP4 MLOAD PUSH2 0x2138 DUP2 PUSH2 0x1F2F JUMP JUMPDEST PUSH1 0x20 DUP6 ADD MLOAD SWAP1 SWAP4 POP PUSH2 0x2149 DUP2 PUSH2 0x1F2F JUMP JUMPDEST PUSH1 0x40 DUP6 ADD MLOAD SWAP1 SWAP3 POP PUSH8 0xFFFFFFFFFFFFFFFF DUP1 DUP3 GT ISZERO PUSH2 0x2167 JUMPI PUSH1 0x0 DUP1 REVERT JUMPDEST DUP2 DUP7 ADD SWAP2 POP DUP7 PUSH1 0x1F DUP4 ADD SLT PUSH2 0x217B JUMPI PUSH1 0x0 DUP1 REVERT JUMPDEST DUP2 MLOAD DUP2 DUP2 GT ISZERO PUSH2 0x218D JUMPI PUSH2 0x218D PUSH2 0x1FB6 JUMP JUMPDEST PUSH2 0x21A0 PUSH1 0x1F DUP3 ADD PUSH1 0x1F NOT AND PUSH1 0x20 ADD PUSH2 0x1FCC JUMP JUMPDEST SWAP2 POP DUP1 DUP3 MSTORE DUP8 PUSH1 0x20 DUP3 DUP6 ADD ADD GT ISZERO PUSH2 0x21B7 JUMPI PUSH1 0x0 DUP1 REVERT JUMPDEST PUSH2 0x21C8 DUP2 PUSH1 0x20 DUP5 ADD PUSH1 0x20 DUP7 ADD PUSH2 0x1EC4 JUMP JUMPDEST POP DUP1 SWAP3 POP POP POP SWAP3 POP SWAP3 POP SWAP3 JUMP JUMPDEST PUSH4 0x4E487B71 PUSH1 0xE0 SHL PUSH1 0x0 MSTORE PUSH1 0x11 PUSH1 0x4 MSTORE PUSH1 0x24 PUSH1 0x0 REVERT JUMPDEST DUP1 DUP3 MUL DUP2 ISZERO DUP3 DUP3 DIV DUP5 EQ OR PUSH2 0x1DD5 JUMPI PUSH2 0x1DD5 PUSH2 0x21D5 JUMP JUMPDEST DUP1 DUP3 ADD DUP1 DUP3 GT ISZERO PUSH2 0x1DD5 JUMPI PUSH2 0x1DD5 PUSH2 0x21D5 JUMP JUMPDEST PUSH1 0x0 PUSH1 0x1 DUP3 ADD PUSH2 0x2227 JUMPI PUSH2 0x2227 PUSH2 0x21D5 JUMP JUMPDEST POP PUSH1 0x1 ADD SWAP1 JUMP JUMPDEST DUP2 DUP2 SUB DUP2 DUP2 GT ISZERO PUSH2 0x1DD5 JUMPI PUSH2 0x1DD5 PUSH2 0x21D5 JUMP JUMPDEST PUSH4 0x4E487B71 PUSH1 0xE0 SHL PUSH1 0x0 MSTORE PUSH1 0x12 PUSH1 0x4 MSTORE PUSH1 0x24 PUSH1 0x0 REVERT JUMPDEST PUSH1 0x0 DUP3 PUSH2 0x2266 JUMPI PUSH2 0x2266 PUSH2 0x2241 JUMP JUMPDEST POP DIV SWAP1 JUMP JUMPDEST PUSH1 0x0 DUP1 PUSH1 0x0 DUP1 PUSH1 0x0 PUSH1 0xA0 DUP7 DUP9 SUB SLT ISZERO PUSH2 0x2283 JUMPI PUSH1 0x0 DUP1 REVERT JUMPDEST DUP6 CALLDATALOAD SWAP5 POP PUSH1 0x20 DUP7 ADD CALLDATALOAD SWAP4 POP PUSH1 0x40 DUP7 ADD CALLDATALOAD SWAP3 POP PUSH1 0x60 DUP7 ADD CALLDATALOAD SWAP2 POP PUSH1 0x80 DUP7 ADD CALLDATALOAD PUSH2 0x22AA DUP2 PUSH2 0x1F2F JUMP JUMPDEST DUP1 SWAP2 POP POP SWAP3 SWAP6 POP SWAP3 SWAP6 SWAP1 SWAP4 POP JUMP JUMPDEST PUSH1 0x40 DUP1 DUP3 MSTORE DUP4 MLOAD SWAP1 DUP3 ADD DUP2 SWAP1 MSTORE PUSH1 0x0 SWAP1 PUSH1 0x20 SWAP1 PUSH1 0x60 DUP5 ADD SWAP1 DUP3 DUP8 ADD DUP5 JUMPDEST DUP3 DUP2 LT ISZERO PUSH2 0x22F1 JUMPI DUP2 MLOAD DUP5 MSTORE SWAP3 DUP5 ADD SWAP3 SWAP1 DUP5 ADD SWAP1 PUSH1 0x1 ADD PUSH2 0x22D5 JUMP JUMPDEST POP POP POP PUSH1 0x1 PUSH1 0x1 PUSH1 0xA0 SHL SUB SWAP5 SWAP1 SWAP5 AND SWAP3 ADD SWAP2 SWAP1 SWAP2 MSTORE POP SWAP2 SWAP1 POP JUMP JUMPDEST PUSH1 0x0 PUSH1 0x20 DUP3 DUP5 SUB SLT ISZERO PUSH2 0x231E JUMPI PUSH1 0x0 DUP1 REVERT JUMPDEST DUP2 MLOAD PUSH2 0x1F90 DUP2 PUSH2 0x1F2F JUMP JUMPDEST DUP1 MLOAD DUP1 ISZERO ISZERO DUP2 EQ PUSH2 0x2008 JUMPI PUSH1 0x0 DUP1 REVERT JUMPDEST PUSH1 0x0 PUSH1 0x20 DUP3 DUP5 SUB SLT ISZERO PUSH2 0x234B JUMPI PUSH1 0x0 DUP1 REVERT JUMPDEST PUSH2 0x1F90 DUP3 PUSH2 0x2329 JUMP JUMPDEST PUSH1 0x0 DUP1 PUSH1 0x0 PUSH1 0x60 DUP5 DUP7 SUB SLT ISZERO PUSH2 0x2369 JUMPI PUSH1 0x0 DUP1 REVERT JUMPDEST DUP4 MLOAD SWAP3 POP PUSH1 0x20 DUP5 ADD MLOAD SWAP2 POP PUSH2 0x2380 PUSH1 0x40 DUP6 ADD PUSH2 0x2329 JUMP JUMPDEST SWAP1 POP SWAP3 POP SWAP3 POP SWAP3 JUMP JUMPDEST DUP1 DUP3 ADD DUP3 DUP2 SLT PUSH1 0x0 DUP4 SLT DUP1 ISZERO DUP3 AND DUP3 ISZERO DUP3 AND OR ISZERO PUSH2 0x23A9 JUMPI PUSH2 0x23A9 PUSH2 0x21D5 JUMP JUMPDEST POP POP SWAP3 SWAP2 POP POP JUMP JUMPDEST DUP1 DUP3 MUL PUSH1 0x0 DUP3 SLT PUSH1 0x1 PUSH1 0xFF SHL DUP5 EQ AND ISZERO PUSH2 0x23CD JUMPI PUSH2 0x23CD PUSH2 0x21D5 JUMP JUMPDEST DUP2 DUP2 SDIV DUP4 EQ DUP3 ISZERO OR PUSH2 0x1DD5 JUMPI PUSH2 0x1DD5 PUSH2 0x21D5 JUMP JUMPDEST PUSH1 0x0 DUP3 PUSH2 0x23F0 JUMPI PUSH2 0x23F0 PUSH2 0x2241 JUMP JUMPDEST PUSH1 0x1 PUSH1 0xFF SHL DUP3 EQ PUSH1 0x0 NOT DUP5 EQ AND ISZERO PUSH2 0x240A JUMPI PUSH2 0x240A PUSH2 0x21D5 JUMP JUMPDEST POP SDIV SWAP1 JUMP JUMPDEST DUP2 DUP2 SUB PUSH1 0x0 DUP4 SLT DUP1 ISZERO DUP4 DUP4 SGT AND DUP4 DUP4 SLT DUP3 AND OR ISZERO PUSH2 0x242F JUMPI PUSH2 0x242F PUSH2 0x21D5 JUMP JUMPDEST POP SWAP3 SWAP2 POP POP JUMP JUMPDEST PUSH1 0x0 DUP3 PUSH2 0x2445 JUMPI PUSH2 0x2445 PUSH2 0x2241 JUMP JUMPDEST POP MOD SWAP1 JUMP INVALID LOG2 PUSH5 0x6970667358 0x22 SLT KECCAK256 0xDB PUSH8 0xADEB4B66EBB9061B 0xFC BYTE PUSH24 0x91AF444F8B20A46D2EB25912817AADCC51C45164736F6C63 NUMBER STOP ADDMOD GT STOP CALLER ",
  "sha1": "3b099cded4012447764eb8952e0e3caa06e47ac7",
  "source": "// SPDX-License-Identifier: MIT\npragma solidity ^0.8.17;\n\nimport \"@openzeppelin/contracts/token/ERC20/IERC20.sol\";\n\nimport \"./utils/DateTimeLibrary.sol\";\nimport \"./BBErrorsV01.sol\";\nimport \"./interfaces/IBBProfiles.sol\";\nimport \"./interfaces/IBBTiers.sol\";\nimport \"./interfaces/IBBSubscriptionsFactory.sol\";\nimport \"./interfaces/IBBSubscriptions.sol\";\n\ncontract BBSubscriptions is IBBSubscriptions {\n    event Subscribed(\n        uint256 profileId,\n        uint256 tierId,\n        address subscriber\n    );\n\n    event Unsubscribed (\n        uint256 profileId,\n        uint256 tierId,\n        address subscriber\n    );\n\n    struct Subscription {\n        uint256 profileId;\n        uint256 tierId;\n        address subscriber;\n        uint256 price;\n        uint256 expiration;\n        bool cancelled;\n    }\n\n    // Subscription ID => Subscription\n    mapping (uint256 => Subscription) internal _subscriptions;\n    uint256 internal _totalSubscriptions;\n\n    // Profile ID => Tier ID => Subscriber => Subscription ID + 1\n    mapping(uint256 => mapping(uint256 => mapping(address => uint256))) internal _subscriptionIndexes;\n\n    uint256 internal _upkeepGasRequirement = 225000;\n\n    IBBProfiles internal immutable _bbProfiles;\n    IBBTiers internal immutable _bbTiers;\n    IBBSubscriptionsFactory internal immutable _bbSubscriptionsFactory;\n\n    IERC20 internal immutable _currency;\n\n    constructor(address bbProfiles, address bbTiers, address bbSubscriptionsFactory, address currency) {\n        _bbProfiles = IBBProfiles(bbProfiles);\n        _bbTiers = IBBTiers(bbTiers);\n        _bbSubscriptionsFactory = IBBSubscriptionsFactory(bbSubscriptionsFactory);\n\n        _currency = IERC20(currency);\n    }\n\n    /*\n        @dev Reverts if msg.sender is not upkeepGasRequirementOwner\n    */\n    modifier onlySubscriptionsFactory {\n        require(msg.sender == address(_bbSubscriptionsFactory), BBErrorCodesV01.NOT_OWNER);\n        _;\n    }\n\n    /*\n        @dev Transfer ERC20 tokens from address to receiver and treasury\n\n        @param ERC20 token owner\n        @param ERC20 token receiver\n        @param ERC20 token amount\n        @param Treasury contribution percentage\n\n        @return True if transfer succeeded, otherwise false\n    */\n    function _pay(address owner, address receiver, uint256 amount, uint256 treasuryContribution) internal returns (bool) {\n        // Check that the contract has enough allowance to process this transfer\n        if ((_currency.allowance(owner, address(this)) >= amount) && _currency.balanceOf(owner) >= amount) { \n            _currency.transferFrom(owner, address(this), amount);\n\n            _currency.transfer(receiver, (amount * (100 - treasuryContribution)) / 100);\n\n            // Payment processed\n            return true;\n        } \n\n        // Insufficient funds\n        return false;\n    }\n\n    /*\n        @notice Renew subscriptions within a range\n\n        @param Array of subscription IDs to renew and refund receiver packed into bytes array\n    */\n    function performUpkeep(bytes calldata renewalData) external override {\n        (uint256[] memory renewIndexes, address refundReceiver) = abi.decode(renewalData, (uint256[], address));\n        \n        uint256 gasAtStart = gasleft();\n        uint256 renewCount;\n\n        for(uint256 i; i < renewIndexes.length; i++) {\n            if(_subscriptions[renewIndexes[i]].expiration < block.timestamp && _subscriptions[renewIndexes[i]].cancelled == false) {\n                (uint256 tierSet, uint256 contribution) = _bbSubscriptionsFactory.getSubscriptionProfile(_subscriptions[renewIndexes[i]].profileId);\n\n                // Check the subscription tier still exists\n                if(_subscriptions[renewIndexes[i]].tierId < _bbTiers.totalTiers(_subscriptions[renewIndexes[i]].profileId, tierSet)) {\n                    (,address profileReceiver,) = _bbProfiles.getProfile(_subscriptions[renewIndexes[i]].profileId);\n\n                    bool paid = _pay(\n                        _subscriptions[renewIndexes[i]].subscriber,\n                        profileReceiver,\n                        _subscriptions[renewIndexes[i]].price,\n                        contribution\n                    );\n\n                    if(paid) {\n                        // Subscription payment succeeded, so extended expiration timestamp\n                        _subscriptions[renewIndexes[i]].expiration = block.timestamp + (DateTimeLibrary.getDaysInMonth(block.timestamp) * 1 days);    \n\n                        renewCount++;\n                        continue;\n                    }\n                }\n\n                // Subscription payment failed, or subscription tier no longer exists, therefore cancel the subscription\n                _subscriptions[renewIndexes[i]].cancelled = true;\n\n                emit Unsubscribed(_subscriptions[renewIndexes[i]].profileId, _subscriptions[renewIndexes[i]].tierId, _subscriptions[renewIndexes[i]].subscriber);\n\n                renewCount++;\n            }\n        }\n\n        require(renewCount > 0, BBErrorCodesV01.UPKEEP_FAIL);\n\n        // Calculate the gas refund, add 30327 gas for the rest of the function, 26215 for decoding the renewal data, and 423 multiplied by the number of indexes renewed\n        uint256 gasBudget = (_upkeepGasRequirement * _bbSubscriptionsFactory.getGasPrice()) * renewCount;\n        uint256 refund = (gasAtStart - gasleft() + (56542 + (423 * renewCount))) * _bbSubscriptionsFactory.getGasPrice();\n        // Invalid ID refund penalty\n        refund = refund - ((refund / renewIndexes.length) * (renewIndexes.length - renewCount));\n\n        // Check the refund isnt greater than the gas budget\n        if (refund > gasBudget) {\n            refund = gasBudget;\n        }\n\n        // Transfer gas refund to refund receiver\n        refundReceiver.call{value: refund}(\"\");\n    }\n\n    /*\n        @notice Check if there are subscriptions to renew within a range\n\n        @param Lower bound, upper bound, minimum number of IDs to renew, maximum number of IDs to renew, and refund receiver packed into bytes array\n\n        @return True if there are subscriptions to renew within the lower and upper bound, otherwise false\n        @return Array of subscription IDs to renew and refund receiver packed into bytes array\n    */\n    function checkUpkeep(bytes calldata checkData) external view override returns (bool, bytes memory) {\n        (uint256 lowerBound, uint256 upperBound, uint256 minRenews, uint256 maxRenews, address refundReceiver) = abi.decode(checkData, (uint256, uint256, uint256, uint256, address));\n\n        // Limit upper bound within total subscriptions\n        if(upperBound >= _totalSubscriptions) {\n            upperBound = _totalSubscriptions - 1;\n        }\n\n        // Lower bound must be less than upper bound\n        require(lowerBound <= upperBound, BBErrorCodesV01.OUT_OF_BOUNDS);\n\n        uint256 renewalCount;\n        uint256 checkLength = (upperBound - lowerBound) + 1;\n\n        uint256[] memory maxRenewIndexes = new uint256[](maxRenews);\n\n        for(uint256 i; i < checkLength; i++) {\n            uint256 subscriptionIndex = lowerBound + i;\n\n            // If subscription has expired, increment total number of subscriptions to renew\n            if(_subscriptions[subscriptionIndex].expiration < block.timestamp && _subscriptions[subscriptionIndex].cancelled == false) {               \n                maxRenewIndexes[renewalCount] = subscriptionIndex;\n                renewalCount++;\n\n                if(renewalCount >= maxRenews) {\n                    break;\n                }\n            }\n        }\n\n        // If subscriptions to renew is zero or less than minimum required renewals, return false\n        if(renewalCount == 0 || renewalCount < minRenews) {\n            return (false, \"\");\n        }\n\n        // Return the maximum number of indexes that can be renewed\n        if(renewalCount == maxRenews) {\n            return (true, abi.encode(maxRenewIndexes, refundReceiver));\n        }\n\n        // Resize renewal indexes array\n        uint256[] memory renewIndexes = new uint256[](renewalCount);\n\n        for(uint256 i; i < renewalCount; i++) {\n            renewIndexes[i] = maxRenewIndexes[i];\n        }\n\n        return (true, abi.encode(renewIndexes, refundReceiver));\n    }\n\n    /*\n        @notice Subscribe to a profile\n\n        @param Profile ID\n        @param Tier ID\n        \n        @return Subscription ID\n    */\n    function subscribe(uint256 profileId, uint256 tierId) external payable override returns(uint256 subscriptionId) {\n        require(msg.value >= getSubscriptionGasRequirement(), BBErrorCodesV01.INSUFFICIENT_PREPAID_GAS);\n\n        if(_bbSubscriptionsFactory.isSubscriptionActive(profileId, tierId, msg.sender) == true) {\n            (,,bool cancelled) = IBBSubscriptions(_bbSubscriptionsFactory.getDeployedSubscriptions(_bbSubscriptionsFactory.getSubscriptionCurrency(profileId, tierId, msg.sender))).getSubscription(profileId, tierId, msg.sender);\n            require(cancelled == true, BBErrorCodesV01.SUBSCRIPTION_ACTIVE);\n        }\n\n        (uint256 tierSet,) = _bbSubscriptionsFactory.getSubscriptionProfile(profileId);\n\n        uint256 price = _bbTiers.getTierPrice(profileId, tierSet, tierId, address(_currency));\n\n        require(_currency.allowance(msg.sender, address(this)) >= price * 60, BBErrorCodesV01.INSUFFICIENT_ALLOWANCE);\n\n        subscriptionId = _totalSubscriptions;\n\n        if(_subscriptionIndexes[profileId][tierId][msg.sender] == 0) {\n            _subscriptionIndexes[profileId][tierId][msg.sender] = _totalSubscriptions + 1;\n            _totalSubscriptions++;\n        }\n        else {\n            subscriptionId = _subscriptionIndexes[profileId][tierId][msg.sender] - 1;\n        }\n\n        _subscriptions[subscriptionId] = Subscription(\n            profileId, \n            tierId, \n            msg.sender, \n            price,\n            block.timestamp + 30 days, \n            false\n        ); \n\n        (,address profileReceiver,) = _bbProfiles.getProfile(profileId);\n        (,uint256 contribution) = _bbSubscriptionsFactory.getSubscriptionProfile(profileId);\n\n        require(_pay(msg.sender, profileReceiver, price, contribution ), BBErrorCodesV01.INSUFFICIENT_BALANCE);\n\n        _bbSubscriptionsFactory.setSubscriptionCurrency(profileId, tierId, msg.sender, address(_currency));\n\n        withdrawToTreasury();\n\n        emit Subscribed(profileId, tierId, msg.sender);\n    }\n\n    /*\n        @notice Unsubscribe from a profile\n\n        @param Profile ID\n        @param Tier ID        \n    */\n    function unsubscribe(uint256 profileId, uint256 tierId) external override {\n        uint256 id = _getSubscriptionId(profileId, tierId, msg.sender);\n        require(_subscriptions[id].subscriber == msg.sender, BBErrorCodesV01.NOT_SUBSCRIPTION_OWNER);\n        require(_subscriptions[id].cancelled == false, BBErrorCodesV01.SUBSCRIPTION_CANCELLED);\n\n        _subscriptions[id].cancelled = true;\n\n        emit Unsubscribed(profileId, tierId, msg.sender);\n    }\n\n    /*\n        @notice Get subscription gas requirement\n\n        @return Subscription gas requirement\n    */\n    function getUpkeepGasRequirement() external view override returns (uint256) {\n        return _upkeepGasRequirement;\n    }\n\n    /*\n        @notice Set the subscription gas requirement\n\n        @param Subscription gas requirement\n    */\n    function setUpkeepGasRequirement(uint256 requirement) external override onlySubscriptionsFactory {\n        _upkeepGasRequirement = requirement;\n    }\n    \n    /*\n        @notice Gas required to subscribe\n\n        @return 5 years of gas for subscription\n    */   \n    function getSubscriptionGasRequirement() public view override returns(uint256) {\n        return _upkeepGasRequirement * _bbSubscriptionsFactory.getGasPrice() * 60;\n    }\n\n    /*\n        @notice Transfers this contracts tokens to the subscription factory treasury\n    */\n    function withdrawToTreasury() public {\n        _currency.transfer(_bbSubscriptionsFactory.getTreasury(), _currency.balanceOf(address(this)));\n    }\n\n    /*\n        @notice Get a subscriptions values\n\n        @param Profile ID\n        @param Tier ID\n        @param Subscriber\n\n        @return Price (monthly)\n        @return Expiration\n        @return Subscription cancelled\n    */\n    function getSubscription(uint256 profileId, uint256 tierId, address subscriber) external view returns (uint256, uint256, bool) {\n        uint256 id = _getSubscriptionId(profileId, tierId, subscriber);\n\n        return (\n            _subscriptions[id].price,\n            _subscriptions[id].expiration,\n            _subscriptions[id].cancelled\n        );\n    }\n\n    /*\n        @dev Get a subscription ID\n\n        @param Profile ID\n        @param Tier ID\n        @param Subscriber\n\n        @return Subscription ID\n    */\n    function _getSubscriptionId(uint256 profileId, uint256 tierId, address subscriber) internal view returns (uint256) {\n        require(_subscriptionIndexes[profileId][tierId][subscriber] > 0, BBErrorCodesV01.SUBSCRIPTION_NOT_EXIST);\n        return _subscriptionIndexes[profileId][tierId][subscriber] - 1;\n    }\n}",
  "sourcePath": "contracts/BBSubscriptions.sol",
  "type": "contract"
}