{
  "abi": [
    {
      "inputs": [
        {
          "internalType": "address",
          "name": "bbProfiles",
          "type": "address"
        },
        {
          "internalType": "address",
          "name": "bbTiers",
          "type": "address"
        },
        {
          "internalType": "address",
          "name": "treasury",
          "type": "address"
        }
      ],
      "stateMutability": "nonpayable",
      "type": "constructor"
    },
    {
      "anonymous": false,
      "inputs": [
        {
          "indexed": false,
          "internalType": "address",
          "name": "currency",
          "type": "address"
        },
        {
          "indexed": false,
          "internalType": "address",
          "name": "deployedAddress",
          "type": "address"
        }
      ],
      "name": "DeployedSubscription",
      "type": "event"
    },
    {
      "anonymous": false,
      "inputs": [
        {
          "indexed": false,
          "internalType": "uint256",
          "name": "profileId",
          "type": "uint256"
        },
        {
          "indexed": false,
          "internalType": "uint256",
          "name": "contribution",
          "type": "uint256"
        }
      ],
      "name": "EditContribution",
      "type": "event"
    },
    {
      "anonymous": false,
      "inputs": [
        {
          "indexed": false,
          "internalType": "uint256",
          "name": "profileId",
          "type": "uint256"
        },
        {
          "indexed": false,
          "internalType": "uint256",
          "name": "tierSetId",
          "type": "uint256"
        },
        {
          "indexed": false,
          "internalType": "uint256",
          "name": "contribution",
          "type": "uint256"
        }
      ],
      "name": "NewSubscriptionProfile",
      "type": "event"
    },
    {
      "anonymous": false,
      "inputs": [
        {
          "indexed": true,
          "internalType": "address",
          "name": "previousOwner",
          "type": "address"
        },
        {
          "indexed": true,
          "internalType": "address",
          "name": "newOwner",
          "type": "address"
        }
      ],
      "name": "OwnershipTransferred",
      "type": "event"
    },
    {
      "inputs": [
        {
          "internalType": "uint256",
          "name": "profileId",
          "type": "uint256"
        },
        {
          "internalType": "uint256",
          "name": "tierSetId",
          "type": "uint256"
        },
        {
          "internalType": "uint256",
          "name": "contribution",
          "type": "uint256"
        }
      ],
      "name": "createSubscriptionProfile",
      "outputs": [],
      "stateMutability": "nonpayable",
      "type": "function"
    },
    {
      "inputs": [
        {
          "internalType": "address",
          "name": "currency",
          "type": "address"
        }
      ],
      "name": "deploySubscriptions",
      "outputs": [
        {
          "internalType": "address",
          "name": "",
          "type": "address"
        }
      ],
      "stateMutability": "nonpayable",
      "type": "function"
    },
    {
      "inputs": [],
      "name": "getContributionBounds",
      "outputs": [
        {
          "internalType": "uint256",
          "name": "",
          "type": "uint256"
        },
        {
          "internalType": "uint256",
          "name": "",
          "type": "uint256"
        }
      ],
      "stateMutability": "pure",
      "type": "function"
    },
    {
      "inputs": [
        {
          "internalType": "address",
          "name": "currency",
          "type": "address"
        }
      ],
      "name": "getDeployedSubscriptions",
      "outputs": [
        {
          "internalType": "address",
          "name": "",
          "type": "address"
        }
      ],
      "stateMutability": "view",
      "type": "function"
    },
    {
      "inputs": [],
      "name": "getGracePeriod",
      "outputs": [
        {
          "internalType": "uint256",
          "name": "",
          "type": "uint256"
        }
      ],
      "stateMutability": "pure",
      "type": "function"
    },
    {
      "inputs": [
        {
          "internalType": "uint256",
          "name": "profileId",
          "type": "uint256"
        },
        {
          "internalType": "uint256",
          "name": "tierId",
          "type": "uint256"
        },
        {
          "internalType": "address",
          "name": "account",
          "type": "address"
        }
      ],
      "name": "getSubscriptionCurrency",
      "outputs": [
        {
          "internalType": "address",
          "name": "",
          "type": "address"
        }
      ],
      "stateMutability": "view",
      "type": "function"
    },
    {
      "inputs": [],
      "name": "getSubscriptionGasRequirement",
      "outputs": [
        {
          "internalType": "uint256",
          "name": "",
          "type": "uint256"
        }
      ],
      "stateMutability": "view",
      "type": "function"
    },
    {
      "inputs": [
        {
          "internalType": "uint256",
          "name": "profileId",
          "type": "uint256"
        }
      ],
      "name": "getSubscriptionProfile",
      "outputs": [
        {
          "internalType": "uint256",
          "name": "",
          "type": "uint256"
        },
        {
          "internalType": "uint256",
          "name": "",
          "type": "uint256"
        }
      ],
      "stateMutability": "view",
      "type": "function"
    },
    {
      "inputs": [],
      "name": "getTreasury",
      "outputs": [
        {
          "internalType": "address",
          "name": "",
          "type": "address"
        }
      ],
      "stateMutability": "view",
      "type": "function"
    },
    {
      "inputs": [
        {
          "internalType": "uint256",
          "name": "profileId",
          "type": "uint256"
        },
        {
          "internalType": "uint256",
          "name": "tierId",
          "type": "uint256"
        },
        {
          "internalType": "address",
          "name": "account",
          "type": "address"
        }
      ],
      "name": "isSubscriptionActive",
      "outputs": [
        {
          "internalType": "bool",
          "name": "",
          "type": "bool"
        }
      ],
      "stateMutability": "view",
      "type": "function"
    },
    {
      "inputs": [
        {
          "internalType": "uint256",
          "name": "profileId",
          "type": "uint256"
        }
      ],
      "name": "isSubscriptionProfileCreated",
      "outputs": [
        {
          "internalType": "bool",
          "name": "",
          "type": "bool"
        }
      ],
      "stateMutability": "view",
      "type": "function"
    },
    {
      "inputs": [
        {
          "internalType": "address",
          "name": "currency",
          "type": "address"
        }
      ],
      "name": "isSubscriptionsDeployed",
      "outputs": [
        {
          "internalType": "bool",
          "name": "",
          "type": "bool"
        }
      ],
      "stateMutability": "view",
      "type": "function"
    },
    {
      "inputs": [],
      "name": "owner",
      "outputs": [
        {
          "internalType": "address",
          "name": "",
          "type": "address"
        }
      ],
      "stateMutability": "view",
      "type": "function"
    },
    {
      "inputs": [],
      "name": "renounceOwnership",
      "outputs": [],
      "stateMutability": "nonpayable",
      "type": "function"
    },
    {
      "inputs": [
        {
          "internalType": "uint256",
          "name": "profileId",
          "type": "uint256"
        },
        {
          "internalType": "uint256",
          "name": "contribution",
          "type": "uint256"
        }
      ],
      "name": "setContribution",
      "outputs": [],
      "stateMutability": "nonpayable",
      "type": "function"
    },
    {
      "inputs": [
        {
          "internalType": "uint256",
          "name": "profileId",
          "type": "uint256"
        },
        {
          "internalType": "uint256",
          "name": "tierId",
          "type": "uint256"
        },
        {
          "internalType": "address",
          "name": "account",
          "type": "address"
        },
        {
          "internalType": "address",
          "name": "currency",
          "type": "address"
        }
      ],
      "name": "setSubscriptionCurrency",
      "outputs": [],
      "stateMutability": "nonpayable",
      "type": "function"
    },
    {
      "inputs": [
        {
          "internalType": "uint256",
          "name": "requirement",
          "type": "uint256"
        }
      ],
      "name": "setSubscriptionGasRequirement",
      "outputs": [],
      "stateMutability": "nonpayable",
      "type": "function"
    },
    {
      "inputs": [
        {
          "internalType": "address",
          "name": "account",
          "type": "address"
        }
      ],
      "name": "setTreasury",
      "outputs": [],
      "stateMutability": "nonpayable",
      "type": "function"
    },
    {
      "inputs": [
        {
          "internalType": "address",
          "name": "newOwner",
          "type": "address"
        }
      ],
      "name": "transferOwnership",
      "outputs": [],
      "stateMutability": "nonpayable",
      "type": "function"
    }
  ],
  "bytecode": "60c06040526305f5e1006001553480156200001957600080fd5b5060405162003894380380620038948339810160408190526200003c91620000e3565b620000473362000076565b6001600160a01b0392831660805290821660a052600580546001600160a01b031916919092161790556200012d565b600080546001600160a01b038381166001600160a01b0319831681178455604051919092169283917f8be0079c531659141344cd1fd0a4f28419497f9722a3daafe3b4186f6b6457e09190a35050565b80516001600160a01b0381168114620000de57600080fd5b919050565b600080600060608486031215620000f957600080fd5b6200010484620000c6565b92506200011460208501620000c6565b91506200012460408501620000c6565b90509250925092565b60805160a0516136f4620001a06000396000818161047901526107060152600081816102cb015281816104580152818161056001528181610635015281816107d7015281816109ba01528181610a8e01528181610cba01528181610e4a01528181610f28015261107301526136f46000f3fe608060405234801561001057600080fd5b50600436106101215760003560e01c80635e707483116100ad578063dbd1838811610071578063dbd1838814610256578063e8b618bd1461025f578063ed74a2021461028d578063f0f44260146102a0578063f2fde38b146102b357600080fd5b80635e70748314610204578063715018a6146102175780638da5cb5b1461021f578063ca8c3e7714610230578063cc0de2181461024357600080fd5b8063358d818c116100f4578063358d818c146101a657806338e342ac146101bb5780633b19e84a146101ce57806346a8a015146101df57806351ea27ae146101f157600080fd5b80630c500e5614610126578063175ff2a214610156578063268b30141461016957806332d7d7be14610183575b600080fd5b610139610134366004611390565b6102c6565b6040516001600160a01b0390911681526020015b60405180910390f35b6101396101643660046113c9565b6103fd565b600160645b6040805192835260208301919091520161014d565b6101966101913660046113ed565b61055b565b604051901515815260200161014d565b6101b96101b4366004611406565b610631565b005b6101b96101c93660046113ed565b610945565b6005546001600160a01b0316610139565b6001545b60405190815260200161014d565b6101966101ff366004611390565b6109b5565b6101b9610212366004611432565b610cb7565b6101b9610e11565b6000546001600160a01b0316610139565b6101b961023e36600461147c565b610e47565b6101396102513660046113c9565b611028565b6202a3006101e3565b61019661026d3660046113c9565b6001600160a01b0390811660009081526003602052604090205416151590565b61016e61029b3660046113ed565b61106d565b6101b96102ae3660046113c9565b611164565b6101b96102c13660046113c9565b6111f8565b6000837f00000000000000000000000000000000000000000000000000000000000000006001600160a01b031663d2adbe796040518163ffffffff1660e01b8152600401602060405180830381865afa158015610327573d6000803e3d6000fd5b505050506040513d601f19601f8201168201806040525081019061034b919061149e565b8110604051806040016040528060018152602001603560f81b8152509061038e5760405162461bcd60e51b815260040161038591906114db565b60405180910390fd5b50600085815260046020908152604080832087845282528083206001600160a01b038781168552925290912054166103c557600080fd5b600085815260046020908152604080832087845282528083206001600160a01b0380881685529252909120541691505b509392505050565b6001600160a01b03818116600090815260036020908152604080832054815180830190925260018252603960f81b92820192909252919216156104535760405162461bcd60e51b815260040161038591906114db565b5060007f00000000000000000000000000000000000000000000000000000000000000007f000000000000000000000000000000000000000000000000000000000000000030856040516104a69061136d565b6001600160a01b039485168152928416602084015290831660408301529091166060820152608001604051809103906000f0801580156104ea573d6000803e3d6000fd5b506001600160a01b0384811660008181526003602090815260409182902080546001600160a01b031916948616948517905581519283528201929092529192507fcbb74cbe3a0fd52f508100336e0d2e8a7e184bd44940fc6f24a176009a469a5f910160405180910390a192915050565b6000817f00000000000000000000000000000000000000000000000000000000000000006001600160a01b031663d2adbe796040518163ffffffff1660e01b8152600401602060405180830381865afa1580156105bc573d6000803e3d6000fd5b505050506040513d601f19601f820116820180604052508101906105e0919061149e565b8110604051806040016040528060018152602001603560f81b8152509061061a5760405162461bcd60e51b815260040161038591906114db565b505050600090815260026020526040902054151590565b82827f00000000000000000000000000000000000000000000000000000000000000006001600160a01b031663d2adbe796040518163ffffffff1660e01b8152600401602060405180830381865afa158015610691573d6000803e3d6000fd5b505050506040513d601f19601f820116820180604052508101906106b5919061149e565b8210604051806040016040528060018152602001603560f81b815250906106ef5760405162461bcd60e51b815260040161038591906114db565b5060405163ed340ddf60e01b8152600481018390527f00000000000000000000000000000000000000000000000000000000000000006001600160a01b03169063ed340ddf90602401602060405180830381865afa158015610755573d6000803e3d6000fd5b505050506040513d601f19601f82011682018060405250810190610779919061149e565b8110604051806040016040528060018152602001601b60f91b815250906107b35760405162461bcd60e51b815260040161038591906114db565b50604051633c23d3d960e21b81526004810186905285906000906001600160a01b037f0000000000000000000000000000000000000000000000000000000000000000169063f08f4f6490602401600060405180830381865afa15801561081e573d6000803e3d6000fd5b505050506040513d6000823e601f3d908101601f191682016040526108469190810190611524565b50506040805180820190915260018152603160f81b60208201529091506001600160a01b038216331461088c5760405162461bcd60e51b815260040161038591906114db565b5060008781526002602081815260409283902054835180850190945291835261313960f01b90830152156108d35760405162461bcd60e51b815260040161038591906114db565b506108de8786611293565b6108e9866001611610565b60008881526002602090815260409182902092909255805189815291820188905281018690527f712496816c24246b3c0bf6e37e05b0f7fb8e402c5ae7a311cde9e9ec54665c449060600160405180910390a150505050505050565b6000546001600160a01b0316331461096f5760405162461bcd60e51b815260040161038590611629565b6040805180820190915260018152601960f91b602082015266038d7ea4c680008211156109af5760405162461bcd60e51b815260040161038591906114db565b50600155565b6000837f00000000000000000000000000000000000000000000000000000000000000006001600160a01b031663d2adbe796040518163ffffffff1660e01b8152600401602060405180830381865afa158015610a16573d6000803e3d6000fd5b505050506040513d601f19601f82011682018060405250810190610a3a919061149e565b8110604051806040016040528060018152602001603560f81b81525090610a745760405162461bcd60e51b815260040161038591906114db565b50604051633c23d3d960e21b8152600481018690526000907f00000000000000000000000000000000000000000000000000000000000000006001600160a01b03169063f08f4f6490602401600060405180830381865afa158015610add573d6000803e3d6000fd5b505050506040513d6000823e601f3d908101601f19168201604052610b059190810190611524565b50509050836001600160a01b0316816001600160a01b031603610b2c5760019250506103f5565b6001600160a01b0381163b15610bb457604051631f81da0360e11b81526001600160a01b038581166004830152821690633f03b40690602401602060405180830381865afa925050508015610b9e575060408051601f3d908101601f19168201909252610b9b91810190611673565b60015b15610bb4578015610bb25792506103f59050565b505b600086815260046020908152604080832088845282528083206001600160a01b03888116855292529091205416610bef5760009250506103f5565b600086815260046020818152604080842089855282528084206001600160a01b0389811680875291845282862054811686526003909352818520549151636a9eaf2160e11b81529384018b9052602484018a90526044840152169190829063d53d5e4290606401606060405180830381865afa158015610c73573d6000803e3d6000fd5b505050506040513d601f19601f82011682018060405250810190610c97919061168e565b509150610ca990506202a30082611610565b421098975050505050505050565b837f00000000000000000000000000000000000000000000000000000000000000006001600160a01b031663d2adbe796040518163ffffffff1660e01b8152600401602060405180830381865afa158015610d16573d6000803e3d6000fd5b505050506040513d601f19601f82011682018060405250810190610d3a919061149e565b8110604051806040016040528060018152602001603560f81b81525090610d745760405162461bcd60e51b815260040161038591906114db565b506001600160a01b0382811660009081526003602090815260409182902054825180840190935260018352603160f81b918301919091529091163314610dcd5760405162461bcd60e51b815260040161038591906114db565b505060009384526004602090815260408086209486529381528385206001600160a01b03938416865290529190922080546001600160a01b03191691909216179055565b6000546001600160a01b03163314610e3b5760405162461bcd60e51b815260040161038590611629565b610e45600061131d565b565b817f00000000000000000000000000000000000000000000000000000000000000006001600160a01b031663d2adbe796040518163ffffffff1660e01b8152600401602060405180830381865afa158015610ea6573d6000803e3d6000fd5b505050506040513d601f19601f82011682018060405250810190610eca919061149e565b8110604051806040016040528060018152602001603560f81b81525090610f045760405162461bcd60e51b815260040161038591906114db565b50604051633c23d3d960e21b81526004810184905283906000906001600160a01b037f0000000000000000000000000000000000000000000000000000000000000000169063f08f4f6490602401600060405180830381865afa158015610f6f573d6000803e3d6000fd5b505050506040513d6000823e601f3d908101601f19168201604052610f979190810190611524565b50506040805180820190915260018152603160f81b60208201529091506001600160a01b0382163314610fdd5760405162461bcd60e51b815260040161038591906114db565b50610fe88585611293565b60408051868152602081018690527fd4ea22d2ab0fef3d73a9c65cec244ae56b85825c9ded190f80b5c626c0bcabc4910160405180910390a15050505050565b6001600160a01b0381811660009081526003602052604081205490911661104e57600080fd5b506001600160a01b039081166000908152600360205260409020541690565b600080827f00000000000000000000000000000000000000000000000000000000000000006001600160a01b031663d2adbe796040518163ffffffff1660e01b8152600401602060405180830381865afa1580156110cf573d6000803e3d6000fd5b505050506040513d601f19601f820116820180604052508101906110f3919061149e565b8110604051806040016040528060018152602001603560f81b8152509061112d5760405162461bcd60e51b815260040161038591906114db565b50600084815260026020526040902054611149906001906116c3565b60009485526002602052604090942060010154939492505050565b6000546001600160a01b0316331461118e5760405162461bcd60e51b815260040161038590611629565b6000546040805180820190915260018152603160f81b6020820152906001600160a01b038381169116036111d55760405162461bcd60e51b815260040161038591906114db565b50600580546001600160a01b0319166001600160a01b0392909216919091179055565b6000546001600160a01b031633146112225760405162461bcd60e51b815260040161038590611629565b6001600160a01b0381166112875760405162461bcd60e51b815260206004820152602660248201527f4f776e61626c653a206e6577206f776e657220697320746865207a65726f206160448201526564647265737360d01b6064820152608401610385565b6112908161131d565b50565b604080518082019091526001808252601960f91b60208301528210156112cc5760405162461bcd60e51b815260040161038591906114db565b506040805180820190915260018152601960f91b602082015260648211156113075760405162461bcd60e51b815260040161038591906114db565b5060009182526002602052604090912060010155565b600080546001600160a01b038381166001600160a01b0319831681178455604051919092169283917f8be0079c531659141344cd1fd0a4f28419497f9722a3daafe3b4186f6b6457e09190a35050565b611fe880620016d783390190565b6001600160a01b038116811461129057600080fd5b6000806000606084860312156113a557600080fd5b833592506020840135915060408401356113be8161137b565b809150509250925092565b6000602082840312156113db57600080fd5b81356113e68161137b565b9392505050565b6000602082840312156113ff57600080fd5b5035919050565b60008060006060848603121561141b57600080fd5b505081359360208301359350604090920135919050565b6000806000806080858703121561144857600080fd5b843593506020850135925060408501356114618161137b565b915060608501356114718161137b565b939692955090935050565b6000806040838503121561148f57600080fd5b50508035926020909101359150565b6000602082840312156114b057600080fd5b5051919050565b60005b838110156114d25781810151838201526020016114ba565b50506000910152565b60208152600082518060208401526114fa8160408501602087016114b7565b601f01601f19169190910160400192915050565b634e487b7160e01b600052604160045260246000fd5b60008060006060848603121561153957600080fd5b83516115448161137b565b60208501519093506115558161137b565b604085015190925067ffffffffffffffff8082111561157357600080fd5b818601915086601f83011261158757600080fd5b8151818111156115995761159961150e565b604051601f8201601f19908116603f011681019083821181831017156115c1576115c161150e565b816040528281528960208487010111156115da57600080fd5b6115eb8360208301602088016114b7565b80955050505050509250925092565b634e487b7160e01b600052601160045260246000fd5b80820180821115611623576116236115fa565b92915050565b6020808252818101527f4f776e61626c653a2063616c6c6572206973206e6f7420746865206f776e6572604082015260600190565b8051801515811461166e57600080fd5b919050565b60006020828403121561168557600080fd5b6113e68261165e565b6000806000606084860312156116a357600080fd5b83519250602084015191506116ba6040850161165e565b90509250925092565b81810381811115611623576116236115fa56fe6101006040523480156200001257600080fd5b5060405162001fe838038062001fe8833981016040819052620000359162000075565b6001600160a01b0393841660805291831660a052821660c0521660e052620000d2565b80516001600160a01b03811681146200007057600080fd5b919050565b600080600080608085870312156200008c57600080fd5b620000978562000058565b9350620000a76020860162000058565b9250620000b76040860162000058565b9150620000c76060860162000058565b905092959194509250565b60805160a05160c05160e051611e5e6200018a60003960008181610aff01528181610bc30152818161107401528181611135015281816114c9015281816116a60152818161173b015281816117dc0152611854015260008181610367015281816107f401528181610b2e01528181610cac01528181610d8001528181610e1d01528181610fd5015281816113eb01526114f101526000818161042701526110a201526000818161052401526113540152611e5e6000f3fe6080604052600436106100555760003560e01c806309e02c171461005a5780634585e33b1461007c5780636e04ff0d1461009c5780637e80c186146100d357806384370813146100e8578063d53d5e4214610109575b600080fd5b34801561006657600080fd5b5061007a61007536600461191e565b610146565b005b34801561008857600080fd5b5061007a610097366004611940565b610261565b3480156100a857600080fd5b506100bc6100b7366004611940565b6108c8565b6040516100ca929190611a02565b60405180910390f35b3480156100df57600080fd5b5061007a610afd565b6100fb6100f636600461191e565b610ca8565b6040519081526020016100ca565b34801561011557600080fd5b50610129610124366004611a32565b61159a565b6040805193845260208401929092521515908201526060016100ca565b60006101538383336115db565b6000818152602081815260409182902060020154825180840190935260018352603360f81b91830191909152919250906001600160a01b031633146101b45760405162461bcd60e51b81526004016101ab9190611a6b565b60405180910390fd5b50600081815260208181526040918290206005015482518084019093526002835261313160f01b9183019190915260ff16156102035760405162461bcd60e51b81526004016101ab9190611a6b565b5060008181526020819052604090819020600501805460ff19166001179055517fbdcd5f8b5e00da56711125e00a6f462fe30c2c17edb4cecec2e7bbeac057377d9061025490859085903390611a85565b60405180910390a1505050565b60005a905060008061027584860186611afb565b9150915060005b82518110156107eb574260008085848151811061029b5761029b611bb3565b60200260200101518152602001908152602001600020600401541060405180604001604052806002815260200161031360f41b815250906102ef5760405162461bcd60e51b81526004016101ab9190611a6b565b5060008084838151811061030557610305611bb3565b60209081029190910181015182528181019290925260409081016000206005015481518083019092526002825261313160f01b928201929092529060ff16156103615760405162461bcd60e51b81526004016101ab9190611a6b565b506000807f00000000000000000000000000000000000000000000000000000000000000006001600160a01b031663ed74a2026000808887815181106103a9576103a9611bb3565b60200260200101518152602001908152602001600020600001546040518263ffffffff1660e01b81526004016103e191815260200190565b6040805180830381865afa1580156103fd573d6000803e3d6000fd5b505050506040513d601f19601f820116820180604052508101906104219190611bc9565b915091507f00000000000000000000000000000000000000000000000000000000000000006001600160a01b031663819ca22260008088878151811061046957610469611bb3565b6020026020010151815260200190815260200160002060000154846040518363ffffffff1660e01b81526004016104aa929190918252602082015260400190565b602060405180830381865afa1580156104c7573d6000803e3d6000fd5b505050506040513d601f19601f820116820180604052508101906104eb9190611bed565b60008087868151811061050057610500611bb3565b602002602001015181526020019081526020016000206001015410156106b75760007f00000000000000000000000000000000000000000000000000000000000000006001600160a01b031663f08f4f6460008089888151811061056657610566611bb3565b60200260200101518152602001908152602001600020600001546040518263ffffffff1660e01b815260040161059e91815260200190565b600060405180830381865afa1580156105bb573d6000803e3d6000fd5b505050506040513d6000823e601f3d908101601f191682016040526105e39190810190611c06565b50915050600061066460008089888151811061060157610601611bb3565b6020026020010151815260200190815260200160002060020160009054906101000a90046001600160a01b0316836000808b8a8151811061064457610644611bb3565b60200260200101518152602001908152602001600020600301548661167c565b905080156106b4576106794262278d00611cd9565b60008089888151811061068e5761068e611bb3565b6020026020010151815260200190815260200160002060040181905550505050506107d9565b50505b60016000808786815181106106ce576106ce611bb3565b6020026020010151815260200190815260200160002060050160006101000a81548160ff0219169083151502179055507fbdcd5f8b5e00da56711125e00a6f462fe30c2c17edb4cecec2e7bbeac057377d60008087868151811061073457610734611bb3565b602002602001015181526020019081526020016000206000015460008088878151811061076357610763611bb3565b602002602001015181526020019081526020016000206001015460008089888151811061079257610792611bb3565b6020026020010151815260200190815260200160002060020160009054906101000a90046001600160a01b03166040516107ce93929190611a85565b60405180910390a150505b806107e381611cf2565b91505061027c565b5060008251603c7f00000000000000000000000000000000000000000000000000000000000000006001600160a01b03166346a8a0156040518163ffffffff1660e01b8152600401602060405180830381865afa158015610850573d6000803e3d6000fd5b505050506040513d601f19601f820116820180604052508101906108749190611bed565b61087e9190611d0b565b6108889190611d2d565b905060005a6108979086611d44565b6108a3906171d7611cd9565b905060006108b13a83611d2d565b9050828111156108be5750815b5050505050505050565b600060608180806108db86880188611a32565b92509250925081831115604051806040016040528060018152602001601960f91b8152509061091d5760405162461bcd60e51b81526004016101ab9190611a6b565b50600154821061093857600180546109359190611d44565b91505b6000806109458585611d44565b610950906001611cd9565b905060005b818110156109c45760006109698288611cd9565b6000818152602081905260409020600401549091504211801561099e575060008181526020819052604090206005015460ff16155b156109b157836109ad81611cf2565b9450505b50806109bc81611cf2565b915050610955565b50816000036109ed57600060405180602001604052806000815250965096505050505050610af6565b60008267ffffffffffffffff811115610a0857610a08611aa4565b604051908082528060200260200182016040528015610a31578160200160208202803683370190505b5090506000805b83811015610ac5576000610a4c828a611cd9565b60008181526020819052604090206004015490915042118015610a81575060008181526020819052604090206005015460ff16155b15610ab25780848481518110610a9957610a99611bb3565b602090810291909101015282610aae81611cf2565b9350505b5080610abd81611cf2565b915050610a38565b5060018286604051602001610adb929190611d57565b60405160208183030381529060405298509850505050505050505b9250929050565b7f00000000000000000000000000000000000000000000000000000000000000006001600160a01b031663a9059cbb7f00000000000000000000000000000000000000000000000000000000000000006001600160a01b0316633b19e84a6040518163ffffffff1660e01b8152600401602060405180830381865afa158015610b8a573d6000803e3d6000fd5b505050506040513d601f19601f82011682018060405250810190610bae9190611dab565b6040516370a0823160e01b81523060048201527f00000000000000000000000000000000000000000000000000000000000000006001600160a01b0316906370a0823190602401602060405180830381865afa158015610c12573d6000803e3d6000fd5b505050506040513d601f19601f82011682018060405250810190610c369190611bed565b6040516001600160e01b031960e085901b1681526001600160a01b03909216600483015260248201526044016020604051808303816000875af1158015610c81573d6000803e3d6000fd5b505050506040513d601f19601f82011682018060405250810190610ca59190611dd8565b50565b60007f00000000000000000000000000000000000000000000000000000000000000006001600160a01b03166346a8a0156040518163ffffffff1660e01b8152600401602060405180830381865afa158015610d08573d6000803e3d6000fd5b505050506040513d601f19601f82011682018060405250810190610d2c9190611bed565b34101560405180604001604052806002815260200161313360f01b81525090610d685760405162461bcd60e51b81526004016101ab9190611a6b565b506040516328f513d760e11b81526001600160a01b037f000000000000000000000000000000000000000000000000000000000000000016906351ea27ae90610db990869086903390600401611a85565b602060405180830381865afa158015610dd6573d6000803e3d6000fd5b505050506040513d601f19601f82011682018060405250810190610dfa9190611dd8565b1515600103610fbc57604051630628072b60e11b81526000906001600160a01b037f0000000000000000000000000000000000000000000000000000000000000000169063cc0de218908290630c500e5690610e5e90899089903390600401611a85565b602060405180830381865afa158015610e7b573d6000803e3d6000fd5b505050506040513d601f19601f82011682018060405250810190610e9f9190611dab565b6040516001600160e01b031960e084901b1681526001600160a01b039091166004820152602401602060405180830381865afa158015610ee3573d6000803e3d6000fd5b505050506040513d601f19601f82011682018060405250810190610f079190611dab565b6001600160a01b031663d53d5e428585336040518463ffffffff1660e01b8152600401610f3693929190611a85565b606060405180830381865afa158015610f53573d6000803e3d6000fd5b505050506040513d601f19601f82011682018060405250810190610f779190611df3565b604080518082019091526002815261189b60f11b6020820152909350915050600182151514610fb95760405162461bcd60e51b81526004016101ab9190611a6b565b50505b6040516376ba510160e11b8152600481018490526000907f00000000000000000000000000000000000000000000000000000000000000006001600160a01b03169063ed74a202906024016040805180830381865afa158015611023573d6000803e3d6000fd5b505050506040513d601f19601f820116820180604052508101906110479190611bc9565b506040516347b5c68160e11b81526004810186905260248101829052604481018590526001600160a01b037f0000000000000000000000000000000000000000000000000000000000000000811660648301529192506000917f00000000000000000000000000000000000000000000000000000000000000001690638f6b8d0290608401602060405180830381865afa1580156110e9573d6000803e3d6000fd5b505050506040513d601f19601f8201168201806040525081019061110d9190611bed565b905061111a81603c611d2d565b604051636eb1769f60e11b81523360048201523060248201527f00000000000000000000000000000000000000000000000000000000000000006001600160a01b03169063dd62ed3e90604401602060405180830381865afa158015611184573d6000803e3d6000fd5b505050506040513d601f19601f820116820180604052508101906111a89190611bed565b1015604051806040016040528060028152602001610c4d60f21b815250906111e35760405162461bcd60e51b81526004016101ab9190611a6b565b50600154600086815260026020908152604080832088845282528083203384529091528120549194500361125b576001805461121e91611cd9565b60008681526002602090815260408083208884528252808320338452909152812091909155600180549161125183611cf2565b919050555061128c565b6000858152600260209081526040808320878452825280832033845290915290205461128990600190611d44565b92505b6040518060c00160405280868152602001858152602001336001600160a01b031681526020018281526020014262278d006112c79190611cd9565b815260006020918201819052858152808252604080822084518155928401516001840155838101516002840180546001600160a01b0319166001600160a01b0392831617905560608501516003850155608085015160048086019190915560a0909501516005909401805460ff19169415159490941790935551633c23d3d960e21b8152928301889052917f00000000000000000000000000000000000000000000000000000000000000009091169063f08f4f6490602401600060405180830381865afa15801561139d573d6000803e3d6000fd5b505050506040513d6000823e601f3d908101601f191682016040526113c59190810190611c06565b506040516376ba510160e11b815260048101899052909250600091506001600160a01b037f0000000000000000000000000000000000000000000000000000000000000000169063ed74a202906024016040805180830381865afa158015611431573d6000803e3d6000fd5b505050506040513d601f19601f820116820180604052508101906114559190611bc9565b9150506114643383858461167c565b60405180604001604052806002815260200161313560f01b8152509061149d5760405162461bcd60e51b81526004016101ab9190611a6b565b50604051635e70748360e01b815260048101889052602481018790523360448201526001600160a01b037f0000000000000000000000000000000000000000000000000000000000000000811660648301527f00000000000000000000000000000000000000000000000000000000000000001690635e70748390608401600060405180830381600087803b15801561153557600080fd5b505af1158015611549573d6000803e3d6000fd5b50505050611555610afd565b7f719d57359948c2c6f2a923516c19aba22b490e924879b674c1d6371bb6541f1787873360405161158893929190611a85565b60405180910390a15050505092915050565b6000806000806115ab8787876115db565b600090815260208190526040902060038101546004820154600590920154909991985060ff169650945050505050565b600083815260026020908152604080832085845282528083206001600160a01b0385168452825280832054815180830190925260018252600760fb1b928201929092529061163c5760405162461bcd60e51b81526004016101ab9190611a6b565b50600084815260026020908152604080832086845282528083206001600160a01b038616845290915290205461167490600190611d44565b949350505050565b604051636eb1769f60e11b81526001600160a01b03858116600483015230602483015260009184917f0000000000000000000000000000000000000000000000000000000000000000169063dd62ed3e90604401602060405180830381865afa1580156116ed573d6000803e3d6000fd5b505050506040513d601f19601f820116820180604052508101906117119190611bed565b101580156117ab57506040516370a0823160e01b81526001600160a01b03868116600483015284917f0000000000000000000000000000000000000000000000000000000000000000909116906370a0823190602401602060405180830381865afa158015611784573d6000803e3d6000fd5b505050506040513d601f19601f820116820180604052508101906117a89190611bed565b10155b15611913576040516323b872dd60e01b81526001600160a01b038681166004830152306024830152604482018590527f000000000000000000000000000000000000000000000000000000000000000016906323b872dd906064016020604051808303816000875af1158015611825573d6000803e3d6000fd5b505050506040513d601f19601f820116820180604052508101906118499190611dd8565b506001600160a01b037f00000000000000000000000000000000000000000000000000000000000000001663a9059cbb8560646118868682611d44565b6118909088611d2d565b61189a9190611d0b565b6040516001600160e01b031960e085901b1681526001600160a01b03909216600483015260248201526044016020604051808303816000875af11580156118e5573d6000803e3d6000fd5b505050506040513d601f19601f820116820180604052508101906119099190611dd8565b5060019050611674565b506000949350505050565b6000806040838503121561193157600080fd5b50508035926020909101359150565b6000806020838503121561195357600080fd5b823567ffffffffffffffff8082111561196b57600080fd5b818501915085601f83011261197f57600080fd5b81358181111561198e57600080fd5b8660208285010111156119a057600080fd5b60209290920196919550909350505050565b60005b838110156119cd5781810151838201526020016119b5565b50506000910152565b600081518084526119ee8160208601602086016119b2565b601f01601f19169290920160200192915050565b821515815260406020820152600061167460408301846119d6565b6001600160a01b0381168114610ca557600080fd5b600080600060608486031215611a4757600080fd5b83359250602084013591506040840135611a6081611a1d565b809150509250925092565b602081526000611a7e60208301846119d6565b9392505050565b92835260208301919091526001600160a01b0316604082015260600190565b634e487b7160e01b600052604160045260246000fd5b604051601f8201601f1916810167ffffffffffffffff81118282101715611ae357611ae3611aa4565b604052919050565b8035611af681611a1d565b919050565b60008060408385031215611b0e57600080fd5b823567ffffffffffffffff80821115611b2657600080fd5b818501915085601f830112611b3a57600080fd5b8135602082821115611b4e57611b4e611aa4565b8160051b9250611b5f818401611aba565b8281529284018101928181019089851115611b7957600080fd5b948201945b84861015611b9757853582529482019490820190611b7e565b9650611ba69050878201611aeb565b9450505050509250929050565b634e487b7160e01b600052603260045260246000fd5b60008060408385031215611bdc57600080fd5b505080516020909101519092909150565b600060208284031215611bff57600080fd5b5051919050565b600080600060608486031215611c1b57600080fd5b8351611c2681611a1d565b6020850151909350611c3781611a1d565b604085015190925067ffffffffffffffff80821115611c5557600080fd5b818601915086601f830112611c6957600080fd5b815181811115611c7b57611c7b611aa4565b611c8e601f8201601f1916602001611aba565b9150808252876020828501011115611ca557600080fd5b611cb68160208401602086016119b2565b5080925050509250925092565b634e487b7160e01b600052601160045260246000fd5b80820180821115611cec57611cec611cc3565b92915050565b600060018201611d0457611d04611cc3565b5060010190565b600082611d2857634e487b7160e01b600052601260045260246000fd5b500490565b8082028115828204841417611cec57611cec611cc3565b81810381811115611cec57611cec611cc3565b604080825283519082018190526000906020906060840190828701845b82811015611d9057815184529284019290840190600101611d74565b5050506001600160a01b039490941692019190915250919050565b600060208284031215611dbd57600080fd5b8151611a7e81611a1d565b80518015158114611af657600080fd5b600060208284031215611dea57600080fd5b611a7e82611dc8565b600080600060608486031215611e0857600080fd5b8351925060208401519150611e1f60408501611dc8565b9050925092509256fea26469706673582212201c1c1142752660b114f0a6e40c65c5f54fe3c3b74beff02d1f2fb6556779af0264736f6c63430008110033a264697066735822122040864736b9c675fc8513b9ec29aa1d8b817cc93904262ef2bf05cf18d9fa73fb64736f6c63430008110033",
  "bytecodeSha1": "4060552577d3e47645934922a8917385c4913073",
  "compiler": {
    "evm_version": "istanbul",
    "optimizer": {
      "enabled": true,
      "runs": 200
    },
    "version": "0.8.17+commit.8df45f5f"
  },
  "contractName": "BBSubscriptionsFactory",
  "language": "Solidity",
  "natspec": {
    "kind": "dev",
    "methods": {
      "owner()": {
        "details": "Returns the address of the current owner."
      },
      "renounceOwnership()": {
        "details": "Leaves the contract without owner. It will not be possible to call `onlyOwner` functions anymore. Can only be called by the current owner. NOTE: Renouncing ownership will leave the contract without an owner, thereby removing any functionality that is only available to the owner."
      },
      "transferOwnership(address)": {
        "details": "Transfers ownership of the contract to a new account (`newOwner`). Can only be called by the current owner."
      }
    },
    "version": 1
  },
  "opcodes": "PUSH1 0x80 PUSH1 0x40 MSTORE CALLVALUE DUP1 ISZERO PUSH2 0x10 JUMPI PUSH1 0x0 DUP1 REVERT JUMPDEST POP PUSH1 0x4 CALLDATASIZE LT PUSH2 0x121 JUMPI PUSH1 0x0 CALLDATALOAD PUSH1 0xE0 SHR DUP1 PUSH4 0x5E707483 GT PUSH2 0xAD JUMPI DUP1 PUSH4 0xDBD18388 GT PUSH2 0x71 JUMPI DUP1 PUSH4 0xDBD18388 EQ PUSH2 0x256 JUMPI DUP1 PUSH4 0xE8B618BD EQ PUSH2 0x25F JUMPI DUP1 PUSH4 0xED74A202 EQ PUSH2 0x28D JUMPI DUP1 PUSH4 0xF0F44260 EQ PUSH2 0x2A0 JUMPI DUP1 PUSH4 0xF2FDE38B EQ PUSH2 0x2B3 JUMPI PUSH1 0x0 DUP1 REVERT JUMPDEST DUP1 PUSH4 0x5E707483 EQ PUSH2 0x204 JUMPI DUP1 PUSH4 0x715018A6 EQ PUSH2 0x217 JUMPI DUP1 PUSH4 0x8DA5CB5B EQ PUSH2 0x21F JUMPI DUP1 PUSH4 0xCA8C3E77 EQ PUSH2 0x230 JUMPI DUP1 PUSH4 0xCC0DE218 EQ PUSH2 0x243 JUMPI PUSH1 0x0 DUP1 REVERT JUMPDEST DUP1 PUSH4 0x358D818C GT PUSH2 0xF4 JUMPI DUP1 PUSH4 0x358D818C EQ PUSH2 0x1A6 JUMPI DUP1 PUSH4 0x38E342AC EQ PUSH2 0x1BB JUMPI DUP1 PUSH4 0x3B19E84A EQ PUSH2 0x1CE JUMPI DUP1 PUSH4 0x46A8A015 EQ PUSH2 0x1DF JUMPI DUP1 PUSH4 0x51EA27AE EQ PUSH2 0x1F1 JUMPI PUSH1 0x0 DUP1 REVERT JUMPDEST DUP1 PUSH4 0xC500E56 EQ PUSH2 0x126 JUMPI DUP1 PUSH4 0x175FF2A2 EQ PUSH2 0x156 JUMPI DUP1 PUSH4 0x268B3014 EQ PUSH2 0x169 JUMPI DUP1 PUSH4 0x32D7D7BE EQ PUSH2 0x183 JUMPI JUMPDEST PUSH1 0x0 DUP1 REVERT JUMPDEST PUSH2 0x139 PUSH2 0x134 CALLDATASIZE PUSH1 0x4 PUSH2 0x1390 JUMP JUMPDEST PUSH2 0x2C6 JUMP JUMPDEST PUSH1 0x40 MLOAD PUSH1 0x1 PUSH1 0x1 PUSH1 0xA0 SHL SUB SWAP1 SWAP2 AND DUP2 MSTORE PUSH1 0x20 ADD JUMPDEST PUSH1 0x40 MLOAD DUP1 SWAP2 SUB SWAP1 RETURN JUMPDEST PUSH2 0x139 PUSH2 0x164 CALLDATASIZE PUSH1 0x4 PUSH2 0x13C9 JUMP JUMPDEST PUSH2 0x3FD JUMP JUMPDEST PUSH1 0x1 PUSH1 0x64 JUMPDEST PUSH1 0x40 DUP1 MLOAD SWAP3 DUP4 MSTORE PUSH1 0x20 DUP4 ADD SWAP2 SWAP1 SWAP2 MSTORE ADD PUSH2 0x14D JUMP JUMPDEST PUSH2 0x196 PUSH2 0x191 CALLDATASIZE PUSH1 0x4 PUSH2 0x13ED JUMP JUMPDEST PUSH2 0x55B JUMP JUMPDEST PUSH1 0x40 MLOAD SWAP1 ISZERO ISZERO DUP2 MSTORE PUSH1 0x20 ADD PUSH2 0x14D JUMP JUMPDEST PUSH2 0x1B9 PUSH2 0x1B4 CALLDATASIZE PUSH1 0x4 PUSH2 0x1406 JUMP JUMPDEST PUSH2 0x631 JUMP JUMPDEST STOP JUMPDEST PUSH2 0x1B9 PUSH2 0x1C9 CALLDATASIZE PUSH1 0x4 PUSH2 0x13ED JUMP JUMPDEST PUSH2 0x945 JUMP JUMPDEST PUSH1 0x5 SLOAD PUSH1 0x1 PUSH1 0x1 PUSH1 0xA0 SHL SUB AND PUSH2 0x139 JUMP JUMPDEST PUSH1 0x1 SLOAD JUMPDEST PUSH1 0x40 MLOAD SWAP1 DUP2 MSTORE PUSH1 0x20 ADD PUSH2 0x14D JUMP JUMPDEST PUSH2 0x196 PUSH2 0x1FF CALLDATASIZE PUSH1 0x4 PUSH2 0x1390 JUMP JUMPDEST PUSH2 0x9B5 JUMP JUMPDEST PUSH2 0x1B9 PUSH2 0x212 CALLDATASIZE PUSH1 0x4 PUSH2 0x1432 JUMP JUMPDEST PUSH2 0xCB7 JUMP JUMPDEST PUSH2 0x1B9 PUSH2 0xE11 JUMP JUMPDEST PUSH1 0x0 SLOAD PUSH1 0x1 PUSH1 0x1 PUSH1 0xA0 SHL SUB AND PUSH2 0x139 JUMP JUMPDEST PUSH2 0x1B9 PUSH2 0x23E CALLDATASIZE PUSH1 0x4 PUSH2 0x147C JUMP JUMPDEST PUSH2 0xE47 JUMP JUMPDEST PUSH2 0x139 PUSH2 0x251 CALLDATASIZE PUSH1 0x4 PUSH2 0x13C9 JUMP JUMPDEST PUSH2 0x1028 JUMP JUMPDEST PUSH3 0x2A300 PUSH2 0x1E3 JUMP JUMPDEST PUSH2 0x196 PUSH2 0x26D CALLDATASIZE PUSH1 0x4 PUSH2 0x13C9 JUMP JUMPDEST PUSH1 0x1 PUSH1 0x1 PUSH1 0xA0 SHL SUB SWAP1 DUP2 AND PUSH1 0x0 SWAP1 DUP2 MSTORE PUSH1 0x3 PUSH1 0x20 MSTORE PUSH1 0x40 SWAP1 KECCAK256 SLOAD AND ISZERO ISZERO SWAP1 JUMP JUMPDEST PUSH2 0x16E PUSH2 0x29B CALLDATASIZE PUSH1 0x4 PUSH2 0x13ED JUMP JUMPDEST PUSH2 0x106D JUMP JUMPDEST PUSH2 0x1B9 PUSH2 0x2AE CALLDATASIZE PUSH1 0x4 PUSH2 0x13C9 JUMP JUMPDEST PUSH2 0x1164 JUMP JUMPDEST PUSH2 0x1B9 PUSH2 0x2C1 CALLDATASIZE PUSH1 0x4 PUSH2 0x13C9 JUMP JUMPDEST PUSH2 0x11F8 JUMP JUMPDEST PUSH1 0x0 DUP4 PUSH32 0x0 PUSH1 0x1 PUSH1 0x1 PUSH1 0xA0 SHL SUB AND PUSH4 0xD2ADBE79 PUSH1 0x40 MLOAD DUP2 PUSH4 0xFFFFFFFF AND PUSH1 0xE0 SHL DUP2 MSTORE PUSH1 0x4 ADD PUSH1 0x20 PUSH1 0x40 MLOAD DUP1 DUP4 SUB DUP2 DUP7 GAS STATICCALL ISZERO DUP1 ISZERO PUSH2 0x327 JUMPI RETURNDATASIZE PUSH1 0x0 DUP1 RETURNDATACOPY RETURNDATASIZE PUSH1 0x0 REVERT JUMPDEST POP POP POP POP PUSH1 0x40 MLOAD RETURNDATASIZE PUSH1 0x1F NOT PUSH1 0x1F DUP3 ADD AND DUP3 ADD DUP1 PUSH1 0x40 MSTORE POP DUP2 ADD SWAP1 PUSH2 0x34B SWAP2 SWAP1 PUSH2 0x149E JUMP JUMPDEST DUP2 LT PUSH1 0x40 MLOAD DUP1 PUSH1 0x40 ADD PUSH1 0x40 MSTORE DUP1 PUSH1 0x1 DUP2 MSTORE PUSH1 0x20 ADD PUSH1 0x35 PUSH1 0xF8 SHL DUP2 MSTORE POP SWAP1 PUSH2 0x38E JUMPI PUSH1 0x40 MLOAD PUSH3 0x461BCD PUSH1 0xE5 SHL DUP2 MSTORE PUSH1 0x4 ADD PUSH2 0x385 SWAP2 SWAP1 PUSH2 0x14DB JUMP JUMPDEST PUSH1 0x40 MLOAD DUP1 SWAP2 SUB SWAP1 REVERT JUMPDEST POP PUSH1 0x0 DUP6 DUP2 MSTORE PUSH1 0x4 PUSH1 0x20 SWAP1 DUP2 MSTORE PUSH1 0x40 DUP1 DUP4 KECCAK256 DUP8 DUP5 MSTORE DUP3 MSTORE DUP1 DUP4 KECCAK256 PUSH1 0x1 PUSH1 0x1 PUSH1 0xA0 SHL SUB DUP8 DUP2 AND DUP6 MSTORE SWAP3 MSTORE SWAP1 SWAP2 KECCAK256 SLOAD AND PUSH2 0x3C5 JUMPI PUSH1 0x0 DUP1 REVERT JUMPDEST PUSH1 0x0 DUP6 DUP2 MSTORE PUSH1 0x4 PUSH1 0x20 SWAP1 DUP2 MSTORE PUSH1 0x40 DUP1 DUP4 KECCAK256 DUP8 DUP5 MSTORE DUP3 MSTORE DUP1 DUP4 KECCAK256 PUSH1 0x1 PUSH1 0x1 PUSH1 0xA0 SHL SUB DUP1 DUP9 AND DUP6 MSTORE SWAP3 MSTORE SWAP1 SWAP2 KECCAK256 SLOAD AND SWAP2 POP JUMPDEST POP SWAP4 SWAP3 POP POP POP JUMP JUMPDEST PUSH1 0x1 PUSH1 0x1 PUSH1 0xA0 SHL SUB DUP2 DUP2 AND PUSH1 0x0 SWAP1 DUP2 MSTORE PUSH1 0x3 PUSH1 0x20 SWAP1 DUP2 MSTORE PUSH1 0x40 DUP1 DUP4 KECCAK256 SLOAD DUP2 MLOAD DUP1 DUP4 ADD SWAP1 SWAP3 MSTORE PUSH1 0x1 DUP3 MSTORE PUSH1 0x39 PUSH1 0xF8 SHL SWAP3 DUP3 ADD SWAP3 SWAP1 SWAP3 MSTORE SWAP2 SWAP3 AND ISZERO PUSH2 0x453 JUMPI PUSH1 0x40 MLOAD PUSH3 0x461BCD PUSH1 0xE5 SHL DUP2 MSTORE PUSH1 0x4 ADD PUSH2 0x385 SWAP2 SWAP1 PUSH2 0x14DB JUMP JUMPDEST POP PUSH1 0x0 PUSH32 0x0 PUSH32 0x0 ADDRESS DUP6 PUSH1 0x40 MLOAD PUSH2 0x4A6 SWAP1 PUSH2 0x136D JUMP JUMPDEST PUSH1 0x1 PUSH1 0x1 PUSH1 0xA0 SHL SUB SWAP5 DUP6 AND DUP2 MSTORE SWAP3 DUP5 AND PUSH1 0x20 DUP5 ADD MSTORE SWAP1 DUP4 AND PUSH1 0x40 DUP4 ADD MSTORE SWAP1 SWAP2 AND PUSH1 0x60 DUP3 ADD MSTORE PUSH1 0x80 ADD PUSH1 0x40 MLOAD DUP1 SWAP2 SUB SWAP1 PUSH1 0x0 CREATE DUP1 ISZERO DUP1 ISZERO PUSH2 0x4EA JUMPI RETURNDATASIZE PUSH1 0x0 DUP1 RETURNDATACOPY RETURNDATASIZE PUSH1 0x0 REVERT JUMPDEST POP PUSH1 0x1 PUSH1 0x1 PUSH1 0xA0 SHL SUB DUP5 DUP2 AND PUSH1 0x0 DUP2 DUP2 MSTORE PUSH1 0x3 PUSH1 0x20 SWAP1 DUP2 MSTORE PUSH1 0x40 SWAP2 DUP3 SWAP1 KECCAK256 DUP1 SLOAD PUSH1 0x1 PUSH1 0x1 PUSH1 0xA0 SHL SUB NOT AND SWAP5 DUP7 AND SWAP5 DUP6 OR SWAP1 SSTORE DUP2 MLOAD SWAP3 DUP4 MSTORE DUP3 ADD SWAP3 SWAP1 SWAP3 MSTORE SWAP2 SWAP3 POP PUSH32 0xCBB74CBE3A0FD52F508100336E0D2E8A7E184BD44940FC6F24A176009A469A5F SWAP2 ADD PUSH1 0x40 MLOAD DUP1 SWAP2 SUB SWAP1 LOG1 SWAP3 SWAP2 POP POP JUMP JUMPDEST PUSH1 0x0 DUP2 PUSH32 0x0 PUSH1 0x1 PUSH1 0x1 PUSH1 0xA0 SHL SUB AND PUSH4 0xD2ADBE79 PUSH1 0x40 MLOAD DUP2 PUSH4 0xFFFFFFFF AND PUSH1 0xE0 SHL DUP2 MSTORE PUSH1 0x4 ADD PUSH1 0x20 PUSH1 0x40 MLOAD DUP1 DUP4 SUB DUP2 DUP7 GAS STATICCALL ISZERO DUP1 ISZERO PUSH2 0x5BC JUMPI RETURNDATASIZE PUSH1 0x0 DUP1 RETURNDATACOPY RETURNDATASIZE PUSH1 0x0 REVERT JUMPDEST POP POP POP POP PUSH1 0x40 MLOAD RETURNDATASIZE PUSH1 0x1F NOT PUSH1 0x1F DUP3 ADD AND DUP3 ADD DUP1 PUSH1 0x40 MSTORE POP DUP2 ADD SWAP1 PUSH2 0x5E0 SWAP2 SWAP1 PUSH2 0x149E JUMP JUMPDEST DUP2 LT PUSH1 0x40 MLOAD DUP1 PUSH1 0x40 ADD PUSH1 0x40 MSTORE DUP1 PUSH1 0x1 DUP2 MSTORE PUSH1 0x20 ADD PUSH1 0x35 PUSH1 0xF8 SHL DUP2 MSTORE POP SWAP1 PUSH2 0x61A JUMPI PUSH1 0x40 MLOAD PUSH3 0x461BCD PUSH1 0xE5 SHL DUP2 MSTORE PUSH1 0x4 ADD PUSH2 0x385 SWAP2 SWAP1 PUSH2 0x14DB JUMP JUMPDEST POP POP POP PUSH1 0x0 SWAP1 DUP2 MSTORE PUSH1 0x2 PUSH1 0x20 MSTORE PUSH1 0x40 SWAP1 KECCAK256 SLOAD ISZERO ISZERO SWAP1 JUMP JUMPDEST DUP3 DUP3 PUSH32 0x0 PUSH1 0x1 PUSH1 0x1 PUSH1 0xA0 SHL SUB AND PUSH4 0xD2ADBE79 PUSH1 0x40 MLOAD DUP2 PUSH4 0xFFFFFFFF AND PUSH1 0xE0 SHL DUP2 MSTORE PUSH1 0x4 ADD PUSH1 0x20 PUSH1 0x40 MLOAD DUP1 DUP4 SUB DUP2 DUP7 GAS STATICCALL ISZERO DUP1 ISZERO PUSH2 0x691 JUMPI RETURNDATASIZE PUSH1 0x0 DUP1 RETURNDATACOPY RETURNDATASIZE PUSH1 0x0 REVERT JUMPDEST POP POP POP POP PUSH1 0x40 MLOAD RETURNDATASIZE PUSH1 0x1F NOT PUSH1 0x1F DUP3 ADD AND DUP3 ADD DUP1 PUSH1 0x40 MSTORE POP DUP2 ADD SWAP1 PUSH2 0x6B5 SWAP2 SWAP1 PUSH2 0x149E JUMP JUMPDEST DUP3 LT PUSH1 0x40 MLOAD DUP1 PUSH1 0x40 ADD PUSH1 0x40 MSTORE DUP1 PUSH1 0x1 DUP2 MSTORE PUSH1 0x20 ADD PUSH1 0x35 PUSH1 0xF8 SHL DUP2 MSTORE POP SWAP1 PUSH2 0x6EF JUMPI PUSH1 0x40 MLOAD PUSH3 0x461BCD PUSH1 0xE5 SHL DUP2 MSTORE PUSH1 0x4 ADD PUSH2 0x385 SWAP2 SWAP1 PUSH2 0x14DB JUMP JUMPDEST POP PUSH1 0x40 MLOAD PUSH4 0xED340DDF PUSH1 0xE0 SHL DUP2 MSTORE PUSH1 0x4 DUP2 ADD DUP4 SWAP1 MSTORE PUSH32 0x0 PUSH1 0x1 PUSH1 0x1 PUSH1 0xA0 SHL SUB AND SWAP1 PUSH4 0xED340DDF SWAP1 PUSH1 0x24 ADD PUSH1 0x20 PUSH1 0x40 MLOAD DUP1 DUP4 SUB DUP2 DUP7 GAS STATICCALL ISZERO DUP1 ISZERO PUSH2 0x755 JUMPI RETURNDATASIZE PUSH1 0x0 DUP1 RETURNDATACOPY RETURNDATASIZE PUSH1 0x0 REVERT JUMPDEST POP POP POP POP PUSH1 0x40 MLOAD RETURNDATASIZE PUSH1 0x1F NOT PUSH1 0x1F DUP3 ADD AND DUP3 ADD DUP1 PUSH1 0x40 MSTORE POP DUP2 ADD SWAP1 PUSH2 0x779 SWAP2 SWAP1 PUSH2 0x149E JUMP JUMPDEST DUP2 LT PUSH1 0x40 MLOAD DUP1 PUSH1 0x40 ADD PUSH1 0x40 MSTORE DUP1 PUSH1 0x1 DUP2 MSTORE PUSH1 0x20 ADD PUSH1 0x1B PUSH1 0xF9 SHL DUP2 MSTORE POP SWAP1 PUSH2 0x7B3 JUMPI PUSH1 0x40 MLOAD PUSH3 0x461BCD PUSH1 0xE5 SHL DUP2 MSTORE PUSH1 0x4 ADD PUSH2 0x385 SWAP2 SWAP1 PUSH2 0x14DB JUMP JUMPDEST POP PUSH1 0x40 MLOAD PUSH4 0x3C23D3D9 PUSH1 0xE2 SHL DUP2 MSTORE PUSH1 0x4 DUP2 ADD DUP7 SWAP1 MSTORE DUP6 SWAP1 PUSH1 0x0 SWAP1 PUSH1 0x1 PUSH1 0x1 PUSH1 0xA0 SHL SUB PUSH32 0x0 AND SWAP1 PUSH4 0xF08F4F64 SWAP1 PUSH1 0x24 ADD PUSH1 0x0 PUSH1 0x40 MLOAD DUP1 DUP4 SUB DUP2 DUP7 GAS STATICCALL ISZERO DUP1 ISZERO PUSH2 0x81E JUMPI RETURNDATASIZE PUSH1 0x0 DUP1 RETURNDATACOPY RETURNDATASIZE PUSH1 0x0 REVERT JUMPDEST POP POP POP POP PUSH1 0x40 MLOAD RETURNDATASIZE PUSH1 0x0 DUP3 RETURNDATACOPY PUSH1 0x1F RETURNDATASIZE SWAP1 DUP2 ADD PUSH1 0x1F NOT AND DUP3 ADD PUSH1 0x40 MSTORE PUSH2 0x846 SWAP2 SWAP1 DUP2 ADD SWAP1 PUSH2 0x1524 JUMP JUMPDEST POP POP PUSH1 0x40 DUP1 MLOAD DUP1 DUP3 ADD SWAP1 SWAP2 MSTORE PUSH1 0x1 DUP2 MSTORE PUSH1 0x31 PUSH1 0xF8 SHL PUSH1 0x20 DUP3 ADD MSTORE SWAP1 SWAP2 POP PUSH1 0x1 PUSH1 0x1 PUSH1 0xA0 SHL SUB DUP3 AND CALLER EQ PUSH2 0x88C JUMPI PUSH1 0x40 MLOAD PUSH3 0x461BCD PUSH1 0xE5 SHL DUP2 MSTORE PUSH1 0x4 ADD PUSH2 0x385 SWAP2 SWAP1 PUSH2 0x14DB JUMP JUMPDEST POP PUSH1 0x0 DUP8 DUP2 MSTORE PUSH1 0x2 PUSH1 0x20 DUP2 DUP2 MSTORE PUSH1 0x40 SWAP3 DUP4 SWAP1 KECCAK256 SLOAD DUP4 MLOAD DUP1 DUP6 ADD SWAP1 SWAP5 MSTORE SWAP2 DUP4 MSTORE PUSH2 0x3139 PUSH1 0xF0 SHL SWAP1 DUP4 ADD MSTORE ISZERO PUSH2 0x8D3 JUMPI PUSH1 0x40 MLOAD PUSH3 0x461BCD PUSH1 0xE5 SHL DUP2 MSTORE PUSH1 0x4 ADD PUSH2 0x385 SWAP2 SWAP1 PUSH2 0x14DB JUMP JUMPDEST POP PUSH2 0x8DE DUP8 DUP7 PUSH2 0x1293 JUMP JUMPDEST PUSH2 0x8E9 DUP7 PUSH1 0x1 PUSH2 0x1610 JUMP JUMPDEST PUSH1 0x0 DUP9 DUP2 MSTORE PUSH1 0x2 PUSH1 0x20 SWAP1 DUP2 MSTORE PUSH1 0x40 SWAP2 DUP3 SWAP1 KECCAK256 SWAP3 SWAP1 SWAP3 SSTORE DUP1 MLOAD DUP10 DUP2 MSTORE SWAP2 DUP3 ADD DUP9 SWAP1 MSTORE DUP2 ADD DUP7 SWAP1 MSTORE PUSH32 0x712496816C24246B3C0BF6E37E05B0F7FB8E402C5AE7A311CDE9E9EC54665C44 SWAP1 PUSH1 0x60 ADD PUSH1 0x40 MLOAD DUP1 SWAP2 SUB SWAP1 LOG1 POP POP POP POP POP POP POP JUMP JUMPDEST PUSH1 0x0 SLOAD PUSH1 0x1 PUSH1 0x1 PUSH1 0xA0 SHL SUB AND CALLER EQ PUSH2 0x96F JUMPI PUSH1 0x40 MLOAD PUSH3 0x461BCD PUSH1 0xE5 SHL DUP2 MSTORE PUSH1 0x4 ADD PUSH2 0x385 SWAP1 PUSH2 0x1629 JUMP JUMPDEST PUSH1 0x40 DUP1 MLOAD DUP1 DUP3 ADD SWAP1 SWAP2 MSTORE PUSH1 0x1 DUP2 MSTORE PUSH1 0x19 PUSH1 0xF9 SHL PUSH1 0x20 DUP3 ADD MSTORE PUSH7 0x38D7EA4C68000 DUP3 GT ISZERO PUSH2 0x9AF JUMPI PUSH1 0x40 MLOAD PUSH3 0x461BCD PUSH1 0xE5 SHL DUP2 MSTORE PUSH1 0x4 ADD PUSH2 0x385 SWAP2 SWAP1 PUSH2 0x14DB JUMP JUMPDEST POP PUSH1 0x1 SSTORE JUMP JUMPDEST PUSH1 0x0 DUP4 PUSH32 0x0 PUSH1 0x1 PUSH1 0x1 PUSH1 0xA0 SHL SUB AND PUSH4 0xD2ADBE79 PUSH1 0x40 MLOAD DUP2 PUSH4 0xFFFFFFFF AND PUSH1 0xE0 SHL DUP2 MSTORE PUSH1 0x4 ADD PUSH1 0x20 PUSH1 0x40 MLOAD DUP1 DUP4 SUB DUP2 DUP7 GAS STATICCALL ISZERO DUP1 ISZERO PUSH2 0xA16 JUMPI RETURNDATASIZE PUSH1 0x0 DUP1 RETURNDATACOPY RETURNDATASIZE PUSH1 0x0 REVERT JUMPDEST POP POP POP POP PUSH1 0x40 MLOAD RETURNDATASIZE PUSH1 0x1F NOT PUSH1 0x1F DUP3 ADD AND DUP3 ADD DUP1 PUSH1 0x40 MSTORE POP DUP2 ADD SWAP1 PUSH2 0xA3A SWAP2 SWAP1 PUSH2 0x149E JUMP JUMPDEST DUP2 LT PUSH1 0x40 MLOAD DUP1 PUSH1 0x40 ADD PUSH1 0x40 MSTORE DUP1 PUSH1 0x1 DUP2 MSTORE PUSH1 0x20 ADD PUSH1 0x35 PUSH1 0xF8 SHL DUP2 MSTORE POP SWAP1 PUSH2 0xA74 JUMPI PUSH1 0x40 MLOAD PUSH3 0x461BCD PUSH1 0xE5 SHL DUP2 MSTORE PUSH1 0x4 ADD PUSH2 0x385 SWAP2 SWAP1 PUSH2 0x14DB JUMP JUMPDEST POP PUSH1 0x40 MLOAD PUSH4 0x3C23D3D9 PUSH1 0xE2 SHL DUP2 MSTORE PUSH1 0x4 DUP2 ADD DUP7 SWAP1 MSTORE PUSH1 0x0 SWAP1 PUSH32 0x0 PUSH1 0x1 PUSH1 0x1 PUSH1 0xA0 SHL SUB AND SWAP1 PUSH4 0xF08F4F64 SWAP1 PUSH1 0x24 ADD PUSH1 0x0 PUSH1 0x40 MLOAD DUP1 DUP4 SUB DUP2 DUP7 GAS STATICCALL ISZERO DUP1 ISZERO PUSH2 0xADD JUMPI RETURNDATASIZE PUSH1 0x0 DUP1 RETURNDATACOPY RETURNDATASIZE PUSH1 0x0 REVERT JUMPDEST POP POP POP POP PUSH1 0x40 MLOAD RETURNDATASIZE PUSH1 0x0 DUP3 RETURNDATACOPY PUSH1 0x1F RETURNDATASIZE SWAP1 DUP2 ADD PUSH1 0x1F NOT AND DUP3 ADD PUSH1 0x40 MSTORE PUSH2 0xB05 SWAP2 SWAP1 DUP2 ADD SWAP1 PUSH2 0x1524 JUMP JUMPDEST POP POP SWAP1 POP DUP4 PUSH1 0x1 PUSH1 0x1 PUSH1 0xA0 SHL SUB AND DUP2 PUSH1 0x1 PUSH1 0x1 PUSH1 0xA0 SHL SUB AND SUB PUSH2 0xB2C JUMPI PUSH1 0x1 SWAP3 POP POP PUSH2 0x3F5 JUMP JUMPDEST PUSH1 0x1 PUSH1 0x1 PUSH1 0xA0 SHL SUB DUP2 AND EXTCODESIZE ISZERO PUSH2 0xBB4 JUMPI PUSH1 0x40 MLOAD PUSH4 0x1F81DA03 PUSH1 0xE1 SHL DUP2 MSTORE PUSH1 0x1 PUSH1 0x1 PUSH1 0xA0 SHL SUB DUP6 DUP2 AND PUSH1 0x4 DUP4 ADD MSTORE DUP3 AND SWAP1 PUSH4 0x3F03B406 SWAP1 PUSH1 0x24 ADD PUSH1 0x20 PUSH1 0x40 MLOAD DUP1 DUP4 SUB DUP2 DUP7 GAS STATICCALL SWAP3 POP POP POP DUP1 ISZERO PUSH2 0xB9E JUMPI POP PUSH1 0x40 DUP1 MLOAD PUSH1 0x1F RETURNDATASIZE SWAP1 DUP2 ADD PUSH1 0x1F NOT AND DUP3 ADD SWAP1 SWAP3 MSTORE PUSH2 0xB9B SWAP2 DUP2 ADD SWAP1 PUSH2 0x1673 JUMP JUMPDEST PUSH1 0x1 JUMPDEST ISZERO PUSH2 0xBB4 JUMPI DUP1 ISZERO PUSH2 0xBB2 JUMPI SWAP3 POP PUSH2 0x3F5 SWAP1 POP JUMP JUMPDEST POP JUMPDEST PUSH1 0x0 DUP7 DUP2 MSTORE PUSH1 0x4 PUSH1 0x20 SWAP1 DUP2 MSTORE PUSH1 0x40 DUP1 DUP4 KECCAK256 DUP9 DUP5 MSTORE DUP3 MSTORE DUP1 DUP4 KECCAK256 PUSH1 0x1 PUSH1 0x1 PUSH1 0xA0 SHL SUB DUP9 DUP2 AND DUP6 MSTORE SWAP3 MSTORE SWAP1 SWAP2 KECCAK256 SLOAD AND PUSH2 0xBEF JUMPI PUSH1 0x0 SWAP3 POP POP PUSH2 0x3F5 JUMP JUMPDEST PUSH1 0x0 DUP7 DUP2 MSTORE PUSH1 0x4 PUSH1 0x20 DUP2 DUP2 MSTORE PUSH1 0x40 DUP1 DUP5 KECCAK256 DUP10 DUP6 MSTORE DUP3 MSTORE DUP1 DUP5 KECCAK256 PUSH1 0x1 PUSH1 0x1 PUSH1 0xA0 SHL SUB DUP10 DUP2 AND DUP1 DUP8 MSTORE SWAP2 DUP5 MSTORE DUP3 DUP7 KECCAK256 SLOAD DUP2 AND DUP7 MSTORE PUSH1 0x3 SWAP1 SWAP4 MSTORE DUP2 DUP6 KECCAK256 SLOAD SWAP2 MLOAD PUSH4 0x6A9EAF21 PUSH1 0xE1 SHL DUP2 MSTORE SWAP4 DUP5 ADD DUP12 SWAP1 MSTORE PUSH1 0x24 DUP5 ADD DUP11 SWAP1 MSTORE PUSH1 0x44 DUP5 ADD MSTORE AND SWAP2 SWAP1 DUP3 SWAP1 PUSH4 0xD53D5E42 SWAP1 PUSH1 0x64 ADD PUSH1 0x60 PUSH1 0x40 MLOAD DUP1 DUP4 SUB DUP2 DUP7 GAS STATICCALL ISZERO DUP1 ISZERO PUSH2 0xC73 JUMPI RETURNDATASIZE PUSH1 0x0 DUP1 RETURNDATACOPY RETURNDATASIZE PUSH1 0x0 REVERT JUMPDEST POP POP POP POP PUSH1 0x40 MLOAD RETURNDATASIZE PUSH1 0x1F NOT PUSH1 0x1F DUP3 ADD AND DUP3 ADD DUP1 PUSH1 0x40 MSTORE POP DUP2 ADD SWAP1 PUSH2 0xC97 SWAP2 SWAP1 PUSH2 0x168E JUMP JUMPDEST POP SWAP2 POP PUSH2 0xCA9 SWAP1 POP PUSH3 0x2A300 DUP3 PUSH2 0x1610 JUMP JUMPDEST TIMESTAMP LT SWAP9 SWAP8 POP POP POP POP POP POP POP POP JUMP JUMPDEST DUP4 PUSH32 0x0 PUSH1 0x1 PUSH1 0x1 PUSH1 0xA0 SHL SUB AND PUSH4 0xD2ADBE79 PUSH1 0x40 MLOAD DUP2 PUSH4 0xFFFFFFFF AND PUSH1 0xE0 SHL DUP2 MSTORE PUSH1 0x4 ADD PUSH1 0x20 PUSH1 0x40 MLOAD DUP1 DUP4 SUB DUP2 DUP7 GAS STATICCALL ISZERO DUP1 ISZERO PUSH2 0xD16 JUMPI RETURNDATASIZE PUSH1 0x0 DUP1 RETURNDATACOPY RETURNDATASIZE PUSH1 0x0 REVERT JUMPDEST POP POP POP POP PUSH1 0x40 MLOAD RETURNDATASIZE PUSH1 0x1F NOT PUSH1 0x1F DUP3 ADD AND DUP3 ADD DUP1 PUSH1 0x40 MSTORE POP DUP2 ADD SWAP1 PUSH2 0xD3A SWAP2 SWAP1 PUSH2 0x149E JUMP JUMPDEST DUP2 LT PUSH1 0x40 MLOAD DUP1 PUSH1 0x40 ADD PUSH1 0x40 MSTORE DUP1 PUSH1 0x1 DUP2 MSTORE PUSH1 0x20 ADD PUSH1 0x35 PUSH1 0xF8 SHL DUP2 MSTORE POP SWAP1 PUSH2 0xD74 JUMPI PUSH1 0x40 MLOAD PUSH3 0x461BCD PUSH1 0xE5 SHL DUP2 MSTORE PUSH1 0x4 ADD PUSH2 0x385 SWAP2 SWAP1 PUSH2 0x14DB JUMP JUMPDEST POP PUSH1 0x1 PUSH1 0x1 PUSH1 0xA0 SHL SUB DUP3 DUP2 AND PUSH1 0x0 SWAP1 DUP2 MSTORE PUSH1 0x3 PUSH1 0x20 SWAP1 DUP2 MSTORE PUSH1 0x40 SWAP2 DUP3 SWAP1 KECCAK256 SLOAD DUP3 MLOAD DUP1 DUP5 ADD SWAP1 SWAP4 MSTORE PUSH1 0x1 DUP4 MSTORE PUSH1 0x31 PUSH1 0xF8 SHL SWAP2 DUP4 ADD SWAP2 SWAP1 SWAP2 MSTORE SWAP1 SWAP2 AND CALLER EQ PUSH2 0xDCD JUMPI PUSH1 0x40 MLOAD PUSH3 0x461BCD PUSH1 0xE5 SHL DUP2 MSTORE PUSH1 0x4 ADD PUSH2 0x385 SWAP2 SWAP1 PUSH2 0x14DB JUMP JUMPDEST POP POP PUSH1 0x0 SWAP4 DUP5 MSTORE PUSH1 0x4 PUSH1 0x20 SWAP1 DUP2 MSTORE PUSH1 0x40 DUP1 DUP7 KECCAK256 SWAP5 DUP7 MSTORE SWAP4 DUP2 MSTORE DUP4 DUP6 KECCAK256 PUSH1 0x1 PUSH1 0x1 PUSH1 0xA0 SHL SUB SWAP4 DUP5 AND DUP7 MSTORE SWAP1 MSTORE SWAP2 SWAP1 SWAP3 KECCAK256 DUP1 SLOAD PUSH1 0x1 PUSH1 0x1 PUSH1 0xA0 SHL SUB NOT AND SWAP2 SWAP1 SWAP3 AND OR SWAP1 SSTORE JUMP JUMPDEST PUSH1 0x0 SLOAD PUSH1 0x1 PUSH1 0x1 PUSH1 0xA0 SHL SUB AND CALLER EQ PUSH2 0xE3B JUMPI PUSH1 0x40 MLOAD PUSH3 0x461BCD PUSH1 0xE5 SHL DUP2 MSTORE PUSH1 0x4 ADD PUSH2 0x385 SWAP1 PUSH2 0x1629 JUMP JUMPDEST PUSH2 0xE45 PUSH1 0x0 PUSH2 0x131D JUMP JUMPDEST JUMP JUMPDEST DUP2 PUSH32 0x0 PUSH1 0x1 PUSH1 0x1 PUSH1 0xA0 SHL SUB AND PUSH4 0xD2ADBE79 PUSH1 0x40 MLOAD DUP2 PUSH4 0xFFFFFFFF AND PUSH1 0xE0 SHL DUP2 MSTORE PUSH1 0x4 ADD PUSH1 0x20 PUSH1 0x40 MLOAD DUP1 DUP4 SUB DUP2 DUP7 GAS STATICCALL ISZERO DUP1 ISZERO PUSH2 0xEA6 JUMPI RETURNDATASIZE PUSH1 0x0 DUP1 RETURNDATACOPY RETURNDATASIZE PUSH1 0x0 REVERT JUMPDEST POP POP POP POP PUSH1 0x40 MLOAD RETURNDATASIZE PUSH1 0x1F NOT PUSH1 0x1F DUP3 ADD AND DUP3 ADD DUP1 PUSH1 0x40 MSTORE POP DUP2 ADD SWAP1 PUSH2 0xECA SWAP2 SWAP1 PUSH2 0x149E JUMP JUMPDEST DUP2 LT PUSH1 0x40 MLOAD DUP1 PUSH1 0x40 ADD PUSH1 0x40 MSTORE DUP1 PUSH1 0x1 DUP2 MSTORE PUSH1 0x20 ADD PUSH1 0x35 PUSH1 0xF8 SHL DUP2 MSTORE POP SWAP1 PUSH2 0xF04 JUMPI PUSH1 0x40 MLOAD PUSH3 0x461BCD PUSH1 0xE5 SHL DUP2 MSTORE PUSH1 0x4 ADD PUSH2 0x385 SWAP2 SWAP1 PUSH2 0x14DB JUMP JUMPDEST POP PUSH1 0x40 MLOAD PUSH4 0x3C23D3D9 PUSH1 0xE2 SHL DUP2 MSTORE PUSH1 0x4 DUP2 ADD DUP5 SWAP1 MSTORE DUP4 SWAP1 PUSH1 0x0 SWAP1 PUSH1 0x1 PUSH1 0x1 PUSH1 0xA0 SHL SUB PUSH32 0x0 AND SWAP1 PUSH4 0xF08F4F64 SWAP1 PUSH1 0x24 ADD PUSH1 0x0 PUSH1 0x40 MLOAD DUP1 DUP4 SUB DUP2 DUP7 GAS STATICCALL ISZERO DUP1 ISZERO PUSH2 0xF6F JUMPI RETURNDATASIZE PUSH1 0x0 DUP1 RETURNDATACOPY RETURNDATASIZE PUSH1 0x0 REVERT JUMPDEST POP POP POP POP PUSH1 0x40 MLOAD RETURNDATASIZE PUSH1 0x0 DUP3 RETURNDATACOPY PUSH1 0x1F RETURNDATASIZE SWAP1 DUP2 ADD PUSH1 0x1F NOT AND DUP3 ADD PUSH1 0x40 MSTORE PUSH2 0xF97 SWAP2 SWAP1 DUP2 ADD SWAP1 PUSH2 0x1524 JUMP JUMPDEST POP POP PUSH1 0x40 DUP1 MLOAD DUP1 DUP3 ADD SWAP1 SWAP2 MSTORE PUSH1 0x1 DUP2 MSTORE PUSH1 0x31 PUSH1 0xF8 SHL PUSH1 0x20 DUP3 ADD MSTORE SWAP1 SWAP2 POP PUSH1 0x1 PUSH1 0x1 PUSH1 0xA0 SHL SUB DUP3 AND CALLER EQ PUSH2 0xFDD JUMPI PUSH1 0x40 MLOAD PUSH3 0x461BCD PUSH1 0xE5 SHL DUP2 MSTORE PUSH1 0x4 ADD PUSH2 0x385 SWAP2 SWAP1 PUSH2 0x14DB JUMP JUMPDEST POP PUSH2 0xFE8 DUP6 DUP6 PUSH2 0x1293 JUMP JUMPDEST PUSH1 0x40 DUP1 MLOAD DUP7 DUP2 MSTORE PUSH1 0x20 DUP2 ADD DUP7 SWAP1 MSTORE PUSH32 0xD4EA22D2AB0FEF3D73A9C65CEC244AE56B85825C9DED190F80B5C626C0BCABC4 SWAP2 ADD PUSH1 0x40 MLOAD DUP1 SWAP2 SUB SWAP1 LOG1 POP POP POP POP POP JUMP JUMPDEST PUSH1 0x1 PUSH1 0x1 PUSH1 0xA0 SHL SUB DUP2 DUP2 AND PUSH1 0x0 SWAP1 DUP2 MSTORE PUSH1 0x3 PUSH1 0x20 MSTORE PUSH1 0x40 DUP2 KECCAK256 SLOAD SWAP1 SWAP2 AND PUSH2 0x104E JUMPI PUSH1 0x0 DUP1 REVERT JUMPDEST POP PUSH1 0x1 PUSH1 0x1 PUSH1 0xA0 SHL SUB SWAP1 DUP2 AND PUSH1 0x0 SWAP1 DUP2 MSTORE PUSH1 0x3 PUSH1 0x20 MSTORE PUSH1 0x40 SWAP1 KECCAK256 SLOAD AND SWAP1 JUMP JUMPDEST PUSH1 0x0 DUP1 DUP3 PUSH32 0x0 PUSH1 0x1 PUSH1 0x1 PUSH1 0xA0 SHL SUB AND PUSH4 0xD2ADBE79 PUSH1 0x40 MLOAD DUP2 PUSH4 0xFFFFFFFF AND PUSH1 0xE0 SHL DUP2 MSTORE PUSH1 0x4 ADD PUSH1 0x20 PUSH1 0x40 MLOAD DUP1 DUP4 SUB DUP2 DUP7 GAS STATICCALL ISZERO DUP1 ISZERO PUSH2 0x10CF JUMPI RETURNDATASIZE PUSH1 0x0 DUP1 RETURNDATACOPY RETURNDATASIZE PUSH1 0x0 REVERT JUMPDEST POP POP POP POP PUSH1 0x40 MLOAD RETURNDATASIZE PUSH1 0x1F NOT PUSH1 0x1F DUP3 ADD AND DUP3 ADD DUP1 PUSH1 0x40 MSTORE POP DUP2 ADD SWAP1 PUSH2 0x10F3 SWAP2 SWAP1 PUSH2 0x149E JUMP JUMPDEST DUP2 LT PUSH1 0x40 MLOAD DUP1 PUSH1 0x40 ADD PUSH1 0x40 MSTORE DUP1 PUSH1 0x1 DUP2 MSTORE PUSH1 0x20 ADD PUSH1 0x35 PUSH1 0xF8 SHL DUP2 MSTORE POP SWAP1 PUSH2 0x112D JUMPI PUSH1 0x40 MLOAD PUSH3 0x461BCD PUSH1 0xE5 SHL DUP2 MSTORE PUSH1 0x4 ADD PUSH2 0x385 SWAP2 SWAP1 PUSH2 0x14DB JUMP JUMPDEST POP PUSH1 0x0 DUP5 DUP2 MSTORE PUSH1 0x2 PUSH1 0x20 MSTORE PUSH1 0x40 SWAP1 KECCAK256 SLOAD PUSH2 0x1149 SWAP1 PUSH1 0x1 SWAP1 PUSH2 0x16C3 JUMP JUMPDEST PUSH1 0x0 SWAP5 DUP6 MSTORE PUSH1 0x2 PUSH1 0x20 MSTORE PUSH1 0x40 SWAP1 SWAP5 KECCAK256 PUSH1 0x1 ADD SLOAD SWAP4 SWAP5 SWAP3 POP POP POP JUMP JUMPDEST PUSH1 0x0 SLOAD PUSH1 0x1 PUSH1 0x1 PUSH1 0xA0 SHL SUB AND CALLER EQ PUSH2 0x118E JUMPI PUSH1 0x40 MLOAD PUSH3 0x461BCD PUSH1 0xE5 SHL DUP2 MSTORE PUSH1 0x4 ADD PUSH2 0x385 SWAP1 PUSH2 0x1629 JUMP JUMPDEST PUSH1 0x0 SLOAD PUSH1 0x40 DUP1 MLOAD DUP1 DUP3 ADD SWAP1 SWAP2 MSTORE PUSH1 0x1 DUP2 MSTORE PUSH1 0x31 PUSH1 0xF8 SHL PUSH1 0x20 DUP3 ADD MSTORE SWAP1 PUSH1 0x1 PUSH1 0x1 PUSH1 0xA0 SHL SUB DUP4 DUP2 AND SWAP2 AND SUB PUSH2 0x11D5 JUMPI PUSH1 0x40 MLOAD PUSH3 0x461BCD PUSH1 0xE5 SHL DUP2 MSTORE PUSH1 0x4 ADD PUSH2 0x385 SWAP2 SWAP1 PUSH2 0x14DB JUMP JUMPDEST POP PUSH1 0x5 DUP1 SLOAD PUSH1 0x1 PUSH1 0x1 PUSH1 0xA0 SHL SUB NOT AND PUSH1 0x1 PUSH1 0x1 PUSH1 0xA0 SHL SUB SWAP3 SWAP1 SWAP3 AND SWAP2 SWAP1 SWAP2 OR SWAP1 SSTORE JUMP JUMPDEST PUSH1 0x0 SLOAD PUSH1 0x1 PUSH1 0x1 PUSH1 0xA0 SHL SUB AND CALLER EQ PUSH2 0x1222 JUMPI PUSH1 0x40 MLOAD PUSH3 0x461BCD PUSH1 0xE5 SHL DUP2 MSTORE PUSH1 0x4 ADD PUSH2 0x385 SWAP1 PUSH2 0x1629 JUMP JUMPDEST PUSH1 0x1 PUSH1 0x1 PUSH1 0xA0 SHL SUB DUP2 AND PUSH2 0x1287 JUMPI PUSH1 0x40 MLOAD PUSH3 0x461BCD PUSH1 0xE5 SHL DUP2 MSTORE PUSH1 0x20 PUSH1 0x4 DUP3 ADD MSTORE PUSH1 0x26 PUSH1 0x24 DUP3 ADD MSTORE PUSH32 0x4F776E61626C653A206E6577206F776E657220697320746865207A65726F2061 PUSH1 0x44 DUP3 ADD MSTORE PUSH6 0x646472657373 PUSH1 0xD0 SHL PUSH1 0x64 DUP3 ADD MSTORE PUSH1 0x84 ADD PUSH2 0x385 JUMP JUMPDEST PUSH2 0x1290 DUP2 PUSH2 0x131D JUMP JUMPDEST POP JUMP JUMPDEST PUSH1 0x40 DUP1 MLOAD DUP1 DUP3 ADD SWAP1 SWAP2 MSTORE PUSH1 0x1 DUP1 DUP3 MSTORE PUSH1 0x19 PUSH1 0xF9 SHL PUSH1 0x20 DUP4 ADD MSTORE DUP3 LT ISZERO PUSH2 0x12CC JUMPI PUSH1 0x40 MLOAD PUSH3 0x461BCD PUSH1 0xE5 SHL DUP2 MSTORE PUSH1 0x4 ADD PUSH2 0x385 SWAP2 SWAP1 PUSH2 0x14DB JUMP JUMPDEST POP PUSH1 0x40 DUP1 MLOAD DUP1 DUP3 ADD SWAP1 SWAP2 MSTORE PUSH1 0x1 DUP2 MSTORE PUSH1 0x19 PUSH1 0xF9 SHL PUSH1 0x20 DUP3 ADD MSTORE PUSH1 0x64 DUP3 GT ISZERO PUSH2 0x1307 JUMPI PUSH1 0x40 MLOAD PUSH3 0x461BCD PUSH1 0xE5 SHL DUP2 MSTORE PUSH1 0x4 ADD PUSH2 0x385 SWAP2 SWAP1 PUSH2 0x14DB JUMP JUMPDEST POP PUSH1 0x0 SWAP2 DUP3 MSTORE PUSH1 0x2 PUSH1 0x20 MSTORE PUSH1 0x40 SWAP1 SWAP2 KECCAK256 PUSH1 0x1 ADD SSTORE JUMP JUMPDEST PUSH1 0x0 DUP1 SLOAD PUSH1 0x1 PUSH1 0x1 PUSH1 0xA0 SHL SUB DUP4 DUP2 AND PUSH1 0x1 PUSH1 0x1 PUSH1 0xA0 SHL SUB NOT DUP4 AND DUP2 OR DUP5 SSTORE PUSH1 0x40 MLOAD SWAP2 SWAP1 SWAP3 AND SWAP3 DUP4 SWAP2 PUSH32 0x8BE0079C531659141344CD1FD0A4F28419497F9722A3DAAFE3B4186F6B6457E0 SWAP2 SWAP1 LOG3 POP POP JUMP JUMPDEST PUSH2 0x1FE8 DUP1 PUSH3 0x16D7 DUP4 CODECOPY ADD SWAP1 JUMP JUMPDEST PUSH1 0x1 PUSH1 0x1 PUSH1 0xA0 SHL SUB DUP2 AND DUP2 EQ PUSH2 0x1290 JUMPI PUSH1 0x0 DUP1 REVERT JUMPDEST PUSH1 0x0 DUP1 PUSH1 0x0 PUSH1 0x60 DUP5 DUP7 SUB SLT ISZERO PUSH2 0x13A5 JUMPI PUSH1 0x0 DUP1 REVERT JUMPDEST DUP4 CALLDATALOAD SWAP3 POP PUSH1 0x20 DUP5 ADD CALLDATALOAD SWAP2 POP PUSH1 0x40 DUP5 ADD CALLDATALOAD PUSH2 0x13BE DUP2 PUSH2 0x137B JUMP JUMPDEST DUP1 SWAP2 POP POP SWAP3 POP SWAP3 POP SWAP3 JUMP JUMPDEST PUSH1 0x0 PUSH1 0x20 DUP3 DUP5 SUB SLT ISZERO PUSH2 0x13DB JUMPI PUSH1 0x0 DUP1 REVERT JUMPDEST DUP2 CALLDATALOAD PUSH2 0x13E6 DUP2 PUSH2 0x137B JUMP JUMPDEST SWAP4 SWAP3 POP POP POP JUMP JUMPDEST PUSH1 0x0 PUSH1 0x20 DUP3 DUP5 SUB SLT ISZERO PUSH2 0x13FF JUMPI PUSH1 0x0 DUP1 REVERT JUMPDEST POP CALLDATALOAD SWAP2 SWAP1 POP JUMP JUMPDEST PUSH1 0x0 DUP1 PUSH1 0x0 PUSH1 0x60 DUP5 DUP7 SUB SLT ISZERO PUSH2 0x141B JUMPI PUSH1 0x0 DUP1 REVERT JUMPDEST POP POP DUP2 CALLDATALOAD SWAP4 PUSH1 0x20 DUP4 ADD CALLDATALOAD SWAP4 POP PUSH1 0x40 SWAP1 SWAP3 ADD CALLDATALOAD SWAP2 SWAP1 POP JUMP JUMPDEST PUSH1 0x0 DUP1 PUSH1 0x0 DUP1 PUSH1 0x80 DUP6 DUP8 SUB SLT ISZERO PUSH2 0x1448 JUMPI PUSH1 0x0 DUP1 REVERT JUMPDEST DUP5 CALLDATALOAD SWAP4 POP PUSH1 0x20 DUP6 ADD CALLDATALOAD SWAP3 POP PUSH1 0x40 DUP6 ADD CALLDATALOAD PUSH2 0x1461 DUP2 PUSH2 0x137B JUMP JUMPDEST SWAP2 POP PUSH1 0x60 DUP6 ADD CALLDATALOAD PUSH2 0x1471 DUP2 PUSH2 0x137B JUMP JUMPDEST SWAP4 SWAP7 SWAP3 SWAP6 POP SWAP1 SWAP4 POP POP JUMP JUMPDEST PUSH1 0x0 DUP1 PUSH1 0x40 DUP4 DUP6 SUB SLT ISZERO PUSH2 0x148F JUMPI PUSH1 0x0 DUP1 REVERT JUMPDEST POP POP DUP1 CALLDATALOAD SWAP3 PUSH1 0x20 SWAP1 SWAP2 ADD CALLDATALOAD SWAP2 POP JUMP JUMPDEST PUSH1 0x0 PUSH1 0x20 DUP3 DUP5 SUB SLT ISZERO PUSH2 0x14B0 JUMPI PUSH1 0x0 DUP1 REVERT JUMPDEST POP MLOAD SWAP2 SWAP1 POP JUMP JUMPDEST PUSH1 0x0 JUMPDEST DUP4 DUP2 LT ISZERO PUSH2 0x14D2 JUMPI DUP2 DUP2 ADD MLOAD DUP4 DUP3 ADD MSTORE PUSH1 0x20 ADD PUSH2 0x14BA JUMP JUMPDEST POP POP PUSH1 0x0 SWAP2 ADD MSTORE JUMP JUMPDEST PUSH1 0x20 DUP2 MSTORE PUSH1 0x0 DUP3 MLOAD DUP1 PUSH1 0x20 DUP5 ADD MSTORE PUSH2 0x14FA DUP2 PUSH1 0x40 DUP6 ADD PUSH1 0x20 DUP8 ADD PUSH2 0x14B7 JUMP JUMPDEST PUSH1 0x1F ADD PUSH1 0x1F NOT AND SWAP2 SWAP1 SWAP2 ADD PUSH1 0x40 ADD SWAP3 SWAP2 POP POP JUMP JUMPDEST PUSH4 0x4E487B71 PUSH1 0xE0 SHL PUSH1 0x0 MSTORE PUSH1 0x41 PUSH1 0x4 MSTORE PUSH1 0x24 PUSH1 0x0 REVERT JUMPDEST PUSH1 0x0 DUP1 PUSH1 0x0 PUSH1 0x60 DUP5 DUP7 SUB SLT ISZERO PUSH2 0x1539 JUMPI PUSH1 0x0 DUP1 REVERT JUMPDEST DUP4 MLOAD PUSH2 0x1544 DUP2 PUSH2 0x137B JUMP JUMPDEST PUSH1 0x20 DUP6 ADD MLOAD SWAP1 SWAP4 POP PUSH2 0x1555 DUP2 PUSH2 0x137B JUMP JUMPDEST PUSH1 0x40 DUP6 ADD MLOAD SWAP1 SWAP3 POP PUSH8 0xFFFFFFFFFFFFFFFF DUP1 DUP3 GT ISZERO PUSH2 0x1573 JUMPI PUSH1 0x0 DUP1 REVERT JUMPDEST DUP2 DUP7 ADD SWAP2 POP DUP7 PUSH1 0x1F DUP4 ADD SLT PUSH2 0x1587 JUMPI PUSH1 0x0 DUP1 REVERT JUMPDEST DUP2 MLOAD DUP2 DUP2 GT ISZERO PUSH2 0x1599 JUMPI PUSH2 0x1599 PUSH2 0x150E JUMP JUMPDEST PUSH1 0x40 MLOAD PUSH1 0x1F DUP3 ADD PUSH1 0x1F NOT SWAP1 DUP2 AND PUSH1 0x3F ADD AND DUP2 ADD SWAP1 DUP4 DUP3 GT DUP2 DUP4 LT OR ISZERO PUSH2 0x15C1 JUMPI PUSH2 0x15C1 PUSH2 0x150E JUMP JUMPDEST DUP2 PUSH1 0x40 MSTORE DUP3 DUP2 MSTORE DUP10 PUSH1 0x20 DUP5 DUP8 ADD ADD GT ISZERO PUSH2 0x15DA JUMPI PUSH1 0x0 DUP1 REVERT JUMPDEST PUSH2 0x15EB DUP4 PUSH1 0x20 DUP4 ADD PUSH1 0x20 DUP9 ADD PUSH2 0x14B7 JUMP JUMPDEST DUP1 SWAP6 POP POP POP POP POP POP SWAP3 POP SWAP3 POP SWAP3 JUMP JUMPDEST PUSH4 0x4E487B71 PUSH1 0xE0 SHL PUSH1 0x0 MSTORE PUSH1 0x11 PUSH1 0x4 MSTORE PUSH1 0x24 PUSH1 0x0 REVERT JUMPDEST DUP1 DUP3 ADD DUP1 DUP3 GT ISZERO PUSH2 0x1623 JUMPI PUSH2 0x1623 PUSH2 0x15FA JUMP JUMPDEST SWAP3 SWAP2 POP POP JUMP JUMPDEST PUSH1 0x20 DUP1 DUP3 MSTORE DUP2 DUP2 ADD MSTORE PUSH32 0x4F776E61626C653A2063616C6C6572206973206E6F7420746865206F776E6572 PUSH1 0x40 DUP3 ADD MSTORE PUSH1 0x60 ADD SWAP1 JUMP JUMPDEST DUP1 MLOAD DUP1 ISZERO ISZERO DUP2 EQ PUSH2 0x166E JUMPI PUSH1 0x0 DUP1 REVERT JUMPDEST SWAP2 SWAP1 POP JUMP JUMPDEST PUSH1 0x0 PUSH1 0x20 DUP3 DUP5 SUB SLT ISZERO PUSH2 0x1685 JUMPI PUSH1 0x0 DUP1 REVERT JUMPDEST PUSH2 0x13E6 DUP3 PUSH2 0x165E JUMP JUMPDEST PUSH1 0x0 DUP1 PUSH1 0x0 PUSH1 0x60 DUP5 DUP7 SUB SLT ISZERO PUSH2 0x16A3 JUMPI PUSH1 0x0 DUP1 REVERT JUMPDEST DUP4 MLOAD SWAP3 POP PUSH1 0x20 DUP5 ADD MLOAD SWAP2 POP PUSH2 0x16BA PUSH1 0x40 DUP6 ADD PUSH2 0x165E JUMP JUMPDEST SWAP1 POP SWAP3 POP SWAP3 POP SWAP3 JUMP JUMPDEST DUP2 DUP2 SUB DUP2 DUP2 GT ISZERO PUSH2 0x1623 JUMPI PUSH2 0x1623 PUSH2 0x15FA JUMP INVALID PUSH2 0x100 PUSH1 0x40 MSTORE CALLVALUE DUP1 ISZERO PUSH3 0x12 JUMPI PUSH1 0x0 DUP1 REVERT JUMPDEST POP PUSH1 0x40 MLOAD PUSH3 0x1FE8 CODESIZE SUB DUP1 PUSH3 0x1FE8 DUP4 CODECOPY DUP2 ADD PUSH1 0x40 DUP2 SWAP1 MSTORE PUSH3 0x35 SWAP2 PUSH3 0x75 JUMP JUMPDEST PUSH1 0x1 PUSH1 0x1 PUSH1 0xA0 SHL SUB SWAP4 DUP5 AND PUSH1 0x80 MSTORE SWAP2 DUP4 AND PUSH1 0xA0 MSTORE DUP3 AND PUSH1 0xC0 MSTORE AND PUSH1 0xE0 MSTORE PUSH3 0xD2 JUMP JUMPDEST DUP1 MLOAD PUSH1 0x1 PUSH1 0x1 PUSH1 0xA0 SHL SUB DUP2 AND DUP2 EQ PUSH3 0x70 JUMPI PUSH1 0x0 DUP1 REVERT JUMPDEST SWAP2 SWAP1 POP JUMP JUMPDEST PUSH1 0x0 DUP1 PUSH1 0x0 DUP1 PUSH1 0x80 DUP6 DUP8 SUB SLT ISZERO PUSH3 0x8C JUMPI PUSH1 0x0 DUP1 REVERT JUMPDEST PUSH3 0x97 DUP6 PUSH3 0x58 JUMP JUMPDEST SWAP4 POP PUSH3 0xA7 PUSH1 0x20 DUP7 ADD PUSH3 0x58 JUMP JUMPDEST SWAP3 POP PUSH3 0xB7 PUSH1 0x40 DUP7 ADD PUSH3 0x58 JUMP JUMPDEST SWAP2 POP PUSH3 0xC7 PUSH1 0x60 DUP7 ADD PUSH3 0x58 JUMP JUMPDEST SWAP1 POP SWAP3 SWAP6 SWAP2 SWAP5 POP SWAP3 POP JUMP JUMPDEST PUSH1 0x80 MLOAD PUSH1 0xA0 MLOAD PUSH1 0xC0 MLOAD PUSH1 0xE0 MLOAD PUSH2 0x1E5E PUSH3 0x18A PUSH1 0x0 CODECOPY PUSH1 0x0 DUP2 DUP2 PUSH2 0xAFF ADD MSTORE DUP2 DUP2 PUSH2 0xBC3 ADD MSTORE DUP2 DUP2 PUSH2 0x1074 ADD MSTORE DUP2 DUP2 PUSH2 0x1135 ADD MSTORE DUP2 DUP2 PUSH2 0x14C9 ADD MSTORE DUP2 DUP2 PUSH2 0x16A6 ADD MSTORE DUP2 DUP2 PUSH2 0x173B ADD MSTORE DUP2 DUP2 PUSH2 0x17DC ADD MSTORE PUSH2 0x1854 ADD MSTORE PUSH1 0x0 DUP2 DUP2 PUSH2 0x367 ADD MSTORE DUP2 DUP2 PUSH2 0x7F4 ADD MSTORE DUP2 DUP2 PUSH2 0xB2E ADD MSTORE DUP2 DUP2 PUSH2 0xCAC ADD MSTORE DUP2 DUP2 PUSH2 0xD80 ADD MSTORE DUP2 DUP2 PUSH2 0xE1D ADD MSTORE DUP2 DUP2 PUSH2 0xFD5 ADD MSTORE DUP2 DUP2 PUSH2 0x13EB ADD MSTORE PUSH2 0x14F1 ADD MSTORE PUSH1 0x0 DUP2 DUP2 PUSH2 0x427 ADD MSTORE PUSH2 0x10A2 ADD MSTORE PUSH1 0x0 DUP2 DUP2 PUSH2 0x524 ADD MSTORE PUSH2 0x1354 ADD MSTORE PUSH2 0x1E5E PUSH1 0x0 RETURN INVALID PUSH1 0x80 PUSH1 0x40 MSTORE PUSH1 0x4 CALLDATASIZE LT PUSH2 0x55 JUMPI PUSH1 0x0 CALLDATALOAD PUSH1 0xE0 SHR DUP1 PUSH4 0x9E02C17 EQ PUSH2 0x5A JUMPI DUP1 PUSH4 0x4585E33B EQ PUSH2 0x7C JUMPI DUP1 PUSH4 0x6E04FF0D EQ PUSH2 0x9C JUMPI DUP1 PUSH4 0x7E80C186 EQ PUSH2 0xD3 JUMPI DUP1 PUSH4 0x84370813 EQ PUSH2 0xE8 JUMPI DUP1 PUSH4 0xD53D5E42 EQ PUSH2 0x109 JUMPI JUMPDEST PUSH1 0x0 DUP1 REVERT JUMPDEST CALLVALUE DUP1 ISZERO PUSH2 0x66 JUMPI PUSH1 0x0 DUP1 REVERT JUMPDEST POP PUSH2 0x7A PUSH2 0x75 CALLDATASIZE PUSH1 0x4 PUSH2 0x191E JUMP JUMPDEST PUSH2 0x146 JUMP JUMPDEST STOP JUMPDEST CALLVALUE DUP1 ISZERO PUSH2 0x88 JUMPI PUSH1 0x0 DUP1 REVERT JUMPDEST POP PUSH2 0x7A PUSH2 0x97 CALLDATASIZE PUSH1 0x4 PUSH2 0x1940 JUMP JUMPDEST PUSH2 0x261 JUMP JUMPDEST CALLVALUE DUP1 ISZERO PUSH2 0xA8 JUMPI PUSH1 0x0 DUP1 REVERT JUMPDEST POP PUSH2 0xBC PUSH2 0xB7 CALLDATASIZE PUSH1 0x4 PUSH2 0x1940 JUMP JUMPDEST PUSH2 0x8C8 JUMP JUMPDEST PUSH1 0x40 MLOAD PUSH2 0xCA SWAP3 SWAP2 SWAP1 PUSH2 0x1A02 JUMP JUMPDEST PUSH1 0x40 MLOAD DUP1 SWAP2 SUB SWAP1 RETURN JUMPDEST CALLVALUE DUP1 ISZERO PUSH2 0xDF JUMPI PUSH1 0x0 DUP1 REVERT JUMPDEST POP PUSH2 0x7A PUSH2 0xAFD JUMP JUMPDEST PUSH2 0xFB PUSH2 0xF6 CALLDATASIZE PUSH1 0x4 PUSH2 0x191E JUMP JUMPDEST PUSH2 0xCA8 JUMP JUMPDEST PUSH1 0x40 MLOAD SWAP1 DUP2 MSTORE PUSH1 0x20 ADD PUSH2 0xCA JUMP JUMPDEST CALLVALUE DUP1 ISZERO PUSH2 0x115 JUMPI PUSH1 0x0 DUP1 REVERT JUMPDEST POP PUSH2 0x129 PUSH2 0x124 CALLDATASIZE PUSH1 0x4 PUSH2 0x1A32 JUMP JUMPDEST PUSH2 0x159A JUMP JUMPDEST PUSH1 0x40 DUP1 MLOAD SWAP4 DUP5 MSTORE PUSH1 0x20 DUP5 ADD SWAP3 SWAP1 SWAP3 MSTORE ISZERO ISZERO SWAP1 DUP3 ADD MSTORE PUSH1 0x60 ADD PUSH2 0xCA JUMP JUMPDEST PUSH1 0x0 PUSH2 0x153 DUP4 DUP4 CALLER PUSH2 0x15DB JUMP JUMPDEST PUSH1 0x0 DUP2 DUP2 MSTORE PUSH1 0x20 DUP2 DUP2 MSTORE PUSH1 0x40 SWAP2 DUP3 SWAP1 KECCAK256 PUSH1 0x2 ADD SLOAD DUP3 MLOAD DUP1 DUP5 ADD SWAP1 SWAP4 MSTORE PUSH1 0x1 DUP4 MSTORE PUSH1 0x33 PUSH1 0xF8 SHL SWAP2 DUP4 ADD SWAP2 SWAP1 SWAP2 MSTORE SWAP2 SWAP3 POP SWAP1 PUSH1 0x1 PUSH1 0x1 PUSH1 0xA0 SHL SUB AND CALLER EQ PUSH2 0x1B4 JUMPI PUSH1 0x40 MLOAD PUSH3 0x461BCD PUSH1 0xE5 SHL DUP2 MSTORE PUSH1 0x4 ADD PUSH2 0x1AB SWAP2 SWAP1 PUSH2 0x1A6B JUMP JUMPDEST PUSH1 0x40 MLOAD DUP1 SWAP2 SUB SWAP1 REVERT JUMPDEST POP PUSH1 0x0 DUP2 DUP2 MSTORE PUSH1 0x20 DUP2 DUP2 MSTORE PUSH1 0x40 SWAP2 DUP3 SWAP1 KECCAK256 PUSH1 0x5 ADD SLOAD DUP3 MLOAD DUP1 DUP5 ADD SWAP1 SWAP4 MSTORE PUSH1 0x2 DUP4 MSTORE PUSH2 0x3131 PUSH1 0xF0 SHL SWAP2 DUP4 ADD SWAP2 SWAP1 SWAP2 MSTORE PUSH1 0xFF AND ISZERO PUSH2 0x203 JUMPI PUSH1 0x40 MLOAD PUSH3 0x461BCD PUSH1 0xE5 SHL DUP2 MSTORE PUSH1 0x4 ADD PUSH2 0x1AB SWAP2 SWAP1 PUSH2 0x1A6B JUMP JUMPDEST POP PUSH1 0x0 DUP2 DUP2 MSTORE PUSH1 0x20 DUP2 SWAP1 MSTORE PUSH1 0x40 SWAP1 DUP2 SWAP1 KECCAK256 PUSH1 0x5 ADD DUP1 SLOAD PUSH1 0xFF NOT AND PUSH1 0x1 OR SWAP1 SSTORE MLOAD PUSH32 0xBDCD5F8B5E00DA56711125E00A6F462FE30C2C17EDB4CECEC2E7BBEAC057377D SWAP1 PUSH2 0x254 SWAP1 DUP6 SWAP1 DUP6 SWAP1 CALLER SWAP1 PUSH2 0x1A85 JUMP JUMPDEST PUSH1 0x40 MLOAD DUP1 SWAP2 SUB SWAP1 LOG1 POP POP POP JUMP JUMPDEST PUSH1 0x0 GAS SWAP1 POP PUSH1 0x0 DUP1 PUSH2 0x275 DUP5 DUP7 ADD DUP7 PUSH2 0x1AFB JUMP JUMPDEST SWAP2 POP SWAP2 POP PUSH1 0x0 JUMPDEST DUP3 MLOAD DUP2 LT ISZERO PUSH2 0x7EB JUMPI TIMESTAMP PUSH1 0x0 DUP1 DUP6 DUP5 DUP2 MLOAD DUP2 LT PUSH2 0x29B JUMPI PUSH2 0x29B PUSH2 0x1BB3 JUMP JUMPDEST PUSH1 0x20 MUL PUSH1 0x20 ADD ADD MLOAD DUP2 MSTORE PUSH1 0x20 ADD SWAP1 DUP2 MSTORE PUSH1 0x20 ADD PUSH1 0x0 KECCAK256 PUSH1 0x4 ADD SLOAD LT PUSH1 0x40 MLOAD DUP1 PUSH1 0x40 ADD PUSH1 0x40 MSTORE DUP1 PUSH1 0x2 DUP2 MSTORE PUSH1 0x20 ADD PUSH2 0x313 PUSH1 0xF4 SHL DUP2 MSTORE POP SWAP1 PUSH2 0x2EF JUMPI PUSH1 0x40 MLOAD PUSH3 0x461BCD PUSH1 0xE5 SHL DUP2 MSTORE PUSH1 0x4 ADD PUSH2 0x1AB SWAP2 SWAP1 PUSH2 0x1A6B JUMP JUMPDEST POP PUSH1 0x0 DUP1 DUP5 DUP4 DUP2 MLOAD DUP2 LT PUSH2 0x305 JUMPI PUSH2 0x305 PUSH2 0x1BB3 JUMP JUMPDEST PUSH1 0x20 SWAP1 DUP2 MUL SWAP2 SWAP1 SWAP2 ADD DUP2 ADD MLOAD DUP3 MSTORE DUP2 DUP2 ADD SWAP3 SWAP1 SWAP3 MSTORE PUSH1 0x40 SWAP1 DUP2 ADD PUSH1 0x0 KECCAK256 PUSH1 0x5 ADD SLOAD DUP2 MLOAD DUP1 DUP4 ADD SWAP1 SWAP3 MSTORE PUSH1 0x2 DUP3 MSTORE PUSH2 0x3131 PUSH1 0xF0 SHL SWAP3 DUP3 ADD SWAP3 SWAP1 SWAP3 MSTORE SWAP1 PUSH1 0xFF AND ISZERO PUSH2 0x361 JUMPI PUSH1 0x40 MLOAD PUSH3 0x461BCD PUSH1 0xE5 SHL DUP2 MSTORE PUSH1 0x4 ADD PUSH2 0x1AB SWAP2 SWAP1 PUSH2 0x1A6B JUMP JUMPDEST POP PUSH1 0x0 DUP1 PUSH32 0x0 PUSH1 0x1 PUSH1 0x1 PUSH1 0xA0 SHL SUB AND PUSH4 0xED74A202 PUSH1 0x0 DUP1 DUP9 DUP8 DUP2 MLOAD DUP2 LT PUSH2 0x3A9 JUMPI PUSH2 0x3A9 PUSH2 0x1BB3 JUMP JUMPDEST PUSH1 0x20 MUL PUSH1 0x20 ADD ADD MLOAD DUP2 MSTORE PUSH1 0x20 ADD SWAP1 DUP2 MSTORE PUSH1 0x20 ADD PUSH1 0x0 KECCAK256 PUSH1 0x0 ADD SLOAD PUSH1 0x40 MLOAD DUP3 PUSH4 0xFFFFFFFF AND PUSH1 0xE0 SHL DUP2 MSTORE PUSH1 0x4 ADD PUSH2 0x3E1 SWAP2 DUP2 MSTORE PUSH1 0x20 ADD SWAP1 JUMP JUMPDEST PUSH1 0x40 DUP1 MLOAD DUP1 DUP4 SUB DUP2 DUP7 GAS STATICCALL ISZERO DUP1 ISZERO PUSH2 0x3FD JUMPI RETURNDATASIZE PUSH1 0x0 DUP1 RETURNDATACOPY RETURNDATASIZE PUSH1 0x0 REVERT JUMPDEST POP POP POP POP PUSH1 0x40 MLOAD RETURNDATASIZE PUSH1 0x1F NOT PUSH1 0x1F DUP3 ADD AND DUP3 ADD DUP1 PUSH1 0x40 MSTORE POP DUP2 ADD SWAP1 PUSH2 0x421 SWAP2 SWAP1 PUSH2 0x1BC9 JUMP JUMPDEST SWAP2 POP SWAP2 POP PUSH32 0x0 PUSH1 0x1 PUSH1 0x1 PUSH1 0xA0 SHL SUB AND PUSH4 0x819CA222 PUSH1 0x0 DUP1 DUP9 DUP8 DUP2 MLOAD DUP2 LT PUSH2 0x469 JUMPI PUSH2 0x469 PUSH2 0x1BB3 JUMP JUMPDEST PUSH1 0x20 MUL PUSH1 0x20 ADD ADD MLOAD DUP2 MSTORE PUSH1 0x20 ADD SWAP1 DUP2 MSTORE PUSH1 0x20 ADD PUSH1 0x0 KECCAK256 PUSH1 0x0 ADD SLOAD DUP5 PUSH1 0x40 MLOAD DUP4 PUSH4 0xFFFFFFFF AND PUSH1 0xE0 SHL DUP2 MSTORE PUSH1 0x4 ADD PUSH2 0x4AA SWAP3 SWAP2 SWAP1 SWAP2 DUP3 MSTORE PUSH1 0x20 DUP3 ADD MSTORE PUSH1 0x40 ADD SWAP1 JUMP JUMPDEST PUSH1 0x20 PUSH1 0x40 MLOAD DUP1 DUP4 SUB DUP2 DUP7 GAS STATICCALL ISZERO DUP1 ISZERO PUSH2 0x4C7 JUMPI RETURNDATASIZE PUSH1 0x0 DUP1 RETURNDATACOPY RETURNDATASIZE PUSH1 0x0 REVERT JUMPDEST POP POP POP POP PUSH1 0x40 MLOAD RETURNDATASIZE PUSH1 0x1F NOT PUSH1 0x1F DUP3 ADD AND DUP3 ADD DUP1 PUSH1 0x40 MSTORE POP DUP2 ADD SWAP1 PUSH2 0x4EB SWAP2 SWAP1 PUSH2 0x1BED JUMP JUMPDEST PUSH1 0x0 DUP1 DUP8 DUP7 DUP2 MLOAD DUP2 LT PUSH2 0x500 JUMPI PUSH2 0x500 PUSH2 0x1BB3 JUMP JUMPDEST PUSH1 0x20 MUL PUSH1 0x20 ADD ADD MLOAD DUP2 MSTORE PUSH1 0x20 ADD SWAP1 DUP2 MSTORE PUSH1 0x20 ADD PUSH1 0x0 KECCAK256 PUSH1 0x1 ADD SLOAD LT ISZERO PUSH2 0x6B7 JUMPI PUSH1 0x0 PUSH32 0x0 PUSH1 0x1 PUSH1 0x1 PUSH1 0xA0 SHL SUB AND PUSH4 0xF08F4F64 PUSH1 0x0 DUP1 DUP10 DUP9 DUP2 MLOAD DUP2 LT PUSH2 0x566 JUMPI PUSH2 0x566 PUSH2 0x1BB3 JUMP JUMPDEST PUSH1 0x20 MUL PUSH1 0x20 ADD ADD MLOAD DUP2 MSTORE PUSH1 0x20 ADD SWAP1 DUP2 MSTORE PUSH1 0x20 ADD PUSH1 0x0 KECCAK256 PUSH1 0x0 ADD SLOAD PUSH1 0x40 MLOAD DUP3 PUSH4 0xFFFFFFFF AND PUSH1 0xE0 SHL DUP2 MSTORE PUSH1 0x4 ADD PUSH2 0x59E SWAP2 DUP2 MSTORE PUSH1 0x20 ADD SWAP1 JUMP JUMPDEST PUSH1 0x0 PUSH1 0x40 MLOAD DUP1 DUP4 SUB DUP2 DUP7 GAS STATICCALL ISZERO DUP1 ISZERO PUSH2 0x5BB JUMPI RETURNDATASIZE PUSH1 0x0 DUP1 RETURNDATACOPY RETURNDATASIZE PUSH1 0x0 REVERT JUMPDEST POP POP POP POP PUSH1 0x40 MLOAD RETURNDATASIZE PUSH1 0x0 DUP3 RETURNDATACOPY PUSH1 0x1F RETURNDATASIZE SWAP1 DUP2 ADD PUSH1 0x1F NOT AND DUP3 ADD PUSH1 0x40 MSTORE PUSH2 0x5E3 SWAP2 SWAP1 DUP2 ADD SWAP1 PUSH2 0x1C06 JUMP JUMPDEST POP SWAP2 POP POP PUSH1 0x0 PUSH2 0x664 PUSH1 0x0 DUP1 DUP10 DUP9 DUP2 MLOAD DUP2 LT PUSH2 0x601 JUMPI PUSH2 0x601 PUSH2 0x1BB3 JUMP JUMPDEST PUSH1 0x20 MUL PUSH1 0x20 ADD ADD MLOAD DUP2 MSTORE PUSH1 0x20 ADD SWAP1 DUP2 MSTORE PUSH1 0x20 ADD PUSH1 0x0 KECCAK256 PUSH1 0x2 ADD PUSH1 0x0 SWAP1 SLOAD SWAP1 PUSH2 0x100 EXP SWAP1 DIV PUSH1 0x1 PUSH1 0x1 PUSH1 0xA0 SHL SUB AND DUP4 PUSH1 0x0 DUP1 DUP12 DUP11 DUP2 MLOAD DUP2 LT PUSH2 0x644 JUMPI PUSH2 0x644 PUSH2 0x1BB3 JUMP JUMPDEST PUSH1 0x20 MUL PUSH1 0x20 ADD ADD MLOAD DUP2 MSTORE PUSH1 0x20 ADD SWAP1 DUP2 MSTORE PUSH1 0x20 ADD PUSH1 0x0 KECCAK256 PUSH1 0x3 ADD SLOAD DUP7 PUSH2 0x167C JUMP JUMPDEST SWAP1 POP DUP1 ISZERO PUSH2 0x6B4 JUMPI PUSH2 0x679 TIMESTAMP PUSH3 0x278D00 PUSH2 0x1CD9 JUMP JUMPDEST PUSH1 0x0 DUP1 DUP10 DUP9 DUP2 MLOAD DUP2 LT PUSH2 0x68E JUMPI PUSH2 0x68E PUSH2 0x1BB3 JUMP JUMPDEST PUSH1 0x20 MUL PUSH1 0x20 ADD ADD MLOAD DUP2 MSTORE PUSH1 0x20 ADD SWAP1 DUP2 MSTORE PUSH1 0x20 ADD PUSH1 0x0 KECCAK256 PUSH1 0x4 ADD DUP2 SWAP1 SSTORE POP POP POP POP POP PUSH2 0x7D9 JUMP JUMPDEST POP POP JUMPDEST PUSH1 0x1 PUSH1 0x0 DUP1 DUP8 DUP7 DUP2 MLOAD DUP2 LT PUSH2 0x6CE JUMPI PUSH2 0x6CE PUSH2 0x1BB3 JUMP JUMPDEST PUSH1 0x20 MUL PUSH1 0x20 ADD ADD MLOAD DUP2 MSTORE PUSH1 0x20 ADD SWAP1 DUP2 MSTORE PUSH1 0x20 ADD PUSH1 0x0 KECCAK256 PUSH1 0x5 ADD PUSH1 0x0 PUSH2 0x100 EXP DUP2 SLOAD DUP2 PUSH1 0xFF MUL NOT AND SWAP1 DUP4 ISZERO ISZERO MUL OR SWAP1 SSTORE POP PUSH32 0xBDCD5F8B5E00DA56711125E00A6F462FE30C2C17EDB4CECEC2E7BBEAC057377D PUSH1 0x0 DUP1 DUP8 DUP7 DUP2 MLOAD DUP2 LT PUSH2 0x734 JUMPI PUSH2 0x734 PUSH2 0x1BB3 JUMP JUMPDEST PUSH1 0x20 MUL PUSH1 0x20 ADD ADD MLOAD DUP2 MSTORE PUSH1 0x20 ADD SWAP1 DUP2 MSTORE PUSH1 0x20 ADD PUSH1 0x0 KECCAK256 PUSH1 0x0 ADD SLOAD PUSH1 0x0 DUP1 DUP9 DUP8 DUP2 MLOAD DUP2 LT PUSH2 0x763 JUMPI PUSH2 0x763 PUSH2 0x1BB3 JUMP JUMPDEST PUSH1 0x20 MUL PUSH1 0x20 ADD ADD MLOAD DUP2 MSTORE PUSH1 0x20 ADD SWAP1 DUP2 MSTORE PUSH1 0x20 ADD PUSH1 0x0 KECCAK256 PUSH1 0x1 ADD SLOAD PUSH1 0x0 DUP1 DUP10 DUP9 DUP2 MLOAD DUP2 LT PUSH2 0x792 JUMPI PUSH2 0x792 PUSH2 0x1BB3 JUMP JUMPDEST PUSH1 0x20 MUL PUSH1 0x20 ADD ADD MLOAD DUP2 MSTORE PUSH1 0x20 ADD SWAP1 DUP2 MSTORE PUSH1 0x20 ADD PUSH1 0x0 KECCAK256 PUSH1 0x2 ADD PUSH1 0x0 SWAP1 SLOAD SWAP1 PUSH2 0x100 EXP SWAP1 DIV PUSH1 0x1 PUSH1 0x1 PUSH1 0xA0 SHL SUB AND PUSH1 0x40 MLOAD PUSH2 0x7CE SWAP4 SWAP3 SWAP2 SWAP1 PUSH2 0x1A85 JUMP JUMPDEST PUSH1 0x40 MLOAD DUP1 SWAP2 SUB SWAP1 LOG1 POP POP JUMPDEST DUP1 PUSH2 0x7E3 DUP2 PUSH2 0x1CF2 JUMP JUMPDEST SWAP2 POP POP PUSH2 0x27C JUMP JUMPDEST POP PUSH1 0x0 DUP3 MLOAD PUSH1 0x3C PUSH32 0x0 PUSH1 0x1 PUSH1 0x1 PUSH1 0xA0 SHL SUB AND PUSH4 0x46A8A015 PUSH1 0x40 MLOAD DUP2 PUSH4 0xFFFFFFFF AND PUSH1 0xE0 SHL DUP2 MSTORE PUSH1 0x4 ADD PUSH1 0x20 PUSH1 0x40 MLOAD DUP1 DUP4 SUB DUP2 DUP7 GAS STATICCALL ISZERO DUP1 ISZERO PUSH2 0x850 JUMPI RETURNDATASIZE PUSH1 0x0 DUP1 RETURNDATACOPY RETURNDATASIZE PUSH1 0x0 REVERT JUMPDEST POP POP POP POP PUSH1 0x40 MLOAD RETURNDATASIZE PUSH1 0x1F NOT PUSH1 0x1F DUP3 ADD AND DUP3 ADD DUP1 PUSH1 0x40 MSTORE POP DUP2 ADD SWAP1 PUSH2 0x874 SWAP2 SWAP1 PUSH2 0x1BED JUMP JUMPDEST PUSH2 0x87E SWAP2 SWAP1 PUSH2 0x1D0B JUMP JUMPDEST PUSH2 0x888 SWAP2 SWAP1 PUSH2 0x1D2D JUMP JUMPDEST SWAP1 POP PUSH1 0x0 GAS PUSH2 0x897 SWAP1 DUP7 PUSH2 0x1D44 JUMP JUMPDEST PUSH2 0x8A3 SWAP1 PUSH2 0x71D7 PUSH2 0x1CD9 JUMP JUMPDEST SWAP1 POP PUSH1 0x0 PUSH2 0x8B1 GASPRICE DUP4 PUSH2 0x1D2D JUMP JUMPDEST SWAP1 POP DUP3 DUP2 GT ISZERO PUSH2 0x8BE JUMPI POP DUP2 JUMPDEST POP POP POP POP POP POP POP POP JUMP JUMPDEST PUSH1 0x0 PUSH1 0x60 DUP2 DUP1 DUP1 PUSH2 0x8DB DUP7 DUP9 ADD DUP9 PUSH2 0x1A32 JUMP JUMPDEST SWAP3 POP SWAP3 POP SWAP3 POP DUP2 DUP4 GT ISZERO PUSH1 0x40 MLOAD DUP1 PUSH1 0x40 ADD PUSH1 0x40 MSTORE DUP1 PUSH1 0x1 DUP2 MSTORE PUSH1 0x20 ADD PUSH1 0x19 PUSH1 0xF9 SHL DUP2 MSTORE POP SWAP1 PUSH2 0x91D JUMPI PUSH1 0x40 MLOAD PUSH3 0x461BCD PUSH1 0xE5 SHL DUP2 MSTORE PUSH1 0x4 ADD PUSH2 0x1AB SWAP2 SWAP1 PUSH2 0x1A6B JUMP JUMPDEST POP PUSH1 0x1 SLOAD DUP3 LT PUSH2 0x938 JUMPI PUSH1 0x1 DUP1 SLOAD PUSH2 0x935 SWAP2 SWAP1 PUSH2 0x1D44 JUMP JUMPDEST SWAP2 POP JUMPDEST PUSH1 0x0 DUP1 PUSH2 0x945 DUP6 DUP6 PUSH2 0x1D44 JUMP JUMPDEST PUSH2 0x950 SWAP1 PUSH1 0x1 PUSH2 0x1CD9 JUMP JUMPDEST SWAP1 POP PUSH1 0x0 JUMPDEST DUP2 DUP2 LT ISZERO PUSH2 0x9C4 JUMPI PUSH1 0x0 PUSH2 0x969 DUP3 DUP9 PUSH2 0x1CD9 JUMP JUMPDEST PUSH1 0x0 DUP2 DUP2 MSTORE PUSH1 0x20 DUP2 SWAP1 MSTORE PUSH1 0x40 SWAP1 KECCAK256 PUSH1 0x4 ADD SLOAD SWAP1 SWAP2 POP TIMESTAMP GT DUP1 ISZERO PUSH2 0x99E JUMPI POP PUSH1 0x0 DUP2 DUP2 MSTORE PUSH1 0x20 DUP2 SWAP1 MSTORE PUSH1 0x40 SWAP1 KECCAK256 PUSH1 0x5 ADD SLOAD PUSH1 0xFF AND ISZERO JUMPDEST ISZERO PUSH2 0x9B1 JUMPI DUP4 PUSH2 0x9AD DUP2 PUSH2 0x1CF2 JUMP JUMPDEST SWAP5 POP POP JUMPDEST POP DUP1 PUSH2 0x9BC DUP2 PUSH2 0x1CF2 JUMP JUMPDEST SWAP2 POP POP PUSH2 0x955 JUMP JUMPDEST POP DUP2 PUSH1 0x0 SUB PUSH2 0x9ED JUMPI PUSH1 0x0 PUSH1 0x40 MLOAD DUP1 PUSH1 0x20 ADD PUSH1 0x40 MSTORE DUP1 PUSH1 0x0 DUP2 MSTORE POP SWAP7 POP SWAP7 POP POP POP POP POP POP PUSH2 0xAF6 JUMP JUMPDEST PUSH1 0x0 DUP3 PUSH8 0xFFFFFFFFFFFFFFFF DUP2 GT ISZERO PUSH2 0xA08 JUMPI PUSH2 0xA08 PUSH2 0x1AA4 JUMP JUMPDEST PUSH1 0x40 MLOAD SWAP1 DUP1 DUP3 MSTORE DUP1 PUSH1 0x20 MUL PUSH1 0x20 ADD DUP3 ADD PUSH1 0x40 MSTORE DUP1 ISZERO PUSH2 0xA31 JUMPI DUP2 PUSH1 0x20 ADD PUSH1 0x20 DUP3 MUL DUP1 CALLDATASIZE DUP4 CALLDATACOPY ADD SWAP1 POP JUMPDEST POP SWAP1 POP PUSH1 0x0 DUP1 JUMPDEST DUP4 DUP2 LT ISZERO PUSH2 0xAC5 JUMPI PUSH1 0x0 PUSH2 0xA4C DUP3 DUP11 PUSH2 0x1CD9 JUMP JUMPDEST PUSH1 0x0 DUP2 DUP2 MSTORE PUSH1 0x20 DUP2 SWAP1 MSTORE PUSH1 0x40 SWAP1 KECCAK256 PUSH1 0x4 ADD SLOAD SWAP1 SWAP2 POP TIMESTAMP GT DUP1 ISZERO PUSH2 0xA81 JUMPI POP PUSH1 0x0 DUP2 DUP2 MSTORE PUSH1 0x20 DUP2 SWAP1 MSTORE PUSH1 0x40 SWAP1 KECCAK256 PUSH1 0x5 ADD SLOAD PUSH1 0xFF AND ISZERO JUMPDEST ISZERO PUSH2 0xAB2 JUMPI DUP1 DUP5 DUP5 DUP2 MLOAD DUP2 LT PUSH2 0xA99 JUMPI PUSH2 0xA99 PUSH2 0x1BB3 JUMP JUMPDEST PUSH1 0x20 SWAP1 DUP2 MUL SWAP2 SWAP1 SWAP2 ADD ADD MSTORE DUP3 PUSH2 0xAAE DUP2 PUSH2 0x1CF2 JUMP JUMPDEST SWAP4 POP POP JUMPDEST POP DUP1 PUSH2 0xABD DUP2 PUSH2 0x1CF2 JUMP JUMPDEST SWAP2 POP POP PUSH2 0xA38 JUMP JUMPDEST POP PUSH1 0x1 DUP3 DUP7 PUSH1 0x40 MLOAD PUSH1 0x20 ADD PUSH2 0xADB SWAP3 SWAP2 SWAP1 PUSH2 0x1D57 JUMP JUMPDEST PUSH1 0x40 MLOAD PUSH1 0x20 DUP2 DUP4 SUB SUB DUP2 MSTORE SWAP1 PUSH1 0x40 MSTORE SWAP9 POP SWAP9 POP POP POP POP POP POP POP POP JUMPDEST SWAP3 POP SWAP3 SWAP1 POP JUMP JUMPDEST PUSH32 0x0 PUSH1 0x1 PUSH1 0x1 PUSH1 0xA0 SHL SUB AND PUSH4 0xA9059CBB PUSH32 0x0 PUSH1 0x1 PUSH1 0x1 PUSH1 0xA0 SHL SUB AND PUSH4 0x3B19E84A PUSH1 0x40 MLOAD DUP2 PUSH4 0xFFFFFFFF AND PUSH1 0xE0 SHL DUP2 MSTORE PUSH1 0x4 ADD PUSH1 0x20 PUSH1 0x40 MLOAD DUP1 DUP4 SUB DUP2 DUP7 GAS STATICCALL ISZERO DUP1 ISZERO PUSH2 0xB8A JUMPI RETURNDATASIZE PUSH1 0x0 DUP1 RETURNDATACOPY RETURNDATASIZE PUSH1 0x0 REVERT JUMPDEST POP POP POP POP PUSH1 0x40 MLOAD RETURNDATASIZE PUSH1 0x1F NOT PUSH1 0x1F DUP3 ADD AND DUP3 ADD DUP1 PUSH1 0x40 MSTORE POP DUP2 ADD SWAP1 PUSH2 0xBAE SWAP2 SWAP1 PUSH2 0x1DAB JUMP JUMPDEST PUSH1 0x40 MLOAD PUSH4 0x70A08231 PUSH1 0xE0 SHL DUP2 MSTORE ADDRESS PUSH1 0x4 DUP3 ADD MSTORE PUSH32 0x0 PUSH1 0x1 PUSH1 0x1 PUSH1 0xA0 SHL SUB AND SWAP1 PUSH4 0x70A08231 SWAP1 PUSH1 0x24 ADD PUSH1 0x20 PUSH1 0x40 MLOAD DUP1 DUP4 SUB DUP2 DUP7 GAS STATICCALL ISZERO DUP1 ISZERO PUSH2 0xC12 JUMPI RETURNDATASIZE PUSH1 0x0 DUP1 RETURNDATACOPY RETURNDATASIZE PUSH1 0x0 REVERT JUMPDEST POP POP POP POP PUSH1 0x40 MLOAD RETURNDATASIZE PUSH1 0x1F NOT PUSH1 0x1F DUP3 ADD AND DUP3 ADD DUP1 PUSH1 0x40 MSTORE POP DUP2 ADD SWAP1 PUSH2 0xC36 SWAP2 SWAP1 PUSH2 0x1BED JUMP JUMPDEST PUSH1 0x40 MLOAD PUSH1 0x1 PUSH1 0x1 PUSH1 0xE0 SHL SUB NOT PUSH1 0xE0 DUP6 SWAP1 SHL AND DUP2 MSTORE PUSH1 0x1 PUSH1 0x1 PUSH1 0xA0 SHL SUB SWAP1 SWAP3 AND PUSH1 0x4 DUP4 ADD MSTORE PUSH1 0x24 DUP3 ADD MSTORE PUSH1 0x44 ADD PUSH1 0x20 PUSH1 0x40 MLOAD DUP1 DUP4 SUB DUP2 PUSH1 0x0 DUP8 GAS CALL ISZERO DUP1 ISZERO PUSH2 0xC81 JUMPI RETURNDATASIZE PUSH1 0x0 DUP1 RETURNDATACOPY RETURNDATASIZE PUSH1 0x0 REVERT JUMPDEST POP POP POP POP PUSH1 0x40 MLOAD RETURNDATASIZE PUSH1 0x1F NOT PUSH1 0x1F DUP3 ADD AND DUP3 ADD DUP1 PUSH1 0x40 MSTORE POP DUP2 ADD SWAP1 PUSH2 0xCA5 SWAP2 SWAP1 PUSH2 0x1DD8 JUMP JUMPDEST POP JUMP JUMPDEST PUSH1 0x0 PUSH32 0x0 PUSH1 0x1 PUSH1 0x1 PUSH1 0xA0 SHL SUB AND PUSH4 0x46A8A015 PUSH1 0x40 MLOAD DUP2 PUSH4 0xFFFFFFFF AND PUSH1 0xE0 SHL DUP2 MSTORE PUSH1 0x4 ADD PUSH1 0x20 PUSH1 0x40 MLOAD DUP1 DUP4 SUB DUP2 DUP7 GAS STATICCALL ISZERO DUP1 ISZERO PUSH2 0xD08 JUMPI RETURNDATASIZE PUSH1 0x0 DUP1 RETURNDATACOPY RETURNDATASIZE PUSH1 0x0 REVERT JUMPDEST POP POP POP POP PUSH1 0x40 MLOAD RETURNDATASIZE PUSH1 0x1F NOT PUSH1 0x1F DUP3 ADD AND DUP3 ADD DUP1 PUSH1 0x40 MSTORE POP DUP2 ADD SWAP1 PUSH2 0xD2C SWAP2 SWAP1 PUSH2 0x1BED JUMP JUMPDEST CALLVALUE LT ISZERO PUSH1 0x40 MLOAD DUP1 PUSH1 0x40 ADD PUSH1 0x40 MSTORE DUP1 PUSH1 0x2 DUP2 MSTORE PUSH1 0x20 ADD PUSH2 0x3133 PUSH1 0xF0 SHL DUP2 MSTORE POP SWAP1 PUSH2 0xD68 JUMPI PUSH1 0x40 MLOAD PUSH3 0x461BCD PUSH1 0xE5 SHL DUP2 MSTORE PUSH1 0x4 ADD PUSH2 0x1AB SWAP2 SWAP1 PUSH2 0x1A6B JUMP JUMPDEST POP PUSH1 0x40 MLOAD PUSH4 0x28F513D7 PUSH1 0xE1 SHL DUP2 MSTORE PUSH1 0x1 PUSH1 0x1 PUSH1 0xA0 SHL SUB PUSH32 0x0 AND SWAP1 PUSH4 0x51EA27AE SWAP1 PUSH2 0xDB9 SWAP1 DUP7 SWAP1 DUP7 SWAP1 CALLER SWAP1 PUSH1 0x4 ADD PUSH2 0x1A85 JUMP JUMPDEST PUSH1 0x20 PUSH1 0x40 MLOAD DUP1 DUP4 SUB DUP2 DUP7 GAS STATICCALL ISZERO DUP1 ISZERO PUSH2 0xDD6 JUMPI RETURNDATASIZE PUSH1 0x0 DUP1 RETURNDATACOPY RETURNDATASIZE PUSH1 0x0 REVERT JUMPDEST POP POP POP POP PUSH1 0x40 MLOAD RETURNDATASIZE PUSH1 0x1F NOT PUSH1 0x1F DUP3 ADD AND DUP3 ADD DUP1 PUSH1 0x40 MSTORE POP DUP2 ADD SWAP1 PUSH2 0xDFA SWAP2 SWAP1 PUSH2 0x1DD8 JUMP JUMPDEST ISZERO ISZERO PUSH1 0x1 SUB PUSH2 0xFBC JUMPI PUSH1 0x40 MLOAD PUSH4 0x628072B PUSH1 0xE1 SHL DUP2 MSTORE PUSH1 0x0 SWAP1 PUSH1 0x1 PUSH1 0x1 PUSH1 0xA0 SHL SUB PUSH32 0x0 AND SWAP1 PUSH4 0xCC0DE218 SWAP1 DUP3 SWAP1 PUSH4 0xC500E56 SWAP1 PUSH2 0xE5E SWAP1 DUP10 SWAP1 DUP10 SWAP1 CALLER SWAP1 PUSH1 0x4 ADD PUSH2 0x1A85 JUMP JUMPDEST PUSH1 0x20 PUSH1 0x40 MLOAD DUP1 DUP4 SUB DUP2 DUP7 GAS STATICCALL ISZERO DUP1 ISZERO PUSH2 0xE7B JUMPI RETURNDATASIZE PUSH1 0x0 DUP1 RETURNDATACOPY RETURNDATASIZE PUSH1 0x0 REVERT JUMPDEST POP POP POP POP PUSH1 0x40 MLOAD RETURNDATASIZE PUSH1 0x1F NOT PUSH1 0x1F DUP3 ADD AND DUP3 ADD DUP1 PUSH1 0x40 MSTORE POP DUP2 ADD SWAP1 PUSH2 0xE9F SWAP2 SWAP1 PUSH2 0x1DAB JUMP JUMPDEST PUSH1 0x40 MLOAD PUSH1 0x1 PUSH1 0x1 PUSH1 0xE0 SHL SUB NOT PUSH1 0xE0 DUP5 SWAP1 SHL AND DUP2 MSTORE PUSH1 0x1 PUSH1 0x1 PUSH1 0xA0 SHL SUB SWAP1 SWAP2 AND PUSH1 0x4 DUP3 ADD MSTORE PUSH1 0x24 ADD PUSH1 0x20 PUSH1 0x40 MLOAD DUP1 DUP4 SUB DUP2 DUP7 GAS STATICCALL ISZERO DUP1 ISZERO PUSH2 0xEE3 JUMPI RETURNDATASIZE PUSH1 0x0 DUP1 RETURNDATACOPY RETURNDATASIZE PUSH1 0x0 REVERT JUMPDEST POP POP POP POP PUSH1 0x40 MLOAD RETURNDATASIZE PUSH1 0x1F NOT PUSH1 0x1F DUP3 ADD AND DUP3 ADD DUP1 PUSH1 0x40 MSTORE POP DUP2 ADD SWAP1 PUSH2 0xF07 SWAP2 SWAP1 PUSH2 0x1DAB JUMP JUMPDEST PUSH1 0x1 PUSH1 0x1 PUSH1 0xA0 SHL SUB AND PUSH4 0xD53D5E42 DUP6 DUP6 CALLER PUSH1 0x40 MLOAD DUP5 PUSH4 0xFFFFFFFF AND PUSH1 0xE0 SHL DUP2 MSTORE PUSH1 0x4 ADD PUSH2 0xF36 SWAP4 SWAP3 SWAP2 SWAP1 PUSH2 0x1A85 JUMP JUMPDEST PUSH1 0x60 PUSH1 0x40 MLOAD DUP1 DUP4 SUB DUP2 DUP7 GAS STATICCALL ISZERO DUP1 ISZERO PUSH2 0xF53 JUMPI RETURNDATASIZE PUSH1 0x0 DUP1 RETURNDATACOPY RETURNDATASIZE PUSH1 0x0 REVERT JUMPDEST POP POP POP POP PUSH1 0x40 MLOAD RETURNDATASIZE PUSH1 0x1F NOT PUSH1 0x1F DUP3 ADD AND DUP3 ADD DUP1 PUSH1 0x40 MSTORE POP DUP2 ADD SWAP1 PUSH2 0xF77 SWAP2 SWAP1 PUSH2 0x1DF3 JUMP JUMPDEST PUSH1 0x40 DUP1 MLOAD DUP1 DUP3 ADD SWAP1 SWAP2 MSTORE PUSH1 0x2 DUP2 MSTORE PUSH2 0x189B PUSH1 0xF1 SHL PUSH1 0x20 DUP3 ADD MSTORE SWAP1 SWAP4 POP SWAP2 POP POP PUSH1 0x1 DUP3 ISZERO ISZERO EQ PUSH2 0xFB9 JUMPI PUSH1 0x40 MLOAD PUSH3 0x461BCD PUSH1 0xE5 SHL DUP2 MSTORE PUSH1 0x4 ADD PUSH2 0x1AB SWAP2 SWAP1 PUSH2 0x1A6B JUMP JUMPDEST POP POP JUMPDEST PUSH1 0x40 MLOAD PUSH4 0x76BA5101 PUSH1 0xE1 SHL DUP2 MSTORE PUSH1 0x4 DUP2 ADD DUP5 SWAP1 MSTORE PUSH1 0x0 SWAP1 PUSH32 0x0 PUSH1 0x1 PUSH1 0x1 PUSH1 0xA0 SHL SUB AND SWAP1 PUSH4 0xED74A202 SWAP1 PUSH1 0x24 ADD PUSH1 0x40 DUP1 MLOAD DUP1 DUP4 SUB DUP2 DUP7 GAS STATICCALL ISZERO DUP1 ISZERO PUSH2 0x1023 JUMPI RETURNDATASIZE PUSH1 0x0 DUP1 RETURNDATACOPY RETURNDATASIZE PUSH1 0x0 REVERT JUMPDEST POP POP POP POP PUSH1 0x40 MLOAD RETURNDATASIZE PUSH1 0x1F NOT PUSH1 0x1F DUP3 ADD AND DUP3 ADD DUP1 PUSH1 0x40 MSTORE POP DUP2 ADD SWAP1 PUSH2 0x1047 SWAP2 SWAP1 PUSH2 0x1BC9 JUMP JUMPDEST POP PUSH1 0x40 MLOAD PUSH4 0x47B5C681 PUSH1 0xE1 SHL DUP2 MSTORE PUSH1 0x4 DUP2 ADD DUP7 SWAP1 MSTORE PUSH1 0x24 DUP2 ADD DUP3 SWAP1 MSTORE PUSH1 0x44 DUP2 ADD DUP6 SWAP1 MSTORE PUSH1 0x1 PUSH1 0x1 PUSH1 0xA0 SHL SUB PUSH32 0x0 DUP2 AND PUSH1 0x64 DUP4 ADD MSTORE SWAP2 SWAP3 POP PUSH1 0x0 SWAP2 PUSH32 0x0 AND SWAP1 PUSH4 0x8F6B8D02 SWAP1 PUSH1 0x84 ADD PUSH1 0x20 PUSH1 0x40 MLOAD DUP1 DUP4 SUB DUP2 DUP7 GAS STATICCALL ISZERO DUP1 ISZERO PUSH2 0x10E9 JUMPI RETURNDATASIZE PUSH1 0x0 DUP1 RETURNDATACOPY RETURNDATASIZE PUSH1 0x0 REVERT JUMPDEST POP POP POP POP PUSH1 0x40 MLOAD RETURNDATASIZE PUSH1 0x1F NOT PUSH1 0x1F DUP3 ADD AND DUP3 ADD DUP1 PUSH1 0x40 MSTORE POP DUP2 ADD SWAP1 PUSH2 0x110D SWAP2 SWAP1 PUSH2 0x1BED JUMP JUMPDEST SWAP1 POP PUSH2 0x111A DUP2 PUSH1 0x3C PUSH2 0x1D2D JUMP JUMPDEST PUSH1 0x40 MLOAD PUSH4 0x6EB1769F PUSH1 0xE1 SHL DUP2 MSTORE CALLER PUSH1 0x4 DUP3 ADD MSTORE ADDRESS PUSH1 0x24 DUP3 ADD MSTORE PUSH32 0x0 PUSH1 0x1 PUSH1 0x1 PUSH1 0xA0 SHL SUB AND SWAP1 PUSH4 0xDD62ED3E SWAP1 PUSH1 0x44 ADD PUSH1 0x20 PUSH1 0x40 MLOAD DUP1 DUP4 SUB DUP2 DUP7 GAS STATICCALL ISZERO DUP1 ISZERO PUSH2 0x1184 JUMPI RETURNDATASIZE PUSH1 0x0 DUP1 RETURNDATACOPY RETURNDATASIZE PUSH1 0x0 REVERT JUMPDEST POP POP POP POP PUSH1 0x40 MLOAD RETURNDATASIZE PUSH1 0x1F NOT PUSH1 0x1F DUP3 ADD AND DUP3 ADD DUP1 PUSH1 0x40 MSTORE POP DUP2 ADD SWAP1 PUSH2 0x11A8 SWAP2 SWAP1 PUSH2 0x1BED JUMP JUMPDEST LT ISZERO PUSH1 0x40 MLOAD DUP1 PUSH1 0x40 ADD PUSH1 0x40 MSTORE DUP1 PUSH1 0x2 DUP2 MSTORE PUSH1 0x20 ADD PUSH2 0xC4D PUSH1 0xF2 SHL DUP2 MSTORE POP SWAP1 PUSH2 0x11E3 JUMPI PUSH1 0x40 MLOAD PUSH3 0x461BCD PUSH1 0xE5 SHL DUP2 MSTORE PUSH1 0x4 ADD PUSH2 0x1AB SWAP2 SWAP1 PUSH2 0x1A6B JUMP JUMPDEST POP PUSH1 0x1 SLOAD PUSH1 0x0 DUP7 DUP2 MSTORE PUSH1 0x2 PUSH1 0x20 SWAP1 DUP2 MSTORE PUSH1 0x40 DUP1 DUP4 KECCAK256 DUP9 DUP5 MSTORE DUP3 MSTORE DUP1 DUP4 KECCAK256 CALLER DUP5 MSTORE SWAP1 SWAP2 MSTORE DUP2 KECCAK256 SLOAD SWAP2 SWAP5 POP SUB PUSH2 0x125B JUMPI PUSH1 0x1 DUP1 SLOAD PUSH2 0x121E SWAP2 PUSH2 0x1CD9 JUMP JUMPDEST PUSH1 0x0 DUP7 DUP2 MSTORE PUSH1 0x2 PUSH1 0x20 SWAP1 DUP2 MSTORE PUSH1 0x40 DUP1 DUP4 KECCAK256 DUP9 DUP5 MSTORE DUP3 MSTORE DUP1 DUP4 KECCAK256 CALLER DUP5 MSTORE SWAP1 SWAP2 MSTORE DUP2 KECCAK256 SWAP2 SWAP1 SWAP2 SSTORE PUSH1 0x1 DUP1 SLOAD SWAP2 PUSH2 0x1251 DUP4 PUSH2 0x1CF2 JUMP JUMPDEST SWAP2 SWAP1 POP SSTORE POP PUSH2 0x128C JUMP JUMPDEST PUSH1 0x0 DUP6 DUP2 MSTORE PUSH1 0x2 PUSH1 0x20 SWAP1 DUP2 MSTORE PUSH1 0x40 DUP1 DUP4 KECCAK256 DUP8 DUP5 MSTORE DUP3 MSTORE DUP1 DUP4 KECCAK256 CALLER DUP5 MSTORE SWAP1 SWAP2 MSTORE SWAP1 KECCAK256 SLOAD PUSH2 0x1289 SWAP1 PUSH1 0x1 SWAP1 PUSH2 0x1D44 JUMP JUMPDEST SWAP3 POP JUMPDEST PUSH1 0x40 MLOAD DUP1 PUSH1 0xC0 ADD PUSH1 0x40 MSTORE DUP1 DUP7 DUP2 MSTORE PUSH1 0x20 ADD DUP6 DUP2 MSTORE PUSH1 0x20 ADD CALLER PUSH1 0x1 PUSH1 0x1 PUSH1 0xA0 SHL SUB AND DUP2 MSTORE PUSH1 0x20 ADD DUP3 DUP2 MSTORE PUSH1 0x20 ADD TIMESTAMP PUSH3 0x278D00 PUSH2 0x12C7 SWAP2 SWAP1 PUSH2 0x1CD9 JUMP JUMPDEST DUP2 MSTORE PUSH1 0x0 PUSH1 0x20 SWAP2 DUP3 ADD DUP2 SWAP1 MSTORE DUP6 DUP2 MSTORE DUP1 DUP3 MSTORE PUSH1 0x40 DUP1 DUP3 KECCAK256 DUP5 MLOAD DUP2 SSTORE SWAP3 DUP5 ADD MLOAD PUSH1 0x1 DUP5 ADD SSTORE DUP4 DUP2 ADD MLOAD PUSH1 0x2 DUP5 ADD DUP1 SLOAD PUSH1 0x1 PUSH1 0x1 PUSH1 0xA0 SHL SUB NOT AND PUSH1 0x1 PUSH1 0x1 PUSH1 0xA0 SHL SUB SWAP3 DUP4 AND OR SWAP1 SSTORE PUSH1 0x60 DUP6 ADD MLOAD PUSH1 0x3 DUP6 ADD SSTORE PUSH1 0x80 DUP6 ADD MLOAD PUSH1 0x4 DUP1 DUP7 ADD SWAP2 SWAP1 SWAP2 SSTORE PUSH1 0xA0 SWAP1 SWAP6 ADD MLOAD PUSH1 0x5 SWAP1 SWAP5 ADD DUP1 SLOAD PUSH1 0xFF NOT AND SWAP5 ISZERO ISZERO SWAP5 SWAP1 SWAP5 OR SWAP1 SWAP4 SSTORE MLOAD PUSH4 0x3C23D3D9 PUSH1 0xE2 SHL DUP2 MSTORE SWAP3 DUP4 ADD DUP9 SWAP1 MSTORE SWAP2 PUSH32 0x0 SWAP1 SWAP2 AND SWAP1 PUSH4 0xF08F4F64 SWAP1 PUSH1 0x24 ADD PUSH1 0x0 PUSH1 0x40 MLOAD DUP1 DUP4 SUB DUP2 DUP7 GAS STATICCALL ISZERO DUP1 ISZERO PUSH2 0x139D JUMPI RETURNDATASIZE PUSH1 0x0 DUP1 RETURNDATACOPY RETURNDATASIZE PUSH1 0x0 REVERT JUMPDEST POP POP POP POP PUSH1 0x40 MLOAD RETURNDATASIZE PUSH1 0x0 DUP3 RETURNDATACOPY PUSH1 0x1F RETURNDATASIZE SWAP1 DUP2 ADD PUSH1 0x1F NOT AND DUP3 ADD PUSH1 0x40 MSTORE PUSH2 0x13C5 SWAP2 SWAP1 DUP2 ADD SWAP1 PUSH2 0x1C06 JUMP JUMPDEST POP PUSH1 0x40 MLOAD PUSH4 0x76BA5101 PUSH1 0xE1 SHL DUP2 MSTORE PUSH1 0x4 DUP2 ADD DUP10 SWAP1 MSTORE SWAP1 SWAP3 POP PUSH1 0x0 SWAP2 POP PUSH1 0x1 PUSH1 0x1 PUSH1 0xA0 SHL SUB PUSH32 0x0 AND SWAP1 PUSH4 0xED74A202 SWAP1 PUSH1 0x24 ADD PUSH1 0x40 DUP1 MLOAD DUP1 DUP4 SUB DUP2 DUP7 GAS STATICCALL ISZERO DUP1 ISZERO PUSH2 0x1431 JUMPI RETURNDATASIZE PUSH1 0x0 DUP1 RETURNDATACOPY RETURNDATASIZE PUSH1 0x0 REVERT JUMPDEST POP POP POP POP PUSH1 0x40 MLOAD RETURNDATASIZE PUSH1 0x1F NOT PUSH1 0x1F DUP3 ADD AND DUP3 ADD DUP1 PUSH1 0x40 MSTORE POP DUP2 ADD SWAP1 PUSH2 0x1455 SWAP2 SWAP1 PUSH2 0x1BC9 JUMP JUMPDEST SWAP2 POP POP PUSH2 0x1464 CALLER DUP4 DUP6 DUP5 PUSH2 0x167C JUMP JUMPDEST PUSH1 0x40 MLOAD DUP1 PUSH1 0x40 ADD PUSH1 0x40 MSTORE DUP1 PUSH1 0x2 DUP2 MSTORE PUSH1 0x20 ADD PUSH2 0x3135 PUSH1 0xF0 SHL DUP2 MSTORE POP SWAP1 PUSH2 0x149D JUMPI PUSH1 0x40 MLOAD PUSH3 0x461BCD PUSH1 0xE5 SHL DUP2 MSTORE PUSH1 0x4 ADD PUSH2 0x1AB SWAP2 SWAP1 PUSH2 0x1A6B JUMP JUMPDEST POP PUSH1 0x40 MLOAD PUSH4 0x5E707483 PUSH1 0xE0 SHL DUP2 MSTORE PUSH1 0x4 DUP2 ADD DUP9 SWAP1 MSTORE PUSH1 0x24 DUP2 ADD DUP8 SWAP1 MSTORE CALLER PUSH1 0x44 DUP3 ADD MSTORE PUSH1 0x1 PUSH1 0x1 PUSH1 0xA0 SHL SUB PUSH32 0x0 DUP2 AND PUSH1 0x64 DUP4 ADD MSTORE PUSH32 0x0 AND SWAP1 PUSH4 0x5E707483 SWAP1 PUSH1 0x84 ADD PUSH1 0x0 PUSH1 0x40 MLOAD DUP1 DUP4 SUB DUP2 PUSH1 0x0 DUP8 DUP1 EXTCODESIZE ISZERO DUP1 ISZERO PUSH2 0x1535 JUMPI PUSH1 0x0 DUP1 REVERT JUMPDEST POP GAS CALL ISZERO DUP1 ISZERO PUSH2 0x1549 JUMPI RETURNDATASIZE PUSH1 0x0 DUP1 RETURNDATACOPY RETURNDATASIZE PUSH1 0x0 REVERT JUMPDEST POP POP POP POP PUSH2 0x1555 PUSH2 0xAFD JUMP JUMPDEST PUSH32 0x719D57359948C2C6F2A923516C19ABA22B490E924879B674C1D6371BB6541F17 DUP8 DUP8 CALLER PUSH1 0x40 MLOAD PUSH2 0x1588 SWAP4 SWAP3 SWAP2 SWAP1 PUSH2 0x1A85 JUMP JUMPDEST PUSH1 0x40 MLOAD DUP1 SWAP2 SUB SWAP1 LOG1 POP POP POP POP SWAP3 SWAP2 POP POP JUMP JUMPDEST PUSH1 0x0 DUP1 PUSH1 0x0 DUP1 PUSH2 0x15AB DUP8 DUP8 DUP8 PUSH2 0x15DB JUMP JUMPDEST PUSH1 0x0 SWAP1 DUP2 MSTORE PUSH1 0x20 DUP2 SWAP1 MSTORE PUSH1 0x40 SWAP1 KECCAK256 PUSH1 0x3 DUP2 ADD SLOAD PUSH1 0x4 DUP3 ADD SLOAD PUSH1 0x5 SWAP1 SWAP3 ADD SLOAD SWAP1 SWAP10 SWAP2 SWAP9 POP PUSH1 0xFF AND SWAP7 POP SWAP5 POP POP POP POP POP JUMP JUMPDEST PUSH1 0x0 DUP4 DUP2 MSTORE PUSH1 0x2 PUSH1 0x20 SWAP1 DUP2 MSTORE PUSH1 0x40 DUP1 DUP4 KECCAK256 DUP6 DUP5 MSTORE DUP3 MSTORE DUP1 DUP4 KECCAK256 PUSH1 0x1 PUSH1 0x1 PUSH1 0xA0 SHL SUB DUP6 AND DUP5 MSTORE DUP3 MSTORE DUP1 DUP4 KECCAK256 SLOAD DUP2 MLOAD DUP1 DUP4 ADD SWAP1 SWAP3 MSTORE PUSH1 0x1 DUP3 MSTORE PUSH1 0x7 PUSH1 0xFB SHL SWAP3 DUP3 ADD SWAP3 SWAP1 SWAP3 MSTORE SWAP1 PUSH2 0x163C JUMPI PUSH1 0x40 MLOAD PUSH3 0x461BCD PUSH1 0xE5 SHL DUP2 MSTORE PUSH1 0x4 ADD PUSH2 0x1AB SWAP2 SWAP1 PUSH2 0x1A6B JUMP JUMPDEST POP PUSH1 0x0 DUP5 DUP2 MSTORE PUSH1 0x2 PUSH1 0x20 SWAP1 DUP2 MSTORE PUSH1 0x40 DUP1 DUP4 KECCAK256 DUP7 DUP5 MSTORE DUP3 MSTORE DUP1 DUP4 KECCAK256 PUSH1 0x1 PUSH1 0x1 PUSH1 0xA0 SHL SUB DUP7 AND DUP5 MSTORE SWAP1 SWAP2 MSTORE SWAP1 KECCAK256 SLOAD PUSH2 0x1674 SWAP1 PUSH1 0x1 SWAP1 PUSH2 0x1D44 JUMP JUMPDEST SWAP5 SWAP4 POP POP POP POP JUMP JUMPDEST PUSH1 0x40 MLOAD PUSH4 0x6EB1769F PUSH1 0xE1 SHL DUP2 MSTORE PUSH1 0x1 PUSH1 0x1 PUSH1 0xA0 SHL SUB DUP6 DUP2 AND PUSH1 0x4 DUP4 ADD MSTORE ADDRESS PUSH1 0x24 DUP4 ADD MSTORE PUSH1 0x0 SWAP2 DUP5 SWAP2 PUSH32 0x0 AND SWAP1 PUSH4 0xDD62ED3E SWAP1 PUSH1 0x44 ADD PUSH1 0x20 PUSH1 0x40 MLOAD DUP1 DUP4 SUB DUP2 DUP7 GAS STATICCALL ISZERO DUP1 ISZERO PUSH2 0x16ED JUMPI RETURNDATASIZE PUSH1 0x0 DUP1 RETURNDATACOPY RETURNDATASIZE PUSH1 0x0 REVERT JUMPDEST POP POP POP POP PUSH1 0x40 MLOAD RETURNDATASIZE PUSH1 0x1F NOT PUSH1 0x1F DUP3 ADD AND DUP3 ADD DUP1 PUSH1 0x40 MSTORE POP DUP2 ADD SWAP1 PUSH2 0x1711 SWAP2 SWAP1 PUSH2 0x1BED JUMP JUMPDEST LT ISZERO DUP1 ISZERO PUSH2 0x17AB JUMPI POP PUSH1 0x40 MLOAD PUSH4 0x70A08231 PUSH1 0xE0 SHL DUP2 MSTORE PUSH1 0x1 PUSH1 0x1 PUSH1 0xA0 SHL SUB DUP7 DUP2 AND PUSH1 0x4 DUP4 ADD MSTORE DUP5 SWAP2 PUSH32 0x0 SWAP1 SWAP2 AND SWAP1 PUSH4 0x70A08231 SWAP1 PUSH1 0x24 ADD PUSH1 0x20 PUSH1 0x40 MLOAD DUP1 DUP4 SUB DUP2 DUP7 GAS STATICCALL ISZERO DUP1 ISZERO PUSH2 0x1784 JUMPI RETURNDATASIZE PUSH1 0x0 DUP1 RETURNDATACOPY RETURNDATASIZE PUSH1 0x0 REVERT JUMPDEST POP POP POP POP PUSH1 0x40 MLOAD RETURNDATASIZE PUSH1 0x1F NOT PUSH1 0x1F DUP3 ADD AND DUP3 ADD DUP1 PUSH1 0x40 MSTORE POP DUP2 ADD SWAP1 PUSH2 0x17A8 SWAP2 SWAP1 PUSH2 0x1BED JUMP JUMPDEST LT ISZERO JUMPDEST ISZERO PUSH2 0x1913 JUMPI PUSH1 0x40 MLOAD PUSH4 0x23B872DD PUSH1 0xE0 SHL DUP2 MSTORE PUSH1 0x1 PUSH1 0x1 PUSH1 0xA0 SHL SUB DUP7 DUP2 AND PUSH1 0x4 DUP4 ADD MSTORE ADDRESS PUSH1 0x24 DUP4 ADD MSTORE PUSH1 0x44 DUP3 ADD DUP6 SWAP1 MSTORE PUSH32 0x0 AND SWAP1 PUSH4 0x23B872DD SWAP1 PUSH1 0x64 ADD PUSH1 0x20 PUSH1 0x40 MLOAD DUP1 DUP4 SUB DUP2 PUSH1 0x0 DUP8 GAS CALL ISZERO DUP1 ISZERO PUSH2 0x1825 JUMPI RETURNDATASIZE PUSH1 0x0 DUP1 RETURNDATACOPY RETURNDATASIZE PUSH1 0x0 REVERT JUMPDEST POP POP POP POP PUSH1 0x40 MLOAD RETURNDATASIZE PUSH1 0x1F NOT PUSH1 0x1F DUP3 ADD AND DUP3 ADD DUP1 PUSH1 0x40 MSTORE POP DUP2 ADD SWAP1 PUSH2 0x1849 SWAP2 SWAP1 PUSH2 0x1DD8 JUMP JUMPDEST POP PUSH1 0x1 PUSH1 0x1 PUSH1 0xA0 SHL SUB PUSH32 0x0 AND PUSH4 0xA9059CBB DUP6 PUSH1 0x64 PUSH2 0x1886 DUP7 DUP3 PUSH2 0x1D44 JUMP JUMPDEST PUSH2 0x1890 SWAP1 DUP9 PUSH2 0x1D2D JUMP JUMPDEST PUSH2 0x189A SWAP2 SWAP1 PUSH2 0x1D0B JUMP JUMPDEST PUSH1 0x40 MLOAD PUSH1 0x1 PUSH1 0x1 PUSH1 0xE0 SHL SUB NOT PUSH1 0xE0 DUP6 SWAP1 SHL AND DUP2 MSTORE PUSH1 0x1 PUSH1 0x1 PUSH1 0xA0 SHL SUB SWAP1 SWAP3 AND PUSH1 0x4 DUP4 ADD MSTORE PUSH1 0x24 DUP3 ADD MSTORE PUSH1 0x44 ADD PUSH1 0x20 PUSH1 0x40 MLOAD DUP1 DUP4 SUB DUP2 PUSH1 0x0 DUP8 GAS CALL ISZERO DUP1 ISZERO PUSH2 0x18E5 JUMPI RETURNDATASIZE PUSH1 0x0 DUP1 RETURNDATACOPY RETURNDATASIZE PUSH1 0x0 REVERT JUMPDEST POP POP POP POP PUSH1 0x40 MLOAD RETURNDATASIZE PUSH1 0x1F NOT PUSH1 0x1F DUP3 ADD AND DUP3 ADD DUP1 PUSH1 0x40 MSTORE POP DUP2 ADD SWAP1 PUSH2 0x1909 SWAP2 SWAP1 PUSH2 0x1DD8 JUMP JUMPDEST POP PUSH1 0x1 SWAP1 POP PUSH2 0x1674 JUMP JUMPDEST POP PUSH1 0x0 SWAP5 SWAP4 POP POP POP POP JUMP JUMPDEST PUSH1 0x0 DUP1 PUSH1 0x40 DUP4 DUP6 SUB SLT ISZERO PUSH2 0x1931 JUMPI PUSH1 0x0 DUP1 REVERT JUMPDEST POP POP DUP1 CALLDATALOAD SWAP3 PUSH1 0x20 SWAP1 SWAP2 ADD CALLDATALOAD SWAP2 POP JUMP JUMPDEST PUSH1 0x0 DUP1 PUSH1 0x20 DUP4 DUP6 SUB SLT ISZERO PUSH2 0x1953 JUMPI PUSH1 0x0 DUP1 REVERT JUMPDEST DUP3 CALLDATALOAD PUSH8 0xFFFFFFFFFFFFFFFF DUP1 DUP3 GT ISZERO PUSH2 0x196B JUMPI PUSH1 0x0 DUP1 REVERT JUMPDEST DUP2 DUP6 ADD SWAP2 POP DUP6 PUSH1 0x1F DUP4 ADD SLT PUSH2 0x197F JUMPI PUSH1 0x0 DUP1 REVERT JUMPDEST DUP2 CALLDATALOAD DUP2 DUP2 GT ISZERO PUSH2 0x198E JUMPI PUSH1 0x0 DUP1 REVERT JUMPDEST DUP7 PUSH1 0x20 DUP3 DUP6 ADD ADD GT ISZERO PUSH2 0x19A0 JUMPI PUSH1 0x0 DUP1 REVERT JUMPDEST PUSH1 0x20 SWAP3 SWAP1 SWAP3 ADD SWAP7 SWAP2 SWAP6 POP SWAP1 SWAP4 POP POP POP POP JUMP JUMPDEST PUSH1 0x0 JUMPDEST DUP4 DUP2 LT ISZERO PUSH2 0x19CD JUMPI DUP2 DUP2 ADD MLOAD DUP4 DUP3 ADD MSTORE PUSH1 0x20 ADD PUSH2 0x19B5 JUMP JUMPDEST POP POP PUSH1 0x0 SWAP2 ADD MSTORE JUMP JUMPDEST PUSH1 0x0 DUP2 MLOAD DUP1 DUP5 MSTORE PUSH2 0x19EE DUP2 PUSH1 0x20 DUP7 ADD PUSH1 0x20 DUP7 ADD PUSH2 0x19B2 JUMP JUMPDEST PUSH1 0x1F ADD PUSH1 0x1F NOT AND SWAP3 SWAP1 SWAP3 ADD PUSH1 0x20 ADD SWAP3 SWAP2 POP POP JUMP JUMPDEST DUP3 ISZERO ISZERO DUP2 MSTORE PUSH1 0x40 PUSH1 0x20 DUP3 ADD MSTORE PUSH1 0x0 PUSH2 0x1674 PUSH1 0x40 DUP4 ADD DUP5 PUSH2 0x19D6 JUMP JUMPDEST PUSH1 0x1 PUSH1 0x1 PUSH1 0xA0 SHL SUB DUP2 AND DUP2 EQ PUSH2 0xCA5 JUMPI PUSH1 0x0 DUP1 REVERT JUMPDEST PUSH1 0x0 DUP1 PUSH1 0x0 PUSH1 0x60 DUP5 DUP7 SUB SLT ISZERO PUSH2 0x1A47 JUMPI PUSH1 0x0 DUP1 REVERT JUMPDEST DUP4 CALLDATALOAD SWAP3 POP PUSH1 0x20 DUP5 ADD CALLDATALOAD SWAP2 POP PUSH1 0x40 DUP5 ADD CALLDATALOAD PUSH2 0x1A60 DUP2 PUSH2 0x1A1D JUMP JUMPDEST DUP1 SWAP2 POP POP SWAP3 POP SWAP3 POP SWAP3 JUMP JUMPDEST PUSH1 0x20 DUP2 MSTORE PUSH1 0x0 PUSH2 0x1A7E PUSH1 0x20 DUP4 ADD DUP5 PUSH2 0x19D6 JUMP JUMPDEST SWAP4 SWAP3 POP POP POP JUMP JUMPDEST SWAP3 DUP4 MSTORE PUSH1 0x20 DUP4 ADD SWAP2 SWAP1 SWAP2 MSTORE PUSH1 0x1 PUSH1 0x1 PUSH1 0xA0 SHL SUB AND PUSH1 0x40 DUP3 ADD MSTORE PUSH1 0x60 ADD SWAP1 JUMP JUMPDEST PUSH4 0x4E487B71 PUSH1 0xE0 SHL PUSH1 0x0 MSTORE PUSH1 0x41 PUSH1 0x4 MSTORE PUSH1 0x24 PUSH1 0x0 REVERT JUMPDEST PUSH1 0x40 MLOAD PUSH1 0x1F DUP3 ADD PUSH1 0x1F NOT AND DUP2 ADD PUSH8 0xFFFFFFFFFFFFFFFF DUP2 GT DUP3 DUP3 LT OR ISZERO PUSH2 0x1AE3 JUMPI PUSH2 0x1AE3 PUSH2 0x1AA4 JUMP JUMPDEST PUSH1 0x40 MSTORE SWAP2 SWAP1 POP JUMP JUMPDEST DUP1 CALLDATALOAD PUSH2 0x1AF6 DUP2 PUSH2 0x1A1D JUMP JUMPDEST SWAP2 SWAP1 POP JUMP JUMPDEST PUSH1 0x0 DUP1 PUSH1 0x40 DUP4 DUP6 SUB SLT ISZERO PUSH2 0x1B0E JUMPI PUSH1 0x0 DUP1 REVERT JUMPDEST DUP3 CALLDATALOAD PUSH8 0xFFFFFFFFFFFFFFFF DUP1 DUP3 GT ISZERO PUSH2 0x1B26 JUMPI PUSH1 0x0 DUP1 REVERT JUMPDEST DUP2 DUP6 ADD SWAP2 POP DUP6 PUSH1 0x1F DUP4 ADD SLT PUSH2 0x1B3A JUMPI PUSH1 0x0 DUP1 REVERT JUMPDEST DUP2 CALLDATALOAD PUSH1 0x20 DUP3 DUP3 GT ISZERO PUSH2 0x1B4E JUMPI PUSH2 0x1B4E PUSH2 0x1AA4 JUMP JUMPDEST DUP2 PUSH1 0x5 SHL SWAP3 POP PUSH2 0x1B5F DUP2 DUP5 ADD PUSH2 0x1ABA JUMP JUMPDEST DUP3 DUP2 MSTORE SWAP3 DUP5 ADD DUP2 ADD SWAP3 DUP2 DUP2 ADD SWAP1 DUP10 DUP6 GT ISZERO PUSH2 0x1B79 JUMPI PUSH1 0x0 DUP1 REVERT JUMPDEST SWAP5 DUP3 ADD SWAP5 JUMPDEST DUP5 DUP7 LT ISZERO PUSH2 0x1B97 JUMPI DUP6 CALLDATALOAD DUP3 MSTORE SWAP5 DUP3 ADD SWAP5 SWAP1 DUP3 ADD SWAP1 PUSH2 0x1B7E JUMP JUMPDEST SWAP7 POP PUSH2 0x1BA6 SWAP1 POP DUP8 DUP3 ADD PUSH2 0x1AEB JUMP JUMPDEST SWAP5 POP POP POP POP POP SWAP3 POP SWAP3 SWAP1 POP JUMP JUMPDEST PUSH4 0x4E487B71 PUSH1 0xE0 SHL PUSH1 0x0 MSTORE PUSH1 0x32 PUSH1 0x4 MSTORE PUSH1 0x24 PUSH1 0x0 REVERT JUMPDEST PUSH1 0x0 DUP1 PUSH1 0x40 DUP4 DUP6 SUB SLT ISZERO PUSH2 0x1BDC JUMPI PUSH1 0x0 DUP1 REVERT JUMPDEST POP POP DUP1 MLOAD PUSH1 0x20 SWAP1 SWAP2 ADD MLOAD SWAP1 SWAP3 SWAP1 SWAP2 POP JUMP JUMPDEST PUSH1 0x0 PUSH1 0x20 DUP3 DUP5 SUB SLT ISZERO PUSH2 0x1BFF JUMPI PUSH1 0x0 DUP1 REVERT JUMPDEST POP MLOAD SWAP2 SWAP1 POP JUMP JUMPDEST PUSH1 0x0 DUP1 PUSH1 0x0 PUSH1 0x60 DUP5 DUP7 SUB SLT ISZERO PUSH2 0x1C1B JUMPI PUSH1 0x0 DUP1 REVERT JUMPDEST DUP4 MLOAD PUSH2 0x1C26 DUP2 PUSH2 0x1A1D JUMP JUMPDEST PUSH1 0x20 DUP6 ADD MLOAD SWAP1 SWAP4 POP PUSH2 0x1C37 DUP2 PUSH2 0x1A1D JUMP JUMPDEST PUSH1 0x40 DUP6 ADD MLOAD SWAP1 SWAP3 POP PUSH8 0xFFFFFFFFFFFFFFFF DUP1 DUP3 GT ISZERO PUSH2 0x1C55 JUMPI PUSH1 0x0 DUP1 REVERT JUMPDEST DUP2 DUP7 ADD SWAP2 POP DUP7 PUSH1 0x1F DUP4 ADD SLT PUSH2 0x1C69 JUMPI PUSH1 0x0 DUP1 REVERT JUMPDEST DUP2 MLOAD DUP2 DUP2 GT ISZERO PUSH2 0x1C7B JUMPI PUSH2 0x1C7B PUSH2 0x1AA4 JUMP JUMPDEST PUSH2 0x1C8E PUSH1 0x1F DUP3 ADD PUSH1 0x1F NOT AND PUSH1 0x20 ADD PUSH2 0x1ABA JUMP JUMPDEST SWAP2 POP DUP1 DUP3 MSTORE DUP8 PUSH1 0x20 DUP3 DUP6 ADD ADD GT ISZERO PUSH2 0x1CA5 JUMPI PUSH1 0x0 DUP1 REVERT JUMPDEST PUSH2 0x1CB6 DUP2 PUSH1 0x20 DUP5 ADD PUSH1 0x20 DUP7 ADD PUSH2 0x19B2 JUMP JUMPDEST POP DUP1 SWAP3 POP POP POP SWAP3 POP SWAP3 POP SWAP3 JUMP JUMPDEST PUSH4 0x4E487B71 PUSH1 0xE0 SHL PUSH1 0x0 MSTORE PUSH1 0x11 PUSH1 0x4 MSTORE PUSH1 0x24 PUSH1 0x0 REVERT JUMPDEST DUP1 DUP3 ADD DUP1 DUP3 GT ISZERO PUSH2 0x1CEC JUMPI PUSH2 0x1CEC PUSH2 0x1CC3 JUMP JUMPDEST SWAP3 SWAP2 POP POP JUMP JUMPDEST PUSH1 0x0 PUSH1 0x1 DUP3 ADD PUSH2 0x1D04 JUMPI PUSH2 0x1D04 PUSH2 0x1CC3 JUMP JUMPDEST POP PUSH1 0x1 ADD SWAP1 JUMP JUMPDEST PUSH1 0x0 DUP3 PUSH2 0x1D28 JUMPI PUSH4 0x4E487B71 PUSH1 0xE0 SHL PUSH1 0x0 MSTORE PUSH1 0x12 PUSH1 0x4 MSTORE PUSH1 0x24 PUSH1 0x0 REVERT JUMPDEST POP DIV SWAP1 JUMP JUMPDEST DUP1 DUP3 MUL DUP2 ISZERO DUP3 DUP3 DIV DUP5 EQ OR PUSH2 0x1CEC JUMPI PUSH2 0x1CEC PUSH2 0x1CC3 JUMP JUMPDEST DUP2 DUP2 SUB DUP2 DUP2 GT ISZERO PUSH2 0x1CEC JUMPI PUSH2 0x1CEC PUSH2 0x1CC3 JUMP JUMPDEST PUSH1 0x40 DUP1 DUP3 MSTORE DUP4 MLOAD SWAP1 DUP3 ADD DUP2 SWAP1 MSTORE PUSH1 0x0 SWAP1 PUSH1 0x20 SWAP1 PUSH1 0x60 DUP5 ADD SWAP1 DUP3 DUP8 ADD DUP5 JUMPDEST DUP3 DUP2 LT ISZERO PUSH2 0x1D90 JUMPI DUP2 MLOAD DUP5 MSTORE SWAP3 DUP5 ADD SWAP3 SWAP1 DUP5 ADD SWAP1 PUSH1 0x1 ADD PUSH2 0x1D74 JUMP JUMPDEST POP POP POP PUSH1 0x1 PUSH1 0x1 PUSH1 0xA0 SHL SUB SWAP5 SWAP1 SWAP5 AND SWAP3 ADD SWAP2 SWAP1 SWAP2 MSTORE POP SWAP2 SWAP1 POP JUMP JUMPDEST PUSH1 0x0 PUSH1 0x20 DUP3 DUP5 SUB SLT ISZERO PUSH2 0x1DBD JUMPI PUSH1 0x0 DUP1 REVERT JUMPDEST DUP2 MLOAD PUSH2 0x1A7E DUP2 PUSH2 0x1A1D JUMP JUMPDEST DUP1 MLOAD DUP1 ISZERO ISZERO DUP2 EQ PUSH2 0x1AF6 JUMPI PUSH1 0x0 DUP1 REVERT JUMPDEST PUSH1 0x0 PUSH1 0x20 DUP3 DUP5 SUB SLT ISZERO PUSH2 0x1DEA JUMPI PUSH1 0x0 DUP1 REVERT JUMPDEST PUSH2 0x1A7E DUP3 PUSH2 0x1DC8 JUMP JUMPDEST PUSH1 0x0 DUP1 PUSH1 0x0 PUSH1 0x60 DUP5 DUP7 SUB SLT ISZERO PUSH2 0x1E08 JUMPI PUSH1 0x0 DUP1 REVERT JUMPDEST DUP4 MLOAD SWAP3 POP PUSH1 0x20 DUP5 ADD MLOAD SWAP2 POP PUSH2 0x1E1F PUSH1 0x40 DUP6 ADD PUSH2 0x1DC8 JUMP JUMPDEST SWAP1 POP SWAP3 POP SWAP3 POP SWAP3 JUMP INVALID LOG2 PUSH5 0x6970667358 0x22 SLT KECCAK256 SHR SHR GT TIMESTAMP PUSH22 0x2660B114F0A6E40C65C5F54FE3C3B74BEFF02D1F2FB6 SSTORE PUSH8 0x79AF0264736F6C63 NUMBER STOP ADDMOD GT STOP CALLER LOG2 PUSH5 0x6970667358 0x22 SLT KECCAK256 BLOCKHASH DUP7 SELFBALANCE CALLDATASIZE 0xB9 0xC6 PUSH22 0xFC8513B9EC29AA1D8B817CC93904262EF2BF05CF18D9 STATICCALL PUSH20 0xFB64736F6C634300081100330000000000000000 ",
  "sha1": "4fdc53ef6021faba93581775373cd4309b40e56b",
  "source": "// SPDX-License-Identifier: MIT\npragma solidity ^0.8.17;\n\nimport \"@openzeppelin/contracts/access/Ownable.sol\";\n\nimport \"./BBErrorsV01.sol\";\nimport \"./interfaces/IBBProfiles.sol\";\nimport \"./interfaces/IBBTiers.sol\";\nimport \"./interfaces/IBBSubscriptionsFactory.sol\";\nimport \"./interfaces/IBBSubscriptions.sol\";\nimport \"./interfaces/IBBPermissionsV01.sol\";\nimport \"./BBSubscriptions.sol\";\n\ncontract BBSubscriptionsFactory is Ownable, IBBSubscriptionsFactory {\n    event DeployedSubscription(\n        address currency,\n        address deployedAddress\n    );\n\n    event NewSubscriptionProfile(\n        uint256 profileId,\n        uint256 tierSetId,\n        uint256 contribution\n    );\n\n    event EditContribution(\n        uint256 profileId,\n        uint256 contribution\n    );\n\n    struct SubscriptionProfile {\n        uint256 tierSetId;\n        uint256 contribution;\n    }\n\n    uint256 internal constant _contributionLower = 1;\n    uint256 internal constant _contributionUpper = 100;\n\n    uint256 internal constant _gracePeriod = 2 days;\n\n    uint256 internal _subscriptionGasRequirement = 100000000;\n\n    // Subscription profile ID => Subscription profile\n    mapping(uint256 => SubscriptionProfile) internal _subscriptionProfiles;\n    \n    // ERC20 token => Deployed subscriptions contract\n    mapping(address => address) internal _deployedSubscriptions;\n\n    // Profile ID => Tier ID => Subscriber => ERC20 token\n    mapping(uint256 => mapping(uint256 => mapping (address => address))) internal _subscriptionCurrency;\n\n    address internal _treasury;\n\n    IBBProfiles internal immutable _bbProfiles;\n    IBBTiers internal immutable _bbTiers;\n\n    constructor(address bbProfiles, address bbTiers, address treasury) {\n        _bbProfiles = IBBProfiles(bbProfiles);\n        _bbTiers = IBBTiers(bbTiers);\n\n        _treasury = treasury;\n    }\n\n    /*\n        @dev Reverts if msg.sender is not profile IDs owner\n    */\n    modifier onlyProfileOwner(uint256 profileId) {\n        (address profileOwner,,) = _bbProfiles.getProfile(profileId);\n        require(profileOwner == msg.sender, BBErrorCodesV01.NOT_OWNER);\n        _;\n    }\n\n    /*\n        @dev Reverts if profile ID does not exist\n    */\n    modifier profileExists(uint256 profileId) {\n        require(profileId < _bbProfiles.totalProfiles(), BBErrorCodesV01.PROFILE_NOT_EXIST);\n        _;\n    }\n\n    /*\n        @dev Reverts if tier set ID does not exist\n    */\n    modifier tierSetExists(uint256 profileId, uint256 tierSetId) {\n        require(profileId < _bbProfiles.totalProfiles(), BBErrorCodesV01.PROFILE_NOT_EXIST);\n        require(tierSetId < _bbTiers.totalTierSets(profileId), BBErrorCodesV01.TIER_SET_NOT_EXIST);\n        _;\n    }\n\n    /*\n        @notice Gets the subscriptions contract of a ERC20 token\n\n        @param ERC20 token\n\n        @return The ERC20 token subscriptions contract\n    */\n    function deploySubscriptions(address currency) external override returns(address) {\n        require(_deployedSubscriptions[currency] == address(0), BBErrorCodesV01.ZERO_ADDRESS);\n\n        IBBSubscriptions subscriptions = new BBSubscriptions(address(_bbProfiles), address(_bbTiers), address(this), currency);\n\n        _deployedSubscriptions[currency] = address(subscriptions);\n\n        emit DeployedSubscription(currency, address(subscriptions));\n        return address(subscriptions);\n    }\n\n    /*\n        @notice Check if a ERC20 token has a deployed subscriptions contract\n\n        @param ERC20 token\n\n        @return True if ERC20 token has a deployed subscriptions contract, otherwise false\n    */\n    function isSubscriptionsDeployed(address currency) external view override returns (bool) {\n        return _deployedSubscriptions[currency] != address(0);\n    }\n\n    /*\n        @notice Get the address of a ERC20 tokens subscriptions contract\n\n        @param ERC20 token\n\n        @return ERC20 tokens subscriptions contract address\n    */\n    function getDeployedSubscriptions(address currency) external view override returns (address) {\n        // Reverts if the ERC20 tokens subscriptions contract is not deployed\n        require(_deployedSubscriptions[currency] != address(0));\n        return _deployedSubscriptions[currency];\n    }\n\n    /*\n        @notice Set the treasury address\n\n        @param Treasury address\n    */\n    function setTreasury(address account) external override onlyOwner {\n        require(account != owner(), BBErrorCodesV01.NOT_OWNER);\n        _treasury = account;\n    }\n\n    /*\n        @notice Set the subscription gas requirement\n\n        @param Subscription gas requirement\n    */\n    function setSubscriptionGasRequirement(uint256 requirement) external override onlyOwner {\n        // Limit gas requirement to avoid exploit : 0.001 MATIC\n        require(requirement <= 10 ** 15, BBErrorCodesV01.OUT_OF_BOUNDS);\n        _subscriptionGasRequirement = requirement;\n    }\n\n    /*\n        @notice Get the treasury address\n\n        @return Treasury address\n    */\n    function getTreasury() external view override returns (address) {\n        return _treasury;\n    }\n\n    /*\n        @notice Get the treasury address\n\n        @return Treasury address\n    */\n    function getGracePeriod() external pure override returns (uint256) {\n        return _gracePeriod;\n    }\n    \n    /*\n        @notice Get the treasury contribution bounds\n\n        @return Lower bound\n        @return Upper bound\n    */\n    function getContributionBounds() external pure override returns (uint256, uint256) {\n        return (_contributionLower, _contributionUpper);\n    }\n\n    /*\n        @notice Get subscription gas requirement\n\n        @return Subscription gas requirement\n    */\n    function getSubscriptionGasRequirement() external view override returns (uint256) {\n        return _subscriptionGasRequirement;\n    }\n\n    /*\n        @dev Set a subscriptions ERC20 token\n\n        @param Profile ID\n        @param Tier ID\n        @param Subscriber\n        @param ERC20 token\n    */\n    function setSubscriptionCurrency(uint256 profileId, uint256 tierId, address account, address currency) profileExists(profileId) external override {\n        // Msg.sender must be the ERC20 tokens subscriptions contract\n        require(msg.sender == _deployedSubscriptions[currency], BBErrorCodesV01.NOT_OWNER);\n        _subscriptionCurrency[profileId][tierId][account] = currency;\n    }\n\n    /*\n        @notice Get a subscriptions ERC20 token\n\n        @param Profile ID\n        @param Tier ID\n        @param Subscriber\n\n        @return ERC20 token\n    */\n    function getSubscriptionCurrency(uint256 profileId, uint256 tierId, address account) external view override profileExists(profileId) returns (address) {\n        // Subscription isn't active if subscriptions ERC20 token is the zero address, so revert\n        require(_subscriptionCurrency[profileId][tierId][account] != address(0));\n        return _subscriptionCurrency[profileId][tierId][account];\n    }\n\n    /*\n        @notice Create a new subscription profile\n\n        @param Profile ID\n        @param Tier set ID\n        @param Contribution\n    */\n    function createSubscriptionProfile(uint256 profileId, uint256 tierSetId, uint256 contribution) external override tierSetExists(profileId, tierSetId) onlyProfileOwner(profileId) {\n        // Subscription profile already initialized\n        require(_subscriptionProfiles[profileId].tierSetId == 0, BBErrorCodesV01.SUBSCRIPTION_PROFILE_ALREADY_EXISTS);\n\n        _setContribution(profileId, contribution);\n        // Add one to tier set ID so can also be used like a bool, zero means the value is uninitialized, greater than zero is the tier set ID minus one\n        _subscriptionProfiles[profileId].tierSetId = tierSetId + 1;\n\n        emit NewSubscriptionProfile(profileId, tierSetId, contribution);\n    }\n\n    /*\n        @notice Get a subscription profile\n\n        @param Profile ID\n\n        @return Tier set ID\n        @return Treasury contribution\n    */\n    function getSubscriptionProfile(uint256 profileId) external view override profileExists(profileId) returns (uint256, uint256) {\n        // If subscription profile isnt initialized, tier set ID is zero, and so this reverts\n        return (_subscriptionProfiles[profileId].tierSetId - 1, _subscriptionProfiles[profileId].contribution);\n    }\n\n    /*\n        @notice Check a subscription profile is created\n\n        @param Profile ID\n\n        @return True if subscription profile is created, otherwise false\n    */\n    function isSubscriptionProfileCreated(uint256 profileId) external view override profileExists(profileId) returns (bool) {\n        return _subscriptionProfiles[profileId].tierSetId > 0;\n    }\n\n    /*\n        @notice Set a subscription profiles treasury contribution\n\n        @param Profile ID\n        @param Treasury contribution\n    */\n    function setContribution(uint256 profileId, uint256 contribution) external override profileExists(profileId) onlyProfileOwner(profileId){\n        _setContribution(profileId, contribution);\n        emit EditContribution(profileId, contribution);\n    }\n\n    /*\n        @dev Set a subscription profiles treasury contribution\n\n        @param Profile ID\n        @param Treasury contribution\n    */\n    function _setContribution(uint256 profileId, uint256 contribution) internal {\n        require(contribution >= _contributionLower, BBErrorCodesV01.OUT_OF_BOUNDS);\n        require(contribution <= _contributionUpper, BBErrorCodesV01.OUT_OF_BOUNDS);\n\n        _subscriptionProfiles[profileId].contribution = contribution;\n    }\n\n    /*\n        @notice Check if an address has an active subscription at a specific tier\n\n        @param Profile ID\n        @param Tier ID\n        @param Subscriber\n\n        @return True if the subscription is active, otherwise false\n    */\n    function isSubscriptionActive(uint256 profileId, uint256 tierId, address account) external view override profileExists(profileId) returns (bool) {\n        (address profileOwner,,) = _bbProfiles.getProfile(profileId);\n\n        // Profile owner is always subscribed\n        if(profileOwner == account) {\n            return true;\n        }\n\n        // If profile owner is a contract, try checking for BackedBy permissions\n        if(profileOwner.code.length > 0) {\n            try IBBPermissionsV01(profileOwner).canViewSubscription(account) returns (bool success) {\n                if(success)\n                    return success;\n            } catch { }\n        }\n\n        // If the subscription has no ERC20 token set, its not active\n        if(_subscriptionCurrency[profileId][tierId][account] == address(0)) {\n            return false;\n        }\n\n        // Get subscription values from deployed subscriptions contract\n        IBBSubscriptions subscriptions = IBBSubscriptions(_deployedSubscriptions[_subscriptionCurrency[profileId][tierId][account]]);\n        (,uint256 expiration,) = subscriptions.getSubscription(profileId, tierId, account);\n\n        // If expiration plus grace period has elapsed, subscription is no longer active\n        return block.timestamp < expiration + _gracePeriod;\n    }\n}",
  "sourcePath": "contracts/BBSubscriptionsFactory.sol",
  "type": "contract"
}