{
  "abi": [
    {
      "inputs": [
        {
          "internalType": "address",
          "name": "bbProfiles",
          "type": "address"
        }
      ],
      "stateMutability": "nonpayable",
      "type": "constructor"
    },
    {
      "anonymous": false,
      "inputs": [
        {
          "indexed": false,
          "internalType": "uint256",
          "name": "profileId",
          "type": "uint256"
        },
        {
          "indexed": false,
          "internalType": "uint256",
          "name": "tierSetId",
          "type": "uint256"
        }
      ],
      "name": "EditTierSet",
      "type": "event"
    },
    {
      "anonymous": false,
      "inputs": [
        {
          "indexed": false,
          "internalType": "uint256",
          "name": "profileId",
          "type": "uint256"
        },
        {
          "indexed": false,
          "internalType": "uint256",
          "name": "tierSetId",
          "type": "uint256"
        }
      ],
      "name": "NewTierSet",
      "type": "event"
    },
    {
      "anonymous": false,
      "inputs": [
        {
          "indexed": false,
          "internalType": "uint256",
          "name": "profileId",
          "type": "uint256"
        },
        {
          "indexed": false,
          "internalType": "uint256",
          "name": "tierSetId",
          "type": "uint256"
        },
        {
          "indexed": false,
          "internalType": "address",
          "name": "currency",
          "type": "address"
        },
        {
          "indexed": false,
          "internalType": "uint256",
          "name": "priceMultiplier",
          "type": "uint256"
        }
      ],
      "name": "SupportedCurrencyAdded",
      "type": "event"
    },
    {
      "anonymous": false,
      "inputs": [
        {
          "indexed": false,
          "internalType": "uint256",
          "name": "profileId",
          "type": "uint256"
        },
        {
          "indexed": false,
          "internalType": "uint256",
          "name": "tierSetId",
          "type": "uint256"
        },
        {
          "indexed": false,
          "internalType": "address",
          "name": "currency",
          "type": "address"
        }
      ],
      "name": "SupportedCurrencyRemoved",
      "type": "event"
    },
    {
      "inputs": [
        {
          "internalType": "uint256",
          "name": "profileId",
          "type": "uint256"
        },
        {
          "internalType": "uint256[]",
          "name": "prices",
          "type": "uint256[]"
        },
        {
          "internalType": "string[]",
          "name": "cids",
          "type": "string[]"
        },
        {
          "internalType": "address[]",
          "name": "supportedCurrencies",
          "type": "address[]"
        },
        {
          "internalType": "uint256[]",
          "name": "priceMultipliers",
          "type": "uint256[]"
        }
      ],
      "name": "createTiers",
      "outputs": [
        {
          "internalType": "uint256",
          "name": "tierSetId",
          "type": "uint256"
        }
      ],
      "stateMutability": "nonpayable",
      "type": "function"
    },
    {
      "inputs": [
        {
          "internalType": "uint256",
          "name": "profileId",
          "type": "uint256"
        },
        {
          "internalType": "uint256",
          "name": "tierSetId",
          "type": "uint256"
        },
        {
          "internalType": "uint256[]",
          "name": "prices",
          "type": "uint256[]"
        },
        {
          "internalType": "string[]",
          "name": "cids",
          "type": "string[]"
        }
      ],
      "name": "editTiers",
      "outputs": [],
      "stateMutability": "nonpayable",
      "type": "function"
    },
    {
      "inputs": [
        {
          "internalType": "uint256",
          "name": "profileId",
          "type": "uint256"
        },
        {
          "internalType": "uint256",
          "name": "tierSetId",
          "type": "uint256"
        },
        {
          "internalType": "address",
          "name": "currency",
          "type": "address"
        }
      ],
      "name": "getCurrencyMultiplier",
      "outputs": [
        {
          "internalType": "uint256",
          "name": "",
          "type": "uint256"
        }
      ],
      "stateMutability": "view",
      "type": "function"
    },
    {
      "inputs": [
        {
          "internalType": "uint256",
          "name": "profileId",
          "type": "uint256"
        },
        {
          "internalType": "uint256",
          "name": "tierSetId",
          "type": "uint256"
        },
        {
          "internalType": "uint256",
          "name": "tierId",
          "type": "uint256"
        }
      ],
      "name": "getTierCid",
      "outputs": [
        {
          "internalType": "string",
          "name": "",
          "type": "string"
        }
      ],
      "stateMutability": "view",
      "type": "function"
    },
    {
      "inputs": [
        {
          "internalType": "uint256",
          "name": "profileId",
          "type": "uint256"
        },
        {
          "internalType": "uint256",
          "name": "tierSetId",
          "type": "uint256"
        },
        {
          "internalType": "uint256",
          "name": "tierId",
          "type": "uint256"
        },
        {
          "internalType": "address",
          "name": "currency",
          "type": "address"
        }
      ],
      "name": "getTierPrice",
      "outputs": [
        {
          "internalType": "uint256",
          "name": "",
          "type": "uint256"
        }
      ],
      "stateMutability": "view",
      "type": "function"
    },
    {
      "inputs": [
        {
          "internalType": "uint256",
          "name": "profileId",
          "type": "uint256"
        },
        {
          "internalType": "uint256",
          "name": "tierSetId",
          "type": "uint256"
        }
      ],
      "name": "getTierSet",
      "outputs": [
        {
          "internalType": "uint256[]",
          "name": "",
          "type": "uint256[]"
        },
        {
          "internalType": "string[]",
          "name": "",
          "type": "string[]"
        }
      ],
      "stateMutability": "view",
      "type": "function"
    },
    {
      "inputs": [
        {
          "internalType": "uint256",
          "name": "profileId",
          "type": "uint256"
        },
        {
          "internalType": "uint256",
          "name": "tierSetId",
          "type": "uint256"
        },
        {
          "internalType": "address",
          "name": "currency",
          "type": "address"
        }
      ],
      "name": "isCurrencySupported",
      "outputs": [
        {
          "internalType": "bool",
          "name": "",
          "type": "bool"
        }
      ],
      "stateMutability": "view",
      "type": "function"
    },
    {
      "inputs": [
        {
          "internalType": "uint256",
          "name": "profileId",
          "type": "uint256"
        },
        {
          "internalType": "uint256",
          "name": "tierSetId",
          "type": "uint256"
        },
        {
          "internalType": "address[]",
          "name": "supportedCurrencies",
          "type": "address[]"
        },
        {
          "internalType": "uint256[]",
          "name": "priceMultipliers",
          "type": "uint256[]"
        }
      ],
      "name": "setSupportedCurrencies",
      "outputs": [],
      "stateMutability": "nonpayable",
      "type": "function"
    },
    {
      "inputs": [
        {
          "internalType": "uint256",
          "name": "profileId",
          "type": "uint256"
        }
      ],
      "name": "totalTierSets",
      "outputs": [
        {
          "internalType": "uint256",
          "name": "",
          "type": "uint256"
        }
      ],
      "stateMutability": "view",
      "type": "function"
    },
    {
      "inputs": [
        {
          "internalType": "uint256",
          "name": "profileId",
          "type": "uint256"
        },
        {
          "internalType": "uint256",
          "name": "tierSetId",
          "type": "uint256"
        }
      ],
      "name": "totalTiers",
      "outputs": [
        {
          "internalType": "uint256",
          "name": "",
          "type": "uint256"
        }
      ],
      "stateMutability": "view",
      "type": "function"
    }
  ],
  "bytecode": "60a060405234801561001057600080fd5b506040516200212a3803806200212a83398101604081905261003191610042565b6001600160a01b0316608052610072565b60006020828403121561005457600080fd5b81516001600160a01b038116811461006b57600080fd5b9392505050565b608051612048620000e2600039600081816101a7015281816102f101528181610543015281816106e6015281816107c4015281816109b301528181610ad701528181610bfc01528181610d4001528181610e6501528181610f9d015281816111d201526113f501526120486000f3fe608060405234801561001057600080fd5b506004361061009e5760003560e01c80638a1da7ea116100665780638a1da7ea146101335780638c40fc2a146101485780638f6b8d021461015b578063d59f0f201461016e578063ed340ddf1461018e57600080fd5b80630359f43e146100a35780631d9f7fd6146100cb578063215e0c9d146100ec5780633a8d19e11461010d578063819ca22214610120575b600080fd5b6100b66100b136600461190b565b6101a1565b60405190151581526020015b60405180910390f35b6100de6100d9366004611944565b6102ea565b6040516100c29291906119b6565b6100ff6100fa36600461190b565b61053d565b6040519081526020016100c2565b6100ff61011b366004611a9a565b6106e1565b6100ff61012e366004611944565b6109ad565b610146610141366004611b6a565b610ad3565b005b610146610156366004611b6a565b610d3c565b6100ff610169366004611bed565b610f96565b61018161017c366004611c2e565b6111cb565b6040516100c29190611c5a565b6100ff61019c366004611c6d565b6113f0565b600083837f00000000000000000000000000000000000000000000000000000000000000006001600160a01b031663d2adbe796040518163ffffffff1660e01b8152600401602060405180830381865afa158015610203573d6000803e3d6000fd5b505050506040513d601f19601f820116820180604052508101906102279190611c86565b8210604051806040016040528060018152602001603560f81b8152509061026a5760405162461bcd60e51b81526004016102619190611c5a565b60405180910390fd5b50600082815260016020818152604092839020548351808501909452918352601b60f91b9083015282106102b15760405162461bcd60e51b81526004016102619190611c5a565b505050600093845250602083815260408085209385529281528284206001600160a01b0392909216845260029091019052902054151590565b60608083837f00000000000000000000000000000000000000000000000000000000000000006001600160a01b031663d2adbe796040518163ffffffff1660e01b8152600401602060405180830381865afa15801561034d573d6000803e3d6000fd5b505050506040513d601f19601f820116820180604052508101906103719190611c86565b8210604051806040016040528060018152602001603560f81b815250906103ab5760405162461bcd60e51b81526004016102619190611c5a565b50600082815260016020818152604092839020548351808501909452918352601b60f91b9083015282106103f25760405162461bcd60e51b81526004016102619190611c5a565b506000868152602081815260408083208884528252918290208054835181840281018401909452808452909260018401929091849183018282801561045657602002820191906000526020600020905b815481526020019060010190808311610442575b5050505050915080805480602002602001604051908101604052809291908181526020016000905b8282101561052a57838290600052602060002001805461049d90611c9f565b80601f01602080910402602001604051908101604052809291908181526020018280546104c990611c9f565b80156105165780601f106104eb57610100808354040283529160200191610516565b820191906000526020600020905b8154815290600101906020018083116104f957829003601f168201915b50505050508152602001906001019061047e565b5050505090509350935050509250929050565b600083837f00000000000000000000000000000000000000000000000000000000000000006001600160a01b031663d2adbe796040518163ffffffff1660e01b8152600401602060405180830381865afa15801561059f573d6000803e3d6000fd5b505050506040513d601f19601f820116820180604052508101906105c39190611c86565b8210604051806040016040528060018152602001603560f81b815250906105fd5760405162461bcd60e51b81526004016102619190611c5a565b50600082815260016020818152604092839020548351808501909452918352601b60f91b9083015282106106445760405162461bcd60e51b81526004016102619190611c5a565b5060008681526020818152604080832088845282528083206001600160a01b0388168452600290810183529281902054815180830190925292815261062760f31b91810191909152906106aa5760405162461bcd60e51b81526004016102619190611c5a565b505050600093845250602083815260408085209385529281528284206001600160a01b039290921684526002909101905290205490565b6000897f00000000000000000000000000000000000000000000000000000000000000006001600160a01b031663d2adbe796040518163ffffffff1660e01b8152600401602060405180830381865afa158015610742573d6000803e3d6000fd5b505050506040513d601f19601f820116820180604052508101906107669190611c86565b8110604051806040016040528060018152602001603560f81b815250906107a05760405162461bcd60e51b81526004016102619190611c5a565b50604051633c23d3d960e21b8152600481018c90528b906000906001600160a01b037f0000000000000000000000000000000000000000000000000000000000000000169063f08f4f6490602401600060405180830381865afa15801561080b573d6000803e3d6000fd5b505050506040513d6000823e601f3d908101601f191682016040526108339190810190611d42565b50506040805180820190915260018152603160f81b60208201529091506001600160a01b03821633146108795760405162461bcd60e51b81526004016102619190611c5a565b5060008d815260016020526040812080549550859161089783611dfd565b91905055506108f58d858e8e80806020026020016040519081016040528093929190818152602001838360200280828437600081840152601f19601f820116905080830192505050505050508d8d906108f09190611e16565b6114c8565b6109648d858a8a8080602002602001604051908101604052809392919081815260200183836020028082843760009201919091525050604080516020808e0282810182019093528d82529093508d92508c9182918501908490808284376000920191909152506115d592505050565b604080518e8152602081018690527fc39ae3ab6ddae8d37132bf00ae6daa9bd725500da534b26a2e56b08726cded8c910160405180910390a15050509998505050505050505050565b600082827f00000000000000000000000000000000000000000000000000000000000000006001600160a01b031663d2adbe796040518163ffffffff1660e01b8152600401602060405180830381865afa158015610a0f573d6000803e3d6000fd5b505050506040513d601f19601f82011682018060405250810190610a339190611c86565b8210604051806040016040528060018152602001603560f81b81525090610a6d5760405162461bcd60e51b81526004016102619190611c5a565b50600082815260016020818152604092839020548351808501909452918352601b60f91b908301528210610ab45760405162461bcd60e51b81526004016102619190611c5a565b5050506000928352506020828152604080842092845291905290205490565b85857f00000000000000000000000000000000000000000000000000000000000000006001600160a01b031663d2adbe796040518163ffffffff1660e01b8152600401602060405180830381865afa158015610b33573d6000803e3d6000fd5b505050506040513d601f19601f82011682018060405250810190610b579190611c86565b8210604051806040016040528060018152602001603560f81b81525090610b915760405162461bcd60e51b81526004016102619190611c5a565b50600082815260016020818152604092839020548351808501909452918352601b60f91b908301528210610bd85760405162461bcd60e51b81526004016102619190611c5a565b50604051633c23d3d960e21b81526004810189905288906000906001600160a01b037f0000000000000000000000000000000000000000000000000000000000000000169063f08f4f6490602401600060405180830381865afa158015610c43573d6000803e3d6000fd5b505050506040513d6000823e601f3d908101601f19168201604052610c6b9190810190611d42565b50506040805180820190915260018152603160f81b60208201529091506001600160a01b0382163314610cb15760405162461bcd60e51b81526004016102619190611c5a565b50610cf78a8a8a8a808060200260200160405190810160405280939291908181526020018383602002808284376000920191909152506108f092508b91508c9050611e16565b604080518b8152602081018b90527f28f392c3f5b680337f75a44445646ca32cacd93b1364636deb260906c1e35944910160405180910390a150505050505050505050565b85857f00000000000000000000000000000000000000000000000000000000000000006001600160a01b031663d2adbe796040518163ffffffff1660e01b8152600401602060405180830381865afa158015610d9c573d6000803e3d6000fd5b505050506040513d601f19601f82011682018060405250810190610dc09190611c86565b8210604051806040016040528060018152602001603560f81b81525090610dfa5760405162461bcd60e51b81526004016102619190611c5a565b50600082815260016020818152604092839020548351808501909452918352601b60f91b908301528210610e415760405162461bcd60e51b81526004016102619190611c5a565b50604051633c23d3d960e21b81526004810189905288906000906001600160a01b037f0000000000000000000000000000000000000000000000000000000000000000169063f08f4f6490602401600060405180830381865afa158015610eac573d6000803e3d6000fd5b505050506040513d6000823e601f3d908101601f19168201604052610ed49190810190611d42565b50506040805180820190915260018152603160f81b60208201529091506001600160a01b0382163314610f1a5760405162461bcd60e51b81526004016102619190611c5a565b50610f8a8a8a8a8a8080602002602001604051908101604052809392919081815260200183836020028082843760009201919091525050604080516020808e0282810182019093528d82529093508d92508c9182918501908490808284376000920191909152506115d592505050565b50505050505050505050565b60008484847f00000000000000000000000000000000000000000000000000000000000000006001600160a01b031663d2adbe796040518163ffffffff1660e01b8152600401602060405180830381865afa158015610ff9573d6000803e3d6000fd5b505050506040513d601f19601f8201168201806040525081019061101d9190611c86565b8310604051806040016040528060018152602001603560f81b815250906110575760405162461bcd60e51b81526004016102619190611c5a565b50600083815260016020818152604092839020548351808501909452918352601b60f91b90830152831061109e5760405162461bcd60e51b81526004016102619190611c5a565b5060008381526020818152604080832085845282529182902054825180840190935260018352603760f81b9183019190915282106110ef5760405162461bcd60e51b81526004016102619190611c5a565b506000888152602081815260408083208a845282528083206001600160a01b0389168452600290810183529281902054815180830190925292815261062760f31b91810191909152906111555760405162461bcd60e51b81526004016102619190611c5a565b506000888152602081815260408083208a8452909152902080546111bf91908890811061118457611184611ed6565b60009182526020808320909101548b835282825260408084208c855283528084206001600160a01b038b1685526002019092529120546117d5565b98975050505050505050565b60608383837f00000000000000000000000000000000000000000000000000000000000000006001600160a01b031663d2adbe796040518163ffffffff1660e01b8152600401602060405180830381865afa15801561122e573d6000803e3d6000fd5b505050506040513d601f19601f820116820180604052508101906112529190611c86565b8310604051806040016040528060018152602001603560f81b8152509061128c5760405162461bcd60e51b81526004016102619190611c5a565b50600083815260016020818152604092839020548351808501909452918352601b60f91b9083015283106112d35760405162461bcd60e51b81526004016102619190611c5a565b5060008381526020818152604080832085845282529182902054825180840190935260018352603760f81b9183019190915282106113245760405162461bcd60e51b81526004016102619190611c5a565b50600087815260208181526040808320898452909152902060010180548690811061135157611351611ed6565b90600052602060002001805461136690611c9f565b80601f016020809104026020016040519081016040528092919081815260200182805461139290611c9f565b80156113df5780601f106113b4576101008083540402835291602001916113df565b820191906000526020600020905b8154815290600101906020018083116113c257829003601f168201915b505050505093505050509392505050565b6000817f00000000000000000000000000000000000000000000000000000000000000006001600160a01b031663d2adbe796040518163ffffffff1660e01b8152600401602060405180830381865afa158015611451573d6000803e3d6000fd5b505050506040513d601f19601f820116820180604052508101906114759190611c86565b8110604051806040016040528060018152602001603560f81b815250906114af5760405162461bcd60e51b81526004016102619190611c5a565b5060008381526001602052604090205491505b50919050565b805182511460405180604001604052806002815260200161313760f01b815250906115065760405162461bcd60e51b81526004016102619190611c5a565b5060005b825181101561157c57600083828151811061152757611527611ed6565b60200260200101511160405180604001604052806002815260200161032360f41b815250906115695760405162461bcd60e51b81526004016102619190611c5a565b508061157481611dfd565b91505061150a565b50600084815260208181526040808320868452825290912083516115a2928501906117ea565b50600084815260208181526040808320868452825290912082516115ce92600190920191840190611835565b5050505050565b805182511460405180604001604052806002815260200161313760f01b815250906116135760405162461bcd60e51b81526004016102619190611c5a565b5060005b81518110156115ce5781818151811061163257611632611ed6565b60200260200101516000808781526020019081526020016000206000868152602001908152602001600020600201600085848151811061167457611674611ed6565b60200260200101516001600160a01b03166001600160a01b03168152602001908152602001600020819055508181815181106116b2576116b2611ed6565b6020026020010151600003611734577f75e18e98a43452151e246d6a6f003ac6e9cfa9fea7f9397fa8d9755f23fa6e9385858584815181106116f6576116f6611ed6565b60200260200101516040516117279392919092835260208301919091526001600160a01b0316604082015260600190565b60405180910390a16117c3565b7fa65ab5dcd7410441b6568bcb398be478dd97403ac09d181f7d1a84806d75f164858585848151811061176957611769611ed6565b602002602001015185858151811061178357611783611ed6565b60200260200101516040516117ba949392919093845260208401929092526001600160a01b03166040830152606082015260800190565b60405180910390a15b806117cd81611dfd565b915050611617565b60006117e18284611eec565b90505b92915050565b828054828255906000526020600020908101928215611825579160200282015b8281111561182557825182559160200191906001019061180a565b50611831929150611887565b5090565b82805482825590600052602060002090810192821561187b579160200282015b8281111561187b578251829061186b9082611f52565b5091602001919060010190611855565b5061183192915061189c565b5b808211156118315760008155600101611888565b808211156118315760006118b082826118b9565b5060010161189c565b5080546118c590611c9f565b6000825580601f106118d5575050565b601f0160209004906000526020600020908101906118f39190611887565b50565b6001600160a01b03811681146118f357600080fd5b60008060006060848603121561192057600080fd5b83359250602084013591506040840135611939816118f6565b809150509250925092565b6000806040838503121561195757600080fd5b50508035926020909101359150565b60005b83811015611981578181015183820152602001611969565b50506000910152565b600081518084526119a2816020860160208601611966565b601f01601f19169290920160200192915050565b604080825283519082018190526000906020906060840190828701845b828110156119ef578151845292840192908401906001016119d3565b50505083810382850152845180825282820190600581901b8301840187850160005b83811015611a3f57601f19868403018552611a2d83835161198a565b94870194925090860190600101611a11565b50909998505050505050505050565b60008083601f840112611a6057600080fd5b50813567ffffffffffffffff811115611a7857600080fd5b6020830191508360208260051b8501011115611a9357600080fd5b9250929050565b600080600080600080600080600060a08a8c031215611ab857600080fd5b8935985060208a013567ffffffffffffffff80821115611ad757600080fd5b611ae38d838e01611a4e565b909a50985060408c0135915080821115611afc57600080fd5b611b088d838e01611a4e565b909850965060608c0135915080821115611b2157600080fd5b611b2d8d838e01611a4e565b909650945060808c0135915080821115611b4657600080fd5b50611b538c828d01611a4e565b915080935050809150509295985092959850929598565b60008060008060008060808789031215611b8357600080fd5b8635955060208701359450604087013567ffffffffffffffff80821115611ba957600080fd5b611bb58a838b01611a4e565b90965094506060890135915080821115611bce57600080fd5b50611bdb89828a01611a4e565b979a9699509497509295939492505050565b60008060008060808587031215611c0357600080fd5b8435935060208501359250604085013591506060850135611c23816118f6565b939692955090935050565b600080600060608486031215611c4357600080fd5b505081359360208301359350604090920135919050565b6020815260006117e1602083018461198a565b600060208284031215611c7f57600080fd5b5035919050565b600060208284031215611c9857600080fd5b5051919050565b600181811c90821680611cb357607f821691505b6020821081036114c257634e487b7160e01b600052602260045260246000fd5b634e487b7160e01b600052604160045260246000fd5b604051601f8201601f1916810167ffffffffffffffff81118282101715611d1257611d12611cd3565b604052919050565b600067ffffffffffffffff821115611d3457611d34611cd3565b50601f01601f191660200190565b600080600060608486031215611d5757600080fd5b8351611d62816118f6565b6020850151909350611d73816118f6565b604085015190925067ffffffffffffffff811115611d9057600080fd5b8401601f81018613611da157600080fd5b8051611db4611daf82611d1a565b611ce9565b818152876020838501011115611dc957600080fd5b611dda826020830160208601611966565b8093505050509250925092565b634e487b7160e01b600052601160045260246000fd5b600060018201611e0f57611e0f611de7565b5060010190565b600067ffffffffffffffff80841115611e3157611e31611cd3565b8360051b6020611e42818301611ce9565b868152918501918181019036841115611e5a57600080fd5b865b84811015611eca57803586811115611e745760008081fd5b880136601f820112611e865760008081fd5b8035611e94611daf82611d1a565b8181523687838501011115611ea95760008081fd5b81878401888301376000918101870191909152845250918301918301611e5c565b50979650505050505050565b634e487b7160e01b600052603260045260246000fd5b80820281158282048414176117e4576117e4611de7565b601f821115611f4d57600081815260208120601f850160051c81016020861015611f2a5750805b601f850160051c820191505b81811015611f4957828155600101611f36565b5050505b505050565b815167ffffffffffffffff811115611f6c57611f6c611cd3565b611f8081611f7a8454611c9f565b84611f03565b602080601f831160018114611fb55760008415611f9d5750858301515b600019600386901b1c1916600185901b178555611f49565b600085815260208120601f198616915b82811015611fe457888601518255948401946001909101908401611fc5565b50858210156120025787850151600019600388901b60f8161c191681555b5050505050600190811b0190555056fea2646970667358221220c9e9610542bc616dbb977cd4245fb3735319b7fea00d2caf06993f9f7e9e7cdb64736f6c63430008110033",
  "bytecodeSha1": "50e0c374ad2d215780eb9bf8fb2ad5a6f54475a0",
  "compiler": {
    "evm_version": "istanbul",
    "optimizer": {
      "enabled": true,
      "runs": 200
    },
    "version": "0.8.17+commit.8df45f5f"
  },
  "contractName": "BBTiers",
  "language": "Solidity",
  "natspec": {
    "kind": "dev",
    "methods": {},
    "version": 1
  },
  "opcodes": "PUSH1 0x80 PUSH1 0x40 MSTORE CALLVALUE DUP1 ISZERO PUSH2 0x10 JUMPI PUSH1 0x0 DUP1 REVERT JUMPDEST POP PUSH1 0x4 CALLDATASIZE LT PUSH2 0x9E JUMPI PUSH1 0x0 CALLDATALOAD PUSH1 0xE0 SHR DUP1 PUSH4 0x8A1DA7EA GT PUSH2 0x66 JUMPI DUP1 PUSH4 0x8A1DA7EA EQ PUSH2 0x133 JUMPI DUP1 PUSH4 0x8C40FC2A EQ PUSH2 0x148 JUMPI DUP1 PUSH4 0x8F6B8D02 EQ PUSH2 0x15B JUMPI DUP1 PUSH4 0xD59F0F20 EQ PUSH2 0x16E JUMPI DUP1 PUSH4 0xED340DDF EQ PUSH2 0x18E JUMPI PUSH1 0x0 DUP1 REVERT JUMPDEST DUP1 PUSH4 0x359F43E EQ PUSH2 0xA3 JUMPI DUP1 PUSH4 0x1D9F7FD6 EQ PUSH2 0xCB JUMPI DUP1 PUSH4 0x215E0C9D EQ PUSH2 0xEC JUMPI DUP1 PUSH4 0x3A8D19E1 EQ PUSH2 0x10D JUMPI DUP1 PUSH4 0x819CA222 EQ PUSH2 0x120 JUMPI JUMPDEST PUSH1 0x0 DUP1 REVERT JUMPDEST PUSH2 0xB6 PUSH2 0xB1 CALLDATASIZE PUSH1 0x4 PUSH2 0x190B JUMP JUMPDEST PUSH2 0x1A1 JUMP JUMPDEST PUSH1 0x40 MLOAD SWAP1 ISZERO ISZERO DUP2 MSTORE PUSH1 0x20 ADD JUMPDEST PUSH1 0x40 MLOAD DUP1 SWAP2 SUB SWAP1 RETURN JUMPDEST PUSH2 0xDE PUSH2 0xD9 CALLDATASIZE PUSH1 0x4 PUSH2 0x1944 JUMP JUMPDEST PUSH2 0x2EA JUMP JUMPDEST PUSH1 0x40 MLOAD PUSH2 0xC2 SWAP3 SWAP2 SWAP1 PUSH2 0x19B6 JUMP JUMPDEST PUSH2 0xFF PUSH2 0xFA CALLDATASIZE PUSH1 0x4 PUSH2 0x190B JUMP JUMPDEST PUSH2 0x53D JUMP JUMPDEST PUSH1 0x40 MLOAD SWAP1 DUP2 MSTORE PUSH1 0x20 ADD PUSH2 0xC2 JUMP JUMPDEST PUSH2 0xFF PUSH2 0x11B CALLDATASIZE PUSH1 0x4 PUSH2 0x1A9A JUMP JUMPDEST PUSH2 0x6E1 JUMP JUMPDEST PUSH2 0xFF PUSH2 0x12E CALLDATASIZE PUSH1 0x4 PUSH2 0x1944 JUMP JUMPDEST PUSH2 0x9AD JUMP JUMPDEST PUSH2 0x146 PUSH2 0x141 CALLDATASIZE PUSH1 0x4 PUSH2 0x1B6A JUMP JUMPDEST PUSH2 0xAD3 JUMP JUMPDEST STOP JUMPDEST PUSH2 0x146 PUSH2 0x156 CALLDATASIZE PUSH1 0x4 PUSH2 0x1B6A JUMP JUMPDEST PUSH2 0xD3C JUMP JUMPDEST PUSH2 0xFF PUSH2 0x169 CALLDATASIZE PUSH1 0x4 PUSH2 0x1BED JUMP JUMPDEST PUSH2 0xF96 JUMP JUMPDEST PUSH2 0x181 PUSH2 0x17C CALLDATASIZE PUSH1 0x4 PUSH2 0x1C2E JUMP JUMPDEST PUSH2 0x11CB JUMP JUMPDEST PUSH1 0x40 MLOAD PUSH2 0xC2 SWAP2 SWAP1 PUSH2 0x1C5A JUMP JUMPDEST PUSH2 0xFF PUSH2 0x19C CALLDATASIZE PUSH1 0x4 PUSH2 0x1C6D JUMP JUMPDEST PUSH2 0x13F0 JUMP JUMPDEST PUSH1 0x0 DUP4 DUP4 PUSH32 0x0 PUSH1 0x1 PUSH1 0x1 PUSH1 0xA0 SHL SUB AND PUSH4 0xD2ADBE79 PUSH1 0x40 MLOAD DUP2 PUSH4 0xFFFFFFFF AND PUSH1 0xE0 SHL DUP2 MSTORE PUSH1 0x4 ADD PUSH1 0x20 PUSH1 0x40 MLOAD DUP1 DUP4 SUB DUP2 DUP7 GAS STATICCALL ISZERO DUP1 ISZERO PUSH2 0x203 JUMPI RETURNDATASIZE PUSH1 0x0 DUP1 RETURNDATACOPY RETURNDATASIZE PUSH1 0x0 REVERT JUMPDEST POP POP POP POP PUSH1 0x40 MLOAD RETURNDATASIZE PUSH1 0x1F NOT PUSH1 0x1F DUP3 ADD AND DUP3 ADD DUP1 PUSH1 0x40 MSTORE POP DUP2 ADD SWAP1 PUSH2 0x227 SWAP2 SWAP1 PUSH2 0x1C86 JUMP JUMPDEST DUP3 LT PUSH1 0x40 MLOAD DUP1 PUSH1 0x40 ADD PUSH1 0x40 MSTORE DUP1 PUSH1 0x1 DUP2 MSTORE PUSH1 0x20 ADD PUSH1 0x35 PUSH1 0xF8 SHL DUP2 MSTORE POP SWAP1 PUSH2 0x26A JUMPI PUSH1 0x40 MLOAD PUSH3 0x461BCD PUSH1 0xE5 SHL DUP2 MSTORE PUSH1 0x4 ADD PUSH2 0x261 SWAP2 SWAP1 PUSH2 0x1C5A JUMP JUMPDEST PUSH1 0x40 MLOAD DUP1 SWAP2 SUB SWAP1 REVERT JUMPDEST POP PUSH1 0x0 DUP3 DUP2 MSTORE PUSH1 0x1 PUSH1 0x20 DUP2 DUP2 MSTORE PUSH1 0x40 SWAP3 DUP4 SWAP1 KECCAK256 SLOAD DUP4 MLOAD DUP1 DUP6 ADD SWAP1 SWAP5 MSTORE SWAP2 DUP4 MSTORE PUSH1 0x1B PUSH1 0xF9 SHL SWAP1 DUP4 ADD MSTORE DUP3 LT PUSH2 0x2B1 JUMPI PUSH1 0x40 MLOAD PUSH3 0x461BCD PUSH1 0xE5 SHL DUP2 MSTORE PUSH1 0x4 ADD PUSH2 0x261 SWAP2 SWAP1 PUSH2 0x1C5A JUMP JUMPDEST POP POP POP PUSH1 0x0 SWAP4 DUP5 MSTORE POP PUSH1 0x20 DUP4 DUP2 MSTORE PUSH1 0x40 DUP1 DUP6 KECCAK256 SWAP4 DUP6 MSTORE SWAP3 DUP2 MSTORE DUP3 DUP5 KECCAK256 PUSH1 0x1 PUSH1 0x1 PUSH1 0xA0 SHL SUB SWAP3 SWAP1 SWAP3 AND DUP5 MSTORE PUSH1 0x2 SWAP1 SWAP2 ADD SWAP1 MSTORE SWAP1 KECCAK256 SLOAD ISZERO ISZERO SWAP1 JUMP JUMPDEST PUSH1 0x60 DUP1 DUP4 DUP4 PUSH32 0x0 PUSH1 0x1 PUSH1 0x1 PUSH1 0xA0 SHL SUB AND PUSH4 0xD2ADBE79 PUSH1 0x40 MLOAD DUP2 PUSH4 0xFFFFFFFF AND PUSH1 0xE0 SHL DUP2 MSTORE PUSH1 0x4 ADD PUSH1 0x20 PUSH1 0x40 MLOAD DUP1 DUP4 SUB DUP2 DUP7 GAS STATICCALL ISZERO DUP1 ISZERO PUSH2 0x34D JUMPI RETURNDATASIZE PUSH1 0x0 DUP1 RETURNDATACOPY RETURNDATASIZE PUSH1 0x0 REVERT JUMPDEST POP POP POP POP PUSH1 0x40 MLOAD RETURNDATASIZE PUSH1 0x1F NOT PUSH1 0x1F DUP3 ADD AND DUP3 ADD DUP1 PUSH1 0x40 MSTORE POP DUP2 ADD SWAP1 PUSH2 0x371 SWAP2 SWAP1 PUSH2 0x1C86 JUMP JUMPDEST DUP3 LT PUSH1 0x40 MLOAD DUP1 PUSH1 0x40 ADD PUSH1 0x40 MSTORE DUP1 PUSH1 0x1 DUP2 MSTORE PUSH1 0x20 ADD PUSH1 0x35 PUSH1 0xF8 SHL DUP2 MSTORE POP SWAP1 PUSH2 0x3AB JUMPI PUSH1 0x40 MLOAD PUSH3 0x461BCD PUSH1 0xE5 SHL DUP2 MSTORE PUSH1 0x4 ADD PUSH2 0x261 SWAP2 SWAP1 PUSH2 0x1C5A JUMP JUMPDEST POP PUSH1 0x0 DUP3 DUP2 MSTORE PUSH1 0x1 PUSH1 0x20 DUP2 DUP2 MSTORE PUSH1 0x40 SWAP3 DUP4 SWAP1 KECCAK256 SLOAD DUP4 MLOAD DUP1 DUP6 ADD SWAP1 SWAP5 MSTORE SWAP2 DUP4 MSTORE PUSH1 0x1B PUSH1 0xF9 SHL SWAP1 DUP4 ADD MSTORE DUP3 LT PUSH2 0x3F2 JUMPI PUSH1 0x40 MLOAD PUSH3 0x461BCD PUSH1 0xE5 SHL DUP2 MSTORE PUSH1 0x4 ADD PUSH2 0x261 SWAP2 SWAP1 PUSH2 0x1C5A JUMP JUMPDEST POP PUSH1 0x0 DUP7 DUP2 MSTORE PUSH1 0x20 DUP2 DUP2 MSTORE PUSH1 0x40 DUP1 DUP4 KECCAK256 DUP9 DUP5 MSTORE DUP3 MSTORE SWAP2 DUP3 SWAP1 KECCAK256 DUP1 SLOAD DUP4 MLOAD DUP2 DUP5 MUL DUP2 ADD DUP5 ADD SWAP1 SWAP5 MSTORE DUP1 DUP5 MSTORE SWAP1 SWAP3 PUSH1 0x1 DUP5 ADD SWAP3 SWAP1 SWAP2 DUP5 SWAP2 DUP4 ADD DUP3 DUP3 DUP1 ISZERO PUSH2 0x456 JUMPI PUSH1 0x20 MUL DUP3 ADD SWAP2 SWAP1 PUSH1 0x0 MSTORE PUSH1 0x20 PUSH1 0x0 KECCAK256 SWAP1 JUMPDEST DUP2 SLOAD DUP2 MSTORE PUSH1 0x20 ADD SWAP1 PUSH1 0x1 ADD SWAP1 DUP1 DUP4 GT PUSH2 0x442 JUMPI JUMPDEST POP POP POP POP POP SWAP2 POP DUP1 DUP1 SLOAD DUP1 PUSH1 0x20 MUL PUSH1 0x20 ADD PUSH1 0x40 MLOAD SWAP1 DUP2 ADD PUSH1 0x40 MSTORE DUP1 SWAP3 SWAP2 SWAP1 DUP2 DUP2 MSTORE PUSH1 0x20 ADD PUSH1 0x0 SWAP1 JUMPDEST DUP3 DUP3 LT ISZERO PUSH2 0x52A JUMPI DUP4 DUP3 SWAP1 PUSH1 0x0 MSTORE PUSH1 0x20 PUSH1 0x0 KECCAK256 ADD DUP1 SLOAD PUSH2 0x49D SWAP1 PUSH2 0x1C9F JUMP JUMPDEST DUP1 PUSH1 0x1F ADD PUSH1 0x20 DUP1 SWAP2 DIV MUL PUSH1 0x20 ADD PUSH1 0x40 MLOAD SWAP1 DUP2 ADD PUSH1 0x40 MSTORE DUP1 SWAP3 SWAP2 SWAP1 DUP2 DUP2 MSTORE PUSH1 0x20 ADD DUP3 DUP1 SLOAD PUSH2 0x4C9 SWAP1 PUSH2 0x1C9F JUMP JUMPDEST DUP1 ISZERO PUSH2 0x516 JUMPI DUP1 PUSH1 0x1F LT PUSH2 0x4EB JUMPI PUSH2 0x100 DUP1 DUP4 SLOAD DIV MUL DUP4 MSTORE SWAP2 PUSH1 0x20 ADD SWAP2 PUSH2 0x516 JUMP JUMPDEST DUP3 ADD SWAP2 SWAP1 PUSH1 0x0 MSTORE PUSH1 0x20 PUSH1 0x0 KECCAK256 SWAP1 JUMPDEST DUP2 SLOAD DUP2 MSTORE SWAP1 PUSH1 0x1 ADD SWAP1 PUSH1 0x20 ADD DUP1 DUP4 GT PUSH2 0x4F9 JUMPI DUP3 SWAP1 SUB PUSH1 0x1F AND DUP3 ADD SWAP2 JUMPDEST POP POP POP POP POP DUP2 MSTORE PUSH1 0x20 ADD SWAP1 PUSH1 0x1 ADD SWAP1 PUSH2 0x47E JUMP JUMPDEST POP POP POP POP SWAP1 POP SWAP4 POP SWAP4 POP POP POP SWAP3 POP SWAP3 SWAP1 POP JUMP JUMPDEST PUSH1 0x0 DUP4 DUP4 PUSH32 0x0 PUSH1 0x1 PUSH1 0x1 PUSH1 0xA0 SHL SUB AND PUSH4 0xD2ADBE79 PUSH1 0x40 MLOAD DUP2 PUSH4 0xFFFFFFFF AND PUSH1 0xE0 SHL DUP2 MSTORE PUSH1 0x4 ADD PUSH1 0x20 PUSH1 0x40 MLOAD DUP1 DUP4 SUB DUP2 DUP7 GAS STATICCALL ISZERO DUP1 ISZERO PUSH2 0x59F JUMPI RETURNDATASIZE PUSH1 0x0 DUP1 RETURNDATACOPY RETURNDATASIZE PUSH1 0x0 REVERT JUMPDEST POP POP POP POP PUSH1 0x40 MLOAD RETURNDATASIZE PUSH1 0x1F NOT PUSH1 0x1F DUP3 ADD AND DUP3 ADD DUP1 PUSH1 0x40 MSTORE POP DUP2 ADD SWAP1 PUSH2 0x5C3 SWAP2 SWAP1 PUSH2 0x1C86 JUMP JUMPDEST DUP3 LT PUSH1 0x40 MLOAD DUP1 PUSH1 0x40 ADD PUSH1 0x40 MSTORE DUP1 PUSH1 0x1 DUP2 MSTORE PUSH1 0x20 ADD PUSH1 0x35 PUSH1 0xF8 SHL DUP2 MSTORE POP SWAP1 PUSH2 0x5FD JUMPI PUSH1 0x40 MLOAD PUSH3 0x461BCD PUSH1 0xE5 SHL DUP2 MSTORE PUSH1 0x4 ADD PUSH2 0x261 SWAP2 SWAP1 PUSH2 0x1C5A JUMP JUMPDEST POP PUSH1 0x0 DUP3 DUP2 MSTORE PUSH1 0x1 PUSH1 0x20 DUP2 DUP2 MSTORE PUSH1 0x40 SWAP3 DUP4 SWAP1 KECCAK256 SLOAD DUP4 MLOAD DUP1 DUP6 ADD SWAP1 SWAP5 MSTORE SWAP2 DUP4 MSTORE PUSH1 0x1B PUSH1 0xF9 SHL SWAP1 DUP4 ADD MSTORE DUP3 LT PUSH2 0x644 JUMPI PUSH1 0x40 MLOAD PUSH3 0x461BCD PUSH1 0xE5 SHL DUP2 MSTORE PUSH1 0x4 ADD PUSH2 0x261 SWAP2 SWAP1 PUSH2 0x1C5A JUMP JUMPDEST POP PUSH1 0x0 DUP7 DUP2 MSTORE PUSH1 0x20 DUP2 DUP2 MSTORE PUSH1 0x40 DUP1 DUP4 KECCAK256 DUP9 DUP5 MSTORE DUP3 MSTORE DUP1 DUP4 KECCAK256 PUSH1 0x1 PUSH1 0x1 PUSH1 0xA0 SHL SUB DUP9 AND DUP5 MSTORE PUSH1 0x2 SWAP1 DUP2 ADD DUP4 MSTORE SWAP3 DUP2 SWAP1 KECCAK256 SLOAD DUP2 MLOAD DUP1 DUP4 ADD SWAP1 SWAP3 MSTORE SWAP3 DUP2 MSTORE PUSH2 0x627 PUSH1 0xF3 SHL SWAP2 DUP2 ADD SWAP2 SWAP1 SWAP2 MSTORE SWAP1 PUSH2 0x6AA JUMPI PUSH1 0x40 MLOAD PUSH3 0x461BCD PUSH1 0xE5 SHL DUP2 MSTORE PUSH1 0x4 ADD PUSH2 0x261 SWAP2 SWAP1 PUSH2 0x1C5A JUMP JUMPDEST POP POP POP PUSH1 0x0 SWAP4 DUP5 MSTORE POP PUSH1 0x20 DUP4 DUP2 MSTORE PUSH1 0x40 DUP1 DUP6 KECCAK256 SWAP4 DUP6 MSTORE SWAP3 DUP2 MSTORE DUP3 DUP5 KECCAK256 PUSH1 0x1 PUSH1 0x1 PUSH1 0xA0 SHL SUB SWAP3 SWAP1 SWAP3 AND DUP5 MSTORE PUSH1 0x2 SWAP1 SWAP2 ADD SWAP1 MSTORE SWAP1 KECCAK256 SLOAD SWAP1 JUMP JUMPDEST PUSH1 0x0 DUP10 PUSH32 0x0 PUSH1 0x1 PUSH1 0x1 PUSH1 0xA0 SHL SUB AND PUSH4 0xD2ADBE79 PUSH1 0x40 MLOAD DUP2 PUSH4 0xFFFFFFFF AND PUSH1 0xE0 SHL DUP2 MSTORE PUSH1 0x4 ADD PUSH1 0x20 PUSH1 0x40 MLOAD DUP1 DUP4 SUB DUP2 DUP7 GAS STATICCALL ISZERO DUP1 ISZERO PUSH2 0x742 JUMPI RETURNDATASIZE PUSH1 0x0 DUP1 RETURNDATACOPY RETURNDATASIZE PUSH1 0x0 REVERT JUMPDEST POP POP POP POP PUSH1 0x40 MLOAD RETURNDATASIZE PUSH1 0x1F NOT PUSH1 0x1F DUP3 ADD AND DUP3 ADD DUP1 PUSH1 0x40 MSTORE POP DUP2 ADD SWAP1 PUSH2 0x766 SWAP2 SWAP1 PUSH2 0x1C86 JUMP JUMPDEST DUP2 LT PUSH1 0x40 MLOAD DUP1 PUSH1 0x40 ADD PUSH1 0x40 MSTORE DUP1 PUSH1 0x1 DUP2 MSTORE PUSH1 0x20 ADD PUSH1 0x35 PUSH1 0xF8 SHL DUP2 MSTORE POP SWAP1 PUSH2 0x7A0 JUMPI PUSH1 0x40 MLOAD PUSH3 0x461BCD PUSH1 0xE5 SHL DUP2 MSTORE PUSH1 0x4 ADD PUSH2 0x261 SWAP2 SWAP1 PUSH2 0x1C5A JUMP JUMPDEST POP PUSH1 0x40 MLOAD PUSH4 0x3C23D3D9 PUSH1 0xE2 SHL DUP2 MSTORE PUSH1 0x4 DUP2 ADD DUP13 SWAP1 MSTORE DUP12 SWAP1 PUSH1 0x0 SWAP1 PUSH1 0x1 PUSH1 0x1 PUSH1 0xA0 SHL SUB PUSH32 0x0 AND SWAP1 PUSH4 0xF08F4F64 SWAP1 PUSH1 0x24 ADD PUSH1 0x0 PUSH1 0x40 MLOAD DUP1 DUP4 SUB DUP2 DUP7 GAS STATICCALL ISZERO DUP1 ISZERO PUSH2 0x80B JUMPI RETURNDATASIZE PUSH1 0x0 DUP1 RETURNDATACOPY RETURNDATASIZE PUSH1 0x0 REVERT JUMPDEST POP POP POP POP PUSH1 0x40 MLOAD RETURNDATASIZE PUSH1 0x0 DUP3 RETURNDATACOPY PUSH1 0x1F RETURNDATASIZE SWAP1 DUP2 ADD PUSH1 0x1F NOT AND DUP3 ADD PUSH1 0x40 MSTORE PUSH2 0x833 SWAP2 SWAP1 DUP2 ADD SWAP1 PUSH2 0x1D42 JUMP JUMPDEST POP POP PUSH1 0x40 DUP1 MLOAD DUP1 DUP3 ADD SWAP1 SWAP2 MSTORE PUSH1 0x1 DUP2 MSTORE PUSH1 0x31 PUSH1 0xF8 SHL PUSH1 0x20 DUP3 ADD MSTORE SWAP1 SWAP2 POP PUSH1 0x1 PUSH1 0x1 PUSH1 0xA0 SHL SUB DUP3 AND CALLER EQ PUSH2 0x879 JUMPI PUSH1 0x40 MLOAD PUSH3 0x461BCD PUSH1 0xE5 SHL DUP2 MSTORE PUSH1 0x4 ADD PUSH2 0x261 SWAP2 SWAP1 PUSH2 0x1C5A JUMP JUMPDEST POP PUSH1 0x0 DUP14 DUP2 MSTORE PUSH1 0x1 PUSH1 0x20 MSTORE PUSH1 0x40 DUP2 KECCAK256 DUP1 SLOAD SWAP6 POP DUP6 SWAP2 PUSH2 0x897 DUP4 PUSH2 0x1DFD JUMP JUMPDEST SWAP2 SWAP1 POP SSTORE POP PUSH2 0x8F5 DUP14 DUP6 DUP15 DUP15 DUP1 DUP1 PUSH1 0x20 MUL PUSH1 0x20 ADD PUSH1 0x40 MLOAD SWAP1 DUP2 ADD PUSH1 0x40 MSTORE DUP1 SWAP4 SWAP3 SWAP2 SWAP1 DUP2 DUP2 MSTORE PUSH1 0x20 ADD DUP4 DUP4 PUSH1 0x20 MUL DUP1 DUP3 DUP5 CALLDATACOPY PUSH1 0x0 DUP2 DUP5 ADD MSTORE PUSH1 0x1F NOT PUSH1 0x1F DUP3 ADD AND SWAP1 POP DUP1 DUP4 ADD SWAP3 POP POP POP POP POP POP POP DUP14 DUP14 SWAP1 PUSH2 0x8F0 SWAP2 SWAP1 PUSH2 0x1E16 JUMP JUMPDEST PUSH2 0x14C8 JUMP JUMPDEST PUSH2 0x964 DUP14 DUP6 DUP11 DUP11 DUP1 DUP1 PUSH1 0x20 MUL PUSH1 0x20 ADD PUSH1 0x40 MLOAD SWAP1 DUP2 ADD PUSH1 0x40 MSTORE DUP1 SWAP4 SWAP3 SWAP2 SWAP1 DUP2 DUP2 MSTORE PUSH1 0x20 ADD DUP4 DUP4 PUSH1 0x20 MUL DUP1 DUP3 DUP5 CALLDATACOPY PUSH1 0x0 SWAP3 ADD SWAP2 SWAP1 SWAP2 MSTORE POP POP PUSH1 0x40 DUP1 MLOAD PUSH1 0x20 DUP1 DUP15 MUL DUP3 DUP2 ADD DUP3 ADD SWAP1 SWAP4 MSTORE DUP14 DUP3 MSTORE SWAP1 SWAP4 POP DUP14 SWAP3 POP DUP13 SWAP2 DUP3 SWAP2 DUP6 ADD SWAP1 DUP5 SWAP1 DUP1 DUP3 DUP5 CALLDATACOPY PUSH1 0x0 SWAP3 ADD SWAP2 SWAP1 SWAP2 MSTORE POP PUSH2 0x15D5 SWAP3 POP POP POP JUMP JUMPDEST PUSH1 0x40 DUP1 MLOAD DUP15 DUP2 MSTORE PUSH1 0x20 DUP2 ADD DUP7 SWAP1 MSTORE PUSH32 0xC39AE3AB6DDAE8D37132BF00AE6DAA9BD725500DA534B26A2E56B08726CDED8C SWAP2 ADD PUSH1 0x40 MLOAD DUP1 SWAP2 SUB SWAP1 LOG1 POP POP POP SWAP10 SWAP9 POP POP POP POP POP POP POP POP POP JUMP JUMPDEST PUSH1 0x0 DUP3 DUP3 PUSH32 0x0 PUSH1 0x1 PUSH1 0x1 PUSH1 0xA0 SHL SUB AND PUSH4 0xD2ADBE79 PUSH1 0x40 MLOAD DUP2 PUSH4 0xFFFFFFFF AND PUSH1 0xE0 SHL DUP2 MSTORE PUSH1 0x4 ADD PUSH1 0x20 PUSH1 0x40 MLOAD DUP1 DUP4 SUB DUP2 DUP7 GAS STATICCALL ISZERO DUP1 ISZERO PUSH2 0xA0F JUMPI RETURNDATASIZE PUSH1 0x0 DUP1 RETURNDATACOPY RETURNDATASIZE PUSH1 0x0 REVERT JUMPDEST POP POP POP POP PUSH1 0x40 MLOAD RETURNDATASIZE PUSH1 0x1F NOT PUSH1 0x1F DUP3 ADD AND DUP3 ADD DUP1 PUSH1 0x40 MSTORE POP DUP2 ADD SWAP1 PUSH2 0xA33 SWAP2 SWAP1 PUSH2 0x1C86 JUMP JUMPDEST DUP3 LT PUSH1 0x40 MLOAD DUP1 PUSH1 0x40 ADD PUSH1 0x40 MSTORE DUP1 PUSH1 0x1 DUP2 MSTORE PUSH1 0x20 ADD PUSH1 0x35 PUSH1 0xF8 SHL DUP2 MSTORE POP SWAP1 PUSH2 0xA6D JUMPI PUSH1 0x40 MLOAD PUSH3 0x461BCD PUSH1 0xE5 SHL DUP2 MSTORE PUSH1 0x4 ADD PUSH2 0x261 SWAP2 SWAP1 PUSH2 0x1C5A JUMP JUMPDEST POP PUSH1 0x0 DUP3 DUP2 MSTORE PUSH1 0x1 PUSH1 0x20 DUP2 DUP2 MSTORE PUSH1 0x40 SWAP3 DUP4 SWAP1 KECCAK256 SLOAD DUP4 MLOAD DUP1 DUP6 ADD SWAP1 SWAP5 MSTORE SWAP2 DUP4 MSTORE PUSH1 0x1B PUSH1 0xF9 SHL SWAP1 DUP4 ADD MSTORE DUP3 LT PUSH2 0xAB4 JUMPI PUSH1 0x40 MLOAD PUSH3 0x461BCD PUSH1 0xE5 SHL DUP2 MSTORE PUSH1 0x4 ADD PUSH2 0x261 SWAP2 SWAP1 PUSH2 0x1C5A JUMP JUMPDEST POP POP POP PUSH1 0x0 SWAP3 DUP4 MSTORE POP PUSH1 0x20 DUP3 DUP2 MSTORE PUSH1 0x40 DUP1 DUP5 KECCAK256 SWAP3 DUP5 MSTORE SWAP2 SWAP1 MSTORE SWAP1 KECCAK256 SLOAD SWAP1 JUMP JUMPDEST DUP6 DUP6 PUSH32 0x0 PUSH1 0x1 PUSH1 0x1 PUSH1 0xA0 SHL SUB AND PUSH4 0xD2ADBE79 PUSH1 0x40 MLOAD DUP2 PUSH4 0xFFFFFFFF AND PUSH1 0xE0 SHL DUP2 MSTORE PUSH1 0x4 ADD PUSH1 0x20 PUSH1 0x40 MLOAD DUP1 DUP4 SUB DUP2 DUP7 GAS STATICCALL ISZERO DUP1 ISZERO PUSH2 0xB33 JUMPI RETURNDATASIZE PUSH1 0x0 DUP1 RETURNDATACOPY RETURNDATASIZE PUSH1 0x0 REVERT JUMPDEST POP POP POP POP PUSH1 0x40 MLOAD RETURNDATASIZE PUSH1 0x1F NOT PUSH1 0x1F DUP3 ADD AND DUP3 ADD DUP1 PUSH1 0x40 MSTORE POP DUP2 ADD SWAP1 PUSH2 0xB57 SWAP2 SWAP1 PUSH2 0x1C86 JUMP JUMPDEST DUP3 LT PUSH1 0x40 MLOAD DUP1 PUSH1 0x40 ADD PUSH1 0x40 MSTORE DUP1 PUSH1 0x1 DUP2 MSTORE PUSH1 0x20 ADD PUSH1 0x35 PUSH1 0xF8 SHL DUP2 MSTORE POP SWAP1 PUSH2 0xB91 JUMPI PUSH1 0x40 MLOAD PUSH3 0x461BCD PUSH1 0xE5 SHL DUP2 MSTORE PUSH1 0x4 ADD PUSH2 0x261 SWAP2 SWAP1 PUSH2 0x1C5A JUMP JUMPDEST POP PUSH1 0x0 DUP3 DUP2 MSTORE PUSH1 0x1 PUSH1 0x20 DUP2 DUP2 MSTORE PUSH1 0x40 SWAP3 DUP4 SWAP1 KECCAK256 SLOAD DUP4 MLOAD DUP1 DUP6 ADD SWAP1 SWAP5 MSTORE SWAP2 DUP4 MSTORE PUSH1 0x1B PUSH1 0xF9 SHL SWAP1 DUP4 ADD MSTORE DUP3 LT PUSH2 0xBD8 JUMPI PUSH1 0x40 MLOAD PUSH3 0x461BCD PUSH1 0xE5 SHL DUP2 MSTORE PUSH1 0x4 ADD PUSH2 0x261 SWAP2 SWAP1 PUSH2 0x1C5A JUMP JUMPDEST POP PUSH1 0x40 MLOAD PUSH4 0x3C23D3D9 PUSH1 0xE2 SHL DUP2 MSTORE PUSH1 0x4 DUP2 ADD DUP10 SWAP1 MSTORE DUP9 SWAP1 PUSH1 0x0 SWAP1 PUSH1 0x1 PUSH1 0x1 PUSH1 0xA0 SHL SUB PUSH32 0x0 AND SWAP1 PUSH4 0xF08F4F64 SWAP1 PUSH1 0x24 ADD PUSH1 0x0 PUSH1 0x40 MLOAD DUP1 DUP4 SUB DUP2 DUP7 GAS STATICCALL ISZERO DUP1 ISZERO PUSH2 0xC43 JUMPI RETURNDATASIZE PUSH1 0x0 DUP1 RETURNDATACOPY RETURNDATASIZE PUSH1 0x0 REVERT JUMPDEST POP POP POP POP PUSH1 0x40 MLOAD RETURNDATASIZE PUSH1 0x0 DUP3 RETURNDATACOPY PUSH1 0x1F RETURNDATASIZE SWAP1 DUP2 ADD PUSH1 0x1F NOT AND DUP3 ADD PUSH1 0x40 MSTORE PUSH2 0xC6B SWAP2 SWAP1 DUP2 ADD SWAP1 PUSH2 0x1D42 JUMP JUMPDEST POP POP PUSH1 0x40 DUP1 MLOAD DUP1 DUP3 ADD SWAP1 SWAP2 MSTORE PUSH1 0x1 DUP2 MSTORE PUSH1 0x31 PUSH1 0xF8 SHL PUSH1 0x20 DUP3 ADD MSTORE SWAP1 SWAP2 POP PUSH1 0x1 PUSH1 0x1 PUSH1 0xA0 SHL SUB DUP3 AND CALLER EQ PUSH2 0xCB1 JUMPI PUSH1 0x40 MLOAD PUSH3 0x461BCD PUSH1 0xE5 SHL DUP2 MSTORE PUSH1 0x4 ADD PUSH2 0x261 SWAP2 SWAP1 PUSH2 0x1C5A JUMP JUMPDEST POP PUSH2 0xCF7 DUP11 DUP11 DUP11 DUP11 DUP1 DUP1 PUSH1 0x20 MUL PUSH1 0x20 ADD PUSH1 0x40 MLOAD SWAP1 DUP2 ADD PUSH1 0x40 MSTORE DUP1 SWAP4 SWAP3 SWAP2 SWAP1 DUP2 DUP2 MSTORE PUSH1 0x20 ADD DUP4 DUP4 PUSH1 0x20 MUL DUP1 DUP3 DUP5 CALLDATACOPY PUSH1 0x0 SWAP3 ADD SWAP2 SWAP1 SWAP2 MSTORE POP PUSH2 0x8F0 SWAP3 POP DUP12 SWAP2 POP DUP13 SWAP1 POP PUSH2 0x1E16 JUMP JUMPDEST PUSH1 0x40 DUP1 MLOAD DUP12 DUP2 MSTORE PUSH1 0x20 DUP2 ADD DUP12 SWAP1 MSTORE PUSH32 0x28F392C3F5B680337F75A44445646CA32CACD93B1364636DEB260906C1E35944 SWAP2 ADD PUSH1 0x40 MLOAD DUP1 SWAP2 SUB SWAP1 LOG1 POP POP POP POP POP POP POP POP POP POP JUMP JUMPDEST DUP6 DUP6 PUSH32 0x0 PUSH1 0x1 PUSH1 0x1 PUSH1 0xA0 SHL SUB AND PUSH4 0xD2ADBE79 PUSH1 0x40 MLOAD DUP2 PUSH4 0xFFFFFFFF AND PUSH1 0xE0 SHL DUP2 MSTORE PUSH1 0x4 ADD PUSH1 0x20 PUSH1 0x40 MLOAD DUP1 DUP4 SUB DUP2 DUP7 GAS STATICCALL ISZERO DUP1 ISZERO PUSH2 0xD9C JUMPI RETURNDATASIZE PUSH1 0x0 DUP1 RETURNDATACOPY RETURNDATASIZE PUSH1 0x0 REVERT JUMPDEST POP POP POP POP PUSH1 0x40 MLOAD RETURNDATASIZE PUSH1 0x1F NOT PUSH1 0x1F DUP3 ADD AND DUP3 ADD DUP1 PUSH1 0x40 MSTORE POP DUP2 ADD SWAP1 PUSH2 0xDC0 SWAP2 SWAP1 PUSH2 0x1C86 JUMP JUMPDEST DUP3 LT PUSH1 0x40 MLOAD DUP1 PUSH1 0x40 ADD PUSH1 0x40 MSTORE DUP1 PUSH1 0x1 DUP2 MSTORE PUSH1 0x20 ADD PUSH1 0x35 PUSH1 0xF8 SHL DUP2 MSTORE POP SWAP1 PUSH2 0xDFA JUMPI PUSH1 0x40 MLOAD PUSH3 0x461BCD PUSH1 0xE5 SHL DUP2 MSTORE PUSH1 0x4 ADD PUSH2 0x261 SWAP2 SWAP1 PUSH2 0x1C5A JUMP JUMPDEST POP PUSH1 0x0 DUP3 DUP2 MSTORE PUSH1 0x1 PUSH1 0x20 DUP2 DUP2 MSTORE PUSH1 0x40 SWAP3 DUP4 SWAP1 KECCAK256 SLOAD DUP4 MLOAD DUP1 DUP6 ADD SWAP1 SWAP5 MSTORE SWAP2 DUP4 MSTORE PUSH1 0x1B PUSH1 0xF9 SHL SWAP1 DUP4 ADD MSTORE DUP3 LT PUSH2 0xE41 JUMPI PUSH1 0x40 MLOAD PUSH3 0x461BCD PUSH1 0xE5 SHL DUP2 MSTORE PUSH1 0x4 ADD PUSH2 0x261 SWAP2 SWAP1 PUSH2 0x1C5A JUMP JUMPDEST POP PUSH1 0x40 MLOAD PUSH4 0x3C23D3D9 PUSH1 0xE2 SHL DUP2 MSTORE PUSH1 0x4 DUP2 ADD DUP10 SWAP1 MSTORE DUP9 SWAP1 PUSH1 0x0 SWAP1 PUSH1 0x1 PUSH1 0x1 PUSH1 0xA0 SHL SUB PUSH32 0x0 AND SWAP1 PUSH4 0xF08F4F64 SWAP1 PUSH1 0x24 ADD PUSH1 0x0 PUSH1 0x40 MLOAD DUP1 DUP4 SUB DUP2 DUP7 GAS STATICCALL ISZERO DUP1 ISZERO PUSH2 0xEAC JUMPI RETURNDATASIZE PUSH1 0x0 DUP1 RETURNDATACOPY RETURNDATASIZE PUSH1 0x0 REVERT JUMPDEST POP POP POP POP PUSH1 0x40 MLOAD RETURNDATASIZE PUSH1 0x0 DUP3 RETURNDATACOPY PUSH1 0x1F RETURNDATASIZE SWAP1 DUP2 ADD PUSH1 0x1F NOT AND DUP3 ADD PUSH1 0x40 MSTORE PUSH2 0xED4 SWAP2 SWAP1 DUP2 ADD SWAP1 PUSH2 0x1D42 JUMP JUMPDEST POP POP PUSH1 0x40 DUP1 MLOAD DUP1 DUP3 ADD SWAP1 SWAP2 MSTORE PUSH1 0x1 DUP2 MSTORE PUSH1 0x31 PUSH1 0xF8 SHL PUSH1 0x20 DUP3 ADD MSTORE SWAP1 SWAP2 POP PUSH1 0x1 PUSH1 0x1 PUSH1 0xA0 SHL SUB DUP3 AND CALLER EQ PUSH2 0xF1A JUMPI PUSH1 0x40 MLOAD PUSH3 0x461BCD PUSH1 0xE5 SHL DUP2 MSTORE PUSH1 0x4 ADD PUSH2 0x261 SWAP2 SWAP1 PUSH2 0x1C5A JUMP JUMPDEST POP PUSH2 0xF8A DUP11 DUP11 DUP11 DUP11 DUP1 DUP1 PUSH1 0x20 MUL PUSH1 0x20 ADD PUSH1 0x40 MLOAD SWAP1 DUP2 ADD PUSH1 0x40 MSTORE DUP1 SWAP4 SWAP3 SWAP2 SWAP1 DUP2 DUP2 MSTORE PUSH1 0x20 ADD DUP4 DUP4 PUSH1 0x20 MUL DUP1 DUP3 DUP5 CALLDATACOPY PUSH1 0x0 SWAP3 ADD SWAP2 SWAP1 SWAP2 MSTORE POP POP PUSH1 0x40 DUP1 MLOAD PUSH1 0x20 DUP1 DUP15 MUL DUP3 DUP2 ADD DUP3 ADD SWAP1 SWAP4 MSTORE DUP14 DUP3 MSTORE SWAP1 SWAP4 POP DUP14 SWAP3 POP DUP13 SWAP2 DUP3 SWAP2 DUP6 ADD SWAP1 DUP5 SWAP1 DUP1 DUP3 DUP5 CALLDATACOPY PUSH1 0x0 SWAP3 ADD SWAP2 SWAP1 SWAP2 MSTORE POP PUSH2 0x15D5 SWAP3 POP POP POP JUMP JUMPDEST POP POP POP POP POP POP POP POP POP POP JUMP JUMPDEST PUSH1 0x0 DUP5 DUP5 DUP5 PUSH32 0x0 PUSH1 0x1 PUSH1 0x1 PUSH1 0xA0 SHL SUB AND PUSH4 0xD2ADBE79 PUSH1 0x40 MLOAD DUP2 PUSH4 0xFFFFFFFF AND PUSH1 0xE0 SHL DUP2 MSTORE PUSH1 0x4 ADD PUSH1 0x20 PUSH1 0x40 MLOAD DUP1 DUP4 SUB DUP2 DUP7 GAS STATICCALL ISZERO DUP1 ISZERO PUSH2 0xFF9 JUMPI RETURNDATASIZE PUSH1 0x0 DUP1 RETURNDATACOPY RETURNDATASIZE PUSH1 0x0 REVERT JUMPDEST POP POP POP POP PUSH1 0x40 MLOAD RETURNDATASIZE PUSH1 0x1F NOT PUSH1 0x1F DUP3 ADD AND DUP3 ADD DUP1 PUSH1 0x40 MSTORE POP DUP2 ADD SWAP1 PUSH2 0x101D SWAP2 SWAP1 PUSH2 0x1C86 JUMP JUMPDEST DUP4 LT PUSH1 0x40 MLOAD DUP1 PUSH1 0x40 ADD PUSH1 0x40 MSTORE DUP1 PUSH1 0x1 DUP2 MSTORE PUSH1 0x20 ADD PUSH1 0x35 PUSH1 0xF8 SHL DUP2 MSTORE POP SWAP1 PUSH2 0x1057 JUMPI PUSH1 0x40 MLOAD PUSH3 0x461BCD PUSH1 0xE5 SHL DUP2 MSTORE PUSH1 0x4 ADD PUSH2 0x261 SWAP2 SWAP1 PUSH2 0x1C5A JUMP JUMPDEST POP PUSH1 0x0 DUP4 DUP2 MSTORE PUSH1 0x1 PUSH1 0x20 DUP2 DUP2 MSTORE PUSH1 0x40 SWAP3 DUP4 SWAP1 KECCAK256 SLOAD DUP4 MLOAD DUP1 DUP6 ADD SWAP1 SWAP5 MSTORE SWAP2 DUP4 MSTORE PUSH1 0x1B PUSH1 0xF9 SHL SWAP1 DUP4 ADD MSTORE DUP4 LT PUSH2 0x109E JUMPI PUSH1 0x40 MLOAD PUSH3 0x461BCD PUSH1 0xE5 SHL DUP2 MSTORE PUSH1 0x4 ADD PUSH2 0x261 SWAP2 SWAP1 PUSH2 0x1C5A JUMP JUMPDEST POP PUSH1 0x0 DUP4 DUP2 MSTORE PUSH1 0x20 DUP2 DUP2 MSTORE PUSH1 0x40 DUP1 DUP4 KECCAK256 DUP6 DUP5 MSTORE DUP3 MSTORE SWAP2 DUP3 SWAP1 KECCAK256 SLOAD DUP3 MLOAD DUP1 DUP5 ADD SWAP1 SWAP4 MSTORE PUSH1 0x1 DUP4 MSTORE PUSH1 0x37 PUSH1 0xF8 SHL SWAP2 DUP4 ADD SWAP2 SWAP1 SWAP2 MSTORE DUP3 LT PUSH2 0x10EF JUMPI PUSH1 0x40 MLOAD PUSH3 0x461BCD PUSH1 0xE5 SHL DUP2 MSTORE PUSH1 0x4 ADD PUSH2 0x261 SWAP2 SWAP1 PUSH2 0x1C5A JUMP JUMPDEST POP PUSH1 0x0 DUP9 DUP2 MSTORE PUSH1 0x20 DUP2 DUP2 MSTORE PUSH1 0x40 DUP1 DUP4 KECCAK256 DUP11 DUP5 MSTORE DUP3 MSTORE DUP1 DUP4 KECCAK256 PUSH1 0x1 PUSH1 0x1 PUSH1 0xA0 SHL SUB DUP10 AND DUP5 MSTORE PUSH1 0x2 SWAP1 DUP2 ADD DUP4 MSTORE SWAP3 DUP2 SWAP1 KECCAK256 SLOAD DUP2 MLOAD DUP1 DUP4 ADD SWAP1 SWAP3 MSTORE SWAP3 DUP2 MSTORE PUSH2 0x627 PUSH1 0xF3 SHL SWAP2 DUP2 ADD SWAP2 SWAP1 SWAP2 MSTORE SWAP1 PUSH2 0x1155 JUMPI PUSH1 0x40 MLOAD PUSH3 0x461BCD PUSH1 0xE5 SHL DUP2 MSTORE PUSH1 0x4 ADD PUSH2 0x261 SWAP2 SWAP1 PUSH2 0x1C5A JUMP JUMPDEST POP PUSH1 0x0 DUP9 DUP2 MSTORE PUSH1 0x20 DUP2 DUP2 MSTORE PUSH1 0x40 DUP1 DUP4 KECCAK256 DUP11 DUP5 MSTORE SWAP1 SWAP2 MSTORE SWAP1 KECCAK256 DUP1 SLOAD PUSH2 0x11BF SWAP2 SWAP1 DUP9 SWAP1 DUP2 LT PUSH2 0x1184 JUMPI PUSH2 0x1184 PUSH2 0x1ED6 JUMP JUMPDEST PUSH1 0x0 SWAP2 DUP3 MSTORE PUSH1 0x20 DUP1 DUP4 KECCAK256 SWAP1 SWAP2 ADD SLOAD DUP12 DUP4 MSTORE DUP3 DUP3 MSTORE PUSH1 0x40 DUP1 DUP5 KECCAK256 DUP13 DUP6 MSTORE DUP4 MSTORE DUP1 DUP5 KECCAK256 PUSH1 0x1 PUSH1 0x1 PUSH1 0xA0 SHL SUB DUP12 AND DUP6 MSTORE PUSH1 0x2 ADD SWAP1 SWAP3 MSTORE SWAP2 KECCAK256 SLOAD PUSH2 0x17D5 JUMP JUMPDEST SWAP9 SWAP8 POP POP POP POP POP POP POP POP JUMP JUMPDEST PUSH1 0x60 DUP4 DUP4 DUP4 PUSH32 0x0 PUSH1 0x1 PUSH1 0x1 PUSH1 0xA0 SHL SUB AND PUSH4 0xD2ADBE79 PUSH1 0x40 MLOAD DUP2 PUSH4 0xFFFFFFFF AND PUSH1 0xE0 SHL DUP2 MSTORE PUSH1 0x4 ADD PUSH1 0x20 PUSH1 0x40 MLOAD DUP1 DUP4 SUB DUP2 DUP7 GAS STATICCALL ISZERO DUP1 ISZERO PUSH2 0x122E JUMPI RETURNDATASIZE PUSH1 0x0 DUP1 RETURNDATACOPY RETURNDATASIZE PUSH1 0x0 REVERT JUMPDEST POP POP POP POP PUSH1 0x40 MLOAD RETURNDATASIZE PUSH1 0x1F NOT PUSH1 0x1F DUP3 ADD AND DUP3 ADD DUP1 PUSH1 0x40 MSTORE POP DUP2 ADD SWAP1 PUSH2 0x1252 SWAP2 SWAP1 PUSH2 0x1C86 JUMP JUMPDEST DUP4 LT PUSH1 0x40 MLOAD DUP1 PUSH1 0x40 ADD PUSH1 0x40 MSTORE DUP1 PUSH1 0x1 DUP2 MSTORE PUSH1 0x20 ADD PUSH1 0x35 PUSH1 0xF8 SHL DUP2 MSTORE POP SWAP1 PUSH2 0x128C JUMPI PUSH1 0x40 MLOAD PUSH3 0x461BCD PUSH1 0xE5 SHL DUP2 MSTORE PUSH1 0x4 ADD PUSH2 0x261 SWAP2 SWAP1 PUSH2 0x1C5A JUMP JUMPDEST POP PUSH1 0x0 DUP4 DUP2 MSTORE PUSH1 0x1 PUSH1 0x20 DUP2 DUP2 MSTORE PUSH1 0x40 SWAP3 DUP4 SWAP1 KECCAK256 SLOAD DUP4 MLOAD DUP1 DUP6 ADD SWAP1 SWAP5 MSTORE SWAP2 DUP4 MSTORE PUSH1 0x1B PUSH1 0xF9 SHL SWAP1 DUP4 ADD MSTORE DUP4 LT PUSH2 0x12D3 JUMPI PUSH1 0x40 MLOAD PUSH3 0x461BCD PUSH1 0xE5 SHL DUP2 MSTORE PUSH1 0x4 ADD PUSH2 0x261 SWAP2 SWAP1 PUSH2 0x1C5A JUMP JUMPDEST POP PUSH1 0x0 DUP4 DUP2 MSTORE PUSH1 0x20 DUP2 DUP2 MSTORE PUSH1 0x40 DUP1 DUP4 KECCAK256 DUP6 DUP5 MSTORE DUP3 MSTORE SWAP2 DUP3 SWAP1 KECCAK256 SLOAD DUP3 MLOAD DUP1 DUP5 ADD SWAP1 SWAP4 MSTORE PUSH1 0x1 DUP4 MSTORE PUSH1 0x37 PUSH1 0xF8 SHL SWAP2 DUP4 ADD SWAP2 SWAP1 SWAP2 MSTORE DUP3 LT PUSH2 0x1324 JUMPI PUSH1 0x40 MLOAD PUSH3 0x461BCD PUSH1 0xE5 SHL DUP2 MSTORE PUSH1 0x4 ADD PUSH2 0x261 SWAP2 SWAP1 PUSH2 0x1C5A JUMP JUMPDEST POP PUSH1 0x0 DUP8 DUP2 MSTORE PUSH1 0x20 DUP2 DUP2 MSTORE PUSH1 0x40 DUP1 DUP4 KECCAK256 DUP10 DUP5 MSTORE SWAP1 SWAP2 MSTORE SWAP1 KECCAK256 PUSH1 0x1 ADD DUP1 SLOAD DUP7 SWAP1 DUP2 LT PUSH2 0x1351 JUMPI PUSH2 0x1351 PUSH2 0x1ED6 JUMP JUMPDEST SWAP1 PUSH1 0x0 MSTORE PUSH1 0x20 PUSH1 0x0 KECCAK256 ADD DUP1 SLOAD PUSH2 0x1366 SWAP1 PUSH2 0x1C9F JUMP JUMPDEST DUP1 PUSH1 0x1F ADD PUSH1 0x20 DUP1 SWAP2 DIV MUL PUSH1 0x20 ADD PUSH1 0x40 MLOAD SWAP1 DUP2 ADD PUSH1 0x40 MSTORE DUP1 SWAP3 SWAP2 SWAP1 DUP2 DUP2 MSTORE PUSH1 0x20 ADD DUP3 DUP1 SLOAD PUSH2 0x1392 SWAP1 PUSH2 0x1C9F JUMP JUMPDEST DUP1 ISZERO PUSH2 0x13DF JUMPI DUP1 PUSH1 0x1F LT PUSH2 0x13B4 JUMPI PUSH2 0x100 DUP1 DUP4 SLOAD DIV MUL DUP4 MSTORE SWAP2 PUSH1 0x20 ADD SWAP2 PUSH2 0x13DF JUMP JUMPDEST DUP3 ADD SWAP2 SWAP1 PUSH1 0x0 MSTORE PUSH1 0x20 PUSH1 0x0 KECCAK256 SWAP1 JUMPDEST DUP2 SLOAD DUP2 MSTORE SWAP1 PUSH1 0x1 ADD SWAP1 PUSH1 0x20 ADD DUP1 DUP4 GT PUSH2 0x13C2 JUMPI DUP3 SWAP1 SUB PUSH1 0x1F AND DUP3 ADD SWAP2 JUMPDEST POP POP POP POP POP SWAP4 POP POP POP POP SWAP4 SWAP3 POP POP POP JUMP JUMPDEST PUSH1 0x0 DUP2 PUSH32 0x0 PUSH1 0x1 PUSH1 0x1 PUSH1 0xA0 SHL SUB AND PUSH4 0xD2ADBE79 PUSH1 0x40 MLOAD DUP2 PUSH4 0xFFFFFFFF AND PUSH1 0xE0 SHL DUP2 MSTORE PUSH1 0x4 ADD PUSH1 0x20 PUSH1 0x40 MLOAD DUP1 DUP4 SUB DUP2 DUP7 GAS STATICCALL ISZERO DUP1 ISZERO PUSH2 0x1451 JUMPI RETURNDATASIZE PUSH1 0x0 DUP1 RETURNDATACOPY RETURNDATASIZE PUSH1 0x0 REVERT JUMPDEST POP POP POP POP PUSH1 0x40 MLOAD RETURNDATASIZE PUSH1 0x1F NOT PUSH1 0x1F DUP3 ADD AND DUP3 ADD DUP1 PUSH1 0x40 MSTORE POP DUP2 ADD SWAP1 PUSH2 0x1475 SWAP2 SWAP1 PUSH2 0x1C86 JUMP JUMPDEST DUP2 LT PUSH1 0x40 MLOAD DUP1 PUSH1 0x40 ADD PUSH1 0x40 MSTORE DUP1 PUSH1 0x1 DUP2 MSTORE PUSH1 0x20 ADD PUSH1 0x35 PUSH1 0xF8 SHL DUP2 MSTORE POP SWAP1 PUSH2 0x14AF JUMPI PUSH1 0x40 MLOAD PUSH3 0x461BCD PUSH1 0xE5 SHL DUP2 MSTORE PUSH1 0x4 ADD PUSH2 0x261 SWAP2 SWAP1 PUSH2 0x1C5A JUMP JUMPDEST POP PUSH1 0x0 DUP4 DUP2 MSTORE PUSH1 0x1 PUSH1 0x20 MSTORE PUSH1 0x40 SWAP1 KECCAK256 SLOAD SWAP2 POP JUMPDEST POP SWAP2 SWAP1 POP JUMP JUMPDEST DUP1 MLOAD DUP3 MLOAD EQ PUSH1 0x40 MLOAD DUP1 PUSH1 0x40 ADD PUSH1 0x40 MSTORE DUP1 PUSH1 0x2 DUP2 MSTORE PUSH1 0x20 ADD PUSH2 0x3137 PUSH1 0xF0 SHL DUP2 MSTORE POP SWAP1 PUSH2 0x1506 JUMPI PUSH1 0x40 MLOAD PUSH3 0x461BCD PUSH1 0xE5 SHL DUP2 MSTORE PUSH1 0x4 ADD PUSH2 0x261 SWAP2 SWAP1 PUSH2 0x1C5A JUMP JUMPDEST POP PUSH1 0x0 JUMPDEST DUP3 MLOAD DUP2 LT ISZERO PUSH2 0x157C JUMPI PUSH1 0x0 DUP4 DUP3 DUP2 MLOAD DUP2 LT PUSH2 0x1527 JUMPI PUSH2 0x1527 PUSH2 0x1ED6 JUMP JUMPDEST PUSH1 0x20 MUL PUSH1 0x20 ADD ADD MLOAD GT PUSH1 0x40 MLOAD DUP1 PUSH1 0x40 ADD PUSH1 0x40 MSTORE DUP1 PUSH1 0x2 DUP2 MSTORE PUSH1 0x20 ADD PUSH2 0x323 PUSH1 0xF4 SHL DUP2 MSTORE POP SWAP1 PUSH2 0x1569 JUMPI PUSH1 0x40 MLOAD PUSH3 0x461BCD PUSH1 0xE5 SHL DUP2 MSTORE PUSH1 0x4 ADD PUSH2 0x261 SWAP2 SWAP1 PUSH2 0x1C5A JUMP JUMPDEST POP DUP1 PUSH2 0x1574 DUP2 PUSH2 0x1DFD JUMP JUMPDEST SWAP2 POP POP PUSH2 0x150A JUMP JUMPDEST POP PUSH1 0x0 DUP5 DUP2 MSTORE PUSH1 0x20 DUP2 DUP2 MSTORE PUSH1 0x40 DUP1 DUP4 KECCAK256 DUP7 DUP5 MSTORE DUP3 MSTORE SWAP1 SWAP2 KECCAK256 DUP4 MLOAD PUSH2 0x15A2 SWAP3 DUP6 ADD SWAP1 PUSH2 0x17EA JUMP JUMPDEST POP PUSH1 0x0 DUP5 DUP2 MSTORE PUSH1 0x20 DUP2 DUP2 MSTORE PUSH1 0x40 DUP1 DUP4 KECCAK256 DUP7 DUP5 MSTORE DUP3 MSTORE SWAP1 SWAP2 KECCAK256 DUP3 MLOAD PUSH2 0x15CE SWAP3 PUSH1 0x1 SWAP1 SWAP3 ADD SWAP2 DUP5 ADD SWAP1 PUSH2 0x1835 JUMP JUMPDEST POP POP POP POP POP JUMP JUMPDEST DUP1 MLOAD DUP3 MLOAD EQ PUSH1 0x40 MLOAD DUP1 PUSH1 0x40 ADD PUSH1 0x40 MSTORE DUP1 PUSH1 0x2 DUP2 MSTORE PUSH1 0x20 ADD PUSH2 0x3137 PUSH1 0xF0 SHL DUP2 MSTORE POP SWAP1 PUSH2 0x1613 JUMPI PUSH1 0x40 MLOAD PUSH3 0x461BCD PUSH1 0xE5 SHL DUP2 MSTORE PUSH1 0x4 ADD PUSH2 0x261 SWAP2 SWAP1 PUSH2 0x1C5A JUMP JUMPDEST POP PUSH1 0x0 JUMPDEST DUP2 MLOAD DUP2 LT ISZERO PUSH2 0x15CE JUMPI DUP2 DUP2 DUP2 MLOAD DUP2 LT PUSH2 0x1632 JUMPI PUSH2 0x1632 PUSH2 0x1ED6 JUMP JUMPDEST PUSH1 0x20 MUL PUSH1 0x20 ADD ADD MLOAD PUSH1 0x0 DUP1 DUP8 DUP2 MSTORE PUSH1 0x20 ADD SWAP1 DUP2 MSTORE PUSH1 0x20 ADD PUSH1 0x0 KECCAK256 PUSH1 0x0 DUP7 DUP2 MSTORE PUSH1 0x20 ADD SWAP1 DUP2 MSTORE PUSH1 0x20 ADD PUSH1 0x0 KECCAK256 PUSH1 0x2 ADD PUSH1 0x0 DUP6 DUP5 DUP2 MLOAD DUP2 LT PUSH2 0x1674 JUMPI PUSH2 0x1674 PUSH2 0x1ED6 JUMP JUMPDEST PUSH1 0x20 MUL PUSH1 0x20 ADD ADD MLOAD PUSH1 0x1 PUSH1 0x1 PUSH1 0xA0 SHL SUB AND PUSH1 0x1 PUSH1 0x1 PUSH1 0xA0 SHL SUB AND DUP2 MSTORE PUSH1 0x20 ADD SWAP1 DUP2 MSTORE PUSH1 0x20 ADD PUSH1 0x0 KECCAK256 DUP2 SWAP1 SSTORE POP DUP2 DUP2 DUP2 MLOAD DUP2 LT PUSH2 0x16B2 JUMPI PUSH2 0x16B2 PUSH2 0x1ED6 JUMP JUMPDEST PUSH1 0x20 MUL PUSH1 0x20 ADD ADD MLOAD PUSH1 0x0 SUB PUSH2 0x1734 JUMPI PUSH32 0x75E18E98A43452151E246D6A6F003AC6E9CFA9FEA7F9397FA8D9755F23FA6E93 DUP6 DUP6 DUP6 DUP5 DUP2 MLOAD DUP2 LT PUSH2 0x16F6 JUMPI PUSH2 0x16F6 PUSH2 0x1ED6 JUMP JUMPDEST PUSH1 0x20 MUL PUSH1 0x20 ADD ADD MLOAD PUSH1 0x40 MLOAD PUSH2 0x1727 SWAP4 SWAP3 SWAP2 SWAP1 SWAP3 DUP4 MSTORE PUSH1 0x20 DUP4 ADD SWAP2 SWAP1 SWAP2 MSTORE PUSH1 0x1 PUSH1 0x1 PUSH1 0xA0 SHL SUB AND PUSH1 0x40 DUP3 ADD MSTORE PUSH1 0x60 ADD SWAP1 JUMP JUMPDEST PUSH1 0x40 MLOAD DUP1 SWAP2 SUB SWAP1 LOG1 PUSH2 0x17C3 JUMP JUMPDEST PUSH32 0xA65AB5DCD7410441B6568BCB398BE478DD97403AC09D181F7D1A84806D75F164 DUP6 DUP6 DUP6 DUP5 DUP2 MLOAD DUP2 LT PUSH2 0x1769 JUMPI PUSH2 0x1769 PUSH2 0x1ED6 JUMP JUMPDEST PUSH1 0x20 MUL PUSH1 0x20 ADD ADD MLOAD DUP6 DUP6 DUP2 MLOAD DUP2 LT PUSH2 0x1783 JUMPI PUSH2 0x1783 PUSH2 0x1ED6 JUMP JUMPDEST PUSH1 0x20 MUL PUSH1 0x20 ADD ADD MLOAD PUSH1 0x40 MLOAD PUSH2 0x17BA SWAP5 SWAP4 SWAP3 SWAP2 SWAP1 SWAP4 DUP5 MSTORE PUSH1 0x20 DUP5 ADD SWAP3 SWAP1 SWAP3 MSTORE PUSH1 0x1 PUSH1 0x1 PUSH1 0xA0 SHL SUB AND PUSH1 0x40 DUP4 ADD MSTORE PUSH1 0x60 DUP3 ADD MSTORE PUSH1 0x80 ADD SWAP1 JUMP JUMPDEST PUSH1 0x40 MLOAD DUP1 SWAP2 SUB SWAP1 LOG1 JUMPDEST DUP1 PUSH2 0x17CD DUP2 PUSH2 0x1DFD JUMP JUMPDEST SWAP2 POP POP PUSH2 0x1617 JUMP JUMPDEST PUSH1 0x0 PUSH2 0x17E1 DUP3 DUP5 PUSH2 0x1EEC JUMP JUMPDEST SWAP1 POP JUMPDEST SWAP3 SWAP2 POP POP JUMP JUMPDEST DUP3 DUP1 SLOAD DUP3 DUP3 SSTORE SWAP1 PUSH1 0x0 MSTORE PUSH1 0x20 PUSH1 0x0 KECCAK256 SWAP1 DUP2 ADD SWAP3 DUP3 ISZERO PUSH2 0x1825 JUMPI SWAP2 PUSH1 0x20 MUL DUP3 ADD JUMPDEST DUP3 DUP2 GT ISZERO PUSH2 0x1825 JUMPI DUP3 MLOAD DUP3 SSTORE SWAP2 PUSH1 0x20 ADD SWAP2 SWAP1 PUSH1 0x1 ADD SWAP1 PUSH2 0x180A JUMP JUMPDEST POP PUSH2 0x1831 SWAP3 SWAP2 POP PUSH2 0x1887 JUMP JUMPDEST POP SWAP1 JUMP JUMPDEST DUP3 DUP1 SLOAD DUP3 DUP3 SSTORE SWAP1 PUSH1 0x0 MSTORE PUSH1 0x20 PUSH1 0x0 KECCAK256 SWAP1 DUP2 ADD SWAP3 DUP3 ISZERO PUSH2 0x187B JUMPI SWAP2 PUSH1 0x20 MUL DUP3 ADD JUMPDEST DUP3 DUP2 GT ISZERO PUSH2 0x187B JUMPI DUP3 MLOAD DUP3 SWAP1 PUSH2 0x186B SWAP1 DUP3 PUSH2 0x1F52 JUMP JUMPDEST POP SWAP2 PUSH1 0x20 ADD SWAP2 SWAP1 PUSH1 0x1 ADD SWAP1 PUSH2 0x1855 JUMP JUMPDEST POP PUSH2 0x1831 SWAP3 SWAP2 POP PUSH2 0x189C JUMP JUMPDEST JUMPDEST DUP1 DUP3 GT ISZERO PUSH2 0x1831 JUMPI PUSH1 0x0 DUP2 SSTORE PUSH1 0x1 ADD PUSH2 0x1888 JUMP JUMPDEST DUP1 DUP3 GT ISZERO PUSH2 0x1831 JUMPI PUSH1 0x0 PUSH2 0x18B0 DUP3 DUP3 PUSH2 0x18B9 JUMP JUMPDEST POP PUSH1 0x1 ADD PUSH2 0x189C JUMP JUMPDEST POP DUP1 SLOAD PUSH2 0x18C5 SWAP1 PUSH2 0x1C9F JUMP JUMPDEST PUSH1 0x0 DUP3 SSTORE DUP1 PUSH1 0x1F LT PUSH2 0x18D5 JUMPI POP POP JUMP JUMPDEST PUSH1 0x1F ADD PUSH1 0x20 SWAP1 DIV SWAP1 PUSH1 0x0 MSTORE PUSH1 0x20 PUSH1 0x0 KECCAK256 SWAP1 DUP2 ADD SWAP1 PUSH2 0x18F3 SWAP2 SWAP1 PUSH2 0x1887 JUMP JUMPDEST POP JUMP JUMPDEST PUSH1 0x1 PUSH1 0x1 PUSH1 0xA0 SHL SUB DUP2 AND DUP2 EQ PUSH2 0x18F3 JUMPI PUSH1 0x0 DUP1 REVERT JUMPDEST PUSH1 0x0 DUP1 PUSH1 0x0 PUSH1 0x60 DUP5 DUP7 SUB SLT ISZERO PUSH2 0x1920 JUMPI PUSH1 0x0 DUP1 REVERT JUMPDEST DUP4 CALLDATALOAD SWAP3 POP PUSH1 0x20 DUP5 ADD CALLDATALOAD SWAP2 POP PUSH1 0x40 DUP5 ADD CALLDATALOAD PUSH2 0x1939 DUP2 PUSH2 0x18F6 JUMP JUMPDEST DUP1 SWAP2 POP POP SWAP3 POP SWAP3 POP SWAP3 JUMP JUMPDEST PUSH1 0x0 DUP1 PUSH1 0x40 DUP4 DUP6 SUB SLT ISZERO PUSH2 0x1957 JUMPI PUSH1 0x0 DUP1 REVERT JUMPDEST POP POP DUP1 CALLDATALOAD SWAP3 PUSH1 0x20 SWAP1 SWAP2 ADD CALLDATALOAD SWAP2 POP JUMP JUMPDEST PUSH1 0x0 JUMPDEST DUP4 DUP2 LT ISZERO PUSH2 0x1981 JUMPI DUP2 DUP2 ADD MLOAD DUP4 DUP3 ADD MSTORE PUSH1 0x20 ADD PUSH2 0x1969 JUMP JUMPDEST POP POP PUSH1 0x0 SWAP2 ADD MSTORE JUMP JUMPDEST PUSH1 0x0 DUP2 MLOAD DUP1 DUP5 MSTORE PUSH2 0x19A2 DUP2 PUSH1 0x20 DUP7 ADD PUSH1 0x20 DUP7 ADD PUSH2 0x1966 JUMP JUMPDEST PUSH1 0x1F ADD PUSH1 0x1F NOT AND SWAP3 SWAP1 SWAP3 ADD PUSH1 0x20 ADD SWAP3 SWAP2 POP POP JUMP JUMPDEST PUSH1 0x40 DUP1 DUP3 MSTORE DUP4 MLOAD SWAP1 DUP3 ADD DUP2 SWAP1 MSTORE PUSH1 0x0 SWAP1 PUSH1 0x20 SWAP1 PUSH1 0x60 DUP5 ADD SWAP1 DUP3 DUP8 ADD DUP5 JUMPDEST DUP3 DUP2 LT ISZERO PUSH2 0x19EF JUMPI DUP2 MLOAD DUP5 MSTORE SWAP3 DUP5 ADD SWAP3 SWAP1 DUP5 ADD SWAP1 PUSH1 0x1 ADD PUSH2 0x19D3 JUMP JUMPDEST POP POP POP DUP4 DUP2 SUB DUP3 DUP6 ADD MSTORE DUP5 MLOAD DUP1 DUP3 MSTORE DUP3 DUP3 ADD SWAP1 PUSH1 0x5 DUP2 SWAP1 SHL DUP4 ADD DUP5 ADD DUP8 DUP6 ADD PUSH1 0x0 JUMPDEST DUP4 DUP2 LT ISZERO PUSH2 0x1A3F JUMPI PUSH1 0x1F NOT DUP7 DUP5 SUB ADD DUP6 MSTORE PUSH2 0x1A2D DUP4 DUP4 MLOAD PUSH2 0x198A JUMP JUMPDEST SWAP5 DUP8 ADD SWAP5 SWAP3 POP SWAP1 DUP7 ADD SWAP1 PUSH1 0x1 ADD PUSH2 0x1A11 JUMP JUMPDEST POP SWAP1 SWAP10 SWAP9 POP POP POP POP POP POP POP POP POP JUMP JUMPDEST PUSH1 0x0 DUP1 DUP4 PUSH1 0x1F DUP5 ADD SLT PUSH2 0x1A60 JUMPI PUSH1 0x0 DUP1 REVERT JUMPDEST POP DUP2 CALLDATALOAD PUSH8 0xFFFFFFFFFFFFFFFF DUP2 GT ISZERO PUSH2 0x1A78 JUMPI PUSH1 0x0 DUP1 REVERT JUMPDEST PUSH1 0x20 DUP4 ADD SWAP2 POP DUP4 PUSH1 0x20 DUP3 PUSH1 0x5 SHL DUP6 ADD ADD GT ISZERO PUSH2 0x1A93 JUMPI PUSH1 0x0 DUP1 REVERT JUMPDEST SWAP3 POP SWAP3 SWAP1 POP JUMP JUMPDEST PUSH1 0x0 DUP1 PUSH1 0x0 DUP1 PUSH1 0x0 DUP1 PUSH1 0x0 DUP1 PUSH1 0x0 PUSH1 0xA0 DUP11 DUP13 SUB SLT ISZERO PUSH2 0x1AB8 JUMPI PUSH1 0x0 DUP1 REVERT JUMPDEST DUP10 CALLDATALOAD SWAP9 POP PUSH1 0x20 DUP11 ADD CALLDATALOAD PUSH8 0xFFFFFFFFFFFFFFFF DUP1 DUP3 GT ISZERO PUSH2 0x1AD7 JUMPI PUSH1 0x0 DUP1 REVERT JUMPDEST PUSH2 0x1AE3 DUP14 DUP4 DUP15 ADD PUSH2 0x1A4E JUMP JUMPDEST SWAP1 SWAP11 POP SWAP9 POP PUSH1 0x40 DUP13 ADD CALLDATALOAD SWAP2 POP DUP1 DUP3 GT ISZERO PUSH2 0x1AFC JUMPI PUSH1 0x0 DUP1 REVERT JUMPDEST PUSH2 0x1B08 DUP14 DUP4 DUP15 ADD PUSH2 0x1A4E JUMP JUMPDEST SWAP1 SWAP9 POP SWAP7 POP PUSH1 0x60 DUP13 ADD CALLDATALOAD SWAP2 POP DUP1 DUP3 GT ISZERO PUSH2 0x1B21 JUMPI PUSH1 0x0 DUP1 REVERT JUMPDEST PUSH2 0x1B2D DUP14 DUP4 DUP15 ADD PUSH2 0x1A4E JUMP JUMPDEST SWAP1 SWAP7 POP SWAP5 POP PUSH1 0x80 DUP13 ADD CALLDATALOAD SWAP2 POP DUP1 DUP3 GT ISZERO PUSH2 0x1B46 JUMPI PUSH1 0x0 DUP1 REVERT JUMPDEST POP PUSH2 0x1B53 DUP13 DUP3 DUP14 ADD PUSH2 0x1A4E JUMP JUMPDEST SWAP2 POP DUP1 SWAP4 POP POP DUP1 SWAP2 POP POP SWAP3 SWAP6 SWAP9 POP SWAP3 SWAP6 SWAP9 POP SWAP3 SWAP6 SWAP9 JUMP JUMPDEST PUSH1 0x0 DUP1 PUSH1 0x0 DUP1 PUSH1 0x0 DUP1 PUSH1 0x80 DUP8 DUP10 SUB SLT ISZERO PUSH2 0x1B83 JUMPI PUSH1 0x0 DUP1 REVERT JUMPDEST DUP7 CALLDATALOAD SWAP6 POP PUSH1 0x20 DUP8 ADD CALLDATALOAD SWAP5 POP PUSH1 0x40 DUP8 ADD CALLDATALOAD PUSH8 0xFFFFFFFFFFFFFFFF DUP1 DUP3 GT ISZERO PUSH2 0x1BA9 JUMPI PUSH1 0x0 DUP1 REVERT JUMPDEST PUSH2 0x1BB5 DUP11 DUP4 DUP12 ADD PUSH2 0x1A4E JUMP JUMPDEST SWAP1 SWAP7 POP SWAP5 POP PUSH1 0x60 DUP10 ADD CALLDATALOAD SWAP2 POP DUP1 DUP3 GT ISZERO PUSH2 0x1BCE JUMPI PUSH1 0x0 DUP1 REVERT JUMPDEST POP PUSH2 0x1BDB DUP10 DUP3 DUP11 ADD PUSH2 0x1A4E JUMP JUMPDEST SWAP8 SWAP11 SWAP7 SWAP10 POP SWAP5 SWAP8 POP SWAP3 SWAP6 SWAP4 SWAP5 SWAP3 POP POP POP JUMP JUMPDEST PUSH1 0x0 DUP1 PUSH1 0x0 DUP1 PUSH1 0x80 DUP6 DUP8 SUB SLT ISZERO PUSH2 0x1C03 JUMPI PUSH1 0x0 DUP1 REVERT JUMPDEST DUP5 CALLDATALOAD SWAP4 POP PUSH1 0x20 DUP6 ADD CALLDATALOAD SWAP3 POP PUSH1 0x40 DUP6 ADD CALLDATALOAD SWAP2 POP PUSH1 0x60 DUP6 ADD CALLDATALOAD PUSH2 0x1C23 DUP2 PUSH2 0x18F6 JUMP JUMPDEST SWAP4 SWAP7 SWAP3 SWAP6 POP SWAP1 SWAP4 POP POP JUMP JUMPDEST PUSH1 0x0 DUP1 PUSH1 0x0 PUSH1 0x60 DUP5 DUP7 SUB SLT ISZERO PUSH2 0x1C43 JUMPI PUSH1 0x0 DUP1 REVERT JUMPDEST POP POP DUP2 CALLDATALOAD SWAP4 PUSH1 0x20 DUP4 ADD CALLDATALOAD SWAP4 POP PUSH1 0x40 SWAP1 SWAP3 ADD CALLDATALOAD SWAP2 SWAP1 POP JUMP JUMPDEST PUSH1 0x20 DUP2 MSTORE PUSH1 0x0 PUSH2 0x17E1 PUSH1 0x20 DUP4 ADD DUP5 PUSH2 0x198A JUMP JUMPDEST PUSH1 0x0 PUSH1 0x20 DUP3 DUP5 SUB SLT ISZERO PUSH2 0x1C7F JUMPI PUSH1 0x0 DUP1 REVERT JUMPDEST POP CALLDATALOAD SWAP2 SWAP1 POP JUMP JUMPDEST PUSH1 0x0 PUSH1 0x20 DUP3 DUP5 SUB SLT ISZERO PUSH2 0x1C98 JUMPI PUSH1 0x0 DUP1 REVERT JUMPDEST POP MLOAD SWAP2 SWAP1 POP JUMP JUMPDEST PUSH1 0x1 DUP2 DUP2 SHR SWAP1 DUP3 AND DUP1 PUSH2 0x1CB3 JUMPI PUSH1 0x7F DUP3 AND SWAP2 POP JUMPDEST PUSH1 0x20 DUP3 LT DUP2 SUB PUSH2 0x14C2 JUMPI PUSH4 0x4E487B71 PUSH1 0xE0 SHL PUSH1 0x0 MSTORE PUSH1 0x22 PUSH1 0x4 MSTORE PUSH1 0x24 PUSH1 0x0 REVERT JUMPDEST PUSH4 0x4E487B71 PUSH1 0xE0 SHL PUSH1 0x0 MSTORE PUSH1 0x41 PUSH1 0x4 MSTORE PUSH1 0x24 PUSH1 0x0 REVERT JUMPDEST PUSH1 0x40 MLOAD PUSH1 0x1F DUP3 ADD PUSH1 0x1F NOT AND DUP2 ADD PUSH8 0xFFFFFFFFFFFFFFFF DUP2 GT DUP3 DUP3 LT OR ISZERO PUSH2 0x1D12 JUMPI PUSH2 0x1D12 PUSH2 0x1CD3 JUMP JUMPDEST PUSH1 0x40 MSTORE SWAP2 SWAP1 POP JUMP JUMPDEST PUSH1 0x0 PUSH8 0xFFFFFFFFFFFFFFFF DUP3 GT ISZERO PUSH2 0x1D34 JUMPI PUSH2 0x1D34 PUSH2 0x1CD3 JUMP JUMPDEST POP PUSH1 0x1F ADD PUSH1 0x1F NOT AND PUSH1 0x20 ADD SWAP1 JUMP JUMPDEST PUSH1 0x0 DUP1 PUSH1 0x0 PUSH1 0x60 DUP5 DUP7 SUB SLT ISZERO PUSH2 0x1D57 JUMPI PUSH1 0x0 DUP1 REVERT JUMPDEST DUP4 MLOAD PUSH2 0x1D62 DUP2 PUSH2 0x18F6 JUMP JUMPDEST PUSH1 0x20 DUP6 ADD MLOAD SWAP1 SWAP4 POP PUSH2 0x1D73 DUP2 PUSH2 0x18F6 JUMP JUMPDEST PUSH1 0x40 DUP6 ADD MLOAD SWAP1 SWAP3 POP PUSH8 0xFFFFFFFFFFFFFFFF DUP2 GT ISZERO PUSH2 0x1D90 JUMPI PUSH1 0x0 DUP1 REVERT JUMPDEST DUP5 ADD PUSH1 0x1F DUP2 ADD DUP7 SGT PUSH2 0x1DA1 JUMPI PUSH1 0x0 DUP1 REVERT JUMPDEST DUP1 MLOAD PUSH2 0x1DB4 PUSH2 0x1DAF DUP3 PUSH2 0x1D1A JUMP JUMPDEST PUSH2 0x1CE9 JUMP JUMPDEST DUP2 DUP2 MSTORE DUP8 PUSH1 0x20 DUP4 DUP6 ADD ADD GT ISZERO PUSH2 0x1DC9 JUMPI PUSH1 0x0 DUP1 REVERT JUMPDEST PUSH2 0x1DDA DUP3 PUSH1 0x20 DUP4 ADD PUSH1 0x20 DUP7 ADD PUSH2 0x1966 JUMP JUMPDEST DUP1 SWAP4 POP POP POP POP SWAP3 POP SWAP3 POP SWAP3 JUMP JUMPDEST PUSH4 0x4E487B71 PUSH1 0xE0 SHL PUSH1 0x0 MSTORE PUSH1 0x11 PUSH1 0x4 MSTORE PUSH1 0x24 PUSH1 0x0 REVERT JUMPDEST PUSH1 0x0 PUSH1 0x1 DUP3 ADD PUSH2 0x1E0F JUMPI PUSH2 0x1E0F PUSH2 0x1DE7 JUMP JUMPDEST POP PUSH1 0x1 ADD SWAP1 JUMP JUMPDEST PUSH1 0x0 PUSH8 0xFFFFFFFFFFFFFFFF DUP1 DUP5 GT ISZERO PUSH2 0x1E31 JUMPI PUSH2 0x1E31 PUSH2 0x1CD3 JUMP JUMPDEST DUP4 PUSH1 0x5 SHL PUSH1 0x20 PUSH2 0x1E42 DUP2 DUP4 ADD PUSH2 0x1CE9 JUMP JUMPDEST DUP7 DUP2 MSTORE SWAP2 DUP6 ADD SWAP2 DUP2 DUP2 ADD SWAP1 CALLDATASIZE DUP5 GT ISZERO PUSH2 0x1E5A JUMPI PUSH1 0x0 DUP1 REVERT JUMPDEST DUP7 JUMPDEST DUP5 DUP2 LT ISZERO PUSH2 0x1ECA JUMPI DUP1 CALLDATALOAD DUP7 DUP2 GT ISZERO PUSH2 0x1E74 JUMPI PUSH1 0x0 DUP1 DUP2 REVERT JUMPDEST DUP9 ADD CALLDATASIZE PUSH1 0x1F DUP3 ADD SLT PUSH2 0x1E86 JUMPI PUSH1 0x0 DUP1 DUP2 REVERT JUMPDEST DUP1 CALLDATALOAD PUSH2 0x1E94 PUSH2 0x1DAF DUP3 PUSH2 0x1D1A JUMP JUMPDEST DUP2 DUP2 MSTORE CALLDATASIZE DUP8 DUP4 DUP6 ADD ADD GT ISZERO PUSH2 0x1EA9 JUMPI PUSH1 0x0 DUP1 DUP2 REVERT JUMPDEST DUP2 DUP8 DUP5 ADD DUP9 DUP4 ADD CALLDATACOPY PUSH1 0x0 SWAP2 DUP2 ADD DUP8 ADD SWAP2 SWAP1 SWAP2 MSTORE DUP5 MSTORE POP SWAP2 DUP4 ADD SWAP2 DUP4 ADD PUSH2 0x1E5C JUMP JUMPDEST POP SWAP8 SWAP7 POP POP POP POP POP POP POP JUMP JUMPDEST PUSH4 0x4E487B71 PUSH1 0xE0 SHL PUSH1 0x0 MSTORE PUSH1 0x32 PUSH1 0x4 MSTORE PUSH1 0x24 PUSH1 0x0 REVERT JUMPDEST DUP1 DUP3 MUL DUP2 ISZERO DUP3 DUP3 DIV DUP5 EQ OR PUSH2 0x17E4 JUMPI PUSH2 0x17E4 PUSH2 0x1DE7 JUMP JUMPDEST PUSH1 0x1F DUP3 GT ISZERO PUSH2 0x1F4D JUMPI PUSH1 0x0 DUP2 DUP2 MSTORE PUSH1 0x20 DUP2 KECCAK256 PUSH1 0x1F DUP6 ADD PUSH1 0x5 SHR DUP2 ADD PUSH1 0x20 DUP7 LT ISZERO PUSH2 0x1F2A JUMPI POP DUP1 JUMPDEST PUSH1 0x1F DUP6 ADD PUSH1 0x5 SHR DUP3 ADD SWAP2 POP JUMPDEST DUP2 DUP2 LT ISZERO PUSH2 0x1F49 JUMPI DUP3 DUP2 SSTORE PUSH1 0x1 ADD PUSH2 0x1F36 JUMP JUMPDEST POP POP POP JUMPDEST POP POP POP JUMP JUMPDEST DUP2 MLOAD PUSH8 0xFFFFFFFFFFFFFFFF DUP2 GT ISZERO PUSH2 0x1F6C JUMPI PUSH2 0x1F6C PUSH2 0x1CD3 JUMP JUMPDEST PUSH2 0x1F80 DUP2 PUSH2 0x1F7A DUP5 SLOAD PUSH2 0x1C9F JUMP JUMPDEST DUP5 PUSH2 0x1F03 JUMP JUMPDEST PUSH1 0x20 DUP1 PUSH1 0x1F DUP4 GT PUSH1 0x1 DUP2 EQ PUSH2 0x1FB5 JUMPI PUSH1 0x0 DUP5 ISZERO PUSH2 0x1F9D JUMPI POP DUP6 DUP4 ADD MLOAD JUMPDEST PUSH1 0x0 NOT PUSH1 0x3 DUP7 SWAP1 SHL SHR NOT AND PUSH1 0x1 DUP6 SWAP1 SHL OR DUP6 SSTORE PUSH2 0x1F49 JUMP JUMPDEST PUSH1 0x0 DUP6 DUP2 MSTORE PUSH1 0x20 DUP2 KECCAK256 PUSH1 0x1F NOT DUP7 AND SWAP2 JUMPDEST DUP3 DUP2 LT ISZERO PUSH2 0x1FE4 JUMPI DUP9 DUP7 ADD MLOAD DUP3 SSTORE SWAP5 DUP5 ADD SWAP5 PUSH1 0x1 SWAP1 SWAP2 ADD SWAP1 DUP5 ADD PUSH2 0x1FC5 JUMP JUMPDEST POP DUP6 DUP3 LT ISZERO PUSH2 0x2002 JUMPI DUP8 DUP6 ADD MLOAD PUSH1 0x0 NOT PUSH1 0x3 DUP9 SWAP1 SHL PUSH1 0xF8 AND SHR NOT AND DUP2 SSTORE JUMPDEST POP POP POP POP POP PUSH1 0x1 SWAP1 DUP2 SHL ADD SWAP1 SSTORE POP JUMP INVALID LOG2 PUSH5 0x6970667358 0x22 SLT KECCAK256 0xC9 0xE9 PUSH2 0x542 0xBC PUSH2 0x6DBB SWAP8 PUSH29 0xD4245FB3735319B7FEA00D2CAF06993F9F7E9E7CDB64736F6C63430008 GT STOP CALLER ",
  "sha1": "deffd72fa9181f6e29c0ab9d6e144852ab880857",
  "source": "// SPDX-License-Identifier: MIT\npragma solidity ^0.8.17;\n\nimport \"./BBErrorsV01.sol\";\nimport \"./interfaces/IBBProfiles.sol\";\nimport \"./interfaces/IBBTiers.sol\";\n\ncontract BBTiers is IBBTiers {   \n    event NewTierSet (\n        uint256 profileId,\n        uint256 tierSetId\n    );\n\n    event EditTierSet (\n        uint256 profileId,\n        uint256 tierSetId\n    );\n\n    event SupportedCurrencyAdded(\n        uint256 profileId,\n        uint256 tierSetId,\n        address currency,\n        uint256 priceMultiplier\n    );\n\n    event SupportedCurrencyRemoved(\n        uint256 profileId,\n        uint256 tierSetId,\n        address currency\n    );\n    \n    struct TierSet {\n        uint256[] prices;\n        string[] cids;\n        mapping(address => uint256) supportedCurrencies;\n    }\n\n    // Profile ID -> Tier set ID -> Tier ID\n    mapping(uint256 => mapping(uint256 => TierSet)) internal _tierSets; \n    // Profile Id -> Total tier sets\n    mapping(uint256 => uint256) internal _totalTierSets;\n\n    IBBProfiles internal immutable _bbProfiles;\n\n    constructor(address bbProfiles) {\n        _bbProfiles = IBBProfiles(bbProfiles);\n    }\n\n    /*\n        @dev Reverts if msg.sender is not profile IDs owner\n    */\n    modifier onlyProfileOwner(uint256 profileId) {\n        (address profileOwner,,) = _bbProfiles.getProfile(profileId);\n        require(profileOwner == msg.sender, BBErrorCodesV01.NOT_OWNER);\n        _;\n    }\n\n    /*\n        @dev Reverts if profile ID does not exist\n    */\n    modifier profileExists(uint256 profileId) {\n        require(profileId < _bbProfiles.totalProfiles(), BBErrorCodesV01.PROFILE_NOT_EXIST);\n        _;\n    }\n\n    /*\n        @dev Reverts if tier set ID does not exist\n    */\n    modifier tierSetExists(uint256 profileId, uint256 tierSetId) {\n        require(profileId < _bbProfiles.totalProfiles(), BBErrorCodesV01.PROFILE_NOT_EXIST);\n        require(tierSetId < _totalTierSets[profileId], BBErrorCodesV01.TIER_SET_NOT_EXIST);\n        _;\n    }\n\n    /*\n        @dev Reverts if tier ID does not exist\n    */\n    modifier tierExists(uint256 profileId, uint256 tierSetId, uint256 tierId) {\n        require(profileId < _bbProfiles.totalProfiles(), BBErrorCodesV01.PROFILE_NOT_EXIST);\n        require(tierSetId < _totalTierSets[profileId], BBErrorCodesV01.TIER_SET_NOT_EXIST);\n        require(tierId < _tierSets[profileId][tierSetId].prices.length, BBErrorCodesV01.TIER_NOT_EXIST);\n        _;\n    }\n\n    /*\n        @notice Creates a new tier set\n\n        @param Profile ID\n        @param Tier set prices\n        @param Tier set CIDs\n        @param Supported ERC20 tokens\n        @param Supported tokens multipliers\n\n        @return Instantiated tier sets ID\n    */\n    function createTiers(uint256 profileId, uint256[] calldata prices, string[] calldata cids, address[] calldata supportedCurrencies, uint256[] calldata priceMultipliers) external profileExists(profileId) onlyProfileOwner(profileId) returns(uint256 tierSetId) {\n        tierSetId = _totalTierSets[profileId];\n\n        // Increment profiles total tier sets\n        _totalTierSets[profileId]++;\n        \n        _setTiers(profileId, tierSetId, prices, cids);\n        _setSupportedCurrencies(profileId, tierSetId, supportedCurrencies, priceMultipliers);\n    \n        emit NewTierSet(profileId, tierSetId);\n    }\n\n    /*\n        @notice Set an existing tier sets variables\n\n        @param Profile ID\n        @param Tier set ID\n        @param Tier set prices\n        @param Tier set CIDs\n    */\n    function editTiers(uint256 profileId, uint256 tierSetId, uint256[] calldata prices, string[] calldata cids) external override tierSetExists(profileId, tierSetId) onlyProfileOwner(profileId) {\n        _setTiers(profileId, tierSetId, prices, cids);\n        \n        emit EditTierSet(profileId, tierSetId);\n    }\n\n    /*\n        @dev Perform input checks then set existing tier set variables\n\n        @param Profile ID\n        @param Tier set ID\n        @param Tier set prices\n        @param Tier set CIDs\n    */\n    function _setTiers(uint256 profileId, uint256 tierSetId, uint256[] memory prices, string[] memory cids) internal {\n        require(prices.length == cids.length, BBErrorCodesV01.INVALID_LENGTH);\n\n        // Check tier prices are greater than zero\n        for(uint256 i; i < prices.length; i++) {\n            require(prices[i] > 0, BBErrorCodesV01.INVALID_PRICE);\n        }\n\n        _tierSets[profileId][tierSetId].prices = prices;\n        _tierSets[profileId][tierSetId].cids = cids;\n    }\n\n    /*\n        @notice Set supported ERC20 tokens for payments, a price multiplier greater than zero adds support for a token, and a price multiplier of zero removes it\n\n        @param Profile ID\n        @param Tier set ID\n        @param Supported ERC20 tokens\n        @param Supported tokens multipliers\n    */\n    function setSupportedCurrencies(uint256 profileId, uint256 tierSetId, address[] calldata supportedCurrencies, uint256[] calldata priceMultipliers) external override tierSetExists(profileId, tierSetId) onlyProfileOwner(profileId) {\n        _setSupportedCurrencies(profileId, tierSetId, supportedCurrencies, priceMultipliers);\n    }\n\n    /*\n        @dev Set supported ERC20 tokens for payments\n\n        @param Profile ID\n        @param Tier set ID\n        @param Supported ERC20 tokens\n        @param Supported tokens multipliers\n    */\n    function _setSupportedCurrencies(uint256 profileId, uint256 tierSetId, address[] memory supportedCurrencies, uint256[] memory priceMultipliers) internal {\n        require(supportedCurrencies.length == priceMultipliers.length, BBErrorCodesV01.INVALID_LENGTH);\n\n        for(uint256 i; i < priceMultipliers.length; i++) {\n            // Set price multiplier, if zero, token is no longer Supported\n            _tierSets[profileId][tierSetId].supportedCurrencies[supportedCurrencies[i]] = priceMultipliers[i];\n            \n            if(priceMultipliers[i] == 0) {\n                emit SupportedCurrencyRemoved(profileId, tierSetId, supportedCurrencies[i]);\n                continue;\n            }\n\n            emit SupportedCurrencyAdded(profileId, tierSetId, supportedCurrencies[i], priceMultipliers[i]);\n        }\n    }\n\n    /*\n        @notice Get a tiers CID\n\n        @param Profile ID\n        @param Tier set ID\n        @param Tier ID\n\n        @return Tier CID\n    */\n    function getTierCid(uint256 profileId, uint256 tierSetId, uint256 tierId) external view override tierExists(profileId, tierSetId, tierId) returns (string memory) {\n        return _tierSets[profileId][tierSetId].cids[tierId];\n    }\n\n    /*\n        @notice Get a tiers price\n\n        @param Profile ID\n        @param Tier set ID\n        @param Tier ID\n        @param ERC20 token\n\n        @return Tier price\n    */\n    function getTierPrice(uint256 profileId, uint256 tierSetId, uint256 tierId, address currency) external view override tierExists(profileId, tierSetId, tierId) returns (uint256) {\n        // Require ERC20 token is supported by tier set\n        require(_tierSets[profileId][tierSetId].supportedCurrencies[currency] > 0, BBErrorCodesV01.UNSUPPORTED_CURRENCY);\n        return _tierPrice(_tierSets[profileId][tierSetId].prices[tierId], _tierSets[profileId][tierSetId].supportedCurrencies[currency]);\n    }\n\n    /*\n        @dev Returns the price of a tier relative to a ERC20 token\n\n        @param Tiers base price\n        @param ERC20 token multiplier\n\n        @return Tier price\n    */\n    function _tierPrice(uint256 price, uint256 multiplier) internal pure returns (uint256) {\n        return price * multiplier;\n    }\n\n    /*\n        @notice Get tier prices and CIDs in a tier set\n\n        @param Profile ID\n        @param Tier set ID\n\n        @return Tier set prices\n        @return Tier set CIDs\n    */\n    function getTierSet(uint256 profileId, uint256 tierSetId) external view tierSetExists(profileId, tierSetId) returns (uint256[] memory, string[] memory) {\n        return(_tierSets[profileId][tierSetId].prices, _tierSets[profileId][tierSetId].cids);\n    }\n    \n    /*\n        @notice Gets the total number of tiers in a tier set\n\n        @param Profile ID\n        @param Tier set ID\n\n        @return Total tiers in a tier set\n    */\n    function totalTiers(uint256 profileId, uint256 tierSetId) external view override tierSetExists(profileId, tierSetId) returns (uint256) {\n        return _tierSets[profileId][tierSetId].prices.length;\n    }\n\n    /*\n        @notice Gets the toal number of tier sets in a profile\n\n        @param Profile ID\n    \n        @return Total tier sets in a profile\n    */\n    function totalTierSets(uint256 profileId) external view override profileExists(profileId) returns (uint256) {\n        return _totalTierSets[profileId];\n    }\n    \n    /*\n        @notice Get a ERC20 tokens price multiplier within a tier set \n\n        @param Profile ID\n        @param Tier set ID\n        @param ERC20 token\n\n        @return Supported ERC20 token multiplier\n    */\n    function getCurrencyMultiplier(uint256 profileId, uint256 tierSetId, address currency) external view override tierSetExists(profileId, tierSetId) returns (uint256) {\n        // Reverts if ERC20 token is not supported\n        require(_tierSets[profileId][tierSetId].supportedCurrencies[currency] > 0, BBErrorCodesV01.UNSUPPORTED_CURRENCY);\n        return _tierSets[profileId][tierSetId].supportedCurrencies[currency];\n    }\n\n    /*\n        @notice Check if a ERC20 token is supported for payments within a tier set\n\n        @param Profile ID\n        @param Tier set ID\n        @param ERC20 token\n\n        @return True if an ERC20 token is supported for payments within a tier set, otherwise false\n    */\n    function isCurrencySupported(uint256 profileId, uint256 tierSetId, address currency) external view override tierSetExists(profileId, tierSetId) returns (bool) {\n        return _tierSets[profileId][tierSetId].supportedCurrencies[currency] > 0;\n    }\n}\n",
  "sourcePath": "contracts/BBTiers.sol",
  "type": "contract"
}