{
  "abi": [
    {
      "inputs": [
        {
          "internalType": "address",
          "name": "bbProfiles",
          "type": "address"
        }
      ],
      "stateMutability": "nonpayable",
      "type": "constructor"
    },
    {
      "anonymous": false,
      "inputs": [
        {
          "indexed": false,
          "internalType": "uint256",
          "name": "profileId",
          "type": "uint256"
        },
        {
          "indexed": false,
          "internalType": "uint256",
          "name": "tierSetId",
          "type": "uint256"
        }
      ],
      "name": "EditTierSet",
      "type": "event"
    },
    {
      "anonymous": false,
      "inputs": [
        {
          "indexed": false,
          "internalType": "uint256",
          "name": "profileId",
          "type": "uint256"
        },
        {
          "indexed": false,
          "internalType": "uint256",
          "name": "tierSetId",
          "type": "uint256"
        }
      ],
      "name": "NewTierSet",
      "type": "event"
    },
    {
      "anonymous": false,
      "inputs": [
        {
          "indexed": false,
          "internalType": "uint256",
          "name": "profileId",
          "type": "uint256"
        },
        {
          "indexed": false,
          "internalType": "uint256",
          "name": "tierSetId",
          "type": "uint256"
        },
        {
          "indexed": false,
          "internalType": "address",
          "name": "currency",
          "type": "address"
        },
        {
          "indexed": false,
          "internalType": "uint256",
          "name": "priceMultiplier",
          "type": "uint256"
        }
      ],
      "name": "SupportedCurrencyChange",
      "type": "event"
    },
    {
      "inputs": [
        {
          "internalType": "uint256",
          "name": "profileId",
          "type": "uint256"
        },
        {
          "internalType": "uint256[]",
          "name": "prices",
          "type": "uint256[]"
        },
        {
          "internalType": "string[]",
          "name": "cids",
          "type": "string[]"
        },
        {
          "internalType": "address[]",
          "name": "supportedCurrencies",
          "type": "address[]"
        },
        {
          "internalType": "uint256[]",
          "name": "priceMultipliers",
          "type": "uint256[]"
        }
      ],
      "name": "createTiers",
      "outputs": [
        {
          "internalType": "uint256",
          "name": "tierSetId",
          "type": "uint256"
        }
      ],
      "stateMutability": "nonpayable",
      "type": "function"
    },
    {
      "inputs": [
        {
          "internalType": "uint256",
          "name": "profileId",
          "type": "uint256"
        },
        {
          "internalType": "uint256",
          "name": "tierSet",
          "type": "uint256"
        },
        {
          "internalType": "uint256[]",
          "name": "prices",
          "type": "uint256[]"
        },
        {
          "internalType": "string[]",
          "name": "cids",
          "type": "string[]"
        }
      ],
      "name": "editTiers",
      "outputs": [],
      "stateMutability": "nonpayable",
      "type": "function"
    },
    {
      "inputs": [
        {
          "internalType": "uint256",
          "name": "profileId",
          "type": "uint256"
        },
        {
          "internalType": "uint256",
          "name": "tierSet",
          "type": "uint256"
        },
        {
          "internalType": "address",
          "name": "currency",
          "type": "address"
        }
      ],
      "name": "getCurrencyMultiplier",
      "outputs": [
        {
          "internalType": "uint256",
          "name": "",
          "type": "uint256"
        }
      ],
      "stateMutability": "view",
      "type": "function"
    },
    {
      "inputs": [
        {
          "internalType": "uint256",
          "name": "profileId",
          "type": "uint256"
        },
        {
          "internalType": "uint256",
          "name": "tierSet",
          "type": "uint256"
        },
        {
          "internalType": "uint256",
          "name": "tierId",
          "type": "uint256"
        }
      ],
      "name": "getTierCid",
      "outputs": [
        {
          "internalType": "string",
          "name": "",
          "type": "string"
        }
      ],
      "stateMutability": "view",
      "type": "function"
    },
    {
      "inputs": [
        {
          "internalType": "uint256",
          "name": "profileId",
          "type": "uint256"
        },
        {
          "internalType": "uint256",
          "name": "tierSet",
          "type": "uint256"
        },
        {
          "internalType": "uint256",
          "name": "tierId",
          "type": "uint256"
        },
        {
          "internalType": "address",
          "name": "currency",
          "type": "address"
        }
      ],
      "name": "getTierPrice",
      "outputs": [
        {
          "internalType": "uint256",
          "name": "",
          "type": "uint256"
        }
      ],
      "stateMutability": "view",
      "type": "function"
    },
    {
      "inputs": [
        {
          "internalType": "uint256",
          "name": "profileId",
          "type": "uint256"
        },
        {
          "internalType": "uint256",
          "name": "tierSet",
          "type": "uint256"
        }
      ],
      "name": "getTierSet",
      "outputs": [
        {
          "internalType": "uint256[]",
          "name": "",
          "type": "uint256[]"
        },
        {
          "internalType": "string[]",
          "name": "",
          "type": "string[]"
        }
      ],
      "stateMutability": "view",
      "type": "function"
    },
    {
      "inputs": [
        {
          "internalType": "uint256",
          "name": "profileId",
          "type": "uint256"
        },
        {
          "internalType": "uint256",
          "name": "tierSet",
          "type": "uint256"
        },
        {
          "internalType": "address",
          "name": "currency",
          "type": "address"
        }
      ],
      "name": "isCurrencySupported",
      "outputs": [
        {
          "internalType": "bool",
          "name": "",
          "type": "bool"
        }
      ],
      "stateMutability": "view",
      "type": "function"
    },
    {
      "inputs": [
        {
          "internalType": "uint256",
          "name": "profileId",
          "type": "uint256"
        },
        {
          "internalType": "uint256",
          "name": "tierSet",
          "type": "uint256"
        },
        {
          "internalType": "address[]",
          "name": "supportedCurrencies",
          "type": "address[]"
        },
        {
          "internalType": "uint256[]",
          "name": "priceMultipliers",
          "type": "uint256[]"
        }
      ],
      "name": "setSupportedCurrencies",
      "outputs": [],
      "stateMutability": "nonpayable",
      "type": "function"
    },
    {
      "inputs": [
        {
          "internalType": "uint256",
          "name": "profileId",
          "type": "uint256"
        }
      ],
      "name": "totalTierSets",
      "outputs": [
        {
          "internalType": "uint256",
          "name": "",
          "type": "uint256"
        }
      ],
      "stateMutability": "view",
      "type": "function"
    },
    {
      "inputs": [
        {
          "internalType": "uint256",
          "name": "profileId",
          "type": "uint256"
        },
        {
          "internalType": "uint256",
          "name": "tierSet",
          "type": "uint256"
        }
      ],
      "name": "totalTiers",
      "outputs": [
        {
          "internalType": "uint256",
          "name": "",
          "type": "uint256"
        }
      ],
      "stateMutability": "view",
      "type": "function"
    }
  ],
  "bytecode": "60a060405234801561001057600080fd5b5060405161202a38038061202a83398101604081905261002f91610040565b6001600160a01b0316608052610070565b60006020828403121561005257600080fd5b81516001600160a01b038116811461006957600080fd5b9392505050565b608051611f4b6100df600039600081816101a7015281816102f101528181610543015281816106e6015281816107c4015281816108ff01528181610a2301528181610b4801528181610c5101528181610d7601528181610e490152818161107e01526112a10152611f4b6000f3fe608060405234801561001057600080fd5b506004361061009e5760003560e01c80638a1da7ea116100665780638a1da7ea146101335780638c40fc2a146101485780638f6b8d021461015b578063d59f0f201461016e578063ed340ddf1461018e57600080fd5b80630359f43e146100a35780631d9f7fd6146100cb578063215e0c9d146100ec5780633a8d19e11461010d578063819ca22214610120575b600080fd5b6100b66100b136600461171f565b6101a1565b60405190151581526020015b60405180910390f35b6100de6100d9366004611758565b6102ea565b6040516100c29291906117ca565b6100ff6100fa36600461171f565b61053d565b6040519081526020016100c2565b6100ff61011b366004611a83565b6106e1565b6100ff61012e366004611758565b6108f9565b610146610141366004611b3a565b610a1f565b005b610146610156366004611bb1565b610c4d565b6100ff610169366004611c1c565b610e42565b61018161017c366004611c5d565b611077565b6040516100c29190611c89565b6100ff61019c366004611c9c565b61129c565b600083837f00000000000000000000000000000000000000000000000000000000000000006001600160a01b031663d2adbe796040518163ffffffff1660e01b8152600401602060405180830381865afa158015610203573d6000803e3d6000fd5b505050506040513d601f19601f820116820180604052508101906102279190611cb5565b8210604051806040016040528060018152602001603560f81b8152509061026a5760405162461bcd60e51b81526004016102619190611c89565b60405180910390fd5b50600082815260016020818152604092839020548351808501909452918352601b60f91b9083015282106102b15760405162461bcd60e51b81526004016102619190611c89565b505050600093845250602083815260408085209385529281528284206001600160a01b0392909216845260029091019052902054151590565b60608083837f00000000000000000000000000000000000000000000000000000000000000006001600160a01b031663d2adbe796040518163ffffffff1660e01b8152600401602060405180830381865afa15801561034d573d6000803e3d6000fd5b505050506040513d601f19601f820116820180604052508101906103719190611cb5565b8210604051806040016040528060018152602001603560f81b815250906103ab5760405162461bcd60e51b81526004016102619190611c89565b50600082815260016020818152604092839020548351808501909452918352601b60f91b9083015282106103f25760405162461bcd60e51b81526004016102619190611c89565b506000868152602081815260408083208884528252918290208054835181840281018401909452808452909260018401929091849183018282801561045657602002820191906000526020600020905b815481526020019060010190808311610442575b5050505050915080805480602002602001604051908101604052809291908181526020016000905b8282101561052a57838290600052602060002001805461049d90611cce565b80601f01602080910402602001604051908101604052809291908181526020018280546104c990611cce565b80156105165780601f106104eb57610100808354040283529160200191610516565b820191906000526020600020905b8154815290600101906020018083116104f957829003601f168201915b50505050508152602001906001019061047e565b5050505090509350935050509250929050565b600083837f00000000000000000000000000000000000000000000000000000000000000006001600160a01b031663d2adbe796040518163ffffffff1660e01b8152600401602060405180830381865afa15801561059f573d6000803e3d6000fd5b505050506040513d601f19601f820116820180604052508101906105c39190611cb5565b8210604051806040016040528060018152602001603560f81b815250906105fd5760405162461bcd60e51b81526004016102619190611c89565b50600082815260016020818152604092839020548351808501909452918352601b60f91b9083015282106106445760405162461bcd60e51b81526004016102619190611c89565b5060008681526020818152604080832088845282528083206001600160a01b0388168452600290810183529281902054815180830190925292815261062760f31b91810191909152906106aa5760405162461bcd60e51b81526004016102619190611c89565b505050600093845250602083815260408085209385529281528284206001600160a01b039290921684526002909101905290205490565b6000857f00000000000000000000000000000000000000000000000000000000000000006001600160a01b031663d2adbe796040518163ffffffff1660e01b8152600401602060405180830381865afa158015610742573d6000803e3d6000fd5b505050506040513d601f19601f820116820180604052508101906107669190611cb5565b8110604051806040016040528060018152602001603560f81b815250906107a05760405162461bcd60e51b81526004016102619190611c89565b50604051633c23d3d960e21b81526004810188905287906000906001600160a01b037f0000000000000000000000000000000000000000000000000000000000000000169063f08f4f6490602401600060405180830381865afa15801561080b573d6000803e3d6000fd5b505050506040513d6000823e601f3d908101601f191682016040526108339190810190611d02565b50506040805180820190915260018152603160f81b60208201529091506001600160a01b03821633146108795760405162461bcd60e51b81526004016102619190611c89565b50600089815260016020526040812080549550859161089783611db8565b91905055506108a889858a8a611374565b6108b489858888611480565b604080518a8152602081018690527fc39ae3ab6ddae8d37132bf00ae6daa9bd725500da534b26a2e56b08726cded8c910160405180910390a150505095945050505050565b600082827f00000000000000000000000000000000000000000000000000000000000000006001600160a01b031663d2adbe796040518163ffffffff1660e01b8152600401602060405180830381865afa15801561095b573d6000803e3d6000fd5b505050506040513d601f19601f8201168201806040525081019061097f9190611cb5565b8210604051806040016040528060018152602001603560f81b815250906109b95760405162461bcd60e51b81526004016102619190611c89565b50600082815260016020818152604092839020548351808501909452918352601b60f91b908301528210610a005760405162461bcd60e51b81526004016102619190611c89565b5050506000928352506020828152604080842092845291905290205490565b83837f00000000000000000000000000000000000000000000000000000000000000006001600160a01b031663d2adbe796040518163ffffffff1660e01b8152600401602060405180830381865afa158015610a7f573d6000803e3d6000fd5b505050506040513d601f19601f82011682018060405250810190610aa39190611cb5565b8210604051806040016040528060018152602001603560f81b81525090610add5760405162461bcd60e51b81526004016102619190611c89565b50600082815260016020818152604092839020548351808501909452918352601b60f91b908301528210610b245760405162461bcd60e51b81526004016102619190611c89565b50604051633c23d3d960e21b81526004810187905286906000906001600160a01b037f0000000000000000000000000000000000000000000000000000000000000000169063f08f4f6490602401600060405180830381865afa158015610b8f573d6000803e3d6000fd5b505050506040513d6000823e601f3d908101601f19168201604052610bb79190810190611d02565b50506040805180820190915260018152603160f81b60208201529091506001600160a01b0382163314610bfd5760405162461bcd60e51b81526004016102619190611c89565b50610c0a88888888611374565b60408051898152602081018990527f28f392c3f5b680337f75a44445646ca32cacd93b1364636deb260906c1e35944910160405180910390a15050505050505050565b83837f00000000000000000000000000000000000000000000000000000000000000006001600160a01b031663d2adbe796040518163ffffffff1660e01b8152600401602060405180830381865afa158015610cad573d6000803e3d6000fd5b505050506040513d601f19601f82011682018060405250810190610cd19190611cb5565b8210604051806040016040528060018152602001603560f81b81525090610d0b5760405162461bcd60e51b81526004016102619190611c89565b50600082815260016020818152604092839020548351808501909452918352601b60f91b908301528210610d525760405162461bcd60e51b81526004016102619190611c89565b50604051633c23d3d960e21b81526004810187905286906000906001600160a01b037f0000000000000000000000000000000000000000000000000000000000000000169063f08f4f6490602401600060405180830381865afa158015610dbd573d6000803e3d6000fd5b505050506040513d6000823e601f3d908101601f19168201604052610de59190810190611d02565b50506040805180820190915260018152603160f81b60208201529091506001600160a01b0382163314610e2b5760405162461bcd60e51b81526004016102619190611c89565b50610e3888888888611480565b5050505050505050565b60008484847f00000000000000000000000000000000000000000000000000000000000000006001600160a01b031663d2adbe796040518163ffffffff1660e01b8152600401602060405180830381865afa158015610ea5573d6000803e3d6000fd5b505050506040513d601f19601f82011682018060405250810190610ec99190611cb5565b8310604051806040016040528060018152602001603560f81b81525090610f035760405162461bcd60e51b81526004016102619190611c89565b50600083815260016020818152604092839020548351808501909452918352601b60f91b908301528310610f4a5760405162461bcd60e51b81526004016102619190611c89565b5060008381526020818152604080832085845282529182902054825180840190935260018352603760f81b918301919091528210610f9b5760405162461bcd60e51b81526004016102619190611c89565b506000888152602081815260408083208a845282528083206001600160a01b0389168452600290810183529281902054815180830190925292815261062760f31b91810191909152906110015760405162461bcd60e51b81526004016102619190611c89565b506000888152602081815260408083208a84529091529020805461106b91908890811061103057611030611dd1565b60009182526020808320909101548b835282825260408084208c855283528084206001600160a01b038b1685526002019092529120546115eb565b98975050505050505050565b60608383837f00000000000000000000000000000000000000000000000000000000000000006001600160a01b031663d2adbe796040518163ffffffff1660e01b8152600401602060405180830381865afa1580156110da573d6000803e3d6000fd5b505050506040513d601f19601f820116820180604052508101906110fe9190611cb5565b8310604051806040016040528060018152602001603560f81b815250906111385760405162461bcd60e51b81526004016102619190611c89565b50600083815260016020818152604092839020548351808501909452918352601b60f91b90830152831061117f5760405162461bcd60e51b81526004016102619190611c89565b5060008381526020818152604080832085845282529182902054825180840190935260018352603760f81b9183019190915282106111d05760405162461bcd60e51b81526004016102619190611c89565b5060008781526020818152604080832089845290915290206001018054869081106111fd576111fd611dd1565b90600052602060002001805461121290611cce565b80601f016020809104026020016040519081016040528092919081815260200182805461123e90611cce565b801561128b5780601f106112605761010080835404028352916020019161128b565b820191906000526020600020905b81548152906001019060200180831161126e57829003601f168201915b505050505093505050509392505050565b6000817f00000000000000000000000000000000000000000000000000000000000000006001600160a01b031663d2adbe796040518163ffffffff1660e01b8152600401602060405180830381865afa1580156112fd573d6000803e3d6000fd5b505050506040513d601f19601f820116820180604052508101906113219190611cb5565b8110604051806040016040528060018152602001603560f81b8152509061135b5760405162461bcd60e51b81526004016102619190611c89565b5060008381526001602052604090205491505b50919050565b805182511460405180604001604052806002815260200161313760f01b815250906113b25760405162461bcd60e51b81526004016102619190611c89565b5060005b82518110156114275760008382815181106113d3576113d3611dd1565b602002602001015111604051806040016040528060018152602001601960f91b815250906114145760405162461bcd60e51b81526004016102619190611c89565b508061141f81611db8565b9150506113b6565b506000848152602081815260408083208684528252909120835161144d928501906115fe565b506000848152602081815260408083208684528252909120825161147992600190920191840190611649565b5050505050565b805182511460405180604001604052806002815260200161313760f01b815250906114be5760405162461bcd60e51b81526004016102619190611c89565b5060005b8151811015611479578181815181106114dd576114dd611dd1565b60200260200101516000808781526020019081526020016000206000868152602001908152602001600020600201600085848151811061151f5761151f611dd1565b60200260200101516001600160a01b03166001600160a01b03168152602001908152602001600020819055507f0112a61336cc8e65d62264020241bbe6116fc2b406dac1231f46fcec601f9bec858585848151811061158057611580611dd1565b602002602001015185858151811061159a5761159a611dd1565b60200260200101516040516115d1949392919093845260208401929092526001600160a01b03166040830152606082015260800190565b60405180910390a1806115e381611db8565b9150506114c2565b60006115f78284611de7565b9392505050565b828054828255906000526020600020908101928215611639579160200282015b8281111561163957825182559160200191906001019061161e565b5061164592915061169b565b5090565b82805482825590600052602060002090810192821561168f579160200282015b8281111561168f578251829061167f9082611e55565b5091602001919060010190611669565b506116459291506116b0565b5b80821115611645576000815560010161169c565b808211156116455760006116c482826116cd565b506001016116b0565b5080546116d990611cce565b6000825580601f106116e9575050565b601f016020900490600052602060002090810190611707919061169b565b50565b6001600160a01b038116811461170757600080fd5b60008060006060848603121561173457600080fd5b8335925060208401359150604084013561174d8161170a565b809150509250925092565b6000806040838503121561176b57600080fd5b50508035926020909101359150565b60005b8381101561179557818101518382015260200161177d565b50506000910152565b600081518084526117b681602086016020860161177a565b601f01601f19169290920160200192915050565b604080825283519082018190526000906020906060840190828701845b82811015611803578151845292840192908401906001016117e7565b50505083810382850152845180825282820190600581901b8301840187850160005b8381101561185357601f1986840301855261184183835161179e565b94870194925090860190600101611825565b50909998505050505050505050565b634e487b7160e01b600052604160045260246000fd5b604051601f8201601f1916810167ffffffffffffffff811182821017156118a1576118a1611862565b604052919050565b600067ffffffffffffffff8211156118c3576118c3611862565b5060051b60200190565b600082601f8301126118de57600080fd5b813560206118f36118ee836118a9565b611878565b82815260059290921b8401810191818101908684111561191257600080fd5b8286015b8481101561192d5780358352918301918301611916565b509695505050505050565b600067ffffffffffffffff82111561195257611952611862565b50601f01601f191660200190565b600082601f83011261197157600080fd5b813560206119816118ee836118a9565b82815260059290921b840181019181810190868411156119a057600080fd5b8286015b8481101561192d57803567ffffffffffffffff8111156119c45760008081fd5b8701603f810189136119d65760008081fd5b8481013560406119e86118ee83611938565b8281528b828486010111156119fd5760008081fd5b82828501898301376000928101880192909252508452509183019183016119a4565b600082601f830112611a3057600080fd5b81356020611a406118ee836118a9565b82815260059290921b84018101918181019086841115611a5f57600080fd5b8286015b8481101561192d578035611a768161170a565b8352918301918301611a63565b600080600080600060a08688031215611a9b57600080fd5b85359450602086013567ffffffffffffffff80821115611aba57600080fd5b611ac689838a016118cd565b95506040880135915080821115611adc57600080fd5b611ae889838a01611960565b94506060880135915080821115611afe57600080fd5b611b0a89838a01611a1f565b93506080880135915080821115611b2057600080fd5b50611b2d888289016118cd565b9150509295509295909350565b60008060008060808587031215611b5057600080fd5b8435935060208501359250604085013567ffffffffffffffff80821115611b7657600080fd5b611b82888389016118cd565b93506060870135915080821115611b9857600080fd5b50611ba587828801611960565b91505092959194509250565b60008060008060808587031215611bc757600080fd5b8435935060208501359250604085013567ffffffffffffffff80821115611bed57600080fd5b611bf988838901611a1f565b93506060870135915080821115611c0f57600080fd5b50611ba5878288016118cd565b60008060008060808587031215611c3257600080fd5b8435935060208501359250604085013591506060850135611c528161170a565b939692955090935050565b600080600060608486031215611c7257600080fd5b505081359360208301359350604090920135919050565b6020815260006115f7602083018461179e565b600060208284031215611cae57600080fd5b5035919050565b600060208284031215611cc757600080fd5b5051919050565b600181811c90821680611ce257607f821691505b60208210810361136e57634e487b7160e01b600052602260045260246000fd5b600080600060608486031215611d1757600080fd5b8351611d228161170a565b6020850151909350611d338161170a565b604085015190925067ffffffffffffffff811115611d5057600080fd5b8401601f81018613611d6157600080fd5b8051611d6f6118ee82611938565b818152876020838501011115611d8457600080fd5b611d9582602083016020860161177a565b8093505050509250925092565b634e487b7160e01b600052601160045260246000fd5b600060018201611dca57611dca611da2565b5060010190565b634e487b7160e01b600052603260045260246000fd5b6000816000190483118215151615611e0157611e01611da2565b500290565b601f821115611e5057600081815260208120601f850160051c81016020861015611e2d5750805b601f850160051c820191505b81811015611e4c57828155600101611e39565b5050505b505050565b815167ffffffffffffffff811115611e6f57611e6f611862565b611e8381611e7d8454611cce565b84611e06565b602080601f831160018114611eb85760008415611ea05750858301515b600019600386901b1c1916600185901b178555611e4c565b600085815260208120601f198616915b82811015611ee757888601518255948401946001909101908401611ec8565b5085821015611f055787850151600019600388901b60f8161c191681555b5050505050600190811b0190555056fea2646970667358221220f5becda2ae314be0cb26d630bea91d3c1161581b2b3902bcb070de681295b8e364736f6c63430008100033",
  "bytecodeSha1": "1d5be8cbb6f1311206ce66c47e815b83116195c3",
  "compiler": {
    "evm_version": "istanbul",
    "optimizer": {
      "enabled": true,
      "runs": 200
    },
    "version": "0.8.16+commit.07a7930e"
  },
  "contractName": "BBTiers",
  "language": "Solidity",
  "natspec": {
    "kind": "dev",
    "methods": {},
    "version": 1
  },
  "opcodes": "PUSH1 0x80 PUSH1 0x40 MSTORE CALLVALUE DUP1 ISZERO PUSH2 0x10 JUMPI PUSH1 0x0 DUP1 REVERT JUMPDEST POP PUSH1 0x4 CALLDATASIZE LT PUSH2 0x9E JUMPI PUSH1 0x0 CALLDATALOAD PUSH1 0xE0 SHR DUP1 PUSH4 0x8A1DA7EA GT PUSH2 0x66 JUMPI DUP1 PUSH4 0x8A1DA7EA EQ PUSH2 0x133 JUMPI DUP1 PUSH4 0x8C40FC2A EQ PUSH2 0x148 JUMPI DUP1 PUSH4 0x8F6B8D02 EQ PUSH2 0x15B JUMPI DUP1 PUSH4 0xD59F0F20 EQ PUSH2 0x16E JUMPI DUP1 PUSH4 0xED340DDF EQ PUSH2 0x18E JUMPI PUSH1 0x0 DUP1 REVERT JUMPDEST DUP1 PUSH4 0x359F43E EQ PUSH2 0xA3 JUMPI DUP1 PUSH4 0x1D9F7FD6 EQ PUSH2 0xCB JUMPI DUP1 PUSH4 0x215E0C9D EQ PUSH2 0xEC JUMPI DUP1 PUSH4 0x3A8D19E1 EQ PUSH2 0x10D JUMPI DUP1 PUSH4 0x819CA222 EQ PUSH2 0x120 JUMPI JUMPDEST PUSH1 0x0 DUP1 REVERT JUMPDEST PUSH2 0xB6 PUSH2 0xB1 CALLDATASIZE PUSH1 0x4 PUSH2 0x171F JUMP JUMPDEST PUSH2 0x1A1 JUMP JUMPDEST PUSH1 0x40 MLOAD SWAP1 ISZERO ISZERO DUP2 MSTORE PUSH1 0x20 ADD JUMPDEST PUSH1 0x40 MLOAD DUP1 SWAP2 SUB SWAP1 RETURN JUMPDEST PUSH2 0xDE PUSH2 0xD9 CALLDATASIZE PUSH1 0x4 PUSH2 0x1758 JUMP JUMPDEST PUSH2 0x2EA JUMP JUMPDEST PUSH1 0x40 MLOAD PUSH2 0xC2 SWAP3 SWAP2 SWAP1 PUSH2 0x17CA JUMP JUMPDEST PUSH2 0xFF PUSH2 0xFA CALLDATASIZE PUSH1 0x4 PUSH2 0x171F JUMP JUMPDEST PUSH2 0x53D JUMP JUMPDEST PUSH1 0x40 MLOAD SWAP1 DUP2 MSTORE PUSH1 0x20 ADD PUSH2 0xC2 JUMP JUMPDEST PUSH2 0xFF PUSH2 0x11B CALLDATASIZE PUSH1 0x4 PUSH2 0x1A83 JUMP JUMPDEST PUSH2 0x6E1 JUMP JUMPDEST PUSH2 0xFF PUSH2 0x12E CALLDATASIZE PUSH1 0x4 PUSH2 0x1758 JUMP JUMPDEST PUSH2 0x8F9 JUMP JUMPDEST PUSH2 0x146 PUSH2 0x141 CALLDATASIZE PUSH1 0x4 PUSH2 0x1B3A JUMP JUMPDEST PUSH2 0xA1F JUMP JUMPDEST STOP JUMPDEST PUSH2 0x146 PUSH2 0x156 CALLDATASIZE PUSH1 0x4 PUSH2 0x1BB1 JUMP JUMPDEST PUSH2 0xC4D JUMP JUMPDEST PUSH2 0xFF PUSH2 0x169 CALLDATASIZE PUSH1 0x4 PUSH2 0x1C1C JUMP JUMPDEST PUSH2 0xE42 JUMP JUMPDEST PUSH2 0x181 PUSH2 0x17C CALLDATASIZE PUSH1 0x4 PUSH2 0x1C5D JUMP JUMPDEST PUSH2 0x1077 JUMP JUMPDEST PUSH1 0x40 MLOAD PUSH2 0xC2 SWAP2 SWAP1 PUSH2 0x1C89 JUMP JUMPDEST PUSH2 0xFF PUSH2 0x19C CALLDATASIZE PUSH1 0x4 PUSH2 0x1C9C JUMP JUMPDEST PUSH2 0x129C JUMP JUMPDEST PUSH1 0x0 DUP4 DUP4 PUSH32 0x0 PUSH1 0x1 PUSH1 0x1 PUSH1 0xA0 SHL SUB AND PUSH4 0xD2ADBE79 PUSH1 0x40 MLOAD DUP2 PUSH4 0xFFFFFFFF AND PUSH1 0xE0 SHL DUP2 MSTORE PUSH1 0x4 ADD PUSH1 0x20 PUSH1 0x40 MLOAD DUP1 DUP4 SUB DUP2 DUP7 GAS STATICCALL ISZERO DUP1 ISZERO PUSH2 0x203 JUMPI RETURNDATASIZE PUSH1 0x0 DUP1 RETURNDATACOPY RETURNDATASIZE PUSH1 0x0 REVERT JUMPDEST POP POP POP POP PUSH1 0x40 MLOAD RETURNDATASIZE PUSH1 0x1F NOT PUSH1 0x1F DUP3 ADD AND DUP3 ADD DUP1 PUSH1 0x40 MSTORE POP DUP2 ADD SWAP1 PUSH2 0x227 SWAP2 SWAP1 PUSH2 0x1CB5 JUMP JUMPDEST DUP3 LT PUSH1 0x40 MLOAD DUP1 PUSH1 0x40 ADD PUSH1 0x40 MSTORE DUP1 PUSH1 0x1 DUP2 MSTORE PUSH1 0x20 ADD PUSH1 0x35 PUSH1 0xF8 SHL DUP2 MSTORE POP SWAP1 PUSH2 0x26A JUMPI PUSH1 0x40 MLOAD PUSH3 0x461BCD PUSH1 0xE5 SHL DUP2 MSTORE PUSH1 0x4 ADD PUSH2 0x261 SWAP2 SWAP1 PUSH2 0x1C89 JUMP JUMPDEST PUSH1 0x40 MLOAD DUP1 SWAP2 SUB SWAP1 REVERT JUMPDEST POP PUSH1 0x0 DUP3 DUP2 MSTORE PUSH1 0x1 PUSH1 0x20 DUP2 DUP2 MSTORE PUSH1 0x40 SWAP3 DUP4 SWAP1 KECCAK256 SLOAD DUP4 MLOAD DUP1 DUP6 ADD SWAP1 SWAP5 MSTORE SWAP2 DUP4 MSTORE PUSH1 0x1B PUSH1 0xF9 SHL SWAP1 DUP4 ADD MSTORE DUP3 LT PUSH2 0x2B1 JUMPI PUSH1 0x40 MLOAD PUSH3 0x461BCD PUSH1 0xE5 SHL DUP2 MSTORE PUSH1 0x4 ADD PUSH2 0x261 SWAP2 SWAP1 PUSH2 0x1C89 JUMP JUMPDEST POP POP POP PUSH1 0x0 SWAP4 DUP5 MSTORE POP PUSH1 0x20 DUP4 DUP2 MSTORE PUSH1 0x40 DUP1 DUP6 KECCAK256 SWAP4 DUP6 MSTORE SWAP3 DUP2 MSTORE DUP3 DUP5 KECCAK256 PUSH1 0x1 PUSH1 0x1 PUSH1 0xA0 SHL SUB SWAP3 SWAP1 SWAP3 AND DUP5 MSTORE PUSH1 0x2 SWAP1 SWAP2 ADD SWAP1 MSTORE SWAP1 KECCAK256 SLOAD ISZERO ISZERO SWAP1 JUMP JUMPDEST PUSH1 0x60 DUP1 DUP4 DUP4 PUSH32 0x0 PUSH1 0x1 PUSH1 0x1 PUSH1 0xA0 SHL SUB AND PUSH4 0xD2ADBE79 PUSH1 0x40 MLOAD DUP2 PUSH4 0xFFFFFFFF AND PUSH1 0xE0 SHL DUP2 MSTORE PUSH1 0x4 ADD PUSH1 0x20 PUSH1 0x40 MLOAD DUP1 DUP4 SUB DUP2 DUP7 GAS STATICCALL ISZERO DUP1 ISZERO PUSH2 0x34D JUMPI RETURNDATASIZE PUSH1 0x0 DUP1 RETURNDATACOPY RETURNDATASIZE PUSH1 0x0 REVERT JUMPDEST POP POP POP POP PUSH1 0x40 MLOAD RETURNDATASIZE PUSH1 0x1F NOT PUSH1 0x1F DUP3 ADD AND DUP3 ADD DUP1 PUSH1 0x40 MSTORE POP DUP2 ADD SWAP1 PUSH2 0x371 SWAP2 SWAP1 PUSH2 0x1CB5 JUMP JUMPDEST DUP3 LT PUSH1 0x40 MLOAD DUP1 PUSH1 0x40 ADD PUSH1 0x40 MSTORE DUP1 PUSH1 0x1 DUP2 MSTORE PUSH1 0x20 ADD PUSH1 0x35 PUSH1 0xF8 SHL DUP2 MSTORE POP SWAP1 PUSH2 0x3AB JUMPI PUSH1 0x40 MLOAD PUSH3 0x461BCD PUSH1 0xE5 SHL DUP2 MSTORE PUSH1 0x4 ADD PUSH2 0x261 SWAP2 SWAP1 PUSH2 0x1C89 JUMP JUMPDEST POP PUSH1 0x0 DUP3 DUP2 MSTORE PUSH1 0x1 PUSH1 0x20 DUP2 DUP2 MSTORE PUSH1 0x40 SWAP3 DUP4 SWAP1 KECCAK256 SLOAD DUP4 MLOAD DUP1 DUP6 ADD SWAP1 SWAP5 MSTORE SWAP2 DUP4 MSTORE PUSH1 0x1B PUSH1 0xF9 SHL SWAP1 DUP4 ADD MSTORE DUP3 LT PUSH2 0x3F2 JUMPI PUSH1 0x40 MLOAD PUSH3 0x461BCD PUSH1 0xE5 SHL DUP2 MSTORE PUSH1 0x4 ADD PUSH2 0x261 SWAP2 SWAP1 PUSH2 0x1C89 JUMP JUMPDEST POP PUSH1 0x0 DUP7 DUP2 MSTORE PUSH1 0x20 DUP2 DUP2 MSTORE PUSH1 0x40 DUP1 DUP4 KECCAK256 DUP9 DUP5 MSTORE DUP3 MSTORE SWAP2 DUP3 SWAP1 KECCAK256 DUP1 SLOAD DUP4 MLOAD DUP2 DUP5 MUL DUP2 ADD DUP5 ADD SWAP1 SWAP5 MSTORE DUP1 DUP5 MSTORE SWAP1 SWAP3 PUSH1 0x1 DUP5 ADD SWAP3 SWAP1 SWAP2 DUP5 SWAP2 DUP4 ADD DUP3 DUP3 DUP1 ISZERO PUSH2 0x456 JUMPI PUSH1 0x20 MUL DUP3 ADD SWAP2 SWAP1 PUSH1 0x0 MSTORE PUSH1 0x20 PUSH1 0x0 KECCAK256 SWAP1 JUMPDEST DUP2 SLOAD DUP2 MSTORE PUSH1 0x20 ADD SWAP1 PUSH1 0x1 ADD SWAP1 DUP1 DUP4 GT PUSH2 0x442 JUMPI JUMPDEST POP POP POP POP POP SWAP2 POP DUP1 DUP1 SLOAD DUP1 PUSH1 0x20 MUL PUSH1 0x20 ADD PUSH1 0x40 MLOAD SWAP1 DUP2 ADD PUSH1 0x40 MSTORE DUP1 SWAP3 SWAP2 SWAP1 DUP2 DUP2 MSTORE PUSH1 0x20 ADD PUSH1 0x0 SWAP1 JUMPDEST DUP3 DUP3 LT ISZERO PUSH2 0x52A JUMPI DUP4 DUP3 SWAP1 PUSH1 0x0 MSTORE PUSH1 0x20 PUSH1 0x0 KECCAK256 ADD DUP1 SLOAD PUSH2 0x49D SWAP1 PUSH2 0x1CCE JUMP JUMPDEST DUP1 PUSH1 0x1F ADD PUSH1 0x20 DUP1 SWAP2 DIV MUL PUSH1 0x20 ADD PUSH1 0x40 MLOAD SWAP1 DUP2 ADD PUSH1 0x40 MSTORE DUP1 SWAP3 SWAP2 SWAP1 DUP2 DUP2 MSTORE PUSH1 0x20 ADD DUP3 DUP1 SLOAD PUSH2 0x4C9 SWAP1 PUSH2 0x1CCE JUMP JUMPDEST DUP1 ISZERO PUSH2 0x516 JUMPI DUP1 PUSH1 0x1F LT PUSH2 0x4EB JUMPI PUSH2 0x100 DUP1 DUP4 SLOAD DIV MUL DUP4 MSTORE SWAP2 PUSH1 0x20 ADD SWAP2 PUSH2 0x516 JUMP JUMPDEST DUP3 ADD SWAP2 SWAP1 PUSH1 0x0 MSTORE PUSH1 0x20 PUSH1 0x0 KECCAK256 SWAP1 JUMPDEST DUP2 SLOAD DUP2 MSTORE SWAP1 PUSH1 0x1 ADD SWAP1 PUSH1 0x20 ADD DUP1 DUP4 GT PUSH2 0x4F9 JUMPI DUP3 SWAP1 SUB PUSH1 0x1F AND DUP3 ADD SWAP2 JUMPDEST POP POP POP POP POP DUP2 MSTORE PUSH1 0x20 ADD SWAP1 PUSH1 0x1 ADD SWAP1 PUSH2 0x47E JUMP JUMPDEST POP POP POP POP SWAP1 POP SWAP4 POP SWAP4 POP POP POP SWAP3 POP SWAP3 SWAP1 POP JUMP JUMPDEST PUSH1 0x0 DUP4 DUP4 PUSH32 0x0 PUSH1 0x1 PUSH1 0x1 PUSH1 0xA0 SHL SUB AND PUSH4 0xD2ADBE79 PUSH1 0x40 MLOAD DUP2 PUSH4 0xFFFFFFFF AND PUSH1 0xE0 SHL DUP2 MSTORE PUSH1 0x4 ADD PUSH1 0x20 PUSH1 0x40 MLOAD DUP1 DUP4 SUB DUP2 DUP7 GAS STATICCALL ISZERO DUP1 ISZERO PUSH2 0x59F JUMPI RETURNDATASIZE PUSH1 0x0 DUP1 RETURNDATACOPY RETURNDATASIZE PUSH1 0x0 REVERT JUMPDEST POP POP POP POP PUSH1 0x40 MLOAD RETURNDATASIZE PUSH1 0x1F NOT PUSH1 0x1F DUP3 ADD AND DUP3 ADD DUP1 PUSH1 0x40 MSTORE POP DUP2 ADD SWAP1 PUSH2 0x5C3 SWAP2 SWAP1 PUSH2 0x1CB5 JUMP JUMPDEST DUP3 LT PUSH1 0x40 MLOAD DUP1 PUSH1 0x40 ADD PUSH1 0x40 MSTORE DUP1 PUSH1 0x1 DUP2 MSTORE PUSH1 0x20 ADD PUSH1 0x35 PUSH1 0xF8 SHL DUP2 MSTORE POP SWAP1 PUSH2 0x5FD JUMPI PUSH1 0x40 MLOAD PUSH3 0x461BCD PUSH1 0xE5 SHL DUP2 MSTORE PUSH1 0x4 ADD PUSH2 0x261 SWAP2 SWAP1 PUSH2 0x1C89 JUMP JUMPDEST POP PUSH1 0x0 DUP3 DUP2 MSTORE PUSH1 0x1 PUSH1 0x20 DUP2 DUP2 MSTORE PUSH1 0x40 SWAP3 DUP4 SWAP1 KECCAK256 SLOAD DUP4 MLOAD DUP1 DUP6 ADD SWAP1 SWAP5 MSTORE SWAP2 DUP4 MSTORE PUSH1 0x1B PUSH1 0xF9 SHL SWAP1 DUP4 ADD MSTORE DUP3 LT PUSH2 0x644 JUMPI PUSH1 0x40 MLOAD PUSH3 0x461BCD PUSH1 0xE5 SHL DUP2 MSTORE PUSH1 0x4 ADD PUSH2 0x261 SWAP2 SWAP1 PUSH2 0x1C89 JUMP JUMPDEST POP PUSH1 0x0 DUP7 DUP2 MSTORE PUSH1 0x20 DUP2 DUP2 MSTORE PUSH1 0x40 DUP1 DUP4 KECCAK256 DUP9 DUP5 MSTORE DUP3 MSTORE DUP1 DUP4 KECCAK256 PUSH1 0x1 PUSH1 0x1 PUSH1 0xA0 SHL SUB DUP9 AND DUP5 MSTORE PUSH1 0x2 SWAP1 DUP2 ADD DUP4 MSTORE SWAP3 DUP2 SWAP1 KECCAK256 SLOAD DUP2 MLOAD DUP1 DUP4 ADD SWAP1 SWAP3 MSTORE SWAP3 DUP2 MSTORE PUSH2 0x627 PUSH1 0xF3 SHL SWAP2 DUP2 ADD SWAP2 SWAP1 SWAP2 MSTORE SWAP1 PUSH2 0x6AA JUMPI PUSH1 0x40 MLOAD PUSH3 0x461BCD PUSH1 0xE5 SHL DUP2 MSTORE PUSH1 0x4 ADD PUSH2 0x261 SWAP2 SWAP1 PUSH2 0x1C89 JUMP JUMPDEST POP POP POP PUSH1 0x0 SWAP4 DUP5 MSTORE POP PUSH1 0x20 DUP4 DUP2 MSTORE PUSH1 0x40 DUP1 DUP6 KECCAK256 SWAP4 DUP6 MSTORE SWAP3 DUP2 MSTORE DUP3 DUP5 KECCAK256 PUSH1 0x1 PUSH1 0x1 PUSH1 0xA0 SHL SUB SWAP3 SWAP1 SWAP3 AND DUP5 MSTORE PUSH1 0x2 SWAP1 SWAP2 ADD SWAP1 MSTORE SWAP1 KECCAK256 SLOAD SWAP1 JUMP JUMPDEST PUSH1 0x0 DUP6 PUSH32 0x0 PUSH1 0x1 PUSH1 0x1 PUSH1 0xA0 SHL SUB AND PUSH4 0xD2ADBE79 PUSH1 0x40 MLOAD DUP2 PUSH4 0xFFFFFFFF AND PUSH1 0xE0 SHL DUP2 MSTORE PUSH1 0x4 ADD PUSH1 0x20 PUSH1 0x40 MLOAD DUP1 DUP4 SUB DUP2 DUP7 GAS STATICCALL ISZERO DUP1 ISZERO PUSH2 0x742 JUMPI RETURNDATASIZE PUSH1 0x0 DUP1 RETURNDATACOPY RETURNDATASIZE PUSH1 0x0 REVERT JUMPDEST POP POP POP POP PUSH1 0x40 MLOAD RETURNDATASIZE PUSH1 0x1F NOT PUSH1 0x1F DUP3 ADD AND DUP3 ADD DUP1 PUSH1 0x40 MSTORE POP DUP2 ADD SWAP1 PUSH2 0x766 SWAP2 SWAP1 PUSH2 0x1CB5 JUMP JUMPDEST DUP2 LT PUSH1 0x40 MLOAD DUP1 PUSH1 0x40 ADD PUSH1 0x40 MSTORE DUP1 PUSH1 0x1 DUP2 MSTORE PUSH1 0x20 ADD PUSH1 0x35 PUSH1 0xF8 SHL DUP2 MSTORE POP SWAP1 PUSH2 0x7A0 JUMPI PUSH1 0x40 MLOAD PUSH3 0x461BCD PUSH1 0xE5 SHL DUP2 MSTORE PUSH1 0x4 ADD PUSH2 0x261 SWAP2 SWAP1 PUSH2 0x1C89 JUMP JUMPDEST POP PUSH1 0x40 MLOAD PUSH4 0x3C23D3D9 PUSH1 0xE2 SHL DUP2 MSTORE PUSH1 0x4 DUP2 ADD DUP9 SWAP1 MSTORE DUP8 SWAP1 PUSH1 0x0 SWAP1 PUSH1 0x1 PUSH1 0x1 PUSH1 0xA0 SHL SUB PUSH32 0x0 AND SWAP1 PUSH4 0xF08F4F64 SWAP1 PUSH1 0x24 ADD PUSH1 0x0 PUSH1 0x40 MLOAD DUP1 DUP4 SUB DUP2 DUP7 GAS STATICCALL ISZERO DUP1 ISZERO PUSH2 0x80B JUMPI RETURNDATASIZE PUSH1 0x0 DUP1 RETURNDATACOPY RETURNDATASIZE PUSH1 0x0 REVERT JUMPDEST POP POP POP POP PUSH1 0x40 MLOAD RETURNDATASIZE PUSH1 0x0 DUP3 RETURNDATACOPY PUSH1 0x1F RETURNDATASIZE SWAP1 DUP2 ADD PUSH1 0x1F NOT AND DUP3 ADD PUSH1 0x40 MSTORE PUSH2 0x833 SWAP2 SWAP1 DUP2 ADD SWAP1 PUSH2 0x1D02 JUMP JUMPDEST POP POP PUSH1 0x40 DUP1 MLOAD DUP1 DUP3 ADD SWAP1 SWAP2 MSTORE PUSH1 0x1 DUP2 MSTORE PUSH1 0x31 PUSH1 0xF8 SHL PUSH1 0x20 DUP3 ADD MSTORE SWAP1 SWAP2 POP PUSH1 0x1 PUSH1 0x1 PUSH1 0xA0 SHL SUB DUP3 AND CALLER EQ PUSH2 0x879 JUMPI PUSH1 0x40 MLOAD PUSH3 0x461BCD PUSH1 0xE5 SHL DUP2 MSTORE PUSH1 0x4 ADD PUSH2 0x261 SWAP2 SWAP1 PUSH2 0x1C89 JUMP JUMPDEST POP PUSH1 0x0 DUP10 DUP2 MSTORE PUSH1 0x1 PUSH1 0x20 MSTORE PUSH1 0x40 DUP2 KECCAK256 DUP1 SLOAD SWAP6 POP DUP6 SWAP2 PUSH2 0x897 DUP4 PUSH2 0x1DB8 JUMP JUMPDEST SWAP2 SWAP1 POP SSTORE POP PUSH2 0x8A8 DUP10 DUP6 DUP11 DUP11 PUSH2 0x1374 JUMP JUMPDEST PUSH2 0x8B4 DUP10 DUP6 DUP9 DUP9 PUSH2 0x1480 JUMP JUMPDEST PUSH1 0x40 DUP1 MLOAD DUP11 DUP2 MSTORE PUSH1 0x20 DUP2 ADD DUP7 SWAP1 MSTORE PUSH32 0xC39AE3AB6DDAE8D37132BF00AE6DAA9BD725500DA534B26A2E56B08726CDED8C SWAP2 ADD PUSH1 0x40 MLOAD DUP1 SWAP2 SUB SWAP1 LOG1 POP POP POP SWAP6 SWAP5 POP POP POP POP POP JUMP JUMPDEST PUSH1 0x0 DUP3 DUP3 PUSH32 0x0 PUSH1 0x1 PUSH1 0x1 PUSH1 0xA0 SHL SUB AND PUSH4 0xD2ADBE79 PUSH1 0x40 MLOAD DUP2 PUSH4 0xFFFFFFFF AND PUSH1 0xE0 SHL DUP2 MSTORE PUSH1 0x4 ADD PUSH1 0x20 PUSH1 0x40 MLOAD DUP1 DUP4 SUB DUP2 DUP7 GAS STATICCALL ISZERO DUP1 ISZERO PUSH2 0x95B JUMPI RETURNDATASIZE PUSH1 0x0 DUP1 RETURNDATACOPY RETURNDATASIZE PUSH1 0x0 REVERT JUMPDEST POP POP POP POP PUSH1 0x40 MLOAD RETURNDATASIZE PUSH1 0x1F NOT PUSH1 0x1F DUP3 ADD AND DUP3 ADD DUP1 PUSH1 0x40 MSTORE POP DUP2 ADD SWAP1 PUSH2 0x97F SWAP2 SWAP1 PUSH2 0x1CB5 JUMP JUMPDEST DUP3 LT PUSH1 0x40 MLOAD DUP1 PUSH1 0x40 ADD PUSH1 0x40 MSTORE DUP1 PUSH1 0x1 DUP2 MSTORE PUSH1 0x20 ADD PUSH1 0x35 PUSH1 0xF8 SHL DUP2 MSTORE POP SWAP1 PUSH2 0x9B9 JUMPI PUSH1 0x40 MLOAD PUSH3 0x461BCD PUSH1 0xE5 SHL DUP2 MSTORE PUSH1 0x4 ADD PUSH2 0x261 SWAP2 SWAP1 PUSH2 0x1C89 JUMP JUMPDEST POP PUSH1 0x0 DUP3 DUP2 MSTORE PUSH1 0x1 PUSH1 0x20 DUP2 DUP2 MSTORE PUSH1 0x40 SWAP3 DUP4 SWAP1 KECCAK256 SLOAD DUP4 MLOAD DUP1 DUP6 ADD SWAP1 SWAP5 MSTORE SWAP2 DUP4 MSTORE PUSH1 0x1B PUSH1 0xF9 SHL SWAP1 DUP4 ADD MSTORE DUP3 LT PUSH2 0xA00 JUMPI PUSH1 0x40 MLOAD PUSH3 0x461BCD PUSH1 0xE5 SHL DUP2 MSTORE PUSH1 0x4 ADD PUSH2 0x261 SWAP2 SWAP1 PUSH2 0x1C89 JUMP JUMPDEST POP POP POP PUSH1 0x0 SWAP3 DUP4 MSTORE POP PUSH1 0x20 DUP3 DUP2 MSTORE PUSH1 0x40 DUP1 DUP5 KECCAK256 SWAP3 DUP5 MSTORE SWAP2 SWAP1 MSTORE SWAP1 KECCAK256 SLOAD SWAP1 JUMP JUMPDEST DUP4 DUP4 PUSH32 0x0 PUSH1 0x1 PUSH1 0x1 PUSH1 0xA0 SHL SUB AND PUSH4 0xD2ADBE79 PUSH1 0x40 MLOAD DUP2 PUSH4 0xFFFFFFFF AND PUSH1 0xE0 SHL DUP2 MSTORE PUSH1 0x4 ADD PUSH1 0x20 PUSH1 0x40 MLOAD DUP1 DUP4 SUB DUP2 DUP7 GAS STATICCALL ISZERO DUP1 ISZERO PUSH2 0xA7F JUMPI RETURNDATASIZE PUSH1 0x0 DUP1 RETURNDATACOPY RETURNDATASIZE PUSH1 0x0 REVERT JUMPDEST POP POP POP POP PUSH1 0x40 MLOAD RETURNDATASIZE PUSH1 0x1F NOT PUSH1 0x1F DUP3 ADD AND DUP3 ADD DUP1 PUSH1 0x40 MSTORE POP DUP2 ADD SWAP1 PUSH2 0xAA3 SWAP2 SWAP1 PUSH2 0x1CB5 JUMP JUMPDEST DUP3 LT PUSH1 0x40 MLOAD DUP1 PUSH1 0x40 ADD PUSH1 0x40 MSTORE DUP1 PUSH1 0x1 DUP2 MSTORE PUSH1 0x20 ADD PUSH1 0x35 PUSH1 0xF8 SHL DUP2 MSTORE POP SWAP1 PUSH2 0xADD JUMPI PUSH1 0x40 MLOAD PUSH3 0x461BCD PUSH1 0xE5 SHL DUP2 MSTORE PUSH1 0x4 ADD PUSH2 0x261 SWAP2 SWAP1 PUSH2 0x1C89 JUMP JUMPDEST POP PUSH1 0x0 DUP3 DUP2 MSTORE PUSH1 0x1 PUSH1 0x20 DUP2 DUP2 MSTORE PUSH1 0x40 SWAP3 DUP4 SWAP1 KECCAK256 SLOAD DUP4 MLOAD DUP1 DUP6 ADD SWAP1 SWAP5 MSTORE SWAP2 DUP4 MSTORE PUSH1 0x1B PUSH1 0xF9 SHL SWAP1 DUP4 ADD MSTORE DUP3 LT PUSH2 0xB24 JUMPI PUSH1 0x40 MLOAD PUSH3 0x461BCD PUSH1 0xE5 SHL DUP2 MSTORE PUSH1 0x4 ADD PUSH2 0x261 SWAP2 SWAP1 PUSH2 0x1C89 JUMP JUMPDEST POP PUSH1 0x40 MLOAD PUSH4 0x3C23D3D9 PUSH1 0xE2 SHL DUP2 MSTORE PUSH1 0x4 DUP2 ADD DUP8 SWAP1 MSTORE DUP7 SWAP1 PUSH1 0x0 SWAP1 PUSH1 0x1 PUSH1 0x1 PUSH1 0xA0 SHL SUB PUSH32 0x0 AND SWAP1 PUSH4 0xF08F4F64 SWAP1 PUSH1 0x24 ADD PUSH1 0x0 PUSH1 0x40 MLOAD DUP1 DUP4 SUB DUP2 DUP7 GAS STATICCALL ISZERO DUP1 ISZERO PUSH2 0xB8F JUMPI RETURNDATASIZE PUSH1 0x0 DUP1 RETURNDATACOPY RETURNDATASIZE PUSH1 0x0 REVERT JUMPDEST POP POP POP POP PUSH1 0x40 MLOAD RETURNDATASIZE PUSH1 0x0 DUP3 RETURNDATACOPY PUSH1 0x1F RETURNDATASIZE SWAP1 DUP2 ADD PUSH1 0x1F NOT AND DUP3 ADD PUSH1 0x40 MSTORE PUSH2 0xBB7 SWAP2 SWAP1 DUP2 ADD SWAP1 PUSH2 0x1D02 JUMP JUMPDEST POP POP PUSH1 0x40 DUP1 MLOAD DUP1 DUP3 ADD SWAP1 SWAP2 MSTORE PUSH1 0x1 DUP2 MSTORE PUSH1 0x31 PUSH1 0xF8 SHL PUSH1 0x20 DUP3 ADD MSTORE SWAP1 SWAP2 POP PUSH1 0x1 PUSH1 0x1 PUSH1 0xA0 SHL SUB DUP3 AND CALLER EQ PUSH2 0xBFD JUMPI PUSH1 0x40 MLOAD PUSH3 0x461BCD PUSH1 0xE5 SHL DUP2 MSTORE PUSH1 0x4 ADD PUSH2 0x261 SWAP2 SWAP1 PUSH2 0x1C89 JUMP JUMPDEST POP PUSH2 0xC0A DUP9 DUP9 DUP9 DUP9 PUSH2 0x1374 JUMP JUMPDEST PUSH1 0x40 DUP1 MLOAD DUP10 DUP2 MSTORE PUSH1 0x20 DUP2 ADD DUP10 SWAP1 MSTORE PUSH32 0x28F392C3F5B680337F75A44445646CA32CACD93B1364636DEB260906C1E35944 SWAP2 ADD PUSH1 0x40 MLOAD DUP1 SWAP2 SUB SWAP1 LOG1 POP POP POP POP POP POP POP POP JUMP JUMPDEST DUP4 DUP4 PUSH32 0x0 PUSH1 0x1 PUSH1 0x1 PUSH1 0xA0 SHL SUB AND PUSH4 0xD2ADBE79 PUSH1 0x40 MLOAD DUP2 PUSH4 0xFFFFFFFF AND PUSH1 0xE0 SHL DUP2 MSTORE PUSH1 0x4 ADD PUSH1 0x20 PUSH1 0x40 MLOAD DUP1 DUP4 SUB DUP2 DUP7 GAS STATICCALL ISZERO DUP1 ISZERO PUSH2 0xCAD JUMPI RETURNDATASIZE PUSH1 0x0 DUP1 RETURNDATACOPY RETURNDATASIZE PUSH1 0x0 REVERT JUMPDEST POP POP POP POP PUSH1 0x40 MLOAD RETURNDATASIZE PUSH1 0x1F NOT PUSH1 0x1F DUP3 ADD AND DUP3 ADD DUP1 PUSH1 0x40 MSTORE POP DUP2 ADD SWAP1 PUSH2 0xCD1 SWAP2 SWAP1 PUSH2 0x1CB5 JUMP JUMPDEST DUP3 LT PUSH1 0x40 MLOAD DUP1 PUSH1 0x40 ADD PUSH1 0x40 MSTORE DUP1 PUSH1 0x1 DUP2 MSTORE PUSH1 0x20 ADD PUSH1 0x35 PUSH1 0xF8 SHL DUP2 MSTORE POP SWAP1 PUSH2 0xD0B JUMPI PUSH1 0x40 MLOAD PUSH3 0x461BCD PUSH1 0xE5 SHL DUP2 MSTORE PUSH1 0x4 ADD PUSH2 0x261 SWAP2 SWAP1 PUSH2 0x1C89 JUMP JUMPDEST POP PUSH1 0x0 DUP3 DUP2 MSTORE PUSH1 0x1 PUSH1 0x20 DUP2 DUP2 MSTORE PUSH1 0x40 SWAP3 DUP4 SWAP1 KECCAK256 SLOAD DUP4 MLOAD DUP1 DUP6 ADD SWAP1 SWAP5 MSTORE SWAP2 DUP4 MSTORE PUSH1 0x1B PUSH1 0xF9 SHL SWAP1 DUP4 ADD MSTORE DUP3 LT PUSH2 0xD52 JUMPI PUSH1 0x40 MLOAD PUSH3 0x461BCD PUSH1 0xE5 SHL DUP2 MSTORE PUSH1 0x4 ADD PUSH2 0x261 SWAP2 SWAP1 PUSH2 0x1C89 JUMP JUMPDEST POP PUSH1 0x40 MLOAD PUSH4 0x3C23D3D9 PUSH1 0xE2 SHL DUP2 MSTORE PUSH1 0x4 DUP2 ADD DUP8 SWAP1 MSTORE DUP7 SWAP1 PUSH1 0x0 SWAP1 PUSH1 0x1 PUSH1 0x1 PUSH1 0xA0 SHL SUB PUSH32 0x0 AND SWAP1 PUSH4 0xF08F4F64 SWAP1 PUSH1 0x24 ADD PUSH1 0x0 PUSH1 0x40 MLOAD DUP1 DUP4 SUB DUP2 DUP7 GAS STATICCALL ISZERO DUP1 ISZERO PUSH2 0xDBD JUMPI RETURNDATASIZE PUSH1 0x0 DUP1 RETURNDATACOPY RETURNDATASIZE PUSH1 0x0 REVERT JUMPDEST POP POP POP POP PUSH1 0x40 MLOAD RETURNDATASIZE PUSH1 0x0 DUP3 RETURNDATACOPY PUSH1 0x1F RETURNDATASIZE SWAP1 DUP2 ADD PUSH1 0x1F NOT AND DUP3 ADD PUSH1 0x40 MSTORE PUSH2 0xDE5 SWAP2 SWAP1 DUP2 ADD SWAP1 PUSH2 0x1D02 JUMP JUMPDEST POP POP PUSH1 0x40 DUP1 MLOAD DUP1 DUP3 ADD SWAP1 SWAP2 MSTORE PUSH1 0x1 DUP2 MSTORE PUSH1 0x31 PUSH1 0xF8 SHL PUSH1 0x20 DUP3 ADD MSTORE SWAP1 SWAP2 POP PUSH1 0x1 PUSH1 0x1 PUSH1 0xA0 SHL SUB DUP3 AND CALLER EQ PUSH2 0xE2B JUMPI PUSH1 0x40 MLOAD PUSH3 0x461BCD PUSH1 0xE5 SHL DUP2 MSTORE PUSH1 0x4 ADD PUSH2 0x261 SWAP2 SWAP1 PUSH2 0x1C89 JUMP JUMPDEST POP PUSH2 0xE38 DUP9 DUP9 DUP9 DUP9 PUSH2 0x1480 JUMP JUMPDEST POP POP POP POP POP POP POP POP JUMP JUMPDEST PUSH1 0x0 DUP5 DUP5 DUP5 PUSH32 0x0 PUSH1 0x1 PUSH1 0x1 PUSH1 0xA0 SHL SUB AND PUSH4 0xD2ADBE79 PUSH1 0x40 MLOAD DUP2 PUSH4 0xFFFFFFFF AND PUSH1 0xE0 SHL DUP2 MSTORE PUSH1 0x4 ADD PUSH1 0x20 PUSH1 0x40 MLOAD DUP1 DUP4 SUB DUP2 DUP7 GAS STATICCALL ISZERO DUP1 ISZERO PUSH2 0xEA5 JUMPI RETURNDATASIZE PUSH1 0x0 DUP1 RETURNDATACOPY RETURNDATASIZE PUSH1 0x0 REVERT JUMPDEST POP POP POP POP PUSH1 0x40 MLOAD RETURNDATASIZE PUSH1 0x1F NOT PUSH1 0x1F DUP3 ADD AND DUP3 ADD DUP1 PUSH1 0x40 MSTORE POP DUP2 ADD SWAP1 PUSH2 0xEC9 SWAP2 SWAP1 PUSH2 0x1CB5 JUMP JUMPDEST DUP4 LT PUSH1 0x40 MLOAD DUP1 PUSH1 0x40 ADD PUSH1 0x40 MSTORE DUP1 PUSH1 0x1 DUP2 MSTORE PUSH1 0x20 ADD PUSH1 0x35 PUSH1 0xF8 SHL DUP2 MSTORE POP SWAP1 PUSH2 0xF03 JUMPI PUSH1 0x40 MLOAD PUSH3 0x461BCD PUSH1 0xE5 SHL DUP2 MSTORE PUSH1 0x4 ADD PUSH2 0x261 SWAP2 SWAP1 PUSH2 0x1C89 JUMP JUMPDEST POP PUSH1 0x0 DUP4 DUP2 MSTORE PUSH1 0x1 PUSH1 0x20 DUP2 DUP2 MSTORE PUSH1 0x40 SWAP3 DUP4 SWAP1 KECCAK256 SLOAD DUP4 MLOAD DUP1 DUP6 ADD SWAP1 SWAP5 MSTORE SWAP2 DUP4 MSTORE PUSH1 0x1B PUSH1 0xF9 SHL SWAP1 DUP4 ADD MSTORE DUP4 LT PUSH2 0xF4A JUMPI PUSH1 0x40 MLOAD PUSH3 0x461BCD PUSH1 0xE5 SHL DUP2 MSTORE PUSH1 0x4 ADD PUSH2 0x261 SWAP2 SWAP1 PUSH2 0x1C89 JUMP JUMPDEST POP PUSH1 0x0 DUP4 DUP2 MSTORE PUSH1 0x20 DUP2 DUP2 MSTORE PUSH1 0x40 DUP1 DUP4 KECCAK256 DUP6 DUP5 MSTORE DUP3 MSTORE SWAP2 DUP3 SWAP1 KECCAK256 SLOAD DUP3 MLOAD DUP1 DUP5 ADD SWAP1 SWAP4 MSTORE PUSH1 0x1 DUP4 MSTORE PUSH1 0x37 PUSH1 0xF8 SHL SWAP2 DUP4 ADD SWAP2 SWAP1 SWAP2 MSTORE DUP3 LT PUSH2 0xF9B JUMPI PUSH1 0x40 MLOAD PUSH3 0x461BCD PUSH1 0xE5 SHL DUP2 MSTORE PUSH1 0x4 ADD PUSH2 0x261 SWAP2 SWAP1 PUSH2 0x1C89 JUMP JUMPDEST POP PUSH1 0x0 DUP9 DUP2 MSTORE PUSH1 0x20 DUP2 DUP2 MSTORE PUSH1 0x40 DUP1 DUP4 KECCAK256 DUP11 DUP5 MSTORE DUP3 MSTORE DUP1 DUP4 KECCAK256 PUSH1 0x1 PUSH1 0x1 PUSH1 0xA0 SHL SUB DUP10 AND DUP5 MSTORE PUSH1 0x2 SWAP1 DUP2 ADD DUP4 MSTORE SWAP3 DUP2 SWAP1 KECCAK256 SLOAD DUP2 MLOAD DUP1 DUP4 ADD SWAP1 SWAP3 MSTORE SWAP3 DUP2 MSTORE PUSH2 0x627 PUSH1 0xF3 SHL SWAP2 DUP2 ADD SWAP2 SWAP1 SWAP2 MSTORE SWAP1 PUSH2 0x1001 JUMPI PUSH1 0x40 MLOAD PUSH3 0x461BCD PUSH1 0xE5 SHL DUP2 MSTORE PUSH1 0x4 ADD PUSH2 0x261 SWAP2 SWAP1 PUSH2 0x1C89 JUMP JUMPDEST POP PUSH1 0x0 DUP9 DUP2 MSTORE PUSH1 0x20 DUP2 DUP2 MSTORE PUSH1 0x40 DUP1 DUP4 KECCAK256 DUP11 DUP5 MSTORE SWAP1 SWAP2 MSTORE SWAP1 KECCAK256 DUP1 SLOAD PUSH2 0x106B SWAP2 SWAP1 DUP9 SWAP1 DUP2 LT PUSH2 0x1030 JUMPI PUSH2 0x1030 PUSH2 0x1DD1 JUMP JUMPDEST PUSH1 0x0 SWAP2 DUP3 MSTORE PUSH1 0x20 DUP1 DUP4 KECCAK256 SWAP1 SWAP2 ADD SLOAD DUP12 DUP4 MSTORE DUP3 DUP3 MSTORE PUSH1 0x40 DUP1 DUP5 KECCAK256 DUP13 DUP6 MSTORE DUP4 MSTORE DUP1 DUP5 KECCAK256 PUSH1 0x1 PUSH1 0x1 PUSH1 0xA0 SHL SUB DUP12 AND DUP6 MSTORE PUSH1 0x2 ADD SWAP1 SWAP3 MSTORE SWAP2 KECCAK256 SLOAD PUSH2 0x15EB JUMP JUMPDEST SWAP9 SWAP8 POP POP POP POP POP POP POP POP JUMP JUMPDEST PUSH1 0x60 DUP4 DUP4 DUP4 PUSH32 0x0 PUSH1 0x1 PUSH1 0x1 PUSH1 0xA0 SHL SUB AND PUSH4 0xD2ADBE79 PUSH1 0x40 MLOAD DUP2 PUSH4 0xFFFFFFFF AND PUSH1 0xE0 SHL DUP2 MSTORE PUSH1 0x4 ADD PUSH1 0x20 PUSH1 0x40 MLOAD DUP1 DUP4 SUB DUP2 DUP7 GAS STATICCALL ISZERO DUP1 ISZERO PUSH2 0x10DA JUMPI RETURNDATASIZE PUSH1 0x0 DUP1 RETURNDATACOPY RETURNDATASIZE PUSH1 0x0 REVERT JUMPDEST POP POP POP POP PUSH1 0x40 MLOAD RETURNDATASIZE PUSH1 0x1F NOT PUSH1 0x1F DUP3 ADD AND DUP3 ADD DUP1 PUSH1 0x40 MSTORE POP DUP2 ADD SWAP1 PUSH2 0x10FE SWAP2 SWAP1 PUSH2 0x1CB5 JUMP JUMPDEST DUP4 LT PUSH1 0x40 MLOAD DUP1 PUSH1 0x40 ADD PUSH1 0x40 MSTORE DUP1 PUSH1 0x1 DUP2 MSTORE PUSH1 0x20 ADD PUSH1 0x35 PUSH1 0xF8 SHL DUP2 MSTORE POP SWAP1 PUSH2 0x1138 JUMPI PUSH1 0x40 MLOAD PUSH3 0x461BCD PUSH1 0xE5 SHL DUP2 MSTORE PUSH1 0x4 ADD PUSH2 0x261 SWAP2 SWAP1 PUSH2 0x1C89 JUMP JUMPDEST POP PUSH1 0x0 DUP4 DUP2 MSTORE PUSH1 0x1 PUSH1 0x20 DUP2 DUP2 MSTORE PUSH1 0x40 SWAP3 DUP4 SWAP1 KECCAK256 SLOAD DUP4 MLOAD DUP1 DUP6 ADD SWAP1 SWAP5 MSTORE SWAP2 DUP4 MSTORE PUSH1 0x1B PUSH1 0xF9 SHL SWAP1 DUP4 ADD MSTORE DUP4 LT PUSH2 0x117F JUMPI PUSH1 0x40 MLOAD PUSH3 0x461BCD PUSH1 0xE5 SHL DUP2 MSTORE PUSH1 0x4 ADD PUSH2 0x261 SWAP2 SWAP1 PUSH2 0x1C89 JUMP JUMPDEST POP PUSH1 0x0 DUP4 DUP2 MSTORE PUSH1 0x20 DUP2 DUP2 MSTORE PUSH1 0x40 DUP1 DUP4 KECCAK256 DUP6 DUP5 MSTORE DUP3 MSTORE SWAP2 DUP3 SWAP1 KECCAK256 SLOAD DUP3 MLOAD DUP1 DUP5 ADD SWAP1 SWAP4 MSTORE PUSH1 0x1 DUP4 MSTORE PUSH1 0x37 PUSH1 0xF8 SHL SWAP2 DUP4 ADD SWAP2 SWAP1 SWAP2 MSTORE DUP3 LT PUSH2 0x11D0 JUMPI PUSH1 0x40 MLOAD PUSH3 0x461BCD PUSH1 0xE5 SHL DUP2 MSTORE PUSH1 0x4 ADD PUSH2 0x261 SWAP2 SWAP1 PUSH2 0x1C89 JUMP JUMPDEST POP PUSH1 0x0 DUP8 DUP2 MSTORE PUSH1 0x20 DUP2 DUP2 MSTORE PUSH1 0x40 DUP1 DUP4 KECCAK256 DUP10 DUP5 MSTORE SWAP1 SWAP2 MSTORE SWAP1 KECCAK256 PUSH1 0x1 ADD DUP1 SLOAD DUP7 SWAP1 DUP2 LT PUSH2 0x11FD JUMPI PUSH2 0x11FD PUSH2 0x1DD1 JUMP JUMPDEST SWAP1 PUSH1 0x0 MSTORE PUSH1 0x20 PUSH1 0x0 KECCAK256 ADD DUP1 SLOAD PUSH2 0x1212 SWAP1 PUSH2 0x1CCE JUMP JUMPDEST DUP1 PUSH1 0x1F ADD PUSH1 0x20 DUP1 SWAP2 DIV MUL PUSH1 0x20 ADD PUSH1 0x40 MLOAD SWAP1 DUP2 ADD PUSH1 0x40 MSTORE DUP1 SWAP3 SWAP2 SWAP1 DUP2 DUP2 MSTORE PUSH1 0x20 ADD DUP3 DUP1 SLOAD PUSH2 0x123E SWAP1 PUSH2 0x1CCE JUMP JUMPDEST DUP1 ISZERO PUSH2 0x128B JUMPI DUP1 PUSH1 0x1F LT PUSH2 0x1260 JUMPI PUSH2 0x100 DUP1 DUP4 SLOAD DIV MUL DUP4 MSTORE SWAP2 PUSH1 0x20 ADD SWAP2 PUSH2 0x128B JUMP JUMPDEST DUP3 ADD SWAP2 SWAP1 PUSH1 0x0 MSTORE PUSH1 0x20 PUSH1 0x0 KECCAK256 SWAP1 JUMPDEST DUP2 SLOAD DUP2 MSTORE SWAP1 PUSH1 0x1 ADD SWAP1 PUSH1 0x20 ADD DUP1 DUP4 GT PUSH2 0x126E JUMPI DUP3 SWAP1 SUB PUSH1 0x1F AND DUP3 ADD SWAP2 JUMPDEST POP POP POP POP POP SWAP4 POP POP POP POP SWAP4 SWAP3 POP POP POP JUMP JUMPDEST PUSH1 0x0 DUP2 PUSH32 0x0 PUSH1 0x1 PUSH1 0x1 PUSH1 0xA0 SHL SUB AND PUSH4 0xD2ADBE79 PUSH1 0x40 MLOAD DUP2 PUSH4 0xFFFFFFFF AND PUSH1 0xE0 SHL DUP2 MSTORE PUSH1 0x4 ADD PUSH1 0x20 PUSH1 0x40 MLOAD DUP1 DUP4 SUB DUP2 DUP7 GAS STATICCALL ISZERO DUP1 ISZERO PUSH2 0x12FD JUMPI RETURNDATASIZE PUSH1 0x0 DUP1 RETURNDATACOPY RETURNDATASIZE PUSH1 0x0 REVERT JUMPDEST POP POP POP POP PUSH1 0x40 MLOAD RETURNDATASIZE PUSH1 0x1F NOT PUSH1 0x1F DUP3 ADD AND DUP3 ADD DUP1 PUSH1 0x40 MSTORE POP DUP2 ADD SWAP1 PUSH2 0x1321 SWAP2 SWAP1 PUSH2 0x1CB5 JUMP JUMPDEST DUP2 LT PUSH1 0x40 MLOAD DUP1 PUSH1 0x40 ADD PUSH1 0x40 MSTORE DUP1 PUSH1 0x1 DUP2 MSTORE PUSH1 0x20 ADD PUSH1 0x35 PUSH1 0xF8 SHL DUP2 MSTORE POP SWAP1 PUSH2 0x135B JUMPI PUSH1 0x40 MLOAD PUSH3 0x461BCD PUSH1 0xE5 SHL DUP2 MSTORE PUSH1 0x4 ADD PUSH2 0x261 SWAP2 SWAP1 PUSH2 0x1C89 JUMP JUMPDEST POP PUSH1 0x0 DUP4 DUP2 MSTORE PUSH1 0x1 PUSH1 0x20 MSTORE PUSH1 0x40 SWAP1 KECCAK256 SLOAD SWAP2 POP JUMPDEST POP SWAP2 SWAP1 POP JUMP JUMPDEST DUP1 MLOAD DUP3 MLOAD EQ PUSH1 0x40 MLOAD DUP1 PUSH1 0x40 ADD PUSH1 0x40 MSTORE DUP1 PUSH1 0x2 DUP2 MSTORE PUSH1 0x20 ADD PUSH2 0x3137 PUSH1 0xF0 SHL DUP2 MSTORE POP SWAP1 PUSH2 0x13B2 JUMPI PUSH1 0x40 MLOAD PUSH3 0x461BCD PUSH1 0xE5 SHL DUP2 MSTORE PUSH1 0x4 ADD PUSH2 0x261 SWAP2 SWAP1 PUSH2 0x1C89 JUMP JUMPDEST POP PUSH1 0x0 JUMPDEST DUP3 MLOAD DUP2 LT ISZERO PUSH2 0x1427 JUMPI PUSH1 0x0 DUP4 DUP3 DUP2 MLOAD DUP2 LT PUSH2 0x13D3 JUMPI PUSH2 0x13D3 PUSH2 0x1DD1 JUMP JUMPDEST PUSH1 0x20 MUL PUSH1 0x20 ADD ADD MLOAD GT PUSH1 0x40 MLOAD DUP1 PUSH1 0x40 ADD PUSH1 0x40 MSTORE DUP1 PUSH1 0x1 DUP2 MSTORE PUSH1 0x20 ADD PUSH1 0x19 PUSH1 0xF9 SHL DUP2 MSTORE POP SWAP1 PUSH2 0x1414 JUMPI PUSH1 0x40 MLOAD PUSH3 0x461BCD PUSH1 0xE5 SHL DUP2 MSTORE PUSH1 0x4 ADD PUSH2 0x261 SWAP2 SWAP1 PUSH2 0x1C89 JUMP JUMPDEST POP DUP1 PUSH2 0x141F DUP2 PUSH2 0x1DB8 JUMP JUMPDEST SWAP2 POP POP PUSH2 0x13B6 JUMP JUMPDEST POP PUSH1 0x0 DUP5 DUP2 MSTORE PUSH1 0x20 DUP2 DUP2 MSTORE PUSH1 0x40 DUP1 DUP4 KECCAK256 DUP7 DUP5 MSTORE DUP3 MSTORE SWAP1 SWAP2 KECCAK256 DUP4 MLOAD PUSH2 0x144D SWAP3 DUP6 ADD SWAP1 PUSH2 0x15FE JUMP JUMPDEST POP PUSH1 0x0 DUP5 DUP2 MSTORE PUSH1 0x20 DUP2 DUP2 MSTORE PUSH1 0x40 DUP1 DUP4 KECCAK256 DUP7 DUP5 MSTORE DUP3 MSTORE SWAP1 SWAP2 KECCAK256 DUP3 MLOAD PUSH2 0x1479 SWAP3 PUSH1 0x1 SWAP1 SWAP3 ADD SWAP2 DUP5 ADD SWAP1 PUSH2 0x1649 JUMP JUMPDEST POP POP POP POP POP JUMP JUMPDEST DUP1 MLOAD DUP3 MLOAD EQ PUSH1 0x40 MLOAD DUP1 PUSH1 0x40 ADD PUSH1 0x40 MSTORE DUP1 PUSH1 0x2 DUP2 MSTORE PUSH1 0x20 ADD PUSH2 0x3137 PUSH1 0xF0 SHL DUP2 MSTORE POP SWAP1 PUSH2 0x14BE JUMPI PUSH1 0x40 MLOAD PUSH3 0x461BCD PUSH1 0xE5 SHL DUP2 MSTORE PUSH1 0x4 ADD PUSH2 0x261 SWAP2 SWAP1 PUSH2 0x1C89 JUMP JUMPDEST POP PUSH1 0x0 JUMPDEST DUP2 MLOAD DUP2 LT ISZERO PUSH2 0x1479 JUMPI DUP2 DUP2 DUP2 MLOAD DUP2 LT PUSH2 0x14DD JUMPI PUSH2 0x14DD PUSH2 0x1DD1 JUMP JUMPDEST PUSH1 0x20 MUL PUSH1 0x20 ADD ADD MLOAD PUSH1 0x0 DUP1 DUP8 DUP2 MSTORE PUSH1 0x20 ADD SWAP1 DUP2 MSTORE PUSH1 0x20 ADD PUSH1 0x0 KECCAK256 PUSH1 0x0 DUP7 DUP2 MSTORE PUSH1 0x20 ADD SWAP1 DUP2 MSTORE PUSH1 0x20 ADD PUSH1 0x0 KECCAK256 PUSH1 0x2 ADD PUSH1 0x0 DUP6 DUP5 DUP2 MLOAD DUP2 LT PUSH2 0x151F JUMPI PUSH2 0x151F PUSH2 0x1DD1 JUMP JUMPDEST PUSH1 0x20 MUL PUSH1 0x20 ADD ADD MLOAD PUSH1 0x1 PUSH1 0x1 PUSH1 0xA0 SHL SUB AND PUSH1 0x1 PUSH1 0x1 PUSH1 0xA0 SHL SUB AND DUP2 MSTORE PUSH1 0x20 ADD SWAP1 DUP2 MSTORE PUSH1 0x20 ADD PUSH1 0x0 KECCAK256 DUP2 SWAP1 SSTORE POP PUSH32 0x112A61336CC8E65D62264020241BBE6116FC2B406DAC1231F46FCEC601F9BEC DUP6 DUP6 DUP6 DUP5 DUP2 MLOAD DUP2 LT PUSH2 0x1580 JUMPI PUSH2 0x1580 PUSH2 0x1DD1 JUMP JUMPDEST PUSH1 0x20 MUL PUSH1 0x20 ADD ADD MLOAD DUP6 DUP6 DUP2 MLOAD DUP2 LT PUSH2 0x159A JUMPI PUSH2 0x159A PUSH2 0x1DD1 JUMP JUMPDEST PUSH1 0x20 MUL PUSH1 0x20 ADD ADD MLOAD PUSH1 0x40 MLOAD PUSH2 0x15D1 SWAP5 SWAP4 SWAP3 SWAP2 SWAP1 SWAP4 DUP5 MSTORE PUSH1 0x20 DUP5 ADD SWAP3 SWAP1 SWAP3 MSTORE PUSH1 0x1 PUSH1 0x1 PUSH1 0xA0 SHL SUB AND PUSH1 0x40 DUP4 ADD MSTORE PUSH1 0x60 DUP3 ADD MSTORE PUSH1 0x80 ADD SWAP1 JUMP JUMPDEST PUSH1 0x40 MLOAD DUP1 SWAP2 SUB SWAP1 LOG1 DUP1 PUSH2 0x15E3 DUP2 PUSH2 0x1DB8 JUMP JUMPDEST SWAP2 POP POP PUSH2 0x14C2 JUMP JUMPDEST PUSH1 0x0 PUSH2 0x15F7 DUP3 DUP5 PUSH2 0x1DE7 JUMP JUMPDEST SWAP4 SWAP3 POP POP POP JUMP JUMPDEST DUP3 DUP1 SLOAD DUP3 DUP3 SSTORE SWAP1 PUSH1 0x0 MSTORE PUSH1 0x20 PUSH1 0x0 KECCAK256 SWAP1 DUP2 ADD SWAP3 DUP3 ISZERO PUSH2 0x1639 JUMPI SWAP2 PUSH1 0x20 MUL DUP3 ADD JUMPDEST DUP3 DUP2 GT ISZERO PUSH2 0x1639 JUMPI DUP3 MLOAD DUP3 SSTORE SWAP2 PUSH1 0x20 ADD SWAP2 SWAP1 PUSH1 0x1 ADD SWAP1 PUSH2 0x161E JUMP JUMPDEST POP PUSH2 0x1645 SWAP3 SWAP2 POP PUSH2 0x169B JUMP JUMPDEST POP SWAP1 JUMP JUMPDEST DUP3 DUP1 SLOAD DUP3 DUP3 SSTORE SWAP1 PUSH1 0x0 MSTORE PUSH1 0x20 PUSH1 0x0 KECCAK256 SWAP1 DUP2 ADD SWAP3 DUP3 ISZERO PUSH2 0x168F JUMPI SWAP2 PUSH1 0x20 MUL DUP3 ADD JUMPDEST DUP3 DUP2 GT ISZERO PUSH2 0x168F JUMPI DUP3 MLOAD DUP3 SWAP1 PUSH2 0x167F SWAP1 DUP3 PUSH2 0x1E55 JUMP JUMPDEST POP SWAP2 PUSH1 0x20 ADD SWAP2 SWAP1 PUSH1 0x1 ADD SWAP1 PUSH2 0x1669 JUMP JUMPDEST POP PUSH2 0x1645 SWAP3 SWAP2 POP PUSH2 0x16B0 JUMP JUMPDEST JUMPDEST DUP1 DUP3 GT ISZERO PUSH2 0x1645 JUMPI PUSH1 0x0 DUP2 SSTORE PUSH1 0x1 ADD PUSH2 0x169C JUMP JUMPDEST DUP1 DUP3 GT ISZERO PUSH2 0x1645 JUMPI PUSH1 0x0 PUSH2 0x16C4 DUP3 DUP3 PUSH2 0x16CD JUMP JUMPDEST POP PUSH1 0x1 ADD PUSH2 0x16B0 JUMP JUMPDEST POP DUP1 SLOAD PUSH2 0x16D9 SWAP1 PUSH2 0x1CCE JUMP JUMPDEST PUSH1 0x0 DUP3 SSTORE DUP1 PUSH1 0x1F LT PUSH2 0x16E9 JUMPI POP POP JUMP JUMPDEST PUSH1 0x1F ADD PUSH1 0x20 SWAP1 DIV SWAP1 PUSH1 0x0 MSTORE PUSH1 0x20 PUSH1 0x0 KECCAK256 SWAP1 DUP2 ADD SWAP1 PUSH2 0x1707 SWAP2 SWAP1 PUSH2 0x169B JUMP JUMPDEST POP JUMP JUMPDEST PUSH1 0x1 PUSH1 0x1 PUSH1 0xA0 SHL SUB DUP2 AND DUP2 EQ PUSH2 0x1707 JUMPI PUSH1 0x0 DUP1 REVERT JUMPDEST PUSH1 0x0 DUP1 PUSH1 0x0 PUSH1 0x60 DUP5 DUP7 SUB SLT ISZERO PUSH2 0x1734 JUMPI PUSH1 0x0 DUP1 REVERT JUMPDEST DUP4 CALLDATALOAD SWAP3 POP PUSH1 0x20 DUP5 ADD CALLDATALOAD SWAP2 POP PUSH1 0x40 DUP5 ADD CALLDATALOAD PUSH2 0x174D DUP2 PUSH2 0x170A JUMP JUMPDEST DUP1 SWAP2 POP POP SWAP3 POP SWAP3 POP SWAP3 JUMP JUMPDEST PUSH1 0x0 DUP1 PUSH1 0x40 DUP4 DUP6 SUB SLT ISZERO PUSH2 0x176B JUMPI PUSH1 0x0 DUP1 REVERT JUMPDEST POP POP DUP1 CALLDATALOAD SWAP3 PUSH1 0x20 SWAP1 SWAP2 ADD CALLDATALOAD SWAP2 POP JUMP JUMPDEST PUSH1 0x0 JUMPDEST DUP4 DUP2 LT ISZERO PUSH2 0x1795 JUMPI DUP2 DUP2 ADD MLOAD DUP4 DUP3 ADD MSTORE PUSH1 0x20 ADD PUSH2 0x177D JUMP JUMPDEST POP POP PUSH1 0x0 SWAP2 ADD MSTORE JUMP JUMPDEST PUSH1 0x0 DUP2 MLOAD DUP1 DUP5 MSTORE PUSH2 0x17B6 DUP2 PUSH1 0x20 DUP7 ADD PUSH1 0x20 DUP7 ADD PUSH2 0x177A JUMP JUMPDEST PUSH1 0x1F ADD PUSH1 0x1F NOT AND SWAP3 SWAP1 SWAP3 ADD PUSH1 0x20 ADD SWAP3 SWAP2 POP POP JUMP JUMPDEST PUSH1 0x40 DUP1 DUP3 MSTORE DUP4 MLOAD SWAP1 DUP3 ADD DUP2 SWAP1 MSTORE PUSH1 0x0 SWAP1 PUSH1 0x20 SWAP1 PUSH1 0x60 DUP5 ADD SWAP1 DUP3 DUP8 ADD DUP5 JUMPDEST DUP3 DUP2 LT ISZERO PUSH2 0x1803 JUMPI DUP2 MLOAD DUP5 MSTORE SWAP3 DUP5 ADD SWAP3 SWAP1 DUP5 ADD SWAP1 PUSH1 0x1 ADD PUSH2 0x17E7 JUMP JUMPDEST POP POP POP DUP4 DUP2 SUB DUP3 DUP6 ADD MSTORE DUP5 MLOAD DUP1 DUP3 MSTORE DUP3 DUP3 ADD SWAP1 PUSH1 0x5 DUP2 SWAP1 SHL DUP4 ADD DUP5 ADD DUP8 DUP6 ADD PUSH1 0x0 JUMPDEST DUP4 DUP2 LT ISZERO PUSH2 0x1853 JUMPI PUSH1 0x1F NOT DUP7 DUP5 SUB ADD DUP6 MSTORE PUSH2 0x1841 DUP4 DUP4 MLOAD PUSH2 0x179E JUMP JUMPDEST SWAP5 DUP8 ADD SWAP5 SWAP3 POP SWAP1 DUP7 ADD SWAP1 PUSH1 0x1 ADD PUSH2 0x1825 JUMP JUMPDEST POP SWAP1 SWAP10 SWAP9 POP POP POP POP POP POP POP POP POP JUMP JUMPDEST PUSH4 0x4E487B71 PUSH1 0xE0 SHL PUSH1 0x0 MSTORE PUSH1 0x41 PUSH1 0x4 MSTORE PUSH1 0x24 PUSH1 0x0 REVERT JUMPDEST PUSH1 0x40 MLOAD PUSH1 0x1F DUP3 ADD PUSH1 0x1F NOT AND DUP2 ADD PUSH8 0xFFFFFFFFFFFFFFFF DUP2 GT DUP3 DUP3 LT OR ISZERO PUSH2 0x18A1 JUMPI PUSH2 0x18A1 PUSH2 0x1862 JUMP JUMPDEST PUSH1 0x40 MSTORE SWAP2 SWAP1 POP JUMP JUMPDEST PUSH1 0x0 PUSH8 0xFFFFFFFFFFFFFFFF DUP3 GT ISZERO PUSH2 0x18C3 JUMPI PUSH2 0x18C3 PUSH2 0x1862 JUMP JUMPDEST POP PUSH1 0x5 SHL PUSH1 0x20 ADD SWAP1 JUMP JUMPDEST PUSH1 0x0 DUP3 PUSH1 0x1F DUP4 ADD SLT PUSH2 0x18DE JUMPI PUSH1 0x0 DUP1 REVERT JUMPDEST DUP2 CALLDATALOAD PUSH1 0x20 PUSH2 0x18F3 PUSH2 0x18EE DUP4 PUSH2 0x18A9 JUMP JUMPDEST PUSH2 0x1878 JUMP JUMPDEST DUP3 DUP2 MSTORE PUSH1 0x5 SWAP3 SWAP1 SWAP3 SHL DUP5 ADD DUP2 ADD SWAP2 DUP2 DUP2 ADD SWAP1 DUP7 DUP5 GT ISZERO PUSH2 0x1912 JUMPI PUSH1 0x0 DUP1 REVERT JUMPDEST DUP3 DUP7 ADD JUMPDEST DUP5 DUP2 LT ISZERO PUSH2 0x192D JUMPI DUP1 CALLDATALOAD DUP4 MSTORE SWAP2 DUP4 ADD SWAP2 DUP4 ADD PUSH2 0x1916 JUMP JUMPDEST POP SWAP7 SWAP6 POP POP POP POP POP POP JUMP JUMPDEST PUSH1 0x0 PUSH8 0xFFFFFFFFFFFFFFFF DUP3 GT ISZERO PUSH2 0x1952 JUMPI PUSH2 0x1952 PUSH2 0x1862 JUMP JUMPDEST POP PUSH1 0x1F ADD PUSH1 0x1F NOT AND PUSH1 0x20 ADD SWAP1 JUMP JUMPDEST PUSH1 0x0 DUP3 PUSH1 0x1F DUP4 ADD SLT PUSH2 0x1971 JUMPI PUSH1 0x0 DUP1 REVERT JUMPDEST DUP2 CALLDATALOAD PUSH1 0x20 PUSH2 0x1981 PUSH2 0x18EE DUP4 PUSH2 0x18A9 JUMP JUMPDEST DUP3 DUP2 MSTORE PUSH1 0x5 SWAP3 SWAP1 SWAP3 SHL DUP5 ADD DUP2 ADD SWAP2 DUP2 DUP2 ADD SWAP1 DUP7 DUP5 GT ISZERO PUSH2 0x19A0 JUMPI PUSH1 0x0 DUP1 REVERT JUMPDEST DUP3 DUP7 ADD JUMPDEST DUP5 DUP2 LT ISZERO PUSH2 0x192D JUMPI DUP1 CALLDATALOAD PUSH8 0xFFFFFFFFFFFFFFFF DUP2 GT ISZERO PUSH2 0x19C4 JUMPI PUSH1 0x0 DUP1 DUP2 REVERT JUMPDEST DUP8 ADD PUSH1 0x3F DUP2 ADD DUP10 SGT PUSH2 0x19D6 JUMPI PUSH1 0x0 DUP1 DUP2 REVERT JUMPDEST DUP5 DUP2 ADD CALLDATALOAD PUSH1 0x40 PUSH2 0x19E8 PUSH2 0x18EE DUP4 PUSH2 0x1938 JUMP JUMPDEST DUP3 DUP2 MSTORE DUP12 DUP3 DUP5 DUP7 ADD ADD GT ISZERO PUSH2 0x19FD JUMPI PUSH1 0x0 DUP1 DUP2 REVERT JUMPDEST DUP3 DUP3 DUP6 ADD DUP10 DUP4 ADD CALLDATACOPY PUSH1 0x0 SWAP3 DUP2 ADD DUP9 ADD SWAP3 SWAP1 SWAP3 MSTORE POP DUP5 MSTORE POP SWAP2 DUP4 ADD SWAP2 DUP4 ADD PUSH2 0x19A4 JUMP JUMPDEST PUSH1 0x0 DUP3 PUSH1 0x1F DUP4 ADD SLT PUSH2 0x1A30 JUMPI PUSH1 0x0 DUP1 REVERT JUMPDEST DUP2 CALLDATALOAD PUSH1 0x20 PUSH2 0x1A40 PUSH2 0x18EE DUP4 PUSH2 0x18A9 JUMP JUMPDEST DUP3 DUP2 MSTORE PUSH1 0x5 SWAP3 SWAP1 SWAP3 SHL DUP5 ADD DUP2 ADD SWAP2 DUP2 DUP2 ADD SWAP1 DUP7 DUP5 GT ISZERO PUSH2 0x1A5F JUMPI PUSH1 0x0 DUP1 REVERT JUMPDEST DUP3 DUP7 ADD JUMPDEST DUP5 DUP2 LT ISZERO PUSH2 0x192D JUMPI DUP1 CALLDATALOAD PUSH2 0x1A76 DUP2 PUSH2 0x170A JUMP JUMPDEST DUP4 MSTORE SWAP2 DUP4 ADD SWAP2 DUP4 ADD PUSH2 0x1A63 JUMP JUMPDEST PUSH1 0x0 DUP1 PUSH1 0x0 DUP1 PUSH1 0x0 PUSH1 0xA0 DUP7 DUP9 SUB SLT ISZERO PUSH2 0x1A9B JUMPI PUSH1 0x0 DUP1 REVERT JUMPDEST DUP6 CALLDATALOAD SWAP5 POP PUSH1 0x20 DUP7 ADD CALLDATALOAD PUSH8 0xFFFFFFFFFFFFFFFF DUP1 DUP3 GT ISZERO PUSH2 0x1ABA JUMPI PUSH1 0x0 DUP1 REVERT JUMPDEST PUSH2 0x1AC6 DUP10 DUP4 DUP11 ADD PUSH2 0x18CD JUMP JUMPDEST SWAP6 POP PUSH1 0x40 DUP9 ADD CALLDATALOAD SWAP2 POP DUP1 DUP3 GT ISZERO PUSH2 0x1ADC JUMPI PUSH1 0x0 DUP1 REVERT JUMPDEST PUSH2 0x1AE8 DUP10 DUP4 DUP11 ADD PUSH2 0x1960 JUMP JUMPDEST SWAP5 POP PUSH1 0x60 DUP9 ADD CALLDATALOAD SWAP2 POP DUP1 DUP3 GT ISZERO PUSH2 0x1AFE JUMPI PUSH1 0x0 DUP1 REVERT JUMPDEST PUSH2 0x1B0A DUP10 DUP4 DUP11 ADD PUSH2 0x1A1F JUMP JUMPDEST SWAP4 POP PUSH1 0x80 DUP9 ADD CALLDATALOAD SWAP2 POP DUP1 DUP3 GT ISZERO PUSH2 0x1B20 JUMPI PUSH1 0x0 DUP1 REVERT JUMPDEST POP PUSH2 0x1B2D DUP9 DUP3 DUP10 ADD PUSH2 0x18CD JUMP JUMPDEST SWAP2 POP POP SWAP3 SWAP6 POP SWAP3 SWAP6 SWAP1 SWAP4 POP JUMP JUMPDEST PUSH1 0x0 DUP1 PUSH1 0x0 DUP1 PUSH1 0x80 DUP6 DUP8 SUB SLT ISZERO PUSH2 0x1B50 JUMPI PUSH1 0x0 DUP1 REVERT JUMPDEST DUP5 CALLDATALOAD SWAP4 POP PUSH1 0x20 DUP6 ADD CALLDATALOAD SWAP3 POP PUSH1 0x40 DUP6 ADD CALLDATALOAD PUSH8 0xFFFFFFFFFFFFFFFF DUP1 DUP3 GT ISZERO PUSH2 0x1B76 JUMPI PUSH1 0x0 DUP1 REVERT JUMPDEST PUSH2 0x1B82 DUP9 DUP4 DUP10 ADD PUSH2 0x18CD JUMP JUMPDEST SWAP4 POP PUSH1 0x60 DUP8 ADD CALLDATALOAD SWAP2 POP DUP1 DUP3 GT ISZERO PUSH2 0x1B98 JUMPI PUSH1 0x0 DUP1 REVERT JUMPDEST POP PUSH2 0x1BA5 DUP8 DUP3 DUP9 ADD PUSH2 0x1960 JUMP JUMPDEST SWAP2 POP POP SWAP3 SWAP6 SWAP2 SWAP5 POP SWAP3 POP JUMP JUMPDEST PUSH1 0x0 DUP1 PUSH1 0x0 DUP1 PUSH1 0x80 DUP6 DUP8 SUB SLT ISZERO PUSH2 0x1BC7 JUMPI PUSH1 0x0 DUP1 REVERT JUMPDEST DUP5 CALLDATALOAD SWAP4 POP PUSH1 0x20 DUP6 ADD CALLDATALOAD SWAP3 POP PUSH1 0x40 DUP6 ADD CALLDATALOAD PUSH8 0xFFFFFFFFFFFFFFFF DUP1 DUP3 GT ISZERO PUSH2 0x1BED JUMPI PUSH1 0x0 DUP1 REVERT JUMPDEST PUSH2 0x1BF9 DUP9 DUP4 DUP10 ADD PUSH2 0x1A1F JUMP JUMPDEST SWAP4 POP PUSH1 0x60 DUP8 ADD CALLDATALOAD SWAP2 POP DUP1 DUP3 GT ISZERO PUSH2 0x1C0F JUMPI PUSH1 0x0 DUP1 REVERT JUMPDEST POP PUSH2 0x1BA5 DUP8 DUP3 DUP9 ADD PUSH2 0x18CD JUMP JUMPDEST PUSH1 0x0 DUP1 PUSH1 0x0 DUP1 PUSH1 0x80 DUP6 DUP8 SUB SLT ISZERO PUSH2 0x1C32 JUMPI PUSH1 0x0 DUP1 REVERT JUMPDEST DUP5 CALLDATALOAD SWAP4 POP PUSH1 0x20 DUP6 ADD CALLDATALOAD SWAP3 POP PUSH1 0x40 DUP6 ADD CALLDATALOAD SWAP2 POP PUSH1 0x60 DUP6 ADD CALLDATALOAD PUSH2 0x1C52 DUP2 PUSH2 0x170A JUMP JUMPDEST SWAP4 SWAP7 SWAP3 SWAP6 POP SWAP1 SWAP4 POP POP JUMP JUMPDEST PUSH1 0x0 DUP1 PUSH1 0x0 PUSH1 0x60 DUP5 DUP7 SUB SLT ISZERO PUSH2 0x1C72 JUMPI PUSH1 0x0 DUP1 REVERT JUMPDEST POP POP DUP2 CALLDATALOAD SWAP4 PUSH1 0x20 DUP4 ADD CALLDATALOAD SWAP4 POP PUSH1 0x40 SWAP1 SWAP3 ADD CALLDATALOAD SWAP2 SWAP1 POP JUMP JUMPDEST PUSH1 0x20 DUP2 MSTORE PUSH1 0x0 PUSH2 0x15F7 PUSH1 0x20 DUP4 ADD DUP5 PUSH2 0x179E JUMP JUMPDEST PUSH1 0x0 PUSH1 0x20 DUP3 DUP5 SUB SLT ISZERO PUSH2 0x1CAE JUMPI PUSH1 0x0 DUP1 REVERT JUMPDEST POP CALLDATALOAD SWAP2 SWAP1 POP JUMP JUMPDEST PUSH1 0x0 PUSH1 0x20 DUP3 DUP5 SUB SLT ISZERO PUSH2 0x1CC7 JUMPI PUSH1 0x0 DUP1 REVERT JUMPDEST POP MLOAD SWAP2 SWAP1 POP JUMP JUMPDEST PUSH1 0x1 DUP2 DUP2 SHR SWAP1 DUP3 AND DUP1 PUSH2 0x1CE2 JUMPI PUSH1 0x7F DUP3 AND SWAP2 POP JUMPDEST PUSH1 0x20 DUP3 LT DUP2 SUB PUSH2 0x136E JUMPI PUSH4 0x4E487B71 PUSH1 0xE0 SHL PUSH1 0x0 MSTORE PUSH1 0x22 PUSH1 0x4 MSTORE PUSH1 0x24 PUSH1 0x0 REVERT JUMPDEST PUSH1 0x0 DUP1 PUSH1 0x0 PUSH1 0x60 DUP5 DUP7 SUB SLT ISZERO PUSH2 0x1D17 JUMPI PUSH1 0x0 DUP1 REVERT JUMPDEST DUP4 MLOAD PUSH2 0x1D22 DUP2 PUSH2 0x170A JUMP JUMPDEST PUSH1 0x20 DUP6 ADD MLOAD SWAP1 SWAP4 POP PUSH2 0x1D33 DUP2 PUSH2 0x170A JUMP JUMPDEST PUSH1 0x40 DUP6 ADD MLOAD SWAP1 SWAP3 POP PUSH8 0xFFFFFFFFFFFFFFFF DUP2 GT ISZERO PUSH2 0x1D50 JUMPI PUSH1 0x0 DUP1 REVERT JUMPDEST DUP5 ADD PUSH1 0x1F DUP2 ADD DUP7 SGT PUSH2 0x1D61 JUMPI PUSH1 0x0 DUP1 REVERT JUMPDEST DUP1 MLOAD PUSH2 0x1D6F PUSH2 0x18EE DUP3 PUSH2 0x1938 JUMP JUMPDEST DUP2 DUP2 MSTORE DUP8 PUSH1 0x20 DUP4 DUP6 ADD ADD GT ISZERO PUSH2 0x1D84 JUMPI PUSH1 0x0 DUP1 REVERT JUMPDEST PUSH2 0x1D95 DUP3 PUSH1 0x20 DUP4 ADD PUSH1 0x20 DUP7 ADD PUSH2 0x177A JUMP JUMPDEST DUP1 SWAP4 POP POP POP POP SWAP3 POP SWAP3 POP SWAP3 JUMP JUMPDEST PUSH4 0x4E487B71 PUSH1 0xE0 SHL PUSH1 0x0 MSTORE PUSH1 0x11 PUSH1 0x4 MSTORE PUSH1 0x24 PUSH1 0x0 REVERT JUMPDEST PUSH1 0x0 PUSH1 0x1 DUP3 ADD PUSH2 0x1DCA JUMPI PUSH2 0x1DCA PUSH2 0x1DA2 JUMP JUMPDEST POP PUSH1 0x1 ADD SWAP1 JUMP JUMPDEST PUSH4 0x4E487B71 PUSH1 0xE0 SHL PUSH1 0x0 MSTORE PUSH1 0x32 PUSH1 0x4 MSTORE PUSH1 0x24 PUSH1 0x0 REVERT JUMPDEST PUSH1 0x0 DUP2 PUSH1 0x0 NOT DIV DUP4 GT DUP3 ISZERO ISZERO AND ISZERO PUSH2 0x1E01 JUMPI PUSH2 0x1E01 PUSH2 0x1DA2 JUMP JUMPDEST POP MUL SWAP1 JUMP JUMPDEST PUSH1 0x1F DUP3 GT ISZERO PUSH2 0x1E50 JUMPI PUSH1 0x0 DUP2 DUP2 MSTORE PUSH1 0x20 DUP2 KECCAK256 PUSH1 0x1F DUP6 ADD PUSH1 0x5 SHR DUP2 ADD PUSH1 0x20 DUP7 LT ISZERO PUSH2 0x1E2D JUMPI POP DUP1 JUMPDEST PUSH1 0x1F DUP6 ADD PUSH1 0x5 SHR DUP3 ADD SWAP2 POP JUMPDEST DUP2 DUP2 LT ISZERO PUSH2 0x1E4C JUMPI DUP3 DUP2 SSTORE PUSH1 0x1 ADD PUSH2 0x1E39 JUMP JUMPDEST POP POP POP JUMPDEST POP POP POP JUMP JUMPDEST DUP2 MLOAD PUSH8 0xFFFFFFFFFFFFFFFF DUP2 GT ISZERO PUSH2 0x1E6F JUMPI PUSH2 0x1E6F PUSH2 0x1862 JUMP JUMPDEST PUSH2 0x1E83 DUP2 PUSH2 0x1E7D DUP5 SLOAD PUSH2 0x1CCE JUMP JUMPDEST DUP5 PUSH2 0x1E06 JUMP JUMPDEST PUSH1 0x20 DUP1 PUSH1 0x1F DUP4 GT PUSH1 0x1 DUP2 EQ PUSH2 0x1EB8 JUMPI PUSH1 0x0 DUP5 ISZERO PUSH2 0x1EA0 JUMPI POP DUP6 DUP4 ADD MLOAD JUMPDEST PUSH1 0x0 NOT PUSH1 0x3 DUP7 SWAP1 SHL SHR NOT AND PUSH1 0x1 DUP6 SWAP1 SHL OR DUP6 SSTORE PUSH2 0x1E4C JUMP JUMPDEST PUSH1 0x0 DUP6 DUP2 MSTORE PUSH1 0x20 DUP2 KECCAK256 PUSH1 0x1F NOT DUP7 AND SWAP2 JUMPDEST DUP3 DUP2 LT ISZERO PUSH2 0x1EE7 JUMPI DUP9 DUP7 ADD MLOAD DUP3 SSTORE SWAP5 DUP5 ADD SWAP5 PUSH1 0x1 SWAP1 SWAP2 ADD SWAP1 DUP5 ADD PUSH2 0x1EC8 JUMP JUMPDEST POP DUP6 DUP3 LT ISZERO PUSH2 0x1F05 JUMPI DUP8 DUP6 ADD MLOAD PUSH1 0x0 NOT PUSH1 0x3 DUP9 SWAP1 SHL PUSH1 0xF8 AND SHR NOT AND DUP2 SSTORE JUMPDEST POP POP POP POP POP PUSH1 0x1 SWAP1 DUP2 SHL ADD SWAP1 SSTORE POP JUMP INVALID LOG2 PUSH5 0x6970667358 0x22 SLT KECCAK256 CREATE2 0xBE 0xCD LOG2 0xAE BALANCE 0x4B 0xE0 0xCB 0x26 0xD6 ADDRESS 0xBE 0xA9 SAR EXTCODECOPY GT PUSH2 0x581B 0x2B CODECOPY MUL 0xBC 0xB0 PUSH17 0xDE681295B8E364736F6C63430008100033 ",
  "sha1": "dad6c0dd9f13a52b8e15c6f70d92004797c15d63",
  "source": "// SPDX-License-Identifier: MIT\npragma solidity ^0.8.11;\n\nimport \"./BBErrorsV01.sol\";\nimport \"./interfaces/IBBProfiles.sol\";\nimport \"./interfaces/IBBTiers.sol\";\n\ncontract BBTiers is IBBTiers {   \n    event NewTierSet (\n        uint256 profileId,\n        uint256 tierSetId\n    );\n\n    event EditTierSet (\n        uint256 profileId,\n        uint256 tierSetId\n    );\n\n    event SupportedCurrencyChange (\n        uint256 profileId,\n        uint256 tierSetId,\n        address currency,\n        uint256 priceMultiplier\n    );\n    \n    struct TierSet {\n        uint256[] prices;\n        string[] cids;\n        mapping(address => uint256) supportedCurrencies;\n    }\n\n    // Profile Id -> tier set ID -> individual tier ID\n    mapping(uint256 => mapping(uint256 => TierSet)) internal _tierSets; \n    // Profile Id -> total number of tier sets owned by that profile ID\n    mapping(uint256 => uint256) internal _totalTierSets;\n\n    IBBProfiles internal immutable _bbProfiles;\n\n    constructor(address bbProfiles) {\n        _bbProfiles = IBBProfiles(bbProfiles);\n    }\n\n    modifier onlyProfileOwner(uint256 profileId) {\n        (address profileOwner,,) = _bbProfiles.getProfile(profileId);\n        require(profileOwner == msg.sender, BBErrorCodesV01.NOT_OWNER);\n        _;\n    }\n\n    modifier profileExists(uint256 profileId) {\n        require(profileId < _bbProfiles.totalProfiles(), BBErrorCodesV01.PROFILE_NOT_EXIST);\n        _;\n    }\n\n    modifier tierSetExists(uint256 profileId, uint256 tierSet) {\n        require(profileId < _bbProfiles.totalProfiles(), BBErrorCodesV01.PROFILE_NOT_EXIST);\n        require(tierSet < _totalTierSets[profileId], BBErrorCodesV01.TIER_SET_NOT_EXIST);\n        _;\n    }\n\n    modifier tierExists(uint256 profileId, uint256 tierSet, uint256 tierId) {\n        require(profileId < _bbProfiles.totalProfiles(), BBErrorCodesV01.PROFILE_NOT_EXIST);\n        require(tierSet < _totalTierSets[profileId], BBErrorCodesV01.TIER_SET_NOT_EXIST);\n        require(tierId < _tierSets[profileId][tierSet].prices.length, BBErrorCodesV01.TIER_NOT_EXIST);\n        _;\n    }\n\n    function createTiers(uint256 profileId, uint256[] memory prices, string[] memory cids, address[] memory supportedCurrencies, uint256[] memory priceMultipliers) external profileExists(profileId) onlyProfileOwner(profileId) returns(uint tierSetId) {\n        tierSetId = _totalTierSets[profileId];\n        _totalTierSets[profileId]++;\n        \n        _setTiers(profileId, tierSetId, prices, cids);\n        _setSupportedCurrencies(profileId, tierSetId, supportedCurrencies, priceMultipliers);\n    \n        emit NewTierSet(profileId, tierSetId);\n    }\n\n    function editTiers(uint256 profileId, uint256 tierSet, uint256[] memory prices, string[] memory cids) external override tierSetExists(profileId, tierSet) onlyProfileOwner(profileId) {\n        _setTiers(profileId, tierSet, prices, cids);\n        \n        emit EditTierSet(profileId, tierSet);\n    }\n\n    function _setTiers(uint256 profileId, uint256 tierSet, uint256[] memory prices, string[] memory cids) internal {\n        require(prices.length == cids.length, BBErrorCodesV01.INVALID_LENGTH);\n\n        for(uint256 i; i < prices.length; i++) {\n            require(prices[i] > 0, BBErrorCodesV01.OUT_OF_BOUNDS);\n        }\n\n        _tierSets[profileId][tierSet].prices = prices;\n        _tierSets[profileId][tierSet].cids = cids;\n    }\n\n    function setSupportedCurrencies(uint256 profileId, uint256 tierSet, address[] memory supportedCurrencies, uint256[] memory priceMultipliers) external override tierSetExists(profileId, tierSet) onlyProfileOwner(profileId) {\n        _setSupportedCurrencies(profileId, tierSet, supportedCurrencies, priceMultipliers);\n    }\n\n    function _setSupportedCurrencies(uint256 profileId, uint256 tierSet, address[] memory supportedCurrencies, uint256[] memory priceMultipliers) internal {\n        require(supportedCurrencies.length == priceMultipliers.length, BBErrorCodesV01.INVALID_LENGTH);\n\n        for(uint256 i; i < priceMultipliers.length; i++) {\n            _tierSets[profileId][tierSet].supportedCurrencies[supportedCurrencies[i]] = priceMultipliers[i];\n            emit SupportedCurrencyChange(profileId, tierSet, supportedCurrencies[i], priceMultipliers[i]);\n        }\n    }\n\n    function getTierCid(uint256 profileId, uint256 tierSet, uint256 tierId) external view override tierExists(profileId, tierSet, tierId) returns (string memory) {\n        return _tierSets[profileId][tierSet].cids[tierId];\n    }\n\n    function getTierPrice(uint256 profileId, uint256 tierSet, uint256 tierId, address currency) external view override tierExists(profileId, tierSet, tierId) returns (uint256) {\n        require(_tierSets[profileId][tierSet].supportedCurrencies[currency] > 0, BBErrorCodesV01.UNSUPPORTED_CURRENCY);\n        return _tierPrice(_tierSets[profileId][tierSet].prices[tierId], _tierSets[profileId][tierSet].supportedCurrencies[currency]);\n    }\n\n    function _tierPrice(uint256 price, uint256 multiplier) internal pure returns (uint256) {\n        return price * multiplier;\n    }\n\n    function getTierSet(uint256 profileId, uint256 tierSet) external view tierSetExists(profileId, tierSet) returns (uint256[] memory, string[] memory) {\n        return(_tierSets[profileId][tierSet].prices, _tierSets[profileId][tierSet].cids);\n    }\n    \n    function totalTiers(uint256 profileId, uint256 tierSet) external view override tierSetExists(profileId, tierSet) returns (uint256) {\n        return _tierSets[profileId][tierSet].prices.length;\n    }\n\n    function totalTierSets(uint256 profileId) external view override profileExists(profileId) returns (uint256) {\n        return _totalTierSets[profileId];\n    }\n    \n    function getCurrencyMultiplier(uint256 profileId, uint256 tierSet, address currency) external view override tierSetExists(profileId, tierSet) returns (uint256) {\n        require(_tierSets[profileId][tierSet].supportedCurrencies[currency] > 0, BBErrorCodesV01.UNSUPPORTED_CURRENCY);\n        return _tierSets[profileId][tierSet].supportedCurrencies[currency];\n    }\n\n    function isCurrencySupported(uint256 profileId, uint256 tierSet, address currency) external view override tierSetExists(profileId, tierSet) returns (bool) {\n        return _tierSets[profileId][tierSet].supportedCurrencies[currency] > 0;\n    }\n}\n",
  "sourcePath": "contracts/BBTiers.sol",
  "type": "contract"
}