{
  "abi": [
    {
      "inputs": [],
      "stateMutability": "nonpayable",
      "type": "constructor"
    },
    {
      "inputs": [
        {
          "internalType": "address",
          "name": "member",
          "type": "address"
        }
      ],
      "name": "canViewSubscription",
      "outputs": [
        {
          "internalType": "bool",
          "name": "",
          "type": "bool"
        }
      ],
      "stateMutability": "view",
      "type": "function"
    },
    {
      "inputs": [
        {
          "internalType": "address",
          "name": "newguy",
          "type": "address"
        },
        {
          "internalType": "bool",
          "name": "canOwner",
          "type": "bool"
        }
      ],
      "name": "setOwner",
      "outputs": [],
      "stateMutability": "nonpayable",
      "type": "function"
    }
  ],
  "bytecode": "608060405234801561001057600080fd5b50336000908152602081905260409020805460ff191660011790556101878061003a6000396000f3fe608060405234801561001057600080fd5b50600436106100365760003560e01c80633f03b4061461003b578063516c731c1461007b575b600080fd5b6100676100493660046100f3565b6001600160a01b031660009081526020819052604090205460ff1690565b604051901515815260200160405180910390f35b61008e610089366004610115565b610090565b005b3360009081526020819052604090205460ff166100ac57600080fd5b6001600160a01b03919091166000908152602081905260409020805460ff1916911515919091179055565b80356001600160a01b03811681146100ee57600080fd5b919050565b60006020828403121561010557600080fd5b61010e826100d7565b9392505050565b6000806040838503121561012857600080fd5b610131836100d7565b91506020830135801515811461014657600080fd5b80915050925092905056fea26469706673582212203597a416c16cb316685f9b185cf26a5698204e27dce9280e28862bc66758ea1b64736f6c63430008100033",
  "bytecodeSha1": "dbaf310a28cddc9e334bd2962d93f7c85066d59c",
  "compiler": {
    "evm_version": "istanbul",
    "optimizer": {
      "enabled": true,
      "runs": 200
    },
    "version": "0.8.16+commit.07a7930e"
  },
  "contractName": "DebugProfileOwner",
  "language": "Solidity",
  "natspec": {
    "kind": "dev",
    "methods": {},
    "version": 1
  },
  "opcodes": "PUSH1 0x80 PUSH1 0x40 MSTORE CALLVALUE DUP1 ISZERO PUSH2 0x10 JUMPI PUSH1 0x0 DUP1 REVERT JUMPDEST POP PUSH1 0x4 CALLDATASIZE LT PUSH2 0x36 JUMPI PUSH1 0x0 CALLDATALOAD PUSH1 0xE0 SHR DUP1 PUSH4 0x3F03B406 EQ PUSH2 0x3B JUMPI DUP1 PUSH4 0x516C731C EQ PUSH2 0x7B JUMPI JUMPDEST PUSH1 0x0 DUP1 REVERT JUMPDEST PUSH2 0x67 PUSH2 0x49 CALLDATASIZE PUSH1 0x4 PUSH2 0xF3 JUMP JUMPDEST PUSH1 0x1 PUSH1 0x1 PUSH1 0xA0 SHL SUB AND PUSH1 0x0 SWAP1 DUP2 MSTORE PUSH1 0x20 DUP2 SWAP1 MSTORE PUSH1 0x40 SWAP1 KECCAK256 SLOAD PUSH1 0xFF AND SWAP1 JUMP JUMPDEST PUSH1 0x40 MLOAD SWAP1 ISZERO ISZERO DUP2 MSTORE PUSH1 0x20 ADD PUSH1 0x40 MLOAD DUP1 SWAP2 SUB SWAP1 RETURN JUMPDEST PUSH2 0x8E PUSH2 0x89 CALLDATASIZE PUSH1 0x4 PUSH2 0x115 JUMP JUMPDEST PUSH2 0x90 JUMP JUMPDEST STOP JUMPDEST CALLER PUSH1 0x0 SWAP1 DUP2 MSTORE PUSH1 0x20 DUP2 SWAP1 MSTORE PUSH1 0x40 SWAP1 KECCAK256 SLOAD PUSH1 0xFF AND PUSH2 0xAC JUMPI PUSH1 0x0 DUP1 REVERT JUMPDEST PUSH1 0x1 PUSH1 0x1 PUSH1 0xA0 SHL SUB SWAP2 SWAP1 SWAP2 AND PUSH1 0x0 SWAP1 DUP2 MSTORE PUSH1 0x20 DUP2 SWAP1 MSTORE PUSH1 0x40 SWAP1 KECCAK256 DUP1 SLOAD PUSH1 0xFF NOT AND SWAP2 ISZERO ISZERO SWAP2 SWAP1 SWAP2 OR SWAP1 SSTORE JUMP JUMPDEST DUP1 CALLDATALOAD PUSH1 0x1 PUSH1 0x1 PUSH1 0xA0 SHL SUB DUP2 AND DUP2 EQ PUSH2 0xEE JUMPI PUSH1 0x0 DUP1 REVERT JUMPDEST SWAP2 SWAP1 POP JUMP JUMPDEST PUSH1 0x0 PUSH1 0x20 DUP3 DUP5 SUB SLT ISZERO PUSH2 0x105 JUMPI PUSH1 0x0 DUP1 REVERT JUMPDEST PUSH2 0x10E DUP3 PUSH2 0xD7 JUMP JUMPDEST SWAP4 SWAP3 POP POP POP JUMP JUMPDEST PUSH1 0x0 DUP1 PUSH1 0x40 DUP4 DUP6 SUB SLT ISZERO PUSH2 0x128 JUMPI PUSH1 0x0 DUP1 REVERT JUMPDEST PUSH2 0x131 DUP4 PUSH2 0xD7 JUMP JUMPDEST SWAP2 POP PUSH1 0x20 DUP4 ADD CALLDATALOAD DUP1 ISZERO ISZERO DUP2 EQ PUSH2 0x146 JUMPI PUSH1 0x0 DUP1 REVERT JUMPDEST DUP1 SWAP2 POP POP SWAP3 POP SWAP3 SWAP1 POP JUMP INVALID LOG2 PUSH5 0x6970667358 0x22 SLT KECCAK256 CALLDATALOAD SWAP8 LOG4 AND 0xC1 PUSH13 0xB316685F9B185CF26A5698204E 0x27 0xDC 0xE9 0x28 0xE 0x28 DUP7 0x2B 0xC6 PUSH8 0x58EA1B64736F6C63 NUMBER STOP ADDMOD LT STOP CALLER ",
  "sha1": "31b2acaa62cdf82a4ba591db58e6436b36663d8a",
  "source": "// SPDX-License-Identifier: MIT\npragma solidity ^0.8.11;\n\nimport \"../interfaces/IBBPermissionsV01.sol\";\n\ncontract DebugProfileOwner is IBBPermissionsV01 {\n    mapping(address => bool) isOwner;\n    constructor() {\n        isOwner[msg.sender] = true;\n    }\n    function setOwner(address newguy, bool canOwner) public {\n        require(isOwner[msg.sender]); // dev: not an admin\n        isOwner[newguy] = canOwner;\n    }\n    function canViewSubscription(address member) external view override returns(bool) {\n        return isOwner[member];\n    }\n}",
  "sourcePath": "contracts/utils/DebugProfileOwner.sol",
  "type": "contract"
}