{
  "abi": [
    {
      "inputs": [
        {
          "internalType": "contract IBBProfiles",
          "name": "bbProfiles",
          "type": "address"
        },
        {
          "internalType": "contract IBBTiers",
          "name": "bbTiers",
          "type": "address"
        },
        {
          "internalType": "contract IBBSubscriptionsFactory",
          "name": "bbSubFactory",
          "type": "address"
        },
        {
          "internalType": "uint256[]",
          "name": "defaultPrices",
          "type": "uint256[]"
        },
        {
          "internalType": "string[]",
          "name": "defaultCids",
          "type": "string[]"
        },
        {
          "internalType": "address[]",
          "name": "defaultCurrencies",
          "type": "address[]"
        },
        {
          "internalType": "uint256[]",
          "name": "defaultMul",
          "type": "uint256[]"
        }
      ],
      "stateMutability": "nonpayable",
      "type": "constructor"
    },
    {
      "inputs": [
        {
          "internalType": "string",
          "name": "profileCid",
          "type": "string"
        },
        {
          "internalType": "uint256[]",
          "name": "tierPrices",
          "type": "uint256[]"
        },
        {
          "internalType": "string[]",
          "name": "tierCids",
          "type": "string[]"
        },
        {
          "internalType": "uint256",
          "name": "contribution",
          "type": "uint256"
        }
      ],
      "name": "AdvancedProfileSetup",
      "outputs": [
        {
          "internalType": "uint256",
          "name": "profileId",
          "type": "uint256"
        },
        {
          "internalType": "uint256",
          "name": "tierSetId",
          "type": "uint256"
        }
      ],
      "stateMutability": "nonpayable",
      "type": "function"
    },
    {
      "inputs": [
        {
          "internalType": "string",
          "name": "profileCid",
          "type": "string"
        },
        {
          "internalType": "uint256",
          "name": "contribution",
          "type": "uint256"
        }
      ],
      "name": "SimpleProfileSetup",
      "outputs": [
        {
          "internalType": "uint256",
          "name": "profileId",
          "type": "uint256"
        },
        {
          "internalType": "uint256",
          "name": "tierSetId",
          "type": "uint256"
        }
      ],
      "stateMutability": "nonpayable",
      "type": "function"
    }
  ],
  "bytecode": "60806040523480156200001157600080fd5b5060405162000fd538038062000fd58339810160408190526200003491620004d3565b600080546001600160a01b03808a166001600160a01b031992831617909255600180548984169083161790556002805492881692909116919091179055835162000086906003906020870190620000d6565b5082516200009c90600490602086019062000126565b508151620000b29060059060208501906200017f565b508051620000c8906006906020840190620000d6565b505050505050505062000720565b82805482825590600052602060002090810192821562000114579160200282015b8281111562000114578251825591602001919060010190620000f7565b5062000122929150620001d7565b5090565b82805482825590600052602060002090810192821562000171579160200282015b8281111562000171578251829062000160908262000654565b509160200191906001019062000147565b5062000122929150620001ee565b82805482825590600052602060002090810192821562000114579160200282015b828111156200011457825182546001600160a01b0319166001600160a01b03909116178255602090920191600190910190620001a0565b5b80821115620001225760008155600101620001d8565b80821115620001225760006200020582826200020f565b50600101620001ee565b5080546200021d90620005c5565b6000825580601f106200022e575050565b601f0160209004906000526020600020908101906200024e9190620001d7565b50565b6001600160a01b03811681146200024e57600080fd5b8051620002748162000251565b919050565b634e487b7160e01b600052604160045260246000fd5b604051601f8201601f191681016001600160401b0381118282101715620002ba57620002ba62000279565b604052919050565b60006001600160401b03821115620002de57620002de62000279565b5060051b60200190565b600082601f830112620002fa57600080fd5b81516020620003136200030d83620002c2565b6200028f565b82815260059290921b840181019181810190868411156200033357600080fd5b8286015b8481101562000350578051835291830191830162000337565b509695505050505050565b6000601f83818401126200036e57600080fd5b82516020620003816200030d83620002c2565b82815260059290921b85018101918181019087841115620003a157600080fd5b8287015b848110156200045a5780516001600160401b0380821115620003c75760008081fd5b818a0191508a603f830112620003dd5760008081fd5b8582015181811115620003f457620003f462000279565b62000407818a01601f191688016200028f565b915080825260408c81838601011115620004215760008081fd5b60005b8281101562000441578481018201518482018a0152880162000424565b50506000908201870152845250918301918301620003a5565b50979650505050505050565b600082601f8301126200047857600080fd5b815160206200048b6200030d83620002c2565b82815260059290921b84018101918181019086841115620004ab57600080fd5b8286015b8481101562000350578051620004c58162000251565b8352918301918301620004af565b600080600080600080600060e0888a031215620004ef57600080fd5b620004fa8862000267565b96506200050a6020890162000267565b95506200051a6040890162000267565b60608901519095506001600160401b03808211156200053857600080fd5b620005468b838c01620002e8565b955060808a01519150808211156200055d57600080fd5b6200056b8b838c016200035b565b945060a08a01519150808211156200058257600080fd5b620005908b838c0162000466565b935060c08a0151915080821115620005a757600080fd5b50620005b68a828b01620002e8565b91505092959891949750929550565b600181811c90821680620005da57607f821691505b602082108103620005fb57634e487b7160e01b600052602260045260246000fd5b50919050565b601f8211156200064f57600081815260208120601f850160051c810160208610156200062a5750805b601f850160051c820191505b818110156200064b5782815560010162000636565b5050505b505050565b81516001600160401b0381111562000670576200067062000279565b6200068881620006818454620005c5565b8462000601565b602080601f831160018114620006c05760008415620006a75750858301515b600019600386901b1c1916600185901b1785556200064b565b600085815260208120601f198616915b82811015620006f157888601518255948401946001909101908401620006d0565b5085821015620007105787850151600019600388901b60f8161c191681555b5050505050600190811b01905550565b6108a580620007306000396000f3fe608060405234801561001057600080fd5b50600436106100365760003560e01c8063337266791461003b5780639c35045114610067575b600080fd5b61004e610049366004610440565b61007a565b6040805192835260208301919091520160405180910390f35b61004e610075366004610539565b6101b5565b6000806101aa8460038054806020026020016040519081016040528092919081815260200182805480156100cd57602002820191906000526020600020905b8154815260200190600101908083116100b9575b50505050506004805480602002602001604051908101604052809291908181526020016000905b828210156101a05783829060005260206000200180546101139061061d565b80601f016020809104026020016040519081016040528092919081815260200182805461013f9061061d565b801561018c5780601f106101615761010080835404028352916020019161018c565b820191906000526020600020905b81548152906001019060200180831161016f57829003601f168201915b5050505050815260200190600101906100f4565b50505050866101b5565b909590945092505050565b60008054604051638b3658b160e01b815282916001600160a01b031690638b3658b1906101ea90309081908b9060040161069d565b6020604051808303816000875af1158015610209573d6000803e3d6000fd5b505050506040513d601f19601f8201168201806040525081019061022d91906106d2565b600154604051633a8d19e160e01b81529193506001600160a01b031690633a8d19e19061026890859089908990600590600690600401610769565b6020604051808303816000875af1158015610287573d6000803e3d6000fd5b505050506040513d601f19601f820116820180604052508101906102ab91906106d2565b600254604051630d63606360e21b81526004810185905260248101839052604481018690529192506001600160a01b03169063358d818c90606401600060405180830381600087803b15801561030057600080fd5b505af1158015610314573d6000803e3d6000fd5b5050600054604051634cdacbd760e01b81526001600160a01b039091169250634cdacbd7915061034e908590339081908c90600401610833565b600060405180830381600087803b15801561036857600080fd5b505af115801561037c573d6000803e3d6000fd5b5050505094509492505050565b634e487b7160e01b600052604160045260246000fd5b604051601f8201601f1916810167ffffffffffffffff811182821017156103c8576103c8610389565b604052919050565b600082601f8301126103e157600080fd5b813567ffffffffffffffff8111156103fb576103fb610389565b61040e601f8201601f191660200161039f565b81815284602083860101111561042357600080fd5b816020850160208301376000918101602001919091529392505050565b6000806040838503121561045357600080fd5b823567ffffffffffffffff81111561046a57600080fd5b610476858286016103d0565b95602094909401359450505050565b600067ffffffffffffffff82111561049f5761049f610389565b5060051b60200190565b600082601f8301126104ba57600080fd5b813560206104cf6104ca83610485565b61039f565b82815260059290921b840181019181810190868411156104ee57600080fd5b8286015b8481101561052e57803567ffffffffffffffff8111156105125760008081fd5b6105208986838b01016103d0565b8452509183019183016104f2565b509695505050505050565b6000806000806080858703121561054f57600080fd5b843567ffffffffffffffff8082111561056757600080fd5b610573888389016103d0565b955060209150818701358181111561058a57600080fd5b8701601f8101891361059b57600080fd5b80356105a96104ca82610485565b81815260059190911b8201840190848101908b8311156105c857600080fd5b928501925b828410156105e6578335825292850192908501906105cd565b975050505060408701359150808211156105ff57600080fd5b5061060c878288016104a9565b949793965093946060013593505050565b600181811c9082168061063157607f821691505b60208210810361065157634e487b7160e01b600052602260045260246000fd5b50919050565b6000815180845260005b8181101561067d57602081850181015186830182015201610661565b506000602082860101526020601f19601f83011685010191505092915050565b6001600160a01b038481168252831660208201526060604082018190526000906106c990830184610657565b95945050505050565b6000602082840312156106e457600080fd5b5051919050565b6000815480845260208085019450836000528060002060005b838110156107295781546001600160a01b031687529582019560019182019101610704565b509495945050505050565b6000815480845260208085019450836000528060002060005b838110156107295781548752958201956001918201910161074d565b600060a08201878352602060a08185015281885180845260c086019150828a01935060005b818110156107aa5784518352938301939183019160010161078e565b5050848103604086015287518082528282019350600581901b82018301838a0160005b838110156107fb57601f198584030187526107e9838351610657565b968601969250908501906001016107cd565b5050868103606088015261080f818a6106eb565b94505050505082810360808401526108278185610734565b98975050505050505050565b8481526001600160a01b0384811660208301528316604082015260806060820181905260009061086590830184610657565b969550505050505056fea26469706673582212209dceadd7ef8d2c49d44cb08865bea4cba02ae510b589b7ab0d030938141b1fb364736f6c63430008110033",
  "bytecodeSha1": "ba4fa030a2690c1b0c2a70823744f2f4ab5f23a3",
  "compiler": {
    "evm_version": "istanbul",
    "optimizer": {
      "enabled": true,
      "runs": 200
    },
    "version": "0.8.17+commit.8df45f5f"
  },
  "contractName": "ProfileSetupHelper",
  "language": "Solidity",
  "natspec": {
    "kind": "dev",
    "methods": {},
    "version": 1
  },
  "opcodes": "PUSH1 0x80 PUSH1 0x40 MSTORE CALLVALUE DUP1 ISZERO PUSH2 0x10 JUMPI PUSH1 0x0 DUP1 REVERT JUMPDEST POP PUSH1 0x4 CALLDATASIZE LT PUSH2 0x36 JUMPI PUSH1 0x0 CALLDATALOAD PUSH1 0xE0 SHR DUP1 PUSH4 0x33726679 EQ PUSH2 0x3B JUMPI DUP1 PUSH4 0x9C350451 EQ PUSH2 0x67 JUMPI JUMPDEST PUSH1 0x0 DUP1 REVERT JUMPDEST PUSH2 0x4E PUSH2 0x49 CALLDATASIZE PUSH1 0x4 PUSH2 0x440 JUMP JUMPDEST PUSH2 0x7A JUMP JUMPDEST PUSH1 0x40 DUP1 MLOAD SWAP3 DUP4 MSTORE PUSH1 0x20 DUP4 ADD SWAP2 SWAP1 SWAP2 MSTORE ADD PUSH1 0x40 MLOAD DUP1 SWAP2 SUB SWAP1 RETURN JUMPDEST PUSH2 0x4E PUSH2 0x75 CALLDATASIZE PUSH1 0x4 PUSH2 0x539 JUMP JUMPDEST PUSH2 0x1B5 JUMP JUMPDEST PUSH1 0x0 DUP1 PUSH2 0x1AA DUP5 PUSH1 0x3 DUP1 SLOAD DUP1 PUSH1 0x20 MUL PUSH1 0x20 ADD PUSH1 0x40 MLOAD SWAP1 DUP2 ADD PUSH1 0x40 MSTORE DUP1 SWAP3 SWAP2 SWAP1 DUP2 DUP2 MSTORE PUSH1 0x20 ADD DUP3 DUP1 SLOAD DUP1 ISZERO PUSH2 0xCD JUMPI PUSH1 0x20 MUL DUP3 ADD SWAP2 SWAP1 PUSH1 0x0 MSTORE PUSH1 0x20 PUSH1 0x0 KECCAK256 SWAP1 JUMPDEST DUP2 SLOAD DUP2 MSTORE PUSH1 0x20 ADD SWAP1 PUSH1 0x1 ADD SWAP1 DUP1 DUP4 GT PUSH2 0xB9 JUMPI JUMPDEST POP POP POP POP POP PUSH1 0x4 DUP1 SLOAD DUP1 PUSH1 0x20 MUL PUSH1 0x20 ADD PUSH1 0x40 MLOAD SWAP1 DUP2 ADD PUSH1 0x40 MSTORE DUP1 SWAP3 SWAP2 SWAP1 DUP2 DUP2 MSTORE PUSH1 0x20 ADD PUSH1 0x0 SWAP1 JUMPDEST DUP3 DUP3 LT ISZERO PUSH2 0x1A0 JUMPI DUP4 DUP3 SWAP1 PUSH1 0x0 MSTORE PUSH1 0x20 PUSH1 0x0 KECCAK256 ADD DUP1 SLOAD PUSH2 0x113 SWAP1 PUSH2 0x61D JUMP JUMPDEST DUP1 PUSH1 0x1F ADD PUSH1 0x20 DUP1 SWAP2 DIV MUL PUSH1 0x20 ADD PUSH1 0x40 MLOAD SWAP1 DUP2 ADD PUSH1 0x40 MSTORE DUP1 SWAP3 SWAP2 SWAP1 DUP2 DUP2 MSTORE PUSH1 0x20 ADD DUP3 DUP1 SLOAD PUSH2 0x13F SWAP1 PUSH2 0x61D JUMP JUMPDEST DUP1 ISZERO PUSH2 0x18C JUMPI DUP1 PUSH1 0x1F LT PUSH2 0x161 JUMPI PUSH2 0x100 DUP1 DUP4 SLOAD DIV MUL DUP4 MSTORE SWAP2 PUSH1 0x20 ADD SWAP2 PUSH2 0x18C JUMP JUMPDEST DUP3 ADD SWAP2 SWAP1 PUSH1 0x0 MSTORE PUSH1 0x20 PUSH1 0x0 KECCAK256 SWAP1 JUMPDEST DUP2 SLOAD DUP2 MSTORE SWAP1 PUSH1 0x1 ADD SWAP1 PUSH1 0x20 ADD DUP1 DUP4 GT PUSH2 0x16F JUMPI DUP3 SWAP1 SUB PUSH1 0x1F AND DUP3 ADD SWAP2 JUMPDEST POP POP POP POP POP DUP2 MSTORE PUSH1 0x20 ADD SWAP1 PUSH1 0x1 ADD SWAP1 PUSH2 0xF4 JUMP JUMPDEST POP POP POP POP DUP7 PUSH2 0x1B5 JUMP JUMPDEST SWAP1 SWAP6 SWAP1 SWAP5 POP SWAP3 POP POP POP JUMP JUMPDEST PUSH1 0x0 DUP1 SLOAD PUSH1 0x40 MLOAD PUSH4 0x8B3658B1 PUSH1 0xE0 SHL DUP2 MSTORE DUP3 SWAP2 PUSH1 0x1 PUSH1 0x1 PUSH1 0xA0 SHL SUB AND SWAP1 PUSH4 0x8B3658B1 SWAP1 PUSH2 0x1EA SWAP1 ADDRESS SWAP1 DUP2 SWAP1 DUP12 SWAP1 PUSH1 0x4 ADD PUSH2 0x69D JUMP JUMPDEST PUSH1 0x20 PUSH1 0x40 MLOAD DUP1 DUP4 SUB DUP2 PUSH1 0x0 DUP8 GAS CALL ISZERO DUP1 ISZERO PUSH2 0x209 JUMPI RETURNDATASIZE PUSH1 0x0 DUP1 RETURNDATACOPY RETURNDATASIZE PUSH1 0x0 REVERT JUMPDEST POP POP POP POP PUSH1 0x40 MLOAD RETURNDATASIZE PUSH1 0x1F NOT PUSH1 0x1F DUP3 ADD AND DUP3 ADD DUP1 PUSH1 0x40 MSTORE POP DUP2 ADD SWAP1 PUSH2 0x22D SWAP2 SWAP1 PUSH2 0x6D2 JUMP JUMPDEST PUSH1 0x1 SLOAD PUSH1 0x40 MLOAD PUSH4 0x3A8D19E1 PUSH1 0xE0 SHL DUP2 MSTORE SWAP2 SWAP4 POP PUSH1 0x1 PUSH1 0x1 PUSH1 0xA0 SHL SUB AND SWAP1 PUSH4 0x3A8D19E1 SWAP1 PUSH2 0x268 SWAP1 DUP6 SWAP1 DUP10 SWAP1 DUP10 SWAP1 PUSH1 0x5 SWAP1 PUSH1 0x6 SWAP1 PUSH1 0x4 ADD PUSH2 0x769 JUMP JUMPDEST PUSH1 0x20 PUSH1 0x40 MLOAD DUP1 DUP4 SUB DUP2 PUSH1 0x0 DUP8 GAS CALL ISZERO DUP1 ISZERO PUSH2 0x287 JUMPI RETURNDATASIZE PUSH1 0x0 DUP1 RETURNDATACOPY RETURNDATASIZE PUSH1 0x0 REVERT JUMPDEST POP POP POP POP PUSH1 0x40 MLOAD RETURNDATASIZE PUSH1 0x1F NOT PUSH1 0x1F DUP3 ADD AND DUP3 ADD DUP1 PUSH1 0x40 MSTORE POP DUP2 ADD SWAP1 PUSH2 0x2AB SWAP2 SWAP1 PUSH2 0x6D2 JUMP JUMPDEST PUSH1 0x2 SLOAD PUSH1 0x40 MLOAD PUSH4 0xD636063 PUSH1 0xE2 SHL DUP2 MSTORE PUSH1 0x4 DUP2 ADD DUP6 SWAP1 MSTORE PUSH1 0x24 DUP2 ADD DUP4 SWAP1 MSTORE PUSH1 0x44 DUP2 ADD DUP7 SWAP1 MSTORE SWAP2 SWAP3 POP PUSH1 0x1 PUSH1 0x1 PUSH1 0xA0 SHL SUB AND SWAP1 PUSH4 0x358D818C SWAP1 PUSH1 0x64 ADD PUSH1 0x0 PUSH1 0x40 MLOAD DUP1 DUP4 SUB DUP2 PUSH1 0x0 DUP8 DUP1 EXTCODESIZE ISZERO DUP1 ISZERO PUSH2 0x300 JUMPI PUSH1 0x0 DUP1 REVERT JUMPDEST POP GAS CALL ISZERO DUP1 ISZERO PUSH2 0x314 JUMPI RETURNDATASIZE PUSH1 0x0 DUP1 RETURNDATACOPY RETURNDATASIZE PUSH1 0x0 REVERT JUMPDEST POP POP PUSH1 0x0 SLOAD PUSH1 0x40 MLOAD PUSH4 0x4CDACBD7 PUSH1 0xE0 SHL DUP2 MSTORE PUSH1 0x1 PUSH1 0x1 PUSH1 0xA0 SHL SUB SWAP1 SWAP2 AND SWAP3 POP PUSH4 0x4CDACBD7 SWAP2 POP PUSH2 0x34E SWAP1 DUP6 SWAP1 CALLER SWAP1 DUP2 SWAP1 DUP13 SWAP1 PUSH1 0x4 ADD PUSH2 0x833 JUMP JUMPDEST PUSH1 0x0 PUSH1 0x40 MLOAD DUP1 DUP4 SUB DUP2 PUSH1 0x0 DUP8 DUP1 EXTCODESIZE ISZERO DUP1 ISZERO PUSH2 0x368 JUMPI PUSH1 0x0 DUP1 REVERT JUMPDEST POP GAS CALL ISZERO DUP1 ISZERO PUSH2 0x37C JUMPI RETURNDATASIZE PUSH1 0x0 DUP1 RETURNDATACOPY RETURNDATASIZE PUSH1 0x0 REVERT JUMPDEST POP POP POP POP SWAP5 POP SWAP5 SWAP3 POP POP POP JUMP JUMPDEST PUSH4 0x4E487B71 PUSH1 0xE0 SHL PUSH1 0x0 MSTORE PUSH1 0x41 PUSH1 0x4 MSTORE PUSH1 0x24 PUSH1 0x0 REVERT JUMPDEST PUSH1 0x40 MLOAD PUSH1 0x1F DUP3 ADD PUSH1 0x1F NOT AND DUP2 ADD PUSH8 0xFFFFFFFFFFFFFFFF DUP2 GT DUP3 DUP3 LT OR ISZERO PUSH2 0x3C8 JUMPI PUSH2 0x3C8 PUSH2 0x389 JUMP JUMPDEST PUSH1 0x40 MSTORE SWAP2 SWAP1 POP JUMP JUMPDEST PUSH1 0x0 DUP3 PUSH1 0x1F DUP4 ADD SLT PUSH2 0x3E1 JUMPI PUSH1 0x0 DUP1 REVERT JUMPDEST DUP2 CALLDATALOAD PUSH8 0xFFFFFFFFFFFFFFFF DUP2 GT ISZERO PUSH2 0x3FB JUMPI PUSH2 0x3FB PUSH2 0x389 JUMP JUMPDEST PUSH2 0x40E PUSH1 0x1F DUP3 ADD PUSH1 0x1F NOT AND PUSH1 0x20 ADD PUSH2 0x39F JUMP JUMPDEST DUP2 DUP2 MSTORE DUP5 PUSH1 0x20 DUP4 DUP7 ADD ADD GT ISZERO PUSH2 0x423 JUMPI PUSH1 0x0 DUP1 REVERT JUMPDEST DUP2 PUSH1 0x20 DUP6 ADD PUSH1 0x20 DUP4 ADD CALLDATACOPY PUSH1 0x0 SWAP2 DUP2 ADD PUSH1 0x20 ADD SWAP2 SWAP1 SWAP2 MSTORE SWAP4 SWAP3 POP POP POP JUMP JUMPDEST PUSH1 0x0 DUP1 PUSH1 0x40 DUP4 DUP6 SUB SLT ISZERO PUSH2 0x453 JUMPI PUSH1 0x0 DUP1 REVERT JUMPDEST DUP3 CALLDATALOAD PUSH8 0xFFFFFFFFFFFFFFFF DUP2 GT ISZERO PUSH2 0x46A JUMPI PUSH1 0x0 DUP1 REVERT JUMPDEST PUSH2 0x476 DUP6 DUP3 DUP7 ADD PUSH2 0x3D0 JUMP JUMPDEST SWAP6 PUSH1 0x20 SWAP5 SWAP1 SWAP5 ADD CALLDATALOAD SWAP5 POP POP POP POP JUMP JUMPDEST PUSH1 0x0 PUSH8 0xFFFFFFFFFFFFFFFF DUP3 GT ISZERO PUSH2 0x49F JUMPI PUSH2 0x49F PUSH2 0x389 JUMP JUMPDEST POP PUSH1 0x5 SHL PUSH1 0x20 ADD SWAP1 JUMP JUMPDEST PUSH1 0x0 DUP3 PUSH1 0x1F DUP4 ADD SLT PUSH2 0x4BA JUMPI PUSH1 0x0 DUP1 REVERT JUMPDEST DUP2 CALLDATALOAD PUSH1 0x20 PUSH2 0x4CF PUSH2 0x4CA DUP4 PUSH2 0x485 JUMP JUMPDEST PUSH2 0x39F JUMP JUMPDEST DUP3 DUP2 MSTORE PUSH1 0x5 SWAP3 SWAP1 SWAP3 SHL DUP5 ADD DUP2 ADD SWAP2 DUP2 DUP2 ADD SWAP1 DUP7 DUP5 GT ISZERO PUSH2 0x4EE JUMPI PUSH1 0x0 DUP1 REVERT JUMPDEST DUP3 DUP7 ADD JUMPDEST DUP5 DUP2 LT ISZERO PUSH2 0x52E JUMPI DUP1 CALLDATALOAD PUSH8 0xFFFFFFFFFFFFFFFF DUP2 GT ISZERO PUSH2 0x512 JUMPI PUSH1 0x0 DUP1 DUP2 REVERT JUMPDEST PUSH2 0x520 DUP10 DUP7 DUP4 DUP12 ADD ADD PUSH2 0x3D0 JUMP JUMPDEST DUP5 MSTORE POP SWAP2 DUP4 ADD SWAP2 DUP4 ADD PUSH2 0x4F2 JUMP JUMPDEST POP SWAP7 SWAP6 POP POP POP POP POP POP JUMP JUMPDEST PUSH1 0x0 DUP1 PUSH1 0x0 DUP1 PUSH1 0x80 DUP6 DUP8 SUB SLT ISZERO PUSH2 0x54F JUMPI PUSH1 0x0 DUP1 REVERT JUMPDEST DUP5 CALLDATALOAD PUSH8 0xFFFFFFFFFFFFFFFF DUP1 DUP3 GT ISZERO PUSH2 0x567 JUMPI PUSH1 0x0 DUP1 REVERT JUMPDEST PUSH2 0x573 DUP9 DUP4 DUP10 ADD PUSH2 0x3D0 JUMP JUMPDEST SWAP6 POP PUSH1 0x20 SWAP2 POP DUP2 DUP8 ADD CALLDATALOAD DUP2 DUP2 GT ISZERO PUSH2 0x58A JUMPI PUSH1 0x0 DUP1 REVERT JUMPDEST DUP8 ADD PUSH1 0x1F DUP2 ADD DUP10 SGT PUSH2 0x59B JUMPI PUSH1 0x0 DUP1 REVERT JUMPDEST DUP1 CALLDATALOAD PUSH2 0x5A9 PUSH2 0x4CA DUP3 PUSH2 0x485 JUMP JUMPDEST DUP2 DUP2 MSTORE PUSH1 0x5 SWAP2 SWAP1 SWAP2 SHL DUP3 ADD DUP5 ADD SWAP1 DUP5 DUP2 ADD SWAP1 DUP12 DUP4 GT ISZERO PUSH2 0x5C8 JUMPI PUSH1 0x0 DUP1 REVERT JUMPDEST SWAP3 DUP6 ADD SWAP3 JUMPDEST DUP3 DUP5 LT ISZERO PUSH2 0x5E6 JUMPI DUP4 CALLDATALOAD DUP3 MSTORE SWAP3 DUP6 ADD SWAP3 SWAP1 DUP6 ADD SWAP1 PUSH2 0x5CD JUMP JUMPDEST SWAP8 POP POP POP POP PUSH1 0x40 DUP8 ADD CALLDATALOAD SWAP2 POP DUP1 DUP3 GT ISZERO PUSH2 0x5FF JUMPI PUSH1 0x0 DUP1 REVERT JUMPDEST POP PUSH2 0x60C DUP8 DUP3 DUP9 ADD PUSH2 0x4A9 JUMP JUMPDEST SWAP5 SWAP8 SWAP4 SWAP7 POP SWAP4 SWAP5 PUSH1 0x60 ADD CALLDATALOAD SWAP4 POP POP POP JUMP JUMPDEST PUSH1 0x1 DUP2 DUP2 SHR SWAP1 DUP3 AND DUP1 PUSH2 0x631 JUMPI PUSH1 0x7F DUP3 AND SWAP2 POP JUMPDEST PUSH1 0x20 DUP3 LT DUP2 SUB PUSH2 0x651 JUMPI PUSH4 0x4E487B71 PUSH1 0xE0 SHL PUSH1 0x0 MSTORE PUSH1 0x22 PUSH1 0x4 MSTORE PUSH1 0x24 PUSH1 0x0 REVERT JUMPDEST POP SWAP2 SWAP1 POP JUMP JUMPDEST PUSH1 0x0 DUP2 MLOAD DUP1 DUP5 MSTORE PUSH1 0x0 JUMPDEST DUP2 DUP2 LT ISZERO PUSH2 0x67D JUMPI PUSH1 0x20 DUP2 DUP6 ADD DUP2 ADD MLOAD DUP7 DUP4 ADD DUP3 ADD MSTORE ADD PUSH2 0x661 JUMP JUMPDEST POP PUSH1 0x0 PUSH1 0x20 DUP3 DUP7 ADD ADD MSTORE PUSH1 0x20 PUSH1 0x1F NOT PUSH1 0x1F DUP4 ADD AND DUP6 ADD ADD SWAP2 POP POP SWAP3 SWAP2 POP POP JUMP JUMPDEST PUSH1 0x1 PUSH1 0x1 PUSH1 0xA0 SHL SUB DUP5 DUP2 AND DUP3 MSTORE DUP4 AND PUSH1 0x20 DUP3 ADD MSTORE PUSH1 0x60 PUSH1 0x40 DUP3 ADD DUP2 SWAP1 MSTORE PUSH1 0x0 SWAP1 PUSH2 0x6C9 SWAP1 DUP4 ADD DUP5 PUSH2 0x657 JUMP JUMPDEST SWAP6 SWAP5 POP POP POP POP POP JUMP JUMPDEST PUSH1 0x0 PUSH1 0x20 DUP3 DUP5 SUB SLT ISZERO PUSH2 0x6E4 JUMPI PUSH1 0x0 DUP1 REVERT JUMPDEST POP MLOAD SWAP2 SWAP1 POP JUMP JUMPDEST PUSH1 0x0 DUP2 SLOAD DUP1 DUP5 MSTORE PUSH1 0x20 DUP1 DUP6 ADD SWAP5 POP DUP4 PUSH1 0x0 MSTORE DUP1 PUSH1 0x0 KECCAK256 PUSH1 0x0 JUMPDEST DUP4 DUP2 LT ISZERO PUSH2 0x729 JUMPI DUP2 SLOAD PUSH1 0x1 PUSH1 0x1 PUSH1 0xA0 SHL SUB AND DUP8 MSTORE SWAP6 DUP3 ADD SWAP6 PUSH1 0x1 SWAP2 DUP3 ADD SWAP2 ADD PUSH2 0x704 JUMP JUMPDEST POP SWAP5 SWAP6 SWAP5 POP POP POP POP POP JUMP JUMPDEST PUSH1 0x0 DUP2 SLOAD DUP1 DUP5 MSTORE PUSH1 0x20 DUP1 DUP6 ADD SWAP5 POP DUP4 PUSH1 0x0 MSTORE DUP1 PUSH1 0x0 KECCAK256 PUSH1 0x0 JUMPDEST DUP4 DUP2 LT ISZERO PUSH2 0x729 JUMPI DUP2 SLOAD DUP8 MSTORE SWAP6 DUP3 ADD SWAP6 PUSH1 0x1 SWAP2 DUP3 ADD SWAP2 ADD PUSH2 0x74D JUMP JUMPDEST PUSH1 0x0 PUSH1 0xA0 DUP3 ADD DUP8 DUP4 MSTORE PUSH1 0x20 PUSH1 0xA0 DUP2 DUP6 ADD MSTORE DUP2 DUP9 MLOAD DUP1 DUP5 MSTORE PUSH1 0xC0 DUP7 ADD SWAP2 POP DUP3 DUP11 ADD SWAP4 POP PUSH1 0x0 JUMPDEST DUP2 DUP2 LT ISZERO PUSH2 0x7AA JUMPI DUP5 MLOAD DUP4 MSTORE SWAP4 DUP4 ADD SWAP4 SWAP2 DUP4 ADD SWAP2 PUSH1 0x1 ADD PUSH2 0x78E JUMP JUMPDEST POP POP DUP5 DUP2 SUB PUSH1 0x40 DUP7 ADD MSTORE DUP8 MLOAD DUP1 DUP3 MSTORE DUP3 DUP3 ADD SWAP4 POP PUSH1 0x5 DUP2 SWAP1 SHL DUP3 ADD DUP4 ADD DUP4 DUP11 ADD PUSH1 0x0 JUMPDEST DUP4 DUP2 LT ISZERO PUSH2 0x7FB JUMPI PUSH1 0x1F NOT DUP6 DUP5 SUB ADD DUP8 MSTORE PUSH2 0x7E9 DUP4 DUP4 MLOAD PUSH2 0x657 JUMP JUMPDEST SWAP7 DUP7 ADD SWAP7 SWAP3 POP SWAP1 DUP6 ADD SWAP1 PUSH1 0x1 ADD PUSH2 0x7CD JUMP JUMPDEST POP POP DUP7 DUP2 SUB PUSH1 0x60 DUP9 ADD MSTORE PUSH2 0x80F DUP2 DUP11 PUSH2 0x6EB JUMP JUMPDEST SWAP5 POP POP POP POP POP DUP3 DUP2 SUB PUSH1 0x80 DUP5 ADD MSTORE PUSH2 0x827 DUP2 DUP6 PUSH2 0x734 JUMP JUMPDEST SWAP9 SWAP8 POP POP POP POP POP POP POP POP JUMP JUMPDEST DUP5 DUP2 MSTORE PUSH1 0x1 PUSH1 0x1 PUSH1 0xA0 SHL SUB DUP5 DUP2 AND PUSH1 0x20 DUP4 ADD MSTORE DUP4 AND PUSH1 0x40 DUP3 ADD MSTORE PUSH1 0x80 PUSH1 0x60 DUP3 ADD DUP2 SWAP1 MSTORE PUSH1 0x0 SWAP1 PUSH2 0x865 SWAP1 DUP4 ADD DUP5 PUSH2 0x657 JUMP JUMPDEST SWAP7 SWAP6 POP POP POP POP POP POP JUMP INVALID LOG2 PUSH5 0x6970667358 0x22 SLT KECCAK256 SWAP14 0xCE 0xAD 0xD7 0xEF DUP14 0x2C 0x49 0xD4 0x4C 0xB0 DUP9 PUSH6 0xBEA4CBA02AE5 LT 0xB5 DUP10 0xB7 0xAB 0xD SUB MULMOD CODESIZE EQ SHL 0x1F 0xB3 PUSH5 0x736F6C6343 STOP ADDMOD GT STOP CALLER ",
  "sha1": "a825ecf7f32f57dacd5e78b11a8542ae2e2766e0",
  "source": "// SPDX-License-Identifier: MIT\npragma solidity ^0.8.11;\n\nimport \"../interfaces/IBBProfiles.sol\";\nimport \"../interfaces/IBBTiers.sol\";\nimport \"../interfaces/IBBSubscriptionsFactory.sol\";\n\ncontract ProfileSetupHelper {\n    IBBProfiles _bbProfiles;\n    IBBTiers _bbTiers;\n    IBBSubscriptionsFactory _bbSubFactory;\n    uint256[] _defaultPrices;\n    string[] _defaultCids;\n    address[] _defaultCurrencies;\n    uint256[] _defaultMul;\n\n    constructor(\n        IBBProfiles bbProfiles,\n        IBBTiers bbTiers,\n        IBBSubscriptionsFactory bbSubFactory,\n        uint256[] memory defaultPrices,\n        string[] memory defaultCids,\n        address[] memory defaultCurrencies,\n        uint256[] memory defaultMul\n    ) {\n        _bbProfiles = bbProfiles;\n        _bbTiers = bbTiers;\n        _bbSubFactory = bbSubFactory;\n        _defaultPrices = defaultPrices;\n        _defaultCids = defaultCids;\n        _defaultCurrencies = defaultCurrencies;\n        _defaultMul = defaultMul;\n    }\n\n    function SimpleProfileSetup(string memory profileCid, uint256 contribution)\n        public\n        returns (uint256 profileId, uint256 tierSetId)\n    {\n        (profileId, tierSetId) = AdvancedProfileSetup(profileCid, _defaultPrices, _defaultCids, contribution);\n    }\n\n    function AdvancedProfileSetup(\n        string memory profileCid,\n        uint256[] memory tierPrices,\n        string[] memory tierCids,\n        uint256 contribution\n    ) public returns (uint256 profileId, uint256 tierSetId) {\n        profileId = _bbProfiles.createProfile(\n            address(this),\n            address(this),\n            profileCid\n        );\n        tierSetId = _bbTiers.createTiers(\n            profileId,\n            tierPrices,\n            tierCids,\n            _defaultCurrencies,\n            _defaultMul\n        );\n\n        _bbSubFactory.createSubscriptionProfile(\n            profileId,\n            tierSetId,\n            contribution\n        );\n\n        _bbProfiles.editProfile(profileId, msg.sender, msg.sender, profileCid);\n    }\n}\n",
  "sourcePath": "contracts/utils/ProfileSetupHelper.sol",
  "type": "contract"
}