{
  "abi": [
    {
      "inputs": [],
      "stateMutability": "nonpayable",
      "type": "constructor"
    },
    {
      "inputs": [],
      "name": "d",
      "outputs": [
        {
          "components": [
            {
              "internalType": "address",
              "name": "subber",
              "type": "address"
            },
            {
              "internalType": "uint256",
              "name": "something",
              "type": "uint256"
            }
          ],
          "internalType": "struct testmapping.MyStruct[]",
          "name": "rtn",
          "type": "tuple[]"
        }
      ],
      "stateMutability": "view",
      "type": "function"
    }
  ],
  "bytecode": "608060405234801561001057600080fd5b506040805180820182526105398152611ca36020808301918252600080805280825292517fad3228b676f7d3cd4284a5443f17f1962b36e491b30a40b2405849e597ba5fb580546001600160a01b039283166001600160a01b03199182161790915592517fad3228b676f7d3cd4284a5443f17f1962b36e491b30a40b2405849e597ba5fb655845180860190955261115c85526115b3858301908152600185529390915292517fada5013122d395ba3c54772283fb069b10426056ef8ca54750cb9bb552a59e7d805491909416911617909155517fada5013122d395ba3c54772283fb069b10426056ef8ca54750cb9bb552a59e7e55610246806101156000396000f3fe608060405234801561001057600080fd5b506004361061002b5760003560e01c80638a054ac214610030575b600080fd5b61003861004e565b60405161004591906101a2565b60405180910390f35b6040805160028082526060828101909352816020015b604080518082019091526000808252602082015281526020019060019003908161006457505060008080526020818152604080518082019091527fad3228b676f7d3cd4284a5443f17f1962b36e491b30a40b2405849e597ba5fb5546001600160a01b031681527fad3228b676f7d3cd4284a5443f17f1962b36e491b30a40b2405849e597ba5fb65491810191909152825192935091839190610109576101096101fa565b602090810291909101810191909152600160008181528252604080518082019091527fada5013122d395ba3c54772283fb069b10426056ef8ca54750cb9bb552a59e7d546001600160a01b031681527fada5013122d395ba3c54772283fb069b10426056ef8ca54750cb9bb552a59e7e549281019290925282518391908110610194576101946101fa565b602002602001018190525090565b602080825282518282018190526000919060409081850190868401855b828110156101ed57815180516001600160a01b031685528601518685015292840192908501906001016101bf565b5091979650505050505050565b634e487b7160e01b600052603260045260246000fdfea2646970667358221220106e7af5aecc41a52ad5450c7b64a2e00e4309f14b313e289ec64fdaa3adbb2464736f6c63430008110033",
  "bytecodeSha1": "ab1dab276f4c8304ff314b0ad2181bac10d22e0c",
  "compiler": {
    "evm_version": "istanbul",
    "optimizer": {
      "enabled": true,
      "runs": 200
    },
    "version": "0.8.17+commit.8df45f5f"
  },
  "contractName": "testmapping",
  "language": "Solidity",
  "natspec": {
    "kind": "dev",
    "methods": {},
    "version": 1
  },
  "opcodes": "PUSH1 0x80 PUSH1 0x40 MSTORE CALLVALUE DUP1 ISZERO PUSH2 0x10 JUMPI PUSH1 0x0 DUP1 REVERT JUMPDEST POP PUSH1 0x4 CALLDATASIZE LT PUSH2 0x2B JUMPI PUSH1 0x0 CALLDATALOAD PUSH1 0xE0 SHR DUP1 PUSH4 0x8A054AC2 EQ PUSH2 0x30 JUMPI JUMPDEST PUSH1 0x0 DUP1 REVERT JUMPDEST PUSH2 0x38 PUSH2 0x4E JUMP JUMPDEST PUSH1 0x40 MLOAD PUSH2 0x45 SWAP2 SWAP1 PUSH2 0x1A2 JUMP JUMPDEST PUSH1 0x40 MLOAD DUP1 SWAP2 SUB SWAP1 RETURN JUMPDEST PUSH1 0x40 DUP1 MLOAD PUSH1 0x2 DUP1 DUP3 MSTORE PUSH1 0x60 DUP3 DUP2 ADD SWAP1 SWAP4 MSTORE DUP2 PUSH1 0x20 ADD JUMPDEST PUSH1 0x40 DUP1 MLOAD DUP1 DUP3 ADD SWAP1 SWAP2 MSTORE PUSH1 0x0 DUP1 DUP3 MSTORE PUSH1 0x20 DUP3 ADD MSTORE DUP2 MSTORE PUSH1 0x20 ADD SWAP1 PUSH1 0x1 SWAP1 SUB SWAP1 DUP2 PUSH2 0x64 JUMPI POP POP PUSH1 0x0 DUP1 DUP1 MSTORE PUSH1 0x20 DUP2 DUP2 MSTORE PUSH1 0x40 DUP1 MLOAD DUP1 DUP3 ADD SWAP1 SWAP2 MSTORE PUSH32 0xAD3228B676F7D3CD4284A5443F17F1962B36E491B30A40B2405849E597BA5FB5 SLOAD PUSH1 0x1 PUSH1 0x1 PUSH1 0xA0 SHL SUB AND DUP2 MSTORE PUSH32 0xAD3228B676F7D3CD4284A5443F17F1962B36E491B30A40B2405849E597BA5FB6 SLOAD SWAP2 DUP2 ADD SWAP2 SWAP1 SWAP2 MSTORE DUP3 MLOAD SWAP3 SWAP4 POP SWAP2 DUP4 SWAP2 SWAP1 PUSH2 0x109 JUMPI PUSH2 0x109 PUSH2 0x1FA JUMP JUMPDEST PUSH1 0x20 SWAP1 DUP2 MUL SWAP2 SWAP1 SWAP2 ADD DUP2 ADD SWAP2 SWAP1 SWAP2 MSTORE PUSH1 0x1 PUSH1 0x0 DUP2 DUP2 MSTORE DUP3 MSTORE PUSH1 0x40 DUP1 MLOAD DUP1 DUP3 ADD SWAP1 SWAP2 MSTORE PUSH32 0xADA5013122D395BA3C54772283FB069B10426056EF8CA54750CB9BB552A59E7D SLOAD PUSH1 0x1 PUSH1 0x1 PUSH1 0xA0 SHL SUB AND DUP2 MSTORE PUSH32 0xADA5013122D395BA3C54772283FB069B10426056EF8CA54750CB9BB552A59E7E SLOAD SWAP3 DUP2 ADD SWAP3 SWAP1 SWAP3 MSTORE DUP3 MLOAD DUP4 SWAP2 SWAP1 DUP2 LT PUSH2 0x194 JUMPI PUSH2 0x194 PUSH2 0x1FA JUMP JUMPDEST PUSH1 0x20 MUL PUSH1 0x20 ADD ADD DUP2 SWAP1 MSTORE POP SWAP1 JUMP JUMPDEST PUSH1 0x20 DUP1 DUP3 MSTORE DUP3 MLOAD DUP3 DUP3 ADD DUP2 SWAP1 MSTORE PUSH1 0x0 SWAP2 SWAP1 PUSH1 0x40 SWAP1 DUP2 DUP6 ADD SWAP1 DUP7 DUP5 ADD DUP6 JUMPDEST DUP3 DUP2 LT ISZERO PUSH2 0x1ED JUMPI DUP2 MLOAD DUP1 MLOAD PUSH1 0x1 PUSH1 0x1 PUSH1 0xA0 SHL SUB AND DUP6 MSTORE DUP7 ADD MLOAD DUP7 DUP6 ADD MSTORE SWAP3 DUP5 ADD SWAP3 SWAP1 DUP6 ADD SWAP1 PUSH1 0x1 ADD PUSH2 0x1BF JUMP JUMPDEST POP SWAP2 SWAP8 SWAP7 POP POP POP POP POP POP POP JUMP JUMPDEST PUSH4 0x4E487B71 PUSH1 0xE0 SHL PUSH1 0x0 MSTORE PUSH1 0x32 PUSH1 0x4 MSTORE PUSH1 0x24 PUSH1 0x0 REVERT INVALID LOG2 PUSH5 0x6970667358 0x22 SLT KECCAK256 LT PUSH15 0x7AF5AECC41A52AD5450C7B64A2E00E NUMBER MULMOD CALL 0x4B BALANCE RETURNDATACOPY 0x28 SWAP15 0xC6 0x4F 0xDA LOG3 0xAD 0xBB 0x24 PUSH5 0x736F6C6343 STOP ADDMOD GT STOP CALLER ",
  "sha1": "f4873b036295839068ae0090400fa5f832fe000d",
  "source": "// SPDX-License-Identifier: MIT\npragma solidity ^0.8.11;\n\ncontract testmapping {\n    struct MyStruct {\n        address subber;\n        uint something;\n    }\n    mapping(uint => MyStruct) data;\n    constructor() {\n        data[0] = MyStruct(address(1337), 7331);\n        data[1] = MyStruct(address(4444), 5555);\n    }\n\n    function d() public view returns(MyStruct[] memory rtn) {\n        rtn = new MyStruct[](2);\n        rtn[0] = data[0];\n        rtn[1] = data[1];\n    }\n\n}",
  "sourcePath": "contracts/utils/testmapping.sol",
  "type": "contract"
}